:020000040000FA
:20000000D0D60020F9210000F5210000F5210000F5210000F5210000F52100000000000092
:20002000000000000000000000000000F5210000F521000000000000F52100006515000004
:20004000F5210000F5210000F5210000F5210000F5210000F5210000F5210000F5210000F0
:20006000F5210000F5210000F5210000F5210000F5210000F5210000F5210000F5210000D0
:20008000F5210000F5210000F5210000F5210000F5210000F5210000F5210000F5210000B0
:2000A000F5210000F5210000F5210000F5210000F5210000F5210000F5210000F521000090
:2000C000F5210000F5210000F5210000F5210000F5210000F5210000F5210000F521000070
:2000E000F5210000F521000000000000000000000000000011140000F5210000F521000083
:20010000F5210000F5210000F5210000F5210000F5210000F5210000F5210000F52100002F
:20012000F5210000F5210000F5210000F5210000F5210000F5210000F5210000F52100000F
:20014000F5210000F5210000F5210000F5210000F5210000F521000000000000000000001B
:2001600000000000000000000000000000000000000000000000000000000000000000007F
:20018000F5210000F5210000F5210000F521000000000000F5210000F5210000F5210000C5
:2001A000F5210000F5210000F5210000F5210000F5210000F5210000F5210000F52100008F
:2001C000F5210000F5210000F5210000F5210000F5210000F5210000F5210000F52100006F
:2001E000F5210000F5210000F5210000F52100006D140000F5210000F5210000F5210000E4
:20020000F52100000000000000000000F5210000F5210000F5210000F5210000F52100005A
:20022000F5210000F5210000F5210000F5210000F5210000F5210000F5210000F52100000E
:20024000F5210000F5210000F5210000F5210000F5210000F5210000F5210000F5210000EE
:200260000000000010B5054C237833B9044B13B10448AFF300800123237010BDD0010020EB
:2002800000000000082800000C4B43B10C480D4910B5AFF300800C48036823B910BD0A4898
:2002A000036833B97047094B002BF7D0BDE810401847064B002BF5D0184700BF0000000037
:2002C00008280000D40100200828000000000000F0B4421C00F10901490101F182410324A6
:2002E0000C70134B56019D196F6864F31E776F6040254D7102EB021291000E4D29440431D3
:20030000995100F10801490101F1824130220A7003EB40135E6964F31E765E6180220A715F
:2003200000EB001082002A4404321A61F0BC7047F00A0020F00B0020012805D0042801D08E
:2003400000207047012070470120704770B584B006460D4B0FCB04AC04E90F000024254604
:200360000BE004AB03EB840353F8103C012219687019064B984705440134032CF1DD0023DC
:20038000735504B070BD00BFD02500004523000008B5444B93F8582042F0010283F8582021
:2003A00093F83C2002F0F00283F83C2093F83C2042F0070283F83C2093F8592042F0010269
:2003C00083F8592093F83C2002F00F0283F83C2093F83C2042F0700283F83C204022324B27
:2003E000C3F8A820A3F5A0531A6942F480621A619A6942F001029A612B4B5B6813F0040F57
:20040000FAD14FF08242137843F0010313704FF082439B7813F0010FF9D1244B1B6803F0F0
:200420001F031F2B37D04FF08242118D63F38A1111851E4B1B68C3F344131F2B2DD04FF0A2
:200440008242118D63F304011185184B1A68C2F38222072A23D04FF08243198D62F30E31A9
:2004600019851A786FF3C7121A701A7842F004021A700F4858621A896FF383021A811A895A
:2004800092B222F0010292B21A814FF480720021084B984708BD0523C5E71D23CFE70322E8
:2004A000D9E700BF00800041001C004084008000F00A0020AF2500002DE9F0470746894645
:2004C00016464FF08242546A4FEA461A0AEB04081D46A3B169782B78994218D25C1AA14509
:2004E00028BFA14647B12B1D4A4619443846304B98476B784B446B704846BDE8F08706EB41
:2005000006139D002B4B1D442B4B9847E2E7AB78CBB92B1D4AF80430D8F804306FF30D0355
:20052000C8F80430D8F804306FF39B33C8F8043006F108035B0103F182431A7942F0400281
:200540001A710123AB7006F108035B0103F18243DB7913F0010F27D0D8F804305FFA83F884
:2005600085F80080AB78022B14D0C14528BFC146BFB185F801904A46291D38460C4B98474E
:2005800006F108035B0103F182430122DA710023AB70B1E75AF804104246281D044B98479F
:2005A000E3E700236B70EBE74FF00009A4E700BF99250000F00B00205525000010B50023D4
:2005C000014CA04710BD00BFB90400002DE9F04105460C4690461F4607E03B464246214628
:2005E0002846044EB047241A0544002CF5D1BDE8F08100BFB9040000F8B50D4614464FF0A0
:200600008242566A06EB441603B373696FF3DF7373613061736965F30D03736173696FF30A
:200620009B33736121460834640104F182440223E3718023637101F108035B0103F1824353
:20064000DB7913F0020FF6D02846F8BD7369C3F302730333012202FA03F38B4207D8221F0A
:2006600018BF0122736962F3DF737361D1E704EB04129300044F3B441F1D0A4601463846B6
:20068000024B98473846C4E7F00B00209925000010B50023014CA04710BD00BFF905000086
:2006A00008B5044B1B880022994228BF1946024B984708BDEC0100209106000000B583B0CB
:2006C000002211460DF10700024B984703B05DF804FB00BF9106000010B5044648B1084BB8
:2006E000984730B90834640104F182441023637110BD0834640104F182442023637110BDC2
:20070000390300002DE9F04194B04FF08246102386F80731B24B1A7993F805C09D79DF79D4
:2007200045EA072424B21FFA84FE197A587A41EA002109B21FFA81F8987ADB7A40EA03203C
:20074000A84B1880402386F8043142EA0C2340F20232934200F09D8145DCB3F5817F00F09B
:20076000BB811BDC822B00F061810CDC802B00F02E81812B51D114A8002320F8023D02216E
:20078000994B98472CE0B3F5807F00F0A18140F20112934241D1954B984721E040F2A122F0
:2007A000934200F0F88110DDB3F5407F00F06A8100F36C81B3F5307F2FD1B8F1070F00F0E6
:2007C000FC8000208A4B98470AE040F2A112934200F0E181B3F5E07F1FD10020844B98470E
:2007E00014B0BDE8F08140F6211293427FD018DD42F22102934200F0BB8170DD42F2212281
:20080000934200F0BD814FF6A162934200F0BB8142F2A112934200F0AE810020744B9847F3
:20082000DEE740F28162934213DCB3F5D06F61DA40F2A132934200F0AE81B3F5A06FECD18B
:200840006A4B984764F07F04E4B24FF082439C72C6E7B3F5086F00F0B580B3F5106FDCD1C0
:20086000604B83F82540614B98470120DFF8B881C0474FF08245402785F860715D4C636FF4
:200880006FF31E736367802685F864610420C047442285F8C02185F8C47185F8C461D4F8A4
:2008A000C410032363F31E71C4F8C410D4F8D41063F31E71C4F8D41085F8E02185F8E47144
:2008C00085F8E461D4F8E42063F31E72C4F8E420D4F8F42063F31E72C4F8F42080E740F6AD
:2008E0002122934203D040F62132934295D13F4B984775E7BEF5807F0ED0BEF5007F10D0E2
:20090000032F13D00F2F49D0212F4CD0222F4FD00020374B984763E712213748324B9847B6
:200920005EE799213548304B984759E7032D16D84822002101A8324B984703238DF8053013
:200940008DB904238DF8043009228DF806208DF8073014A810F84C1D234B984740E700201E
:20096000234B98473CE72748274B98471C4B9A79264B03EB82035C6A2046254B9847431C0F
:200980005B008DF804300023E25C002AE1D014A901EB430101F84A2C0133F5E739211D48DC
:2009A000114B98471CE709211B480F4B984717E721211A480C4B984712E7AA2118480A4BE2
:2009C00098470DE701211748074B984708E714A8002320F8023D0221034B984700E700BF77
:2009E000AC0A0020EC010020A1060000BD060000D9060000F00A0020E0250000000000208C
:200A0000AF250000F00100204D030000D0250000BF2500009C000020D800002004260000EA
:200A2000E400002011020020D10200000023ADF84E3001F0500108F00F08B8F1070F1DD861
:200A400081B108F108084FEA481303F182439B79C3F34013ADF84E3002210DF14E00524BC2
:200A60009847BDE608F108084FEA481303F182439B79C3F30013ADF84E30EDE700204B4B14
:200A80009847ADE60020494B9847A9E6484B9847A6E608F00F03BEF1000F15D1A3B1072B90
:200AA00012D811F0800F08D108335B0103F1824310225A713E4B984792E608335B0103F12B
:200AC000824320225A71F5E70020384B984787E60020364B984783E608F00F03BEF1000FC8
:200AE00042D1002B40D0072B3ED811F0800F1ED103F10802520102F18242927912F0100FAD
:200B000012D003F10802520102F1824210211171D27912F0200F07D008335B0103F1824395
:200B20002022DA7101221A71214B984758E603F10802520102F18242927912F0200FF3D0EA
:200B400003F10802520102F1824220211171D27912F0400FE8D008335B0103F182434022C4
:200B6000DA7102221A71DFE70020104B984737E60F4B984734E608210E480B4B98472FE622
:200B80000B4B98472CE614A8002320F8023D0121054B984724E6002301930293082101A85F
:200BA000014B98471CE600BFA1060000D9060000BD0600009001002038B5214B98474FF0D8
:200BC00082439B8B13F0080F09D14FF0824393F8073113F0100F2CD01A4B984729E04FF0C5
:200BE00082420824948380239372112182F80011402182F8051182F80431134B58680325A3
:200C000065F31E705860586965F31E7058610F4818600F481861586864F39B3058605868DD
:200C20006FF30D00586082F804110022094B83F82520084B93F82500003018BF012038BDA8
:200C40005525000005070000F00A0020B00A0020F40B0020EC01002008B5064B98470022DF
:200C6000054B83F825204FF08242137843F00203137008BD91030000EC01002010B50C469E
:200C80000122024B9847204610BD00BF9106000010B50C460122024B9847204610BD00BF24
:200CA0009106000038B504460D46054B984708B9002038BD022229462046024B984738BDF4
:200CC000B90B0000BD05000038B505460C46064B984708B9002038BD0023022221462846E2
:200CE000024DA847204638BDB90B0000CD0500000023934210DA10B405E020240470013051
:200D00000133934205DA0C78002CF6D001310470F5E75DF8044B704770470000F8B50546E9
:200D20000C464FF4007200212046554B98475DB17E2D41D8681E3E2801D9A5F1400018BB65
:200D4000F023237001231DE04E4E254606F1300E37460FCF28606960AA60EB603E461035C6
:200D60007745F5D107CE28606960AA603388AB81552384F8FE31AA2384F8FF31F8BDFF2268
:200D8000E2540133092BFAD9002203E04FF6FF7363520132FF2A0EDC02EB0023191FB1F53D
:200DA000006FF6D2510040F60305AB42EED09BB201339BB2ECE7F8BD822D2CD87F2D00D03D
:200DC000F8BD0B2230492046304B98472823E372002513E04FF48010E061AB1C63830B2252
:200DE0002B4901EB05112046284B98476FF0660222744D236374227663760135022D09D86A
:200E00002034204B03EB0513D86C0028E2D0214B9847E1E7F8BDA5F18303012B23D9853D21
:200E20002902B1F5002FCBD21B4B236003F1144303F52C1303F602336360184BC4F8FC316D
:200E400065614FF40063A361E1604FF480722261A36843F40053A360114BE36104F12000DC
:200E6000104B9847ACE7074A02EB0313DD6C2846084B98470246294620460A4B9847F8BD62
:200E8000AF250000502600007B260000F10C000090260000BF2500005546320A306FB10A9F
:200EA000604411559925000070B50C683B4884420AD0002038B1886810F4005F18D0CD6934
:200EC000374CA54214D070BD4C6800F1144000F52C1000F60230844201D00020EAE7D1F8F4
:200EE000FC413048844201D00020E3E70120E1E71D4616460C4610F0010F03D10B69B3F5C2
:200F0000807F31D0002D3FD0A369002B3CD02A68934208D040F663018B4201D8002A31D0A8
:200F20004FF0FF332B60636940F663029342CAD803F0070101228A40D2B2DB08E918097A04
:200F40000A4205D12B440A431A726B6801336B606A682B689A42B6D3002EB4D1124B1B68F8
:200F60001E33124A136070BDC86810F0FF0FC9D1B0F5804FC6D3B0F5002FC3D220310C4B2E
:200F80009847BFE72B60CEE7002E9CD1064B1B6803F59673054A136095E700BF5546320A48
:200FA00060441155306FB10AC8160020CC16002081100000074B5B8A13F0010FFAD0054BD8
:200FC00058614AF201529A80024B5B8A13F0010FFAD070470040004110B5044604E020460F
:200FE000034B984704F50054B4F5002FF7D310BDB50F000004E00A6802601A4604310430C3
:20100000531E002AF7D1704730B41C4B1C886FF305141C80194B5B8A13F0010FFAD04AF24E
:201020001554164B9C80154B5B8A13F0010FFAD016E04FF0FF3540F823500133032B06D854
:20104000A342F6D251F8235040F82350F5E70B4B58614AF204559D80A30018441944121B56
:2010600052B11446042A28BF0424044B5B8A13F0010FFAD00023E1E730BC704700400041B6
:201080002DE9F04F83B000AF444B1C8844F480421A801C8844F400421A804FEA5039C0F325
:2010A000042500233F2B07D851F8234050F82320944203D10133F5E7002300E001235BB177
:2010C00088460646364B13F809407CBB20F4FF5A2AF01F0A00230AE0EDB2324B03EB4919C1
:2010E000012309F805302BE001240133DBB21F2B0AD8002CF8D12B4A02EB4912D25C0AB1DE
:201100000124F2E70024F0E7C7F804D0ADF5005D82B0EB465CBB3046234B98470122204B79
:2011200003F80920002C36D1D7F804D04022414630461E4B9847194B5B8A13F0010FFAD0E8
:201140000C37BD46BDE8F08F0135EDB21F2DE2D8144B03EB49135B5D002BF5D04FF48072C4
:201160000AEB05210BEB0520114B9847ECE70025ECE70134E4B21F2CD6D80A4B03EB4913D0
:201180001B5D002BF5D040220BEB04210AEB0420064B9847EDE70024EDE700BF0040004115
:2011A000100E0020500E0020B50F0000091000009925000070B50446034690F847204021D0
:2011C0000020134DA847E8B100232370267916F0800F19D104F14800B4F8443006F03F059C
:2011E0002A46611D18440B4B9847B4F84400284480B2A4F8440016F0C00F07D00023A4F897
:20120000443070BD002070BD002070BD002070BDB9040000992500002DE9F04391B00D46EE
:2012200091469846074615E03F2448EA040310AE06F8403D224639460DF101000C4B9847C6
:2012400001235FFA89F2402130460A4EB04727442D1B0AD03F2DE7DCB8F1000F01D02C46B9
:20126000E3E72C464FF04008DFE711B0BDE8F08399250000F905000010B5002390F8472079
:2012800004314830014CA04710BD00BF191200002DE9F84380468946174600260EE05D1CE6
:2012A00018780D4B9847014601342B46FF2CF6DD06F1240308EB430399800136BE4204DAF7
:2012C00009EB062300242146F0E779004046034B9847BDE8F88300BF6D220000791200006A
:2012E00070B50446354B9847002839D0A36CB4F84C20A4F848200022A4F84A20013B082B2D
:2013000058D8DFE803F01505272E293151453E002B4E30462B4B984705460246314604F103
:201320004C00294B984729462046284B984770BD0123E3644FF4807323654FF40063636523
:201340004FF4A073A365224BE365142120461F4B984770BD1F4B9847002120461B4B984754
:2013600070BD1D4B9847F7E700212046174B9847206DB0F5804FF3D304F15401174B984701
:2013800070BD626D04F15801206D154B9847E3E7656D2A46216D04F14C00114B9847A90078
:2013A00020460A4B984770BD626D216D20460D4B984770BD0123A4F84A30CDE7B51100008B
:2013C00030270000BF250000992500007912000060441155312500008523000081100000F0
:2013E000F50F00009112000038B5074C062384F847302046054DA847072384F8CF3104F5A4
:20140000C470A84738BD00BF14020020E112000000B583B00D4B9B78DBB20193019B13F0B9
:20142000020F06D00A4B1B681BB1084A5068984709E0019B13F0010F05D0054B5B6813B1F4
:20144000024A5068984703B05DF804FB000002415016002008B5C3689A7A12F0010F00D1FA
:2014600008BD01229A7203689847F9E708B5024B1868024B984708BD240500205514000021
:20148000314B198841F004021A80304A137843F0010313702D4B5B6813F0010FFAD140F650
:2014A00004122A4B1A62294B5B6813F0040FFAD1274B00221A77274A9A62254B93F82C3024
:2014C00013F0100FF9D10022214B83F82020204B93F82C3013F0040FF9D11D4A137F43F079
:2014E000020313771A4B93F82C3013F0020FF9D1174B5A6A5A62164B93F82C3013F0080FEF
:20150000F9D19822124B83F82020114B1B6913F4807FFAD040F606320C4B1A620B4B5B6825
:2015200013F0040FFAD101220B4B5A710B4B40F2E7325A60E0210A4A82F8231000229A600D
:2015400007221A60704700BF00400041001C00400010004080BB01040008004010E000E0ED
:2015600000ED00E008B5014B984708BD9D230000F0B585B044F204031E68A6F58043B3F58E
:20158000F82F01D905B0F0BDC820534B984744F268231A68514B9A4259D0514B1B7813F06D
:2015A000010F67D000224F4B1A604F4D4FF480026A60062385F85630AA614FF400026A603D
:2015C00085F85730AA61494C4FF48032626084F85030A2614FF40032626084F85130A2617A
:2015E0002B6A03F48003009364203B4FB8472B6A03F4800300932B6A03F4000301936420F3
:20160000B8472B6A03F400030193236A03F4803302936420B847236A03F480330293236A00
:2016200003F4003303936420B847236A03F400330393009B002B38D0019B002B47D0029BD1
:20164000002B46D0039B002B2DD000232EE0244B1B7813F0010F04D1224B1A68244B9A422E
:201660009BD0234A1F4B1A60224B1B683233224A136087E71B4B1A68204B9A420FD0194B9A
:201680001A681B4B9A4206D01C4A164B1A604FF4FA70114B98470022124B1A6085E7002200
:2016A000104B1A606EE7012300E00123002B7FF469AF4FF480520C4BC3F894204FF4804341
:2016C0001A6882F308880E4A936030475AE70123ECE70123EAE700BF212300007CB0EE87F0
:2016E000000C0040FCFF02200080004180800041EF6926F0C8160020CC160020EF6916F0B3
:2017000000ED00E008B5464B9B6803B1FEE70022444B1A70434B9B68002BFBD1424B1A693F
:201720006FF341021A61404BDB6813F0040FFAD03D4B1A69C82161F317421A611A696FF3DA
:2017400083021A611A6942F002021A61364BDB6813F0010FFAD0344BDB6813F0020FFAD113
:20176000324B1B7813F0010F04D1304B1B7813F0040F07D064202E4B98472B4BDB6813F0DE
:20178000020FF7D1284B1A696FF341021A61264BDB6813F0040FFAD0234B1A69012161F35F
:2017A00083021A611A6942F002021A61214B9847214B9847214B9847BFF35F8F62B6204BF1
:2017C00098474FF480201F4B98470A221E4B1A7011E000221D4B1A604FF48060194B984784
:2017E0000122194B1A700DE0194B9847FCE700BF0133FF2BFBDD174B984730B1164B1B78BA
:20180000002BE6D00122144B1A70134B1B78002BEAD1114B1B78002BEDD10123E9E700BF79
:2018200000ED00E00020004000180040000C004021230000A92400007115000081140000AB
:20184000590C0000E9240000CD010020CC160020591E0000B90B00002805002001207047C6
:2018600001207047054B00221A605A609A60DA601A82F0221A700A22DA7170472C050020FF
:2018800070B506460D461446074B98470122074B1A73074B9E70220EDA70220C1A71220A38
:2018A0005A719C719D8170BD65180000980100202C05002008B5002211460420014B9847F9
:2018C00008BD00BF8118000008B500224FF400510520014B984708BD8118000008B5034BBF
:2018E00098470022024B1A7308BD00BF6518000098010020F8B507460C46154613460A4603
:2019000001210020054EB04708B90020F8BD2B4622461F213846B0470120F8BDB904000084
:2019200008B504220D210248024B984708BD00BF980100209106000008B5034B9A69034BF0
:201940005A60034B984708BD2C050020980100202119000010B50C460422084B9847844262
:2019600003D0074B9847074B9847074B9847074B9968091B9960034B984710BD9106000000
:20198000B518000039190000DD1800009801002010B5084B93F82740122C00D91224802182
:2019A0002046054B984700B910BD21460148034B9847F9E72C0500205D180000551900001B
:2019C00010B518220A490B480B4B98470B4B93F82740242C00D9242480212046084B98473B
:2019E00000B910BD21460748074B9847F9E700BF38260000B0010020F10C00002C0500205E
:201A00005D180000A80100205519000070B5204900234B638B63CB630B644B64064610B372
:201A20000B4691F82B503C330824194A92F8252002F03F021C2A1CD03F2A1AD0AC4200D20C
:201A4000254680212846134B984758B1D6B1023CA4B2230A43EA04240D4B9C8629460E48EA
:201A60000E4B984770BD0A4B93F8275038330424DBE71C221A700A225A700522DA700C34E6
:201A8000E4B2DBE7013C024B83F83440E6E700BF2C0500205D180000600500205519000030
:201AA00008B580210820074B984700B908BD06484FF40033C364054B40F8483F0821044B7F
:201AC0009847F3E75D1800002C05002000003E7F5519000000B585B00C4B93E8070004ABEA
:201AE00003E907000A4B9B680C2B02D90C22084B9A6080210C20074B984710B905B05DF83D
:201B000004FB0C2101A8044B9847F7E78C270000980100205D1800005519000008B5044B89
:201B2000984710B9034B984708BD034B9847F9E76118000039190000DD18000008B5024B34
:201B40009847024B984708BDDD1800003919000008B5024B9847024B984708BDDD1800009F
:201B6000391900002DE9F04182B0314B93F825208DF8072093F826208DF8062093F8272054
:201B80008DF8052093F828208DF8042093F82A208DF8032093F82B308DF80230BDF802301E
:201BA0005B02064640B180211846224B9847002836D102B0BDE8F0810021F5E71C4F07F1E9
:201BC0005005002305224FF400712846DFF88C80C04707F514730022294601982044164DE6
:201BE000A847164B9847164A9368A3F5007393600134BDF802309C4214D2124B9847002819
:201C0000D7D0002EDAD0104D2946019820440F4B984704224FF4007128460D4B9847E2E7FB
:201C20000024E6E70B4B98470B4B9847C1E700BF2C0500205D180000A90E000069240000D8
:201C400098010020B90B00007C0500201D0D000091060000DD18000039190000CD0500008C
:201C600008B5384B9847002205213748374B9847002865D0364BD969364A916093F82330AE
:201C80005A2B59D8DFE803F03C58582E585858585858585858585858585831585858585801
:201CA000585834425858455858585855583F58584D585158585858485858585858585858AF
:201CC000585858585858585858585858585858585858585858585858585858585858585804
:201CE000585838001C4B984708BD1C4B984708BD00201B4B984708BD0120194B984708BD93
:201D0000184B984708BD184B984708BD174B984708BD174B984708BD164B9847164B984729
:201D200008BD0120154B984708BD0020134B984708BD134B984708BD124B98470E4B984721
:201D400008BD00BFE913000040050020F51800002C0500209801002091190000C119000003
:201D60000D1A00001D1B0000A11A00003D1B0000511B0000DD18000039190000651B0000BE
:201D8000D51A0000C918000030B585B01F4B1B78002B38D0042909D0022909D004784D0056
:201DA0006A1E0DF106031A44002008E00468F6E70488F4E7373313702409013A0130A8420E
:201DC00007D204F00F03092BF4D843F030031370F2E730238DF8043078238DF805304B1C9A
:201DE00004AA02EB43030A2203F80C2C033504AB1D440D2305F80C3C0231490001A8044B72
:201E0000984705B030BD024B9847FAE7940800207D0C000030B5EFF30883054C236003685E
:201E200083F308884568A847236883F3088830BDBC16002000B583B0012201466846044B41
:201E4000984708216846034B984703B05DF804FB452300007D0C0000F8B50022994B1A607A
:201E60007A22994B1A70994B9847994C40212046984B9847984B18600023235430B9944A6B
:201E8000964B1A600022964B1A6072E0954B9847F5E7954B1B78002B3ED18B4B1B78532BE9
:201EA0003FD0522B00F0A3804F2B00F0A780482B00F0AA80572B00F0AD806F2B00F0B98003
:201EC000682B00F0BC80772B00F0C280472B00F0C880542B00F0D3804E2B00F0D880562BC1
:201EE00000F0E180582B00F0E380592B00F020815A2B2BD1734B1B687C4A17680024254610
:201F0000BC4280F029815E1C29461878784B9847054601343346F3E702217648764B98473A
:201F2000BBE76D4B1B686E4A126893423CD86C4A1368013B1360694A1368013B13606F4B32
:201F40001B786A4A11688B424BD300BF7A225E4B1A700022654B1A60634B1B78002B40F060
:201F600006815E4A1368013313605D4A1368013313605B4B1A68584B1B689A42BFF473AF48
:201F8000564B1B681B78FF2BEFD0232B81D0A3F13002D2B2092A00F2EF80544A1168303BA2
:201FA00043EA01131360DCE74C4C21680131216001324B4D2A609A1A4C4B1B689A4228BFF0
:201FC0001A464F4E32603F4B18684E4B984733682A681A442A6022681A442260474A13705D
:201FE000A5E7C91A374B1868474B9847ADE73F4B1968344B1868454B9847A7E7314B1B6865
:202000003A4A12781A70A1E72E4B1B68374A12881A809BE72B4B1A683D4B9A4205D0294BC8
:202020001B68324A12681A6090E70020394B9847F5E70121234B1868374B984786E7214B8D
:202040001B681B88294803600221334B98477DE71C4B1B681B682548036004212E4B9847E8
:2020600074E7224B18682D4B98471F4B5B78002B3FF46CAF01212A481F4B984766E70122BE
:20208000194B1A7002211B481B4B98475EE7164B1B781BB10022144B1A7057E702211548B9
:2020A000154B9847F6E731211E48134B98474DE70E4B18681C4B984703211C480E4B9847FC
:2020C00044E700BFB81600206C160020611C000074160020A50C0000641600206816002076
:2020E000701600206924000094080020C01600206D220000CC2700007D0C0000601600205A
:20210000C416002099250000C90C0000910C00000CED00E0E9240000891D0000151E0000D6
:20212000D027000098270000D90F0000D4270000254B1A6842B9254B1A68254B5A600321D9
:202140002448254B984701E79208214B59681F4B1868224B9847F2E7012121481E4CA0472A
:202160002846204B984703211F48A047EEE601211E48194B9847F4E6A3F14102D2B2052A32
:2021800006D8114A1168373B43EA01131360E8E6A3F16102D2B2052A06D80B4A1168573BB1
:2021A00043EA01131360DCE62C2B05D0104A13700022054B1A60D4E6034B1968034A11606D
:2021C00000221A60CDE600BFC0160020B816002094080020D82700007D0C000009100000B0
:2021E000DC270000351E0000E0270000E42700006C160020FEE7000008B5144B144A9A429A
:2022000009D0124B124A03E0116819600433043210498B42F8D3104B02E000221A600433E9
:202220000E4A9342F9D30E4B0E4A22F07F029A60D3F8882042F47002C3F88820BFF34F8F59
:20224000BFF36F8F084B9847FEE700BF0000002008280000D0010020D0010020D0160020C0
:2022600000ED00E0000000000517000070B4144B5E88DEB9002412E041F2210585EA430351
:202280009BB2013292B2072A05D813F4004FF3D15B009BB2F5E70A4A22F814300134FF2CBC
:2022A00004DCA3B21B029BB23246ECE780EA1120034B33F9100080EA012080B270BC70476F
:2022C0009C080020BFF34F8F0549CA6802F4E062044B1343CB60BFF34F8F00BFFDE700BF30
:2022E00000ED00E00400FA0570B51344157802F10102802441600326013EFDD12C4200D155
:2023000001600626013EFDD10160641004D0E4B20226013EFDD1EDE79A4200D2E6E770BD33
:20232000074B1B782BB141F6D10300FB03F0012303E041F6AA23F8E701338342FCD370477A
:202340009C0A0020F0B407461C25002007E0461C3C18092B12DD373323703046043D002DC4
:202360000EDB21FA05F303F00F03002AEFD1002BEDD1002DEBD00028F0D0E8E73033EBE7B5
:20238000F0BC704708B5024A024B1A60024B9847EF6916F0FCFF0220C52200002F4A0123DF
:2023A00013705368013353609268E2B1A2F57A718B4202D0934212D0704729494FF4805057
:2023C000C1F898004FF40040C1F898004FF48040C1F898004FF40050C1F89800EAE70022AD
:2023E0001E4B9A60704713F0FF0320D11C4B4FF48052C3F898204FF40042C3F898204FF4A3
:202400008042C3F898204FF40052C3F89820154B1B78A3F10A02D2B2F02A03D911494A7856
:2024200052424A700F4A51780B44137070470D4A12789342C0D10A4B4FF48052C3F8942083
:202440004FF40042C3F894204FF48042C3F894204FF40052C3F89420AEE700BF9C0A0020F6
:2024600000800041CC0100200D4B9A685B689A4214D203F5FA630A4A93600A4B4FF48052C9
:20248000C3F894204FF40042C3F894204FF48042C3F894204FF40052C3F89420704700BFEB
:2024A0009C0A00200080004110B40E4B4FF48054C3F888404FF40040C3F888004FF4804114
:2024C000C3F888104FF40052C3F88820C3F89840C3F89800C3F89810C3F898205DF8044B51
:2024E000704700BF0080004110B50D4B1022C3F88820C3F8942001200A4B9847EFF31083BA
:2025000033B100236A4610210748084CA04710BD72B66A4610210448044CA04762B610BD0B
:20252000008000412123000094800041E922000008B50020034B9847034A044B1A60044BC7
:20254000984700BFE9240000EF6926F0FCFF0220C522000008B50C4AD368591ED16063B94C
:202560004FF4FA62084BDA60084A136801331360074A12680AB1934200D208BD0022044B58
:202580001A60044B984700BF9C0A0020C8160020CC1600203125000010B5431E0A44914271
:2025A00000D110BD11F8014B03F8014FF7E702440346934200D1704703F8011BF9E70346D3
:2025C00013F8012B002AFBD1181A013870470000FC618000106080001460800018608000F3
:2025E00012011002EF020140EB03022401420102030100000000000028260000382600007A
:20260000F00100200697FF0901A101150026FF007508954009018102954009019102950140
:202620000901B102C0000000457175616C697A65204865616C746800466C6F774C69746541
:202640002053414D44353120426F617264000000EB3C905546322055463220000201010032
:202660000240007E3EF83F000100010000000000000000008000294200420053414D44359C
:2026800031000000000046415431362020200000494E464F5F5546325458540030270000B8
:2026A000494E44455820202048544D00C026000043555252454E5420554632000000000063
:2026C0003C21646F63747970652068746D6C3E0A3C68746D6C3E3C626F64793E3C736372AD
:2026E0006970743E0A6C6F636174696F6E2E7265706C616365282268747470733A2F2F6568
:202700007175616C697A656865616C74682E6F72672F22293B0A3C2F7363726970743E3C99
:202720002F626F64793E3C2F68746D6C3E0A000055463220426F6F746C6F616465722031CD
:202740002E362053464857524F0D0A4D6F64656C3A20466C6F774C6974652053414D44351A
:202760003120426F6172640D0A426F6172642D49443A20466C6F774C697465202D205341E6
:202780004D4435314A3230410D0A00000000000800003E800200020076312E31205B53415F
:2027A0004D4435314A32303A464C4F574C4954455D204D617920313720323032322031353E
:2027C0003A33353A35360A0D000000000A0D000006000000580A0D00590A0D005A00000045
:2027E000230A0D003E000000F8B500BFF8BC08BC9E46704789020000F8B500BFF8BC08BC73
:202800009E467047650200000902990005010080FA080B0002020201000904000001020266
:20282000010005240010010424020605240600010524010301070583030800FF0904010028
:20284000020A0000000705810240000007050202400000090402000208065000070584024C
:202860004000000705050240000009040300020300000009210001000122210007058603AC
:20288000400001070506034000010904040002FF2A01000705870340000107050703400037
:2028A00001000000050F3900021810050038B60834A909A0478BFDA0768815B66500010180
:2028C000001C100500DF60DDD88945C74C9CD2659D9E648A9F00000306AA000200000000A2
:2028E0000904030002030000030000000A00000000000306AA00080002000400A000140041
:20290000030057494E555342000000000000000000008400040007002A0044006500760004
:2029200069006300650049006E0074006500720066006100630065004700550049004400AC
:202940007300000050007B00390032004300450036003400360032002D0039004300370094
:2029600037002D0034003600460045002D0039003300330042002D003300310043004200DA
:20298000390043003500420042003300420039007D0000000000000000C20100000008000C
:2029A000534253550000000000000000000000000080020220000000000000000000000036
:1829C00000000000000000000000000000000000312E3030C801000077
:20400000508B0120856A0000816A0000816A0000816A0000816A0000816A0000000000001E
:20402000000000000000000000000000F1F20100816A00000000000081F30100E5F3010063
:20404000816A0000816A0000816A0000816A0000816A0000816A0000816A0000816A000008
:20406000816A0000816A0000816A00005500010019FD000021FD0000816A0000816A00001F
:2040800029FD0000816A0000816A0000816A0000816A0000816A0000816A0000816A00008D
:2040A000816A0000816A0000816A0000816A0000816A0000816A0000816A0000816A0000A8
:2040C000816A0000816A0000816A0000816A0000816A0000816A0000816A0000816A000088
:2040E000816A0000816A000000000000000000000000000019FF0000816A0000816A0000FC
:20410000816A0000816A0000816A0000816A0000816A0000816A0000816A0000816A000047
:20412000816A0000816A0000B1090100A9090100A109010091090100816A0000816A00001F
:20414000816A0000816A0000D9090100D1090100C9090100B9090100000000000000000035
:2041600000000000000000000000000000000000000000000000000000000000000000003F
:20418000212901002929010031290100392901000000000069110100816A0000816A000072
:2041A000816A0000816A0000816A0000816A000079110100816A0000816A0000816A000007
:2041C000816A0000816A0000816A0000816A0000816A0000816A0000816A0000816A000087
:2041E00089110100816A0000816A0000C5170100816A0000E1170100816A0000F117010099
:20420000011801000000000000000000816A0000816A0000816A0000816A0000816A0000ED
:20422000816A0000816A0000816A0000816A0000816A0000816A0000816A0000816A000026
:20424000816A0000816A0000816A0000816A0000816A0000816A0000816A0000816A000006
:204260000000000010B5054C237833B9044B13B10448AFF300800123237010BD700F0020FD
:2042800000000000904903000C4B43B10C480D4910B5AFF300800C48036823B910BD0A48AC
:2042A000036833B97047094B002BF7D0BDE810401847064B002BF5D0184700BF00000000F7
:2042C00090490300740F002090490300000000001C4B1B784BB11C4B587ADA785B7B4002EA
:2042E00000EBC20000EB4330704717494A780B784879F0B48E78CD780C798F7902EB4303E7
:2043000003EB860303EBC50303EB041303EB4013C8790E7A4D7A8A7ACC7A03EB871303EBDA
:20432000C01000EB062000EB452000EB82200A7B4B7B00EBC42000EB023000EB4330F0BC7E
:20434000704700BF100000208C0F002010B5054B9847054B04469847002814BF204600200E
:2043600010BD00BF01A30100A1A201002DE9F04F2DED028B754B764C764D87B09847764BB0
:2043800008EE100A9847754B0646984794F801A0074618EE100ABAF1000F3BD1A84780462E
:2043A00030468946DFF8F0B1A84700224FF08043D847DFF8E8B102460B4640464946D847D1
:2043C000002840F0A68094F800A0BAF1000F4FD118EE100AA847804630468946A847604DA3
:2043E00000224FF08043A8475E4D02460B4640464946A847002840F0A280F3EE047AB4EEE7
:20440000E78AF1EE10FA00F38D8007B0BDEC028BBDE8F08FA847804630468946DFF878A147
:20442000A8470022504BD047DFF838A102460B4640464946D0470028C5D000224B4B6270FD
:204440009847142802D04A4B984708B900236361A2694849531E042B88BF0522464B88BFD1
:20446000A2610220984794F800A0BAF1000FAFD0237F002BC9D018EE100AA8478046304622
:204480008946A847364E384B002282468B46B0473A4E02460B4640464946B0470028B4D0CC
:2044A000F3EE057AB4EEE78AF1EE10FAADD5344EB04707EE907A07EE100A77EEC77A9FED65
:2044C000317AF0EEE77AF4EEC77AF1EE10FA9CDB0023264A237023779047172802D0244B58
:2044E000984708B900236361A369013B022B84BF0323A361B047A3690493A8471E4CCDE9AA
:204500000201CDE900AB42464B461F490220A0477BE701221D49184BC4F810A003206270FE
:20452000984750E71A49144A2061012303202370237707B0BDEC028BBDE8F04F1047012363
:2045400014490D4AC4F810A0F0E700BF09D400008C0F00207D45020079D3000019CA00001A
:20456000C1420200454B02000000F83F01A30100D14200001CB2020091C601001D4B020023
:2045800025CA00009A99993E98B2020000B202006CB2020050B20200BD420200094B0200A7
:2045A0002DE9F0472DED028B3B4B3C4C82B098473B4B05469847237908EE100A03BB394B4A
:2045C00093F800A0BAF1000F15D1F0EE007AB4EEE78AF1EE10FA0EDD0FF2AC09D9E90089D0
:2045E0002846314B314D984742464B4606460F46A847002839D102B0BDEC028BBDE8F08795
:204600002846294B984706460F46294D20A3D3E9002330463946A84730B9F7EE087AB4EE4A
:20462000E78AF1EE10FAE6D50022224B22719847182802D0204B984708B900236361A36954
:2046400013A1D1E90001013B032B84BF0423A3613246CDE900013B461849194C0320A04793
:2046600002B0BDEC028BBDE8F0873B46CDE9008932461449124D0320A8470123C4F810A0A0
:204680002371C2E7AFF30080CDCCCCCCCCCCFC3F9A9999999999014085B700008C0F0020E8
:2046A00019CA0000100000207D450200094B0200454B020001A30100D142000040B302008E
:2046C00091C60100F8B202002DE9F041424B434D2DED028B984708EE100AA84738B1404B79
:2046E00000229A729A71BDEC028BBDE8F0813D4F3B4E0446B847122820D9B379002B40D03D
:20470000DFED397AB4EEE78AF1EE10FA4EDCB37AC3B9DFED367AB4EEE78AF1EE10FAE2DD14
:20472000A8470028DFD1BDEC028B01223061B2722F49304B0320BDE8F0411847B37AB47107
:20474000002BE6D0DFED2C7AB4EEE78AF1EE10FAC9D50023B372B8471C2802D0274B9847BE
:2047600008B900237361B2692549BDEC028B531E032B84BF0422B2611E4B0220BDE8F04146
:204780001847B8471228C2D9DFED1E7AB4EEE78AF1EE10FABBD5A8470028B8D101223061A2
:2047A0001949144BB27103209847B0E7B471B8471B2802D0114B984708B900237361B26935
:2047C0001249531E032B88BF04220A4B88BFB261022098479BE700BFADF7000001F30000E9
:2047E0008C0F002001A3010000000E4200002C42DCB3020091C6010000002A42D142000033
:20480000FCB3020000000C4288B30200A8B3020070B5404B404D2DED028B984708EE100A2C
:20482000A847B0B93D4CE37A002B39D0DFED3C7AB4EEE78AF1EE10FA56DC237B83B9DFEDB0
:20484000397AB4EEE78AF1EE10FA3FDCBDEC028B70BDBDEC028B314B00221A73DA7270BD51
:20486000DFED317AB4EEE78AF1EE10FAEED500222E4B22739847202802D02D4B984708B9C1
:2048800000236361A2692B49BDEC028B531E032B84BF0422A261284B0220BDE87040184728
:2048A000224B98471228C8D0DFED247AB4EEE78AF1EE10FAC1D5A8470028BED10122206194
:2048C0001F491D4BE27203209847B6E7A8470028BCD1BDEC028B0122206122731949164B3F
:2048E0000320BDE870401847104BE07298471F2802D00F4B984708B900236361A2691249F5
:20490000531E032B88BF04220B4B88BFA2610220984792E771F7000061F300008C0F0020FA
:2049200000000E420000A4420000A34201A30100D1420000BCB4020091C6010000000C428C
:2049400030B4020094B4020058B4020070B52D4B2D4C2DED028B9847E37905466BB350B9AF
:204960002A4B984707EE900ABBEE048AF4EEC87AF1EE10FA38DC264DA84711281AD800234C
:20498000E371A8471D2802D0224B984708B900236361A2692049BDEC028B531E032B84BF3D
:2049A0000422A2611D4B0320BDE87040184735B301236377BDEC028B70BD154EB0471128B3
:2049C000F8D9B0471228F2D0002DF3D0637F002BF0D1BDEC028B01252361E57110490F4A6D
:2049E0000320BDE8704010470E4B984707EE900AF4EEC87AF1EE10FABDDD054DBFE76577A6
:204A0000D8E700BF01F300008C0F0020ADF7000001A30100D142000020B5020091C60100DE
:204A2000F8B4020031CA000010B50B4CA37F53B90A4B1B7803B110BD094B98470028FAD0F5
:204A40000123A37710BD074A4FF000410023C2F89410A37710BD00BF8C0F00201000002068
:204A6000A1A201000080004110B50B4C236A032B08D884F8280030B9084B4FF00042C3F85E
:204A8000942010BD10BD064B9847044B60624FF00042C3F8942010BD8C0F0020008000414E
:204AA000CD050200034B186A032894BF00200120704700BF8C0F0020014B93F828007047AC
:204AC0008C0F002000000000F0B55B4C5B4B83B09847657A002D28D0594B5A4D984752A3F4
:204AE000D3E9002306460F46A847C8B10022564B62729847192802D0544B984708B90023E3
:204B00006361A36952495A1E032A84BF0423A361324600934F4C3B460220A04703B0F0BD87
:204B20004D4B98470028E1D1F8E74C4B06469847002846D1E578002D29D03046404B414D32
:204B400098473BA3D3E9002306460F46A84718B9414B9847002845D03B4D0023E370A847C3
:204B600016282BD0394B9847002827D06269A369591E032984BF0423A361394901920093EA
:204B800032463B46334C0220A04703B0F0BD354B98470028C2D02C4FB8471028BED9B847D3
:204BA0001228BBD0304A264B15700122E27030469847284C0B4602462C490DE000226261A2
:204BC000D5E7294A1E4B15700122627230469847204C0B46264902460320A44603B0BDE893
:204BE000F0406047184DA8471228B6D0A847102802D9A847222891D90023E370A847162882
:204C000002D0124B984708B900236361A3691949013B032B84BF0423A3610E4B022003B06A
:204C2000BDE8F040184700BF9A999999999934409A999999999935408C0F00201158010045
:204C40007D450200314B020001A30100D142000090B5020091C60100DD57010065580100C8
:204C6000FCB502003558010010000020D4B502005CB502004CB6020070B5954C637B2DED23
:204C8000028B002B6FD094F82930002B40F0B78094F82A30002B39D194F82B30002B40F049
:204CA000FA8094F82C30002B40F0428194F82D30002B40F06C8194F82E30002B40F0CE80B0
:204CC00094F82F3013B9BDEC028B70BD814B9847002800F0A38100237F4A637384F82F3036
:204CE0009047212802D07D4B984708B900236361A2697B49BDEC028B531E012B84BF02226A
:204D0000A261784B0220BDE870401847764B9FED778A984707EE900AF4EEC87AF1EE10FA2E
:204D2000BAD5734B984707EE900AF4EEC87AF1EE10FAB1D50023684A637384F82A309047CD
:204D4000212802D0654B984708B900236361A2696849531E012B88BF0222624B88BFA26146
:204D60000220984798E7604D9FED638AA84707EE900AF4EEC87AF1EE10FA40F137810123F5
:204D8000637384F82930A8475C4B564D984702460B4603205A49A8475A4B9847042840F220
:204DA00048810123584A637384F82B309047534B4C4D984702460B4603205449A847544BE3
:204DC0009847002840F04E81424B984700287FF47AAF504B984700287FF475AF4E4B9847EC
:204DE00000283FF470AFBDEC028B0123637384F82F304A493B4A0320BDE8704010473A4BC2
:204E00009FED478A984707EE900AF4EEC87AF1EE10FA7FF73DAF364B984707EE900AF4EE87
:204E2000C87AF1EE10FA7FF733AF00232A4A637384F829309047212802D0284B984708B9A8
:204E400000236361A2693749531E012B88BF0222244B88BFA261022098471DE72C4B9847C4
:204E600000287FF42DAF1C4B607384F82E009847212802D0194B984708B900236361A269E7
:204E80002949531E012B88BF0222164B88BFA2610220984714E71B4B984700287FF401AF61
:204EA0000D4B607384F82B009847212802D00B4B984708B900236361A2691C49531E012B3C
:204EC00088BF0222074B88BFA26102209847F2E68C0F0020ED57010001A30100D14200003A
:204EE00058BA020091C6010061CA0000004067456DCA000014B90200000096437D4502008C
:204F000094B60200F92B010085B7000064B70200CD4D0100F9570100DD57010098B80200D4
:204F20000000C843D4B8020008BA020054B902008B4B984707EE900ABFEE008AF4EEC87A66
:204F4000F1EE10FA7FF7B2AE864B984707EE900AF4EEC87AF1EE10FA7FF7A8AE0023824A8B
:204F6000637384F82C309047212802D07F4B984708B900236361A2697D49531E012B88BF8B
:204F800002227C4B88BFA2610220984793E6744B984707EE900AB3EE0D8AF4EEC87AF1EEFA
:204FA00010FA7FF588AE6F4B984707EE900AF4EEC87AF1EE10FA7FF57EAE00236A4A6373BB
:204FC00084F82D309047212802D0684B984708B900236361A2696849531E012B88BF022208
:204FE000644B88BFA2610220984764E6A847DFED638A07EE900AF4EEE87AF1EE10FA3ADDF2
:205000000123637384F82A30A8475D4B594D984702460B4603205B49A847BDE65A4B98472E
:2050200000287FF458AE594B984700283FF453AE49E64B4DA84707EE900AB8EE008AF4EE99
:20504000C87AF1EE10FA36D50123637384F82C30A8474B4B474D984702460B4603204C49FF
:20506000A847ACE601234B49424A6373032084F82E309047A8E6484DA84707EE900AF4EE3E
:20508000C87AF1EE10FA37D4A84707EE900AF4EEE87AF1EE10FA7FF77FAE0123637384F816
:2050A0002A30A847364B334D984702460B4603203A49A84770E6A84707EE900AF3EE0F8A4B
:2050C000F4EEE87AF1EE10FA24DC264DA84707EE900AF4EEC87AF1EE10FA29D501236373AD
:2050E00084F82C30A847264B224D984702460B4603202B49A84762E60123637384F82930F4
:20510000A8471F4B1B4D984702460B4603202549A84741E60123637384F82D30A847184B8A
:20512000144D984702460B4603201F49A84746E6A84707EE900AF4EEE87AF1EE10FA7FF7CF
:205140003EAE0123637384F82D30A8470C4B094D984702460B4603201449A8472FE600BF39
:2051600085B7000091B7000001A30100D142000090B9020091C60100CCB9020000806D4597
:205180007D450200C8B60200F9570100DD57010094B702005CB802006DCA000030B70200C2
:2051A000FCB70200FCB60200C8B702002CB8020070B5124E124CB047D4ED0C7A07EE100AEF
:2051C000B4EE677AF1EE10FA07D194F8385015B1626B082A0AD8284670BD00230125636326
:2051E00084F83850B0472063284670BD00250549054B84F8385002209847ECE745D10000E5
:205200008C0F002098BA020091C601002DE9F0415D4C94F8383023B1636B072B01D8BDE8F1
:20522000F081A3780BB3594B594D9847594B0646984780463046A847064640460F46A847EB
:20524000554D564B0022A847554D02460B4630463946A84700287DD16379002B29D1514BC8
:205260009847002855D0BDE8F0814E4B98470028F2D1464B464D9847464B06469847804604
:205280003046A847064640460F46A847424D464B0022A847454D02460B4630463946A84753
:2052A0000028D9D001224249424BA27003209847D2E7364B364D9847364B064698478046C0
:2052C0003046A847064640460F46A8473A4D334B0022A847354D02460B4630463946A8473E
:2052E0000028C0D00022354B627198471E2802D0334B984708B900236361A2693149531E8F
:20530000042B84BF0522A2612A4B0220BDE8F04118471E4B1E4D98471E4B06469847804618
:205320003046A847064640460F46A847224D1E4B0022A8471A4D02460B4630463946A84725
:20534000002890D0012262711F491A4B0320BDE8F04118470022194BA2709847152802D024
:20536000174B984708B900236361A2691749531E042B88BF05220F4B88BFA2610220984726
:205380000023237168E700BF8C0F002081D100007D45020045D10000BD42020000001C4004
:2053A000454B0200B151000000002440094B0200BCBA020091C60100C142020001A3010025
:2053C000D142000010BB0200FCBA0200D0BA0200C30701D5142938D0820701D5172934D021
:2053E000430701D5152930D0020701D516292CD0C30601D5182928D0820601D51E2924D0C4
:20540000430620D4020601D51D291ED0C30501D51A291AD0820501D5192916D0430501D5CF
:205420001C2912D0C20401D520290ED0030501D51F290AD010F4005008D0A1F12100B0FAF9
:2054400080F0400970471B29DCD10120704700BF064B0022DA631A645A701A709A705A71FD
:205460009A719A72DA715A77704700BF8C0F0020704700BF10B500EB8000074C074B00EB92
:205480008000820092B2204642F2107198472046034BBDE810401847A4C900205DDE0000FC
:2054A000E1DD000010B500EB8000074C074B00EB8000820092B2204642F2107198472046C8
:2054C000034BBDE81040184714CA00205DDE0000E1DD000070B542F2107542F20F74A842B4
:2054E00098BF0446064B0748984722462946064B044898470348054BBDE87040184700BF2B
:2055000021DE000014CA00205DDE0000E1DD000038B56C4B6C4CA3FB01235B09421E0D4660
:2055200084F8453084F84400062A00F2B880DFE802F01E364983639C0400644B42F2107120
:2055400042F20F728D4288BF15461B69ADB25D861C6914F0FF04FBD15D4B204698475D4B72
:205560001A695486136913F0FF0FFBD138BD574B1B6900225A86186910F0FF00FBD1544B6D
:20558000984742F20F71534B8D4228BF0D461A69ADB25586136913F0FF0FFBD138BD4B4B30
:2055A0001A6900235386146914F0FF04FBD1484B28469847474B1A695486136913F0FF0FC0
:2055C000FBD138BD414B42F2107142F20F728D4288BF15461B69ADB25D861C6914F0FF0451
:2055E000FBD13B4B204698473A4B1A695486136913F0FF0FFBD138BD344A42F2107142F27D
:205600000F738D4298BF2B4612699BB25386136913F0FF0FFBD128462D4B984742F20F71FE
:205620002C4B8D4228BF0D461A69ADB25586136913F0FF0FFBD138BD244B1A6900235386F1
:20564000136913F0FF0FFBD12846214B984742F20F71204B8D4228BF0D461A69ADB2558653
:20566000136913F0FF0FFBD138BD184B42F2107142F20F728D4288BF15461B69ADB25D86D8
:205680001C6914F0FF04FBD1114B20469847114B1A695486136913F0FF0FFBD138BD0B4BB4
:2056A0001B6900225A861C6914F0FF04FBD1084B20469847074B1A695486136913F0FF0F38
:2056C000FBD138BD1F85EB518C0F0020A4C90020D554000098C8002038B51F4C94F84630DE
:2056E00023B3A36C302B22DC002B2CDB1B4A1C4D02EB830393ED007A94F84C3094F84D001E
:20570000184A03EB830303EB83039B0007EE903AF8EEE77A67EE877AFCEEE77A17EE901A4E
:2057200090476B785BB9A36C013BA36438BD0C4D002231236A70A364B7EE007ADCE7A36CB3
:205740000133A36438BD064D9FED077A012200236A70A364D0E700BF8C0F002034B102007A
:2057600010000020115500000000000070B50A4D0A4B044604EB8404284604EB840498473D
:20578000A2002846064B92B242F2107198472846044BBDE87040184798C8002021DE0000E0
:2057A0005DDE0000E1DD0000384A431E70B50C4682F8440082F84510062B51D8DFE803F0F5
:2057C0003B150426370404000846314B9847002242F210712F4B30489847304B2E489847EF
:2057E00000202F4BBDE870401847002242F21071284B2C489847294B2A48984720462A4B1E
:2058000098470020264BBDE870401847214B2548002242F2107198472248204B98472046BB
:20582000214B984720461E4BBDE8704018470846174B9847F3E7002242F21071154E194896
:20584000164DB0471748A847002242F210711248B0471148A8472046114BBDE870401847BA
:20586000002242F210710B4D0E480C4CA8470D48A047002242F210710748A8470648A047D6
:205880000020074BBDE87040184700BF8C0F0020755400005DDE000014CA0020E1DD0000A8
:2058A0006D570000A4C90020A55400000C4BF0B4002583F846009D6418B90146094BF0BCA4
:2058C0001847094F074C83F84D100E4683F84C202946012530467D702346F0BC184700BF80
:2058E0008C0F0020A95700001000002070B59C4CE16B82B011B1236D002B40D1A3691BB1CC
:2059000062699342C0F08480236C8B4217D0C9B100238D05236100F1E480880440F1BA80F1
:2059200094F82F30052222650BB10A2222658D498D4B02209847E16B236C8B4203D129B15A
:2059400002B070BD216521640029F9D1874B98470028F5D0A369002BF2D1854B9847854B53
:20596000002840F0DD80984783497F4B0246022098471120814B02B0BDE8704018472269C6
:205980009342BBD27E49784D0220A84794F8452094F84410774B84F8552084F854109847C5
:2059A000E26B84F85600930500F1CA80960400F1A880900700F10281D10700F10E81D30606
:2059C00000F11A81560700F13481900600F14481110700F14881530500F15381D60500F131
:2059E0006781D00400F16F81510600F17381130500F17B81160640F174811D205F4B9847C1
:205A000060490220A84700232365A361E16B7BE794F85610009102205B49534E554DB047EC
:205A20005A4B4FF00042C3F894200023A361A84710282DD0A84713282AD0A847112827D043
:205A4000A847122824D094F856500DB30F2D00F03681E06B002800F0F38029464C4B984799
:205A6000002840F0ED80424B9847002800F010811320424B9847002319461846454D84F8BF
:205A80004630A364A84794F8551094F85400A847E16B39E78A073BD4CB0749D4CE0628D40F
:205AA0004D0754D4880600F190800A0700F19C804B0500F1A880CE0400F1C680CD0540F148
:205AC000AA80A3693449013B032B88BF04234FF00502226588BFA3610522234B022098478D
:205AE00029E705231A462D491F4D23650220A84721E708231A462A491B4D23650220A8478C
:205B000019E721201D4B984726490220A8477AE705231A462449144D23650220A8470AE73C
:205B200098472249104B024602209847132021E705231A461E490C4D23650220A847FAE67B
:205B400019200E4B98471B490220A8475BE732231A461949044D23650220A847EBE600BF8C
:205B60008C0F002080BF020091C60100A1A201006DD4000001A30100B4C202000DA301007E
:205B80003CBB02006CBE020004BF020000800041D1530000A957000030C1020048BF02003A
:205BA00010C0020098BB0200B0BF020064C20200E0BF020064BB02003CC002001720564B8D
:205BC000984756490220A8471DE732231A465449544D23650220A847ADE614204E4B984767
:205BE00051490220A8470EE708231A464F494D4D23650220A8479EE61820474B98474C49ED
:205C00000220A847FFE614231A464A49454D23650220A8478FE648063ED40A0542D40B062E
:205C200028D505231A4644493E4D23650220A84781E61520384B984740490220A847E2E6CE
:205C40002846354B984716E714231A463C49354D23650220A8476EE61E202F4B98473949D6
:205C60000220A847CFE616202B4B984736490220A847C8E60B46226C34492A4D0220A847B1
:205C800059E61C20244B984731490220A847BAE61120214B9847EEE62E4B984700282BD045
:205CA000E16BBAE72B4B984700282DD0E16BB6E71A20194B984728490220A847A3E60E20DE
:205CC000154B9847D7E62020134B984723490220A84798E61B20104B984721490220A84760
:205CE00091E620490220A8478DE61F200A4B98471D490220A84786E6B4231A461B49094DF9
:205D000023650220A84716E6B4231A461849054D23650220A8470EE60DA30100C4BB020045
:205D200068C0020091C60100F0BB020094C002001CBC0200C4C00200E0C1020058BC0200C5
:205D4000F8C0020080BC0200A4BC02001CC20200CCBC02003558010018BD020078BD0200E3
:205D6000D0BD0200C4BE020018BE020074C10200A8C102002DE9F04FDFF884A1DFF8848169
:205D80004B4F4C4E4C4CDFF880B1DFF8809183B0D04702AD4FF47A6145F8040D2846C0476D
:205DA000B847B04702284FF01501F7D9D047A36D1BB1C31AB3F57A7F13D3E36BA06513B130
:205DC000236901332361636994F8382001336361002A44D0636B0133636394F82830002BC2
:205DE00042D1D84718B199F80030002B5AD0334B984718B199F80030002B56D0D84718B172
:205E000099F80030002B47D02D4B984718B199F80030002B43D02B4B984718B199F8003081
:205E2000002B36D0284B9847284B9847284B9847284B9847284BE063984700B92062274BA7
:205E40009847D047E36D1BB1C31AB3F57A7F02D3234BE0659847234B984715219EE794F8B7
:205E600028306263002BBCD0D047636AC01A4EF660239842B5DD236A032B07D8002184F826
:205E8000281019494FF00042C1F8942001332362A7E7164B9847C5E7154B9847B4E7154B0D
:205EA0009847B8E7144B9847A1E7144B9847A5E7B151000001A301008C0F002045D000005D
:205EC000EDF5000099F500004D490000C94A0000794C0000D1420000A1A20100D95600005E
:205EE000294A0000ED5800000080004111480000A1450000C94600006D4300000D520000CC
:205F0000CD050200210802006DD4000010000020034A044B4FF00041C2F894101870704758
:205F20000080004110000020014BD863704700BF8C0F0020014B587B704700BF8C0F002068
:205F4000014B93F8290070478C0F0020014B93F82A0070478C0F0020014B93F82C007047A2
:205F60008C0F0020014B93F82D0070478C0F0020014B93F82B0070478C0F0020014B93F8A5
:205F80002F0070478C0F0020014B93F82E0070478C0F0020014B5870704700BF8C0F0020A4
:205FA000014B1870704700BF8C0F0020014B9870704700BF8C0F0020014B5871704700BFCC
:205FC0008C0F0020014BD870704700BF8C0F0020014B1872704700BF8C0F0020014BD871A5
:205FE000704700BF8C0F0020014B9871704700BF8C0F0020014B9872704700BF8C0F002063
:20600000014BD872704700BF8C0F0020014B1873704700BF8C0F0020004B1847358F000043
:2060200070B5064D064C4FF400166E613220A047AE6123466420BDE87040184700800041C4
:20604000358F0000024B4FF400225A61704700BF00800041024B4FF400229A61704700BFB5
:206060000080004130B587B006AB002503F8110D012403A9034A044803930495059490474B
:2060800007B030BD35DF00003CC90020F0B58BB0002308290393029314D80AAD0A4655215B
:2060A00005F8211D02AE044607A9049601270648064E05940692089307950997B04704A9EB
:2060C0000148B0470BB0F0BD3CC9002035DF000010B5034B9847034BBDE81040184700BF8C
:2060E000997400004D250200F8B5094C07466FF0B9000E461546A0473846A0473046A04760
:206100002846A047034B9847034B98470120F8BDAD7E0000D17E0000AD84000008B56FF033
:20612000B6000A4B98470A4B98470A4B98470A480A4B9847022806D002460949094B022077
:206140009847002008BD012008BD00BFAD7E0000D17E0000AD840000F0253000257E000043
:2061600008C3020091C6010008B50A4B98470A4B98470A4B98470A480A4B9847032806D01A
:2061800002460949094B02209847002008BD012008BD00BF75840000D17E0000AD8400000D
:2061A000F0253000257E00002CC3020091C60100830709D10B469B0606D1930710B405D04E
:2061C00000205DF8044B704700207047014B5DF8044B1847E960000030B408B10138C0B28D
:2061E0000F4B104D002204E00132462A03F1180313D01C68A042F7D15C69AC42F4D10A4B52
:2062000002EB420203EBC20201209568D46813698B600D604C6030BC7047002030BC70475B
:20622000F40F0020CAF00F53F00F002070B4144DB5F8B44614B3D5F8C83683420E460ED04B
:2062400005F5D762002302E01169814208D00133A34202F11402F7D1002070BC70470023E1
:2062600003EB830305EB830303F5D7650FCD34460FC42B682360012070BC70472046ECE784
:20628000F00F00202DE9F047504B82B09847002862D04F4B98470446002855D04D4F4E4B47
:2062A0003846022220F8042B00214FF4D26298474FF4805249494A4B4FF47F209847044637
:2062C000002877D0474EDFF85081DFF850913C1D4FF47F254FF0000A03E04D4504F118044B
:2062E00043D02846B0472060281DB047606005F10800B047A06005F10C00B047E06005F186
:206300001000B047206105F11400B0474045606105F1180529D12368002BDEDAB7F8B406CA
:20632000216900EB800207EB82020130C2F8C836636882F8C4A6C2F8C0A6A7F8B406C2F825
:20634000BC16C2F8B836C8E72749284B04209847204602B0BDE8F08704462549234B0420B0
:206360009847204602B0BDE8F0872248B047C7F894062148B047C7F898062048B047C7F875
:206380009C061F48B047C7F8A0061E48B047C7F8A4061D48B047C7F8A8061C48B047C7F8EF
:2063A000AC061B48B0470124C7F8B006204602B0BDE8F0874FF48053009316490B4D03F5AB
:2063C00000034FF47F220420A847C1E71D61000069610000F00F0020D957020000108000F2
:2063E000E9600000E57C000064C3020091C601004CC30200D0FF0F00D4FF0F00D8FF0F00BB
:20640000DCFF0F00E0FF0F00E4FF0F00E8FF0F00FCFF0F0084C30200CAF00F5390F60F00B8
:2064200010B50A4B0A48984700210A4B0A4898470A4B044606489847844200D810BD2146CC
:206440000348074BBDE81040184700BF85D9000000C90020E5AE0100D4C3020029000100EE
:20646000F9FF0000F0B583B069462A4B2A4C05462A489847A047022822D000216820284BF7
:206480009847021E32DB2878264F274EB847002102466820B047021E38DB6878B84701214B
:2064A00002466820B047021E32DBA878B847022102466820B047A04702281ED003B0F0BD80
:2064C0001A4A1B4B1068662198470028D5D1194B9847194A13681BB1C31AB3F5967FEDD3FF
:2064E00010601649164B03209847E7E71549144B03209847A0470228E0D10C4B124C1868E6
:2065000000231A461946A04703B0F0BD0F49EEE70F49ECE7A9DA00000D0D020000C9002072
:20652000C52A0100CD270200AD2B010044C80020D1FE0100CD050200241C0020DCC30200CB
:2065400091C6010000C4020091FA010038C4020070C40200F0B583B06946284B284D0446A4
:2065600028489847A847022822D000216820264B9847021E32DB254F2078254EB8470421F8
:2065800002466820B0476078B847052102466820B0476088632888BF3030C0B2B8470621BE
:2065A00002466820B047A84702281ED003B0F0BD184A194B1068662198470028D5D1174BD9
:2065C0009847174A53681BB1C31AB3F5967FEDD350601449144B03209847E7E71349124BA5
:2065E00003209847A8470228E0D10A4B104C186800231A461946A04703B0F0BDA9DA0000F2
:206600000D0D020000C90020C52A0100CD270200AD2B010044C80020D1FE0100CD050200E6
:20662000241C0020A8C4020091C60100CCC4020091FA01002DE9F84F474E0546B0470228B8
:2066400051D000216820454B9847071E63DB444C444BDFF84881DFF848A1DFF82CB1214604
:2066600013226820984720223F4B0E21074668209847A079C04700F5FA60E8806079C04718
:2066800068712079C0472871A078C047A8706078C04768702078C0472870A07C334D07EE32
:2066A000900AF8EE677A17EE900AD0470022304BA8478046607C2F4C07EE900AF8EE677AC4
:2066C000894617EE900AD04702460B4640464946A047294B9847CBF80C00B047022825D068
:2066E0003846BDE8F88F254A254B1068662198470028A6D1234B9847234A93681BB1C31A36
:20670000B3F5967F24D390602049214B032098474FF0FF37E4E7B047022811D03A461D49D6
:206720001B4B032098473846BDE8F88F134B1A4C186800231A461946A0473846BDE8F88F90
:206740000E4B154C186800231A461946A047E5E74FF0FF37C4E700BF0D0D0200C52A01007F
:206760007CCA0020E1290100AD2B0100254602000000D03FC1420200154C020044C80020BF
:20678000D1FE0100CD050200241C0020FCC4020091C6010038C5020091FA0100BD2702006A
:2067A0007D4502002DE9F0478CB0284B0AA89847BDF82E2040F2E5739A4240D90CA99DF8BC
:2067C00028309DF82D709DF82C609DF82A509DF8294001F8103D1E481E4BADF826208DF87C
:2067E00025708DF824608DF822508DF82140984709A9194B16489847184B15489DF8224035
:206800009DF821509DF820609DF825709DF82480BDF826909847124A124B8246D068984718
:206820002246CDE90601CDF810A08DE8C0032B460D490E4C0220A0470CB0BDE8F0870C492F
:206840000A4B032098470CB0BDE8F0873566000000C90020B1D9000031DA000029000100C6
:20686000241C00207D450200A0C5020091C6010074C502000146014B01481847A9DA00003C
:2068800000C900202DE9F0471F4D204B204C88B006A92846984728461E4B9DF81A509DF8E0
:2068A00019609DF818709DF81D809DF81C90BDF81EA098478DE880032A46049033461649A9
:2068C000CDF80CA00220A04706A8144B9847144A144BD0689DF819909DF81A8098479DF87C
:2068E0001C709DF81D609DF81850BDF81E300393CDE904014B4642468DE8E0000A490220C6
:20690000A04708B0BDE8F08700C90020A9DA000091C6010029000100E4C502003566000088
:20692000241C00207D45020018C6020030B51C491C4D1D4C83B0A847A047C0B218288CBF31
:2069400000238DF80600164988BF8DF806300020A847A047C0B23B288CBF00238DF8050065
:206960000F4988BF8DF805300020A847A047C0B23B288ABF00238DF804008DF8043001A99B
:206980000A4B0B48984701A80A4B98470A4B084898470A4B01460A48984703B030BD00BFE3
:2069A00094000300856F0200CD4F0200B1D9000000C90020656400002900010045AC0100D4
:2069C000D4C3020030B52149214D224C83B0A847A047C0B20C288CBF01238DF805001B49E7
:2069E00088BF8DF805300020A847A047C0B21F2894BF8DF804000123144988BF8DF804308A
:206A00000020A847A04780B2632898BF00F5FA6040F2D97398BF80B2984298BF40F2E5735B
:206A200001A9ADF8060098BFADF806300A480B4B984701A80A4B98470A4B074898470A4B93
:206A400001460A48984703B030BD00BF64C60200856F0200CD4F020000C9002031DA00002B
:206A6000556500002900010045AC0100D4C302000148024B184700BF00C9002029000100E0
:206A8000FEE700BF1B491C4A914208B50ED01B4882420BD2D343034423F003030433134412
:206AA00051F8040B42F8040B9A42F9D1144A15498A420AD2D3430B4423F00303043313441F
:206AC000002142F8041B9A42FBD10F4A0F4B22F07F029A60D3F8882042F47002C3F88820D6
:206AE000BFF34F8FBFF36F8F094B9847094B9847FEE700BF9049030000000020700F0020B1
:206B0000700F00204CCB00200040000000ED00E05150020065360100F0B4734B734D744875
:206B2000744F4FF0404204265E609D629A6293F8421001F0FE0141F0010183F8421093F896
:206B4000311001F0F001082441F0010183F831105C6098629A6293F8431001F0FE0141F046
:206B6000010183F8431093F8311001F00F0141F0100183F831104FF48071C3F88410C3F83C
:206B8000A870C3F8A82093F8C81001F0FE0141F0010183F8C81093F8B41001F0F00141F01F
:206BA000010183F8B41007F580774FF40071C3F88410C3F8A870C3F8A82093F8C91001F0F3
:206BC000FE0141F0010183F8C91093F8B41001F00F0141F0100183F8B410A7F5E07740210A
:206BE00059609F629A6293F8461001F0FE0141F0010183F8461093F8331001F0F00141F029
:206C0000010183F833104037802159609F629A6293F8471001F0FE0141F0010183F847100F
:206C200093F8331001F00F0141F0100183F8331007F560774FF4806159609F629A6293F84D
:206C40004A1001F0FE0141F0010183F84A1093F8351001F0F00141F0010183F8351007F541
:206C600080674FF4006159609F629A6293F84B1001F0FE0141F0010183F84B1093F8351024
:206C800001F00F0141F0100183F83510C3F88460C3F8A850C3F8A82093F8C21001F0FE01CF
:206CA00041F0010183F8C21093F8B11001F0F00141F0010183F8B110C3F88440C3F8A800D5
:206CC000C3F8A82093F8C32002F0FE0242F0010283F8C32093F8B12002F00F0242F010029B
:206CE00083F8B120F0BC70470080004104000040080000400001004010B5094A0948136A71
:206D0000094943F0800342241362C0F820418847002206490648074BBDE81040184700BF84
:206D200000080040001C0040196B0000001C0043F8C800205DD600000D4B0E494FF0404249
:206D40008020C3F88400C3F8A810C3F8A82093F8C72002F0FE0242F0010283F8C72093F8D8
:206D6000B32002F00F0242F0100283F8B3207047008000418000004010B5094A0948136A8D
:206D8000094943F4807342241362C0F824418847002206490648074BBDE81040184700BF8C
:206DA00000080040001C0040396D00000020004334CA00205DD60000F0B4304A3049314BC2
:206DC000314D324F324E334C4420C2F890004A69314842F480624A610122C3F88420C3F8DB
:206DE000A870C3F8A85093F8C0202C4902F0FB0283F8C02093F8C02002F0FE0242F001020C
:206E000083F8C02093F8B020022702F0F00283F8B020C3F88470C3F8A860C3F8A85093F8B4
:206E2000C12002F0FB0283F8C12093F8C12002F0FE0242F0010283F8C12093F8B0204FF499
:206E4000801502F00F0283F8B0205D609C62986293F8542002F0FB0283F8542093F85420BE
:206E600002F0FE0242F0010283F8542093F83A2002F0F00283F83A20F0BC0847001C004007
:206E80000008004000800041000002C0010002400200024000000240100002C061DB000050
:206EA000164B93F8482002F0FB0283F8482093F8482002F0FE0242F0010283F8482093F824
:206EC000342002F0F00242F0020283F8342093F8492002F0FB0283F8492093F8492002F0C8
:206EE000FE0242F0010283F8492093F8342002F00F0242F0200283F83420704700800041FC
:206F000070B50A4B0A4A0B4C0B490C4842264325C3F89C60C3F88C50536943F4805353610C
:206F2000A047074BBDE87040184700BF001C004000080040C5DC00000030004038CA0020CE
:206F4000A16E000070B4284B284D294E29482A494FF480324FF080445A619A609C629D6211
:206F600093F8502002F0FE0242F0010283F8502093F8382002F0F0024FF4003542F002028F
:206F800083F838205D619D609C629E6293F8512002F0FE0242F0010283F8512093F8382073
:206FA00002F00F0242F020024FF4802483F838205C609862996293F8522002F0FB0283F8A8
:206FC000522093F8522002F0FE0242F0010283F8522093F8392002F0F00242F0020283F8B5
:206FE000392070BC704700BF00800041010000C0020000C000000240040002C070B50A4BD0
:207000000A4A0B4C0B490C4842264325C3F8A060C3F88C50536943F400535361A047074BC8
:20702000BDE87040184700BF001C00400008004091DE0000003400403CC90020456F00007D
:20704000104B93F8562002F0FE0242F0010283F8562093F83B2002F0F00242F0020283F841
:207060003B2093F8572002F0FE0242F0010283F8572093F83B2002F00F0242F0200283F8E2
:207080003B20704700800041F0B50D4B0D4C0E4A0E490F4D0F4840274326C3F8E070C3F8CF
:2070A0008C60A36983B0002643F48063A36110230096A847084B03B0BDE8F040184700BFB0
:2070C000001C004000080040341C00200040014171E3000054C9002041700000104B93F8F2
:2070E000D02002F0FE0242F0010283F8D02093F8B82002F0F00242F0020283F8B82093F8B3
:20710000D12002F0FE0242F0010283F8D12093F8B82002F00F0242F0200283F8B820704727
:2071200000800041F0B50D4B0D4C0E4A0E490F4D0F4840274326C3F80C71C3F88C60236A9A
:2071400083B0002643F00203236210230096A847084B03B0BDE8F040184700BF001C00400C
:2071600000080040441C00200004004371E30000C4C90020DD70000070B51149114C8B69E2
:20718000114A124843F4005344258B61C4F8E85092F84D3003F0FE0343F0010382F84D303E
:2071A00092F8363003F00F0343F0400382F8363080470749074B0246BDE8704006481847D1
:2071C00000080040001C0040008000417D17010000A0014199DD0000B8C8002070B511493E
:2071E000114CCB69114A124843F020034425CB61C4F8F85092F8CD3003F0FE0343F00103A8
:2072000082F8CD3092F8B63003F00F0343F0400382F8B63080470749074B0246BDE87040A6
:207220000648184700080040001C0040008000417D1701000014004299DD0000A4C900204E
:2072400070B51149114CCB69114A124843F040034425CB61C4F8F85092F8CF3003F0FE03DD
:2072600043F0010382F8CF3092F8B73003F00F0343F0400382F8B73080470749074B024660
:20728000BDE870400648184700080040001C0040008000417D1701000018004299DD000022
:2072A00098C8002070B51149114C8B69114A124843F4006344258B61C4F8E45092F8DE3052
:2072C00003F0FE0343F0010382F8DE3092F8BF3003F0F00343F0060382F8BF3080470749E0
:2072E000074B0246BDE870400648184700080040001C004000800041611101000060014178
:2073000099DD000078C8002070B51149114C8B69114A124843F4805342258B61C4F8E450C5
:2073200092F84C3003F0FE0343F0010382F84C3092F8363003F0F00343F0060382F8363034
:2073400080470749074B0246BDE870400648184700080040001C00400080004161110100A2
:207360000080014199DD0000D8C8002070B51149114C0B6A114A124843F0100344250B62F3
:20738000C4F8185192F8CE3003F0FE0343F0010382F8CE3092F8B73003F0F00343F005030B
:2073A00082F8B73080470749074B0246BDE870400648184700080040001C00400080004154
:2073C000611101000010004399DD000014CA002010B4204B2049214C4FF080724FF080403E
:2073E0009A60986299625A6193F8582002F0FB0283F8582093F8582002F0FE0242F00102D4
:2074000083F8582093F83C2002F0F00242F007024FF0007183F83C20996098629C62596141
:2074200093F8592002F0FB0283F8592093F8592002F0FE0242F0010283F8592093F83C205F
:2074400002F00F0242F0700283F83C205DF8044B704700BF00800041000100C0000200C050
:2074600010B5094A094B0A494520C2F8A8001A6942F480621A619A6942F001029A6188476E
:20748000044BBDE810401847001C0040000800401DE70000D17300002DE9F041724B734E98
:2074A000734D744C744F9847744BDFF854E24FF040421021596199609E629A6293F844006E
:2074C00000F0FE0083F84400C3F89410C3F88810C3F8A860C3F8A82093F8C4106848694E41
:2074E00001F0FE0183F8C4102021C3F89410C3F88810C3F8A8E0C3F8A82093F8C51001F043
:20750000FE0183F8C5104021C3F89410C3F88810C3F8A850C3F8A82093F8C61001F0FE0182
:2075200083F8C6104FF48061C3F89410C3F88810C3F8A800C3F8A82093F8CA10524801F04E
:20754000FE0183F8CA104FF40061C3F89810C3F88810C3F8A840C3F8A82093F8CB1001F000
:20756000FE0183F8CB104FF48051C3F89410C3F88810C3F8A870C3F8A82093F8CC20434997
:2075800005F1004505F5003502F0FE024FF4800783F8CC20C3F88470C3F8A860C3F8A85039
:2075A00093F8D62002F0FB0283F8D62093F8D6204FF4000502F0FE024FF0804683F8D620B9
:2075C000C3F89450C3F88850C3F8A860C3F8A80093F8D7202E4D02F0FE0283F8D720884723
:2075E0002C4B98472C4B984763692C492C4A2D4843F40073636190472B4B98472B4B9847C4
:207600002B4B98472B4B98472B482C4B984763692B492C4A43F4804342206361C1F8A400C4
:2076200090472949294B024629489847294B9847294B9847294B9847294B9847294B984756
:20764000294B9847294B98476369294943F48073636148220120A8472648274A274B02602B
:20766000BDE8F041184700BFE5FA000010000040400000400008004000100040008000410E
:207680000004004000000240800000C0F96C0000BDEA0000796D0000B96D000000240040A8
:2076A00041D9000000C90020016F0000FD6F0000897000002571000010E000E0E5DA0000CD
:2076C000001C00407917010000380040E9E0000020C9002079710000DD7100004172000088
:2076E000A5720000097300006D7300006174000068C60200FCC80020002000404129010063
:20770000200000402DE9F047344C354E354B3648DFF8DC80DFF8DC90344D01274FF40062F7
:207720005221984721463A4630682770C0473A4621463068C84723783068277063F07F03AD
:207740002146022263704FF0030AC0473A462146306884F800A0C0473A4621463068C84748
:207760002378306884F800A063F03F03214602226370C0474A2220215220A8472B22212123
:207780005220A8473A2222215220A847002223215220A847602224215220A847C022252171
:2077A0005220A847CB2226215220A847B02227215220A847092228215220A847B92229215E
:2077C0005220A8470D222A215220A8472B460C222B215220BDE8F047184700BF7CCA0020B0
:2077E00074CA002009DD000038CA0020AD2B010029DD000059DD000038B50C4C0C4B054627
:2078000070212068984718B90A490B4B0320984729460A4B52209847002305461A46206889
:20782000074C1946A047284638BD00BF44C80020D1FE010084C6020091C601007D2A010045
:2078400091FA01002DE9F843DFF8D090284B06467021D9F800009847002844D04FF4006233
:207860005221244C2448254B254D264F98474FF00108FF2E286884F800802146424621D89A
:20788000B84742462146204B286898472378286884F8008023F00103214602226370B84785
:2078A000286814496670002502222570B847174CD9F800002B462A462946A047144B1E80C0
:2078C000BDE8F883B8474246214628680E4B98472378286884F8008043EA080321460222E8
:2078E0006370B847DCE70B490B4B03209847B5E7D1FE01007CCA002038CA002009DD00006D
:2079000074CA002029DD000059DD000091FA0100541C002098C6020091C6010044C80020CD
:20792000014BB3F902007047541C0020F8B51E4D1E4B28687021984778B91D4B98471D4AA6
:2079400053681BB1C31AB3F5967F2BD350601A491A4B032098471A48F8BD4FF40062194B6E
:2079600019481A4F1A4E5221984711215220B8471221044652203470B847002330701A462B
:2079800019462868134DA8473378240223449BB218B2B0F5005FA4BFA3F5804318B2054B7E
:2079A0005880F8BD0648F8BD44C80020D1FE0100CD050200541C0020ACC6020091C601000B
:2079C00018FCFFFF09DD000038CA00207D2A01007CCA002091FA01002DE9F0430025DFF8AE
:2079E0006C90174EDFF8688083B02F462C46C8471420B047B8F9023013F57A7F08D0B3F5AF
:207A00007A6F13DB222F03DC8C2B01DD632CEEDD009322463B460B490B4C0220A0474FF4FD
:207A2000FA70334603B0BDE8F04318479D4203D001341D460027E7E701370134E2E700BF45
:207A4000358F0000C4C6020091C601002D790000541C002030B51A4C1A4B83B09847B4F9D9
:207A6000021011F57A7F1DD040F6B833994219DCB4F908308B4218D02269218101320023FA
:207A80002261E3608B290BDC00910F4D0F490220A84700230120E3602361238103B030BDE0
:207AA000C82AF1DC002003B030BDE3682269218101330132182BE3602261E5DCE2E700BF16
:207AC000541C00202D79000091C60100C4C6020070B5134B04469847022800D070BD114D5B
:207AE000114B2868A621984798B1104B104E98472046B0470020B0470020B0470D4C0E4BD6
:207B0000984700232868A4461A461946BDE8704060470A490A4B0320BDE87040184700BFF0
:207B20000D0D020060C80020D1FE0100456000006560000091FA0100556000000CC7020091
:207B400091C601002DE9F0411A4B05460C469847022801D0BDE8F081174F184B3868A62164
:207B6000984708B3164B174E9847C5F3064040F08000B047C5F30720B047E8B2B047E0B228
:207B8000B047C4F30720B047C4F30740B047200EB0470D4C0D4B984700233868A4461A4662
:207BA0001946BDE8F041604709490A4B0320BDE8F04118470D0D020060C80020D1FE0100B6
:207BC000456000006560000091FA01005560000020C7020091C601002DE9F041174B0446C6
:207BE0000D469847022801D0BDE8F081144F154B3868A6219847D8B1134B144E9847C4F35A
:207C0000064040F08000B047C4F30720B047E0B2B047E8B2B047280AB0470D4C0D4B9847CF
:207C200000233868A4461A461946BDE8F041604709490A4B0320BDE8F04118470D0D020040
:207C400060C80020D1FE0100456000006560000091FA01005560000030C7020091C6010010
:207C60002DE9F041164B04460D469847022801D0BDE8F081134F144B3868A6219847C8B14F
:207C8000124B134E9847C4F3064040F08000B047C4F30720B047E0B2B0472846B0470D4C87
:207CA0000D4B984700233868A4461A461946BDE8F041604709490A4B0320BDE8F0411847A5
:207CC0000D0D020060C80020D1FE0100456000006560000091FA01005560000040C70200BC
:207CE00091C6010070B51F4B82B005469847022802D0002002B070BD1B4E1C4B3068A62117
:207D00009847044638B31A4B1A4C9847C5F30540A047C5F30720A047E8B2A04704210DEB5D
:207D20000100154B154C9847154B984700231A4619463068A0479DF806009DF805109DF828
:207D400004209DF80730000400EB0120104400EB036002B070BD03200A490B4B9847204691
:207D6000C8E700BF0D0D020060C80020D1FE010045600000656000008D60000091FA01007E
:207D80005560000050C7020091C60100F0B51B4B83B006469847022802D0002003B0F0BDD8
:207DA000174F184B0546A621386898470446F8B1154B164C9847C6F30540A047C6F3072010
:207DC000A047F0B2A047294601A8114B114C9847114B984700231A4619463868A0479DF84A
:207DE00005309DF8040000EB032080B203B0F0BD03200A490A4B98472046CFE70D0D020033
:207E000060C80020D1FE010045600000656000008D60000091FA01005560000060C7020089
:207E200091C6010070B5174B82B005469847022803D09DF8040002B070BD134E134B30683B
:207E4000A62198470446B8B1114B124C9847C5F30540A047C5F30720A047E8B2A04701A85C
:207E600001210D4B0D4C98470D4B9847002330681A461946A047DCE703200A490A4B98474B
:207E80002046D8E70D0D020060C80020D1FE010045600000656000008D60000091FA0100A6
:207EA0005560000070C7020091C6010010B5064C064B2288014602F5421098472388043319
:207EC000C3F30B03238010BD681C0020457B0000024B03481988034B184700BF681C0020C1
:207EE000FC203000D97B000030B5194B83B09847022802D0002003B030BD164D164B286877
:207F0000A62198470446E8B1144B154C98473020A0472020A0470020A04701A80121114BAD
:207F2000114C9847114B9847002328681A461946A0479DF80400A0F17C00B0FA80F0400968
:207F400003B030BD03200A490A4B98472046D2E70D0D020060C80020D1FE010045600000DF
