:020000040000FA
:20000000D0D600209D210000992100009921000099210000992100009921000000000000BA
:20002000000000000000000000000000992100009921000000000000992100006515000018
:200040009921000099210000992100009921000099210000992100009921000099210000D0
:200060009921000099210000992100009921000099210000992100009921000099210000B0
:20008000992100009921000099210000992100009921000099210000992100009921000090
:2000A000992100009921000099210000992100009921000099210000992100009921000070
:2000C000992100009921000099210000992100009921000099210000992100009921000050
:2000E0009921000099210000000000000000000000000000111400009921000099210000F3
:2001000099210000992100009921000099210000992100009921000099210000992100000F
:200120009921000099210000992100009921000099210000992100009921000099210000EF
:20014000992100009921000099210000992100009921000099210000000000000000000043
:2001600000000000000000000000000000000000000000000000000000000000000000007F
:20018000992100009921000099210000992100000000000099210000992100009921000049
:2001A00099210000992100009921000099210000992100009921000099210000992100006F
:2001C00099210000992100009921000099210000992100009921000099210000992100004F
:2001E000992100009921000099210000992100006D14000099210000992100009921000068
:20020000992100000000000000000000992100009921000099210000992100009921000082
:200220009921000099210000992100009921000099210000992100009921000099210000EE
:200240009921000099210000992100009921000099210000992100009921000099210000CE
:200260000000000010B5054C237833B9044B13B10448AFF300800123237010BDD0010020EB
:2002800000000000AC2700000C4B43B10C480D4910B5AFF300800C48036823B910BD0A48F5
:2002A000036833B97047094B002BF7D0BDE810401847064B002BF5D0184700BF0000000037
:2002C000AC270000D4010020AC27000000000000F0B4421C00F10901490101F18241032460
:2002E0000C70134B56019D196F6864F31E776F6040254D7102EB021291000E4D29440431D3
:20030000995100F10801490101F1824130220A7003EB40135E6964F31E765E6180220A715F
:2003200000EB001082002A4404321A61F0BC7047F00A0020F00B0020012805D0042801D08E
:2003400000207047012070470120704770B584B006460D4B0FCB04AC04E90F000024254604
:200360000BE004AB03EB840353F8103C012219687019064B984705440134032CF1DD0023DC
:20038000735504B070BD00BF74250000E922000008B5444B93F8582042F0010283F85820DA
:2003A00093F83C2002F0F00283F83C2093F83C2042F0070283F83C2093F8592042F0010269
:2003C00083F8592093F83C2002F00F0283F83C2093F83C2042F0700283F83C204022324B27
:2003E000C3F8A820A3F5A0531A6942F480621A619A6942F001029A612B4B5B6813F0040F57
:20040000FAD14FF08242137843F0010313704FF082439B7813F0010FF9D1244B1B6803F0F0
:200420001F031F2B37D04FF08242118D63F38A1111851E4B1B68C3F344131F2B2DD04FF0A2
:200440008242118D63F304011185184B1A68C2F38222072A23D04FF08243198D62F30E31A9
:2004600019851A786FF3C7121A701A7842F004021A700F4858621A896FF383021A811A895A
:2004800092B222F0010292B21A814FF480720021084B984708BD0523C5E71D23CFE70322E8
:2004A000D9E700BF00800041001C004084008000F00A0020532500002DE9F04707468946A1
:2004C00016464FF08242546A4FEA461A0AEB04081D46A3B169782B78994218D25C1AA14509
:2004E00028BFA14647B12B1D4A4619443846304B98476B784B446B704846BDE8F08706EB41
:2005000006139D002B4B1D442B4B9847E2E7AB78CBB92B1D4AF80430D8F804306FF30D0355
:20052000C8F80430D8F804306FF39B33C8F8043006F108035B0103F182431A7942F0400281
:200540001A710123AB7006F108035B0103F18243DB7913F0010F27D0D8F804305FFA83F884
:2005600085F80080AB78022B14D0C14528BFC146BFB185F801904A46291D38460C4B98474E
:2005800006F108035B0103F182430122DA710023AB70B1E75AF804104246281D044B98479F
:2005A000E3E700236B70EBE74FF00009A4E700BF3D250000F00B0020F924000010B500238D
:2005C000014CA04710BD00BFB90400002DE9F04105460C4690461F4607E03B464246214628
:2005E0002846044EB047241A0544002CF5D1BDE8F08100BFB9040000F8B50D4614464FF0A0
:200600008242566A06EB441603B373696FF3DF7373613061736965F30D03736173696FF30A
:200620009B33736121460834640104F182440223E3718023637101F108035B0103F1824353
:20064000DB7913F0020FF6D02846F8BD7369C3F302730333012202FA03F38B4207D8221F0A
:2006600018BF0122736962F3DF737361D1E704EB04129300044F3B441F1D0A4601463846B6
:20068000024B98473846C4E7F00B00203D25000010B50023014CA04710BD00BFF9050000E2
:2006A00008B5044B1B880022994228BF1946024B984708BDEC0100209106000000B583B0CB
:2006C000002211460DF10700024B984703B05DF804FB00BF9106000010B5044648B1084BB8
:2006E000984730B90834640104F182441023637110BD0834640104F182442023637110BDC2
:20070000390300002DE9F04194B04FF08246102386F80731B24B1A7993F805C09D79DF79D4
:2007200045EA072424B21FFA84FE197A587A41EA002109B21FFA81F8987ADB7A40EA03203C
:20074000A84B1880402386F8043142EA0C2340F20232934200F09D8145DCB3F5817F00F09B
:20076000BB811BDC822B00F061810CDC802B00F02E81812B51D114A8002320F8023D02216E
:20078000994B98472CE0B3F5807F00F0A18140F20112934241D1954B984721E040F2A122F0
:2007A000934200F0F88110DDB3F5407F00F06A8100F36C81B3F5307F2FD1B8F1070F00F0E6
:2007C000FC8000208A4B98470AE040F2A112934200F0E181B3F5E07F1FD10020844B98470E
:2007E00014B0BDE8F08140F6211293427FD018DD42F22102934200F0BB8170DD42F2212281
:20080000934200F0BD814FF6A162934200F0BB8142F2A112934200F0AE810020744B9847F3
:20082000DEE740F28162934213DCB3F5D06F61DA40F2A132934200F0AE81B3F5A06FECD18B
:200840006A4B984764F07F04E4B24FF082439C72C6E7B3F5086F00F0B580B3F5106FDCD1C0
:20086000604B83F82540614B98470120DFF8B881C0474FF08245402785F860715D4C636FF4
:200880006FF31E736367802685F864610420C047442285F8C02185F8C47185F8C461D4F8A4
:2008A000C410032363F31E71C4F8C410D4F8D41063F31E71C4F8D41085F8E02185F8E47144
:2008C00085F8E461D4F8E42063F31E72C4F8E420D4F8F42063F31E72C4F8F42080E740F6AD
:2008E0002122934203D040F62132934295D13F4B984775E7BEF5807F0ED0BEF5007F10D0E2
:20090000032F13D00F2F49D0212F4CD0222F4FD00020374B984763E712213748324B9847B6
:200920005EE799213548304B984759E7032D16D84822002101A8324B984703238DF8053013
:200940008DB904238DF8043009228DF806208DF8073014A810F84C1D234B984740E700201E
:20096000234B98473CE72748274B98471C4B9A79264B03EB82035C6A2046254B9847431C0F
:200980005B008DF804300023E25C002AE1D014A901EB430101F84A2C0133F5E739211D48DC
:2009A000114B98471CE709211B480F4B984717E721211A480C4B984712E7AA2118480A4BE2
:2009C00098470DE701211748074B984708E714A8002320F8023D0221034B984700E700BF77
:2009E000AC0A0020EC010020A1060000BD060000D9060000F00A00208425000000000020E8
:200A000053250000F00100204D03000074250000632500009C000020D8000020A82500005B
:200A2000E400002011020020D10200000023ADF84E3001F0500108F00F08B8F1070F1DD861
:200A400081B108F108084FEA481303F182439B79C3F34013ADF84E3002210DF14E00524BC2
:200A60009847BDE608F108084FEA481303F182439B79C3F30013ADF84E30EDE700204B4B14
:200A80009847ADE60020494B9847A9E6484B9847A6E608F00F03BEF1000F15D1A3B1072B90
:200AA00012D811F0800F08D108335B0103F1824310225A713E4B984792E608335B0103F12B
:200AC000824320225A71F5E70020384B984787E60020364B984783E608F00F03BEF1000FC8
:200AE00042D1002B40D0072B3ED811F0800F1ED103F10802520102F18242927912F0100FAD
:200B000012D003F10802520102F1824210211171D27912F0200F07D008335B0103F1824395
:200B20002022DA7101221A71214B984758E603F10802520102F18242927912F0200FF3D0EA
:200B400003F10802520102F1824220211171D27912F0400FE8D008335B0103F182434022C4
:200B6000DA7102221A71DFE70020104B984737E60F4B984734E608210E480B4B98472FE622
:200B80000B4B98472CE614A8002320F8023D0121054B984724E6002301930293082101A85F
:200BA000014B98471CE600BFA1060000D9060000BD0600009001002038B5214B98474FF0D8
:200BC00082439B8B13F0080F09D14FF0824393F8073113F0100F2CD01A4B984729E04FF0C5
:200BE00082420824948380239372112182F80011402182F8051182F80431134B58680325A3
:200C000065F31E705860586965F31E7058610F4818600F481861586864F39B3058605868DD
:200C20006FF30D00586082F804110022094B83F82520084B93F82500003018BF012038BDA8
:200C4000F924000005070000F00A0020B00A0020F40B0020EC01002008B5064B984700223C
:200C6000054B83F825204FF08242137843F00203137008BD91030000EC01002010B50C469E
:200C80000122024B9847204610BD00BF9106000010B50C460122024B9847204610BD00BF24
:200CA0009106000038B504460D46054B984708B9002038BD022229462046024B984738BDF4
:200CC000B90B0000BD05000038B505460C46064B984708B9002038BD0023022221462846E2
:200CE000024DA847204638BDB90B0000CD0500000023934210DA10B405E020240470013051
:200D00000133934205DA0C78002CF6D001310470F5E75DF8044B704770470000F8B50546E9
:200D20000C464FF4007200212046554B98475DB17E2D41D8681E3E2801D9A5F1400018BB65
:200D4000F023237001231DE04E4E254606F1300E37460FCF28606960AA60EB603E461035C6
:200D60007745F5D107CE28606960AA603388AB81552384F8FE31AA2384F8FF31F8BDFF2268
:200D8000E2540133092BFAD9002203E04FF6FF7363520132FF2A0EDC02EB0023191FB1F53D
:200DA000006FF6D2510040F60305AB42EED09BB201339BB2ECE7F8BD822D2CD87F2D00D03D
:200DC000F8BD0B2230492046304B98472823E372002513E04FF48010E061AB1C63830B2252
:200DE0002B4901EB05112046284B98476FF0660222744D236374227663760135022D09D86A
:200E00002034204B03EB0513D86C0028E2D0214B9847E1E7F8BDA5F18303012B23D9853D21
:200E20002902B1F5002FCBD21B4B236003F1144303F52C1303F602336360184BC4F8FC316D
:200E400065614FF40063A361E1604FF480722261A36843F40053A360114BE36104F12000DC
:200E6000104B9847ACE7074A02EB0313DD6C2846084B98470246294620460A4B9847F8BD62
:200E800053250000F42500001F260000F10C000034260000632500005546320A306FB10A6C
:200EA000604411553D25000070B50C683B4884420AD0002038B1886810F4005F18D0CD6990
:200EC000374CA54214D070BD4C6800F1144000F52C1000F60230844201D00020EAE7D1F8F4
:200EE000FC413048844201D00020E3E70120E1E71D4616460C4610F0010F03D10B69B3F5C2
:200F0000807F31D0002D3FD0A369002B3CD02A68934208D040F663018B4201D8002A31D0A8
:200F20004FF0FF332B60636940F663029342CAD803F0070101228A40D2B2DB08E918097A04
:200F40000A4205D12B440A431A726B6801336B606A682B689A42B6D3002EB4D1124B1B68F8
:200F60001E33124A136070BDC86810F0FF0FC9D1B0F5804FC6D3B0F5002FC3D220310C4B2E
:200F80009847BFE72B60CEE7002E9CD1064B1B6803F59673054A136095E700BF5546320A48
:200FA00060441155306FB10AC8160020CC16002081100000074B5B8A13F0010FFAD0054BD8
:200FC00058614AF201529A80024B5B8A13F0010FFAD070470040004110B5044604E020460F
:200FE000034B984704F50054B4F5002FF7D310BDB50F000004E00A6802601A4604310430C3
:20100000531E002AF7D1704730B41C4B1C886FF305141C80194B5B8A13F0010FFAD04AF24E
:201020001554164B9C80154B5B8A13F0010FFAD016E04FF0FF3540F823500133032B06D854
:20104000A342F6D251F8235040F82350F5E70B4B58614AF204559D80A30018441944121B56
:2010600052B11446042A28BF0424044B5B8A13F0010FFAD00023E1E730BC704700400041B6
:201080002DE9F04F83B000AF444B1C8844F480421A801C8844F400421A804FEA5039C0F325
:2010A000042500233F2B07D851F8234050F82320944203D10133F5E7002300E001235BB177
:2010C00088460646364B13F809407CBB20F4FF5A2AF01F0A00230AE0EDB2324B03EB4919C1
:2010E000012309F805302BE001240133DBB21F2B0AD8002CF8D12B4A02EB4912D25C0AB1DE
:201100000124F2E70024F0E7C7F804D0ADF5005D82B0EB465CBB3046234B98470122204B79
:2011200003F80920002C36D1D7F804D04022414630461E4B9847194B5B8A13F0010FFAD0E8
:201140000C37BD46BDE8F08F0135EDB21F2DE2D8144B03EB49135B5D002BF5D04FF48072C4
:201160000AEB05210BEB0520114B9847ECE70025ECE70134E4B21F2CD6D80A4B03EB4913D0
:201180001B5D002BF5D040220BEB04210AEB0420064B9847EDE70024EDE700BF0040004115
:2011A000100E0020500E0020B50F0000091000003D25000070B50446034690F8472040212C
:2011C0000020134DA847E8B100232370267916F0800F19D104F14800B4F8443006F03F059C
:2011E0002A46611D18440B4B9847B4F84400284480B2A4F8440016F0C00F07D00023A4F897
:20120000443070BD002070BD002070BD002070BDB90400003D2500002DE9F04391B00D464A
:2012200091469846074615E03F2448EA040310AE06F8403D224639460DF101000C4B9847C6
:2012400001235FFA89F2402130460A4EB04727442D1B0AD03F2DE7DCB8F1000F01D02C46B9
:20126000E3E72C464FF04008DFE711B0BDE8F0833D250000F905000010B5002390F84720D5
:2012800004314830014CA04710BD00BF191200002DE9F84380468946174600260EE05D1CE6
:2012A00018780D4B9847014601342B46FF2CF6DD06F1240308EB430399800136BE4204DAF7
:2012C00009EB062300242146F0E779004046034B9847BDE8F88300BF1122000079120000C6
:2012E00070B50446354B9847002839D0A36CB4F84C20A4F848200022A4F84A20013B082B2D
:2013000058D8DFE803F01505272E293151453E002B4E30462B4B984705460246314604F103
:201320004C00294B984729462046284B984770BD0123E3644FF4807323654FF40063636523
:201340004FF4A073A365224BE365142120461F4B984770BD1F4B9847002120461B4B984754
:2013600070BD1D4B9847F7E700212046174B9847206DB0F5804FF3D304F15401174B984701
:2013800070BD626D04F15801206D154B9847E3E7656D2A46216D04F14C00114B9847A90078
:2013A00020460A4B984770BD626D216D20460D4B984770BD0123A4F84A30CDE7B51100008B
:2013C000D4260000632500003D2500007912000060441155D52400002923000081100000BE
:2013E000F50F00009112000038B5074C062384F847302046054DA847072384F8CF3104F5A4
:20140000C470A84738BD00BF14020020E112000000B583B00D4B9B78DBB20193019B13F0B9
:20142000020F06D00A4B1B681BB1084A5068984709E0019B13F0010F05D0054B5B6813B1F4
:20144000024A5068984703B05DF804FB000002415016002008B5C3689A7A12F0010F00D1FA
:2014600008BD01229A7203689847F9E708B5024B1868024B984708BD240500205514000021
:20148000314B198841F004021A80304A137843F0010313702D4B5B6813F0010FFAD140F650
:2014A00004122A4B1A62294B5B6813F0040FFAD1274B00221A77274A9A62254B93F82C3024
:2014C00013F0100FF9D10022214B83F82020204B93F82C3013F0040FF9D11D4A137F43F079
:2014E000020313771A4B93F82C3013F0020FF9D1174B5A6A5A62164B93F82C3013F0080FEF
:20150000F9D19822124B83F82020114B1B6913F4807FFAD040F606320C4B1A620B4B5B6825
:2015200013F0040FFAD101220B4B5A710B4B40F2E7325A60E0210A4A82F8231000229A600D
:2015400007221A60704700BF00400041001C00400010004080BB01040008004010E000E0ED
:2015600000ED00E008B5014B984708BD4123000070B582B044F204031D68A5F58043B3F56F
:20158000F82F01D902B070BDC8203D4B984744F268231A683B4B9A4232D03B4B1B7813F059
:2015A000010F40D00022394B1A60394C4FF480036360062284F85620A3614FF400036360B6
:2015C00084F85720A361236A03F48003009364202B4EB047236A03F480030093236A03F468
:2015E000000301936420B047236A03F400030193009B002B32D0019B002B2DD000232EE001
:20160000214B1B7813F0010F04D1204B1A68214B9A42C2D01F4A1D4B1A601F4B1B6832337F
:201620001E4A1360AEE7194B1A681D4B9A420FD0164B1A68174B9A4206D0194A134B1A60FF
:201640004FF4FA700E4B98470022104B1A60ACE700220E4B1A6095E7012300E00123002B57
:2016600090D14FF480520A4BC3F894204FF480431A6882F308880B4A9360284782E700BFC4
:20168000C52200007CB0EE87000C0040FCFF022000800041EF6926F0C8160020CC1600202A
:2016A000EF6916F000ED00E008B5464B9B6803B1FEE70022444B1A70434B9B68002BFBD152
:2016C000424B1A696FF341021A61404BDB6813F0040FFAD03D4B1A69C82161F317421A6110
:2016E0001A696FF383021A611A6942F002021A61364BDB6813F0010FFAD0344BDB6813F06B
:20170000020FFAD1324B1B7813F0010F04D1304B1B7813F0040F07D064202E4B98472B4BA8
:20172000DB6813F0020FF7D1284B1A696FF341021A61264BDB6813F0040FFAD0234B1A69EF
:20174000012161F383021A611A6942F002021A61214B9847214B9847214B9847BFF35F8F5E
:2017600062B6204B98474FF480201F4B98470A221E4B1A7011E000221D4B1A604FF48060A4
:20178000194B98470122194B1A700DE0194B9847FCE700BF0133FF2BFBDD174B984730B1CB
:2017A000164B1B78002BE6D00122144B1A70134B1B78002BEAD1114B1B78002BEDD1012375
:2017C000E9E700BF00ED00E00020004000180040000C0040C52200004D24000071150000CB
:2017E00081140000590C00008D240000CD010020CC160020FD1D0000B90B00002805002023
:201800000120704701207047054B00221A605A609A60DA601A82F0221A700A22DA717047D8
:201820002C05002070B506460D461446074B98470122074B1A73074B9E70220EDA70220CFE
:201840001A71220A5A719C719D8170BD09180000980100202C05002008B500221146042029
:20186000014B984708BD00BF2518000008B500224FF400510520014B984708BD25180000B7
:2018800008B5034B98470022024B1A7308BD00BF0918000098010020F8B507460C4615465D
:2018A00013460A4601210020054EB04708B90020F8BD2B4622461F213846B0470120F8BDF9
:2018C000B904000008B504220D210248024B984708BD00BF980100209106000008B5034BE5
:2018E0009A69034B5A60034B984708BD2C05002098010020C518000010B50C460422084B74
:201900009847844203D0074B9847074B9847074B9847074B9968091B9960034B984710BD52
:201920009106000059180000DD180000811800009801002010B5084B93F82740122C00D937
:20194000122480212046054B984700B910BD21460148034B9847F9E72C050020011800006E
:20196000F918000010B518220A490B480B4B98470B4B93F82740242C00D9242480212046BC
:20198000084B984700B910BD21460748074B9847F9E700BFDC250000B0010020F10C00003A
:2019A0002C05002001180000A8010020F918000070B5204900234B638B63CB630B644B644A
:2019C000064610B30B4691F82B503C330824194A92F8252002F03F021C2A1CD03F2A1AD01E
:2019E000AC4200D2254680212846134B984758B1D6B1023CA4B2230A43EA04240D4B9C8650
:201A000029460E480E4B984770BD0A4B93F8275038330424DBE71C221A700A225A7005220B
:201A2000DA700C34E4B2DBE7013C024B83F83440E6E700BF2C0500200118000060050020D0
:201A4000F918000008B580210820074B984700B908BD06484FF40033C364054B40F8483F46
:201A60000821044B9847F3E7011800002C05002000003E7FF918000000B585B00C4B93E841
:201A8000070004AB03E907000A4B9B680C2B02D90C22084B9A6080210C20074B984710B9F1
:201AA00005B05DF804FB0C2101A8044B9847F7E7302700009801002001180000F918000001
:201AC00008B5044B984710B9034B984708BD034B9847F9E705180000DD18000081180000A8
:201AE00008B5024B9847024B984708BD81180000DD18000008B5024B9847024B984708BDA4
:201B000081180000DD1800002DE9F04182B0314B93F825208DF8072093F826208DF806204A
:201B200093F827208DF8052093F828208DF8042093F82A208DF8032093F82B308DF8023093
:201B4000BDF802305B02064640B180211846224B9847002836D102B0BDE8F0810021F5E7C5
:201B60001C4F07F15005002305224FF400712846DFF88C80C04707F51473002229460198AA
:201B80002044164DA847164B9847164A9368A3F5007393600134BDF802309C4214D2124BB9
:201BA00098470028D7D0002EDAD0104D2946019820440F4B984704224FF4007128460D4BFD
:201BC0009847E2E70024E6E70B4B98470B4B9847C1E700BF2C05002001180000A90E00007A
:201BE0000D24000098010020B90B00007C0500201D0D00009106000081180000DD18000047
:201C0000CD05000008B5384B9847002205213748374B9847002865D0364BD969364A91601A
:201C200093F823305A2B59D8DFE803F03C58582E58585858585858585858585858583158E3
:201C400058585858585834425858455858585855583F58584D58515858585848585858580F
:201C6000585858585858585858585858585858585858585858585858585858585858585864
:201C800058585858585838001C4B984708BD1C4B984708BD00201B4B984708BD0120194B37
:201CA000984708BD184B984708BD184B984708BD174B984708BD174B984708BD164B984726
:201CC000164B984708BD0120154B984708BD0020134B984708BD134B984708BD124B98477A
:201CE0000E4B984708BD00BFE913000040050020991800002C0500209801002035190000BE
:201D000065190000B1190000C11A0000451A0000E11A0000F51A000081180000DD180000A9
:201D2000091B0000791A00006D18000030B585B01F4B1B78002B38D0042909D0022909D013
:201D400004784D006A1E0DF106031A44002008E00468F6E70488F4E7373313702409013AC0
:201D60000130A84207D204F00F03092BF4D843F030031370F2E730238DF8043078238DF87B
:201D800005304B1C04AA02EB43030A2203F80C2C033504AB1D440D2305F80C3C023149002E
:201DA00001A8044B984705B030BD024B9847FAE7940800207D0C000030B5EFF30883054CB5
:201DC0002360036883F308884568A847236883F3088830BDBC16002000B583B001220146B1
:201DE0006846044B984708216846034B984703B05DF804FBE92200007D0C0000F8B5002299
:201E0000994B1A607A22994B1A70994B9847994C40212046984B9847984B18600023235434
:201E200030B9944A964B1A600022964B1A6072E0954B9847F5E7954B1B78002B3ED18B4B93
:201E40001B78532B3FD0522B00F0A3804F2B00F0A780482B00F0AA80572B00F0AD806F2B7B
:201E600000F0B980682B00F0BC80772B00F0C280472B00F0C880542B00F0D3804E2B00F0D1
:201E8000D880562B00F0E180582B00F0E380592B00F020815A2B2BD1734B1B687C4A176826
:201EA00000242546BC4280F029815E1C29461878784B9847054601343346F3E702217648AC
:201EC000764B9847BBE76D4B1B686E4A126893423CD86C4A1368013B1360694A1368013B20
:201EE00013606F4B1B786A4A11688B424BD300BF7A225E4B1A700022654B1A60634B1B78EF
:201F0000002B40F006815E4A1368013313605D4A1368013313605B4B1A68584B1B689A4222
:201F2000BFF473AF564B1B681B78FF2BEFD0232B81D0A3F13002D2B2092A00F2EF80544A11
:201F40001168303B43EA01131360DCE74C4C21680131216001324B4D2A609A1A4C4B1B682F
:201F60009A4228BF1A464F4E32603F4B18684E4B984733682A681A442A6022681A4422600E
:201F8000474A1370A5E7C91A374B1868474B9847ADE73F4B1968344B1868454B9847A7E7B0
:201FA000314B1B683A4A12781A70A1E72E4B1B68374A12881A809BE72B4B1A683D4B9A4273
:201FC00005D0294B1B68324A12681A6090E70020394B9847F5E70121234B1868374B98477E
:201FE00086E7214B1B681B88294803600221334B98477DE71C4B1B681B68254803600421C8
:202000002E4B984774E7224B18682D4B98471F4B5B78002B3FF46CAF01212A481F4B984736
:2020200066E70122194B1A7002211B481B4B98475EE7164B1B781BB10022144B1A7057E729
:2020400002211548154B9847F6E731211E48134B98474DE70E4B18681C4B984703211C4814
:202060000E4B984744E700BFB81600206C160020051C000074160020A50C00006416002098
:2020800068160020701600200D24000094080020C016002011220000702700007D0C0000C6
:2020A00060160020C41600203D250000C90C0000910C00000CED00E08D2400002D1D0000E8
:2020C000B91D0000742700003C270000D90F000078270000254B1A6842B9254B1A68254B56
:2020E0005A6003212448254B984701E79208214B59681F4B1868224B9847F2E701212148FE
:202100001E4CA0472846204B984703211F48A047EEE601211E48194B9847F4E6A3F14102F4
:20212000D2B2052A06D8114A1168373B43EA01131360E8E6A3F16102D2B2052A06D80B4A69
:202140001168573B43EA01131360DCE62C2B05D0104A13700022054B1A60D4E6034B196880
:20216000034A116000221A60CDE600BFC0160020B8160020940800207C2700007D0C0000C7
:202180000910000080270000D91D000084270000882700006C160020FEE7000008B5144B8C
:2021A000144A9A4209D0124B124A03E0116819600433043210498B42F8D3104B02E00022C1
:2021C0001A6004330E4A9342F9D30E4B0E4A22F07F029A60D3F8882042F47002C3F8882099
:2021E000BFF34F8FBFF36F8F084B9847FEE700BF00000020AC270000D0010020D0010020F4
:20220000D016002000ED00E000000000A916000070B4144B5E88DEB9002412E041F22105BD
:2022200085EA43039BB2013292B2072A05D813F4004FF3D15B009BB2F5E70A4A22F81430C7
:202240000134FF2C04DCA3B21B029BB23246ECE780EA1120034B33F9100080EA012080B252
:2022600070BC70479C080020BFF34F8F0549CA6802F4E062044B1343CB60BFF34F8F00BF50
:20228000FDE700BF00ED00E00400FA0570B51344157802F10102802441600326013EFDD151
:2022A0002C4200D101600626013EFDD10160641004D0E4B20226013EFDD1EDE79A4200D24F
:2022C000E6E770BD074B1B782BB141F6D10300FB03F0012303E041F6AA23F8E70133834267
:2022E000FCD370479C0A0020F0B407461C25002007E0461C3C18092B12DD3733237030460D
:20230000043D002D0EDB21FA05F303F00F03002AEFD1002BEDD1002DEBD00028F0D0E8E7DC
:202320003033EBE7F0BC704708B5024A024B1A60024B9847EF6916F0FCFF02206922000003
:202340002F4A012313705368013353609268E2B1A2F57A718B4202D0934212D0704729492D
:202360004FF48050C1F898004FF40040C1F898004FF48040C1F898004FF40050C1F89800ED
:20238000EAE700221E4B9A60704713F0FF0320D11C4B4FF48052C3F898204FF40042C3F80B
:2023A00098204FF48042C3F898204FF40052C3F89820154B1B78A3F10A02D2B2F02A03D9D8
:2023C00011494A7852424A700F4A51780B44137070470D4A12789342C0D10A4B4FF4805237
:2023E000C3F894204FF40042C3F894204FF48042C3F894204FF40052C3F89420AEE700BFAE
:202400009C0A002000800041CC0100200D4B9A685B689A4214D203F5FA630A4A93600A4B78
:202420004FF48052C3F894204FF40042C3F894204FF48042C3F894204FF40052C3F89420AC
:20244000704700BF9C0A00200080004110B40E4B4FF48054C3F888404FF40040C3F8880002
:202460004FF48041C3F888104FF40052C3F88820C3F89840C3F89800C3F89810C3F8982051
:202480005DF8044B704700BF0080004110B50D4B1022C3F88820C3F8942001200A4B9847EB
:2024A000EFF3108333B100236A4610210748084CA04710BD72B66A4610210448044CA047DC
:2024C00062B610BD00800041C5220000948000418D22000008B50020034B9847034A044BC5
:2024E0001A60044B984700BF8D240000EF6926F0FCFF02206922000008B50C4AD368591EE9
:20250000D16063B94FF4FA62084BDA60084A136801331360074A12680AB1934200D208BDDC
:202520000022044B1A60044B984700BF9C0A0020C8160020CC160020D524000010B5431EDE
:202540000A44914200D110BD11F8014B03F8014FF7E702440346934200D1704703F8011B3B
:20256000F9E7034613F8012B002AFBD1181A013870470000FC618000106080001460800022
:202580001860800012011002EF020140EB030224014201020301000000000000CC2500009D
:2025A000DC250000F00100200697FF0901A101150026FF00750895400901810295400901C9
:2025C000910295010901B102C0000000457175616C697A65204865616C746800466C6F7707
:2025E0004C6974652053414D44353120426F617264000000EB3C9055463220554632200009
:20260000020101000240007E3EF83F000100010000000000000000008000294200420053FF
:20262000414D443531000000000046415431362020200000494E464F5F5546325458540068
:20264000D4260000494E44455820202048544D006426000043555252454E54205546320025
:20266000000000003C21646F63747970652068746D6C3E0A3C68746D6C3E3C626F64793E91
:202680003C7363726970743E0A6C6F636174696F6E2E7265706C6163652822687474707341
:2026A0003A2F2F657175616C697A656865616C74682E6F72672F22293B0A3C2F736372695B
:2026C00070743E3C2F626F64793E3C2F68746D6C3E0A000055463220426F6F746C6F6164F8
:2026E000657220312E352053464857524F0D0A4D6F64656C3A20466C6F774C69746520535B
:20270000414D44353120426F6172640D0A426F6172642D49443A20466C6F774C6974652020
:202720002D2053414D4435314A3230410D0A00000000000800003E800200020076312E31ED
:20274000205B53414D4435314A32303A464C4F574C4954455D204A616E2020352032303268
:20276000322031303A32353A33330A0D000000000A0D000006000000580A0D00590A0D0052
:202780005A000000230A0D003E000000F8B500BFF8BC08BC9E46704789020000F8B500BFF1
:2027A000F8BC08BC9E467047650200000902990005010080FA080B00020202010009040054
:2027C00000010202010005240010010424020605240600010524010301070583030800FF92
:2027E00009040100020A000000070581024000000705020240000009040200020806500031
:2028000007058402400000070505024000000904030002030000000921000100012221000F
:2028200007058603400001070506034000010904040002FF2A01000705870340000107054C
:202840000703400001000000050F3900021810050038B60834A909A0478BFDA0768815B6FD
:2028600065000101001C100500DF60DDD88945C74C9CD2659D9E648A9F00000306AA00029B
:20288000000000000904030002030000030000000A00000000000306AA0008000200040055
:2028A000A0001400030057494E555342000000000000000000008400040007002A0044008C
:2028C0006500760069006300650049006E00740065007200660061006300650047005500BF
:2028E000490044007300000050007B00390032004300450036003400360032002D003900E2
:202900004300370037002D0034003600460045002D0039003300330042002D003300310045
:2029200043004200390043003500420042003300420039007D0000000000000000C20100EF
:2029400000000800534253550000000000000000000000000080020220000000000000008E
:1C2960000000000000000000000000000000000000000000312E3030C8010000D3
:20400000C88B0120156D0000B16D0000B16D0000B16D0000B16D0000B16D00000000000014
:20402000000000000000000000000000F1C20200B16D00000000000041C50200A9C5020035
:20404000B16D0000B16D0000B16D0000B16D0000B16D0000B16D0000B16D0000B16D000070
:20406000B16D0000B16D0000B16D0000F152010091450100A1450100B16D0000B16D0000A8
:20408000B1450100B16D0000B16D0000B16D0000B16D0000B16D0000B16D0000B16D000057
:2040A000B16D0000B16D0000B16D0000B16D0000B16D0000B16D0000B16D0000B16D000010
:2040C000B16D0000B16D0000B16D0000B16D0000B16D0000B16D0000B16D0000B16D0000F0
:2040E000B16D0000B16D0000000000000000000000000000BD4E0100B16D0000B16D00003C
:20410000B16D0000B16D0000B16D0000B16D0000B16D0000B16D0000B16D0000B16D0000AF
:20412000B16D0000B16D0000B16D0000B16D0000B16D0000B16D0000B16D0000B16D00008F
:20414000B16D0000B16D0000916D0100AD6D0100C96D0100E56D010000000000000000007F
:2041600000000000000000000000000000000000000000000000000000000000000000003F
:2041800029B3010039B3010049B3010059B3010000000000017C0100B16D0000B16D000091
:2041A000B16D0000B16D0000B16D0000B16D00001D7C0100B16D0000B16D0000B16D000093
:2041C000B16D0000B16D0000B16D0000B16D0000B16D0000B16D0000B16D0000B16D0000EF
:2041E000397C0100B16D0000B16D0000DD8A0100B16D0000F98A0100B16D0000158B010004
:20420000318B01000000000000000000B16D0000B16D0000B16D0000B16D0000B16D00004B
:20422000B16D0000B16D0000B16D0000B16D0000B16D0000B16D0000B16D0000B16D00008E
:20424000B16D0000B16D0000B16D0000B16D0000B16D0000B16D0000B16D0000B16D00006E
:204260000000000010B5054C237833B9044B13B10448AFF300800123237010BD101000205C
:2042800000000000702304000C4B43B10C480D4910B5AFF300800C48036823B910BD0A48F1
:2042A000036833B97047094B002BF7D0BDE810401847064B002BF5D0184700BF00000000F7
:2042C0007023040014100020702304000000000080B485B000AFF8600B467A60FB72FB7AEF
:2042E000FA68DB01134418337A681A6000BF1437BD465DF8047B704780B485B000AFF8607A
:204300000B467A60FB72FB7AFA68DB01134414337A681A6000BF1437BD465DF8047B7047C0
:2043200080B483B000AF7860396000BF7B681A693B681340002BF9D100BF0C37BD465DF88C
:20434000047B704780B582B000AF78600B46FB7013463B80FA787B681832398823F81210CC
:20436000FF217868024B984700BF0837BD4680BD2143000080B582B000AF03463960FB710B
:204380001346BB71BB79002B06D0FB793A6819460648074B984705E0FB793A6819460348CA
:2043A000044B984700BF0837BD4680BD00800041D1420000F942000080B582B000AF034623
:2043C0000A46FB711346BB71FB795B09D8B2FB7903F01F03012202FA03F3BA791946034BBC
:2043E000984700BF0837BD4680BD00BF7543000080B500AF194B1B68002B04D0184B1B6879
:204400000133174A1360174B1B680133154A1360154B1B78002B05D0144B1B680133134A43
:20442000136002E0114B00221A60114B1B78002B11D0104B984702460F4B1B68D31A1A4688
:204440000E4B9A4207DD00200D4B98470D4B1B6801330C4A136000BF80BD00BF2C100020FD
:2044600050100020541000205C1000206010002040100020D1DE020058100020C0D40100DE
:20448000715000007010002080B582B000AF284B1B78002B47D0274B1B68302B06DD254BBA
:2044A00031221A60244B00221A7009E0214B1B68002B05DA1F4B00221A601F4B01221A7015
:2044C0001E4B1B781A46642303FB02F307EE903AF8EEE77AC7ED017A164B1B68184A9B00F0
:2044E000134493ED007AD7ED017A67EE277AC7ED007A144B1B78D7ED007AFCEEE77A17EE88
:20450000901A1846104B98470B4B1B78002B05D0084B1B680133074A136004E0054B1B68EB
:20452000013B044A136000BF0837BD4680BD00BF6410002068100020220000206D10002076
:20454000240000206C100020195E000080B588B000AF78604FF47A63BB6115237B614F4B26
:2045600098470346BB60BB69FB6107F10803F96918464B4B98477B69FB614A4B98474A4BF7
:2045800098470346022B40F28780444B98473861464B1B68002B06D0444B1B683A69D31ACF
:2045A000B3F57A7F04D3414A3B691360404B9847404B98470346002B08D03F4B1B7883F031
:2045C0000103DBB2002B01D03C4B98473C4B98470346002B08D0384B1B7883F00103DBB21C
:2045E000002B01D0374B9847324B98470346002B08D0314B1B7883F00103DBB2002B01D0A7
:20460000314B9847314B98470346002B08D02A4B1B7883F00103DBB2002B01D02C4B98473A
:204620002C4B98470346002B08D0234B1B7883F00103DBB2002B01D0274B9847274B984735
:20464000274B9847274B9847274B98470246274B1A60274B9847034683F00103DBB2002B6A
:2046600002D0244B00221A60234B98470B4B9847F860224B1B68002B06D0204B1B68FA6842
:20468000D31AB3F57A7F04D31C4AFB6813601C4B98471C4B984768E700BF66E7D1DE0200E1
:2046A0008DDA020075530000C553020074100020F14300007DFE00002100002011480000C2
:2046C00051F80000F9500000014B000005310100114B00005D300100F94C0000CD4E00007B
:2046E0001150000065530000094700002C1000208D520200701000208944000078100020FF
:20470000215000004955000080B483B000AF00237B60254B1B7883F00103DBB2002B34D040
:20472000224B1B781A46224B1B785B001A44214B1B789B001A44204B1B78DB001A441F4BC7
:204740001B781B011A441E4B1B785B011A441D4B1B789B011A441C4B1B78DB011A441B4B07
:204760001B781B021A441A4B1B785B021A44194B1B789B021A44184B1B78DB021A44174BF3
:204780001B781B0313447B6007E00B4B1B78DA000F4B1B785B0213447B607B6818460C378C
:2047A000BD465DF8047B7047210000204110002042100020441000204510002046100020E8
:2047C00047100020481000204C1000204D1000204E100020491000204A1000204B10002005
:2047E00080B582B000AF00237B60074B98477860064B98470346002B01D07B6800E0002341
:2048000018460837BD4680BDC55302008D5202002DE9F0438BB006AF9D4B9847F8609D4B80
:204820009847B8609C4B984778609C4B9847034683F00103DBB2002B23D0994BF86898478F
:2048400005460E46964BB8689847964C4FF000024FF08043A04703460C461A462346924C8B
:2048600028463146A0470346002B49D001208F4B98478F4B00221A608E4903208E4B9847DD
:204880003EE0864B98470346002B39D0844BF868984705460E46824BB8689847814C4FF048
:2048A0000002864BA04703460C461A462346844C28463146A0470346002B21D000207B4BF3
:2048C0009847804B98470346142B04D07E4B98470346002B02D17D4B00221A607C4B1B6856
:2048E000002B03D07A4B1B68052B02D9784B05221A60774B1B681A46764902206E4B9847E5
:20490000754B9847034683F00103DBB2002B3ED0634BF868984705460E46614BB86898473B
:204920006E4C4FF000024FF08043A04703460C461A462346624C28463146A0470346002B41
:204940000DD00120664B9847664B01221A70584B00221A6064490320574B984792E0D7EDA5
:20496000037AB3EE047AF4EEC77AF1EE10FA00DC88E001205A4B98475A4B01221A704C4BBD
:2049800000221A60594903204B4B98477AE0524B98470346002B75D0524B1B78002B71D016
:2049A0003F4BF868984705460E463D4BB86898474A4C4FF00002414BA04703460C461A46C3
:2049C00023464B4C28463146A0470346002B00D158E0D7ED037AB3EE057AF4EEC77AF1EE2B
:2049E00010FA00D44EE0434B984707EE100AD7ED017A77EEC77AF0EEE77A9FED3F7AF4EEE4
:204A0000C77AF1EE10FA00DA3CE00020344B9847344B00221A702B4B98470346172B04D019
:204A2000294B98470346002B02D1284B00221A60274B1B68002B03D0254B1B68032B02D9DE
:204A4000234B03221A60164BF868984780468946134BB868984704460D46264B9847024682
:204A60000F4B1046984702460B46194909680491CDE90223CDE9004542464B461F4902202D
:204A80000D4CA04700BF1437BD46BDE8F08300BFD9FD0000F5FC000009F600004D6100007E
:204AA000A5350300E5320300313B0300256200005010002034A1030089C002000000F83F2F
:204AC0006D3B0300C553020009470000541000203410002050A1030065610000E932030001
:204AE000456200004310002084A10300A0A10300453B030021F600009A99993ECCA103001C
:204B000080B400AF00BFBD465DF8047B7047000080B582B000AF644B98477860634B98475C
:204B20000346002B06D00020614B98470020614B9847B5E0604B98470346122B03D8002035
:204B40005C4B984758E05D4B9847034683F00103DBB2002B20D0584B98470346122B4BD97C
:204B6000D7ED017A9FED567AF4EEC77AF1EE10FA42D54E4B9847034683F00103DBB2002B87
:204B80003AD001204B4B98474E4B00221A604E4903204E4B98472FE0484B98470346002B19
:204BA0002AD0D7ED017A9FED4A7AF4EEC77AF1EE10FA21DD00203F4B98473F4B9847034627
:204BC0001B2B04D0434B98470346002B02D1424B00221A60414B1B68002B03D03F4B1B68C4
:204BE000042B02D93D4B04221A603C4B1B681A463B490220354B98473A4B9847034683F0F4
:204C00000103DBB2002B1BD0D7ED017A9FED367AF4EEC77AF1EE10FA42DD244B98470346B0
:204C200083F00103DBB2002B3AD00120204B9847244B00221A602D490320244B98472FE0CF
:204C4000284B98470346002B2AD0D7ED017A9FED287AF4EEC77AF1EE10FA21D50020144BA6
:204C60009847154B984703461C2B04D0194B98470346002B02D1184B00221A60174B1B6844
:204C8000002B03D0154B1B68042B02D9134B04221A60124B1B681A46164902200B4B984735
:204CA0000837BD4680BD00BF0D340100F52C01004563000025630000C5530200AD610000FA
:204CC00000000C42501000202CA2030089C0020000000E4209470000541000203410002062
:204CE0004CA20300C561000000002C4280A2030000002A42A0A2030080B582B000AF5F4B99
:204D0000984778605E4B98470346002B06D000205C4B984700205C4B9847ACE05B4B9847AD
:204D2000034683F00103DBB2002B20D0584B98470346122B4BD0D7ED017A9FED567AF4EE6B
:204D4000C77AF1EE10FA42D54D4B9847034683F00103DBB2002B3AD001204B4B98474E4BEA
:204D600000221A604D4903204D4B98472FE0474B98470346002B2AD0D7ED017A9FED497AEB
:204D8000F4EEC77AF1EE10FA21DD00203E4B98473F4B984703461F2B04D0434B98470346FB
:204DA000002B02D1414B00221A60414B1B68002B03D03F4B1B68042B02D93D4B04221A6081
:204DC0003B4B1B681A463B490220354B98473A4B9847034683F00103DBB2002B1BD0D7EDDA
:204DE000017A9FED367AF4EEC77AF1EE10FA42DD234B9847034683F00103DBB2002B3AD002
:204E00000120204B9847244B00221A602C490320234B98472FE0284B98470346002B2AD068
:204E2000D7ED017A9FED277AF4EEC77AF1EE10FA21D50020134B9847154B98470346202BD4
:204E400004D0194B98470346002B02D1174B00221A60174B1B68002B03D0154B1B68042B01
:204E600002D9134B04221A60114B1B681A46164902200B4B98470837BD4680BDA53301000C
:204E80003D2D01008563000065630000DD610000C553020000000C4250100020D4A2030058
:204EA00089C0020000000E42094700005410002034100020FCA20300F56100000000A44242
:204EC00038A303000000A34260A3030080B582B000AF414B98470346FB71404B9847034620
:204EE00083F00103DBB2002B29D03D4B98470346112B6CD93A4B98470346122B0AD1FB7920
:204F0000002B03D0374B01221A7060E0354B00221A705CE0FB79002B59D0324B1B7883F071
:204F20000103DBB2002B52D001202F4B98472F4B00221A602E4903202E4B984747E0274B78
:204F400098470346002B42D0FB7983F00103DBB2002B15D0284B984707EE100AFBEE047A9C
:204F6000B4EEE77AF1EE10FA0ADD244B984707EE100AFBEE047AB4EEE77AF1EE10FA04DCCE
:204F8000174B98470346112B21D80020164B9847134B984703461D2B04D0194B98470346C4
:204FA000002B02D1174B00221A60174B1B68002B03D0154B1B68042B02D9134B04221A6027
:204FC000114B1B681A46114903200A4B984700BF0837BD4680BD00BFF52C01000D62000053
:204FE000C55302003D10002005630000501000209CA3030089C002000D34010039F6000044
:20500000094700005410002034100020C4A3030080B400AF00BFBD465DF8047B70470000BE
:2050200080B500AF0E4B1B78002B07D00C4B00221A7000213F200B4B98470EE00A4B1B7810
:2050400083F00103DBB2002B07D0084B98470346002B02D0024B01221A7000BF80BD00BF1D
:205060007C100020B9430000210000208D52020080B582B000AF0346FB710C4B984703461C
:20508000002B0FD10A4AFB791370FB79002B04D0084B98470246084B1A6000213F20074B2E
:2050A000984700E000BF0837BD4680BDC150000040100020D1DE020058100020B94300003D
:2050C00080B400AF054B1B68032B01D9012300E000231846BD465DF8047B7047701000205F
:2050E00080B400AF034B1B781846BD465DF8047B704700BF40100020F8B500AF804B9847CB
:205100000346002B40F0FA807E4B9847034683F00103DBB2002B2DD07B4B9847034683F0F3
:205120000103DBB2002B6DD0784B98470246784B1046984705460E46764B98470246744B4E
:2051400010469847744C4FF00002744BA04703460C461A462346724C28463146A04703463C
:20516000002B4FD001206F4B98476F4903206F4B984747E0634B98470346002B42D0634BCF
:2051800098470246624B1046984705460E46614B984702465E4B104698475F4C4FF00002CA
:2051A000634BA04703460C461A462346614C28463146A0470346002B24D00020594B984772
:2051C0005D4B98470346152B04D05C4B98470346002B02D15A4B00221A605A4B1B68002B8A
:2051E00003D0584B1B68052B02D9564B05221A60544B1B681A46544902204C4B9847002092
:20520000524B9847524B9847034683F00103DBB2002B2DD03C4B9847034683F00103DBB26E
:20522000002B6CD0394B98470246394B1046984705460E46374B98470246354B10469847A6
:20524000444C4FF00002354BA04703460C461A462346384C28463146A0470346002B4ED0D0
:2052600001203D4B98473D490320304B984746E0374B98470346002B41D0244B9847024601
:20528000234B1046984705460E46224B984702461F4B104698472F4C4FF00002244BA04787
:2052A00003460C461A4623461D4C28463146A0470346002B23D00020274B98471E4B984735
:2052C00003461E2B04D01D4B98470346002B02D11B4B00221A601B4B1B68002B03D0194B8D
:2052E0001B68052B02D9174B05221A60154B1B681A461B4902200D4B984700E000BFF8BDC9
:20530000FD5300007D610000755300000DFA0000A5350300A1F90000E5320300000024409B
:20532000313B03006562000000A4030089C0020000001C406D3B0300C553020009470000D4
:20534000541000203410002014A40300C562000095610000E93203008562000040A40300A1
:2053600054A4030080B400AF00BFBD465DF8047B7047000080B500AF1A4B984707EE100ACB
:20538000194BD3ED007AB4EE677AF1EE10FA0BD0164B00221A60164B01221A70114B9847E2
:2053A0000246114B1A6019E0114B1B78002B0CD00E4B1B68082B08D90D4B00221A700D4996
:2053C00002200D4B9847002309E0094B1B7883F00103DBB2002B01D0002300E001231846FC
:2053E00080BD00BFA1F9000080100020601000205C10002080A4030089C0020080B400AFF6
:20540000074B1B78002B05D0064B1B68072B01D8012300E000231846BD465DF8047B7047B5
:205420005C1000206010002080B483B000AF78600B46FB707B6803F00103002B04D0FB785A
:20544000142B01D1012378E07B6803F00203002B04D0FB78172B01D101236EE07B6803F016
:205460000403002B04D0FB78152B01D1012364E07B6803F00803002B04D0FB78162B01D1D3
:2054800001235AE07B6803F01003002B04D0FB78182B01D1012350E07B6803F02003002BC6
:2054A00004D0FB781E2B01D1012346E07B6803F04003002B04D0FB781B2B01D101233CE05D
:2054C0007B6803F08003002B04D0FB781D2B01D1012332E07B6803F48073002B04D0FB7872
:2054E0001A2B01D1012328E07B6803F40073002B04D0FB78192B01D101231EE07B6803F498
:205500008063002B04D0FB781C2B01D1012314E07B6803F40063002B04D0FB781F2B01D13A
:2055200001230AE07B6803F48053002B04D0FB78202B01D1012300E0002318460C37BD4656
:205540005DF8047B7047000090B583B002AF964B1B68002B00F0E580944B1B68002B00F036
:20556000E080934B1A68914B1B689A4240F2D98090490220904B9847904B984703461A468D
:205580008F4B1A708F4B984703461A468E4B1A708E4B98470346DAB28D4B1A70824B1B68A3
:2055A00003F40073002B07D019208A4B98478A490220814B9847AEE07B4B1B6803F0020323
:2055C000002B07D01720834B9847844902207A4B9847A0E0744B1B6803F00103002B07D097
:2055E00014207C4B98477E490220734B984792E06D4B1B6803F01003002B07D01820754B9E
:205600009847784902206C4B984784E0664B1B6803F00403002B07D015206E4B9847724916
:205620000220654B984776E05F4B1B6803F02003002B07D01E20674B98476C4902205E4BCF
:20564000984768E0584B1B6803F00803002B07D01620604B984766490220574B98475AE0B1
:20566000514B1B6803F48063002B07D01C20594B984760490220504B98474CE04A4B1B68E7
:2056800003F48073002B07D01A20524B98475A490220494B98473EE0434B1B6803F04003CB
:2056A000002B07D01B204B4B984754490220424B984730E03C4B1B6803F48053002B07D027
:2056C0002020444B98474E4902203B4B984722E0354B1B6803F40063002B07D01F203D4BD6
:2056E000984748490220344B984714E02E4B1B6803F08003002B07D01D20364B984742492A
:2057000002202D4B984706E0274B1B681A463F490220294B9847254B00221A603C4B002223
:205720001A603B4B1B68002B00F0B280394B1A68374B1B689A4240F2AB80364B1A68344BD3
:205740001968234B1B7800930B46334902201A4CA04700213F20314B98472D4B00221A6009
:205760001A4B98470346102B00F09280174B98470346132B00F08C80144B98470346112BD8
:2057800000F08680114B98470346122B00F080800F4B1B78002B7BD00D4B1B780F2B3FD1CA
:2057A0000E200C4B984766E02C1000203010002050100020A4A4030089C00200255F0000E9
:2057C000841000203D5F000085100020C553020086100020DD530200CCA4030000A50300A7
:2057E0002CA5030058A5030094A50300BCA50300E0A5030008A6030054A60300B4A60300A2
:20580000FCA6030054A70300A8A7030000A80300341000205410002040A80300B943000019
:20582000964B1B68002B10D0944B1A68944B1B7819461046934B98470346002B05D0904B90
:205840001B781846904B984715E08C4B1B68002B0CD08E4B98470346002B03D013208A4B40
:20586000984708E01120884B984704E0844B1B781846854B9847002200210020844B98471A
:20588000844B1A78844B1B7819461046834B9847834B1A68794B1B689A4200F06C81774BD1
:2058A0001B68002B00F056817E4B00221A60734B1B6803F40073002B0AD07B4B05221A60F7
:2058C000794B1B681A4679490220794B984748E16A4B1B6803F00203002B0AD0724B052258
:2058E0001A60714B1B681A4672490220704B984737E1624B1B6803F00103002B0AD06A4B1F
:2059000005221A60684B1B681A466B490220684B984726E1594B1B6803F01003002B0AD0AF
:20592000614B05221A60604B1B681A46634902205F4B984715E1514B1B6803F00403002BFB
:205940000AD0594B32221A60574B1B681A465C490220574B984704E1484B1B6803F020031D
:20596000002B0AD0504B32221A604F4B1B681A46544902204E4B9847F3E0404B1B6803F031
:205980000803002B0AD0484B08221A60464B1B681A464D490220464B9847E2E0374B1B685D
:2059A00003F48063002B0AD03F4B14221A603E4B1B681A46454902203D4B9847D1E02F4B20
:2059C0001B6803F48073002B15D0374B05221A603F4B1B68002B03D03D4B1B68042B02D907
:2059E0003B4B04221A60304B1B681A46394902202F4B9847B5E0214B1B6803F04003002B41
:205A000012D0354B9847034683F00103DBB2002B0AD0254BB4221A60234B1B681A462F496A
:205A20000220234B98479CE0144B1B6803F48053002B0AD01C4B14221A601B4B1B681A466A
:205A4000274902201A4B98478BE00C4B1B6803F40063002B48D0204B9847034683F0010384
:205A6000DBB2002B40D0104BB4221A600E4B1B681A461C4902200E4B984772E02C1000200A
:205A80008610002029540000DD5302007DFE0000755C00008410002085100020015D00008E
:205AA00038100020501000203010002084A8030089C00200BCA80300ECA803001CA903005E
:205AC00048A9030074A90300A0A90300D0A903003410002004AA030099F6010048AA030050
:205AE0007CAA0300B4AA0300394B1B6803F08003002B0AD0374B05221A60364B1B681A4613
:205B000035490220354B98472BE0314B1B6803F48073002B15D02F4B05221A60304B1B6869
:205B2000002B03D02E4B1B68042B02D92C4B04221A60284B1B681A462A490220274B98470E
:205B40000FE0294B1A68224B1B6828490220234CA04706E01E4B1B68002B02D11D4B00222D
:205B60001A60214B1A681A4B1B689A4203D0184B1B681D4A1360164B1B68002B24D11C4BFB
:205B800098470346002B1FD0154B1B68002B1BD1184B98470346002B0BD0174B98470346AE
:205BA0001A46164902200D4B98471320144B98470AE0114B984703461A4612490220074BBF
:205BC000984711200E4B984700BF0437BD4690BD2C10002030100020ECAA030089C0020093
:205BE0003410002004AA03003810002028AB03008D5202007DFE0000C553020070AB0300BE
:205C0000DD530200C0AB030080B500AF0F4B00221A600F4B00221A6000200E4B984700209C
:205C20000D4B984700200D4B984700200C4B984700200C4B984700200B4B984700200B4B5F
:205C400098470B4B00221A7000BF80BD2C10002038100020256200004562000065620000AE
:205C6000856200002563000045630000056300003D10002080B582B000AF0346FB710B461C
:205C8000BB7113467B71104AFB7913700F4B00221A60FB79002B0FD00D4ABB7913700D4A69
:205CA0007B7913700C4B01221A70094B1B78002118460A4B984703E000210020074B98477A
:205CC00000BF0837BD4680BD64100020681000206C1000206D10002022000020015D000081
:205CE00080B483B000AF0346FB710B46BB7113467B7100BF0C37BD465DF8047B7047000087
:205D000080B582B000AF03460A46FB711346BB713C4AFB7913703C4ABB791370FB79013B79
:205D2000062B61D801A252F823F000BF635D0000795D00008F5D0000A55D0000495D000010
:205D4000BD5D0000D35D0000BB7918462F4B9847BB7918462E4B9847BB7918462D4B98473B
:205D60004CE00020294B98470020294B9847BB791846284B984741E00020244B9847BB796A
:205D80001846234B98470020224B984736E0BB7918461E4B984700201D4B984700201D4B0D
:205DA00098472BE00020194B9847BB791846184B9847BB791846174B98471FE0BB7918465E
:205DC000124B98470020124B98470020114B984714E0BB7918460D4B984700200C4B9847BD
:205DE00000200C4B984709E00020084B98470020074B98470020074B984700BF00BF0837B3
:205E0000BD4680BD3E1000203F100020555F0000DD5F00007560000080B582B000AF034641
:205E20003960FB71394AFB7913703B68384AA2FB03235B09DAB2374B1A70FB79013B062B1E
:205E400056D801A252F823F0795E00008D5E0000A15E0000B55E0000655E0000C95E000056
:205E6000DD5E000038682C4B984738682B4B984738682B4B984745E00020274B9847002051
:205E8000264B98473868264B98473BE00020224B98473868214B98470020214B984731E0D4
:205EA00038681D4B984700201C4B984700201C4B984727E00020184B98473868174B9847E5
:205EC0003868174B98471DE03868134B98470020124B98470020124B984713E038680E4B63
:205EE000984700200D4B984700200D4B984709E00020094B98470020084B98470020084B14
:205F0000984700BF00BF0837BD4680BD3E1000201F85EB513F100020A55F00002D60000057
:205F2000CD60000080B400AF034B1B781846BD465DF8047B704700BF3E10002080B400AF74
:205F4000034B1B781846BD465DF8047B704700BF3F10002080B584B000AF0346FB71FB7905
:205F600042F2107202FB03F30A4A82FB03125211DB17D31AFB81FB891A4642F210710648ED
:205F8000064B98470448064B984700BF1037BD4680BD00BF1F85EB516CCA0020A10E01006A
:205FA000D50D010080B582B000AF78607B6842F21072934202D942F20F737B60054B1B6962
:205FC0007A6892B201211846034B984700BF0837BD4680BD6CCA00204543000080B584B069
:205FE00000AF0346FB71FB7942F2107202FB03F30A4A82FB03125211DB17D31AFB81FB89F8
:206000001A4642F210710648064B98470448064B984700BF1037BD4680BD00BF1F85EB518C
:206020008CCA0020A10E0100D50D010080B582B000AF78607B6842F21072934202D942F2EC
:206040000F737B600748084B98477A6842F210710448064B98470348054B984700BF0837D7
:20606000BD4680BD8CCA0020390E0100A10E0100D50D010080B584B000AF0346FB71FB794E
:2060800042F2107202FB03F30B4A82FB03125211DB17D31AFB810948094B9847FB891A464A
:2060A00042F210710548074B98470448064B984700BF1037BD4680BD1F85EB5160C90020C2
:2060C000390E0100A10E0100D50D010080B582B000AF78607B6842F20F72934202D942F27B
:2060E0000F737B60054B1B697A6892B201211846034B984700BF0837BD4680BD60C9002015
:206100004543000080B582B000AF0346FB7100213F20044B9847044AFB79137000BF08373B
:20612000BD4680BDB94300002100002080B483B000AF0346FB71FB79034A136000BF0C37E1
:20614000BD465DF8047B70472C10002080B400AF034B1B781846BD465DF8047B704700BFE6
:206160004110002080B400AF034B1B781846BD465DF8047B704700BF4210002080B400AFEA
:20618000034B1B781846BD465DF8047B704700BF4410002080B400AF034B1B781846BD46DA
:2061A0005DF8047B704700BF4710002080B400AF034B1B781846BD465DF8047B704700BFAF
:2061C0004810002080B400AF034B1B781846BD465DF8047B704700BF4910002080B400AF7C
:2061E000034B1B781846BD465DF8047B704700BF4A10002080B400AF034B1B781846BD4674
:206200005DF8047B704700BF4B10002080B400AF034B1B781846BD465DF8047B704700BF4A
:206220004C10002080B483B000AF0346FB71044AFB79137000BF0C37BD465DF8047B704742
:206240004110002080B483B000AF0346FB71044AFB79137000BF0C37BD465DF8047B70472D
:206260004210002080B483B000AF0346FB71044AFB79137000BF0C37BD465DF8047B70470C
:206280004410002080B483B000AF0346FB71044AFB79137000BF0C37BD465DF8047B7047EA
:2062A0004710002080B483B000AF0346FB71044AFB79137000BF0C37BD465DF8047B7047C7
:2062C0004510002080B483B000AF0346FB71044AFB79137000BF0C37BD465DF8047B7047A9
:2062E0004610002080B483B000AF0346FB71044AFB79137000BF0C37BD465DF8047B704788
:206300004D10002080B483B000AF0346FB71044AFB79137000BF0C37BD465DF8047B704760
:206320004C10002080B483B000AF0346FB71044AFB79137000BF0C37BD465DF8047B704741
:206340004810002080B483B000AF0346FB71044AFB79137000BF0C37BD465DF8047B704725
:206360004910002080B483B000AF0346FB71044AFB79137000BF0C37BD465DF8047B704704
:206380004A10002080B483B000AF0346FB71044AFB79137000BF0C37BD465DF8047B7047E3
:2063A0004B10002080B485B000AFF8600B467A60FB72FB7AFA68DB01134418337A681A60A9
:2063C00000BF1437BD465DF8047B704780B485B000AFF8600B467A60FB72FB7AFA68DB016A
:2063E000134414337A681A6000BF1437BD465DF8047B704780B582B000AF03463960FB71A7
:206400001346BB71BB79002B06D0FB793A6819460648074B984705E0FB793A681946034829
:20642000044B984700BF0837BD4680BD00800041A5630000CD63000080B582B000AF034698
:206440000A46FB711346BB71FB795B09D8B2FB7903F01F03012202FA03F3BA791946034B1B
:20646000984700BF0837BD4680BD00BFF563000080B582B000AF78607868034B984700BF2E
:206480000837BD4680BD00BF899C000080B500AF00211520064B98473220064B984701218B
:2064A0001520034B98476420024B984700BF80BD396400007164000080B500AF0021132024
:2064C000014B984700BF80BD3964000080B500AF01211320014B984700BF80BD39640000FB
:2064E00080B586B000AF0346FB71FB1DBB600023FB6001233B61064A07F108031946104654
:20650000044B9847786100BF1837BD4680BD00BF04CA0020E910010080B588B000AF78608B
:20652000396007F1140300221A605A603B68082B02D90023FB6111E007F11403BB607B682F
:20654000FB603B683B615520064B9847064A07F1080319461046054B9847F86100BF203756
:20656000BD4680BDE164000004CA0020E910010080B500AF024B9847024B984700BF80BD76
:20658000897E00000D14030080B582B000AF6FF0B6000A4B98470A4B98470A4B98470A48B7
:2065A0000A4B98470346FB71FB79022B01D0002300E0012318460837BD4680BD5D8C000093
:2065C000A18C0000C18F0000F0253000C18B000080B582B000AF0A4B98470A4B98470A4BDA
:2065E00098470A480A4B98470346FB71FB79032B01D0002300E0012318460837BD4680BD0A
:20660000A58F0000A18C0000C18F0000F0253000C18B000080B584B000AFF860B9607A60D5
:20662000FB6803F00303002B01D000231FE0BB6803F03F03002B01D0002318E07B6803F09B
:206640000303002B01D0002311E06FF0B9000A4B9847F868084B9847B868074B9847786815
:20666000054B9847054B9847054B9847012318461037BD4680BD00BF5D8C0000A18C0000AF
:20668000C18F000080B485B000AF03463960FB71FB79002B02D0FB79013BFB710023FB6039
:2066A0003CE02349FA6813465B001344DB000B441A68FB799A422ED11D49FA6813465B006E
:2066C0001344DB000B4414331B681A4A934222D11749FA6813465B001344DB000B44043315
:2066E0001A683B681A601249FA6813465B001344DB000B4408331A683B685A600C49FA6838
:2067000013465B001344DB000B440C331A683B689A60012306E0FB680133FB60FB68452B17
:20672000BFD9002318461437BD465DF8047B7047A8100020CAF00F53B0B485B000AF0346E2
:206740003960FB710023FB601FE01649FA6813469B0013449B000B4410331A6897F9073035
:206760009A420FD138680F49FA6813469B0013449B000B4404461D460FCD0FC42B6823605C
:20678000012309E0FB680133FB60074B1B881A46FB689A42D9D8002318461437BD46B0BC7A
:2067A000704700BF40170020B81C002090B585B002AFA84B9847034683F00103DBB2002B83
:2067C00005D0A5490420A54B984700233DE1A44B9847034683F00103DBB2002B05D0A149BD
:2067E00004209E4B984700232FE19F4B00221A809E4B02221A804FF4D26200219C489D4BC9
:2068000098474FF480529C494FF47F209B4B98470346002B0BD14FF480530093964B4FF4DB
:206820007F22974904208D4CA04700230DE14FF47F237B6000237B80D0E07C887868914B94
:206840009847034619468A4A23465B002344DB00134419607B6804337B607C887868894B5A
:2068600098470146824A23465B002344DB001344043319607B6804337B607C887868814B74
:20688000984701467A4A23465B002344DB001344083319607B6804337B607C887868794B60
:2068A00098470146724A23465B002344DB0013440C3319607B6804337B607C887868714B4C
:2068C000984701466A4A23465B002344DB001344103319607B6804337B607C887868694B38
:2068E00098470146624A23465B002344DB001344143319607B6804337B607A885C491346B4
:206900005B001344DB000B4414331B685E4A934269D17A88564913465B001344DB000B4444
:206920001B68002B57DA594B1B8818467A88504913465B001344DB000B441A68544903469B
:206940009B0003449B000B4410331A604F4B1B8818467A88464913465B001344DB000B444D
:2069600010331A684A4903469B0003449B000B4404331A60454B1B8818467A883C49134688
:206980005B001344DB000B4404331A68404903469B0003449B000B441A603C4B1B881946C1
:2069A0003B4A0B469B000B449B0013440C3300221A70364B1B881946354A0B469B000B44FD
:2069C0009B001344083300221A60304B1B8801339AB22E4B1A807B8801337B807B88452B98
:2069E0007FF62BAF00E000BF2A48264B98470246294B1A602948234B98470246264B5A6080
:206A00002748204B98470246234B9A6025481D4B98470246204BDA6023481A4B9847024675
:206A20001D4B1A612148174B984702461A4B5A611F48144B98470246174B9A611D48114B56
:206A4000984702461C4B1A60012318460C37BD4690BD00BF8965000014AC030089C002005E
:206A6000D16500002CAC0300381700203A170020A81000201D4803000010800015660000DA
:206A80004CAC0300618A0000CAF00F53B81C002040170020D0FF0F008C100020D4FF0F000D
:206AA000D8FF0F00DCFF0F00E0FF0F00E4FF0F00E8FF0F00FCFF0F008810002080B582B007
:206AC00000AF0B480B4B984700210B480B4B984778600B4B984738607A683B689A4203D9F4
:206AE00079680348074B984700BF0837BD4680BDC8C90020C10601009CAC030025670200A9
:206B0000FD6C0000D151010080B584B000AF786079680448044B9847F860FB68184610373E
:206B2000BD4680BDC8C90020110801002DE9F0438BB006AF07F108031846114B9847BB7A40
:206B400098467B7A99463B7A1C467B7B1D463B7B1E46FB897B600B4B9847034604937B68A2
:206B600003930296019500944B46424606490220064CA04700BF1437BD46BDE8F08300BF16
:206B8000096B0000FD6C0000A4AC030089C0020080B584B000AF786020497868204B9847F7
:206BA000F860F8681F4B98470346DBB2BB72BB7A182B01D90023BB7218490020184B98476C
:206BC000F860F868174B98470346DBB27B727B7A3B2B01D900237B7210490020104B984701
:206BE000F860F8680F4B98470346DBB23B723B7A3B2B01D900233B7207F1080319460A48A8
:206C00000A4B98470A4B98470346194609480A4B984700BF1037BD4680BD00BFD4AC030057
:206C2000855F0300F53F0300C8C9002001070100FD6C00009CAC03006962020080B584B092
:206C400000AF786025497868254B9847F860F868244B98470346DBB27B727B7A0C2B01D941
:206C600001237B721D4900201D4B9847F860F8681C4B98470346DBB23B723B7A1F2B01D9DC
:206C800001233B7215490020154B9847F860F868144B984703469BB27B817B89632B04D870
:206CA0007B8903F5FA639BB27B817B8940F2D972934202D840F2E5737B8107F1080319461A
:206CC00009480A4B98470A4B9847034619460948094B984700BF1037BD4680BDD8AC030002
:206CE000855F0300F53F0300C8C9002089070100FD6C00009CAC03006962020080B500AFCF
:206D00000248034B98470346184680BDC8C900202152010080B582B000AF1C4B7B601C4B34
:206D20003B607A683B689A420CD007E03B681A1D3A607A68111D796012681A603B68154A41
:206D40009342F3D3144B3B6004E03B681A1D3A6000221A603B68114A9342F6D3104B7B60D8
:206D6000104A7B6823F07F0393600E4A0D4BD3F8883043F47003C2F88830BFF34F8FBFF3BD
:206D80006F8F094B9847094B9847FEE770230400000000201010002010100020C4CB0020C4
:206DA0000040000000ED00E09540030015C9010080B400AFFEE780B485B000AFF8600B4686
:206DC0007A60FB72FA7AFB682032796843F8221000BF1437BD465DF8047B704780B483B0F6
:206DE00000AF78607B681B6943F480627B681A6100BF0C37BD465DF8047B704780B483B037
:206E000000AF78607B685B6943F480727B685A6100BF0C37BD465DF8047B704780B483B086
:206E200000AF78607B685B6943F400727B685A6100BF0C37BD465DF8047B704780B483B0E6
:206E400000AF78607B685B6943F480627B685A6100BF0C37BD465DF8047B704780B483B056
:206E600000AF78607B685B6943F480527B685A6100BF0C37BD465DF8047B704780B483B046
:206E800000AF78607B685B6943F400527B685A6100BF0C37BD465DF8047B704780B483B0A6
:206EA00000AF78607B685B6943F480427B685A6100BF0C37BD465DF8047B704780B483B016
:206EC00000AF78607B689B6943F001027B689A6100BF0C37BD465DF8047B704780B483B039
:206EE00000AF78607B689B6943F400627B689A6100BF0C37BD465DF8047B704780B483B0B6
:206F000000AF78607B689B6943F480527B689A6100BF0C37BD465DF8047B704780B483B025
:206F200000AF78607B689B6943F400527B689A6100BF0C37BD465DF8047B704780B483B085
:206F400000AF78607B68DB6943F020027B68DA6100BF0C37BD465DF8047B704780B483B019
:206F600000AF78607B68DB6943F040027B68DA6100BF0C37BD465DF8047B704780B483B0D9
:206F800000AF78607B681B6A43F002027B681A6200BF0C37BD465DF8047B704780B483B075
:206FA00000AF78607B681B6A43F010027B681A6200BF0C37BD465DF8047B704780B483B047
:206FC00000AF78607B681B6A43F080027B681A6200BF0C37BD465DF8047B704780B483B0B7
:206FE00000AF78607B681B6A43F480727B681A6200BF0C37BD465DF8047B704780B485B021
:2070000000AFF8600B467A60FB72FB7AFA68DB01134408337A681A6000BF1437BD465DF8CE
:20702000047B704780B485B000AFF8600B467A60FB72FB7AFA68DB01134404337A681A6075
:2070400000BF1437BD465DF8047B704780B485B000AFF8600B467A60FB72FB7AFA68DB01DD
:20706000134418337A681A6000BF1437BD465DF8047B704780B485B000AFF8600B467A60DF
:20708000FB72FB7AFA68DB01134414337A681A6000BF1437BD465DF8047B704780B485B0D5
:2070A00000AF7860084611461A460346FB700B46BB7013467B70FA78BB787968D2010A4429
:2070C000134430331B78FB73FB7B23F00F03FB737B7803F00F03DAB2FB7B1343FB73FA78BC
:2070E000BB787968D2010A4413443033FA7B1A7000BF1437BD465DF8047B704780B485B0A1
:2071000000AF7860084611461A460346FB700B46BB7013467B70FA78BB787968D2010A44C8
:20712000134430331B78FB73FB7B03F00F03FB737B781B01DAB2FB7B1343FB73FA78BB7831
:207140007968D2010A4413443033FA7B1A7000BF1437BD465DF8047B704780B485B000AFC4
:207160007860084611461A460346FB700B46BB7013467B70FA78BB787968D2010A441344C0
:2071800040331B78FB73FB7B23F00103FB737A78FB7B1343FB73FA78BB787968D2010A44AD
:2071A00013444033FA7B1A7000BF1437BD465DF8047B704790B482B000AF78600B46FB70B5
:2071C0001346BB70FA78BB78F878B9787C68C0012044014440310978C9B241F00401C8B27A
:2071E0007968D2010A441344403302461A7000BF0837BD4690BC704790B482B000AF7860F0
:207200000B46FB701346BB70FA78BB78F878B9787C68C0012044014440310978C9B221F01C
:207220000401C8B27968D2010A441344403302461A7000BF0837BD4690BC704780B485B0C4
:2072400000AFF8600B467A60FB72FB7AFA68DB01134428337A681A6000BF1437BD465DF86C
:20726000047B704780B582B000AF03463960FB711346BB71BB79012B1CD0022B37D0002B44
:207280004ED1FB793A6819462A482B4B98473B689BB243F08042FB7919462648274B98471C
:2072A0003B681B0C43F04042FB7919462148234B98473AE0FB793A6819461E481E4B984789
:2072C0003B689BB243F0804343F40033F9791A4618481A4B98473B681B0C43F0404343F431
:2072E0000033F9791A461348144B98471DE0FB793A6819460F48124B98473B689BB243F0C8
:207300008042FB7919460B480C4B98473B681B0C43F04042FB7919460648084B984704E099
:20732000462208490020084B984700BF0837BD4680BD00BF00800041257000003D72000040
:20734000FD6F0000DCAC03007122010080B582B000AF03463960FB711346BB71BB79002B5A
:2073600006D0FB793A6819460648074B984705E0FB793A6819460348044B984700BF083772
:20738000BD4680BD008000414D7000007570000080B582B000AF0346FB710B46BB711346A9
:2073A0007B717B79012B0AD0022B1FD0002B34D1BA79FB7919461E481E4B984733E0BB79A0
:2073C00001229A40FB79194619481B4B9847BA79FB7919461648194B9847BB7901229A405F
:2073E000FB7919461248164B98471CE0BB7901229A40FB7919460E480F4B9847BA79FB79EA
:2074000019460B480D4B9847BB7901229A40FB79194607480B4B984705E089220A490020F8
:207420000A4B984700BF00BF0837BD4680BD00BF00800041F971000025700000B571000076
:207440004D70000075700000DCAC03007122010090B585B000AF786039607B685B09FB731C
:207460007B68DBB203F01F03BB733B68B3F1FF3F06D1BA7BF97B00231248134CA0471DE094
:20748000BA7BF97B01230F480F4CA047BB7B03F00103002B09D0BB7B5B08DAB23B68DBB200
:2074A000F97B0848094CA04708E0BB7B5B08DAB23B68DBB2F97B0348054CA04700BF14378E
:2074C000BD4690BD008000415B710000FD7000009D70000080B582B000AF03460A46FB713A
:2074E0001346BB71FB795B09D8B2FB7903F01F03DBB2BA791946034B984700BF0837BD46CF
:2075000080BD00BF9173000080B582B000AF7860396039687868034B984700BF0837BD4635
:2075200080BD00BF5174000080B582B000AF03460A46FB711346BB71FB795B09D8B2FB7914
:2075400003F01F03012202FA03F3BA791946034B984700BF0837BD4680BD00BF657200006E
:2075600080B582B000AF03460A46FB711346BB71FB795B09D8B2FB7903F01F03012202FA61
:2075800003F3BA791946034B984700BF0837BD4680BD00BF4D73000080B500AF014B98476A
:2075A00000BF80BD353F010080B582B000AF786039607B68002B04D03B68002B01D001232E
:2075C00000E0002303F00103DBB2482207491846074B98477B683A681A607B681846054B4B
:2075E0009847034618460837BD4680BDF8AC03007122010065B4010080B500AF002102200A
:20760000274B984727490220274B984700210320234B984725490320234B9847002128205E
:207620001F4B9847224928201F4B9847002129201B4B98471F4929201B4B98470021062019
:20764000174B98471C490620174B984700210720134B984719490720134B984700210A2087
:207660000F4B984716490A200F4B984700210B200B4B984713490B200B4B9847002122206F
:20768000074B984710492220074B984700212320034B98470D492320034B984700BF80BD9A
:2076A000297500000100020009750000010003000100280001002900010006000100070045
:2076C00001000A0001000B00010022000100230080B500AF0448054B9847422228210448F4
:2076E000044B984700BF80BD00080040BD6F0000001C0040B76D000080B500AF054B984759
:20770000054B9847002205490548064B984700BF80BD00BFD1760000F9750000001C00437E
:20772000C0C900200101010080B500AF00212720034B984703492720034B984700BF80BD68
:2077400029750000010027000975000080B500AF0448054B9847422229210448044B98475E
:2077600000BF80BD00080040DD6F0000001C0040B76D000080B500AF054B9847054B9847B7
:20778000002205490548064B984700BF80BD00BF4D7700002977000000200043ACCA0020E4
:2077A0000101010080B500AF442204211848194B98471948194B984701212020184B98476C
:2077C00000212020174B98474FF400112020164B984701212120124B984700212120114BD6
:2077E00098474FF4041121200F4B9847012114200B4B9847002114200A4B98474FF4A011D0
:207800001420094B9847094B984700BF80BD00BF001C0040B76D0000000800403D6E0000A0
:2078200029750000D574000009750000BD08010080B500AF0248034B984700BF80BD00BF07
:20784000000800401D6E000080B500AF034B984703490448044B984700BF80BD31780000D9
:2078600000240040C8C900205106010080B500AF00210820074B984707490820074B984794
:2078800000210920034B984705490920034B984700BF80BDD5740000020008000975000000
:2078A0000200090080B500AF422207210648074B9847432203210448044B98470448054B2F
:2078C000984700BF80BD00BF001C0040B76D0000000800405D6E000080B500AF044B984769
:2078E00004490548054B9847054B984700BF80BDA578000000300040B0CA0020C50B01009C
:207900006D78000080B500AF00211020114B984702211020104B984710491020104B9847C2
:20792000002111200B4B9847022111200A4B98470C4911200A4B984701211220064B9847FA
:2079400000211220084B984708491220044B984700BF80BD6175000029750000020010006F
:207960000975000002001100D57400000200120080B500AF422208210648074B98474322C4
:2079800003210448044B98470448054B984700BF80BD00BF001C0040B76D0000000800404B
:2079A0007D6E000080B500AF044B984704490548054B9847054B984700BF80BD71790000EC
:2079C0000034004004CA0020390F01000579000080B500AF402223210648074B9847432210
:2079E00003210448044B98470448054B984700BF80BD00BF001C0040B76D000000080040EB
:207A00007D6F000080B500AF04491720044B984704491620024B984700BF80BD030017001F
:207A2000097500000300160090B583B002AF084B9847002300931023064A07490748084C28
:207A4000A047084B984700BF0437BD4690BD00BFD1790000BC1C0020000400431CCA002075
:207A6000E9140100057A000080B500AF0248034B984700BF80BD00BF10E000E06108010039
:207A800080B500AF0848094B9847422209210848084B9847084B984703461A4607490848F4
:207AA000084B984700BF80BD000800409D6E0000001C0040B76D0000B5890100003800400E
:207AC000E8C90020D111010080B500AF02490D20024B984700BF80BD04000D0009750000DF
:207AE00080B500AF0448054B984744221A210448044B984700BF80BD000800401D6F00003C
:207B0000001C0040B76D000080B500AF064B9847064B9847064B984703461A46054906482C
:207B2000064B984700BF80BDE17A0000C97A0000C589010000A0014180C90020650D01006E
:207B400080B500AF02492D20024B984700BF80BD04002D000975000080B500AF0448054B52
:207B6000984744221E210448044B984700BF80BD000800403D6F0000001C0040B76D000097
:207B800080B500AF064B9847064B9847064B984703461A4605490648064B984700BF80BD00
:207BA000597B0000417B0000C5890100001400426CCA0020650D010080B500AF02492F2049
:207BC000024B984700BF80BD04002F000975000080B500AF0448054B984744221E2104487C
:207BE000044B984700BF80BD000800405D6F0000001C0040B76D000080B500AF064B9847B3
:207C0000064B9847064B984703461A4605490648064B984700BF80BDD17B0000B97B000013
:207C2000C58901000018004260C90020650D010080B500AF02493E20024B984700BF80BD2A
:207C400006003E000975000080B500AF0448054B9847442219210448044B984700BF80BDED
:207C600000080040DD6E0000001C0040B76D000080B500AF064B9847064B9847064B98477D
:207C800003461A4605490648064B984700BF80BD497C0000317C0000817B01000060014162
:207CA00040C90020650D010080B500AF02490C20024B984700BF80BD06000C000975000015
:207CC00080B500AF0448054B9847422219210448044B984700BF80BD00080040FD6E00007E
:207CE000001C0040B76D000080B500AF064B9847064B9847064B984703461A46054906484B
:207D0000064B984700BF80BDC17C0000A97C0000817B010000800141A0C90020650D01001A
:207D200080B500AF02492E20024B984700BF80BD05002E000975000080B500AF0448054B6D
:207D40009847442226210448044B984700BF80BD000800409D6F0000001C0040B76D00004D
:207D600080B500AF064B9847064B9847064B984703461A4605490648064B984700BF80BD1E
:207D8000397D0000217D0000817B0100001000438CCA0020650D010080B500AF0221182017
:207DA0000F4B9847002118200E4B9847002118200D4B98470D4918200D4B98470221192048
:207DC000074B984700211920064B984700211920054B984707491920054B984700BF80BDAB
:207DE0002975000061750000D574000007001800097500000700190080B500AF45220A2193
:207E00000548064B98470648064B98470448064B984700BF80BD00BF001C0040B76D0000B0
:207E200000080040DD6D0000BD6E000080B500AF034B9847034B9847034B984700BF80BD1E
:207E4000F97D00001D1D0100997D000080B500AF0248034B984700BF80BD00BF00080040FD
:207E6000FD6D000080B500AF034B984703490448044B984700BF80BD4D7E0000002000409A
:207E8000C4C90020A975000080B500AF5A4B984700210420594B984702210420584B98471E
:207EA0004FF0FF310420574B984700212420534B984702212420524B98474FF0FF31242036
:207EC000504B9847002125204C4B9847022125204B4B98474FF0FF3125204A4B9847002126
:207EE0002620464B984702212620454B98474FF0FF312620434B984700212A203F4B9847FE
:207F000002212A203E4B98474FF0FF312A203D4B984701212B20394B984702212B20384BAB
:207F200098474FF0FF312B20364B984700212C20324B984702212C20314B98474FF0FF3146
:207F40002C20304B9847012130202D4B9847002130202D4B98474FF0FF313020294B9847D8
:207F600001213120264B984700213120264B98474FF0FF313120234B984701213620204B8C
:207F8000984700213620204B98474FF0FF3136201C4B984701213720194B98470021372002
:207FA000194B98474FF0FF313720164B9847174B9847174B9847174B9847174B9847174B12
