:1000000010B30120552700005127000051270000A0
:100010005127000051270000512700000000000078
:10002000000000000000000000000000216E010040
:100030005127000000000000B16E0100156F0100A3
:1000400051270000512700005127000051270000D0
:1000500051270000512700005127000051270000C0
:100060005127000051270000512700005DA7000024
:1000700051270000512700005127000051270000A0
:100080005127000029A4000031A4000051270000DE
:100090005127000051270000512700005127000080
:1000A0005127000051270000512700005127000070
:1000B0005127000051270000512700005127000060
:1000C0005127000051270000512700005127000050
:1000D0005127000051270000512700005127000040
:1000E0005127000051270000000000000000000020
:1000F0000000000021A60000512700005127000049
:10010000512700005127000051270000512700000F
:1001100051270000512700005127000051270000FF
:1001200051270000512700005127000051270000EF
:1001300051270000512700005127000051270000DF
:1001400051270000512700005127000051270000CF
:1001500051270000512700000000000000000000AF
:10016000000000000000000000000000000000008F
:10017000000000000000000000000000000000007F
:100180005DCE000065CE00006DCE000075CE000093
:1001900000000000A5B60000512700005127000014
:1001A000512700005127000051270000512700006F
:1001B000B5B600005127000051270000512700006C
:1001C000512700005127000051270000512700004F
:1001D000512700005127000051270000512700003F
:1001E000C5B60000512700005127000001BD0000E6
:1001F000512700001DBD0000512700002DBD00004B
:100200003DBD00000000000000000000512700007C
:1002100051270000512700005127000051270000FE
:1002200051270000512700005127000051270000EE
:1002300051270000512700005127000051270000DE
:1002400051270000512700005127000051270000CE
:1002500051270000512700005127000051270000BE
:100260000000000010B5054C237833B9044B13B1DE
:100270000448AFF300800123237010BD500F00200D
:1002800000000000908C02000C4B43B10C480D495B
:1002900010B5AFF300800C48036823B910BD0A48BD
:1002A000036833B97047094B002BF7D0BDE8104005
:1002B0001847064B002BF5D0184700BF0000000080
:1002C000908C0200540F0020908C0200000000006F
:1002D00010B51A4C236813B1636801336360A368D7
:1002E000227B0133A36052B1236901332361237D53
:1002F0004BB1A3690133A361237F43B910BD237DB3
:100300002261002BF5D1A361237F002BF6D00C4B8B
:100310009847236A0B4AC01A9042EFDD636A032BA9
:1003200002D90133636210BD07494FF00040C1F8A4
:100330009400002201332277636210BD6C0F00200D
:100340005D800100C0D4010000800041204B1B787B
:1003500043B1204B93F8310093F82B30400200EB6F
:10036000C30070471B49F0B591F8292091F8286027
:1003700091F82A3091F82B5091F82C4091F82D00EB
:1003800091F82EE091F82F7002EB460202EB830306
:1003900003EBC50303EB041303EB401303EB8E13D2
:1003A00091F8300091F8316091F8325091F8334073
:1003B00091F8342003EBC71303EB002000EB462039
:1003C00000EB852000EBC42000EB0230F0BD00BF45
:1003D000100000206C0F002010B5054B9847054B0E
:1003E00004469847002814BF2046002010BD00BFD7
:1003F000FD280100B92801002DE9F04F2DED028BF9
:10040000784B794C794D87B09847794B08EE100AB4
:100410009847784B0646984794F829A0074618EE67
:10042000100ABAF1000F3BD1A847804630468946F2
:10043000DFF8FCB1A84700224FF08043D847DFF82F
:10044000F4B102460B4640464946D847002840F0E2
:10045000AA8094F828A0BAF1000F50D118EE100A23
:10046000A847804630468946A847634D00224FF092
:100470008043A847614D02460B4640464946A8477F
:10048000002840F0A980F3EE047AB4EEE78AF1EE9A
:1004900010FA00F3928007B0BDEC028BBDE8F08F3C
:1004A000A847804630468946DFF884A1A847002245
:1004B000534BD047DFF844A102460B46404649461D
:1004C000D0470028C5D000224E4B84F829209847F9
:1004D000142802D04C4B984708B90023A360A26BA4
:1004E0004A49531E042B88BF0522494B88BFA2638B
:1004F0000220984794F828A0BAF1000FAED094F8E3
:100500003C30002BC7D018EE100AA8478046304672
:100510008946A847384E3A4B002282468B46B04760
:100520003C4E02460B4640464946B0470028B2D0F2
:10053000F3EE057AB4EEE78AF1EE10FAABD5364E5B
:10054000B04707EE907A07EE100A77EEC77A9FED74
:10055000337AF0EEE77AF4EEC77AF1EE10FA9ADB2E
:100560000023284A84F8283084F83C309047172824
:1005700002D0254B984708B90023A360A36B013B29
:10058000022B84BF0323A363B047A36B0493A84744
:100590001F4CCDE90201CDE900AB42464B46204954
:1005A0000220A04777E701221E49194BC4F804A096
:1005B000032084F8292098474BE71B49144A6060C0
:1005C0000123032084F8283084F83C3007B0BDECC8
:1005D000028BBDE8F04F1047012314490C4AC4F8C0
:1005E00004A0EEE7818000006C0F0020ADB0010098
:1005F000218000004D7C0000F1AD010075B60100C6
:100600000000F83FFD2801004D0300005C1D0200C2
:10061000494701004DB60100597C00009A99993E66
:10062000D81D0200401D0200AC1D0200901D0200FA
:10063000EDAD010039B601002DE9F04F2DED048B31
:10064000A94BAA4C85B09847A94B08EE100A9847C9
:10065000A84B08EE900A984707EE900A94F82C30C1
:1006600037EEC88A88EE279A5BB9A34B1B78002B1C
:1006700055D0002384F82C3005B0BDEC048BBDE8C8
:10068000F08F9D4D2B78002BF3D194F85120002A48
:1006900055D0D4ED117AF4EEE78AF1EE10FA4EDB84
:1006A000A66B84F85030721E012A84BF0226A6630E
:1006B00084F8513084F82C3018EE900A8F4B98470C
:1006C00000960B4602468E4E8E490320B04794F8A2
:1006D000613003B3D4ED127AB4EEE79AF1EE10FA7A
:1006E00019DBA66B721E012A4FF0000388BF022699
:1006F00084F8603084F8613084F82C3088BFA663B9
:100700007E4B19EE100A9847009602460B467C4E27
:100710007D490320B0472B78002BAAD1ACE7B0EE7F
:10072000007AF4EEC77AF1EE10FA14DCC4ED118A07
:1007300084ED129A05B0BDEC048BBDE8F08F94F8FF
:100740006130002B98D0D4ED127AB4EEE79AF1EE36
:1007500010FAE0DBC5E7DFF8D081C0476B4B08EE4D
:10076000100A984707EE900A694B38EE678A984757
:10077000B4F93E30B0EEC88A05B2A3B15A1B052ABF
:1007800011DCEB1A0A2B0FDD94F84030002B00F03F
:10079000428101220023227384F84020E3872361F1
:1007A000D4F8449016E0E58723690A2B10D994F811
:1007B00040306BB1B4F93E20AB1A0A2B40F33181C3
:1007C000002020612B4653494D4E0220B047E5875B
:1007D000D4F84490494DDFF854A118EE900AA84788
:1007E000064648460F46DFF84891A8473AA3D3E9A2
:1007F0000023C84702460B4630463946D0470028FA
:1008000000F0FA8018EE100AC4ED118A84ED129AF5
:10081000A847DFF8209132A3D3E90023C847002876
:1008200040F0F68094F84030002B7FF425AF606CE8
:10083000DFF804B1DFF8FC80A8470022364BCDE991
:100840000201D8470B46024639463046C04794F865
:100850005030002800F0A580002B00F0F380F1EE6E
:10086000047AF4EEE78A9FED2D8ADFED2D7AD4ED40
:10087000128A94F86030F1EE10FAD8BFB0EE678AB1
:1008800078EEC87AB4EEE79AF1EE10FA56D5002B5E
:1008900000F0238194F850304BB194F85130002B84
:1008A00000F0FD8094F86030002B3FF4E5AE94F842
:1008B0006130002B00F0E38094F85130002B3FF4BE
:1008C000DBAE0F4B174903209847012384F82C30E7
:1008D000D2E600BFAFF300809A9999999999B93FF0
:1008E000EC51B81E85EBB13F597C00006C0F002025
:1008F0008D7B00004D7C000010000020ADB0010099
:100900004947010038210200842102008180000053
:10091000E1330000641E02000000F03F9A99193F85
:10092000CDCC4C3EC82002002180000075B60100ED
:10093000F1AD010039B60100EDAD010063B319EE70
:10094000100AA847804618EE900A8946A84791A346
:10095000D3E90023D84702460B4640464946D047D4
:10096000002897D0804B9847E36E02461BB1C31A0C
:10097000B3F5FA6F0BD3E266A06CA8474246CDE907
:1009800000014B46DFF8F48178490420C04700237A
:1009900084F8603084F8613094F85030002B81D0B6
:1009A0007BE7002B3FF45BAF0022714BDDE90201D6
:1009B000D84702460B4630463946D04700283FF418
:1009C0004EAF694B9847E36D02461BB1C31AB3F5AE
:1009D0007A7F0BD3E265606CDFF8A081A8473246CE
:1009E000CDE900013B4663490420C047002384F859
:1009F000503084F8513032E7C047D4ED137A07EE17
:100A0000100AB4EE677AF1EE10FA7FF4FBAE09E754
:100A1000C047E06406E72A465749584B02209847EA
:100A2000B7E62B465649554D0220A847002318EE3D
:100A3000909AC4ED118A84ED129A237384F84030A1
:100A40002361C7E60122DFF8208184F8513084F861
:100A50005020C04700F59C5008306065C047A36D2A
:100A600023B1C31AB3F57A7FFFF4F9AEA06532461D
:100A70003B464449DFF804810420C047EFE63A4E84
:100A8000B047636E984250D894F85130002B3FF431
:100A9000F3AD94F86030002B3FF4EEAD11E7DFF8D2
:100AA000C880C047636D98427FF6FCAEC047236F95
:100AB00002461BB1C31AB3F57A7F0AD32267606C72
:100AC000A8473246CDE900013B462C4E2E49032073
:100AD000B047012384F85130E4E60122DFF8888032
:100AE00084F8613084F86020C04700F59C500830DD
:100AF0006066C047A36E024623B1C31AB3F5FA6F0E
:100B0000FFF44AAFA26618EE100AA847804619EE15
:100B1000100A8946A8474246CDE900014B46DFF856
:100B20005C801A490420C04736E7B047636F02462D
:100B30001BB1C31AB3F57A7F0FD3626719EE100A9F
:100B4000A8470646A06C0F46A8473246CDE90001EB
:100B50003B460A4D0E490320A847012384F8613023
:100B600092E700BFAFF300805D800100E01F02004C
:100B70000000E03F381F0200381E02004947010014
:100B8000B41E0200F81E020038200200881F020076
:100B9000782002009A9999999999A93F70B5444B88
:100BA000444D2DED028B984708EE100AA847C0B9B6
:100BB000414C94F82E30002B3DD0DFED407AB4EE5E
:100BC000E78AF1EE10FA5CDC94F8323093B9DFED8D
:100BD0003C7AB4EEE78AF1EE10FA43DCBDEC028B0E
:100BE00070BDBDEC028B344B002283F8322083F8B9
:100BF0002E2070BDDFED337AB4EEE78AF1EE10FA05
:100C0000ECD50022304B84F8322098471C2802D0C3
:100C10002E4B984708B90023A360A26B2C49BDEC6A
:100C2000028B531E032B84BF0422A263294B022094
:100C3000BDE870401847244B98471228C4D0DFED18
:100C4000267AB4EEE78AF1EE10FABDD5A84700285F
:100C5000BAD10122606021491E4B84F82E20032066
:100C60009847B1E7A8470028B8D1BDEC028B012214
:100C7000606084F832201A49164B0320BDE87040AA
:100C80001847114B84F82E0098471B2802D00F4BB1
:100C9000984708B90023A360A26B1249531E032B87
:100CA00088BF04220B4B88BFA263022098478BE7C2
:100CB000ED9D0000B99A00006C0F002000000E426C
:100CC00000002C4200002A42FD2801004D030000D4
:100CD000602202004947010000000C42EC210200A2
:100CE000402202000C22020070B5444B444D2DED11
:100CF000028B984708EE100AA847C0B9414C94F8F7
:100D00003330002B3DD0DFED407AB4EEE78AF1EED0
:100D100010FA5CDC94F8343093B9DFED3C7AB4EE31
:100D2000E78AF1EE10FA43DCBDEC028B70BDBDEC3E
:100D3000028B344B002283F8342083F8332070BDBB
:100D4000DFED337AB4EEE78AF1EE10FAECD500224B
:100D5000304B84F834209847202802D02E4B9847F7
:100D600008B90023A360A26B2C49BDEC028B531E73
:100D7000032B84BF0422A263294B0220BDE87040EC
:100D80001847244B98471228C4D0DFED267AB4EEDA
:100D9000E78AF1EE10FABDD5A8470028BAD10122A2
:100DA000606021491E4B84F8332003209847B1E747
:100DB000A8470028B8D1BDEC028B0122606084F8FE
:100DC00034201A49164B0320BDE870401847114BD8
:100DD00084F8330098471F2802D00F4B984708B972
:100DE0000023A360A26B1249531E032B88BF042269
:100DF0000B4B88BFA263022098478BE7B19D000090
:100E0000F59A00006C0F002000000E420000A44282
:100E10000000A342FD2801004D0300002023020032
:100E20004947010000000C4294220200F82202000F
:100E3000BC22020070B5304B304C2DED028B984730
:100E400094F82F3005467BB350B92D4B984707EEE9
:100E5000900ABBEE048AF4EEC87AF1EE10FA3CDC9C
:100E6000284DA84711281CD8002384F82F30A84704
:100E70001D2802D0244B984708B90023A360A26B19
:100E80002249BDEC028B531E032B84BF0422A263B4
:100E90001F4B0320BDE8704018474DB3012384F871
:100EA0007830BDEC028B70BD164EB0471128F8D9D2
:100EB000B0471228F1D0002DF3D094F87830002BF1
:100EC000EFD1BDEC028B0125636084F82F501149EE
:100ED0000F4A0320BDE8704010470F4B984707EEBC
:100EE000900AF4EEC87AF1EE10FAB9DD054DBBE7D1
:100EF00084F87850D5E700BFB99A00006C0F002045
:100F0000ED9D0000FD2801004D0300008423020038
:100F1000494701005C230200657C000010B50C4CC1
:100F200094F879305BB90B4B1B7803B110BD0A4BB9
:100F300098470028FAD0012384F8793010BD074A79
:100F40004FF000410023C2F8941084F8793010BDAE
:100F50006C0F002010000020B92801000080004123
:100F600010B50B4C636A032B07D8207730B9094BB7
:100F70004FF00042C3F8942010BD10BD064B9847B7
:100F8000044B20624FF00042C3F8942010BD00BF14
:100F90006C0F0020008000415D800100034B586A07
:100FA000032894BF00200120704700BF6C0F002071
:100FB000014B187F704700BF6C0F0020000000003D
:100FC000F0B55D4C5D4B83B0984794F83150002DDF
:100FD00029D05B4B5B4D984753A3D3E900230646CA
:100FE0000F46A847D0B10022574B84F831209847CC
:100FF000192802D0554B984708B90023A360A36B6A
:1010000053495A1E032A84BF0423A3633246009324
:10101000504C3B460220A04703B0F0BD4E4B9847D2
:101020000028E0D1F8E74D4B06469847002845D107
:1010300094F82B50002D29D03046414B414D984714
:101040003BA3D3E9002306460F46A84718B9424BF5
:101050009847002844D03C4D002384F82B30A84703
:10106000162802D0394B984708B90023A360A36B18
:101070003B495A1E032A84BF0423A36332460093CC
:10108000344C3B460220A04703B0F0BD354B984797
:101090000028C1D02C4FB8471028BDD9B847122816
:1010A000BAD0314A264B1570012284F82B203046E5
:1010B0009847284C0B4602462C490BE02A4A204B05
:1010C0001570012284F8312030469847214C0B4698
:1010D000274902460320A44603B0BDE8F04060471C
:1010E000194DA8471228B7D0A847102802D9A847F9
:1010F000212891D9002384F82B30A847162802D044
:10110000124B984708B90023A360A36B1949013B10
:10111000032B84BF0423A3630E4B022003B0BDE85E
:10112000F0401847AFF300809A9999999999344003
:101130009A999999999935406C0F0020B1E5000072
:10114000ADB0010061B60100FD2801004D030000B3
:10115000F42302004947010085E5000021E6000074
:1011600060240200D5E500001000002038240200B1
:10117000C02302009824020070B5114E114CB047F4
:10118000D4ED1F7A07EE100AB4EE677AF1EE10FA8A
:1011900006D1257D15B1A269082A09D8284670BD57
:1011A00000230125A3612575B047E067284670BD7F
:1011B00000250549054B257502209847EEE700BF3D
:1011C000D17D00006C0F0020E0240200494701009F
:1011D0002DE9F041604C237D23B1A369072B01D891
:1011E000BDE8F08194F82A301BB35C4B5C4D984706
:1011F0005C4B0646984780463046A8470646404620
:101200000F46A847584D594B0022A847584D024653
:101210000B4630463946A847002840F0828094F8B3
:101220002D30002B2AD1534B9847002857D0BDE8CA
:10123000F081504B98470028F1D1484B484D9847D2
:10124000484B0646984780463046A84706464046E3
:101250000F46A847444D484B0022A847474D024639
:101260000B4630463946A8470028D8D001224449C9
:10127000444B84F82A2003209847D0E7374B384D59
:101280009847384B0646984780463046A84706465A
:1012900040460F46A8473C4D344B0022A847374DE7
:1012A00002460B4630463946A8470028BFD00022E8
:1012B000364B84F82D2098471E2802D0344B98478F
:1012C00008B90023A360A26B3249531E042B84BFCC
:1012D0000522A2632B4B0220BDE8F04118471F4BAB
:1012E0001F4D98471F4B0646984780463046A847F3
:1012F000064640460F46A847234D1F4B0022A847ED
:101300001B4D02460B4630463946A84700288ED072
:10131000012284F82D2020491A4B0320BDE8F0411A
:1013200018470022194B84F82A209847152802D024
:10133000174B984708B90023A360A26B1749531EA7
:10134000042B88BF05220F4B88BFA2630220984759
:10135000002384F82C3062E76C0F0020657E0000CB
:10136000ADB00100D17D0000EDAD010000001C40DA
:1013700075B60100791100000000244039B6010063
:101380000425020049470100F1AD0100FD280100DC
:101390004D030000582502004425020018250200D4
:1013A000C30701D5142930D0820701D517292CD0C5
:1013B000430701D5152928D0020701D5162924D0C5
:1013C000C30601D5182920D0820601D51E291CD0BC
:1013D000430618D4020601D51D2916D0830501D570
:1013E000192912D0420501D51C290ED0030501D5BB
:1013F0001F290AD010F4805008D0A1F12000B0FAC3
:1014000080F0400970471B29E4D10120704700BFDC
:101410000D4B002200211A60C3F8802083F8292098
:1014200083F8282083F82A2083F82D2083F82C20A5
:1014300083F82E2083F8322083F82F2083F8782039
:1014400059649964D96470476C0F00207B4B30B4A9
:10145000A3FB01237A4C5B09421E84F8853084F893
:101460008400062A00F2CF80DFE812F022003C0060
:10147000570094007200B2000700724B42F20F72E4
:1014800042F21070814288BF11461A6989B25186B2
:10149000136913F0FF03FBD16B496C4A09691269A8
:1014A0000B675386136913F0FF0FFBD130BC7047F5
:1014B000644B1A6900235386136913F0FF03FBD1B1
:1014C0006148624A00691269036742F20F739942E8
:1014D00028BF194689B25186136913F0FF0FFBD15B
:1014E00030BC7047574B1A6900235386136913F0B9
:1014F000FF03FBD15448554A0069126942F2107546
:1015000042F20F74A94288BF2146016753861369CE
:1015100013F0FF0FFBD130BC70474A4B42F20F7201
:1015200042F21070814288BF11461A6989B2518611
:10153000136913F0FF03FBD14349444A0969126957
:101540000B675386136913F0FF0FFBD130BC704754
:101550003C4A42F21073994212698DBF42F20F73F6
:101560008BB2084618465386136913F0FF0FFBD160
:10157000354B364A1B691269186742F20F7399425C
:1015800028BF194689B25186136913F0FF0FFBD1AA
:1015900030BC70472B4B1A6900235386136913F034
:1015A000FF0FFBD142F21073994240D8264A42F213
:1015B0000F738B42126928BF0B4611679BB2234AF7
:1015C00012695386136913F0FF0FFBD130BC7047CB
:1015D0001C4B42F20F7242F21070814288BF1146DA
:1015E0001A6989B25186136913F0FF03FBD11649BA
:1015F000164A096912690B675386136913F0FF0FC6
:10160000FBD130BC70470F4B1A6900235386136916
:1016100013F0FF03FBD10C490C4A096912690B67EF
:101620005386136913F0FF0FFBD130BC7047064B94
:101630001A6942F20F731367C1E700BF1F85EB51B0
:101640006C0F0020A8B10020C8B10020CCB0002051
:10165000F8B52F4C94F88630EBB1D4F8885094F854
:101660008C30302D18DD03EB830303EB83039B00E9
:1016700007EE903AF8EEE77A264D94F88D00264A68
:10168000FCEEE77A002317EE901A6B703125904735
:10169000013DC4F88850F8BD002D1FDB03EB830328
:1016A00003EB83031D4A1B4994F88D004E781A4FB3
:1016B0009B0007EE903A02EB8502F8EEE77A92ED96
:1016C000007A67EE877AFCEEE77A17EE901AB84751
:1016D000002EDDD00135C4F88850F8BD03EB83033C
:1016E00003EB83039B0007EE903A9FED0D7A0949C7
:1016F00094F88D00084AF8EEE77A012367EE877ABE
:101700004B70FCEEE77A002517EE901A9047E1E760
:101710006C0F0020100000204D140000741C02000B
:1017200000000000004B18475116000010B500EBF8
:101730008000074C074B00EB8000820092B22046ED
:1017400042F2107198472046034BBDE810401847FD
:10175000A8B100208D8A00004D8A000010B500EB72
:101760008000074C074B00EB8000820092B22046BD
:1017700042F2107198472046034BBDE810401847CD
:10178000C8B100208D8A00004D8A000010B500EB22
:101790008000074C074B00EB8000820092B220468D
:1017A00042F2107198472046034BBDE8104018479D
:1017B000CCB000208D8A00004D8A0000374A431EBD
:1017C00070B50C4682F8840082F88510062B5BD831
:1017D000DFE803F0451A0430410404000846304BAA
:1017E000304D314C9847002242F210712F48A847E3
:1017F0002E48A047002242F210712D48A8472346E8
:101800002B48BDE870401847002242F21071254E67
:101810002848254DB0472748A8472046264B9847DB
:10182000002242F210712248B0472B462048BDE802
:10183000704018471B4B1F48002242F21071984716
:101840001C48194B984720461B4B984720461B4B7A
:10185000BDE8704018470846114B9847F3E700224F
:1018600042F210710F4E13480F4DB0471148A84770
:10187000002242F210710D48B0470C48A84720469C
:101880000E4BBDE870401847002242F21071054D22
:101890000848054CA8470748A047A4E76C0F00205C
:1018A0002D1700008D8A00004D8A0000C8B100206D
:1018B000CCB00020A8B100205D1700008D170000FB
:1018C000F0B5154C002583B084F88600C4F8885024
:1018D00048B903461A46D4F89000009303210F4CF0
:1018E000A04703B0F0BD0E4F84F88D1008460126C6
:1018F00029460C4B84F88C207E7098470A4BD4F80C
:101900009040984731460246009520462B46034CAE
:10191000A04703B0F0BD00BF6C0F0020B98C0100E0
:1019200010000020BD1700005D80010070B5A74CBD
:10193000216882B019B1D4F89430002B4DD1A36B3B
:101940001BB1A2689342C0F0A880D4F880308B42CB
:101950003FD0002939D000238805636000F1E98079
:101960008A0700F1D780CB0700F1EC80CE0600F1AA
:1019700002814D0700F11081880600F1EC800A0712
:1019800000F11A814B0500F15A814E0600F16B817E
:10199000CD0400F16E81080500F17B810A0600F19B
:1019A0007E81CB0540F18B81A36B8949013B032BE1
:1019B00088BF04234FF00502C4F8942088BFA363B6
:1019C0000522844B02209847ACE0C4F89410C4F878
:1019D0008010002948D002B070BD62689342AED238
:1019E0007D497C4D0220A84794F8852094F8841006
:1019F0007A4B84F8992084F898109847226884F8E4
:101A00009A00960500F1D180900700F1AD80D107D2
:101A100000F10E81D30600F11B81560700F13281DF
:101A2000900600F14581110700F15181530500F145
:101A30006681560600F16A81D00400F177811105B4
:101A400000F17B81130600F18381D60540F17C8192
:101A50001A20634B984763490220A8470023C4F823
:101A60009430A363216870E75F4B98470028B2D099
:101A7000A36B002BAFD15D4B9847584B002840F02B
:101A8000838098475A49534B0246022098471120B9
:101A9000534B02B0BDE87040184794F89A1000917B
:101AA000022054494B4E4D4DB047534B4FF000422E
:101AB000C3F894200023A363A847102828D0A84780
:101AC000132825D0A847112822D094F89A50FDB1A8
:101AD0000F2D00F010812068002800F0C0802946FA
:101AE000464B9847002840F0BA80404B9847002862
:101AF00000F0F48013203A4B98470022114610461C
:101B00003F4B984794F8991094F898003D4B9847AC
:101B100021681AE705231A463B492E4DC4F8943034
:101B20000220A8472168D4F880308B427FF44FAF61
:101B30004FE705231A463549264DC4F89430022054
:101B4000A847EFE705231A463149224DC4F89430DF
:101B50000220A847E6E732231A462E491D4DC4F855
:101B600094300220A847DDE717201D4B98472A49EB
:101B70000220A84772E702231A4618462749154D46
:101B8000C4F89430A847CDE798472549114B024641
:101B90000220984713207BE732231A4621490D4D36
:101BA000C4F894300220A847BCE719200C4B984792
:101BB0001D490220A84751E708231A461B49054D35
:101BC000C4F894300220A847ACE700BF6C0F002097
:101BD000C42B02004947010084250200FD280100B2
:101BE0000929010080280200B9280100E5800000D1
:101BF000A02C02002029020000800041A113000057
:101C0000C1180000BD1700009C29020064290200D1
:101C1000CC290200542A0200E0250200FC2902001F
:101C2000502C0200282A0200AC250200802A020063
:101C300014204B4B98474B490220A8470EE714232A
:101C40001A464949494DC4F894300220A84769E72B
:101C50001820434B984746490220A847FEE62846ED
:101C60003F4B984749E7434B984700283AD02168B3
:101C70008EE614231A4640493C4DC4F894300220A5
:101C8000A8474FE71520364B98473C490220A84704
:101C9000E4E6384B984700283FD021687EE60523CC
:101CA0001A463749314DC4F894300220A84739E725
:101CB0001E202B4B984733490220A847CEE60B46FF
:101CC000D4F880203049294D0220A8472AE7162061
:101CD000234B98472D490220A847BFE61120204BEF
:101CE00098470AE778231A462949204DC4F89430CA
:101CF0000220A84716E70E20194B9847FDE61C2046
:101D0000174B984723490220A847A7E61B20144BEE
:101D1000984721490220A847A0E6B4231A461F4944
:101D2000124DC4F894300220A847FBE620200C4B4B
:101D300098471B490220A84790E61F20084B984768
:101D400018490220A84789E617490220A84785E6D6
:101D50001D20034B984715490220A8477EE600BF87
:101D6000092901000C260200B02A0200494701009F
:101D700038260200D5E50000182B02007426020068
:101D8000882B02009C260200082C0200C0260200BC
:101D9000E42A0200E826020034270200502B020049
:101DA0007C270200D4270200E02802002828020035
:101DB0002DE9F04F434BDFF860B1DFF86081424F0F
:101DC000424E434DDFF858A1DFF8589185B098474F
:101DD00004AC404B44F8040D012200934FF47A7197
:101DE00000233D48D8473D4BC8F89C0001221421F0
:101DF00000933B480023D847324BD8F89CB0C8F832
:101E00009000984700230246012158460093DFF8CE
:101E100018B1D847DFF814B14FF47A612046B847BB
:101E2000B047A84702284FF01501F7D9D04718B19D
:101E300099F80030002B39D02A4B984718B199F8FF
:101E40000030002B35D0D04718B199F80030002B66
:101E500032D0254B984718B199F80030002B2ED07E
:101E6000224B984710B199F80030E3B1204B9847C6
:101E7000204B9847204B9847204BC8F800009847C4
:101E800008B9C8F824000F4B9847D8F8A0301BB108
:101E9000C31AB3F57A7F03D3194BC8F8A00098474B
:101EA000D8471521BAE7174B9847DFE7164B9847F5
:101EB000C2E7164B9847C6E7154B9847C9E7154B3D
:101EC0009847CDE75D80010085820100791100000F
:101ED000FD280100D1020000F42C020025170000AB
:101EE000082D0200D17C00004D9C0000F99B0000F1
:101EF000350E0000C10F00004D030000B92801009D
:101F00001D0F0000E90C0000F9030000D1110000D2
:101F1000390600009D0B0000658C01006C0F00204D
:101F2000E580000010000020B98C01002D19000090
:101F3000094B83F88E0000B9704770B4074D084C08
:101F400083F88D10012683F88C2008466E70234696
:101F5000002170BC184700BF6C0F0020100000204B
:101F6000BD170000034A044B4FF00041C2F8941023
:101F7000187070470080004110000020014B18606D
:101F8000704700BF6C0F0020014B83F82900704799
:101F90006C0F0020014B83F82A0070476C0F002063
:101FA000014B83F82D0070476C0F0020014B83F824
:101FB0002B0070476C0F0020014B83F830007047F6
:101FC0006C0F0020014B83F82F0070476C0F00202E
:101FD000014B83F82E0070476C0F0020014B83F8F3
:101FE000320070476C0F0020014B83F833007047BC
:101FF0006C0F0020014B83F8340070476C0F0020F9
:10200000004B18475948000070B5064D064C4FF478
:1020100000166E613220A047AE6123466420BDE801
:10202000704018470080004159480000024B4FF4AF
:1020300000225A61704700BF00800041024B4FF4FC
:1020400000229A61704700BF0080004130B587B020
:1020500006AB002503F8110D012403A9034A044827
:10206000039304950594904707B030BD658B00003D
:1020700084B10020F0B58BB00023082903930293AC
:1020800014D80AAD0A46552105F8211D02AE0446B2
:1020900007A9049601270648064E05940692089360
:1020A00007950997B04704A90148B0470BB0F0BDA8
:1020B00084B10020658B000010B5034B9847034B9B
:1020C000BDE81040184700BF8130000091A001001A
:1020D000F8B5094C07466FF0B9000E461546A04703
:1020E0003846A0473046A0472846A047034B9847AC
:1020F000034B98470120F8BDBD380000E1380000CF
:10210000A13E000008B56FF0B600074B9847074B9B
:102110009847074B9847074B07489847A0F102009C
:10212000B0FA80F0400908BDBD380000E138000079
:10213000A13E000049380000F025300008B5074BEB
:102140009847074B9847074B9847074B07489847CE
:10215000A0F10300B0FA80F0400908BD2D3E000058
:10216000E1380000A13E000049380000F0253000B1
:10217000830709D10B469B0606D1930710B405D0FF
:1021800000205DF8044B704700207047014B5DF85C
:10219000044B1847D12000002DE9F84F6FF0E40000
:1021A000DFF82091DFF820A1DFF820B1374D384E5D
:1021B000384FDFF81C81C8474FF47F20C847FF2005
:1021C000C8474FF48050C8471420D047D847324BF7
:1021D00098474FF47F2419E02968B0476968201DAB
:1021E000B047A96804F10800B047E96804F10C00A1
:1021F000B047296904F11000B047696904F114007F
:102200001834B047444505F1180503D06B69BB424B
:102210002046E1D0214C1F4BD4F8AC269A4218D06E
:10222000D4F8B0161E48B0476FF0B800C8471D4834
:10223000C8474FF47F20C8474FF48050C847142048
:10224000D047D847144B98471420D0470120BDE809
:10225000F88FD4F894161448B047D4F89816134859
:10226000B047D4F89C161248B047D4F8A0161148CD
:10227000B047D4F8A4161048B047D4F8A8160F48B1
:10228000B047D4F8AC160E48B047C9E71810002084
:10229000D5350000CAF00F53A13E000014100020F5
:1022A000FCFF0F0000108000D0FF0F00D4FF0F00D4
:1022B000D8FF0F00DCFF0F00E0FF0F00E4FF0F006E
:1022C000E8FF0F00BD38000001200000E1380000E9
:1022D00090F60F0030B408B10138C0B20F4B104D6A
:1022E000002204E00132462A03F1180313D01C68CF
:1022F000A042F7D15C69AC42F4D10A4B02EB420236
:1023000003EBC20201209568D46813698B600D60ED
:102310004C6030BC7047002030BC70471810002063
:10232000CAF00F531410002070B4144DB5F8B44621
:1023300014B3D5F8C83683420E460ED005F5D762E1
:10234000002302E01169814208D00133A34202F167
:102350001402F7D1002070BC7047002303EB830305
:1023600005EB830303F5D7650FCD34460FC42B6807
:102370002360012070BC70472046ECE71410002059
:102380002DE9F047504B82B09847002862D04F4B60
:1023900098470446002855D04D4F4E4B38460222F0
:1023A00020F8042B00214FF4D26298474FF480525A
:1023B00049494A4B4FF47F2098470446002877D07C
:1023C000474EDFF85081DFF850913C1D4FF47F25D8
:1023D0004FF0000A03E04D4504F1180443D02846AD
:1023E000B0472060281DB047606005F10800B04785
:1023F000A06005F10C00B047E06005F11000B047A7
:10240000206105F11400B0474045606105F11805F1
:1024100029D12368002BDEDAB7F8B406216900EB76
:10242000800207EB82020130C2F8C836636882F886
:10243000C4A6C2F8C0A6A7F8B406C2F8BC16C2F873
:10244000B836C8E72749284B04209847204602B0F1
:10245000BDE8F08704462549234B042098472046D1
:1024600002B0BDE8F0872248B047C7F8940621487B
:10247000B047C7F898062048B047C7F89C061F48E1
:10248000B047C7F8A0061E48B047C7F8A4061D48C5
:10249000B047C7F8A8061C48B047C7F8AC061B48A9
:1024A000B0470124C7F8B006204602B0BDE8F08767
:1024B0004FF48053009316490B4D03F500034FF47E
:1024C0007F220420A847C1E7052100003D2100002C
:1024D0001410002009C3010000108000D12000006A
:1024E00039370000342D0200494701001C2D02003D
:1024F000D0FF0F00D4FF0F00D8FF0F00DCFF0F004C
:10250000E0FF0F00E4FF0F00E8FF0F00FCFF0F00EB
:10251000542D0200CAF00F5390F60F00F0B4094C8E
:10252000094ED4F8AC7604F2946405460FCC0FC57E
:1025300094E8070085E80700B81BB0FA80F040096E
:10254000F0BC704714100020CAF00F5370B4054659
:102550000FCD054C054E0FC495E80700334684E8BF
:10256000070070BC184700BFA81600209921000082
:1025700010B50A4B0A48984700210A4B0A48984769
:102580000A4B044606489847844200D810BD2146AD
:102590000348074BBDE81040184700BF31850000D5
:1025A00034B10020112F0100A42D020031A700003A
:1025B00001A700000146014B01481847558600005D
:1025C00034B100202DE9F043114C124B89B006A91B
:1025D000204698472046104B9DF81A409DF8195008
:1025E0009DF818609DF81D709DF81C80BDF81E9028
:1025F000984722460490CDF80C908DE8C0012B46F8
:102600000649074C0220A04709B0BDE8F08300BF8F
:1026100034B100205586000031A70000AC2D020027
:102620004947010030B51A491A4D1B4C83B0A847E1
:10263000A047C0B218288CBF00238DF806001449AB
:1026400088BF8DF806300020A847A047C0B23B28BD
:102650008CBF00238DF805000D4988BF8DF805302B
:102660000020A847A047C0B23B288ABF00238DF8AE
:1026700004008DF8043001A9084B09489847094B1C
:1026800007489847084B01460848984703B030BDB3
:102690007C500200C5DA0100FDBA01005D85000032
:1026A00034B1002031A70000E52D0100A42D020067
:1026B00030B51F491F4D204C83B0A847A047C0B27A
:1026C0000C288CBF01238DF80500194988BF8DF8AF
:1026D00005300020A847A047C0B21F2894BF8DF83E
:1026E00004000123124988BF8DF804300020A84758
:1026F000A04780B2632898BF00F5FA6040F2D97312
:1027000098BF80B2984298BF40F2E573ADF80600DA
:1027100001A998BFADF806300848094B9847094B06
:1027200006489847084B01460848984703B030BD13
:10273000DC2D0200C5DA0100FDBA010034B1002031
:10274000DD85000031A70000E52D0100A42D020069
:10275000FEE700BF1B491C4A914208B50ED01B483A
:1027600082420BD2D343034423F0030304331344C4
:1027700051F8040B42F8040B9A42F9D1144A154956
:102780008A420AD2D3430B4423F003030433134495
:10279000002142F8041B9A42FBD10F4A0F4B22F052
:1027A0007F029A60D3F8882042F47002C3F8882030
:1027B000BFF34F8FBFF36F8F094B9847094B984773
:1027C000FEE700BF908C020000000020500F0020A8
:1027D000500F00200CB300200000000000ED00E0CE
:1027E00081BB0100DDDB0000F0B4674B6748684D3A
:1027F000684F694E4FF0404208245C6098629A62CC
:1028000093F8431001F0FE0141F0010183F84310F9
:1028100093F8311001F00F0141F0100183F83110ED
:102820004FF48071C3F88410C3F8A850C3F8A820EF
:1028300093F8C81001F0FE0141F0010183F8C810BF
:1028400093F8B41001F0F00141F0010183F8B410E5
:10285000102159609F629A6293F8441001F0FE01C2
:1028600041F0010183F8441093F8321001F0F001B7
:1028700041F0010183F83210402159609E629A6252
:1028800093F8461001F0FE0141F0010183F8461073
:1028900093F8331001F0F00141F0010183F8331097
:1028A000803D802159609D629A6293F8471001F043
:1028B000FE0141F0010183F8471093F8331001F055
:1028C0000F0141F0100183F8331007F57C774FF4C6
:1028D000806159609F629A6293F84A1001F0FE018C
:1028E00041F0010183F84A1093F8351001F0F0012E
:1028F00006F5F86641F001014FF4006783F83510E2
:102900005F609E629A6293F84B1001F0FE0141F005
:10291000010183F84B1093F8351001F00F017C3D55
:1029200041F01001042683F83510C3F88460C3F821
:10293000A850C3F8A82093F8C21001F0FE0141F09E
:10294000010183F8C21093F8B11001F0F00141F0D9
:10295000010183F8B110C3F88440C3F8A800C3F89C
:10296000A82093F8C32002F0FE0242F0010283F88F
:10297000C32093F8B12002F00F0242F0100283F856
:10298000B120F0BC704700BF00800041080000404B
:1029900000010040100000404000004010B5094A0E
:1029A0000948136A094943F0800342241362C0F8BE
:1029B00020418847002206490648074BBDE81040E1
:1029C000184700BF00080040001C0040E927000035
:1029D000001C00432CB100200982000010B4184BE9
:1029E000184A194804244FF040415C609A62996289
:1029F00093F8422002F0FE0242F0010283F84220E6
:102A000093F8312002F0F00242F00102202483F812
:102A100031205C609862996293F8452002F0FE02D2
:102A200042F0010283F8452093F8322002F00F02B1
:102A300042F0100283F832205DF8044B704700BF6B
:102A400000800041040000402000004070B5084AAA
:102A5000084D136A084C0949094843F4007342269B
:102A60001362C5F82861A047064BBDE870401847BF
:102A700000080040001C0040918600000024004334
:102A800054B10020DD290000F0B4234A234C244B2C
:102A9000244E2548254D26494427C2F89070626986
:102AA000202742F480626261C3F88470C3F8A86092
:102AB000C3F8A80093F8C52002F0FB0283F8C520F4
:102AC00093F8C52002F0FE0242F0010283F8C5200F
:102AD00093F8B220402402F00F0283F8B220C3F82A
:102AE0008440C3F8A850C3F8A80093F8C62002F0A9
:102AF000FB0283F8C62093F8C62002F0FE0242F0E3
:102B0000010283F8C62093F8B32002F0F00283F8A4
:102B1000B320F0BC084700BF001C00400008004084
:102B20000080004120000240000002C0400002403E
:102B3000F9870000164B93F8482002F0FB0283F857
:102B4000482093F8482002F0FE0242F0010283F888
:102B5000482093F8342002F0F00242F0020283F899
:102B6000342093F8492002F0FB0283F8492093F8BF
:102B7000492002F0FE0242F0010283F8492093F856
:102B8000342002F00F0242F0200283F83420704714
:102B90000080004170B50A4B0A4A0B4C0B490C48A7
:102BA00042264325C3F89C60C3F88C50536943F414
:102BB00080535361A047074BBDE87040184700BFE2
:102BC000001C004000080040318900000030004037
:102BD000E8B10020352B000070B4284B284D294E59
:102BE00029482A494FF480324FF080445A619A6054
:102BF0009C629D6293F8502002F0FE0242F00102B6
:102C000083F8502093F8382002F0F0024FF400359A
:102C100042F0020283F838205D619D609C629E62F2
:102C200093F8512002F0FE0242F0010283F8512095
:102C300093F8382002F00F0242F020024FF4802473
:102C400083F838205C609862996293F8522002F011
:102C5000FB0283F8522093F8522002F0FE0242F069
:102C6000010283F8522093F8392002F0F00242F07A
:102C7000020283F8392070BC704700BF0080004119
:102C8000010000C0020000C000000240040002C0B9
:102C900070B50A4B0A4A0B4C0B490C484226432597
:102CA000C3F8A060C3F88C50536943F400535361D8
:102CB000A047074BBDE87040184700BF001C00400C
:102CC00000080040C18A00000034004084B10020A8
:102CD000D92B0000104B93F8572002F0FE0242F06F
:102CE000010283F8572093F83B2002F00F0242F0D4
:102CF000300283F83B2093F8562002F0FE0242F0A7
:102D0000010283F8562093F83B2002F0F00242F0D3
:102D1000030283F83B2070470080004170B50A4BE6
:102D20000A4A0B4C0B490C4842264325C3F80C6158
:102D3000C3F88C50136A43F0020313620022A047C9
:102D4000064BBDE870401847001C004000080040DA
:102D5000058F0000000400439CB10020D52C00002A
:102D600070B51149114C8B69114A124843F4005354
:102D700044258B61C4F8E85092F84D3003F0FE030F
:102D800043F0010382F84D3092F8363003F00F0320
:102D900043F0400382F8363080470749074B02462C
:102DA000BDE870400648184700080040001C00407D
:102DB00000800041B9BC000000A00141058A00006C
:102DC000ECB0002070B51149114CCB69114A124882
:102DD00043F020034425CB61C4F8F85092F8CD307D
:102DE00003F0FE0343F0010382F8CD3092F8B630D1
:102DF00003F00F0343F0400382F8B63080470749E1
:102E0000074B0246BDE870400648184700080040DE
:102E1000001C004000800041B9BC000000140042CA
:102E2000058A0000A8B1002070B51149114CCB698A
:102E3000114A124843F040034425CB61C4F8F850CE
:102E400092F8CF3003F0FE0343F0010382F8CF3055
:102E500092F8B73003F00F0343F0400382F8B73025
:102E600080470749074B0246BDE8704006481847AF
:102E700000080040001C004000800041B9BC000078
:102E800000180042058A0000CCB0002070B511493E
:102E9000114C8B69114A124843F4006344258B613D
:102EA000C4F8E45092F8DE3003F0FE0343F001036F
:102EB00082F8DE3092F8BF3003F0F00343F00603EF
:102EC00082F8BF3080470749074B0246BDE8704093
:102ED0000648184700080040001C004000800041E0
:102EE0009DB6000000600141058A0000ACB00020E2
:102EF00070B51149114C8B69114A124843F4805343
:102F000042258B61C4F8E45092F84C3003F0FE0384
:102F100043F0010382F84C3092F8363003F0F003AE
:102F200043F0060382F8363080470749074B0246D4
:102F3000BDE870400648184700080040001C0040EB
:102F4000008000419DB6000000800141058A00001C
:102F50000CB1002070B51149114C0B6A114A12488E
:102F600043F0100344250B62C4F8185192F8CE3098
:102F700003F0FE0343F0010382F8CE3092F8B7303D
:102F800003F0F00343F0050382F8B73080470749A8
:102F9000074B0246BDE8704006481847000800404D
:102FA000001C0040008000419DB60000001000435E
:102FB000058A0000C8B1002010B4204B2049214CE4
:102FC0004FF080724FF080409A60986299625A6127
:102FD00093F8582002F0FB0283F8582093F8582009
:102FE00002F0FE0242F0010283F8582093F83C20E0
:102FF00002F0F00242F007024FF0007183F83C202B
:10300000996098629C62596193F8592002F0FB0222
:1030100083F8592093F8592002F0FE0242F0010291
:1030200083F8592093F83C2002F00F0242F070021E
:1030300083F83C205DF8044B704700BF00800041DE
:10304000000100C0000200C010B5094A094B0A493E
:103050004520C2F8A8001A6942F480621A619A6990
:1030600042F001029A618847044BBDE810401847BE
:10307000001C00400008004071910000B92F0000C2
:1030800070B52F4B2F4C98472F4B3048304A314961
:103090004FF40005C3F88450C3F8A800C3F8A82073
:1030A00093F8D7202C4D02F0FB0283F8D72093F839
:1030B000D72002F0FE0283F8D7208847274B984795
:1030C000274B984763692749274A284843F40073E8
:1030D00063619047264B9847264B9847264B984765
:1030E0002648274B984763692649274A43F480437B
:1030F00042206361C1F8A40090472449244B024652
:1031000024489847244B9847244B9847244B98478A
:10311000244B9847244B9847244B9847244B984777
:103120006369244943F48073636148220120A847FE
:103130002148224A224B0260BDE87040184700BF78
:10314000E9A00000000800400080004100000240AB
:10315000800002C09D290000119500004D2A00004A
:10316000892A000000240040ED84000034B10020D2
:10317000952B0000912C00001D2D000010E000E0B8
:103180007D870000001C0040B5BC000000380040F6
:10319000198D000068B10020612D0000C52D0000D0
:1031A000292E00008D2E0000F12E0000552F00006A
:1031B00049300000E02D020030B100200020004026
:1031C0007DCE00002DE9F047344C354E354B364866
:1031D000DFF8DC80DFF8DC90344D01274FF400622B
:1031E0005221984721463A4630682770C0473A46F0
:1031F00021463068C84723783068277063F07F0322
:103200002146022263704FF0030AC0473A46214626
:10321000306884F800A0C0473A4621463068C84765
:103220002378306884F800A063F03F03214602222F
:103230006370C0474A2220215220A8472B22212117
:103240005220A8473A2222215220A84700222321B7
:103250005220A847602224215220A847C0222521BD
:103260005220A847CB2226215220A847B02227214E
:103270005220A847092228215220A847B9222921F3
:103280005220A8470D222A215220A8472B460C2263
:103290002B215220BDE8F047184700BF30B2002074
:1032A00028B2002075890000E8B10020B9D00000E4
:1032B00095890000C589000038B50C4C0C4B0546BB
:1032C00070212068984718B90A490B4B032098478A
:1032D00029460A4B52209847002305461A46206883
:1032E000074C1946A047284638BD00BF7CB00020D7
:1032F000017A0100FC2D0200494701009DCF00002A
:10330000C17501002DE9F843DFF8D090284B06463F
:103310007021D9F800009847002844D04FF400628B
:103320005221244C2448254B254D264F98474FF0D9
:103330000108FF2E286884F800802146424621D8E3
:10334000B84742462146204B28689847237828688A
:1033500084F8008023F00103214602226370B847FD
:10336000286814496670002502222570B847174C5A
:10337000D9F800002B462A462946A047144B1E8048
:10338000BDE8F883B8474246214628680E4B984767
:103390002378286884F8008043EA08032146022243
:1033A0006370B847DCE70B490B4B03209847B5E740
:1033B000017A010030B20020E8B1002075890000D8
:1033C00028B2002095890000C5890000C175010060
:1033D000481C0020102E0200494701007CB000204C
:1033E000014B1888704700BF481C0020014BB3F9FF
:1033F00002007047481C0020F8B5184E184B306882
:103400007021984720B34FF40062164B1648174FAF
:10341000174D5221984711215220B84712210446D6
:1034200052202C70B847002328701A46194630687D
:10343000104EB0472B78240223449BB218B2B0F54B
:10344000005FA4BFA3F5804318B20B4B5880F8BDB2
:103450000A490B4B032098470A48F8BD7CB000206E
:10346000017A010075890000E8B100209DCF0000BD
:1034700030B20020C1750100481C0020242E02003B
:103480004947010018FCFFFF2DE9F043002583B0F8
:10349000DFF86490154FDFF864802E462C4608E074
:1034A0009D421CD001341D4600268C2B09DD632C67
:1034B00007DCC8471420B847B8F9023013F57A7F03
:1034C000EED100932246334609490A4C0220A04718
:1034D0004FF4FA703B4603B0BDE8F043184701369D
:1034E0000E2E04F10104E0DDEBE700BF59480000B7
:1034F0003C2E020049470100F9330000481C00201F
:1035000030B5184C184B83B09847B4F9021011F538
:103510007A7F19D0B4F904308B4218D0E268A180C8
:1035200001320023E260A3608B290BDC00910F4D78
:103530000F490220A84700230120A360E360A38075
:1035400003B030BD642AF1DC002003B030BDA368B5
:10355000E268A180013301320E2BA360E260E5DC5A
:10356000E2E700BF481C0020F93300004947010092
:103570003C2E020070B50F4D0F4B064653212868B4
:10358000984718B90D490E4B032098470D4B0E4C28
:1035900098473046A0470020A0470020A0470B4B8B
:1035A0000B4C984700232868A4461A461946BDE8E4
:1035B0007040604794B00020017A0100842E020020
:1035C000494701002D2000004D2000003D20000053
:1035D000C17501002DE9F041164F174B06460D4607
:1035E00038685321984718B91449154B0320984758
:1035F000144B154C9847C6F3064040F08000A04796
:10360000C6F30720A047F0B2A047E8B2A047C5F331
:103610000720A047C5F30740A047280EA0470B4B43
:103620000B4C984700233868A4461A461946BDE853
:10363000F041604794B00020017A0100942E02000E
:10364000494701002D2000004D2000003D200000D2
:10365000C17501002DE9F041134E144B05460F468C
:1036600030685321984718B91149124B03209847E5
:10367000114B124C9847C5F3064040F08000A0471C
:10368000C5F30720A047E8B2A047F8B2A047380A20
:10369000A0470B4B0B4C984700233068A4461A46B2
:1036A0001946BDE8F041604794B00020017A01005E
:1036B000A02E0200494701002D2000004D200000EF
:1036C0003D200000C17501002DE9F041124E134B61
:1036D00005460F4630685321984718B91049114BD9
:1036E00003209847104B114C9847C5F3064040F013
:1036F0008000A047C5F30720A047E8B2A04738469E
:10370000A0470B4B0B4C984700233068A4461A4641
:103710001946BDE8F041604794B00020017A0100ED
:10372000AC2E0200494701002D2000004D20000072
:103730003D200000C175010070B51A4E1A4B82B0D1
:10374000054653213068984718B91849184B03208B
:103750009847184B184C9847C5F30540A047C5F348
:103760000720A047E8B2A04704210DEB0100134B4E
:10377000134C9847134B984700231A461946306854
:10378000A0479DF806309DF805109DF804209DF88F
:1037900007001B0403EB0123134403EB006002B09A
:1037A00070BD00BF94B00020017A0100B82E020065
:1037B000494701002D2000004D2000007520000029
:1037C000C17501003D20000070B5164E164B82B049
:1037D000054653213068984718B91449144B032003
:1037E0009847144B144C9847C5F30540A047C5F3C0
:1037F0000720A047E8B2A04701A802210F4B104CB8
:103800009847104B984700231A4619463068A0473E
:103810009DF805309DF8040000EB032080B202B053
:1038200070BD00BF94B00020017A0100C42E0200D8
:10383000494701002D2000004D20000075200000A8
:10384000C17501003D20000070B5134E134B82B0CE
:10385000054653213068984718B91149114B032088
:103860009847114B114C9847C5F30540A047C5F345
:103870000720A047E8B2A04701A801210C4B0D4C3E
:1038800098470D4B9847002330681A461946A047C1
:103890009DF8040002B070BD94B00020017A0100D0
:1038A000D02E0200494701002D2000004D200000CD
:1038B00075200000C17501003D20000010B5064CC8
:1038C000064B2288014602F54210984723880433AC
:1038D000C3F30B03238010BD581C0020D535000016
:1038E000024B03481988034B184700BF581C00209F
:1038F000FC2030005536000030B5154D154B2868BA
:1039000083B053219847E8B1134B144C98473020AB
:10391000A0472020A0470020A04701A80121104B6C
:10392000104C9847104B9847002328681A461946B0
:10393000A0479DF80400A0F17C00B0FA80F0400997
:1039400003B030BD09490A4B03209847DCE700BFAC
:1039500094B00020017A01002D2000004D200000CD
:1039600075200000C17501003D200000DC2E020022
:103970004947010070B54F4B4F4C504D984744207C
:10398000A0470020A0474FF496704D4B984740F257
:10399000E934A84720B9A847013CFBD1204670BDB7
:1039A0004FF44020474C484EA04748494848B0474C
:1039B000484B4948984740F6FF73984262D0474DBC
:1039C0004748484C0021A84700214748A8474FF4E2
:1039D00068714648A04758214548A04700214548FE
:1039E000A04730214448A04740F20D214348A0475A
:1039F00020214348A04700214248A04703214248D4
:103A0000A04700214148A84701214148A8474FF459
:103A100048714048A0474FF4F0713F48A04700214B
:103A20003E48A84701213E48A8474FF496613D48CB
:103A3000A04702213C48A84701213C48A8470F2144
:103A40003B48A8474FF400413A48A0474FF4004193
:103A50002348A047FA213848A04700213748A84703
:103A600037494FF44010B04736493748B047002136
:103A70003648B04702213648A84705211A48A847CA
:103A8000012070BD3348154DA0470121044632483E
:103A9000A84700211048A84700213048A847002126
:103AA0002F48A84700212C48A84721462948B0475D
:103AB00086E700BF0920000075350000F9380000D6
:103AC0000120000039370000D5350000008793033E
:103AD0000C203000C9370000F8203000C936000043
:103AE0009C20300055360000702030002C20300023
:103AF00030203000382030003C20300040203000A2
:103B0000442030004C203000502030006420300031
:103B10006C20300034203000482030006820300015
:103B200060203000182130000421300008213000CE
:103B30001421300098203000D0203000D4203000F4
:103B4000FF000002070000260400300008003000DB
:103B5000542030006291300020203000FC203000E2
:103B6000002130002DE9F047174C184E258881467A
:103B70008A4605F542106FF0D10117469846B047C6
:103B800025880435C5F30B0505F5421049EA0A41BD
:103B90002580B04725880435C5F30B0547EA084161
:103BA00005F542102580B047238808990433C3F3F4
:103BB0000B0303F542102380B04723880433C3F37B
:103BC0000B032380BDE8F087581C0020D53500008A
:103BD0002DE9F04F81B0474C0A9D0746284688469C
:103BE00091469A46A0471FFA80FBBBF1000F02D115
:103BF00001B0BDE8F08F4FEA9B04601C04213E4BEE
:103C000098470646002C72D0601E80B206EB8000FA
:103C10002A46311F937892F803E092F800C01B0403
:103C200043EA0E6392F801E043EA0C0343EA0E23F1
:103C300041F8043F814202F10402EBD1A3001BF0E2
:103C4000030B13D09B4456F824001FFA8BFB4FEA5A
:103C5000840E0021EA5C01339BB28A405B4540EA56
:103C6000020001F10801F5D146F80E00DFF894B02A
:103C7000224DBBF800006FF0F30100F54210A84799
:103C8000BBF800300433C3F30B0347EA084103F5E4
:103C90004210ABF80030A847BBF800300433C3F340
:103CA0000B0303F5421049EA0A41ABF80030A8477C
:103CB000BBF800000430C0F30B00ABF80000002795
:103CC000BBB200F5421056F82310A847BBF800001D
:103CD00001370430BBB2C0F30B009C42ABF80000CC
:103CE000EED2074B304601B0BDE8F04F18472346EF
:103CF000A5E700BFC1C9010005BB0100D535000023
:103D000039BC0100581C0020F8B5114C114D238816
:103D100007460E4603F542106FF0C001A8472388FE
:103D20000433C3F30B0303F5421039462380A8473D
:103D300023880433C3F30B0303F542103146238079
:103D4000A84723880433C3F30B032380F8BD00BFC7
:103D5000581C0020D53500002DE9F041164C174DB8
:103D6000238880460F4603F542106FF0C4011646C3
:103D7000A84723880433C3F30B0303F542104146DD
:103D80002380A84723880433C3F30B0303F54210B1
:103D900039462380A84723880433C3F30B0303F574
:103DA000421031462380A84723880433C3F30B0312
:103DB0002380BDE8F08100BF581C0020D5350000ED
:103DC0002DE9F047174C184E25888246884605F5A0
:103DD00042106FF0BC011F469146B047258804355C
:103DE000C5F30B0505F5421051462580B0472588DF
:103DF0000435C5F30B0548EA094105F54210258055
:103E0000B04722880432C2F30B02394602F5421051
:103E10002280B04723880433C3F30B032380BDE81B
:103E2000F08700BF581C0020D535000038B50B4C7A
:103E30000B4D20886FF0B50100F54210A84723888C
:103E40000433C3F30B0303F5421000212380A8477A
:103E500023880433C3F30B03238038BD581C002090
:103E6000D535000070B50C4C0C4D238806466FF01C
:103E7000EA0103F54210A84723880433C3F30B0378
:103E800003F5421031462380A84723880433C3F347
:103E90000B03238070BD00BF581C0020D5350000E7
:103EA0002DE9F04FDFF8B8A0214FDFF8B88083B0DC
:103EB00003E02048D047834536D01F48D04740F61E
:103EC000FF7398428346F4D11C4CDFF89C901C4E43
:103ED00001E0444509D02046B84731460546024630
:103EE00001A80134C847002DF3D1164B1648174CD2
:103EF0009847012105461648A04700210E48A047D3
:103F000000210C48A04700211248A047002110487A
:103F1000A04729460C48104B9847FA200F4B98476A
:103F20000448D0478345C8D103B0BDE8F08F00BF37
:103F300049380000FC203000F820300000983000A4
:103F4000F02E02003937000062913000C9360000BF
:103F50002020300000213000D53500000120000075
:103F6000C93700008098300079C4010010B50246BE
:103F700004460549054B03209847054B4FF0006266
:103F80009A61204610BD00BF282F0200494701005A
:103F90000080004170B50546054CC0F30740A047BE
:103FA000C5F30720A047E8B22346BDE87040184794
:103FB000D91401002DE9F8431C4D81468846A847D5
:103FC00002281FD01A4E1B4C4FF000677761AD20BE
:103FD000A047194B4846984798F80000A04798F822
:103FE0000100A047B7610446A847022816D0002C5C
:103FF00002DB2046BDE8F8832046104B9847204658
:10400000BDE8F8830E4A0F4B1068532198470028EB
:10401000D8D10D490D4B03209847D3E7084B0C4DE1
:10402000186800231A461946A847E0E731870100BF
:1040300000800041D9140100953F00006D3F000051
:1040400094B00020017A01003C2F02004947010092
:10405000C1750100F8B5164DA847022814D0154EB9
:10406000154B4FF00067776104209847B76104460D
:10407000A847022814D0002C01DB2046F8BD2046BA
:104080000E4B98472046F8BD0D4A0E4B1068532141
:1040900098470028E3D10C490C4B03209847DEE7F2
:1040A000074B0B4D186800231A461946A847E2E74C
:1040B0003187010000800041D91401006D3F0000EC
:1040C00094B00020017A0100502F020049470100FE
:1040D000C17501002DE9F04100293BD0B0F5001F6A
:1040E00038D21E4E0C460546B04702281ED01C4F43
:1040F0001C4B4FF00068C7F81480032098471A4BF8
:10410000284698472046194B9847C7F81880044618
:10411000B047022816D0002C02DB2046BDE8F08113
:104120002046134B98472046BDE8F081114A124BB8
:104130001068532198470028D9D11049104B03200B
:104140009847D4E70B4B0F4D186800231A461946C1
:10415000A847E0E74FF0FF34DFE700BF31870100F9
:1041600000800041D9140100953F00002515010091
:104170006D3F000094B00020017A0100602F020022
:1041800049470100C17501002DE9F041002943D0E4
:104190002C4B1446013A9A423ED8B0F5001F074610
:1041A0003AD2DFF8CC800D46C047022821D0264AFB
:1041B000264B4FF00061516103209847061E24DB17
:1041C0003846234B9847061E29DB224F2846B8471E
:1041D000013C064605F10105F8D1002824DB1A4B05
:1041E0004FF000629A61C047022822D03046BDE8F5
:1041F000F081194A194B1068532198470028D6D1ED
:104200001749184B03209847D1E7174B98470028C8
:10421000D6D03046BDE8F0814FF0FF36E6E7124BCE
:1042200098470028E2D1D0E70F4B98470028DDD10E
:10423000D5E7094B0D4C186800231A461946A047CC
:10424000D4E700BFFEFF1F0000800041D914010029
:10425000953F00002515010094B00020017A01006F
:10426000702F0200494701006D3F0000C175010039
:104270003187010070B582B00023184C8DF80730EB
:10428000A04702281DD0164D164B4FF000666E61F8
:1042900005209847144B0DF107009847AE61A047E1
:1042A000022803D09DF8070002B070BD0F4B104CE0
:1042B000186800231A461946A0479DF8070002B067
:1042C00070BD0A4A0B4B1068532198470028DAD179
:1042D00009490A4B03209847D5E700BF3187010001
:1042E00000800041D91401002515010094B0002080
:1042F000C1750100017A01007C2F020049470100CD
:104300002DE9F04100283CD01F4E0446B04702285A
:104310001AD01E4F1E4D4FF00068C7F81480AD2014
:10432000A8472078A8476078A847C7F818800546AE
:10433000B047022814D0002D1BDB164CA047C30742
:10434000FCD42846BDE8F081134A144B1068532171
:1043500098470028DDD11249124B03209847D8E72F
:104360000D4B114C186800231A461946A047002D22
:10437000E3DA28460D4B98470028DED02846BDE8F2
:10438000F0814FF0FF35DCE731870100008000410C
:10439000D91401007542000094B00020017A010098
:1043A0008C2F020049470100C17501006D3F0000DC
:1043B000F8B5164DA847022814D0154E154B4FF0EE
:1043C0000067776150209847B7610446A8470228E4
:1043D00014D0002C01DB2046F8BD20460E4B984738
:1043E0002046F8BD0D4A0E4B10685321984700280F
:1043F000E3D10C490C4B03209847DEE7074B0B4DEC
:10440000186800231A461946A847E2E731870100D9
:1044100000800041D91401006D3F000094B00020DD
:10442000017A01009C2F020049470100C17501007B
:104430002DE9F0411A4B1B4D80469847A8470228AA
:1044400019D0194E194C4FF0006777610120A04731
:1044500008F0BC00A047B7610446A847022816D060
:10446000002C02DB2046BDE8F0812046104B984727
:104470002046BDE8F0810F4A0F4B10685321984742
:104480000028DED10D490E4B03209847D9E7094B90
:104490000C4D186800231A461946A847E0E700BFEC
:1044A000B14300003187010000800041D9140100B0
:1044B0006D3F000094B00020017A0100B02F02008F
:1044C00049470100C1750100F8B50020174B184D90
:1044D0009847A847022814D0164E174B4FF0006794
:1044E000776106209847B7610446A847022814D090
:1044F000002C01DB2046F8BD2046104B9847204693
:10450000F8BD0F4A0F4B1068532198470028E3D19C
:104510000D490E4B03209847DEE7094B0C4D1868F8
:1045200000231A461946A847E2E700BF31440000BD
:104530003187010000800041D91401006D3F000067
:1045400094B00020017A0100C02F02004947010009
:10455000C1750100224B98422DE9F04703D9002490
:104560002046BDE8F0871F4B1F4E0D460446984776
:10457000B047022819D01D4FDFF894904FF0006823
:10458000C7F814800220C847194B20469847284690
:10459000C847C7F818800446B047022811D0002C3D
:1045A00017DB144BBDE8F0471847134A134B10684C
:1045B000532198470028DED11149124B0320984718
:1045C000D9E70D4B104D186800231A461946A84725
:1045D000E5E720460D4B98470028C1D1E1E700BF31
:1045E000FEFF1F00C9440000318701000080004128
:1045F000953F00005540000094B00020017A010072
:10460000D02F020049470100C17501006D3F000035
:10461000D914010051B3174B70B5541E9C4222D8D7
:10462000B0F5001F1FD20D460446134B164698479F
:1046300020462946114B9847022E05F102040ADD57
:10464000F21E22F0010204320D4E154420460234BF
:10465000B047AC42FAD10B4A0B4B4FF0006191616D
:10466000BDE8704018474FF0FF3070BD4FF0FF308D
:10467000704700BFFEFF1F00C9440000B53F0000A7
:104680000143000000800041554000002DE9F04149
:104690000E4D0F4B0F4E104C98474FF000675321B3
:1046A00028680E4B98470E4B77616020984700238F
:1046B000B76128680B4D1A461946A847A047C3079B
:1046C000FCD4094BBDE8F041184700BF94B000206E
:1046D000C94400000080004175420000017A0100D9
:1046E000D9140100C175010055400000B0F5001F4C
:1046F00070B530D2204B214E05469847B04702286E
:104700001DD01F4A1F4B4FF0006151612020984778
:10471000041E1ADB1C4B284698470446B047022863
:1047200022D0174B4FF00062002C9A6116DB174D18
:10473000A847C307FCD4164B9847204670BD154ABE
:10474000154B106853219847DBE7144B9847002816
:10475000E0D0204670BD4FF0FF34EEE720460F4B0F
:1047600098470028E9D1E2E70A4B0D4D186800236D
:104770001A461946A847D4E7C9440000318701000A
:1047800000800041D9140100953F000075420000EF
:104790005540000094B00020017A01006D3F0000F8
:1047A000C1750100400007EE900ADFED0D6A0D486B
:1047B0000D4BB8EE677A10B5C6EE877AFCEEE77A55
:1047C00017EE901A01399847041E01DB204610BDF0
:1047D00022460649064B03209847204610BD00BFDD
:1047E000001B374B84B10020398B0000E02F020002
:1047F00049470100024A136801331360704700BF44
:1048000008B20020704700BF014B00221A607047B9
:1048100008B20020014B1868704700BF08B20020A2
:1048200008B502460B46064C06490420A0474FF047
:10483000800383F31188BFF36F8FBFF34F8FFEE7C1
:10484000494701001C300200024A1368013313601B
:10485000704700BF5C1C002010B5074B044698470A
:10486000022804D0A0B2054BBDE8104018472046EE
:10487000034BBDE810401847318701008D870000C9
:1048800029830100F0B5032283B000210120904C60
:10489000904DA0472860002800F0BC8000231A46F5
:1048A00019468D4EB0472A688C4D00231946104694
:1048B0001A46B047032200210120A0470246286083
:1048C00020B100231A461946B0472A68844D0023B8
:1048D000194610461A46B047032200210120A0477E
:1048E0000246286020B100231A461946B0472A68BC
:1048F0007C4F7D4C00231946104603251A46B047CD
:1049000000238DE8A0004FF4007278497848A04752
:104910003B68002B00F08A80764E77497748002369
:104920008DE860004FF40072A0473368002B74D00C
:10493000734E7449744800238DE860004FF4A06200
:10494000A0473368002B7AD0704E7149714800231C
:104950008DE860004FF48072A0473368002B00F0B0
:1049600089806D4E6D496E4800238DE860004FF4DC
:104970008072A0473368002B73D06A4E6A496B4837
:1049800000238DE860004FF40072A0473368002BCD
:1049900079D0674E0196042300934FF400720023F0
:1049A00064496548A0473368002B51D0634E644981
:1049B000644800238DE860004FF44072A0473368DC
:1049C000002B7BD0604E6149614800238DE8600078
:1049D0004FF48072A0473368002B66D05D4E5E496D
:1049E0005E4800238DE860004FF48072A047336872
:1049F000002B51D05A4B5B4A1A61191D01225A4CA7
:104A00005A48DA601A75A0475848594B03B0BDE8B8
:104A1000F04018470246304E46E74FF0800383F3DC
:104A20001188BFF36F8FBFF34F8FFEE74FF0800306
:104A300083F31188BFF36F8FBFF34F8FFEE74FF003
:104A4000800383F31188BFF36F8FBFF34F8FFEE7AF
:104A50004FF0800383F31188BFF36F8FBFF34F8F45
:104A6000FEE74FF0800383F31188BFF36F8FBFF32E
:104A70004F8FFEE74FF0800383F31188BFF36F8FF2
:104A8000BFF34F8FFEE74FF0800383F31188BFF32E
:104A90006F8FBFF34F8FFEE74FF0800383F31188D2
:104AA000BFF36F8FBFF34F8FFEE74FF0800383F3A9
:104AB0001188BFF36F8FBFF34F8FFEE74FF0800376
:104AC00083F31188BFF36F8FBFF34F8FFEE700BFF3
:104AD000697501007CB00020C175010094B0002010
:104AE0009CB0002088B00020A57D0100703002003D
:104AF000716F00008CB0002084300200196C01003E
:104B000080B000209C30020071290100A0B000207C
:104B1000B0300200FDE40000A4B00020BC30020070
:104B20000D960000A8B00020D030020079260100C8
:104B300084B00020E4300200B11D000090B00020DD
:104B4000F0300200A17A000098B000200431020089
:104B50009591010078B000201031020075DD000051
:104B60005C1C0020F5470000918D000068B100201A
:104B7000558D00000000000070B5194D194B1A4EFC
:104B800004463D21286898472178184818220023B8
:104B9000B047174B1420984700231A466060194607
:104BA0002868144DA847D4ED017A134B134DFCEE41
:104BB000E77AF8EE677A17EE900A98470022104BD2
:104BC000A84705A3D3E900230E4DA8470E4B9847ED
:104BD000A06000EE100A70BD0000000000FEAF40B3
:104BE0009CB00020017A0100018300002CB100205C
:104BF00071D10000C1750100ADB0010055B10100D7
:104C000000005940A9B3010045B7010070B5134B2E
:104C1000134D144E0446984702280CBF3D21002135
:104C20002868114B98472178104818220023B04774
:104C30000F4B14209847002360601A4628680D4DDA
:104C40001946A84794ED017AD4ED097A94ED0A0A41
:104C5000A7EE270A84ED020A70BD00BF318701006C
:104C60009CB0002001830000017A01002CB10020DB
:104C700071D10000C175010070B5364E364B82B05F
:104C800004463E213068984700283CD0334B984773
:104C90002178334B70209847002839DB314D324B57
:104CA00002209847314B294603224020984700288C
:104CB0002F4B3FDB984700231A46194630682D4E8C
:104CC000B0472A786B789FED2C6ADFED2C6A03EBF6
:104CD000022307EE903AB8EEE77AFCEEC77A84ED4D
:104CE000017ACDED017ABDF8043007EE903AF8EE86
:104CF000677AAB78237777EEC67A87EEA60A84EDDB
:104D0000020A02B070BD1E491E4B03209847BDE742
:104D1000174B98471C4A13680133022B13DC1360AE
:104D200000233068134C1A461946A0479FED170A16
:104D300002B070BD9847164B0A209847124A136874
:104D40000133022BEBDD00206421124B82E80300CB
:104D50009847E5E77CB00020017A0100456E01002C
:104D6000E5CF000030B20020010000201DCF000080
:104D7000896E0100C1750100000000470000484431
:104D80002031020049470100741C0020000000008F
:104D900059480000F5D0000070B5364C6168002914
:104DA00059DD01396160B4F89A31B4F89801324D97
:104DB00083422CBF00235A1C04EB8303D5F8886080
:104DC0009E6034BF92B20122A4F89A2100284BD0F1
:104DD0002A4BDFED2B7A03EB8002B3EC017A93428E
:104DE00077EE877AF9D107EE100AB8EE477A0029F4
:104DF000C7EE876AC4ED676AC5ED236A30DD013905
:104E00006160B4F83633B4F83413D5F8B4008B428B
:104E10002CBF00235A1C04EB830334BF92B201223F
:104E2000C3F8A401A4F8362309B3164BDFED147AB6
:104E300003EB8102B3EC017A9A4277EE877AF9D1DB
:104E400007EE101AB8EE477AC7EE876AC4EDCE6A4D
:104E5000C5ED2E6A70BD0C480C4B98476168A2E7FF
:104E60000B480A4B9847CCE7DFED057ABBE7DFED4F
:104E7000047AE5E7741C0020140000207C1C00204C
:104E800000000000181E002094000020794C000053
:104E9000C0000020000000002DE9F843384F394BD6
:104EA000DFF81C81384D394E04462DED028B3D2133
:104EB000386898472178364818220023C047354B78
:104EC0001420984700231A46194660613868324F0B
:104ED000B847D4ED057A9FED317AD4ED016A94EDAF
:104EE000028AE0682E4F67EE877AB7EE007A67EEA7
:104EF000A66A77EE677AC6EEA78AA84780468946F3
:104F0000D4ED047AB1EE487AC7EE276A16EE900A1D
:104F1000A847244B984702460B4640464946B847A7
:104F2000B04707EE100AC8EE877A1F4F17EE900AB7
:104F3000A8471E4B98478046894618EE100AA84796
:104F400042464B46B847B047A847194F0AA3D3E992
:104F50000023B847B0470646A661E069A84700228B
:104F6000144B154DA847154B984784F82000BDEC0D
:104F7000028B3046BDE8F88366666666661271404D
:104F80009CB00020017A0100ADB0010045B70100DE
:104F90002CB1002071D10000C175010000008039E2
:104FA00055B10100D1A20100A9B30100C1A30100C4
:104FB000EDAD01000000E03FF1AD010005B70100DB
:104FC00001830000F8B541F214004F4B4F4E41F2FF
:104FD000160100221E255A521D520A215020322449
:104FE000A3F89A21A3F83623A3F8D224A3F86E26B7
:104FF000A3F80A28A3F8A629A3F8422BA3F8DE2CCD
:10500000A3F87A2E6427A6F8BA20414AA3F8D01450
:10501000A3F80818A3F8A419A3F8785EA3F86C768F
:10502000A3F89801A3F83403A3F8404BA3F8DC4C91
:10503000A6F8B800A6F1D80306F1B80143F8042B8E
:105040008B42FBD1334D34493448354C354FA8475A
:105050003149C4F800013448A8473449C4F82C0148
:105060003348A8473149C4F8FC003248A8473249C0
:10507000C4F828013148A847314B324918603248FA
:10508000A847324BE065984731493248A847324B30
:10509000C4F84C01984731493148A84707EE900AB7
:1050A000FDEEE77A00212F48C4ED4F7AA8474FF074
:1050B0007E51C6F8D8002C48A8474FF07E51C4F85E
:1050C00030012A48A8474FF07E5120642848A8475D
:1050D0000021C4F838012748A8474FF07E51A0644A
:1050E0002348A8472449C4F834012448A84741F676
:1050F000641160642248B84740F2FF11C4F84401CB
:105100002048B8476065F8BD741C00206C2D002055
:10511000000080BF392F0100000040C13031020083
:1051200014000020E92E01003C310200CDCC4C3CA3
:10513000443102004C310200CDCCCC3D5431020050
:1051400014B200200000A0405C3102001D350100B7
:105150000000A84164310200BD34010000C05A457E
:105160006C310200743102007C3102008431020093
:105170008C31020094310200000040409C3102005A
:10518000A4310200AC310200B0F89231DFED137AA5
:1051900010B4B0F89041A3422CBF00235A1C00EB7E
:1051A000830334BF92B201221960A0F8922144B166
:1051B000034600EB8402B3EC017A9A4277EE877AD9
:1051C000F9D107EE104AB8EE477A5DF8044BC7EE06
:1051D000876AC0ED656A16EE900A7047000000000D
:1051E000B0F89221B0F890319FED1E7A9A4228BF14
:1051F000002210B438BF541C00EB820234BFA4B2AA
:105200000124022B1160A0F8924180ED657A22DD25
:10521000D0ED017ABFEE006AF4EE467AF1EE10FAB4
:1052200019D0591E00F10802012306E0F2EC017AC0
:10523000F4EE467AF1EE10FA0DD0A34203F1010329
:1052400007D052ED026A77EEE67A37EE277A80EDE4
:10525000657A8B42EAD180ED667A5DF8044B17EEF1
:10526000100A7047000000001C4BD3ED5F7AB3EECC
:10527000027AF4EEC77AF1EE10FA23D4B3EE0F7A85
:10528000F4EEC77AF1EE10FA08D49FED157AF4EE39
:10529000C77AF1EE10FA17D502207047114AD2ED05
:1052A000387AF5EEC07AF1EE10FAD8BFD3ED6A7A0B
:1052B000B1EE047AF4EEC77AF1EE10FA54BF012091
:1052C00000207047002070479FED077AF4EEC77A00
:1052D000F1EE10FA4CBF03200020704714000020AC
:1052E00000005C426C2D00200000A042054908B57A
:1052F0000122054B81F8E4209847012808BF81F876
:10530000E50008BD6C2D002069520000000000007F
:105310002DE9F0432DED028BA94CAA4DAA4F04F5BF
:10532000CE7085B0B847B5F87A3EB5F8781EA74874
:10533000D4F8A461DFEDA67A994294BF00235A1CE9
:1053400000EB83038CBF92B20122A5F87A2E1E6077
:1053500041B1034600EB8102B3EC017A9A4277EE49
:10536000877AF9D107EE101AB8EE477AC7EE876A46
:10537000FCEEE67AC0ED656ACDED037A9DF80C305F
:10538000C4ED6A6A142B00F21581152384F8AC3140
:10539000904ED6F8E8305A1C0C2BC6F8E82000F0E6
:1053A0006B818D48B84741F2140241F21603A95AA5
:1053B000EB5A8A48D4F878E1DFED857A8B422CBF2E
:1053C00000235A1C41F2160700EB830334BF92B24C
:1053D0000122C3F800E0EA5341B1034600EB810229
:1053E000B3EC017A9A4277EE877AF9D107EE101A78
:1053F000B8EE477A7A4FC7EE876AC0ED656AC4EDAA
:105400005F6AB847D6F8EC30834204D0012800F038
:105410002E81C6F8EC0096ED388AD6ED3F8AB5EEBF
:10542000C08AF1EE10FAD8BF94ED6A8A38EE687A35
:10543000F2EE067AB4EEE77AF1EE10FA07DDF3EE5B
:10544000047AB4EEE78AF1EE10FA00F3DF806548E3
:10545000654F664EB847B5F8423BB5F8401BD4F8E7
:10546000E001DFED5B7A8B422CBF00235A1C06EB78
:10547000830334BF92B20122A5F8422B186041B1D8
:10548000334606EB8102B3EC017A9A4277EE877AD3
:10549000F9D107EE101AB8EE477A5548C7EE876A79
:1054A000C6ED656AC4ED796AB847B5F8DE3CB5F873
:1054B000DC1C504ED4F80402DFED457A8B422CBF41
:1054C00000235A1C06EB830334BF92B20122A5F8D5
:1054D000DE2C186041B1334606EB8102B3EC017A51
:1054E000934277EE877AF9D107EE101AB8EE477A31
:1054F0004148424FC7EE876AC6ED656AC4ED826ACD
:10550000B847B5F80A38B5F808183D4ED4F8E000A9
:10551000DFED2F7A8B422CBF00235A1C06EB83034E
:1055200034BF92B20122A5F80A28186041B133466F
:1055300006EB8102B3EC017A9A4277EE877AF9D1D1
:1055400007EE101AB8EE477A2E48C7EE876AC6ED06
:10555000656AC4ED396AB847B5F8A639B5F8A41933
:105560002948D4F80C61DFED1A7A8B422CBF002356
:105570005A1C00EB830334BF92B20122A5F8A6297E
:105580001E6041B1034600EB8102B3EC017A934205
:1055900077EE877AF9D107EE101AB8EE477AC7EEA0
:1055A000876AC0ED656AC4ED446A05B0BDEC028B44
:1055B000BDE8F083642B88BF642384F8AC31E7E650
:1055C00014000020741C0020794B00005C2900208E
:1055D000000000006C2D002084010020F82A00202B
:1055E00069520000DC010020994E000024260020B2
:1055F00000020020C0270020EC0000200D4C00001D
:10560000EC2200201801002088240020D4ED537AD9
:10561000314FDFF8D88078EEE77AF0EEE77A17EED0
:10562000900AB84728A3D3E90023C04700283FF4D5
:105630000EAF96F8E430002B7FF409AF94F86C318C
:10564000002B3FF404AF012386F8E43018EE900AF3
:10565000B847804618EE100A8946B8471F4ECDE974
:10566000000142464B461E490220B047EFE60023A8
:10567000C6F8F030B847CCE616EE901A194BDFF8B2
:105680006C80A6F1D8009847D6ED307A164BFDEE27
:10569000E77A002217EE900A0028B8BF4042C6F809
:1056A000E82098470AA3D3E90023C04740B1D6F8C1
:1056B000DC30632B3FF775AE0133C6F8DC3070E6A3
:1056C000C6F8DC006DE600BF9A9999999999D93F7F
:1056D000666666666666EE3FADB00100494701004A
:1056E000B4310200E151000089B0010039B6010077
:1056F0002DE9F0476E4D6F4CDFF8F4812DED028BF4
:1057000095ED238A18EE100AA04767A3D3E900237A
:1057100006460F46C04758B1D5ED2E8A18EE900ABE
:10572000A04761A3D3E90023C047002840F08B8045
:10573000614E624F624DC6F8F8706249B1F8D234DA
:10574000B1F8D00483422CBF00235A1C01EB830321
:1057500034BF92B20122C3F84073A1F8D2240028CA
:1057600000F09C80584BDFED597A03EB8002B3ECDC
:10577000017A9A4277EE877AF9D107EE100AB8EEED
:10578000477AB1F86E36B1F86C06514ADFF864E139
:10579000C6F81071C7EE876A834228BF0023DFED89
:1057A0004B7AC2ED006A38BF5A1C0EEB830334BF3C
:1057B00092B20122C6ED3F6AA1F86E261F6040B189
:1057C00073460EEB8002B3EC017A9A4277EE877A49
:1057D000F9D107EE100AB8EE477A16EE900A87EE76
:1057E000878A3C4F8EED658A86ED458AA047002268
:1057F000394BA847B847394AC3B2A2FB03239B08D9
:1058000003EB8303DBB2142B17D8152386F8003182
:1058100018EE100AA0470022314BA847B847C0B283
:10582000142834D964288ABF642386F8180186F8BE
:105830001831BDEC028BBDE8F087642B88BF642370
:1058400086F80031E4E7D5ED847ADFF8ACA01C4D92
:1058500068EEA77A17EE900AA04778EE687A80463D
:1058600017EE900A8946A04700221E4BD0470246F9
:105870000B4640464946A84732463B461A4F0E4E15
:10588000B8471A4B98470746C6F8F80055E715235E
:1058900086F81831BDEC028BBDE8F087DFED0B7A9E
:1058A0006BE700BFAFF300809A9999999999B93F36
:1058B00014000020ADB001006C2D00209A99AF417A
:1058C000F1AD0100741C0020B41F00200000000096
:1058D0004821002005B7010000000440CDCCCCCC0D
:1058E0000000E03F00003540A9B3010045B70100CA
:1058F00075B601005021002055B1010000000000E4
:10590000474BD3ED447A474BB1EE087AF4EEC77AB1
:10591000F1EE10FA2DE9F047434C27D917EE900A23
:10592000984731A3D3E9002306460F463F4DA047D1
:105930002FA3D3E90023A8472FA3D3E90023804650
:10594000894630463946A04732463B46A047384C48
:1059500002460B4640464946A047364B9847364BD1
:10596000C3F82801C3F82C01BDE8F08717EE900AB0
:10597000984723A3D3E9002306460F462B4DDFF8B3
:10598000B0A0A04720A3D3E90023A84720A3D3E9D0
:1059900000238046894630463946A04732463B467A
:1059A000A04702460B4640464946D0471AA3D3E9D2
:1059B00000238046894630463946A04732463B465A
:1059C000A04732463B46A04702460B464046494662
:1059D000A847184B9847184BC3F82801C3F82C0167
:1059E000BDE8F087AFF30080F2D24D621058D93F86
:1059F0005C8FC2F5285C0B40DE718A8EE4F26F3F4B
:105A000066666666666602401904560E2DB2D53F7C
:105A10005EBA490C022BDF3F94F6065F984CA53F17
:105A200014000020ADB0010055B10100F1AD01003E
:105A3000EDAD010045B701006C2D00200000000015
:105A40002DE9F0472DED028B3B4C3C4F3C4B3D4E3E
:105A5000DFF810A13C4D82B098473C4B9847D4EDFD
:105A60004B7A97ED238A38EE678A17EE900A84ED19
:105A7000508AB0472AA3D3E9002380468946D047FD
:105A800042464B46D047CDE90001D7F81001B04758
:105A900002460B46DDE90001A84723A3D3E9002312
:105AA000CDE9000140464946D04702460B46DDE9B4
:105AB0000001A847DFF8B0801DA3D3E90023C04749
:105AC000234B9847234BD7ED397A93ED007A224B3D
:105AD00028EE077AF1EE486AE6EE877A06EE100ABB
