:10000000A8B20120C51C0000C11C0000C11C0000DA
:10001000C11C0000C11C0000C11C00000000000049
:10002000000000000000000000000000A1560100D8
:10003000C11C00000000000031570100955701006D
:10004000C11C0000C11C0000C11C0000C11C00003C
:10005000C11C0000C11C0000C11C0000C11C00002C
:10006000C11C0000C11C0000C11C0000959C0000C8
:10007000C11C0000C11C0000C11C0000C11C00000C
:10008000C11C00006199000069990000C11C0000BA
:10009000C11C0000C11C0000C11C0000C11C0000EC
:1000A000C11C0000C11C0000C11C0000C11C0000DC
:1000B000C11C0000C11C0000C11C0000C11C0000CC
:1000C000C11C0000C11C0000C11C0000C11C0000BC
:1000D000C11C0000C11C0000C11C0000C11C0000AC
:1000E000C11C0000C11C0000000000000000000056
:1000F00000000000599B0000C11C0000C11C000052
:10010000C11C0000C11C0000C11C0000C11C00007B
:10011000C11C0000C11C0000C11C0000C11C00006B
:10012000C11C0000C11C0000C11C0000C11C00005B
:10013000C11C0000C11C0000C11C0000C11C00004B
:10014000C11C0000C11C0000C11C0000C11C00003B
:10015000C11C0000C11C00000000000000000000E5
:10016000000000000000000000000000000000008F
:10017000000000000000000000000000000000007F
:1001800095C300009DC30000A5C30000ADC30000DF
:1001900000000000DDAB0000C11C0000C11C00001D
:1001A000C11C0000C11C0000C11C0000C11C0000DB
:1001B000EDAB0000C11C0000C11C0000C11C000010
:1001C000C11C0000C11C0000C11C0000C11C0000BB
:1001D000C11C0000C11C0000C11C0000C11C0000AB
:1001E000FDAB0000C11C0000C11C000039B20000C2
:1001F000C11C000055B20000C11C000065B2000027
:1002000075B200000000000000000000C11C0000EA
:10021000C11C0000C11C0000C11C0000C11C00006A
:10022000C11C0000C11C0000C11C0000C11C00005A
:10023000C11C0000C11C0000C11C0000C11C00004A
:10024000C11C0000C11C0000C11C0000C11C00003A
:10025000C11C0000C11C0000C11C0000C11C00002A
:100260000000000010B5054C237833B9044B13B1DE
:100270000448AFF300800123237010BD500F00200D
:1002800000000000906802000C4B43B10C480D497F
:1002900010B5AFF300800C48036823B910BD0A48BD
:1002A000036833B97047094B002BF7D0BDE8104005
:1002B0001847064B002BF5D0184700BF0000000080
:1002C00090680200540F00209068020000000000B7
:1002D00010B5194C23787BB96368227B01336360C6
:1002E00092B1236901332361237D8BB1A36901336B
:1002F000A361237F83B910BDA368227B0133A36070
:1003000001236360002AECD1237D2261002BEDD113
:10031000A361237F002BEED0084B9847236A47F256
:100320003052C01A9042E6DD054A4FF000410023EA
:10033000C2F89410237710BD6C0F0020DD68010017
:10034000008000412DE9F04F2DED028B694B6A4C86
:100350006A4D85B098476A4B08EE100A9847694B7A
:100360000646984794F824A0074618EE100ABAF1FA
:10037000000F39D1A847804630468946DFF8B8B12A
:10038000A84700224FF08043D847DFF8B0B10246BB
:100390000B4640464946D847002840F08C8094F8E8
:1003A00025A0BAF1000F41D118EE100AA8478046E7
:1003B00030468946A847544D544B0022A847544D17
:1003C00002460B4640464946A847002840F08C802C
:1003D000F3EE047AB4EEE78AF1EE10FA75DC05B0BC
:1003E000BDEC028BBDE8F08FA847804630468946B9
:1003F000DFF844A1A8470022444BD047DFF810A102
:1004000002460B4640464946D0470028C7D04FF029
:1004100000084049404B84F824800220984794F813
:1004200025A0C4F80480BAF1000FBDD094F826309E
:10043000002BD4D018EE100AA847804630468946D3
:10044000A847314E00224FF0804382468B46B0478A
:10045000324E02460B4640464946B0470028BED0C1
:10046000F3EE057AB4EEE78AF1EE10FAB7D52C4E2A
:10047000B04707EE907A07EE100A77EEC77A9FED45
:10048000297AF0EEE77AF4EEC77AF1EE10FAA6DBFD
:10049000002784F8257084F82670B047A847CDE976
:1004A00000ABCDE9020142464B461F491A4D0220DE
:1004B000A847676093E701221C49174BC4F808A0BE
:1004C000032084F82420984769E71949124AA0605C
:1004D0000123032084F8253084F8263005B0BDECD4
:1004E000028BBDE8F04F1047012312490A4AC4F8B5
:1004F00008A0EEE7C17800006C0F00207D98010095
:100500006178000085740000C19501000000F83F8B
:10051000459E01001C050200013101001D9E0100E5
:10052000917400009A99993E880502000005020026
:100530005C05020040050200BD950100099E010016
:100540002DE9F04F2DED048BB94BBA4C85B098478F
:10055000B94B08EE100A9847B84B08EE900A984736
:1005600007EE900A94F8273037EEC88A88EE279A6B
:1005700053B9B34B1B7823B3002384F8273005B05D
:10058000BDEC048BBDE8F08FAD4D2B78002BF3D183
:1005900094F8392032B1D4ED0B7AF4EEE78AF1EE1B
:1005A00010FA47DA94F84930002BE8D0D4ED0C7AF1
:1005B000B4EEE79AF1EE10FA51DA2B78002BDBD18A
:1005C000DDE7B0EE007AF4EEC77AF1EE10FA08DC5F
:1005D000C4ED0B8A84ED0C9A05B0BDEC048BBDE82C
:1005E000F08FDFF89482C047964B08EE100A9847C8
:1005F00007EE900A944B38EE678A9847B4F9283092
:10060000B0EEC88A05B2002B3BD05A1B052A38DC55
:10061000EB1A0A2B36DD94F82A30002B00F070819B
:1006200001220023227384F82A2023852361D4F831
:100630002C903DE0854A84F8383084F8393084F8CD
:10064000273018EE900A9047814E0B4602468149AA
:100650000320B04794F84930002BAED0A6E7002322
:1006600084F8483084F8493084F82730774A784E47
:1006700019EE100A904702460B4603207649B04710
:100680009BE7258523690A2B10D994F82A306BB192
:10069000B4F92820AB1A0A2B40F3388100202061DE
:1006A0002B466E496A4E0220B0472585D4F82C901F
:1006B000664DDFF8C8A118EE900AA84706464846DE
:1006C0000F46DFF8BC91A84753A3D3E90023C847DE
:1006D00002460B4630463946D047002800F00181DB
:1006E00018EE100AC4ED0B8A84ED0C9AA847DFF8C7
:1006F00094914BA3D3E90023C847002840F0FD8024
:1007000094F82A30002B7FF43AAFE06ADFF878B132
:10071000DFF87081A8470022514BCDE90201D8478C
:100720000B46024639463046C04794F83830002818
:1007300000F0AC80002B00F0FA80F1EE047AF4EEC9
:10074000E78A9FED488ADFED487AD4ED0C8A94F869
:100750004830F1EE10FAD8BFB0EE678A78EEC87A6A
:10076000B4EEE79AF1EE10FA21D5002B00F02A81C1
:1007700094F838304BB194F83930002B00F00481F4
:1007800094F84830002B3FF4FAAE94F84930002B2F
:1007900000F0EA8094F83930002B3FF4F0AE2C4B97
:1007A000324903209847012384F82730E7E663B3F2
:1007B00019EE100AA847804618EE900A8946A84705
:1007C00019A3D3E90023D84702460B4640464946C1
:1007D000D0470028CCD0264B9847636D02461BB10A
:1007E000C31AB3F5FA6F0BD36265206BA847424674
:1007F000CDE900014B46DFF858801E490420C04770
:10080000002384F8483084F8493094F83830002BBD
:10081000B6D0B0E7AFF300809A9999999999B93F0A
:10082000EC51B81E85EBB13F9A9999999999A93FD6
:10083000917400006C0F00200574000085740000A6
:1008400010000020C1780000512900007D980100AF
:1008500001310100D8080200080902000406020064
:100860000000F03F9A99193FCDCC4C3E6808020039
:10087000DD6801008007020061780000459E0100EC
:10088000C1950100099E0100BD950100002B3FF4B8
:1008900054AF00226D4BDDE90201D84702460B46FA
:1008A00030463946D04700283FF447AF684B984759
:1008B000636C02461BB1C31AB3F57A7F0BD3626433
:1008C000E06ADFF89881A8473246CDE900013B464F
:1008D00060490420C047002384F8383084F8393058
:1008E0002BE7C047D4ED0D7A07EE100AB4EE677A15
:1008F000F1EE10FA7FF4F4AE02E7C0476063FFE662
:100900002A465549554B0220984789E62B465449BB
:10091000524D0220A847002318EE909AC4ED0B8A8E
:1009200084ED0C9A237384F82A302361C0E60122F7
:10093000DFF81C8184F8393084F83820C04700F58E
:100940009C500830E063C047236C23B1C31AB3F551
:100950007A7FFFF4F2AE206432463B464149DFF82D
:10096000FC800420C047E8E6394EB047E36C98426B
:1009700050D894F83930002B3FF401AE94F8483049
:10098000002B3FF4FCAD0AE7DFF8C480C047E36BFF
:1009900098427FF6F5AEC047A36D02461BB1C31A5D
:1009A000B3F57A7F0AD3A265E06AA8473246CDE95B
:1009B00000013B46294E2C490320B047012384F80F
:1009C0003930DDE60122DFF8888084F8493084F888
:1009D0004820C04700F59C500830E064C047236DB4
:1009E000024623B1C31AB3F5FA6FFFF40EAF2265C6
:1009F00018EE100AA847804619EE100A8946A84743
:100A00004246CDE900014B46DFF8508017490420EB
:100A1000C047FAE6B047E36D02461BB1C31AB3F50F
:100A20007A7F0FD3E26519EE100AA8470646206BBD
:100A30000F46A8473246CDE900013B46074D0C4919
:100A40000320A847012384F8493092E70000E03FE3
:100A5000DD680100D8060200D8050200013101005E
:100A60005406020098060200D80702002807020078
:100A70001808020038B50E4C94F8603073B90D4B6D
:100A80001B7803B138BD0C4DA8471228FAD9A847E6
:100A900014289CBF012384F86030F3E7074A4FF025
:100AA00000410023C2F8941084F8603038BD00BFC4
:100AB0006C0F002010000020B512010000800041E2
:100AC00010B5064C207710B1054B98472062054BB6
:100AD0004FF00042C3F8942010BD00BF6C0F0020FF
:100AE000DD68010000800041014B187F704700BFA6
:100AF0006C0F00202DE9F041294C237D23B1A3691F
:100B0000072B01D8BDE8F08194F86130CBB9254BB3
:100B1000254D9847254B0646984780463046A847BE
:100B2000064640460F46A847214D224B0022A847C3
:100B3000214D02460B4630463946A84730BBBDE83A
:100B4000F081184B184D9847184B06469847804639
:100B50003046A847064640460F46A847144D174B57
:100B60000022A847164D02460B4630463946A84794
:100B70000028E4D000251349134B84F8615002206B
:100B80009847656084F82750BDE8F081012284F819
:100B900061200E490C4B0320BDE8F041184700BF0F
:100BA0006C0F0020CD7600007D98010039760000A2
:100BB000BD95010000002440099E010000001C407A
:100BC000459E01006809020001310100540902003C
:100BD00010B5184B184C984794F8623007EE900AFD
:100BE000B3EE057AF4EEC77A1BB9F1EE10FA11D420
:100BF00010BDF1EE10FA08DB002284F862200F49E4
:100C00000F4B0220BDE8104018470E4B98470028B4
:100C1000F2D1EDE70B4B98470028E9D10A4A0B497E
:100C20001070012284F86220054B0320BDE81040BB
:100C3000184700BF49DA00006C0F0020A409020029
:100C4000013101001DDA00001000002084090200BB
:100C500070B5104D104CA847D4ED197A07EE100A64
:100C6000B4EE677AF1EE10FA05D1237D13B1A369D2
:100C7000082B07D870BD00220123A2612375A84765
:100C8000606670BD002222750449054B0220BDE854
:100C900070401847397600006C0F0020C40902002C
:100CA00001310100084B002200211A7083F86820EE
:100CB00083F8242083F8252083F8612083F82720F7
:100CC000D9621963596370476C0F00207B4B30B4B5
:100CD000A3FB01237A4C5B09421E84F86A3084F836
:100CE0006900062A00F2CF80DFE812F022003C0003
:100CF000570094007200B2000700724B42F20F726C
:100D000042F21070814288BF11461A6989B2518639
:100D1000136913F0FF03FBD16B496C4A096912692F
:100D20000B675386136913F0FF0FFBD130BC70477C
:100D3000644B1A6900235386136913F0FF03FBD138
:100D40006148624A00691269036742F20F7399426F
:100D500028BF194689B25186136913F0FF0FFBD1E2
:100D600030BC7047574B1A6900235386136913F040
:100D7000FF03FBD15448554A0069126942F21075CD
:100D800042F20F74A94288BF214601675386136956
:100D900013F0FF0FFBD130BC70474A4B42F20F7289
:100DA00042F21070814288BF11461A6989B2518699
:100DB000136913F0FF03FBD14349444A09691269DF
:100DC0000B675386136913F0FF0FFBD130BC7047DC
:100DD0003C4A42F21073994212698DBF42F20F737E
:100DE0008BB2084618465386136913F0FF0FFBD1E8
:100DF000354B364A1B691269186742F20F739942E4
:100E000028BF194689B25186136913F0FF0FFBD131
:100E100030BC70472B4B1A6900235386136913F0BB
:100E2000FF0FFBD142F21073994240D8264A42F29A
:100E30000F738B42126928BF0B4611679BB2234A7E
:100E400012695386136913F0FF0FFBD130BC704752
:100E50001C4B42F20F7242F21070814288BF114661
:100E60001A6989B25186136913F0FF03FBD1164941
:100E7000164A096912690B675386136913F0FF0F4D
:100E8000FBD130BC70470F4B1A690023538613699E
:100E900013F0FF03FBD10C490C4A096912690B6777
:100EA0005386136913F0FF0FFBD130BC7047064B1C
:100EB0001A6942F20F731367C1E700BF1F85EB5138
:100EC0006C0F002040B1002060B1002064B0002011
:100ED000F8B52E4C94F86B30DBB1E56E94F87030B9
:100EE000302D17DD03EB830303EB83039B0007EE39
:100EF000903AF8EEE77A264D94F87100254AFCEE18
:100F0000E77A002317EE901A6B7031259047013D68
:100F1000E566F8BD002D1EDB03EB830303EB8303C3
:100F20001D4A1B4994F871004E781A4F9B0007EE3A
:100F3000903A02EB8502F8EEE77A92ED007A67EEDE
:100F4000877AFCEEE77A17EE901AB847002EDED0CB
:100F50000135E566F8BD03EB830303EB83039B00D8
:100F600007EE903A9FED0D7A094994F87100094A0D
:100F7000F8EEE77A012367EE877A4B70FCEEE77AAA
:100F8000002517EE901A9047E2E700BF6C0F002093
:100F900010000020CD0C000034040200000000000E
:100FA000004B1847D10E000010B500EB8000074C35
:100FB000074B00EB8000820092B2204642F2107193
:100FC00098472046034BBDE81040184740B1002029
:100FD000718200003182000010B500EB8000074CE8
:100FE000074B00EB8000820092B2204642F2107163
:100FF00098472046034BBDE81040184760B10020D9
:10100000718200003182000010B500EB8000074CB7
:10101000074B00EB8000820092B2204642F2107132
:1010200098472046034BBDE81040184764B00020A5
:101030007182000031820000374A431E70B50C46B1
:1010400082F8690082F86A10062B5BD8DFE803F0AB
:10105000451A0430410404000846304B304D314CF1
:101060009847002242F210712F48A8472E48A04707
:10107000002242F210712D48A84723462B48BDE8B4
:1010800070401847002242F21071254E2848254D25
:10109000B0472748A8472046264B9847002242F2EF
:1010A00010712248B0472B462048BDE870401847D1
:1010B0001B4B1F48002242F2107198471C48194BE5
:1010C000984720461B4B984720461B4BBDE8704075
:1010D00018470846114B9847F3E7002242F2107177
:1010E0000F4E13480F4DB0471148A847002242F257
:1010F00010710D48B0470C48A84720460E4BBDE87C
:1011000070401847002242F21071054D0848054C06
:10111000A8470748A047A4E76C0F0020A90F0000CC
:10112000718200003182000060B1002064B00020B4
:1011300040B10020D90F000009100000F0B5134C99
:10114000002583B084F86B00E56640B903461A4673
:10115000606F009303210E4CA04703B0F0BD0D4F0C
:1011600084F871100846012629460B4B84F870203C
:101170007E709847094B646F984731460246009548
:1011800020462B46024CA04703B0F0BD6C0F002058
:10119000397501001000002039100000DD680100E1
:1011A000F0B5894C257883B075B9D4F88030002B20
:1011B00037D194F868202AB10023A3679A4201D05E
:1011C00084F8683003B0F0BDA36F0BBB94F86820BF
:1011D0009542F7D07D4E0023082DA360636000F098
:1011E0008480012D00F0A180042D00F0A280052D47
:1011F00000F0A480022D00F0A580102D00F0898061
:101200002B4673490220B04794F868202378D5E72D
:10121000A268934241D394F86830AB42D2D023788D
:10122000CEE762689342C4D294F87E100091022007
:101230006849664E684FB047684BC4F880504FF01D
:101240000042C3F89420B8470F281BD0B847122893
:1012500018D0B847102815D094F87E0090B1122805
:1012600000F2AE800E2800F0AB805D4B9847002264
:10127000114610465B4B984794F87D1094F87C001B
:10128000594B984794F868202578AA429AD0002DA7
:1012900092D0A36F002BC2D19DE754494B4E022040
:1012A000B04794F8691094F86A204B4B84F87C108E
:1012B00084F87D209847257884F87E00082D4ED04C
:1012C000012D53D0042D1DD0052D5DD0022D62D0EF
:1012D000102D67D0122D6CD0142D4ED02A464449C3
:1012E0000220B0470023A367CCE7052341491A46F3
:1012F0000425A3670220C4F88050B04794F8682002
:1013000023785BE71420364B98473B490220B047CF
:10131000E8E7012339491A460220A367C4F8803060
:10132000B04794F86820237848E705231A463449E3
:10133000F2E71E231A4605253249DAE72A463249E2
:10134000A567D7E705231A4628463049A367032532
:10135000C4F88050B04794F8682023782EE7152011
:101360001F4B98472A490220B047BBE713201C4B6C
:10137000984728490220B047B4E72846184B9847B9
:1013800025490220B047ADE71320154B9847234964
:101390000220B047A6E71620114B9847284620495F
:1013A000B0479FE717200E4B98471E490220B047D1
:1013B00098E717200A4B98471B490220B04791E74E
:1013C0001220074B984752E76C0F002001310100B3
:1013D000640D0200000C0200B51201000080004103
:1013E000C11201003D11000039100000E80902009F
:1013F000C00B0200440C0200640A0200380D020017
:10140000740C0200A40C0200D00C0200080D0200B3
:10141000100A0200380A0200780B02008C0A02004F
:10142000C40A0200F00A02002C0B02002DE9F04F62
:10143000394FDFF81C91394CDFF818B1384E394D6F
:10144000DFF814A185B0B8470DF11008364B48F805
:10145000040D012200934FF47A7100233348C847EA
:10146000334BC4F884000122142100933148002337
:10147000C847D4F884906067B8470023024601212A
:1014800048460093DFF8D490C847DFF8D4904FF473
:101490007A6120E094F8613094F8251094F82420C3
:1014A0009B0003EB410394F86210134494F8272047
:1014B00003EBC10303EB02132370B847D4F8883061
:1014C0001BB1C31AB3F57A7F03D31B4BC4F8880052
:1014D0009847C84715214046D847184B9847B0470A
:1014E00008B12B7893B1164B984708B12B7883B18C
:1014F000B04740B9D0472B78002BCBD094F862305E
:10150000DB002370D9E70F4B9847F3E70E4B984762
:10151000E9E70E4B9847EBE7DD6801006C0F002010
:10152000FD78000010000020D1020000A80D02008C
:10153000A10F0000BC0D0200750A0000510C000054
:10154000397500004105000045030000F50A000060
:10155000E5740100056B0100D10B00003975010035
:10156000A1110000094B83F8720000B9704770B4F4
:10157000074D084C83F87110012683F87020084647
:101580006E702346002170BC184700BF6C0F00200E
:101590001000002039100000034A044B4FF00041B6
:1015A000C2F89410187070470080004110000020AD
:1015B000014B1878704700BF6C0F0020014B18706A
:1015C000704700BF6C0F0020004B18479D3D000086
:1015D00070B5064D064C4FF400166E613220A047E0
:1015E000AE6123466420BDE870401847008000418A
:1015F0009D3D0000024B4FF400225A61704700BF2E
:1016000000800041024B4FF400229A61704700BFF6
:101610000080004130B587B006AB002503F8110DFE
:10162000012403A9034A04480393049505949047B1
:1016300007B030BD498300001CB10020F0B58BB06D
:10164000002308290393029314D80AAD0A465521B2
:1016500005F8211D02AE044607A904960127064895
:10166000064E05940692089307950997B04704A97A
:101670000148B0470BB0F0BD1CB100204983000009
:1016800010B5034B9847034BBDE81040184700BF07
:10169000F125000061880100F8B5094C07466FF09C
:1016A000B9000E461546A0473846A0473046A04729
:1016B0002846A047034B9847034B98470120F8BDA5
:1016C0002D2E0000512E0000E533000008B56FF00C
:1016D000B600074B9847074B9847074B9847074B6F
:1016E00007489847A0F10200B0FA80F0400908BD11
:1016F0002D2E0000512E0000E5330000B92D000012
:10170000F025300008B5074B9847074B9847074B23
:101710009847074B07489847A0F10300B0FA80F0BC
:10172000400908BD71330000512E0000E533000070
:10173000B92D0000F0253000830709D10B469B0628
:1017400006D1930710B405D000205DF8044B704714
:1017500000207047014B5DF8044B184799160000B4
:101760002DE9F84F6FF0E400DFF82091DFF820A1B9
:10177000DFF820B1374D384E384FDFF81C81C847AD
:101780004FF47F20C847FF20C8474FF48050C84718
:101790001420D047D847324B98474FF47F2419E0A4
:1017A0002968B0476968201DB047A96804F108009E
:1017B000B047E96804F10C00B047296904F1100052
:1017C000B047696904F114001834B047444505F185
:1017D000180503D06B69BB422046E1D0214C1F4B5A
:1017E000D4F8AC269A4218D0D4F8B0161E48B047A8
:1017F0006FF0B800C8471D48C8474FF47F20C8475E
:101800004FF48050C8471420D047D847144B98470E
:101810001420D0470120BDE8F88FD4F8941614485E
:10182000B047D4F898161348B047D4F89C1612481D
:10183000B047D4F8A0161148B047D4F8A416104801
:10184000B047D4F8A8160F48B047D4F8AC160E48E5
:10185000B047C9E700100020452B0000CAF00F5325
:10186000E5330000FC0F0020FCFF0F00001080009B
:10187000D0FF0F00D4FF0F00D8FF0F00DCFF0F00D8
:10188000E0FF0F00E4FF0F00E8FF0F002D2E000027
:10189000C9150000512E000090F60F0030B408B1B9
:1018A0000138C0B20F4B104D002204E00132462A2D
:1018B00003F1180313D01C68A042F7D15C69AC4255
:1018C000F4D10A4B02EB420203EBC20201209568FD
:1018D000D46813698B600D604C6030BC7047002089
:1018E00030BC704700100020CAF00F53FC0F0020DE
:1018F0002DE9F047504B82B09847002862D04F4BFB
:1019000098470446002855D04D4F4E4B384602228A
:1019100020F8042B00214FF4D26298474FF48052F4
:1019200049494A4B4FF47F2098470446002877D016
:10193000474EDFF85081DFF850913C1D4FF47F2572
:101940004FF0000A03E04D4504F1180443D0284647
:10195000B0472060281DB047606005F10800B0471F
:10196000A06005F10C00B047E06005F11000B04741
:10197000206105F11400B0474045606105F118058C
:1019800029D12368002BDEDAB7F8B406216900EB11
:10199000800207EB82020130C2F8C836636882F821
:1019A000C4A6C2F8C0A6A7F8B406C2F8BC16C2F80E
:1019B000B836C8E72749284B04209847204602B08C
:1019C000BDE8F08704462549234B0420984720466C
:1019D00002B0BDE8F0872248B047C7F89406214816
:1019E000B047C7F898062048B047C7F89C061F487C
:1019F000B047C7F8A0061E48B047C7F8A4061D4860
:101A0000B047C7F8A8061C48B047C7F8AC061B4843
:101A1000B0470124C7F8B006204602B0BDE8F08701
:101A20004FF48053009316490B4D03F500034FF418
:101A30007F220420A847C1E7CD160000051700004B
:101A4000FC0F0020D9AA01000010800099160000A8
:101A5000A92C0000E80D020001310100D00D0200A8
:101A6000D0FF0F00D4FF0F00D8FF0F00DCFF0F00E6
:101A7000E0FF0F00E4FF0F00E8FF0F00FCFF0F0086
:101A8000080E0200CAF00F5390F60F00F0B4094C94
:101A9000094ED4F8AC7604F2946405460FCC0FC519
:101AA00094E8070085E80700B81BB0FA80F0400909
:101AB000F0BC7047FC0F0020CAF00F5370B405460D
:101AC0000FCD054C054E0FC495E80700334684E85A
:101AD000070070BC184700BF901600206117000077
:101AE00010B50A4B0A48984700210A4B0A48984704
:101AF0000A4B044606489847844200D810BD214648
:101B00000348074BBDE81040184700BF157D000093
:101B1000CCB00020A5180100580E0200699C0000FE
:101B2000399C00000146014B01481847397E0000EE
:101B3000CCB000202DE9F043114C124B89B006A91E
:101B4000204698472046104B9DF81A409DF81950A2
:101B50009DF818609DF81D709DF81C80BDF81E90C2
:101B6000984722460490CDF80C908DE8C0012B4692
:101B70000649074C0220A04709B0BDE8F08300BF2A
:101B8000CCB00020397E0000699C0000600E02008D
:101B90000131010030B51A491A4D1B4C83B0A847DA
:101BA000A047C0B218288CBF00238DF80600144946
:101BB00088BF8DF806300020A847A047C0B23B2858
:101BC0008CBF00238DF805000D4988BF8DF80530C6
:101BD0000020A847A047C0B23B288ABF00238DF849
:101BE00004008DF8043001A9084B09489847094BB7
:101BF00007489847084B01460848984703B030BD4E
:101C00006830020085C20100CDA20100417D0000C4
:101C1000CCB00020699C000079170100580E02002A
:101C200030B51F491F4D204C83B0A847A047C0B214
:101C30000C288CBF01238DF80500194988BF8DF849
:101C400005300020A847A047C0B21F2894BF8DF8D8
:101C500004000123124988BF8DF804300020A847F2
:101C6000A04780B2632898BF00F5FA6040F2D973AC
:101C700098BF80B2984298BF40F2E573ADF8060075
:101C800001A998BFADF806300848094B9847094BA1
:101C900006489847084B01460848984703B030BDAE
:101CA000900E020085C20100CDA20100CCB0002040
:101CB000C17D0000699C000079170100580E0200E8
:101CC000FEE700BF1B491C4A914208B50ED01B48D5
:101CD00082420BD2D343034423F00303043313445F
:101CE00051F8040B42F8040B9A42F9D1144A1549F1
:101CF0008A420AD2D3430B4423F003030433134430
:101D0000002142F8041B9A42FBD10F4A0F4B22F0EC
:101D10007F029A60D3F8882042F47002C3F88820CA
:101D2000BFF34F8FBFF36F8F094B9847094B98470D
:101D3000FEE700BF9068020000000020500F002066
:101D4000500F0020A4B200200000000000ED00E0D1
:101D500051A3010075D00000F0B4674B6748684D8F
:101D6000684F694E4FF0404208245C6098629A6266
:101D700093F8431001F0FE0141F0010183F8431094
:101D800093F8311001F00F0141F0100183F8311088
:101D90004FF48071C3F88410C3F8A850C3F8A8208A
:101DA00093F8C81001F0FE0141F0010183F8C8105A
:101DB00093F8B41001F0F00141F0010183F8B41080
:101DC000102159609F629A6293F8441001F0FE015D
:101DD00041F0010183F8441093F8321001F0F00152
:101DE00041F0010183F83210402159609E629A62ED
:101DF00093F8461001F0FE0141F0010183F846100E
:101E000093F8331001F0F00141F0010183F8331031
:101E1000803D802159609D629A6293F8471001F0DD
:101E2000FE0141F0010183F8471093F8331001F0EF
:101E30000F0141F0100183F8331007F57C774FF460
:101E4000806159609F629A6293F84A1001F0FE0126
:101E500041F0010183F84A1093F8351001F0F001C8
:101E600006F5F86641F001014FF4006783F835107C
:101E70005F609E629A6293F84B1001F0FE0141F0A0
:101E8000010183F84B1093F8351001F00F017C3DF0
:101E900041F01001042683F83510C3F88460C3F8BC
:101EA000A850C3F8A82093F8C21001F0FE0141F039
:101EB000010183F8C21093F8B11001F0F00141F074
:101EC000010183F8B110C3F88440C3F8A800C3F837
:101ED000A82093F8C32002F0FE0242F0010283F82A
:101EE000C32093F8B12002F00F0242F0100283F8F1
:101EF000B120F0BC704700BF0080004108000040E6
:101F000000010040100000404000004010B5094AA8
:101F10000948136A094943F0800342241362C0F858
:101F200020418847002206490648074BBDE810407B
:101F3000184700BF00080040001C0040591D000069
:101F4000001C0043C4B00020ED79000010B4184B11
:101F5000184A194804244FF040415C609A62996223
:101F600093F8422002F0FE0242F0010283F8422080
:101F700093F8312002F0F00242F00102202483F8AD
:101F800031205C609862996293F8452002F0FE026D
:101F900042F0010283F8452093F8322002F00F024C
:101FA00042F0100283F832205DF8044B704700BF06
:101FB00000800041040000402000004070B5084A45
:101FC000084D136A084C0949094843F40073422636
:101FD0001362C5F82861A047064BBDE8704018475A
:101FE00000080040001C0040757E000000240043F3
:101FF000ECB000204D1F0000F0B4234A234C244BCA
:10200000244E2548254D26494427C2F89070626920
:10201000202742F480626261C3F88470C3F8A8602C
:10202000C3F8A80093F8C52002F0FB0283F8C5208E
:1020300093F8C52002F0FE0242F0010283F8C520A9
:1020400093F8B220402402F00F0283F8B220C3F8C4
:102050008440C3F8A850C3F8A80093F8C62002F043
:10206000FB0283F8C62093F8C62002F0FE0242F07D
:10207000010283F8C62093F8B32002F0F00283F83F
:10208000B320F0BC084700BF001C0040000800401F
:102090000080004120000240000002C040000240D9
:1020A000DD7F0000164B93F8482002F0FB0283F816
:1020B000482093F8482002F0FE0242F0010283F823
:1020C000482093F8342002F0F00242F0020283F834
:1020D000342093F8492002F0FB0283F8492093F85A
:1020E000492002F0FE0242F0010283F8492093F8F1
:1020F000342002F00F0242F0200283F834207047AF
:102100000080004170B50A4B0A4A0B4C0B490C4841
:1021100042264325C3F89C60C3F88C50536943F4AE
:1021200080535361A047074BBDE87040184700BF7C
:10213000001C0040000800401581000000300040F5
:1021400080B10020A520000070B4284B284D294EF6
:1021500029482A494FF480324FF080445A619A60EE
:102160009C629D6293F8502002F0FE0242F0010250
:1021700083F8502093F8382002F0F0024FF4003535
:1021800042F0020283F838205D619D609C629E628D
:1021900093F8512002F0FE0242F0010283F8512030
:1021A00093F8382002F00F0242F020024FF480240E
:1021B00083F838205C609862996293F8522002F0AC
:1021C000FB0283F8522093F8522002F0FE0242F004
:1021D000010283F8522093F8392002F0F00242F015
:1021E000020283F8392070BC704700BF00800041B4
:1021F000010000C0020000C000000240040002C054
:1022000070B50A4B0A4A0B4C0B490C484226432531
:10221000C3F8A060C3F88C50536943F40053536172
:10222000A047074BBDE87040184700BF001C0040A6
:1022300000080040A5820000003400401CB10020CE
:1022400049210000104B93F8572002F0FE0242F0A3
:10225000010283F8572093F83B2002F00F0242F06E
:10226000300283F83B2093F8562002F0FE0242F041
:10227000010283F8562093F83B2002F0F00242F06E
:10228000030283F83B2070470080004170B50A4B81
:102290000A4A0B4C0B490C4842264325C3F80C61F3
:1022A000C3F88C50136A43F0020313620022A04764
:1022B000064BBDE870401847001C00400008004075
:1022C000E98600000004004334B1002045220000EC
:1022D00070B51149114C8B69114A124843F40053EF
:1022E00044258B61C4F8E85092F84D3003F0FE03AA
:1022F00043F0010382F84D3092F8363003F00F03BB
:1023000043F0400382F8363080470749074B0246C6
:10231000BDE870400648184700080040001C004017
:1023200000800041F1B1000000A00141E9810000FE
:1023300084B0002070B51149114CCB69114A124884
:1023400043F020034425CB61C4F8F85092F8CD3017
:1023500003F0FE0343F0010382F8CD3092F8B6306B
:1023600003F00F0343F0400382F8B630804707497B
:10237000074B0246BDE87040064818470008004079
:10238000001C004000800041F1B100000014004238
:10239000E981000040B1002070B51149114CCB69B2
:1023A000114A124843F040034425CB61C4F8F85069
:1023B00092F8CF3003F0FE0343F0010382F8CF30F0
:1023C00092F8B73003F00F0343F0400382F8B730C0
:1023D00080470749074B0246BDE87040064818474A
:1023E00000080040001C004000800041F1B10000E6
:1023F00000180042E981000064B0002070B5114966
:10240000114C8B69114A124843F4006344258B61D7
:10241000C4F8E45092F8DE3003F0FE0343F0010309
:1024200082F8DE3092F8BF3003F0F00343F0060389
:1024300082F8BF3080470749074B0246BDE870402D
:102440000648184700080040001C0040008000417A
:10245000D5AB000000600141E981000044B00020DC
:1024600070B51149114C8B69114A124843F48053DD
:1024700044258B61C4F8E45092F84C3003F0FE031D
:1024800043F0010382F84C3092F8363003F0F00349
:1024900043F0060382F8363080470749074B02466F
:1024A000BDE870400648184700080040001C004086
:1024B00000800041D5AB000000800141E9810000AF
:1024C000A4B0002070B51149114C0B6A114A124892
:1024D00043F0100344250B62C4F8185192F8CE3033
:1024E00003F0FE0343F0010382F8CE3092F8B730D8
:1024F00003F0F00343F0050382F8B7308047074943
:10250000074B0246BDE870400648184700080040E7
:10251000001C004000800041D5AB000000100043CB
:10252000E981000060B1002010B4204B2049214C0B
:102530004FF080724FF080409A60986299625A61C1
:1025400093F8582002F0FB0283F8582093F85820A3
:1025500002F0FE0242F0010283F8582093F83C207A
:1025600002F0F00242F007024FF0007183F83C20C5
:10257000996098629C62596193F8592002F0FB02BD
:1025800083F8592093F8592002F0FE0242F001022C
:1025900083F8592093F83C2002F00F0242F07002B9
:1025A00083F83C205DF8044B704700BF0080004179
:1025B000000100C0000200C010B5094A094B0A49D9
:1025C0004520C2F8A8001A6942F480621A619A692B
:1025D00042F001029A618847044BBDE81040184759
:1025E000001C00400008004055890000292500001B
:1025F00070B52F4B2F4C98472F4B3048304A3149FC
:102600004FF40005C3F88450C3F8A800C3F8A8200D
:1026100093F8D7202C4D02F0FB0283F8D72093F8D3
:10262000D72002F0FE0283F8D7208847274B98472F
:10263000274B984763692749274A284843F4007382
:1026400063619047264B9847264B9847264B9847FF
:102650002648274B984763692649274A43F4804315
:1026600042206361C1F8A40090472449244B0246EC
:1026700024489847244B9847244B9847244B984725
:10268000244B9847244B9847244B9847244B984712
:102690006369244943F48073636148220120A84799
:1026A0002148224A224B0260BDE87040184700BF13
:1026B0002196000000080040008000410000024018
:1026C000800002C00D1F0000F58C0000BD1F00003F
:1026D000F91F000000240040D17C0000CCB0002095
:1026E00005210000012200008D22000010E000E022
:1026F000617F0000001C0040EDB100000038004088
:10270000FD84000000B10020D1220000352300002C
:1027100099230000FD23000061240000C52400006F
:10272000B9250000940E0200C8B00020002000402F
:10273000B5C300002DE9F047344C354E354B3648D3
:10274000DFF8DC80DFF8DC90344D01274FF40062C5
:102750005221984721463A4630682770C0473A468A
:1027600021463068C84723783068277063F07F03BC
:102770002146022263704FF0030AC0473A462146C1
:10278000306884F800A0C0473A4621463068C84700
:102790002378306884F800A063F03F0321460222CA
:1027A0006370C0474A2220215220A8472B222121B2
:1027B0005220A8473A2222215220A8470022232152
:1027C0005220A847602224215220A847C022252158
:1027D0005220A847CB2226215220A847B0222721E9
:1027E0005220A847092228215220A847B92229218E
:1027F0005220A8470D222A215220A8472B460C22FE
:102800002B215220BDE8F047184700BFC8B1002077
:10281000C0B100205981000080B10020F1C5000046
:1028200079810000A981000038B50C4C0C4B05469D
:1028300070212068984718B90A490B4B0320984724
:1028400029460A4B52209847002305461A4620681D
:10285000074C1946A047284638BD00BF14B00020D9
:1028600081620100B00E020001310100D5C40000F8
:10287000415E01002DE9F843DFF8D090284B064671
:102880007021D9F800009847002844D04FF4006226
:102890005221244C2448254B254D264F98474FF074
:1028A0000108FF2E286884F800802146424621D87E
:1028B000B84742462146204B286898472378286825
:1028C00084F8008023F00103214602226370B84798
:1028D000286814496670002502222570B847174CF5
:1028E000D9F800002B462A462946A047144B1E80E3
:1028F000BDE8F883B8474246214628680E4B984702
:102900002378286884F8008043EA080321460222DD
:102910006370B847DCE70B490B4B03209847B5E7DA
:1029200081620100C8B1002080B1002059810000FF
:10293000C0B1002079810000A9810000415E010042
:10294000301C0020C40E02000131010014B0002030
:10295000014B1888704700BF301C0020014BB3F9B1
:1029600002007047301C0020F8B5184E184B306834
:102970007021984720B34FF40062164B1648174F4A
:10298000174D5221984711215220B8471221044671
:1029900052202C70B847002328701A461946306818
:1029A000104EB0472B78240223449BB218B2B0F5E6
:1029B000005FA4BFA3F5804318B20B4B5880F8BD4D
:1029C0000A490B4B032098470A48F8BD14B0002071
:1029D000816201005981000080B10020D5C400004F
:1029E000C8B10020415E0100301C0020D80E02005A
:1029F0000131010018FCFFFF2DE9F043002583B0F1
:102A0000DFF86490154FDFF864802E462C4608E00E
:102A10009D421CD001341D4600268C2B09DD632C01
:102A200007DCC8471420B847B8F9023013F57A7F9D
:102A3000EED100932246334609490A4C0220A047B2
:102A40004FF4FA703B4603B0BDE8F0431847013637
:102A50000E2E04F10104E0DDEBE700BF9D3D000018
:102A6000F00E02000131010069290000301C002035
:102A700030B5184C184B83B09847B4F9021011F5D3
:102A80007A7F19D0B4F904308B4218D0E268A18063
:102A900001320023E260A3608B290BDC00910F4D13
:102AA0000F490220A84700230120A360E360A38010
:102AB00003B030BD642AF1DC002003B030BDA36850
:102AC000E268A180013301320E2BA360E260E5DCF5
:102AD000E2E700BF301C002069290000013101003D
:102AE000F00E020070B50F4D0F4B064653212868BB
:102AF000984718B90D490E4B032098470D4B0E4CC3
:102B000098473046A0470020A0470020A0470B4B25
:102B10000B4C984700232868A4461A461946BDE87E
:102B2000704060472CB0002081620100380F020025
:102B300001310100F5150000151600000516000012
:102B4000415E01002DE9F041164F174B06460D4638
:102B500038685321984718B91449154B03209847F2
:102B6000144B154C9847C6F3064040F08000A04730
:102B7000C6F30720A047F0B2A047E8B2A047C5F3CC
:102B80000720A047C5F30740A047280EA0470B4BDE
:102B90000B4C984700233868A4461A461946BDE8EE
:102BA000F04160472CB0002081620100480F020014
:102BB00001310100F5150000151600000516000092
:102BC000415E01002DE9F041134E144B05460F46BE
:102BD00030685321984718B91149124B0320984780
:102BE000114B124C9847C5F3064040F08000A047B7
:102BF000C5F30720A047E8B2A047F8B2A047380ABB
:102C0000A0470B4B0B4C984700233068A4461A464C
:102C10001946BDE8F04160472CB0002081620100F8
:102C2000540F020001310100F515000015160000D7
:102C300005160000415E01002DE9F041124E134BD4
:102C400005460F4630685321984718B91049114B73
:102C500003209847104B114C9847C5F3064040F0AD
:102C60008000A047C5F30720A047E8B2A047384638
:102C7000A0470B4B0B4C984700233068A4461A46DC
:102C80001946BDE8F04160472CB000208162010088
:102C9000600F020001310100F5150000151600005B
:102CA00005160000415E010070B51A4E1A4B82B045
:102CB000054653213068984718B91849184B032026
:102CC0009847184B184C9847C5F30540A047C5F3E3
:102CD0000720A047E8B2A04704210DEB0100134BE9
:102CE000134C9847134B984700231A4619463068EF
:102CF000A0479DF806309DF805109DF804209DF82A
:102D000007001B0403EB0123134403EB006002B034
:102D100070BD00BF2CB00020816201006C0F02006A
:102D200001310100F5150000151600003D160000E8
:102D3000415E01000516000070B5164E164B82B0BC
:102D4000054653213068984718B91449144B03209D
:102D50009847144B144C9847C5F30540A047C5F35A
:102D60000720A047E8B2A04701A802210F4B104C52
:102D70009847104B984700231A4619463068A047D9
:102D80009DF805309DF8040000EB032080B202B0EE
:102D900070BD00BF2CB0002081620100780F0200DE
:102DA00001310100F5150000151600003D16000068
:102DB000415E01000516000070B5134E134B82B042
:102DC000054653213068984718B91149114B032023
:102DD0009847114B114C9847C5F30540A047C5F3E0
:102DE0000720A047E8B2A04701A801210C4B0D4CD9
:102DF00098470D4B9847002330681A461946A0475C
:102E00009DF8040002B070BD2CB00020816201006A
:102E1000840F020001310100F515000015160000B5
:102E20003D160000415E01000516000010B5064C7D
:102E3000064B2288014602F5421098472388043346
:102E4000C3F30B03238010BD401C0020452B000062
:102E5000024B03481988034B184700BF401C002051
:102E6000FC203000C52B000030B5154D154B2868EF
:102E700083B053219847E8B1134B144C9847302046
:102E8000A0472020A0470020A04701A80121104B07
:102E9000104C9847104B9847002328681A4619464B
:102EA000A0479DF80400A0F17C00B0FA80F0400932
:102EB00003B030BD09490A4B03209847DCE700BF47
:102EC0002CB0002081620100F515000015160000ED
:102ED0003D160000415E010005160000900F020043
:102EE0000131010070B5484B484C494D984744208A
:102EF000A0470020A0474FF49670464B984740F2F9
:102F0000E934A84720B9A847013CFBD1204670BD51
:102F10004FF44020404C414EA04741494148B04702
:102F2000414B4248984740F6FF73984255D0404D78
:102F30004048414C0021A84700214048A8474FF491
:102F400068713F48A04758213E48A04700213E48AD
:102F5000A04730213D48A04740F20D213C48A04702
:102F600020213C48A04700213B48A04703213B4883
:102F7000A04700213A48A84701213A48A8474FF402
:102F800048713948A0474FF4F0713848A0470021F4
:102F90003748A84701213748A8474FF40041364831
:102FA000A0474FF400412348A047FA213348A047E7
:102FB00000213348A84733494FF44010B047324905
:102FC0003248B04700213248B04702213148A84773
:102FD00005211A48A847012070BD2F48144DA0476D
:102FE000012104462D48A84700211048A847002188
:102FF0002B48A84700212B48A84700212748A8476D
:1030000021462548B04793E7D1150000E52A000086
:10301000692E0000C9150000A92C0000452B0000F6
:10302000008793030C203000392D0000F820300079
:10303000392C00009C203000C52B0000702030008F
:103040002C20300030203000382030003C20300070
:1030500040203000442030004C2030005020300010
:10306000642030006C2030003420300048203000D4
:10307000682030006020300098203000D0203000E0
:10308000D4203000FF0000020700002604003000BA
:1030900008003000542030006291300020203000C1
:1030A000FC203000002130002DE9F047174C184E6D
:1030B000258881468A4605F542106FF0D1011746F2
:1030C0009846B04725880435C5F30B0505F5421031
:1030D00049EA0A412580B04725880435C5F30B0528
:1030E00047EA084105F542102580B0472388089932
:1030F0000433C3F30B0303F542102380B047238846
:103100000433C3F30B032380BDE8F087401C002089
:10311000452B00002DE9F04F81B0474C0A9D074632
:103120002846884691469A46A0471FFA80FBBBF185
:10313000000F02D101B0BDE8F08F4FEA9B04601C84
:1031400004213E4B98470646002C72D0601E80B288
:1031500006EB80002A46311F937892F803E092F83C
:1031600000C01B0443EA0E6392F801E043EA0C033B
:1031700043EA0E2341F8043F814202F10402EBD1FD
:10318000A3001BF0030B13D09B4456F824001FFA36
:103190008BFB4FEA840E0021EA5C01339BB28A402C
:1031A0005B4540EA020001F10801F5D146F80E0046
:1031B000DFF894B0224DBBF800006FF0F30100F58A
:1031C0004210A847BBF800300433C3F30B0347EAAF
:1031D000084103F54210ABF80030A847BBF80030B7
:1031E0000433C3F30B0303F5421049EA0A41ABF879
:1031F0000030A847BBF800000430C0F30B00ABF868
:1032000000000027BBB200F5421056F82310A84773
:10321000BBF8000001370430BBB2C0F30B009C4286
:10322000ABF80000EED2074B304601B0BDE8F04FDE
:1032300018472346A5E700BF81B10100D5A20100D0
:10324000452B000009A40100401C0020F8B5114CDA
:10325000114D238807460E4603F542106FF0C0015A
:10326000A84723880433C3F30B0303F54210394600
:103270002380A84723880433C3F30B0303F54210CC
:1032800031462380A84723880433C3F30B032380EC
:10329000F8BD00BF401C0020452B00002DE9F04187
:1032A000164C174D238880460F4603F542106FF0E9
:1032B000C4011646A84723880433C3F30B0303F560
:1032C000421041462380A84723880433C3F30B03ED
:1032D00003F5421039462380A84723880433C3F3FB
:1032E0000B0303F5421031462380A847238804339B
:1032F000C3F30B032380BDE8F08100BF401C002016
:10330000452B00002DE9F047174C184E25888246C2
:10331000884605F542106FF0BC011F469146B04744
:1033200025880435C5F30B0505F542105146258067
:10333000B04725880435C5F30B0548EA094105F572
:1033400042102580B04722880432C2F30B0239466E
:1033500002F542102280B04723880433C3F30B03E5
:103360002380BDE8F08700BF401C0020452B0000F3
:1033700038B50B4C0B4D20886FF0B50100F54210AD
:10338000A84723880433C3F30B0303F5421000213D
:103390002380A84723880433C3F30B03238038BD5D
:1033A000401C0020452B000070B50C4C0C4D2388B0
:1033B00006466FF0EA0103F54210A847238804335C
:1033C000C3F30B0303F5421031462380A84723883B
:1033D0000433C3F30B03238070BD00BF401C0020E7
:1033E000452B00002DE9F04FDFF8B8A0214FDFF8A2
:1033F000B88083B003E02048D047834536D01F48CB
:10340000D04740F6FF7398428346F4D11C4CDFF856
:103410009C901C4E01E0444509D02046B8473146F7
:103420000546024601A80134C847002DF3D1164BCA
:103430001648174C9847012105461648A047002119
:103440000E48A04700210C48A04700211248A04781
:1034500000211048A04729460C48104B9847FA20F5
:103460000F4B98470448D0478345C8D103B0BDE807
:10347000F08F00BFB92D0000FC203000F820300094
:1034800000983000A40F0200A92C000062913000C7
:10349000392C00002020300000213000452B000096
:1034A000C9150000392D00008098300049AC01009A
:1034B00010B5024604460549054B03209847054BC5
:1034C0004FF000629A61204610BD00BFDC0F020081
:1034D000013101000080004170B50546054CC0F384
:1034E0000740A047C5F30720A047E8B22346BDE840
:1034F000704018475D0301002DE9F8431C4D8146DB
:103500008846A84702281FD01A4E1B4C4FF0006770
:103510007761AD20A047194B4846984798F80000BE
:10352000A04798F80100A047B7610446A8470228C1
:1035300016D0002C02DB2046BDE8F8832046104B55
:1035400098472046BDE8F8830E4A0F4B1068532178
:1035500098470028D8D10D490D4B03209847D3E751
:10356000084B0C4D186800231A461946A847E0E797
:10357000B16F0100008000415D030100D9340000FB
:10358000B13400002CB0002081620100F00F020075
:1035900001310100415E0100F8B5164DA84702282F
:1035A00014D0154E154B4FF00067776104209847F3
:1035B000B7610446A847022814D0002C01DB20463E
:1035C000F8BD20460E4B98472046F8BD0D4A0E4BDD
:1035D0001068532198470028E3D10C490C4B032075
:1035E0009847DEE7074B0B4D186800231A4619462B
:1035F000A847E2E7B16F0100008000415D030100D0
:10360000B13400002CB000208162010004100200DF
:1036100001310100415E01002DE9F04100293BD05C
:10362000B0F5001F38D21E4E0C460546B0470228A2
:103630001ED01C4F1C4B4FF00068C7F814800320AD
:1036400098471A4B284698472046194B9847C7F881
:1036500018800446B047022816D0002C02DB204612
:10366000BDE8F0812046134B98472046BDE8F08125
:10367000114A124B1068532198470028D9D110499C
:10368000104B03209847D4E70B4B0F4D18680023CD
:103690001A461946A847E0E74FF0FF34DFE700BFBE
:1036A000B16F0100008000415D030100D9340000CA
:1036B000A9030100B13400002CB000208162010098
:1036C0001410020001310100415E01002DE9F041BA
:1036D000002943D02C4B1446013A9A423ED8B0F50B
:1036E000001F07463AD2DFF8CC800D46C0470228BB
:1036F00021D0264A264B4FF00061516103209847A4
:10370000061E24DB3846234B9847061E29DB224F32
:103710002846B847013C064605F10105F8D10028C6
:1037200024DB1A4B4FF000629A61C047022822D076
:103730003046BDE8F081194A194B1068532198476B
:103740000028D6D11749184B03209847D1E7174BCB
:1037500098470028D6D03046BDE8F0814FF0FF36BC
:10376000E6E7124B98470028E2D1D0E70F4B984785
:103770000028DDD1D5E7094B0D4C186800231A4607
:103780001946A047D4E700BFFEFF1F00008000419C
:103790005D030100D9340000A90301002CB0002012
:1037A000816201002410020001310100B1340000E7
:1037B000415E0100B16F010070B582B00023184C6A
:1037C0008DF80730A04702281DD0164D164B4FF03C
:1037D00000666E6105209847144B0DF1070098476D
:1037E000AE61A047022803D09DF8070002B070BD6B
:1037F0000F4B104C186800231A461946A0479DF835
:10380000070002B070BD0A4A0B4B1068532198475D
:103810000028DAD109490A4B03209847D5E700BFB1
:10382000B16F0100008000415D030100A9030100A8
:103830002CB00020415E01008162010030100200C6
:10384000013101002DE9F04100283CD01F4E044613
:10385000B04702281AD01E4F1E4D4FF00068C7F81F
:103860001480AD20A8472078A8476078A847C7F8FB
:1038700018800546B047022814D0002D1BDB164CDB
:10388000A047C307FCD42846BDE8F081134A144B77
:103890001068532198470028DDD11249124B0320AC
:1038A0009847D8E70D4B114C186800231A46194663
:1038B000A047002DE3DA28460D4B98470028DED0BC
:1038C0002846BDE8F0814FF0FF35DCE7B16F01001D
:1038D000008000415D030100B93700002CB00020DA
:1038E000816201004010020001310100415E0100CF
:1038F000B1340000F8B5164DA847022814D0154E73
:10390000154B4FF00067776150209847B761044628
:10391000A847022814D0002C01DB2046F8BD204621
:103920000E4B98472046F8BD0D4A0E4B10685321A8
:1039300098470028E3D10C490C4B03209847DEE759
:10394000074B0B4D186800231A461946A847E2E7B3
:10395000B16F0100008000415D030100B13400003F
:103960002CB00020816201005010020001310100E2
:10397000415E01002DE9F0411A4B1B4D80469847EE
:10398000A847022819D0194E194C4FF000677761EB
:103990000120A04708F0BC00A047B7610446A84733
:1039A000022816D0002C02DB2046BDE8F08120461C
:1039B000104B98472046BDE8F0810F4A0F4B106826
:1039C000532198470028DED10D490E4B032098471C
:1039D000D9E7094B0C4D186800231A461946A84729
:1039E000E0E700BFF5380000B16F01000080004142
:1039F0005D030100B13400002CB0002081620100A1
:103A00006410020001310100415E0100F8B50020A0
:103A1000174B184D9847A847022814D0164E174B3D
:103A20004FF00067776106209847B7610446A847C2
:103A3000022814D0002C01DB2046F8BD2046104B94
:103A400098472046F8BD0F4A0F4B106853219847FE
:103A50000028E3D10D490E4B03209847DEE7094BC0
:103A60000C4D186800231A461946A847E2E700BF24
:103A700075390000B16F0100008000415D03010055
:103A8000B13400002CB000208162010074100200EB
:103A900001310100415E0100224B98422DE9F047BF
:103AA00003D900242046BDE8F0871F4B1F4E0D466A
:103AB00004469847B047022819D01D4FDFF894906C
:103AC0004FF00068C7F814800220C847194B204601
:103AD00098472846C847C7F818800446B0470228C8
:103AE00011D0002C17DB144BBDE8F0471847134AE0
:103AF000134B1068532198470028DED11149124B0F
:103B000003209847D9E70D4B104D186800231A463B
:103B10001946A847E5E720460D4B98470028C1D134
:103B2000E1E700BFFEFF1F000D3A0000B16F01008A
:103B300000800041D9340000993500002CB00020ED
:103B4000816201008410020001310100415E010028
:103B5000B13400005D03010051B3174B70B5541E22
:103B60009C4222D8B0F5001F1FD20D460446134BCD
:103B70001646984720462946114B9847022E05F1D4
:103B800002040ADDF21E22F0010204320D4E154439
:103B900020460234B047AC42FAD10B4A0B4B4FF0EF
:103BA00000619161BDE8704018474FF0FF3070BD73
:103BB0004FF0FF30704700BFFEFF1F000D3A0000BE
:103BC000F9340000453800000080004199350000BC
:103BD0002DE9F0410E4D0F4B0F4E104C98474FF012
:103BE0000067532128680E4B98470E4B7761602081
:103BF00098470023B76128680B4D1A461946A84715
:103C0000A047C307FCD4094BBDE8F041184700BFEB
:103C10002CB000200D3A000000800041B9370000B0
:103C2000816201005D030100415E010099350000E1
:103C3000B0F5001F70B530D2204B214E0546984795
:103C4000B04702281DD01F4A1F4B4FF00061516141
:103C500020209847041E1ADB1C4B28469847044630
:103C6000B047022822D0174B4FF00062002C9A6117
:103C700016DB174DA847C307FCD4164B98472046C0
:103C800070BD154A154B106853219847DBE7144B5C
:103C900098470028E0D0204670BD4FF0FF34EEE793
:103CA00020460F4B98470028E9D1E2E70A4B0D4D1B
:103CB000186800231A461946A847D4E70D3A0000B1
:103CC000B16F0100008000415D030100D9340000A4
:103CD000B9370000993500002CB000208162010046
:103CE000B1340000415E0100400007EE900ADFEDB4
:103CF0000D6A0D480D4BB8EE677A10B5C6EE877A9F
:103D0000FCEEE77A17EE901A01399847041E01DBA2
:103D1000204610BD22460649064B03209847204600
:103D200010BD00BF001B374B1CB100201D830000DD
:103D30009410020001310100024A1368013313603C
:103D4000704700BFA0B10020704700BF014B0022A8
:103D50001A607047A0B10020014B1868704700BF7F
:103D6000A0B1002008B502460B46064C06490420C7
:103D7000A0474FF0800383F31188BFF36F8FBFF329
:103D80004F8FFEE701310100D0100200024A136894
:103D900001331360704700BF441C002010B5074B6F
:103DA00004469847022804D0A0B2054BBDE8104055
:103DB00018472046034BBDE810401847B16F01007B
:103DC000717F0000A96B0100F0B5032283B00021D0
:103DD0000120904C904DA0472860002800F0BC8046
:103DE00000231A4619468D4EB0472A688C4D002391
:103DF000194610461A46B047032200210120A04769
:103E00000246286020B100231A461946B0472A68A6
:103E1000844D0023194610461A46B047032200215C
:103E20000120A0470246286020B100231A46194607
:103E3000B0472A687C4F7D4C002319461046032565
:103E40001A46B04700238DE8A0004FF4007278496D
:103E50007848A0473B68002B00F08A80764E77496F
:103E6000774800238DE860004FF40072A047336864
:103E7000002B74D0734E7449744800238DE86000A1
:103E80004FF4A062A0473368002B7AD0704E71497E
:103E9000714800238DE860004FF48072A0473368BA
:103EA000002B00F089806D4E6D496E4800238DE82F
:103EB00060004FF48072A0473368002B73D06A4EC5
:103EC0006A496B4800238DE860004FF40072A047F8
:103ED0003368002B79D0674E0196042300934FF48A
:103EE0000072002364496548A0473368002B51D015
:103EF000634E6449644800238DE860004FF44072CB
:103F0000A0473368002B7BD0604E61496148002395
:103F10008DE860004FF48072A0473368002B66D0B4
:103F20005D4E5E495E4800238DE860004FF480726C
:103F3000A0473368002B51D05A4B5B4A1A61191DB8
:103F400001225A4C5A48DA601A75A0475848594B12
:103F500003B0BDE8F04018470246304E46E74FF048
:103F6000800383F31188BFF36F8FBFF34F8FFEE79A
:103F70004FF0800383F31188BFF36F8FBFF34F8F30
:103F8000FEE74FF0800383F31188BFF36F8FBFF319
:103F90004F8FFEE74FF0800383F31188BFF36F8FDD
:103FA000BFF34F8FFEE74FF0800383F31188BFF319
:103FB0006F8FBFF34F8FFEE74FF0800383F31188BD
:103FC000BFF36F8FBFF34F8FFEE74FF0800383F394
:103FD0001188BFF36F8FBFF34F8FFEE74FF0800361
:103FE00083F31188BFF36F8FBFF34F8FFEE74FF05E
:103FF000800383F31188BFF36F8FBFF34F8FFEE70A
:104000004FF0800383F31188BFF36F8FBFF34F8F9F
:10401000FEE700BFE95D010014B00020415E010031
:104020002CB0002034B0002020B000202566010014
:10403000241102002968000024B000203811020079
:104040009554010018B000205011020029130100FE
:1040500038B000206411020095D900003CB0002067
:1040600070110200CD90000040B0002084110200C9
:10407000411001001CB00020981102002D14000016
:1040800028B00020A41102001973000030B00020F5
:10409000B8110200157A010010B00020C41102000E
:1040A0000DD20000441C0020393D00007585000041
:1040B00000B100203985000070B5194D194B1A4E1A
:1040C00004463D2128689847217818481822002383
:1040D000B047174B1420984700231A4660601946D2
:1040E0002868144DA847D4ED017A134B134DFCEE0C
:1040F000E77AF8EE677A17EE900A98470022104B9D
:10410000A84705A3D3E900230E4DA8470E4B9847B7
:10411000A06000EE100A70BD0000000000FEAF407D
:1041200034B0002081620100E57A0000C4B00020B4
:10413000A9C60000415E01007D980100259901009B
:1041400000005940799B0100159F0100000000000C
:104150002DE9F0432DED028B3B4F3C4BDFF82881DE
:104160003B4D3C4E044683B03D213868984721784A
:10417000394818220023C047384B142098470023A1
:104180001A46194660613868354FB847D4ED057A4C
:104190009FED347AD4ED016A94ED028AE068324FE3
:1041A00067EE877AB7EE007A67EEA66A77EE677AEF
:1041B000C6EEA78AA84780468946D4ED047AB1EEB8
:1041C000487AC7EE276A16EE900AA847274B984709
:1041D00002460B4640464946B847B04707EE100A2C
:1041E000C8EE877A224F17EE900AA847214B9847CE
:1041F0008046894618EE100AA84742464B46B84703
:10420000B047A8471C4F0EA3D3E90023B847B047D7
:1042100000EE100AE06984ED060A8DED010AA84758
:104220000022164D164BA847164B98479DED010AE4
:1042300084F8200003B0BDEC028BBDE8F08300BF22
:10424000666666666612714034B0002081620100C5
:104250007D980100159F0100C4B00020A9C6000090
:10426000415E01000000803925990100A18A01000A
:10427000799B0100918B0100BD950100C195010062
:104280000000E03FD59E0100E57A000070B5134BB9
:10429000134D144E0446984702280CBF3D210021BF
:1042A0002868114B98472178104818220023B047FE
:1042B0000F4B14209847002360601A4628680D4D64
:1042C0001946A84794ED017AD4ED097A94ED0A0ACB
:1042D000A7EE270A84ED020A70BD00BFB16F01008E
:1042E00034B00020E57A000081620100C4B00020F3
:1042F000A9C60000415E010070B5364E364B82B053
:1043000004463E213068984700283CD0334B9847FC
:104310002178334B70209847002839DB314D324BE0
:1043200002209847314B2946032240209847002815
:104330002F4B3FDB984700231A46194630682D4E15
:10434000B0472A786B789FED2C6ADFED2C6A03EB7F
:10435000022307EE903AB8EEE77AFCEEC77A84EDD6
:10436000017ACDED017ABDF8043007EE903AF8EE0F
:10437000677AAB78237777EEC67A87EEA60A84ED64
:10438000020A02B070BD1E491E4B03209847BDE7CC
:10439000174B98471C4A13680133022B13DC136038
:1043A00000233068134C1A461946A0479FED170AA0
:1043B00002B070BD9847164B0A209847124A1368FE
:1043C0000133022BEBDD00206421124B82E8030055
:1043D0009847E5E714B0002081620100C55601004E
:1043E0001DC50000C8B100200100002055C4000018
:1043F00009570100415E01000000004700004844E9
:10440000D4110200013101005C1C002000000000FA
:104410009D3D00002DC6000070B5364C6168002936
:1044200059DD01396160B4F89A31B4F89801324D20
:1044300083422CBF00235A1C04EB8303D5F8886009
:104440009E6034BF92B20122A4F89A2100284BD07A
:104450002A4BDFED2B7A03EB8002B3EC017A934217
:1044600077EE877AF9D107EE100AB8EE477A00297D
:10447000C7EE876AC4ED676AC5ED236A30DD01398E
:104480006160B4F83633B4F83413D5F8B4008B4215
:104490002CBF00235A1C04EB830334BF92B20122C9
:1044A000C3F8A401A4F8362309B3164BDFED147A40
:1044B00003EB8102B3EC017A9A4277EE877AF9D165
:1044C00007EE101AB8EE477AC7EE876AC4EDCE6AD7
:1044D000C5ED2E6A70BD0C480C4B98476168A2E789
:1044E0000B480A4B9847CCE7DFED057ABBE7DFEDD9
:1044F000047AE5E75C1C002014000020641C002006
:1045000000000000001E002094000020F94200007E
:10451000C0000020F8B5544A544B41F2140541F252
:10452000160400213220195358530A2450251E2600
:10453000A3F89A11A3F83613A3F8D214A3F86E16B1
:10454000A3F80A18A3F8A619A3F8421BA3F8DE1CC7
:10455000A3F87A1EA2F8BA10A2F85612A2F8F21323
:1045600064274349A3F8400BA3F8DC0CA3F8780EAA
:10457000A3F86C76A3F89851A3F83453A2F8F0533B
:10458000A3F8D044A3F80848A3F8A449A2F8B86057
:10459000A2F8546202F5187302F57C7243F8041B0A
:1045A0009342FBD1334D34493448354C354EA847FE
:1045B0003149C4F800013448A8473449C4F82C01F3
:1045C0003348A8473149C4F8FC003248A84732496B
:1045D000C4F828013148A847314B324918603248A5
:1045E000A847324BE065984731493248A847324BDB
:1045F000C4F84C01984731493148A84707EE900A62
:10460000FDEEE77A00212F48C4ED4F7AA8472E4BE4
:104610004FF07E5118602D48A8474FF07E51C4F8E6
:1046200030012B48A8474FF07E5120642948A84705
:104630000021C4F838012848A8474FF07E51A064F3
:104640002448A8472549C4F834012548A84741F61D
:10465000641160642348B04740F2FF11C4F844017C
:104660002148B0476065F8BD542D00205C1C002037
:10467000000080BFCD180100000040C1E41102001D
:10468000140000207D180100F0110200CDCC4C3C3C
:10469000F811020000120200CDCCCC3D081202003D
:1046A000ACB100200000A04010120200B51E0100B5
:1046B0000000A84118120200551E010000C05A4512
:1046C0002012020028120200643100203012020081
:1046D000381202004012020048120200000040405E
:1046E000501202005812020060120200B0F892212B
:1046F000B0F890319FED1E7A9A4228BF002210B484
:1047000038BF541C00EB820234BFA4B20124022B38
:104710001160A0F8924180ED657A22DDD0ED017A3A
:10472000BFEE006AF4EE467AF1EE10FA19D0591E87
:1047300000F10802012306E0F2EC017AF4EE467A79
:10474000F1EE10FA0DD0A34203F1010307D052EDB0
:10475000026A77EEE67A37EE277A80ED657A8B4249
:10476000EAD180ED667A5DF8044B17EE100A7047C7
:1047700000000000184BD3ED5F7AB3EE027AF4EE3E
:10478000C77AF1EE10FA1BD4B3EE0F7AF4EEC77AC3
:10479000F1EE10FA08D49FED117AF4EEC77AF1EE3B
:1047A00010FA0FD50220704793ED6A7AF1EE047A81
:1047B000B4EEE77AF1EE10FA54BF01200020704702
:1047C000002070479FED067AF4EEC77AF1EE10FAFA
:1047D0004CBF0320002070471400002000005C4202
:1047E0000000A042054A08B50121054B82F81814C3
:1047F0009847012808BF82F8190408BD542D0020ED
:10480000754700002DE9F043404C2DED048B94EDED
:104810002E8AF5EE007AB4EEE78AF1EE10FA83B054
:1048200003DD3B4B984701280FD03A4B3A4C18EE2A
:10483000100A98470B46394902460220A44603B0A5
:10484000BDEC048BBDE8F0436047D4ED238A94EDC2
:104850006A9A304D324E69EE287A17EE900AA847D0
:1048600078EEC87A804617EE900A8946A84700225B
:104870002C4BB0472C4E02460B4640464946B047AB
:10488000804618EE100A8946A847284E02460B4675
:1048900040464946B047264B984707EE900AB3EE8C
:1048A000057AF4EEC77AF1EE10FAC4F8C8011AD40A
:1048B0009FED208AF4EEC87AF1EE10FA0DDDA847DC
:1048C000154D02460B4602201B49A84784ED728A0B
:1048D00003B0BDEC048BBDE8F083A8470E4C0B463B
:1048E00002461649A9E7A847064619EE100A0F46E0
:1048F000A8473B46CDE900013246074D104902204A
:10490000A847D4F8A831C4F8C831E1E71400002062
:10491000754700007D98010001310100201302005D
:104920002599010000003540BD950100799B0100EB
:10493000159F01000000C842B0120200F8120200E8
:1049400068120200000000002DE9F0472DED028BF7
:10495000C44CC54DC54E04F5CE7084B0B047B5F813
:10496000BA30B5F8B810D4F8A401994294BF002326
:104970005A1C05EB83038CBF92B2012243F8D80C7A
:10498000A5F8BA20002900F01D83B94BDFEDB97AF4
:1049900003EB8102B3EC017A9A4277EE877AF9D180
:1049A00007EE101AB8EE477AC7EE876AFCEEE67A91
:1049B000C5ED2F6ACDED037A9DF80C30C4ED6A6A1F
:1049C000142B00F2C481152384F8AC31D5F81C34C3
:1049D0005A1C0C2BC5F81C2400F0C681A648B04711
:1049E000B5F85632B5F85412D4F878018B422CBF82
:1049F00000235A1C05EB830334BF92B20122C3F893
:104A0000C400A5F85622002900F0D9829B4BDFEDA7
:104A1000997A03EB8102B3EC017A9A4277EE877AB6
:104A2000F9D107EE101AB8EE477A954AC7EE876AB1
:104A3000C5ED966AC4ED5F6A9047D5F8203483428D
:104A400004D0012800F06882C5F8200495F82834C5
:104A5000002B00F05F818B4ED5F82434D5F8442428
:104A600023B902F59C432033C5F824349A4294EDCF
:104A70006A8A00F29D81D6ED028A78EE687AB2EEFB
:104A8000067AF4EEC77AF1EE10FA07DDF3EE047A57
:104A9000B4EEE78AF1EE10FA00F3FC817A4D7B4820
:104AA0007B4E7C4FB047B5F8423BB5F8401BD4F87D
:104AB000E801DFED707A8B422CBF00235A1C07EB14
:104AC000830334BF92B20122A5F8422B186041B192
:104AD0003B4607EB8102B3EC017A9A4277EE877A84
:104AE000F9D107EE101AB8EE477A6B48C7EE876A1D
:104AF000C7ED656AC4ED7B6AB047B5F8DE3CB5F832
:104B0000DC1C664FD4F80C02DFED5A7A8B422CBFC6
:104B100000235A1C07EB830334BF92B20122A5F88D
:104B2000DE2C186041B13B4607EB8102B3EC017A01
:104B30009A4277EE877AF9D107EE101AB8EE477AE3
:104B40005748C7EE876AC7ED656AC4ED846AB04707
:104B5000B5F87A3EB5F8781E524FD4F83002DFED42
:104B6000457A8B422CBF00235A1C07EB830334BFCA
:104B700092B20122A5F87A2E186041B13B4607EBAC
:104B80008102B3EC017A9A4277EE877AF9D107EE87
:104B9000101AB8EE477A4448C7EE876AC7ED656ACF
:104BA000C4ED8D6AB04741F2140241F21603A95ACE
:104BB000EB5A3E4ED4F85472DFED2E7A8B422CBF66
:104BC00000235A1C41F2160006EB830334BF92B255
:104BD00001221F602A5241B1334606EB8102B3EC39
:104BE000017A9A4277EE877AF9D107EE101AB8EE79
:104BF000477A2F482F4FC7EE876AC6ED656AC4ED26
:104C0000966AB847B5F80A38B5F808182A4ED4F8A5
:104C1000E000DFED187A8B422CBF00235A1C06EB14
:104C2000830334BF92B20122A5F80A28186041B16B
:104C3000334606EB8102B3EC017A934277EE877A32
:104C4000F9D107EE101AB8EE477A1C48C7EE876A0A
:104C5000C6ED656AC4ED396AB847B5F8A639B5F846
:104C6000A4192DE014000020542D0020B9400000AC
:104C70007C2C00200000000084010020182E002061
:104C800075470000803100205C1C0020E4010020FA
:104C9000514100000C26002008020020A827002017
:104CA0002C0200204429002050020020E02A00208D
:104CB000EC0000208D420000D422002018010020CA
:104CC000C948D4F80C61DFEDC97A8B422CBF0023B0
:104CD0005A1C00EB830334BF92B20122A5F8A62927
:104CE0001E6041B1034600EB8102B3EC017A9342AE
:104CF00077EE877AF9D107EE101AB8EE477AC7EE49
:104D0000876AC0ED656AC4ED446A04B0BDEC028BED
:104D1000BDE8F08795F81834002B00F0B580B44E4C
:104D2000D4ED537AD6ED028AB24BB34F78EEE77AE0
:104D3000F0EEE77A17EE900A9847A5A3D3E900238F
:104D4000B84700287FF488AE94ED6A8A95E6642B14
:104D500088BF642384F8AC31D5F81C345A1C0C2B62
:104D6000C5F81C247FF43AAE16EE901AA34BA44863
:104D7000A14F9847D5EDFE7AA24BFDEEE77A0022CF
:104D800017EE900A0028B8BF4042C5F81C24984787
:104D900091A3D3E90023B847002800F0C280D5F8DA
:104DA0001434632B3FF71AAE0133C5F8143415E6FB
:104DB000F0EE007AB4EEE78AF1EE10FA40F39C8050
:104DC000F3EE078AB4EEE88AF1EE10FA40F194802F
:104DD0008D4B9847B0F5FA6F40F38C8094ED538A71
:104DE000D6ED027A834FDFF8108277EEC87AF0EEC4
:104DF000E77A17EE900AB84775A3D3E90023C047B6
:104E0000002877D0D4F8B800DFF81C82B84774A324
:104E1000D3E90023C04700286CD0F3EE097AB4EE42
:104E2000E78AF1EE10FA65DDD5F814340A2B61DD5E
:104E3000D4F8A801B847754F02460B4602207449C2
:104E4000B847D4ED537A94ED6A8AF4EEE87AF1EE3D
:104E500010FA84ED728A0FDB00236E49D4F84021EA
:104E600084ED538AC4F85831C4F85C31C4F8603119
:104E7000C4F8CC11C4F864210023C5F8243485F8A3
:104E8000183485F82834F6E5594B94ED6A8AD3ED49
:104E9000028AF2E5D4ED537A564E574F78EEE77A10
:104EA000F0EEE77A17EE900AB04749A3D3E9002362
:104EB000B84700283FF4F2AD95F81834002B7FF482
:104EC000EDAD94F86C31002B3FF4E8AD012385F88B
:104ED000183418EE900AB047804618EE100A89463A
:104EE000B0474A4DCDE9000142464B464A490220AF
:104EF000A847D3E594ED6A8AF3EE047AB4EEE78A24
:104F0000F1EE10FA7FF7B7AD3F4B9847B0F5FA6F67
:104F10000ADC94ED6A8AAEE50023C5F82434904794
:104F200092E5C5F8140459E5D6ED028AD4ED537A1A
:104F3000304FDFF8C48078EEE77AF0EEE77A17EECC
:104F4000900AB84722A3D3E90023C04700283FF4C2
:104F5000FBAED4F8B800DFF8D080B84720A3D3E97F
:104F60000023C04700283FF4EFAED5F814340A2BD5
:104F70007FF7EAAED5F82434D5F844242749DFF882
:104F80008CA00220D047B068B8478046D4F8A8016A
:104F90008946B8474246CDE900014B4620490220E8
:104FA000D047204B9847002394ED6A8AD6ED028AB9
:104FB000C5F8243485F8183485F828345DE5DFED2C
:104FC0000B7A2EE5DFED097AEAE400BFAFF300804B
:104FD0009A9999999999D93F666666666666EE3F91
:104FE000333333333333D33F7024002000000000C9
:104FF000803100207D980100099E0100ED460000EF
:10500000B42F0020599801005D29000001310100F2
:105010005C130200000020421414020094130200EA
:10502000DC13020005480000459E0100000000005E
:105030002DE9F0476E4D6F4CDFF8F8812DED028BB6
:1050400095ED238A18EE100AA04767A3D3E9002341
:1050500006460F46C04758B1D5ED2E8A18EE900A85
:10506000A04761A3D3E90023C047002840F08D800A
:10507000614F624E624D7E606249B1F8D234B1F840
:10508000D00483422CBF00235A1C01EB830334BF9E
:1050900092B20122C3F84063A1F8D224002800F0A4
:1050A0009E80594BDFED597A03EB8002B3EC017A15
:1050B0009A4277EE877AF9D107EE100AB8EE477A6E
:1050C000B1F86E36B1F86C06514ADFF86CC1DFF802
:1050D0006CE1C7EE876A834228BF0023CEF80460E4
:1050E000DFED4A7AC2ED006A38BF5A1C0CEB83032D
:1050F00034BF92B20122C7ED026AA1F86E261E608B
:1051000040B163460CEB8002B3EC017A9A4277EE31
:10511000877AF9D107EE100AB8EE477A16EE900AB0
:1051200087EE878A3B4E3C4F8CED658A8EED028A76
:10513000A0470022394BA847B047394AC3B2A2FB67
:1051400003239B0803EB8303DBB2142B17D815232F
:1051500087F8383418EE100AA0470022314BA847D0
:10516000B047C0B2142833D964288ABF642387F8B3
:10517000540487F85434BDEC028BBDE8F087642BEF
:1051800088BF642387F83834E4E7D5ED727ADFF816
:10519000B0A01B4D68EEA77A17EE900AA04778EEF4
:1051A000687A804617EE900A8946A04700221E4B77
:1051B000D04702460B4640464946A84732463B4642
:1051C0001A4E0D4FB0471A4B98470646786053E782
:1051D000152387F85434BDEC028BBDE8F087DFED72
:1051E0000B7A69E7AFF300809A9999999999B93F39
:1051F000140000207D980100803100209A99AF4171
:10520000C19501005C1C00209C1F002000000000D4
:1052100030210020D59E0100542D002000000440C4
:10522000CDCCCCCC0000E03F00003540799B0100A4
:10523000159F0100459E0100382100209C3100206F
:105240002599010000000000454BD3ED447A454B01
:10525000B1EE087AF4EEC77AF1EE10FA2DE9F047D4
:10526000414C25D917EE900A98472FA3D3E9002384
:1052700006460F463D4DA0472DA3D3E90023A8477E
:105280002DA3D3E900238046894630463946A047FE
:1052900032463B46A047364C02460B4640464946FE
:1052A000A047344B9847344B58609860BDE8F0876E
:1052B00017EE900A984722A3D3E9002306460F462B
:1052C0002A4DDFF8ACA0A0471FA3D3E90023A847CD
:1052D0001FA3D3E900238046894630463946A047BC
:1052E00032463B46A04702460B4640464946D04719
:1052F00019A3D3E900238046894630463946A047A2
:1053000032463B46A04732463B46A04702460B4644
:1053100040464946A847174B9847174B5860986036
:10532000BDE8F087AFF30080F2D24D621058D93F4C
:105330005C8FC2F5285C0B40DE718A8EE4F26F3F11
:1053400066666666666602401904560E2DB2D53F43
:105350005EBA490C022BDF3F94F6065F984CA53FDE
:10536000140000207D98010025990100C1950100DD
:10537000BD950100159F0100B43100200000000020
:105380002DE9F0472DED028B3F4C404B404F414EF5
:10539000DFF820A1404D82B09847404B984704F574
:1053A0008C63D3ED027A97ED238A38EE678A04F591
:1053B0008F6317EE900A83ED018AB0472CA3D3E9DF
:1053C000002380468946D04742464B46D047CDE928
:1053D0000001D7F81001B04702460B46DDE9000195
:1053E000A84725A3D3E90023CDE90001404649465B
:1053F000D04702460B46DDE90001A847DFF8B88038
:105400001FA3D3E90023C047254B9847254BD7ED71
:10541000397A93ED007A244928EE077AF1EE486A4A
:10542000E6EE877A04F5926204F5806306EE100AD0
:1054300091ED007A76EE277AB6EE006A67EE867A0C
:1054400028EE078AC2ED017AE6EE887AC3ED007A8B
:1054500017EE900AB0470022144BA847144B984708
:1054600084F8080402B0BDEC028BBDE8F08700BFF1
:105470005DA79196CADB613FBDE3141DC9E5AF3F4F
:10548000984C158C4AEAB43F542D0020315000004E
:10549000140000207D980100C195010049520000D0
:1054A000159F0100A8B10020A4B100200000E03F3A
:1054B000D59E010025990100BD95010010B50A4B4C
:1054C00001787020984700280CDB0A20074B98478A
:1054D0004020074B4FF4805198470220054BBDE810
:1054E0001040184710BD00BF1DC50000010000207E
:1054F00085C500009D3D000070B5084C084E4FF476
:105500008065C4F89850A020C4F89450B047C4F8FF
:1055100098503346C820BDE87040184700800041CD
:105520009D3D000070B5074D074B084C984705F1AD
:105530008000A04705F1AC00A0470A20044BBDE85D
:105540007040184714000020F9540000BD540000BA
:105550009D3D000070B5144C144AD4F8A834144D85
:105560000833C4F8A834904712490420A847D4F857
:10557000AC342BB110490420A8470023C4F8AC3444
:105580000E4B98470E4B98470E4B98470E4B98473B
:105590000A200E4B98470E4B98472B460D49042086
:1055A000BDE87040184700BF542D002049C60000D8
:1055B000013101007014020098140200C968010052
:1055C0002DC6000025C40000255500000100002064
:1055D000056A0100B8140200034A044B014604485E
:1055E000C2F8FC10184700BF14000020B9160100D3
:1055F000F8110200034A044B01460448C2F828117E
:10560000184700BF14000020B91601000012020064
:10561000034A044B01460448C2F80011184700BF72
:1056200014000020B9160100D8140200034A044BEC
:1056300001460448C2F82C11184700BF140000208E
:10564000B9160100F0110200014BD3F8FC007047BD
:1056500014000020014BD3F82801704714000020EB
:10566000014BD3F80001704714000020014BD3F820
:105670002C0170471400002010B582B002AC00214C
:1056800024F8020D094B0A489847224601230021BD
:105690000748084CA0471D3001D002B010BD064994
:1056A000064B0320984702B010BD00BFAD7E00003E
:1056B000ECB00020E17E0000E014020001310100A6
:1056C0000F4A104B70B5106098470F4D0F4B104CA0
:1056D0000022A84700220F4D0F4BA8470F4B9847B9
:1056E00085B228460E4B98472A4620460D4B4FF46C
:1056F000FA71984720460C4BBDE87040184700BF30
:10570000043200207D980100799B0100000059407F
:10571000A4B000202599010000407F40D59E0100E3
:10572000795600007182000031820000014B186838
:10573000704700BF043200202DE9F04F8BB088463F
:10574000794B0991054608469847DFF81C92DFF827
:105750001CA2764F764E774C4046C84702460B4611
:1057600002207549CDE90623D04740F2DC50B84706
:1057700072490220D04706F1AC084FF0320B636843
:10578000002B40F3C780013B6360B4F83633B4F8B4
:105790003413D6F8B4008B422CBF00235A1C04EB00
:1057A000830334BF92B20122C3F8A401A4F83623C4
:1057B000002900F0B680624BDFED627A03EB8102D4
:1057C000B3EC017A9A4277EE877AF9D107EE101A94
:1057D000B8EE477ABBF1010BC7EE876AC4EDCE6A1B
:1057E000CDD1594969610022AA615849DFF8808109
:1057F0000220D0476368002B40F38880013B636040
:10580000B4F83633B4F83413D6F8B4008B422CBF56
:1058100000235A1C04EB830334BF92B20122C3F865
:10582000A401A4F83623002978D0454BDFED457A52
:1058300003EB8102B3EC017A934277EE877AF9D1D8
:1058400007EE101AB8EE477A95ED056AC7EE876A3B
:1058500088FB0B234FEAEB72C2EBA30303EB83033A
:10586000D5ED067AC4EDCE6AB4EEE66AF1EE10FA32
:10587000F4EEE67AC8BFC5ED056AF1EE10FA48BF4E
:10588000C5ED066ABBEB430F2ED00BF1010B0A20CE
:10589000B847BBF1320FADD12C490220D047D4F824
:1058A0003833DDED097A2B61294BC5ED137A986801
:1058B0002C88C8472246CDE9000126490220D0475E
:1058C0002869C8470646A8690F46C847CDE90201BE
:1058D0006869C8473246CDE900013B461E490220AF
:1058E000D0470BB0BDE8F08F194B9868C847CDE999
:1058F00004012869C8479DED067BCDE902018DEDC5
:10590000007B5A4615490220D047BEE71448154B84
:10591000984775E74046134B984736E7DFED097A1D
:105920008EE7DFED087A51E7C15600009D3D00008B
:10593000140000205C1C0020081502002415020041
:10594000001E0020000000000000C84234150200C4
:1059500080310020741502009815020050150200D5
:10596000C0000020F94200007D98010001310100D3
:10597000676666662DE9F04F2DED028B8BB0B1F5B1
:10598000004F0991064600F2758140F2FF108842EF
:1059900028BF0846B84AB94BA2F8B4049847099AF8
:1059A000B749B84BDFF81C93B74CDFF81CA30220B3
:1059B000984740F2DC50B54B9847B549B14B0220AF
:1059C000984709F1D80B04F6140864255846D047C7
:1059D000B4F80A38B4F80818AE4FD9F8DC008B4296
:1059E0002CBF00235A1C07EB830334BF92B2012261
:1059F0001860A4F80A28002900F03981DFEDA67AA2
:105A00003B4607EB8102B3EC017A934277EE877A4B
:105A1000F9D107EE101AB8EE477A9E4B9F48C7EEB1
:105A2000876AC3ED656AD047B4F8A639B4F8A419FB
:105A3000D9F808018B422CBF00235A1C08EB8303C2
:105A400034BF92B201221860A4F8A629002900F000
:105A50000B81934BDFED907A08EB8102B3EC017A76
:105A60009A4277EE877AF9D107EE101AB8EE477AA4
:105A7000013DC7EE876AC8ED656AA7D10023894A50
:105A8000736233633262F26287497E4BDFF83CB265
:105A90000220984785487F4FD047B4F80A38B4F8B9
:105AA0000818D9F8DC008B422CBF00235A1C07EBE6
:105AB000830334BF92B201221860A4F80A28002997
:105AC00000F0CF80DFED747A3B4607EB8102B3EC48
:105AD000017A9A4277EE877AF9D107EE101AB8EE7A
