:10000000585A01200D0700000907000009070000E9
:1000100009070000090700000907000000000000B0
:1000200000000000000000000000000009070000C0
:100030000907000000000000090700000907000090
:100040000907000009070000090700000907000070
:100050000907000009070000090700000907000060
:1000600009070000090700000907000041650000BA
:100070000D6200001562000009070000090700007A
:100080000907000009070000090700000907000030
:100090000907000009070000090700000907000020
:1000A0000907000009070000090700000907000010
:1000B0000907000009070000090700000907000000
:1000C00009070000090700000907000009070000F0
:1000D00009070000090700000907000009070000E0
:1000E00009070000090700000000000000000000F0
:1000F0000000000005640000090700000907000077
:1001000009070000090700000907000009070000AF
:10011000090700000907000009070000090700009F
:10012000090700000907000009070000090700008F
:10013000090700000907000009070000090700007F
:10014000090700000907000009070000090700006F
:10015000090700000907000000000000000000007F
:10016000000000000000000000000000000000008F
:10017000000000000000000000000000000000007F
:10018000418C0000498C0000518C0000598C00000B
:100190000000000089740000090700000907000042
:1001A000090700000907000009070000090700000F
:1001B0009974000009070000090700000907000002
:1001C00009070000090700000907000009070000EF
:1001D00009070000090700000907000009070000DF
:1001E000A9740000090700000907000009070000C2
:1001F000E57A0000017B000009070000117B000088
:10020000217B000000000000000000000907000042
:10021000090700000907000009070000090700009E
:10022000090700000907000009070000090700008E
:10023000090700000907000009070000090700007E
:10024000090700000907000009070000090700006E
:10025000090700000907000009070000090700005E
:100260000000000010B5054C237833B9044B13B1DE
:100270000448AFF300800123237010BD180F002045
:100280000000000040AF01000C4B43B10C480D4989
:1002900010B5AFF300800C48036823B910BD0A48BD
:1002A000036833B97047094B002BF7D0BDE8104005
:1002B0001847064B002BF5D0184700BF0000000080
:1002C00040AF01001C0F002040AF01000000000003
:1002D000044B4FF400414FF00042C3F89410C3F8B0
:1002E0009420704700800041014B9878704700BF10
:1002F000340F0020014B9870704700BF340F00206E
:10030000014B1878704700BF00000020014B1870A7
:10031000704700BF00000020014B1879704700BFF4
:10032000340F0020014B1871704700BF340F0020BC
:1003300080B2014B184700BF014A000070B5064D5E
:10034000064C4FF400166E613220A047AE61234682
:100350006420BDE87040184700800041014A000059
:10036000024B4FF400225A61704700BF00800041E9
:10037000024B4FF400229A61704700BF0080004199
:1003800030B587B006AB002503F8110D012403A991
:10039000034A0448039304950594904707B030BD81
:1003A000B94D0000C4580020F0B58BB000230829D7
:1003B0000393029314D80AAD0A46552105F8211D6E
:1003C00002AE044607A9049601270648064E059486
:1003D0000692089307950997B04704A90148B047CA
:1003E0000BB0F0BDC4580020B94D000010B5044B4F
:1003F0009847044B9847044BBDE81040184700BF8E
:100400003510000035ED000015AA00002DE9F84F69
:100410006FF0E400DFF82C91DFF82CA1DFF82CB1AD
:10042000394D3A4E3A4FDFF82881C8474FF47F20C4
:10043000C847FF20C8474FF48050C8471420D04712
:10044000D847344B98474FF47F2419E02968B047C8
:100450006968201DB047A96804F10800B047E96841
:1004600004F10C00B047296904F11000B047696934
:1004700004F114001834B047444505F1180503D0C1
:100480006B69BB422046E1D0234C214B41F20C0565
:1004900062599A4219D0214B214853F8E81CB047C1
:1004A0006FF0B800C8471F48C8474FF47F20C847BF
:1004B0004FF48050C8471420D047D847154B984771
:1004C0001420D0470120BDE8F88FD4F8F41F164857
:1004D000B047D4F8F81F1548B047D4F8FC1F1448AB
:1004E000B04704F5805313481968B04741F204033C
:1004F0001148E158B04741F208031048E158B047AD
:1005000061590F48B047C6E7400F0020FD130000B7
:10051000CAF00F53511900003C0F00203420002076
:10052000FCFF0F0000108000D0FF0F00D4FF0F0071
:10053000D8FF0F00DCFF0F00E0FF0F00E4FF0F000B
:10054000E8FF0F00A115000031030000C5150000F1
:10055000F0FF0F0070B405460FCD054C054E0FC4DB
:1005600095E80700334684E8070070BC184700BFD1
:10057000301F00200D04000010B50A4B0A489847B0
:1005800000210A4B0A4898470A4B044606489847F8
:10059000844200D810BD21460348074BBDE81040F7
:1005A000184700BF814700009058002001AF0000AD
:1005B000E06F010015650000E56400000146014B95
:1005C00001481847A54800009058002030B51A4946
:1005D0001A4D1B4C83B0A847A047C0B218288CBF47
:1005E00000238DF80600144988BF8DF806300020DE
:1005F000A847A047C0B23B288CBF00238DF8050058
:100600000D4988BF8DF805300020A847A047C0B22B
:100610003B288ABF00238DF804008DF8043001A91F
:10062000084B09489847094B07489847084B01462B
:100630000848984703B030BD8881010005290100B2
:10064000A5070100AD470000905800201565000087
:10065000FDAD0000E06F010030B51F491F4D204C7B
:1006600083B0A847A047C0B20C288CBF01238DF8E7
:100670000500194988BF8DF805300020A847A0471C
:10068000C0B21F2894BF8DF804000123124988BF0F
:100690008DF804300020A847A04780B2632898BF97
:1006A00000F5FA6040F2D97398BF80B2984298BFC3
:1006B00040F2E573ADF8060001A998BFADF8063029
:1006C0000848094B9847094B06489847084B01468C
:1006D0000848984703B030BDE86F010005290100C4
:1006E000A5070100905800202D4800001565000066
:1006F000FDAD0000E06F01000148024B184700BF4C
:100700009058002015650000FEE700BF1B491C4AF9
:10071000914208B50ED01B4882420BD2D34303440A
:1007200023F003030433134451F8040B42F8040B81
:100730009A42F9D1144A15498A420AD2D3430B444A
:1007400023F0030304331344002142F8041B9A42AC
:10075000FBD10F4A0F4B22F07F029A60D3F888201A
:1007600042F47002C3F88820BFF34F8FBFF36F8F3E
:10077000094B9847094B9847FEE700BF40AF01007F
:1007800000000020180F0020180F0020545A0020ED
:100790000000000000ED00E029080100459800007D
:1007A000F0B4674B6748684D684F694E4FF0404260
:1007B00008245C6098629A6293F8431001F0FE018D
:1007C00041F0010183F8431093F8311001F00F015B
:1007D00041F0100183F831104FF48071C3F8841098
:1007E000C3F8A850C3F8A82093F8C81001F0FE0180
:1007F00041F0010183F8C81093F8B41001F0F00142
:1008000041F0010183F8B410102159609F629A628F
:1008100093F8441001F0FE0141F0010183F8441007
:1008200093F8321001F0F00141F0010183F8321029
:10083000402159609E629A6293F8461001F0FE01D1
:1008400041F0010183F8461093F8331001F0F001F4
:1008500041F0010183F83310803D802159609D6291
:100860009A6293F8471001F0FE0141F0010183F80C
:10087000471093F8331001F00F0141F0100183F895
:10088000331007F57C774FF4806159609F629A625C
:1008900093F84A1001F0FE0141F0010183F84A107B
:1008A00093F8351001F0F00106F5F86641F001010A
:1008B0004FF4006783F835105F609E629A6293F888
:1008C0004B1001F0FE0141F0010183F84B1093F849
:1008D000351001F00F017C3D41F01001042683F832
:1008E0003510C3F88460C3F8A850C3F8A82093F863
:1008F000C21001F0FE0141F0010183F8C21093F82B
:10090000B11001F0F00141F0010183F8B110C3F81A
:100910008440C3F8A800C3F8A82093F8C32002F0CD
:10092000FE0242F0010283F8C32093F8B12002F0E6
:100930000F0242F0100283F8B120F0BC704700BFF4
:10094000008000410800004000010040100000400D
:100950004000004010B5094A0948136A094943F0AC
:10096000800342241362C0F82041884700220649D0
:100970000648074BBDE81040184700BF000800407C
:10098000001C0040A1070000001C00438C58002000
:100990005944000010B4184B184A194804244FF069
:1009A00040415C609A62996293F8422002F0FE0234
:1009B00042F0010283F8422093F8312002F0F00265
:1009C00042F00102202483F831205C609862996231
:1009D00093F8452002F0FE0242F0010283F8452020
:1009E00093F8322002F00F0242F0100283F8322016
:1009F0005DF8044B704700BF0080004104000040D8
:100A00002000004070B5084A084D136A084C094997
:100A1000094843F4007342261362C5F82861A047D1
:100A2000064BBDE87040184700080040001C00401D
:100A3000E148000000240043B05800209509000060
:100A4000F0B4224A224C234B234E2448244D2549FE
:100A50004427C2F890706269012742F480626261A3
:100A6000C3F88470C3F8A860C3F8A80093F8C02046
:100A700002F0FB0283F8C02093F8C02002F0FE02CF
:100A80003A4383F8C02093F8B020022402F0F00229
:100A900083F8B020C3F88440C3F8A850C3F8A80076
:100AA00093F8C12002F0FB0283F8C12093F8C12023
:100AB00002F0FE023A4383F8C12093F8B02002F01E
:100AC0000F0283F8B020F0BC084700BF001C0040B4
:100AD000000800400080004101000240000002C008
:100AE000020002406D4A0000164B93F8482002F0C5
:100AF000FB0283F8482093F8482002F0FE0242F0FF
:100B0000010283F8482093F8342002F0F00242F00A
:100B1000020283F8342093F8492002F0FB0283F8A4
:100B2000492093F8492002F0FE0242F0010283F8C6
:100B3000492093F8342002F00F0242F0200283F89B
:100B4000342070470080004170B50A4B0A4A0B4CB4
:100B50000B490C4842264325C3F89C60C3F88C50CF
:100B6000536943F480535361A047074BBDE870407D
:100B7000184700BF001C0040000800408D4B0000DB
:100B8000003000401C590020E90A000070B4284BD6
:100B9000284D294E29482A494FF480324FF080448D
:100BA0005A619A609C629D6293F8502002F0FE02A6
:100BB00042F0010283F8502093F8382002F0F0024E
:100BC0004FF4003542F0020283F838205D619D60E9
:100BD0009C629E6293F8512002F0FE0242F00102F4
:100BE00083F8512093F8382002F00F0242F02002DF
:100BF0004FF4802483F838205C609862996293F8FF
:100C0000522002F0FB0283F8522093F8522002F0A7
:100C1000FE0242F0010283F8522093F8392002F0DC
:100C2000F00242F0020283F8392070BC704700BF26
:100C300000800041010000C0020000C0000002402E
:100C4000040002C070B50A4B0A4A0B4C0B490C4811
:100C500042264325C3F8A060C3F88C50536943F47F
:100C600000535361A047074BBDE87040184700BFD1
:100C7000001C004000080040154D000000340040FA
:100C8000C45800208D0B0000104B93F8572002F041
:100C9000FE0242F0010283F8572093F83B2002F055
:100CA0000F0242F0300283F83B2093F8562002F006
:100CB000FE0242F0010283F8562093F83B2002F036
:100CC000F00242F0030283F83B20704700800041AD
:100CD00070B50A4B0A4A0B4C0B490C484226432577
:100CE000C3F80C61C3F88C50136A43F0020313621B
:100CF0000022A047064BBDE870401847001C00408A
:100D000000080040595100000004004380580020B2
:100D1000890C000070B51149114C8B69114A1248B9
:100D200043F4005344258B61C4F8E85092F84D30E9
:100D300003F0FE0343F0010382F84D3092F83630A1
:100D400003F00F0343F0400382F836308047074931
:100D5000074B0246BDE870400648184700080040AF
:100D6000001C0040008000419D7A000000A001416D
:100D7000594C00004058002070B51149114CCB6906
:100D8000114A124843F020034425CB61C4F8F850BF
:100D900092F8CD3003F0FE0343F0010382F8CD302A
:100DA00092F8B63003F00F0343F0400382F8B630F8
:100DB00080470749074B0246BDE870400648184780
:100DC00000080040001C0040008000419D7A0000A7
:100DD00000140042594C0000DC58002070B5114945
:100DE000114CCB69114A124843F040034425CB61B2
:100DF000C4F8F85092F8CF3003F0FE0343F001033B
:100E000082F8CF3092F8B73003F00F0343F040037D
:100E100082F8B73080470749074B0246BDE870406B
:100E20000648184700080040001C004000800041B0
:100E30009D7A000000180042594C00002058002004
:100E400070B51149114C8B69114A124843F4006383
:100E500044258B61C4F8E45092F8DE3003F0FE03C1
:100E600043F0010382F8DE3092F8BF3003F0F00364
:100E700043F0060382F8BF3080470749074B02461C
:100E8000BDE870400648184700080040001C0040BC
:100E9000008000418174000000600141594C000055
:100EA0000058002070B51149114C8B69114A124845
:100EB00043F4805344258B61C4F8E45092F84C30DD
:100EC00003F0FE0343F0010382F84C3092F8363011
:100ED00003F0F00343F0060382F8363080470749F9
:100EE000074B0246BDE8704006481847000800401E
:100EF000001C00400080004181740000008001411E
:100F0000594C00006058002070B51149114C0B6A13
:100F1000114A124843F0100344250B62C4F81851DB
:100F200092F8CE3003F0FE0343F0010382F8CE3096
:100F300092F8B73003F0F00343F0050382F8B730BE
:100F400080470749074B0246BDE8704006481847EE
:100F500000080040001C0040008000418174000037
:100F600000100043594C0000FC58002010B4204BE6
:100F70002049214C4FF080724FF080409A60986277
:100F800099625A6193F8582002F0FB0283F85820C6
:100F900093F8582002F0FE0242F0010283F8582034
:100FA00093F83C2002F0F00242F007024FF000718B
:100FB00083F83C20996098629C62596193F85920AB
:100FC00002F0FB0283F8592093F8592002F0FE0248
:100FD00042F0010283F8592093F83C2002F00F02FE
:100FE00042F0700283F83C205DF8044B704700BF6C
:100FF00000800041000100C0000200C010B5094A95
:10100000094B0A494520C2F8A8001A6942F48062D7
:101010001A619A6942F001029A618847044BBDE85F
:1010200010401847001C0040000800401954000000
:101030006D0F000010B51C4B1C4C98471C4B98477B
:101040001C4B98471C4B984763691C491C4A1D4818
:1010500043F40073636190471B4B98471B4B9847C1
:101060001B4B98471B481C4B984763691B491C4AFC
:1010700043F4004340206361C1F8A400904719493C
:10108000194B024619489847194B9847194B9847EE
:10109000194B9847194B9847194B9847194B984744
:1010A000194BBDE810401847B95E00000008004029
:1010B00055090000050A0000410A00000024004014
:1010C0003D47000090580020490B0000450C0000EF
:1010D000D10C000010E000E0CD490000001C0040F1
:1010E000997A0000003C00406D4F00003C59002000
:1010F000150D0000790D0000DD0D0000410E00000F
:10110000A50E0000090F0000FD0F00002DE9F047BB
:10111000344C354E354B3648DFF8DC80DFF8DC9058
:10112000344D01274FF400625221984721463A4638
:1011300030682770C0473A4621463068C847237850
:101140003068277063F07F032146022263704FF0FE
:10115000030AC0473A462146306884F800A0C047D9
:101160003A4621463068C8472378306884F800A0A2
:1011700063F03F03214602226370C0474A222021C8
:101180005220A8472B2221215220A8473A2222216F
:101190005220A847002223215220A8476022242160
:1011A0005220A847C02225215220A847CB22262121
:1011B0005220A847B02227215220A84709222821DF
:1011C0005220A847B92229215220A8470D222A21BE
:1011D0005220A8472B460C222B215220BDE8F04775
:1011E000184700BF7459002070590020D14B0000EF
:1011F0001C590020F18D0000E94B0000194C000043
:101200000146014B52201847FD8C00002DE9F041AA
:101210004FF40062804652211B4C1C481C4B1D4D54
:101220001D4E98470127B8F1FF0F28682770214607
:101230003A4619D8B0473A462146184B286898478D
:1012400023782868277023F0010321460222637067
:10125000B04700232370286884F8018033460A4988
:101260000222BDE8F0411847B0473A4621462868B7
:101270000A4B98472378286827703B43214602226F
:101280006370B047E5E700BF745900201C59002087
:10129000D14B000070590020E94B0000194C0000B0
:1012A00070B54FF400620E4B0E480F4E0F4D522199
:1012B000984711215220B0471221044652202C7029
:1012C000B047240223189BB2024618B2B0F5005F63
:1012D000A8BFA3F580432A70A8BF18B270BD00BF95
:1012E000D14B00001C590020FD8C000074590020D7
:1012F0002DE9F043002783B0DFF86480154EB9462E
:10130000012509E02A464FF000098C2C05F1010562
:10131000274610DD652D1BD0C0471420B047C047BD
:1013200004461420B047A742ECD109F10109B9F1F4
:101330000E0F2A46E9DD00944B460749074C022070
:10134000A0474FF4FA70334603B0BDE8F0431847A6
:101350006422F0E7014A0000EC6F01003DE100006B
:10136000A112000030B5164D164C83B0A847A8470F
:10137000B4F90030834218D0A268208001320023E3
:10138000A26063608B280BDC00900F490F4D022098
:10139000A847002301206360A360238003B030BD11
:1013A000642AF1DC002003B030BD6368A2682080AD
:1013B000013301320E2B6360A260E5DCE2E700BF7F
:1013C000A1120000A02C0020EC6F01003DE1000004
:1013D00070B5074B074C054698472846A0470020A4
:1013E000A0470020A047044BBDE87040184700BF4D
:1013F00061030000810300007103000070B50E4B13
:101400000E4C06460D469847C6F3064040F0800055
:10141000A047C6F30720A047F0B2A047E8B2A04714
:10142000C5F30720A047C5F30740A047280EA047F3
:10143000034BBDE8704018476103000081030000C2
:101440007103000070B50B4B0B4C05460E469847D8
:10145000C5F3064040F08000A047C5F30720A04731
:10146000E8B2A047F0B2A047300AA047034BBDE85E
:101470007040184761030000810300007103000001
:1014800070B50A4B0A4C05460E469847C5F3064010
:1014900040F08000A047C5F30720A047E8B2A0476E
:1014A0003046A047034BBDE8704018476103000079
:1014B000810300007103000030B5124B124C83B061
:1014C00005469847C5F30540A047C5F30720A04748
:1014D000E8B2A04704210DEB01000C4B98470C4BE0
:1014E00098479DF806309DF805109DF804209DF85A
:1014F00007001B0403EB0123134403EB006003B05C
:1015000030BD00BF6103000081030000A90300009B
:101510007103000030B50E4B0E4C83B00546984762
:10152000C5F30540A047C5F30720A047E8B2A04790
:1015300001A80221084B9847084B98479DF80530B1
:101540009DF8040000EB032080B203B030BD00BF63
:101550006103000081030000A90300007103000083
:1015600030B50B4B0B4C83B005469847C5F305408F
:10157000A047C5F30720A047E8B2A04701A8012172
:10158000054B9847054B98479DF8040003B030BDC4
:101590006103000081030000A90300007103000043
:1015A00010B5064C064B2288014602F542109847BA
:1015B00023880433C3F30B03238010BDAC2C00201D
:1015C000FD130000024B03481988034B184700BF66
:1015D000AC2C0020FC2030004514000010B50C4B52
:1015E0000C4C82B098473020A0472020A047002014
:1015F000A04701A80121084B9847084B98479DF840
:101600000400A0F17C00B0FA80F0400902B010BDE7
:101610006103000081030000A903000071030000C2
:1016200070B5464B464D474C98474420A84700208C
:10163000A8474FF49670444B9847A0470028FCD029
:101640004FF44020414C424EA04742494248B047E7
:10165000424B4348984740F6FF73984256D0414D5D
:101660004148424C0021A84700214148A8474FF477
:1016700068714048A04758213F48A04700213F4893
:10168000A04730213E48A04740F20D213D48A047E9
:1016900020213D48A04700213C48A04703213C4869
:1016A000A04700213B48A84701213B48A8474FF4E9
:1016B00048713A48A0474FF4F0713948A0470021DB
:1016C0003848A84701213848A8474FF40041374817
:1016D000A0474FF400412448A047FA213448A047CE
:1016E00000213448A84734494FF44010B0473349EB
:1016F0003348B04700213348B04702213248A84759
:101700002B4605211A48BDE8704018472F48154D53
:10171000A047012104462E48A84700211048A847A9
:1017200000212C48A84700212B48A8470021284821
:10173000A84721462548B04792E700BF3D03000077
:10174000D1130000DD15000031030000B9140000C2
:10175000FD130000008793030C20300015150000D6
:10176000F8203000811400009C2030004514000057
:10177000702030002C203000302030003820300025
:101780003C20300040203000442030004C2030000D
:1017900050203000642030006C20300034203000B5
:1017A0004820300068203000602030009820300051
:1017B000D0203000D4203000FF00000207000026B7
:1017C00004003000080030005420300062913000E6
:1017D00020203000FC203000002130002DE9F04FA7
:1017E00081B0474C0A9D07462846884691469A464E
:1017F000A0471FFA80FBBBF1000F02D101B0BDE88A
:10180000F08F4FEA9B04601C04213E4B984706462C
:10181000002C72D0601E80B206EB80002A46311F79
:10182000937892F803E092F800C01B0443EA0E6339
:1018300092F801E043EA0C0343EA0E2341F8043F27
:10184000814202F10402EBD1A3001BF0030B13D081
:101850009B4456F824001FFA8BFB4FEA840E0021AC
:10186000EA5C01339BB28A405B4540EA020001F129
:101870000801F5D146F80E00DFF894B0224DBBF810
:1018800000006FF0F30100F54210A847BBF80030EC
:101890000433C3F30B0347EA084103F54210ABF8E6
:1018A0000030A847BBF800300433C3F30B0303F543
:1018B000421049EA0A41ABF80030A847BBF80000E3
:1018C0000430C0F30B00ABF800000027BBB200F5FA
:1018D000421056F82310A847BBF800000137043027
:1018E000BBB2C0F30B009C42ABF80000EED2074B3A
:1018F000304601B0BDE8F04F18472346A5E700BFCA
:1019000001180100AD070100FD130000E10801000E
:10191000AC2C002070B50C4C0C4D238806466FF0A3
:10192000EA0103F54210A84723880433C3F30B03ED
:1019300003F5421031462380A84723880433C3F3BC
:101940000B03238070BD00BFAC2C0020FD130000F2
:101950002DE9F04FDFF8B8A0214FDFF8B88083B051
:1019600003E02048D047834536D01F48D04740F693
:10197000FF7398428346F4D11C4CDFF89C901C4EB8
:1019800001E0444509D02046B847314605460246A5
:1019900001A80134C847002DF3D1164B1648174C47
:1019A0009847012105461648A04700210E48A04748
:1019B00000210C48A04700211248A04700211048F0
:1019C000A04729460C48104B9847FA200F4B9847E0
:1019D0000448D0478345C8D103B0BDE8F08F00BFAD
:1019E00061150000FC203000F82030000098300025
:1019F00034700100B91400006291300081140000BD
:101A00002020300000213000FD13000031030000D1
:101A10001515000080983000C112010010B5024673
:101A200004460549054B03209847054B4FF00062DB
:101A30009A61204610BD00BF587001003DE10000D2
:101A40000080004170B50546054CC0F30740A04733
:101A5000C5F30720A047E8B22346BDE87040184709
:101A6000B99E00000A4A0B4B4FF0006110B50420EC
:101A700051619847041E05DB054B4FF000629A61E7
:101A8000204610BD044B98470028F5D0204610BDD5
:101A900000800041B99E00001D1A000070B511B30E
:101AA000B0F5001F1FD2144A144B0E464FF00061D0
:101AB0000446516103209847051E0EDB2046104B5B
:101AC0009847051E12DB0F4B304698470A4B4FF0E4
:101AD000006205469A61284670BD0B4B9847002866
:101AE000ECD0284670BD4FF0FF35F4E7064B984721
:101AF0000028F0D1E7E700BF00800041B99E000058
:101B0000451A0000059F00001D1A0000B0F5001FD7
:101B1000F8B502D300252846F8BD154B154F4FF0F8
:101B2000006204465A61AD200E46B847051E10DB20
:101B30002046114B9847051E15DB3078B847051E27
:101B40000CDB7078B8470A4B4FF0006205469A618B
:101B5000E1E70A4B98470028DDD1E9E7074B9847B2
:101B60000028D8D1EDE7054B98470028D3D1E4E70A
:101B700000800041B99E0000451A00001D1A0000B7
:101B8000F8B500292DD01D4B1546013A9A4228D8A8
:101B9000B0F5001F074624D2194A1A4B0C464FF0E5
:101BA0000061516103209847061E14DB3846164B2E
:101BB0009847061E18DB154F2046B847013D0646DC
:101BC00004F10104F8D1002813DB0D4B4FF0006243
:101BD0009A613046F8BD0E4B98470028E6D0304653
:101BE000F8BD4FF0FF36F4E7094B98470028F0D1D5
:101BF000E1E7074B98470028EBD1E6E7FEFF1F001F
:101C000000800041B99E0000451A0000059F0000B9
:101C10001D1A000070B582B002AC0022084D04F815
:101C2000012D4FF00066074B6E6105209847204656
:101C3000054B9847AE619DF8070002B070BD00BF2C
:101C400000800041B99E0000059F000070B528B3D8
:101C5000144B154E4FF0006204465A61AD20B04758
:101C6000051E10DB2078B047051E12DB60780F4C94
:101C7000B0470C4B4FF0006205469A61A047C3077E
:101C8000FCD4284670BD0A4B98470028EAD0284665
:101C900070BD074B98470028F3D1E7E74FF0FF35B9
:101CA000EFE700BF00800041B99E0000151C000056
:101CB0001D1A00000A4A0B4B4FF0006110B550206E
:101CC00051619847041E05DB054B4FF000629A6195
:101CD000204610BD044B98470028F5D0204610BD83
:101CE00000800041B99E00001D1A000070B5114B24
:101CF000114D06469847114B4FF000625A61012082
:101D0000A847041E0ADB06F0BC00A847041E0BDB34
:101D10000A4B4FF000629A61204670BD084B98470D
:101D20000028F0D0204670BD054B98470028F3D11D
:101D3000EEE700BFB51C0000B99E00000080004126
:101D40001D1A000010B500200E4B9847041E0EDB34
:101D50000D4A0E4B4FF00061516106209847041E5A
:101D60000BDB094B4FF000629A61204610BD084B17
:101D700098470028ECD0204610BD054B9847002816
:101D8000F3D1EEE7ED1C000000800041B99E000099
:101D90001D1A0000164B984270B502D90024204647
:101DA00070BD144B144E0D4604469847134B4FF02C
:101DB00000625A610220B0472046114B9847041E2A
:101DC0000BDB2846B047041E0CDB0C4A0D4B4FF0D2
:101DD00000619161BDE8704018470B4B984700289F
:101DE000DDD1EEE7084B98470028D8D1EDE700BFDA
:101DF000FEFF1F00451D0000B99E0000008000414D
:101E0000451A0000651A00001D1A000051B3174B57
:101E100070B5541E9C4222D8B0F5001F1FD20D464B
:101E20000446134B1646984720462946114B9847BF
:101E3000022E05F102040ADDF21E22F00102043234
:101E40000D4E154420460234B047AC42FAD10B4A3D
:101E50000B4B4FF000619161BDE8704018474FF0A7
:101E6000FF3070BD4FF0FF30704700BFFEFF1F0016
:101E7000451D00000D1B00004D1C000000800041AE
:101E8000651A000070B5094D094B0A4C4FF0006609
:101E900098476E616020084B9847AE61A047C30722
:101EA000FCD4064BBDE87040184700BF00800041DD
:101EB000451D0000151C0000B99E0000651A0000B9
:101EC000B0F5001F38B522D2154B04469847154A85
:101ED000154B4FF00061516120209847051E10DB23
:101EE0002046124B9847051E14DB0E4B104C4FF04A
:101EF00000629A61A047C307FCD40E4B984728465E
:101F000038BD0D4B98470028EAD0284638BD4FF021
:101F1000FF35F4E7084B98470028F0D1E5E700BF0C
:101F2000451D000000800041B99E0000451A0000D8
:101F3000151C0000651A00001D1A0000400007EE85
:101F4000900ADFED0D6A0D480D4BB8EE677A10B5BB
:101F5000C6EE877AFCEEE77A17EE901A01399847B9
:101F6000041E01DB204610BD22460649064B032015
:101F70009847204610BD00BF001B374BC4580020B7
:101F80008D4D00006C7001003DE1000038B5182255
:101F900004460178094D0A480023A847094B32201E
:101FA000984794ED097A94ED0A0A606007EE900A6A
:101FB000A7EE870A84ED020A38BD00BF5145000034
:101FC0008C580020B18E00002DE9F0432DED028BDE
:101FD000044683B018220178334F3448344D354ECF
:101FE0000023B847344B354F322098479FED347A61
:101FF000D4ED016A94ED028A606107EE900A67EE03
:10200000877AB7EE007A67EEA66A77EE677AE068BD
:10201000C6EEA78AA84780468946D4ED047AB1EE79
:10202000487AC7EE276A16EE900AA847254B9847CC
:1020300002460B4640464946B847B04707EE100AED
:10204000C8EE877A204F17EE900AA8471F4B984793
:102050008046894618EE100AA84742464B46B847C4
:10206000B047A8471A4F0EA3D3E90023B847B0479B
:1020700000EE100AE06984ED060A8DED010AA8471A
:102080000022144D144BA847144B98479DED010AAC
:1020900084F8200003B0BDEC028BBDE8F08300BFE4
:1020A0006666666666127140514500008C580020D5
:1020B00055FD0000ED030100B18E0000FDFD0000A4
:1020C0000000803979EF00005100010069F0000044
:1020D00095FA000099FA00000000E03FAD0301000E
:1020E00030B5184B184D017883B0044670209847DE
:1020F0000120164B9847294603224020144B98474D
:102100002A786B789FED136ADFED136A03EB0223E5
:1021100007EE903AB8EEE77AFCEEC77A84ED017AE2
:10212000CDED017ABDF8043007EE903AF8EE677A0B
:10213000AB78237777EEC67A87EEA60A84ED020A9B
:1021400003B030BD458D000074590020DD4900000A
:10215000898C00000000004700004844F8B58C4C12
:102160008C4D8D4E04F18000B047B5F89231B5F832
:102170009011D4F898008B422CBF00235A1C05EB19
:10218000830334BF92B201221860A5F8922100297E
:1021900000F0F5807F4BDFED817A05EB8102B3EC37
:1021A000017A9A4277EE877AF9D107EE101AB8EEE3
:1021B000477A7B48C7EE876AC5ED656AC4ED276A32
:1021C000B047B5F82A33B5F82813D4F8BC008B42D1
:1021D0002CBF00235A1C05EB830334BF92B20122AB
:1021E000C3F89801A5F82A23002900F0CE806D4B92
:1021F000DFED6A7A03EB8102B3EC017A9A4277EE63
:10220000877AF9D107EE101AB8EE477A6648C7EE1A
:10221000876AC5EDCB6AC4ED306AB047B5F8C23401
:10222000B5F8C014D4F8E0008B422CBF00235A1C30
:1022300005EB830334BF92B20122C3F83003A5F843
:10224000C224002900F09E80584BDFED547A03EB46
:102250008102B3EC017A9A4277EE877AF9D107EEE0
:10226000101AB8EE477A524B5248C7EE876AC3ED50
:10227000006AC4ED396AB0474F48B047B5F85A36DE
:10228000B5F858164D4ED4F82801DFED447A8B424C
:102290002CBF00235A1C06EB830334BF92B20122E9
:1022A000A5F85A26186041B1334606EB8102B3EC1B
:1022B000017A934277EE877AF9D107EE101AB8EED9
:1022C000477A3F483F4FC7EE876AC6ED656AC4ED5F
:1022D0004B6AB847B5F8F237B5F8F0173A4ED4F86C
:1022E0003C01DFED2E7A8B422CBF00235A1C06EBFB
:1022F000830334BF92B20122A5F8F227186041B1DE
:10230000334606EB8102B3EC017A9A4277EE877A84
:10231000F9D107EE101AB8EE477A2C48C7EE876A53
:10232000C6ED656AC4ED506AB847B5F88A39B5F8A4
:1023300088192748D4F86861DFED187A8B422CBFE2
:1023400000235A1C00EB830334BF92B20122A5F88C
:102350008A291E6041B1034600EB8102B3EC017A89
:10236000934277EE877AF9D107EE101AB8EE477AE2
:10237000C7EE876AC0ED656AC4ED5B6AF8BDDFED44
:10238000077A12E7DFED057A69E7DFED047A39E7CE
:1023900004000020B02C0020C91F00000000000035
:1023A000A8000020482E0020CC000020E02F0020B4
:1023B00074310020F000002014010020783100204A
:1023C000380100208D1F0000103300206401002020
:1023D000A8340020F8B52D4D2D4C2E4F2E4E05F56E
:1023E000C670B847B4F8223BB4F8201BD5F8940166
:1023F000DFED2A7A8B422CBF00235A1C06EB8303A5
:1024000034BF92B20122A4F8222B186041B13346A6
:1024100006EB8102B3EC017A9A4277EE877AF9D122
:1024200007EE101AB8EE477A1D48C7EE876AC6ED68
:10243000656AC5ED666AB847B4F8BA3CB4F8B81C2A
:102440001848D5F8C061DFED157A8B422CBF002308
:102450005A1C00EB830334BF92B20122A4F8BA2CB9
:102460001E6041B1034600EB8102B3EC017A934256
:1024700077EE877AF9D107EE101AB8EE477AC7EEF1
:10248000876AC0ED656AC5ED716AF8BD0400002079
:10249000B02C0020E12000004036002000000000A9
:1024A000BC010020D83700202DE9F041334C344DD9
:1024B00034493548354EDFF81C81354F3223A4F8B6
:1024C000503EA4F8203BA4F8B83CA4F89031A4F8FE
:1024D0002833A4F8C034A4F858360023A4F8523E98
:1024E000A4F8223BA4F8BA3CA4F8F237A4F88A393D
:1024F000A4F89231A4F82A33A4F8C234A4F85A36C6
:102500001923A4F8F037A4F88839A8471D49C6F85C
:102510005C012048A8474146C6F888011E48A847E4
:102520004146C6F858011D48A8471D49C6F8840110
:102530001C48A8471C4B1D4918601D48A8471D4949
:10254000F0651D48A8471D49C6F800021C48A84769
:1025500007EE900AFDEEE77A00211A48C6ED7C7A74
:10256000A84704F65864184B6061184938469847E4
:102570003846174BBDE8F041184700BFB02C00208B
:1025800029AF0000000040C190700100040000204D
:10259000805800209C700100A4700100AC70010004
:1025A0000E4F2F3DB47001005C59002000004040E8
:1025B000BC7001000000A841C470010000E0C445E7
:1025C000CC700100D4700100C9510000585900209E
:1025D0009D510000CDCC4C3C2DE9F843454B2DEDF1
:1025E000028B93ED668AB5EEC08AF1EE10FA72DDC9
:1025F000D3ED718AF5EEC08AF1EE10FA6BDD78EE5C
:10260000687A3D4D3D4C3E4E17EE900AA847002299
:102610003C4BA047804618EE900A8946A847002206
:10262000394BA04702460B4640464946B0478046D4
:1026300018EE100A8946A847344C02460B4640461D
:102640004946A047324B9847DFF8E4E0CEF8040053
:10265000304C314FB4F8523EB4F8501EDFED2F7AB3
:102660008B422CBF00235A1C07EB830334BF92B26A
:102670000122A4F8522E186041B13B4607EB8102BB
:10268000B3EC017A9A4277EE877AF9D107EE101A05
:10269000B8EE477AC7EE876AC7ED656ACEED026A83
:1026A00016EE900AA84700221D4BB0471D4B9847D5
:1026B0001D4AC3B2A2FB03239B0803EB8303DBB2D7
:1026C000142B10D9642B88BF642384F87C3EBDECA6
:1026D000028BBDE8F883DFF858E01448064D084E39
:1026E000CEF80400B4E7152384F87C3EBDEC028BE1
:1026F000BDE8F8830400002055FD0000FDFD00004A
:1027000099FA0000000035400000594051000100D6
:10271000ED030100B02C0020703900200000000003
:1027200000000440AD030100CDCCCCCC9A99A74168
:10273000203B002000000000454BD3ED5B7A454B69
:10274000B1EE087AF4EEC77AF1EE10FA2DE9F0470F
:10275000414C25D917EE900A98472FA3D3E90023BF
:1027600006460F463D4DA0472DA3D3E90023A847B9
:102770002DA3D3E900238046894630463946A04739
:1027800032463B46A047364C02460B464046494639
:10279000A047344B9847344B58609860BDE8F087A9
:1027A00017EE900A984722A3D3E9002306460F4666
:1027B0002A4DDFF8ACA0A0471FA3D3E90023A84708
:1027C0001FA3D3E900238046894630463946A047F7
:1027D00032463B46A04702460B4640464946D04754
:1027E00019A3D3E900238046894630463946A047DD
:1027F00032463B46A04732463B46A04702460B4680
:1028000040464946A847174B9847174B5860986071
:10281000BDE8F087AFF30080F2D24D621058D93F87
:102820005C8FC2F5285C0B40DE718A8EE4F26F3F4C
:1028300066666666666602401904560E2DB2D53F7E
:102840005EBA490C022BDF3F94F6065F984CA53F19
:102850000400002055FD0000FDFD000099FA000075
:1028600095FA0000ED030100383B00200000000055
:102870002DE9F047364B374C374F384EDFF8F8A08C
:10288000374D2DED028B9847364B984704F68863F9
:10289000D7ED668A93ED028A68EEA87A38EEC88A88
:1028A00004F56A6317EE900A83ED018AB04722A30C
:1028B000D3E90023D047804618EE900A8946B047F6
:1028C0001FA3D3E90023D04702460B4640464946A2
:1028D000A8471DA3D3E90023A847234B984797EDAA
:1028E000507A224B07EE900A37EE677A28EE488A34
:1028F000D3ED007AF0EE476AE8EE276A04F65863F3
:1029000004F6B86282ED017AF0EE667AD3ED056ADC
:1029100077EEE67AC3ED017A17EE900AB04700220F
:10292000134BA847134B9847BDEC028B84F8640EF9
:10293000BDE8F087AFF3008020D26F5F07CE893FFC
:10294000E7C6F484251E803F295C8FC2F528D43F5A
:10295000D9250000B02C00200400002055FD000007
:1029600099FA000039270000ED0301005C590020AE
:102970000000E03FAD030100FDFD000010B50B4B72
:102980000178702098470120094B98474FF48051F7
:102990004020084B98470120074B984703220749DE
:1029A000074B4020BDE81040184700BF458D000090
:1029B000DD490000998D0000014A00007459002093
:1029C000898C000070B5064D064C05F5C670A04711
:1029D00005F5DC70A0470A20034BBDE8704018479E
:1029E000040000207D290000014A0000034A044B36
:1029F00001460448C2F85811184700BF04000020DF
:102A00009DAD0000A4700100034A044B0146044838
:102A1000C2F88411184700BF040000209DAD0000DB
:102A2000AC700100034A044B01460448C2F85C1133
:102A3000184700BF040000209DAD0000EC700100AD
:102A4000034A044B01460448C2F88811184700BFE6
:102A5000040000209DAD00009C700100014BD3F8E4
:102A60005801704704000020014BD3F884017047DF
:102A700004000020014BD3F85C01704704000020E3
:102A8000014BD3F888017047040000200D4A0E4B1B
:102A900070B5106098470D4D0D4B0E4C0022A847A5
:102AA00000220D4D0D4BA8470D4B98470D4B82B2A0
:102AB0004FF4FA712046984720460B4BBDE8704012
:102AC000184700BF803B002055FD00005100010069
:102AD0000000594060580020FDFD000000407F408C
:102AE000AD030100E14C0000A14C0000014B18684F
:102AF000704700BF803B00202DE9F04F8BB00D46A2
:102B0000784B09910646084698472846764B774DFC
:102B1000DFF81092764F774CDFF80C829847024628
:102B20000B4602207449CDE90623A84740F2DC5049
:102B3000C84772490220A84707F5DC7B04F6283510
:102B40004FF0320A5846C047B4F8BA3CB4F8B81C43
:102B5000D7F8C0018B422CBF00235A1C05EB83031E
:102B600034BF92B201221860A4F8BA2C002900F0F8
:102B7000B580634BDFED637A05EB8102B3EC017A3C
:102B8000934277EE877AF9D107EE101AB8EE477ABA
:102B9000BAF1010AC7EE876AC5ED656AD2D15A4912
:102BA00071610022B2615949504BDFF880B10220B7
:102BB00098475846C047B4F8BA3CB4F8B81CD7F8A0
:102BC000C0018B422CBF00235A1C05EB830334BF8A
:102BD00092B201221860A4F8BA2C00297BD0484B8D
:102BE000DFED487A05EB8102B3EC017A934277EE90
:102BF000877AF9D107EE101AB8EE477A96ED056A92
:102C0000434BC7EE876A83FB0A234FEAEA72C2EBA3
:102C1000A30303EB8303D6ED067AC5ED656AB4EE34
:102C2000E66AF1EE10FAF4EEE67AC8BFC6ED056A80
:102C3000F1EE10FA48BFC6ED066ABAEB430F35D085
:102C40000AF1010A0A20C847BAF1320FB1D12F495F
:102C5000264B02209847D5F89431DDED097A33618F
:102C60002C4BC6ED107A98681F4B34889847224643
:102C7000CDE900011D4B28490220984730691A4BC5
:102C80009847194B0446B0690D469847CDE90201B3
:102C9000154B706998472246CDE900012B461F4924
:102CA000124C0220A0470BB0BDE8F08F194B98687A
:102CB0000D4B9847CDE904010B4B306998479DEDCA
:102CC000067BCDE902018DED007B52461449074B8E
:102CD00002209847B4E7DFED0B7A8BE7DFED097A46
:102CE00052E700BF8D2A000055FD00003DE10000C5
:102CF00004000020B02C0020F470010010710100CD
:102D0000D8370020000000000000C84220710100F8
:102D100067666666203B00206071010084710100D7
:102D20003C710100014A0000E1200000BC010020CC
:102D30002DE9F04F2DED028B8BB0B1F5004F0991CD
:102D4000064600F2748140F2FF10884228BF084610
:102D5000B84CB94BA4F8D40E9847099AB749B84B68
:102D6000DFF81893DFF818A30220984740F2DC50F0
:102D7000B44B9847B449B24B0220984704F5FF681A
:102D800009F59A7B64255846D047B4F8F237B4F871
:102D9000F017AE4FD9F838018B422CBF00235A1CD4
:102DA00007EB830334BF92B201221860A4F8F22724
:102DB000002900F03981DFEDA67A3B4607EB81025E
:102DC000B3EC017A934277EE877AF9D107EE101AC5
:102DD000B8EE477A9D4B9F48C7EE876AC3ED656A98
:102DE000D047B4F88A39B4F88819D9F864018B420D
:102DF0002CBF00235A1C08EB830334BF92B201227C
:102E00001860A4F88A29002900F00B81924BDFEDAD
:102E1000907A08EB8102B3EC017A9A4277EE877AD6
:102E2000F9D107EE101AB8EE477A013DC7EE876A6E
:102E3000C8ED656AA7D10023884A736233633262A2
:102E4000F26287497E4BDFF83CB202209847854802
:102E50007E4FD047B4F8F237B4F8F017D9F83801FC
:102E60008B422CBF00235A1C07EB830334BF92B262
:102E700001221860A4F8F227002900F0CF80DFEDCE
:102E8000747A3B4607EB8102B3EC017A9A4277EE03
:102E9000877AF9D107EE101AB8EE477A6B4B6D4876
:102EA000C7EE876AC3ED656AD047B4F88A39B4F8CB
:102EB0008819D9ED596A8B4235BF5A1C002392B24A
:102EC000012208EB8303C3ED006AA4F88A290029D4
:102ED00000F0A180604BDFED5E7A08EB8102B3EC7D
:102EE000017A9A4277EE877AF9D107EE101AB8EE96
:102EF000477A99ED4E8A96ED086A5B4BC7EE878A52
:102F000083FB0523EA17C2EBA30303EB8303D6ED90
:102F1000097AC8ED658AB4EEC68AF1EE10FAB4EE0D
:102F2000E78AD6ED0B7A48BF86ED088AF1EE10FAF3
:102F3000F4EEE76AD6ED0C7AC8BF86ED098AF1EEA9
:102F400010FAF4EEE76A48BFC6ED0B6AF1EE10FA2C
:102F5000C8BFC6ED0C6AB5EB430F40D001350A205F
:102F6000384B9847642D7FF472AF3D49344B0220B3
:102F70009847364B3D49D3F89421D8F89431F26103
:102F8000099A3280B36202202D4B9847F069D847E6
:102F90000446706A0D46D847CDE90201306AD84729
:102FA00022462B46CDE90001254C31490220A0479D
:102FB000B06AD8470446306B0D46D847CDE90201C8
:102FC000F06AD8472246CDE900012B4629491C4C1E
:102FD0000220A0470BB0BDEC028BBDE8F08F16EECF
:102FE000900AD847CDE9060118EE100AD847CDE976
:102FF000040118EE900AD847CDE90201134B104F97
:10300000D3F89401D847099BCDE900012A461A4913
:103010000220B847A2E7DFED0E7A66E7DFED0C7A13
:1030200038E7DFED0B7AFCE6DFED097ACEE600202B
:103030008EE600BFB02C00200D120000AC71010024
:103040003DE10000014A0000107101001033002032
:103050000000000064010020A83400200060EA465F
:10306000C471010038010020676666661C720100A9
:103070003072010058720100F0710100040000205C
:103080008D1F000055FD00002DE9F04F2DED048B44
:103090008BB0B1F5004F0991044600F2D08140F2A7
:1030A000FF10884228BF0846B94EBA4BA6F8D40E86
:1030B0009847099AB849B94BDFF820B3DFF820A345
:1030C0000220984740F2DC50B54B9847B549B34BC6
:1030D000022098476425D847D047013DFBD1B24A2A
:1030E000A2600023E360A3616362236362612262E2
:1030F000E262AE49A94BDFF8BC820220984708F58E
:10310000CC79D847D047B6F8F237B6F8F007A84AD6
:10311000984292ED508A93BF00235A1C92B201222A
:1031200008EB830383ED008AA6F8F227002800F05D
:103130008381A04BDFEDA07A08EB8002B3EC017A2B
:10314000934277EE877AF9D107EE100AB8EE477A04
:10315000B6F88A39B6F88819954A87EE876A99428F
:1031600098BF0023D2ED5B6A88ED656A86BF5A1C62
:1031700092B2012209EB8303C3ED006AA6F88A2903
:10318000002900F056818D4BDFED8B7A09EB81022F
:10319000B3EC017A934277EE877AF9D107EE101AF1
:1031A000B8EE477A824B94ED026AD3ED668A804B83
:1031B000C7EE875AD4ED037A93ED719AC9ED655A3B
:1031C000B4EEE86AF1EE10FAF4EEE87AD4ED057A9E
:1031D000C8BFC4ED028AF1EE10FAF4EEC97AD4ED5C
:1031E000067A48BFC4ED038AF1EE10FAF4EEC97A0C
:1031F000D4ED087AC8BF84ED059AF1EE10FAB4EE6A
:10320000E78AD4ED097A48BF84ED069AF1EE10FA08
:10321000B4EEE78AD4ED0B7A694B48BF84ED088A97
:10322000F1EE10FAF4EEE76AD4ED0C7AC8BF84ED43
:10323000098A83FB0523EA17F1EE10FAC2EBA30318
:10324000F4EEE76A48BFC4ED0B6A03EB8303F1EECB
:1032500010FAC8BFC4ED0C6AB5EB430F00F0CA808A
:1032600001350A204E4B9847642D7FF44AAF4F49F1
:103270004A4B4A4D022098474D4B099AD3ED715A5B
:1032800093ED506AD3ED5B6A93ED665AC4ED045A30
:1032900035EE657A76EE867AF6EE004A67EEA47A27
:1032A00027EE074A84ED015AC7EE844A2280454939
:1032B0003A4B022084ED0D7A84ED076AC4ED0A6A68
:1032C000C4ED0F4AC4ED0E7A984760683E4B9847AC
:1032D0003D4B0646E0680F469847CDE902013A4B60
:1032E000A06898473246CDE900013B4637490220A5
:1032F000A8472069344B9847334B0646A0690F46D0
:103300009847CDE90201304B606998473246CDE9D4
:1033100000013B462E490220A847E0692A4B984706
:10332000294B0646606A0F469847CDE90201264BB5
:10333000206A98473246CDE900013B4625490220E4
:10334000A847A06A204B98471F4B0646206B0F46A4
:103350009847CDE902011C4BE06A98473246CDE917
:1033600000013B461C490220A847606B164B98475A
:10337000154B0646E06B0F469847CDE90201124B0C
:10338000A06B98473246CDE900013B462AE000BFDA
:10339000B02C00200D120000AC7101003DE10000D6
:1033A000014A0000107101000000C8428072010053
:1033B000040000201033002000000000A83400208A
:1033C000676666661C72010055FD0000A872010068
:1033D0008471010030720100587201005D2100000B
:1033E000D523000017490220A8470BB0BDEC048B81
:1033F000BDE8F08F16EE900A134B144F9847124B0E
:10340000CDE9060118EE100A98470F4BCDE90401EB
:1034100019EE100A98470C4BCDE9020118EE900AFC
:103420009847099BCDE900012A4609490220B8477F
:1034300016E7DFED087AB1E6DFED067A84E60020D4
:1034400032E600BFD072010055FD00003DE10000F2
:10345000F07101000000000070B504468EB0C06B32
:10346000134D2688A847CDE90C01A06BA847CDE9EC
:103470000A01606BA847CDE90801A06AA847CDE919
:103480000601E069A847CDE904012069A847CDE914
:1034900002016068A8473246CDE90001054B0649A4
:1034A00002209847054B05200EB0BDE87040184734
:1034B00055FD00003DE1000010730100014A0000CD
:1034C00070B5044686B0006C0B4D2688A847CDE940
:1034D0000401A06AA847CDE90201E069A847324685
:1034E000CDE90001054B064902209847054B052010
:1034F00006B0BDE87040184755FD00003DE10000F2
:1035000048730100014A00002DE9F04F2DED028BB8
:1035100059495A4B5A4D5B4C83B0022098475A493F
:10352000564B022098475949544B02209847584916
:10353000524B02209847C8231846564AA5F8D43E55
:1035400090474FF4FA50544B984705F6D86600233D
:10355000A5F8523E30465149514B9847D6F810B025
:10356000B246472507EE905AF8EEE77A4C4B4D4F9E
:1035700017EE901A504698473069A0478046584643
:103580008946A0473AA3D3E90023B847464F0246ED
:103590000B4640464946B847002850D101355A2DC0
:1035A000E0D13F4B3D49414898474623D6F810A00B
:1035B00001934FF04B0B019D02E001355D4539DC75
:1035C00007EE905AB8EEE78A354B3848354F18EE7B
:1035D000101A98473069A047804650468946A04750
:1035E00023A3D3E90023B8472F4F02460B4640469A
:1035F0004946B8470028E0D000202D4B0195984758
:10360000019A2C491D4B02209847DFED2B7A2B4A5B
:103610002B482C4B28EE278ABDEEC88AF8EEC87AD4
:1036200082ED7C8A17EE901A03B0BDEC028BBDE8E8
:10363000F04F1847DDED017AB8EEE78AE0E7AA1E01
:10364000174600201A4B0192984707EE907AB8EE81
:10365000E78A05F1030B18EE101A1448104B98472F
:10366000BB45D6F810A0A6DACAE700BFAFF30080CA
:103670009A9999999999C93F647301003DE10000B5
:10368000B02C002055FD00009C730100D073010098
:10369000F87301000D120000014A000000008C4286
:1036A000F92A000099FA00001D030100883B002060
:1036B0008D2A0000107401000000C84204000020A0
:1036C000CC7001009DAD00002DE9F0410023144CA9
:1036D000144AA4F8D43E1846904704F65868124B92
:1036E000124F134E134D98470023C8F8143064242A
:1036F000B847B047A847013CFAD1D8F804000E4BB0
:10370000C8F8140098470D4C0B4602460C4902209D
:10371000A047D8F814100B480B4BBDE8F0411847F0
:10372000B02C00200D120000F11200005D210000FD
:10373000D52300007128000055FD00003DE1000088
:1037400030740100D47001009DAD000010B500235D
:10375000044C054AA4F8D43E184690470123C4F807
:103760001C3F10BDB02C00200D120000014BD3F8FF
:103770001C0F7047B02C002010B5114C94F820326B
:1037800003B910BD0F4B9847B0F5C87F13DB0E4A45
:103790000E4B916804F5F2709847D4ED867A9FED50
:1037A0000C7A0C4BF8EEE77ABDE81040C7EE876A5A
:1037B00016EE900A18470020064BBDE81040184747
:1037C00004000020A1120000203B00203DED00007D
:1037D0000000C8428D2A00001A4BD3ED017ABFEEDB
:1037E000007AF4EEC77AF1EE10FA2AD410B5164C2E
:1037F00094F87C3003B910BD94ED176ADFED136ABD
:103800009FED137A134BA6EE267A04F1400017EED3
:10381000901ABDEEC77A84ED157A9847B4F8740013
:10382000B0F5004F07D900200B4A0C4BA2F8D40E7C
:10383000BDE81040184740F2FF13984228BF1846D1
:10384000F2E77047083B00200400002000005C42C3
:103850000000F6423DED0000B02C00200D120000EB
:103860002DE9F04F2DED028B044683B05249DFF86D
:1038700090B10220D84700235049514AA1F8D43EC4
:10388000184690473CB14F4C4F4D01E01420A847DB
:10389000A0470028FAD04D4B4D4D4E4E9FED4E8A1D
:1038A00098474E4902460220D84705F59A77642486
:1038B0003846B047B8EE488AD5ED4E7A38EE278ABA
:1038C000013CBCEEC88AF3D118EE102A444B454F98
:1038D000D5F85C01DFF82C81DFF82CA1A3FB0223D3
:1038E0005B0907EE903AF8EEE77A08EE104AC5ED6C
:1038F000527AB84702460B4602203B49D84795ED1D
:10390000527AD5ED567A394867EEC77A642417EEB5
:10391000901AC5ED577AC047D5F85C01B847024602
:103920000B4602203249D8475046B047B8EE488A85
:10393000D5ED597A38EE278A013CBCEEC88AF3D11E
:1039400018EE102A264BD5F88801A3FB02235B0949
:1039500007EE903AF8EEE77AC5ED5D7AB847024691
:103960000B4602202349D84795ED5D7AD5ED617A63
:10397000214867EEC77A17EE901AC5ED627AC04704
:10398000D5F88801B84702460B4602201849D847A7
:10399000D5F84801B8478046D5F874018946B8473C
:1039A0004246CDE900014B4614490220D84703B0F6
:1039B000BDEC028BBDE8F08F84740100B02C0020B8
:1039C0000D12000065130000014A0000A112000062
:1039D000040000208D1F000000000000AC740100F6
:1039E0001F85EB5155FD0000C8740100EC7001000B
:1039F000EC7401000C7501009C7001003075010031
:103A00003DE100009DAD0000640100202DE9F04F74
:103A1000AD49AE4DAE4EDFF80C83AE4FAE4CA3B009
:103A20000220A847AD490220A847AD490220A84777
:103A3000AC4B012098474FF0C809AB490220A8477A
:103A40004846A6F8D49EC0474FF4FA50A74B984773
:103A50000023494606F6D860A6F8F237A6F88A3958
:103A6000B847A3490220A847A0470028FCD0DFF8A8
:103A7000B8B2DFF8B8A2DFF8B892D847D0475022E2
:103A800001460EA8C8470EA90220A8479DF8383065
:103A9000782B00F05B81712B00F05881954B0EA8BC
:103AA0009847954B9847954BC82118641846B847D6
:103AB000924B4FF4967103F14800B84790490220A9
:103AC000A847A0470028FCD0D847D047502201463D
:103AD0000EA8C8470EA90220A8479DF83830782BB9
:103AE00000F03481712B00F03181824B0EA8984791
:103AF000814B9847834B4FF4967118641846B8472A
:103B0000804B4FF4C87103F14400B8477C49022050
:103B1000A847A0470028FCD0D847D04750220146EC
:103B20000EA8C8470EA90220A8479DF83830782B68
:103B300000F00C81712B00F009816E4B0EA89847A4
:103B40006D4B9847704B4FF4C87118641846B847CE
:103B50006D4B4FF4E17103F14400B847684902200E
:103B6000A847A0470028FCD0D847D047502201469C
:103B70000EA8C8470EA90220A8479DF83830782B18
:103B800000F0E480712B00F0E1805A4BDFF8A49143
:103B9000DFF8A4B10EA89847574B98474FF4E1714E
:103BA000C9F840004846B84759F8A84C0694A9F10E
:103BB000D00300241B6C59F8602C59F8481C59F8A4
:103BC0001C0CD9F828C0D9F840E059F8047C0194BD
:103BD00005AC0A9307920B910890009404AB0AAAD3
:103BE00006A90420CDF824C0CDF834E00C97D847BE
:103BF000002840F0BA80DDED047AF5EEC07AF1EEEF
:103C000010FA07DDB7EE007AF4EEC77AF1EE10FA9B
:103C100000F1DC803D493E4F0220A8470498B84798
:103C200002460B46CDE902230598B847DDE9022399
:103C3000CDE9000137490320A847304BD9F81C7063
:103C4000D3F81CA0D3F864C0D3F8A8E000940020F7
:103C5000019004AB0AAA06A90420CDF818A0CDF85B
:103C60001CC0CDF820E00997D847002879D1DDEDB8
:103C7000047AF5EEC07AF1EE10FA06DDB7EE007ABE
:103C8000F4EEC77AF1EE10FA73D42349204C0220E7
:103C9000A8470498A047824605988B46A0475246FD
:103CA000CDE900015B461B490320A84700231846C5
:103CB000A6F8D43EC0471949194C0220A8470F481E
:103CC000A0471048A04739E0647501003DE10000BD
:103CD000B02C0020312D0000D9B400008C750100FB
:103CE000D075010061380000F8730100014A00003E
:103CF0001C7601009D070100ED030100883B0020B8
:103D00006C760100D03B0020143C0020207701009D
:103D100055FD0000D876010020780100B078010040
:103D2000C13400000D120000D9B6000055C10000DA
:103D300081190100583C002041EE00003C48A0479A
:103D40003C48A0473C490220A84707E003203B49E4
:103D5000A84700231846A6F8D43EC04723B0BDE8C4
:103D6000F08F37490220A847A0E736490220A8472C
:103D700063E7DDED057AF5EEC07AF1EE10FA84D551
:103D80009FED317AF4EEC77AF1EE10FA7FF77DAF4E
:103D90002E492F4C2F4F0220A8470498A047824657
:103DA00005988B46A0475246CDE900015B462A495B
:103DB0002A4C0320A84705992948C7F85C11A04759
:103DC00004992848C7F85811A0476FE7DDED057A38
:103DD000F5EEC07AF1EE10FA7FF51CAF9FED1A7A7E
:103DE000F4EEC77AF1EE10FA7FF714AF1E49184FC0
:103DF000DFF860A00220A8470498B84702460B46A7
:103E0000CDE902230598B847DDE90223CDE9000199
:103E10001649124F0320A84705991548CAF888117A
:103E2000B84704991348CAF88411B84705E700BF9A
:103E3000143C0020583C0020007F01004C7601001B
:103E40006878010064770100000048C29C77010097
:103E500055FD000004000020D87701009DAD000052
:103E6000EC700100A4700100A0760100D87601007A
:103E70009C700100AC70010070B56D4CD4F81C3F13
:103E8000112B13D8DFE813F0150097003A00160045
:103E90003E004700A700B700C100C400C800CC0026
:103EA000D0005B0016009400200022000023C4F81C
:103EB0001C3F70BD5F4B98470028FAD0D4F81C3FD8
:103EC0000133C4F81C3F70BD5B4B98475B495C4EA7
:103ED0005C4D0220B0475C48A8475C48A8475C4856
:103EE000A8475C48A8475C48A8475C48A8475C4985
:103EF0000220B0470023C4F81C3F70BD0323C4F860
:103F00001C3F70BD574B00209847D4F81C3F01332D
:103F1000C4F81C3F70BD5449494B02209847C82340
:103F20001846524AA4F8D43E9047D4F81C3F504A51
:103F300001330021C4F81C3F42F8841C70BD0023EB
:103F400018464A4AA4F8D43E90473F4B484AD3ED1E
:103F5000216AD3ED0F7A93ED325AD3ED435A93EDA4
:103F6000546A12ED237A434D4348444B77EEA67AC8
:103F7000F1EE086A77EE857A77EEA57A77EE867AA3
:103F800077EE877A87EEA67A17EE101A85ED007A1B
:103F9000984728683A4B2A4D98470B4602463949BC
:103FA0000220A847D4F81C3F0133C4F81C3F70BD61
:103FB000354B984782E73549214B0220984700232B
:103FC00018462A4AA4F8D43E9047D4F81C3F01333F
:103FD000C4F81C3F70BD264B53F8842C511CC82AD2
:103FE00043F8841C7FF765AF07210022C4F81C1F2B
:103FF00043F8842C70BD1448C821254B9847D4F849
:104000001C3F0133C4F81C3F70BDFA210F48F4E790
:104010004FF496710E48F0E74FF4AF710D48ECE79E
:104020004FF4C8710C48E8E74FF4E1710B48E4E73E
:10403000B02C002065130000D5AC000040790100D1
:104040003DE1000059340000883B0020D03B0020B7
:10405000143C0020583C00209C3C0020E03C002008
:10406000007F010061380000F87301000D120000AC
:10407000A83D00205C590020B47001009DAD0000F7
:1040800055FD000020790100C9360000D0780100FC
:1040900089300000044B0022C3F80C22C3F8102220
:1040A000C3F81422704700BF04000020024B002216
:1040B0009A66DA661A67704704000020014BD3F84D
:1040C0009801704704000020014BD3F8C4017047E9
:1040D00004000020B0F5004F09D840F2FF139842C9
:1040E000064A28BF1846064BA2F8D40E1847034AC2
:1040F000034B0020A2F8D40E184700BFB02C0020BC
:104100000D120000014BB3F8D40E7047B02C002004
:10411000014BD3F84001704704000020014BD3F855
:104120006C01704704000020014BD3F89C007047DD
:1041300004000020014BD3F8C000704704000020A9
:10414000014BD3F8E400704704000020014BD3F882
:104150002C01704704000020014BD3F890017047F8
:1041600004000020014BD3F8BC017047040000207C
:10417000014BD3F83801704704000020014BD3F8FD
:104180006401704704000020014BD3F8940070478D
:1041900004000020014BD3F8B80070470400002051
:1041A000014BD3F8DC00704704000020044B93F867
:1041B000A00007EE900AF8EE677A17EE900A7047B3
:1041C00004000020044B93F8300107EE900AF8EE4B
:1041D000677A17EE900A704704000020014BD3F86D
:1041E0002401704704000020014B83F8200270472F
:1041F00004000020014B93F82002704704000020C7
:10420000034A044B01460448C2F80012184700BF95
:10421000040000209DAD0000C4700100014BD3F8E4
:104220000002704704000020014BD3F804027047DD
:1042300004000020014BD3F818027047040000204E
:10424000014BD3F80802704704000020014BD3F85B
:104250001002704704000020014B9868704700BFAF
:10426000203B00200D4BD3ED027AB3EE047AF4EE3E
:10427000C77AF1EE10FA0BD49FED097AF4EE477A83
:10428000F1EE10FAC8BFF0EE477A17EE900A7047C9
:10429000F0EE477A17EE900A704700BF203B0020EF
:1042A0000000C842014BC3F8E4017047040000203D
:1042B000014BC3F8E801704704000020014BC3F82C
:1042C000EC0170470400002007EE100ADFED077ACA
:1042D000074A084B084867EE277AFDEEE77AB8EE02
:1042E000E77AC2ED7C7A17EE101A18470000C84230
:1042F000040000209DAD0000CC700100024A034B79
:1043000001460348D1651847040000209DAD000018
:10431000BC700100014BD86D704700BF0400002045
:10432000014B186E704700BF04000020014B83F85A
:104330007C00704704000020014B586F704700BF9D
:1043400004000020014B586E704700BF040000209D
:10435000014BD86E704700BF04000020014B586825
:10436000704700BF083B0020044B93F8640E07EE33
:10437000900AF8EE677A17EE900A7047B02C00208A
:10438000014B5868704700BF683B0020014B5868DC
:10439000704700BF503B0020014B93F87C007047F2
:1043A00004000020014B1864704700BF0400002087
:1043B000014B5864704700BF04000020014B986413
:1043C000704700BF04000020014B83F83C00704799
:1043D00004000020014B5868704700BF383B0020A4
:1043E000014B1868704700BF5C590020024A034B1C
:1043F00001460348116018475C5900209DAD00003C
:10440000B4700100014B1869704700BF583C002090
:10441000014B586C704700BF04000020014B986CA2
:10442000704700BF04000020014B186C704700BFAC
:1044300004000020014BD3F8E8017047040000207D
:10444000014BD3F8EC01704704000020014BD3F876
:10445000E40170470400002070B50D46044660B1C9
:10446000081C18BF01200549054B392298472946E9
:104470002046044BBDE870401847F4E7747901000A
:10448000B9570000855D000038B50446003018BFFC
:1044900001200D464E220449044B984720462946E8
:1044A000034B9847002038BD74790100B9570000CC
:1044B000BD5D00002DE9F84F0D4690469A46044632
:1044C000002836D0002A35D0181C18BF01206722DA
:1044D00019491A4F1A4EB8471A4B20469847814639
:1044E0009AFBF0F009FB10A0B0FA80F040096922B5
:1044F0001149B8471FFA89FB00272046124B9847FD
:1045000029462046B0470028FAD0294620460F4BBE
:104510009847B9F1010F08F8070003D908EB070322
:10452000000A58705F44BFB2BA45E6D83846BDE8C5
:10453000F88FCCE71046CAE774790100B95700003C
:10454000E55D0000D15D0000F15D0000095E000046
:10455000F8B50446003018BF01200D4616461F4628
:1045600099220549054B984720463B463246294645
:10457000034CA0470020F8BD74790100B957000032
:10458000155E0000EFF31083036072B6BFF35F8F18
:10459000704700BFBFF35F8F036883F310887047D5
:1045A00010F003000DD00C2917D8012303FA01F1F4
:1045B00041F2AA5319420DD111F4256F18D00F48BA
:1045C00070470C2908D8012303FA01F141F2AA53DC
:1045D000194204D00A48704770470020704711F410
:1045E000256FECD111F0040F064808BF002070477A
:1045F00011F0040F044808BF00207047008D270009
:1046000080DE2800803B260000EA24002DE9F041EE
:10461000DFF894E0224E05460C4601E0E41A01352D
:10462000AFB217F0030F0CBF734633469C42F5D26E
:104630000126DFF8788001E0241ADEB231462846F0
:10464000C047A04206F10103F6D9164B9C424FF039
:10465000010007D9A4F5A834A4F5C07401309C4228
:10466000C0B2F7D8B4F5616F4FF0000106D3A4F5DE
:1046700061640131B4F5616FC9B2F8D23B2C4FF0DF
:10468000000304D93C3C01333B2CDBB2FAD8107157
:10469000D78056719170537014700020BDE8F0817E
:1046A0008033E1017F5101000085E201A145000056
:1046B0002DE9F84FBDF830709DF828809DF82C60EA
:1046C0003D1A15F0FF058A4699462ED00024DFF8E2
:1046D00064E080B2234603E001339D42744409D074
:1046E000C1188907F8D1013304F1F1749D4204F532
:1046F0000544F5D1012E09D9DFF83CB00125E9B216
:104700003846D8470135AE420444F8D13C2010FB6E
:1047100002A2074B4FF4616A08F1FF300AFB092936
:1047200003FB00902044BDE8F88F2C46E2E700BF71
:10473000805101008033E101A145000038B50446F5
:1047400000300D4618BF01200A4B0B494FF4E072B0
:1047500098472368AB420BD03BB925602046074BF6
:10476000984740F2B273A36138BD6FF0110038BDB5
:10477000002038BDB9570000907901004164000065
:1047800010B50446003018BF012040F2E51204497C
:10479000044B98472046044B9847002010BD00BFAB
:1047A00090790100B9570000AD640000F0B50446EF
:1047B000003087B018BF01200D464FF40372154931
:1047C000154B98472046154B984704AA0146144BB1
:1047D000A06998472F786E78AD78BDF816109DF8CF
:1047E00015209DF81430A0698DF810700291019287
:1047F0003946009332462B460A4F8DF811608DF8EA
:104800001250B847084B014620469847002007B091
:10481000F0BD00BF90790100B95700001565000098
:104820000D460000B1460000E5640000F0B5044606
:10483000003087B018BF01200D464FF409721349AC
:10484000134B98472046134B984704AA0146124B36
:10485000A06998472F786E786D88A0699DF812300E
:104860009DF810109DF8112000978DF81470019696
:1048700002950A4F8DF81560ADF81650B847084BF1
:10488000014620469847002007B0F0BD907901000E
:10489000B9570000156500000D460000B146000044
:1048A000E564000038B50446003018BF01200D460D
:1048B00040F23B220649074B98472046064B984753
:1048C0002A460146054BA0699847002038BD00BF25
:1048D00090790100B9570000156500000D460000F1
:1048E00038B50D46044680B1081C18BF01200749A1
:1048F000074B3222984729462046064B984718B95D
:104900006060A060E060206138BDF0E7AC79010034
:10491000B95700007D5F000038B50D46044668B108
:1049200001298CBF0020012052220549054B9847E0
:1049300020462946044B9847002038BDF4E700BFC5
:10494000AC790100B9570000A95F00002DE9F041E2
:104950000F4614469846064608B1012922D9002080
:104960001649174B6A22984739463046154B9847E7
:10497000F8B106EBC7056C60C5F80880B8F1000F08
:104980000DD0DFF8448021883A463046C0476C6835
:10499000AB680234013B6C60AB60002BF3D10020AC
:1049A000BDE8F0811AB1181C18BF0120D8E71046E5
:1049B000D6E76FF01C00BDE8F08100BFAC790100C4
:1049C000B95700000D6000002D600000014A024B45
:1049D00010601847283D0020B96F000010B5054A47
:1049E000054B14689847054B01462046BDE810402A
:1049F000184700BF283D0020955E0000CD6F0000E5
:104A000010B5054A054B14689847054B01462046EA
:104A1000BDE81040184700BF283D0020AD5E0000F3
:104A2000CD6F00000121F0B40B46022500240E4F8B
:104A300001E0012B10D807EBC3024E1C52688242E2
:104A40000CD026BF01F1FF31CDB2F4B22B19C3F364
:104A50004703AC421946ECD9F0BC704757F83330E5
:104A6000002BF9D0F0BC18472C3D002010B4074BA8
:104A7000074C08484FF0FF3100225960D9601A6096
:104A80009A6023465DF8044B184700BF2C3D002078
:104A900019610000254A0000214BF0B55C68A04276
:104AA00002460CD0D868824208BF012008D019B154
:104AB000186870B1986858B16FF00C00F0BD002014
:104AC00043F8301031BB1046164BBDE8F040184794
:104AD0000120C4001D1943F830106A605E689642D8
:104AE00008D9771C06D095E803001F6883E8030007
:104AF0001F516E601919DE684868B0420AD2701CF6
:104B000008D003C9084FD3F808E087E8030043F84A
:104B100004E06E6010460121024BBDE8F0401847EA
:104B20002C3D0020D9610000343D002030B585B017
:104B30000589039114460292074BADF804504FF4D7
:104B4000004201A91438ADF806209847002808BF94
:104B5000204605B030BD00BF5D68000030B585B0AF
:104B60000589039114460292074BADF8045048F2B0
:104B7000010201A91438ADF806209847002808BFA3
:104B8000204605B030BD00BF5D68000038B5044662
:104B9000003018BF01200D46064B07495E2298479A
:104BA00029462046054B984718B9054A054BA2618E
:104BB000636138BDB9570000C8790100BD670000C6
:104BC0005D4B00002D4B0000004B1847ED670000C7
:104BD000C1F3090102F480620A43828310467047E0
:104BE000143008600020704770B50D461646044624
:104BF00068B1081C18BF012034220549054B9847AD
:104C00003246294623682046BDE870401847F3E73E
:104C1000E4790100B957000070B50D461646044608
:104C200068B1081C18BF01203D220549054B984773
:104C30003246294663682046BDE870401847F3E7CE
:104C4000E4790100B9570000436903B11847704780
:104C5000836903B11847704770B50E461546044680
:104C600090B191B1101C18BF012033220849094BA3
:104C700098472B68E561314620469847064A074B1E
:104C8000002084E80C0070BDEFE70846EDE700BFA8
:104C9000F8790100B9570000494C0000514C000060
:104CA00038B5044698B1C069003018BF01204B22C6
:104CB00009490A4B9847E36920465B6998470546CE
:104CC00030B9E36920469B689847284638BDEEE72F
:104CD0006FF0100038BD00BFF8790100B95700002F
:104CE00070B50D461646044678B1C069003018BF4D
:104CF00001207D220549064B9847E369204632464C
:104D000029461B699847002070BDF2E7F879010039
:104D1000B957000038B50D460446B8B1081C18BF95
:104D2000012040220A490B4B98472046294640F86B
:104D3000045F094B9847002807DB4FF40041074AFE
:104D4000074BA1822261E360002038BDE9E700BF84
:104D5000107A0100B9570000016D0000354E0000C7
:104D6000F94D000010B50446003018BF0120044B77
:104D7000044957229847201D034BBDE810401847AF
:104D8000B9570000107A0100716E000070B504463A
:104D900000300D4618BF01200449054B6322984797
:104DA0002946201D034BBDE870401847107A0100CA
:104DB000B9570000B56E000030B50C4685B0054609
:104DC00090B1081C18BF0120B3220849084B98472E
:104DD000281D94E82200A2680191064B029501A9C2
:104DE0000392984705B030BDEEE700BF107A01008E
:104DF000B9570000ED6E000070B50646003084B073
:104E000018BF01200D4614460749084BA3229847B6
:104E10000022A6F10C0001A9054B01950394029212
:104E2000984704B070BD00BF107A0100B957000068
:104E3000B94D000070B50646003084B018BF01209F
:104E40000D4614460749084B872298470022A6F1D1
:104E50000C0001A9054B029503940192984704B0F8
:104E600070BD00BF107A0100B9570000B94D0000B5
:104E700038B50D46044650B1081C18BF0120BD22AC
:104E80000349044B0C3498472C60002038BDF6E7EA
:104E9000107A0100B9570000F0B507688646F7B1EF
:104EA0008D683C460026C2F1010C08E0A06803446E
:104EB0009B1AAB420BD2236826465BB11C46636843
:104EC0009342F3D9A06863440344AB42F3D3A742AF
:104ED00005D034462046044BBDE8F04018477046E4
:104EE000024BBDE8F040184711580000DD570000A4
:104EF0002DE9F0470769037E44690137DA07076146
:104F000026D4037E9B0723D444B36368A268FB1AAC
:104F1000934225D30646DFF84C90DFF84CA000F111
:104F200014080AE07569E36820462C469847ADB13D
:104F30006B68AA68FB1A934210D34046C847237C8B
:104F4000012BEFD167603A4621464046D047E9E75A
:104F5000037E43F002030376BDE8F087BDE8F087E7
:104F6000BDE8F08765580000994E000038B50D4641
:104F7000044678B1081C18BF01203B220649074BA4
:104F8000984729462046064B98470020054B20614C
:104F9000236038BDF1E700BF2C7A0100B95700004B
:104FA000C9780000F14E000038B50546003018BF42
:104FB0000120084B0849532298472846074B984739
:104FC00028B90446064B28469847204638BD6FF05E
:104FD000100038BDB95700002C7A0100897A000012
:104FE000757A00002DE9F0410D4682B00446002894
:104FF00032D0081C18BF01207A221D49DFF88880B2
:10500000C047237E1B4A43F0010304F114062376B4
:105010003046294690470746F8B92269164B6A6020
:10502000304629469847237E03F0FE032376237EED
:1050300013F002000DD001A8104B9847237E104AB0
:1050400003F0FD0323762046904701A80D4B9847B7
:10505000384602B0BDE8F081CEE7237E044903F074
:10506000FE03002023767F22C0476FF01100F0E797
:105070002C7A0100C1570000994E000085450000C0
:10508000A57A000095450000B95700002DE9F843C6
:105090000F469046044620B321B3101C18BF0120D0
:1050A000F1221149114B124D984708342046A84768
:1050B0000028FBD0DFF84090013F002617F8011FC1
:1050C0002046C8472046A8470028FBD00136464561
:1050D000F4D3084D2046A8470028FBD03046BDE851
:1050E000F883DDE70846DBE7447A0100B9570000A2
:1050F00099670000A5670000896700002DE9F84363
:105100000F4690460446E0B1E1B1101C18BF0120E3
:105110004FF486720C490D4B0D4DDFF838909847CF
:105120000834013F00262046A8470028FBD020462F
:10513000C8470136464507F8010FF4D33046BDE8AD
:10514000F883E5E70846E3E7447A0100B957000031
:10515000B16700009167000038B50D46044688B17C
:10516000081C18BF01200849084B342298472946DB
:1051700004F10800064B984718B9064A064B6260CE
:10518000236038BDEFE700BF447A0100B957000043
:1051900049670000FD5000008D50000010B5044626
:1051A000003018BF012053220449054B984704F1F1
:1051B0000800044B9847002010BD00BF447A01004E
:1051C000B95700007567000038B50D46044648B170
:1051D000081C18BF012069220349044B98472C6022
:1051E000002038BDF7E700BF447A0100B95700003E
:1051F00000207047F0B50F4F00F00F0E3A46002325
:105200005478A0421E4603F1010308D015782032DD
:105210000DB9744503D0042BF2D14FF0FF3607EBE4
:105220004616B378032B01D00020F0BDB369BDE86A
:10523000F04018473C3D00202DE9F041484D06461E
:1052400000F00F0E86B08846284600234478A64218
:105250001F4603F1010308D00178203009B97445D5
:1052600003D0042BF2D14FF0FF377F01B8F1000FCC
:105270000ED1EC19EB5D84F803800BB3012341469A
:10528000A3703D443046EB69984706B0BDE8F08115
:10529000B8F1010F0BD0B8F1020F05EB070321D0D5
:1052A000B8F1030F19D006219970D970E9E7EC190C
:1052B000E95D0223E370E1B105201946A070E0E743
:1052C000A3780C37032B05EB07021ED0E369607847
:1052D000414698470223A370D7E700200521987024
:1052E000D970CEE7E85D0421D97058B101209870DB
:1052F000C7E73046DFF86C80A3700192C047E178C1
:10530000019ABEE783F80280BFE7E369607894F909
:105310000C500121984760B1607805220223002DCE
:10532000E370A270A8BF40F0800001210D4B9847A8
:10533000ABE70423A37063780B4ACDF80C80002DF3
:10534000ACBF43F0800303F00F03012103A8CDF8A5
:1053500010808DF814308DF81510904795E700BF38
:105360003C3D0020D18800004D8A00002DE9F04727
:10537000264F044600F00F063A46002351788C422F
:105380001D4603F1010333D01078203208B9B14231
:105390002ED0042BF2D16FF013064FF0FF353E44B0
:1053A000314620461A4B9847C0B208280AD0194DFA
:1053B00001212046A84744F080002B460121BDE88A
:1053C000F047184707EB45150021124F204644F0DF
:1053D0008009B8474FF0010800214846B8473146D8
:1053E00085F802806B692046984720B1BDE8F087B8
:1053F0006E010C36D3E705234146AB702046B84713
:10540000414648463B46BDE8F04718473C3D002032
:10541000F9890000D188000010B5104B984700288A
:105420001BDB802200210E4B0E4898470D4B0E4A85
:1054300003F18000FF2159705A619A61DA612033CB
:105440008342F8D1094C0A490020A04709490120AC
:10545000A04702200849A047002010BD7D8300001E
:10546000B10F01003C3D0020F1510000158C0000FF
:105470006D530000F551000039520000004B1847F1
:10548000F18B0000004B184759840000004B18476F
:10549000B9840000004B1847CD840000F8B5194CC2
:1054A00000F00F0C04F1800E274623465D78A842D9
:1054B00024D01E7820330EB965451FD09E45F5D106
:1054C00000256378FF2B0AD0267820340EB90F2BE5
:1054D00005D00135042DF4D16FF01400F8BD0A4B4E
:1054E0000C4606469847002807DB6D017B1904F03F
:1054F00003047C555E700020F8BDF8BD6FF013000A
:10550000F8BD00BF3C3D0020D984000000210246C8
:10551000014B0846184700BF9D54000070B50C4D64
:1055200000F00F062B4600245A78904208D01978D4
:10553000203309B9B24203D00134042CF4D170BD38
:10554000044B05EB44149847FF23637070BD00BF04
:105550003C3D0020C185000070B5134D00F00F06E2
:105560002A460023517888420AD0147820320CB998
:10557000B14215D00133042BF4D16FF0110070BD8E
:105580005B01EA5C002A14BF012202221D44074B82
:10559000AA709847002800DB70BD0023AB7070BD77
:1055A0005B010222F2E700BF3C3D00208D86000037
:1055B0002DE9F04FDFF82881077A87B0434607F0DE
:1055C0000F05002259788F420CD01C7820330CB97B
:1055D000A94207D00132042AF4D16FF0110007B0BC
:1055E000BDE8F08F5401054608EB040B394B95F8E4
:1055F00009A0D5F8049002A898479BF802308DF8CE
:1056000007309DF80760F6B2012E11D0324B02A888
:1056100098479DF80730DBB2052B40D0062B22D0EF
:10562000002B0CBF6FF01200012007B0BDE8F08F17
:10563000032202A8284B8BF80220984718F8041080
:10564000B1B99BF813309BF8122002EB032292B2FF
:105650004ABB04238BF8023029682B7A0492039109
:1056600043F0800311E06FF00F0007B0BDE8F08F4A
:105670001AF100062B68039318BF01263A06CDF8ED
:1056800010902B7AECD403F00F0303A8134A8DF883
:1056900014308DF81560904707B0BDE8F08F0220F8
:1056A00007B0BDE8F08F9BF90C0091454E4628BF2E
:1056B0001646002805DB2A68049603920E462B7ACC
:1056C000E1E7B24229680496039194BF00260126BF
:1056D0002B7AC5E785450000954500004D8A0000FE
:1056E0003C3D00202DE9F0410C4631B1012918BFA5
:1056F0000221194BBDE8F0411847184E02463346C7
:1057000000F00F0559788A420BD01878203308B979
:10571000A94206D00134042CF4D16FF01100BDE889
:10572000F081022110460C4F1546B84708B9BDE874
:10573000F08100212846B8470028F8DB06EB441426
:1057400003210123A3702846E170E36900229847F2
:105750000020BDE8F08100BFD18800003C3D002062
:10576000F0B5134F00F00F0E3B4600245D78A842C1
:1057700008D01E7820330EB9754503D00134042CAF
:10578000F4D1F0BD0B4B002A08BF1A46012903D003
:105790000AD3022904D0F0BD07EB4414A261F0BD86
:1057A00007EB4414E261F0BD07EB44146261F0BD05
:1057B0003C3D0020F151000000B900BE704700BF21
:1057C000006848B1884202D105E0814203D00068F8
:1057D0000028FAD170470120704700BF38B5036830
:1057E00005460C4613B905E01B681BB19C42FBD172
:1057F000002000E00120044B0449392298472B681F
:1058000023602C6038BD00BFB9570000607A0100EA
:1058100003680B600160704770B5046806460D466A
:1058200044B18C4215D0234601E09D4211D01B6843
:10583000002BFAD10120094B09494F2298473368C0
:105840000BB908E01C462368002BFBD125602B60B8
:1058500070BD0020EFE735602B6070BDB9570000C8
:10586000607A010003680BB11A680260184670473D
:10587000044A05491368002B08BF0B461844106002
:1058800018467047BC3D0020585A01204FF0FF30A9
:10589000704700BF4FF400534B600020704700BFBB
:1058A0000020704770B50026054D0648064C31466D
:1058B000A8473146E0610548A847E06570BD00BFD4
:1058C00029AF0000807A010028020020887A0100B8
:1058D0002DE9F0411E4C94F83C300BB9BDE8F08145
:1058E0001C4E1D4FB0471D4B0146204698473D7842
:1058F00095B1012DF2D1B047DFED197A07EE100A0C
:10590000B4EEE77AF1EE10FAE8D800230022A362A1
:10591000E36223633A70E1E7B047DFED127A07EE06
:10592000100AB4EEE77AF1EE10FA07D5626B0E4872
:105930000E4B42F21071BDE8F04118470B4B0A487C
:105940002A4642F21071984701233B70BDE8F0816E
:105950002802002041410000C03D00203DED000034
:10596000000092420000964240580020E14C0000A6
:1059700070B51D4C94F87C302DED028B13B9BDEC45
:10598000028B70BD194B9847C72823DD184D9FED3A
:10599000198AA84707EE900AF4EEC87AF1EE10FAD9
:1059A00018D4154B984707EE900AF4EEC87AF1EE3A
:1059B00010FA0FD4A847114B014604F14000984754
:1059C000BDEC028B626F0E480E4B42F21071BDE8C7
:1059D00070401847BDEC028B002242F2107108485B
:1059E000084BBDE87040184728020020A1120000B3
:1059F00035410000000020C2294100003DED0000BB
:105A000000580020E14C0000014BC3F89C00704797
:105A100028020020024A034B01460348D16518477B
:105A2000280200209DAD0000887A0100024A034B45
:105A300001460348D1611847280200209DAD0000AF
:105A4000807A0100004B18472D5A0000014BD8699D
:105A5000704700BF28020020014BD3F89C0070471C
:105A600028020020014B1860704700BF2802002068
:105A7000014B5860704700BF28020020014B98601E
:105A8000704700BF28020020014BD865704700BF57
:105A900028020020014B83F83C00704728020020B8
:105AA000014B83F8BC00704728020020014B83F8AB
:105AB0007C00704728020020014BD86D704700BF62
:105AC00028020020014B93F83C0070472802002078
:105AD000014B1868704700BF28020020014B58682E
