:10000000E8B2012025220000212200002122000068
:100010002122000021220000212200000000000017
:10002000000000000000000000000000C1670100A7
:10003000212200000000000051680100B5680100A5
:1000400021220000212200002122000021220000A4
:100050002122000021220000212200002122000094
:1000600021220000212200002122000049A50000D9
:100070002122000021220000212200002122000074
:100080002122000015A200001DA200002122000074
:100090002122000021220000212200002122000054
:1000A0002122000021220000212200002122000044
:1000B0002122000021220000212200002122000034
:1000C0002122000021220000212200002122000024
:1000D0002122000021220000212200002122000014
:1000E000212200002122000000000000000000008A
:1000F000000000000DA400002122000021220000C9
:1001000021220000212200002122000021220000E3
:1001100021220000212200002122000021220000D3
:1001200021220000212200002122000021220000C3
:1001300021220000212200002122000021220000B3
:1001400021220000212200002122000021220000A3
:100150002122000021220000000000000000000019
:10016000000000000000000000000000000000008F
:10017000000000000000000000000000000000007F
:1001800049CC000051CC000059CC000061CC0000EB
:100190000000000091B40000212200002122000094
:1001A0002122000021220000212200002122000043
:1001B000A1B4000021220000212200002122000021
:1001C0002122000021220000212200002122000023
:1001D0002122000021220000212200002122000013
:1001E000B1B400002122000021220000EDBA00007D
:1001F0002122000009BB00002122000019BB0000E1
:1002000029BB0000000000000000000021220000C7
:1002100021220000212200002122000021220000D2
:1002200021220000212200002122000021220000C2
:1002300021220000212200002122000021220000B2
:1002400021220000212200002122000021220000A2
:100250002122000021220000212200002122000092
:100260000000000010B5054C237833B9044B13B1DE
:100270000448AFF300800123237010BD500F00200D
:1002800000000000388202000C4B43B10C480D49BD
:1002900010B5AFF300800C48036823B910BD0A48BD
:1002A000036833B97047094B002BF7D0BDE8104005
:1002B0001847064B002BF5D0184700BF0000000080
:1002C00038820200540F0020388202000000000033
:1002D00010B51B4C23687BB96368227B01336360D4
:1002E00092B1236901332361237D8BB1A36901336B
:1002F000A361237F83B910BDA368227B0133A36070
:1003000001236360002AECD1237D2261002BEDD113
:10031000A361237F002BEED00A4B9847236A0A4A39
:10032000C01A9042E7DD636A032BE4D80749013322
:100330004FF0004000226362C1F89400227710BDA4
:100340006C0F0020FD790100C0D401000080004145
:100350002DE9F04F2DED028B694B6A4C6A4D85B04B
:1003600098476A4B08EE100A9847694B064698472B
:1003700094F828A0074618EE100ABAF1000F3AD1F7
:10038000A847804630468946DFF8B8B1A847002222
:100390004FF08043D847DFF8B0B102460B464046E5
:1003A0004946D847002840F08C8094F829A0BAF13B
:1003B000000F42D118EE100AA84780463046894601
:1003C000A847544D00224FF08043A847524D0246A3
:1003D0000B4640464946A847002840F08B80F3EE84
:1003E000047AB4EEE78AF1EE10FA74DC05B0BDECE5
:1003F000028BBDE8F08FA847804630468946DFF87B
:1004000044A1A8470022454BD047DFF80CA1024683
:100410000B4640464946D0470028C6D04FF000085A
:100420003F49404B84F828800220984794F829A03F
:10043000C4F80480BAF1000FBCD094F82A30002B25
:10044000D4D018EE100AA847804630468946A847FF
:10045000304E324B002282468B46B047324E024627
:100460000B4640464946B0470028BFD0F3EE057A18
:10047000B4EEE78AF1EE10FAB8D52C4EB04707EE8D
:10048000907A07EE100A77EEC77A9FED297AF0EEA0
:10049000E77AF4EEC77AF1EE10FAA7DB002784F8CA
:1004A000297084F82A70B047A847CDE900ABCDE9A0
:1004B000020142464B461F491A4D0220A847676079
:1004C00094E701221C49174BC4F808A0032084F8C4
:1004D0002820984769E71949124AA06001230320A0
:1004E00084F8293084F82A3005B0BDEC028BBDE8D1
:1004F000F04F1047012312490A4AC4F808A0EEE75A
:10050000598000006C0F00202DAA0100F97F000027
:10051000BD7B000071A70100F5AF01000000F83FAE
:10052000DC16020031410100CDAF0100C97B0000A3
:100530009A99993E48170200C01602001C17020043
:10054000001702006DA70100B9AF01000000000014
:100550002DE9F04F2DED048BB94BBA4C85B098477F
:10056000B94B08EE100A9847B84B08EE900A984726
:1005700007EE900A94F82B3037EEC88A88EE279A57
:1005800053B9B34B1B7823B3002384F82B3005B049
:10059000BDEC048BBDE8F08FAD4D2B78002BF3D173
:1005A00094F83D2032B1D4ED0C7AF4EEE78AF1EE06
:1005B00010FA47DA94F84D30002BE8D0D4ED0D7ADC
:1005C000B4EEE79AF1EE10FA51DA2B78002BDBD17A
:1005D000DDE7B0EE007AF4EEC77AF1EE10FA08DC4F
:1005E000C4ED0C8A84ED0D9A05B0BDEC048BBDE81A
:1005F000F08FDFF89482C047964B08EE100A9847B8
:1006000007EE900A944B38EE678A9847B4F92C307D
:10061000B0EEC88A05B2002B3BD05A1B052A38DC45
:10062000EB1A0A2B36DD94F82E30002B00F0708187
:1006300001220023227384F82E20A3852361D4F89D
:1006400030903DE0854A84F83C3084F83D3084F8B1
:100650002B3018EE900A9047814E0B460246814996
:100660000320B04794F84D30002BAED0A6E700230E
:1006700084F84C3084F84D3084F82B30774A784E2B
:1006800019EE100A904702460B4603207649B04700
:100690009BE7A58523690A2B10D994F82E306BB1FE
:1006A000B4F92C20AB1A0A2B40F3388100202061CA
:1006B0002B466E496A4E0220B047A585D4F830908B
:1006C000664DDFF8C8A118EE900AA84706464846CE
:1006D0000F46DFF8BC91A84753A3D3E90023C847CE
:1006E00002460B4630463946D047002800F00181CB
:1006F00018EE100AC4ED0C8A84ED0D9AA847DFF8B5
:1007000094914BA3D3E90023C847002840F0FD8013
:1007100094F82E30002B7FF43AAF206BDFF878B1DD
:10072000DFF87081A8470022514BCDE90201D8477C
:100730000B46024639463046C04794F83C30002804
:1007400000F0AC80002B00F0FA80F1EE047AF4EEB9
:10075000E78A9FED488ADFED487AD4ED0D8A94F858
:100760004C30F1EE10FAD8BFB0EE678A78EEC87A56
:10077000B4EEE79AF1EE10FA21D5002B00F02A81B1
:1007800094F83C304BB194F83D30002B00F00481DC
:1007900094F84C30002B3FF4FAAE94F84D30002B17
:1007A00000F0EA8094F83D30002B3FF4F0AE2C4B83
:1007B000324903209847012384F82B30E7E663B3DE
:1007C00019EE100AA847804618EE900A8946A847F5
:1007D00019A3D3E90023D84702460B4640464946B1
:1007E000D0470028CCD0264B9847A36D02461BB1BA
:1007F000C31AB3F5FA6F0BD3A265606BA8474246E4
:10080000CDE900014B46DFF858801E490420C0475F
:10081000002384F84C3084F84D3094F83C30002BA1
:10082000B6D0B0E7AFF300809A9999999999B93FFA
:10083000EC51B81E85EBB13F9A9999999999A93FC6
:10084000C97B00006C0F0020FD7A0000BD7B00001A
:100850001000002059800000B12E00002DAA0100D8
:1008600031410100981A0200C81A0200C4170200A0
:100870000000F03F9A99193FCDCC4C3E281A020057
:10088000FD79010040190200F97F0000F5AF010079
:1008900071A70100B9AF01006DA70100002B3FF463
:1008A00054AF00226D4BDDE90201D84702460B46EA
:1008B00030463946D04700283FF447AF684B984749
:1008C000A36C02461BB1C31AB3F57A7F0BD3A264A3
:1008D000206BDFF89881A8473246CDE900013B46FE
:1008E00060490420C047002384F83C3084F83D3040
:1008F0002BE7C047D4ED0E7A07EE100AB4EE677A04
:10090000F1EE10FA7FF4F4AE02E7C047A063FFE611
:100910002A465549554B0220984789E62B465449AB
:10092000524D0220A847002318EE909AC4ED0C8A7D
:1009300084ED0D9A237384F82E302361C0E60122E2
:10094000DFF81C8184F83D3084F83C20C04700F576
:100950009C5008302064C047636C23B1C31AB3F5C0
:100960007A7FFFF4F2AE606432463B464149DFF8DD
:10097000FC800420C047E8E6394EB047236D98421A
:1009800050D894F83D30002B3FF401AE94F84C3031
:10099000002B3FF4FCAD0AE7DFF8C480C047236CAE
:1009A00098427FF6F5AEC047E36D02461BB1C31A0D
:1009B000B3F57A7F0AD3E265206BA8473246CDE9CA
:1009C00000013B46294E2C490320B047012384F8FF
:1009D0003D30DDE60122DFF8888084F84D3084F870
:1009E0004C20C04700F59C5008302065C047636D1F
:1009F000024623B1C31AB3F5FA6FFFF40EAF626576
:100A000018EE100AA847804619EE100A8946A84732
:100A10004246CDE900014B46DFF8508017490420DB
:100A2000C047FAE6B047236E02461BB1C31AB3F5BE
:100A30007A7F0FD3226619EE100AA8470646606B2C
:100A40000F46A8473246CDE900013B46074D0C4909
:100A50000320A847012384F84D3092E70000E03FCF
:100A6000FD79010098180200981702003141010039
:100A7000141802005818020098190200E818020021
:100A8000D819020070B5324B2DED028B9847314BCF
:100A900008EE100A9847B8B92F4C94F8656076B301
:100AA000DFED2E7AB4EEE78AF1EE10FA3BDC94F833
:100AB000643093B9DFED2A7AB4EEE78AF1EE10FAEA
:100AC0003ADCBDEC028B70BDBDEC028B224B0022E8
:100AD00083F8642083F8652070BDDFED227AB4EEE0
:100AE000E78AF1EE10FAECD500251F491F4B84F878
:100AF000645002209847BDEC028B656070BD1C4BB2
:100B000098471228D3D0DFED1B7AB4EEE78AF1EED6
:100B100010FACCD501221849144BA660032084F8A2
:100B200065209847C3E7054684F8650013490F4BD5
:100B3000022098476560BAE7BDEC028B0125A360EF
:100B400084F864500E49094A0320BDE870401047FC
:100B5000E17B0000799900006C0F002000000E423C
:100B600000002C4200002A42781B020031410100A3
:100B7000F122010000000C42141B0200341B020091
:100B8000581B020070B5214C94F866502DED028B75
:100B900035B91F4B9847102827D8BDEC028B70BD84
:100BA0001C4B984707EE900ABBEE048AF4EEC87A15
:100BB000F1EE10FA0FDC164B98471028EDD8BDEC7B
:100BC000028B002384F8663063601349134A0320C4
:100BD000BDE870401047124B984707EE900AF4EEBC
:100BE000C87AF1EE10FAE6DDE9E70E4B98470028E7
:100BF000D3D0BDEC028B0122A56084F866200A499F
:100C0000064B0320BDE87040184700BF6C0F002062
:100C1000F1220100E17B0000C41B02003141010010
:100C2000D57B0000799900009C1B020038B50E4C62
:100C300094F8673073B90D4B1B7803B138BD0C4D78
:100C4000A8471328FAD9A84715289CBF012384F880
:100C50006730F3E7074A4FF000410023C2F89410D1
:100C600084F8673038BD00BF6C0F002010000020F2
:100C7000F12201000080004110B5064C207710B130
:100C8000054B98472062054B4FF00042C3F8942073
:100C900010BD00BF6C0F0020FD79010000800041F5
:100CA000014B187F704700BF6C0F00202DE9F04703
:100CB0004D4C237D23B1A369072B01D8BDE8F087F4
:100CC00094F86830002B36D0484F494E494DB8470C
:100CD0008046B04782464046A847804650468946EF
:100CE000DFF83CA1A8470022434BD047DFF814A10E
:100CF00002460B4640464946D047002867D194F843
:100D00006930002B3AD1B8470746B047804638468D
:100D1000A847064640460F46A847384D384B0022A4
:100D2000A847384D02460B4630463946A8470028AA
:100D300044D1BDE8F0872D4F2D4E2E4DB84780464B
:100D4000B04782464046A847804650468946DFF86D
:100D5000D0A0A84700222A4BD047DFF8B4A0024613
:100D60000B4640464946D0470028C8D001222649B4
:100D7000264B84F8682003209847C0E7B847074609
:100D8000B04780463846A847064640460F46A84723
:100D90001A4D194B0022A8471D4D02460B463046FE
:100DA0003946A8470028C4D000251A49174B84F8B3
:100DB0006950022098476560BDE8F087012284F8F9
:100DC00069201549114B0320BDE8F04718474FF043
:100DD000000812490D4B84F8688002209847C4F837
:100DE000048084F82B808AE76C0F0020357E000099
:100DF000A17D00002DAA010000001C4071A7010088
:100E000000002440F5AF0100F01B02003141010059
:100E1000B9AF0100341C0200201C0200041C0200B7
:100E20006DA70100000000002DE9F041384C394B5E
:100E3000984794F86A50D5B1374B384D984730A34E
:100E4000D3E9002306460F46A84720B9344B9847FC
:100E500008B9BDE8F081334D3349002084F86A00B9
:100E600032463B46AC460220BDE8F04160472F4B7E
:100E700006469847002834D194F86B50E5B13046C7
:100E8000254B264D984720A3D3E9002306460F465D
:100E9000A84758B1234D2649002084F86B003246FC
:100EA0003B46AC460220BDE8F04160471C4B9847EA
:100EB0000028EFD1BDE8F0811E4B98470028F9D0FB
:100EC0001D4A154B1570012284F86B203046984757
:100ED000144C02460B46A44618490320BDE8F041D5
:100EE0006047154A0C4B1570012284F86A20304681
:100EF00098470C4D02460B4603201149A847BBE713
:100F00009A999999999934409A99999999993540CA
:100F10006C0F0020F9E200002DAA0100E1AF0100F2
:100F2000CDE2000031410100841C020069E30000B1
:100F3000E01C02001DE3000010000020B81C0200AD
:100F4000501C020070B5104D104CA847D4ED1B7A10
:100F500007EE100AB4EE677AF1EE10FA05D1237DA0
:100F600013B1A369082B07D870BD00220123A26129
:100F70002375A847E06670BD002222750449054B21
:100F80000220BDE870401847A17D00006C0F0020D2
:100F9000081D0200314101000C4B002200211A60A3
:100FA0001A6783F8282083F8292083F8682083F8BB
:100FB000692083F82B2083F8652083F8642083F868
:100FC0006620196359639963704700BF6C0F002056
:100FD0007B4B30B4A3FB01237A4C5B09421E84F89F
:100FE000753084F87400062A00F2CF80DFE812F032
:100FF00022003C00570094007200B2000700724BC0
:1010000042F20F7242F21070814288BF11461A6993
:1010100089B25186136913F0FF03FBD16B496C4A07
:10102000096912690B675386136913F0FF0FFBD12F
:1010300030BC7047644B1A6900235386136913F060
:10104000FF03FBD16148624A00691269036742F2FB
:101050000F73994228BF194689B25186136913F05C
:10106000FF0FFBD130BC7047574B1A6900235386E2
:10107000136913F0FF03FBD15448554A0069126904
:1010800042F2107542F20F74A94288BF21460167EF
:101090005386136913F0FF0FFBD130BC70474A4BE6
:1010A00042F20F7242F21070814288BF11461A69F3
:1010B00089B25186136913F0FF03FBD14349444AB7
:1010C000096912690B675386136913F0FF0FFBD18F
:1010D00030BC70473C4A42F21073994212698DBF8E
:1010E00042F20F738BB2084618465386136913F009
:1010F000FF0FFBD1354B364A1B691269186742F264
:101100000F73994228BF194689B25186136913F0AB
:10111000FF0FFBD130BC70472B4B1A69002353865D
:10112000136913F0FF0FFBD142F21073994240D8BC
:10113000264A42F20F738B42126928BF0B46116791
:101140009BB2234A12695386136913F0FF0FFBD138
:1011500030BC70471C4B42F20F7242F21070814259
:1011600088BF11461A6989B25186136913F0FF03CB
:10117000FBD11649164A096912690B675386136930
:1011800013F0FF0FFBD130BC70470F4B1A690023DF
:101190005386136913F0FF03FBD10C490C4A09690C
:1011A00012690B675386136913F0FF0FFBD130BC34
:1011B0007047064B1A6942F20F731367C1E700BF0D
:1011C0001F85EB516C0F002084B10020A4B10020DA
:1011D000A8B00020F8B52E4C94F87630DBB1A56F9E
:1011E00094F87C30302D17DD03EB830303EB83038E
:1011F0009B0007EE903AF8EEE77A264D94F87D00D2
:10120000254AFCEEE77A002317EE901A6B70312521
:101210009047013DA567F8BD002D1EDB03EB83035E
:1012200003EB83031D4A1B4994F87D004E781A4F47
:101230009B0007EE903A02EB8502F8EEE77A92ED1A
:10124000007A67EE877AFCEEE77A17EE901AB847D5
:10125000002EDED00135A567F8BD03EB830303EB59
:1012600083039B0007EE903A9FED0D7A094994F8AD
:101270007D00094AF8EEE77A012367EE877A4B7022
:10128000FCEEE77A002517EE901A9047E2E700BFE0
:101290006C0F002010000020D10F0000F415020098
:1012A00000000000004B1847D511000010B500EBFE
:1012B0008000074C074B00EB8000820092B2204672
:1012C00042F2107198472046034BBDE81040184782
:1012D00084B100205D8A00001D8A000010B500EB7B
:1012E0008000074C074B00EB8000820092B2204642
:1012F00042F2107198472046034BBDE81040184752
:10130000A4B100205D8A00001D8A000010B500EB2A
:101310008000074C074B00EB8000820092B2204611
:1013200042F2107198472046034BBDE81040184721
:10133000A8B000205D8A00001D8A0000374A431EC5
:1013400070B50C4682F8740082F87510062B5BD8D5
:10135000DFE803F0451A0430410404000846304B2E
:10136000304D314C9847002242F210712F48A84767
:101370002E48A047002242F210712D48A84723466C
:101380002B48BDE870401847002242F21071254EEC
:101390002848254DB0472748A8472046264B984760
:1013A000002242F210712248B0472B462048BDE887
:1013B000704018471B4B1F48002242F2107198479B
:1013C0001C48194B984720461B4B984720461B4BFF
:1013D000BDE8704018470846114B9847F3E70022D4
:1013E00042F210710F4E13480F4DB0471148A847F5
:1013F000002242F210710D48B0470C48A847204621
:101400000E4BBDE870401847002242F21071054DA6
:101410000848054CA8470748A047A4E76C0F0020E0
:10142000AD1200005D8A00001D8A0000A4B10020FA
:10143000A8B0002084B10020DD1200000D130000D0
:10144000F0B5144C002583B084F87600A56748B940
:1014500003461A46D4F88000009303210E4CA0479F
:1014600003B0F0BD0D4F84F87D10084601262946D3
:101470000B4B84F87C207E7098470A4BD4F8804050
:10148000984731460246009520462B46024CA0471D
:1014900003B0F0BD6C0F0020598601001000002041
:1014A0003D130000FD790100F0B5A94C256883B01B
:1014B0006DB9D4F88C30002B47D1226F2AB10023AC
:1014C000C4F884309A4200D0236703B0F0BDD4F84A
:1014D00084303BB1A268934273D3236F9D42F4D012
:1014E0002368F1E7226F9542EFD09A4E0023A36064
:1014F0006360AB0500F1A380EF0700F1B980A80796
:1015000000F1C280690700F1CB80AB0600F1AB802F
:10151000052D00F0DF80102D00F0E180082D00F097
:10152000E980802D00F0EC80402D00F0EE80B5F5D4
:10153000806F00F0F380482D00F0D7802B4686495D
:101540000220B047226F2368BCE762689342B4D29E
:1015500094F88A100091022080497E4E804FB04757
:10156000804BC4F88C504FF00042C3F89420B84729
:1015700010281BD0B847132818D0B847112815D009
:1015800094F88A0090B1132800F2C4800F2800F06C
:10159000C180754B9847002211461046734B9847FF
:1015A00094F8891094F88800714B9847226F256849
:1015B000AA428AD0002D82D0D4F88430002B95D056
:1015C0008EE76C49634E0220B04794F8752094F87A
:1015D0007410634B84F8892084F888109847226837
:1015E00084F88A00930554D4D70735D495075CD482
:1015F000500761D4910666D4052A00F09480102A21
:1016000000F09880122A00F09C80142A00F0DE80FE
:10161000082A00F0E980402A00F0ED80B2F5806FE2
:1016200000F0F080482A00F0F480802A00F0D58095
:1016300051490220B0470023C4F88430B6E705239F
:101640004E491A460425C4F884300220C4F88C5050
:10165000B047226F236835E71420434B9847484929
:101660000220B047E7E71E231A4605254549EAE769
:1016700005234549C4F884301A460220C4F88C304A
:10168000B047226F23681DE705231A4603253F490B
:10169000D9E71920344B98473D490220B047CAE7A3
:1016A0001E231A4605253B49CDE717202E4B9847A8
:1016B00039490220B047BEE715202B4B98473749E0
:1016C0000220B047B7E71D20274B98473449022036
:1016D000B047B0E72A463349C4F88450B5E7012340
:1016E0001A463149C4F88430C7E708231A4604254E
:1016F0002E49A8E72A4604232D49C4F88450BCE7A4
:1017000005231A4604252B499DE778231A4604250C
:10171000294998E71320144B98473CE714231A46AD
:10172000042526498FE714200F4B984724490220AF
:10173000B04780E718200C4B984722490220B04759
:1017400079E71820084B98471F490220B04772E7F5
:101750006C0F00203141010064230200B42002001C
:10176000F122010000800041FD220100411400002F
:101770003D1300002C1D020074200200F82002001E
:10178000881D0200BC2102003021020060210200FD
:10179000541D020090210200B41D0200E01D020051
:1017A000081E0200E821020020220200202302007D
:1017B0004C2202007C220200B8220200EC2202002D
:1017C0002C1E0200641E0200A01E02001520144BF5
:1017D000984714490220B0472DE71C20104B98472A
:1017E00011490220B04726E716200D4B98470F49B4
:1017F0000220B0471FE71B20094B98470C490220E5
:10180000B04718E71B20064B98470A490220B0470B
:1018100011E71620024B984707490220B0470AE714
:10182000FD220100EC1E020018200200F01F020041
:10183000341F02007C1F0200C41F02002DE9F04F7C
:101840005B4BDFF8B0B15B4CDFF8AC815A4F5B4EBD
:10185000DFF8A8A1DFF8A89185B0984704AD584BF0
:1018600045F8040D012200934FF47A710023554886
:10187000D847554BC4F890000122142100935348D7
:101880000023D8474A4BD4F890B0C4F8800098475A
:1018900000230246012158460093DFF868B1D8477B
:1018A000DFF864B14FF47A612846C047B847B047C3
:1018B00002284FF01501F7D9D04718B199F8003038
:1018C000002B69D0424B984718B199F80030002B93
:1018D00065D0D04718B199F80030002B62D03D4B4D
:1018E000984718B199F80030002B5ED03A4B9847D2
:1018F0003A4B984799F80030002B3CD194F82910C6
:1019000094F8283094F8682003EB410394F86B10A6
:1019100003EB820394F82B2003EBC10394F86910C6
:1019200003EB021394F8652003EB411394F866105F
:1019300003EB821394F8942003EBC11394F86A101C
:1019400003EB022394F8642003EB412303EB82238F
:10195000236003B96362164B9847D4F898301BB1E3
:10196000C31AB3F57A7F03D31D4BC4F89800984788
:10197000D847152198E794F8663094F86B2094F8CE
:101980009410DB0103EBC20394F86A2003EB0123FC
:1019900003EB42232360DCE7124B984792E7124B9C
:1019A000984796E7114B984799E7114B98479DE761
:1019B000FD7901006C0F0020450F0000F1220100AD
:1019C000D1020000A8230200A5120000BC230200DF
:1019D000A17C0000E19A0000850B0000290E0000A8
:1019E0002D0C000051030000AD0C0000510500005B
:1019F000850A000005860100257C0100C5800000E5
:101A00001000002059860100A9140000094B83F83A
:101A10007E0000B9704770B4074D084C83F87D1004
:101A2000012683F87C2008466E702346002170BC96
:101A3000184700BF6C0F0020100000203D1300006D
:101A4000034A044B4FF00041C2F8941018707047DD
:101A50000080004110000020014B1878704700BF43
:101A60006C0F0020014B1860704700BF6C0F002006
:101A7000014B83F8280070476C0F0020014B83F85E
:101A8000680070476C0F0020014B83F869007047B5
:101A90006C0F0020014B83F86B0070476C0F002027
:101AA000014B83F8940070476C0F0020014B83F8C2
:101AB000660070476C0F0020014B83F8650070478B
:101AC0006C0F0020014B83F8640070476C0F0020FE
:101AD000004B1847FD42000070B5064D064C4FF410
:101AE00000166E613220A047AE6123466420BDE837
:101AF0007040184700800041FD420000024B4FF447
:101B000000225A61704700BF00800041024B4FF431
:101B100000229A61704700BF0080004130B587B055
:101B200006AB002503F8110D012403A9034A04485C
:101B3000039304950594904707B030BD358B0000A2
:101B400060B10020F0B58BB0002308290393029305
:101B500014D80AAD0A46552105F8211D02AE0446E7
:101B600007A9049601270648064E05940692089395
:101B700007950997B04704A90148B0470BB0F0BDDD
:101B800060B10020358B000010B5034B9847034B24
:101B9000BDE81040184700BF512B0000119A01000A
:101BA000F8B5094C07466FF0B9000E461546A04738
:101BB0003846A0473046A0472846A047034B9847E1
:101BC000034B98470120F8BD8D330000B13300006E
:101BD0004539000008B56FF0B600074B9847074B32
:101BE0009847074B9847074B07489847A0F10200D2
:101BF000B0FA80F0400908BD8D330000B133000019
:101C00004539000019330000F025300008B5074BB6
:101C10009847074B9847074B9847074B0748984703
:101C2000A0F10300B0FA80F0400908BDD1380000EF
:101C3000B13300004539000019330000F0253000B1
:101C4000830709D10B469B0606D1930710B405D034
:101C500000205DF8044B704700207047014B5DF891
:101C6000044B1847A11B00002DE9F84F6FF0E4006A
:101C7000DFF82091DFF820A1DFF820B1374D384E92
:101C8000384FDFF81C81C8474FF47F20C847FF203A
:101C9000C8474FF48050C8471420D047D847324B2C
:101CA00098474FF47F2419E02968B0476968201DE0
:101CB000B047A96804F10800B047E96804F10C00D6
:101CC000B047296904F11000B047696904F11400B4
:101CD0001834B047444505F1180503D06B69BB4281
:101CE0002046E1D0214C1F4BD4F8AC269A4218D0A4
:101CF000D4F8B0161E48B0476FF0B800C8471D486A
:101D0000C8474FF47F20C8474FF48050C84714207D
:101D1000D047D847144B98471420D0470120BDE83E
:101D2000F88FD4F894161448B047D4F8981613488E
:101D3000B047D4F89C161248B047D4F8A016114802
:101D4000B047D4F8A4161048B047D4F8A8160F48E6
:101D5000B047D4F8AC160E48B047C9E710100020C1
:101D6000A5300000CAF00F53453900000C100020C8
:101D7000FCFF0F0000108000D0FF0F00D4FF0F0009
:101D8000D8FF0F00DCFF0F00E0FF0F00E4FF0F00A3
:101D9000E8FF0F008D330000D11A0000B1330000BE
:101DA00090F60F0030B408B10138C0B20F4B104D9F
:101DB000002204E00132462A03F1180313D01C6804
:101DC000A042F7D15C69AC42F4D10A4B02EB42026B
:101DD00003EBC20201209568D46813698B600D6023
:101DE0004C6030BC7047002030BC704710100020A1
:101DF000CAF00F530C10002070B4144DB5F8B4465F
:101E000014B3D5F8C83683420E460ED005F5D76216
:101E1000002302E01169814208D00133A34202F19C
:101E20001402F7D1002070BC7047002303EB83033A
:101E300005EB830303F5D7650FCD34460FC42B683C
:101E40002360012070BC70472046ECE70C10002096
:101E50002DE9F047504B82B09847002862D04F4B95
:101E600098470446002855D04D4F4E4B3846022225
:101E700020F8042B00214FF4D26298474FF480528F
:101E800049494A4B4FF47F2098470446002877D0B1
:101E9000474EDFF85081DFF850913C1D4FF47F250D
:101EA0004FF0000A03E04D4504F1180443D02846E2
:101EB000B0472060281DB047606005F10800B047BA
:101EC000A06005F10C00B047E06005F11000B047DC
:101ED000206105F11400B0474045606105F1180527
:101EE00029D12368002BDEDAB7F8B406216900EBAC
:101EF000800207EB82020130C2F8C836636882F8BC
:101F0000C4A6C2F8C0A6A7F8B406C2F8BC16C2F8A8
:101F1000B836C8E72749284B04209847204602B026
:101F2000BDE8F08704462549234B04209847204606
:101F300002B0BDE8F0872248B047C7F894062148B0
:101F4000B047C7F898062048B047C7F89C061F4816
:101F5000B047C7F8A0061E48B047C7F8A4061D48FA
:101F6000B047C7F8A8061C48B047C7F8AC061B48DE
:101F7000B0470124C7F8B006204602B0BDE8F0879C
:101F80004FF48053009316490B4D03F500034FF4B3
:101F90007F220420A847C1E7D51B00000D1C0000CC
:101FA0000C10002089BC010000108000A11B000063
:101FB00009320000E823020031410100D023020071
:101FC000D0FF0F00D4FF0F00D8FF0F00DCFF0F0081
:101FD000E0FF0F00E4FF0F00E8FF0F00FCFF0F0021
:101FE00008240200CAF00F5390F60F00F0B4094C19
:101FF000094ED4F8AC7604F2946405460FCC0FC5B4
:1020000094E8070085E80700B81BB0FA80F04009A3
:10201000F0BC70470C100020CAF00F5370B4054696
:102020000FCD054C054E0FC495E80700334684E8F4
:10203000070070BC184700BFA0160020691C0000F4
:1020400010B50A4B0A48984700210A4B0A4898479E
:102050000A4B044606489847844200D810BD2146E2
:102060000348074BBDE81040184700BF018500003A
:1020700010B10020E1280100582402001DA5000035
:10208000EDA400000146014B0148184725860000D9
:1020900010B100202DE9F043114C124B89B006A974
:1020A000204698472046104B9DF81A409DF819503D
:1020B0009DF818609DF81D709DF81C80BDF81E905D
:1020C000984722460490CDF80C908DE8C0012B462D
:1020D0000649074C0220A04709B0BDE8F08300BFC5
:1020E00010B10020258600001DA50000602402001C
:1020F0003141010030B51A491A4D1B4C83B0A84735
:10210000A047C0B218288CBF00238DF806001449E0
:1021100088BF8DF806300020A847A047C0B23B28F2
:102120008CBF00238DF805000D4988BF8DF8053060
:102130000020A847A047C0B23B288ABF00238DF8E3
:1021400004008DF8043001A9084B09489847094B51
:1021500007489847084B01460848984703B030BDE8
:102160002047020045D401007DB401002D85000008
:1021700010B100201DA50000B52701005824020061
:1021800030B51F491F4D204C83B0A847A047C0B2AF
:102190000C288CBF01238DF80500194988BF8DF8E4
:1021A00005300020A847A047C0B21F2894BF8DF873
:1021B00004000123124988BF8DF804300020A8478D
:1021C000A04780B2632898BF00F5FA6040F2D97347
:1021D00098BF80B2984298BF40F2E573ADF8060010
:1021E00001A998BFADF806300848094B9847094B3C
:1021F00006489847084B01460848984703B030BD49
:102200009024020045D401007DB4010010B10020EB
:10221000AD8500001DA50000B5270100582402006F
:10222000FEE700BF1B491C4A914208B50ED01B486F
:1022300082420BD2D343034423F0030304331344F9
:1022400051F8040B42F8040B9A42F9D1144A15498B
:102250008A420AD2D3430B4423F0030304331344CA
:10226000002142F8041B9A42FBD10F4A0F4B22F087
:102270007F029A60D3F8882042F47002C3F8882065
:10228000BFF34F8FBFF36F8F094B9847094B9847A8
:10229000FEE700BF3882020000000020500F00203F
:1022A000500F0020E8B200200000000000ED00E028
:1022B00001B5010029D90000F0B4674B6748684DAB
:1022C000684F694E4FF0404208245C6098629A6201
:1022D00093F8431001F0FE0141F0010183F843102F
:1022E00093F8311001F00F0141F0100183F8311023
:1022F0004FF48071C3F88410C3F8A850C3F8A82025
:1023000093F8C81001F0FE0141F0010183F8C810F4
:1023100093F8B41001F0F00141F0010183F8B4101A
:10232000102159609F629A6293F8441001F0FE01F7
:1023300041F0010183F8441093F8321001F0F001EC
:1023400041F0010183F83210402159609E629A6287
:1023500093F8461001F0FE0141F0010183F84610A8
:1023600093F8331001F0F00141F0010183F83310CC
:10237000803D802159609D629A6293F8471001F078
:10238000FE0141F0010183F8471093F8331001F08A
:102390000F0141F0100183F8331007F57C774FF4FB
:1023A000806159609F629A6293F84A1001F0FE01C1
:1023B00041F0010183F84A1093F8351001F0F00163
:1023C00006F5F86641F001014FF4006783F8351017
:1023D0005F609E629A6293F84B1001F0FE0141F03B
:1023E000010183F84B1093F8351001F00F017C3D8B
:1023F00041F01001042683F83510C3F88460C3F857
:10240000A850C3F8A82093F8C21001F0FE0141F0D3
:10241000010183F8C21093F8B11001F0F00141F00E
:10242000010183F8B110C3F88440C3F8A800C3F8D1
:10243000A82093F8C32002F0FE0242F0010283F8C4
:10244000C32093F8B12002F00F0242F0100283F88B
:10245000B120F0BC704700BF008000410800004080
:1024600000010040100000404000004010B5094A43
:102470000948136A094943F0800342241362C0F8F3
:1024800020418847002206490648074BBDE8104016
:10249000184700BF00080040001C0040B92200009F
:1024A000001C004308B10020D981000010B4184B73
:1024B000184A194804244FF040415C609A629962BE
:1024C00093F8422002F0FE0242F0010283F842201B
:1024D00093F8312002F0F00242F00102202483F848
:1024E00031205C609862996293F8452002F0FE0208
:1024F00042F0010283F8452093F8322002F00F02E7
:1025000042F0100283F832205DF8044B704700BFA0
:1025100000800041040000402000004070B5084ADF
:10252000084D136A084C0949094843F400734226D0
:102530001362C5F82861A047064BBDE870401847F4
:1025400000080040001C0040618600000024004399
:1025500030B10020AD240000F0B4234A234C244BBA
:10256000244E2548254D26494427C2F890706269BB
:10257000202742F480626261C3F88470C3F8A860C7
:10258000C3F8A80093F8C52002F0FB0283F8C52029
:1025900093F8C52002F0FE0242F0010283F8C52044
:1025A00093F8B220402402F00F0283F8B220C3F85F
:1025B0008440C3F8A850C3F8A80093F8C62002F0DE
:1025C000FB0283F8C62093F8C62002F0FE0242F018
:1025D000010283F8C62093F8B32002F0F00283F8DA
:1025E000B320F0BC084700BF001C004000080040BA
:1025F0000080004120000240000002C04000024074
:10260000C9870000164B93F8482002F0FB0283F8BC
:10261000482093F8482002F0FE0242F0010283F8BD
:10262000482093F8342002F0F00242F0020283F8CE
:10263000342093F8492002F0FB0283F8492093F8F4
:10264000492002F0FE0242F0010283F8492093F88B
:10265000342002F00F0242F0200283F83420704749
:102660000080004170B50A4B0A4A0B4C0B490C48DC
:1026700042264325C3F89C60C3F88C50536943F449
:1026800080535361A047074BBDE87040184700BF17
:10269000001C00400008004001890000003000409C
:1026A000C4B100200526000070B4284B284D294EE7
:1026B00029482A494FF480324FF080445A619A6089
:1026C0009C629D6293F8502002F0FE0242F00102EB
:1026D00083F8502093F8382002F0F0024FF40035D0
:1026E00042F0020283F838205D619D609C629E6228
:1026F00093F8512002F0FE0242F0010283F85120CB
:1027000093F8382002F00F0242F020024FF48024A8
:1027100083F838205C609862996293F8522002F046
:10272000FB0283F8522093F8522002F0FE0242F09E
:10273000010283F8522093F8392002F0F00242F0AF
:10274000020283F8392070BC704700BF008000414E
:10275000010000C0020000C000000240040002C0EE
:1027600070B50A4B0A4A0B4C0B490C4842264325CC
:10277000C3F8A060C3F88C50536943F4005353610D
:10278000A047074BBDE87040184700BF001C004041
:1027900000080040918A00000034004060B1002031
:1027A000A9260000104B93F8572002F0FE0242F0D9
:1027B000010283F8572093F83B2002F00F0242F009
:1027C000300283F83B2093F8562002F0FE0242F0DC
:1027D000010283F8562093F83B2002F0F00242F009
:1027E000030283F83B2070470080004170B50A4B1C
:1027F0000A4A0B4C0B490C4842264325C3F80C618E
:10280000C3F88C50136A43F0020313620022A047FE
:10281000064BBDE870401847001C0040000800400F
:10282000D58E00000004004378B10020A5270000E9
:1028300070B51149114C8B69114A124843F4005389
:1028400044258B61C4F8E85092F84D3003F0FE0344
:1028500043F0010382F84D3092F8363003F00F0355
:1028600043F0400382F8363080470749074B024661
:10287000BDE870400648184700080040001C0040B2
:1028800000800041A5BA000000A00141D5890000E8
:10289000C8B0002070B51149114CCB69114A1248DB
:1028A00043F020034425CB61C4F8F85092F8CD30B2
:1028B00003F0FE0343F0010382F8CD3092F8B63006
:1028C00003F00F0343F0400382F8B6308047074916
:1028D000074B0246BDE87040064818470008004014
:1028E000001C004000800041A5BA00000014004216
:1028F000D589000084B1002070B51149114CCB6915
:10290000114A124843F040034425CB61C4F8F85003
:1029100092F8CF3003F0FE0343F0010382F8CF308A
:1029200092F8B73003F00F0343F0400382F8B7305A
:1029300080470749074B0246BDE8704006481847E4
:1029400000080040001C004000800041A5BA0000C3
:1029500000180042D5890000A8B0002070B51149C8
:10296000114C8B69114A124843F4006344258B6172
:10297000C4F8E45092F8DE3003F0FE0343F00103A4
:1029800082F8DE3092F8BF3003F0F00343F0060324
:1029900082F8BF3080470749074B0246BDE87040C8
:1029A0000648184700080040001C00400080004115
:1029B00089B4000000600141D589000088B0002082
:1029C00070B51149114C8B69114A124843F4805378
:1029D00044258B61C4F8E45092F84C3003F0FE03B8
:1029E00043F0010382F84C3092F8363003F0F003E4
:1029F00043F0060382F8363080470749074B02460A
:102A0000BDE870400648184700080040001C004020
:102A10000080004189B4000000800141D589000098
:102A2000E8B0002070B51149114C0B6A114A1248E8
:102A300043F0100344250B62C4F8185192F8CE30CD
:102A400003F0FE0343F0010382F8CE3092F8B73072
:102A500003F0F00343F0050382F8B73080470749DD
:102A6000074B0246BDE87040064818470008004082
:102A7000001C00400080004189B4000000100043A9
:102A8000D5890000A4B1002010B4204B2049214C6E
:102A90004FF080724FF080409A60986299625A615C
:102AA00093F8582002F0FB0283F8582093F858203E
:102AB00002F0FE0242F0010283F8582093F83C2015
:102AC00002F0F00242F007024FF0007183F83C2060
:102AD000996098629C62596193F8592002F0FB0258
:102AE00083F8592093F8592002F0FE0242F00102C7
:102AF00083F8592093F83C2002F00F0242F0700254
:102B000083F83C205DF8044B704700BF0080004113
:102B1000000100C0000200C010B5094A094B0A4973
:102B20004520C2F8A8001A6942F480621A619A69C5
:102B300042F001029A618847044BBDE810401847F3
:102B4000001C00400008004041910000892A00005C
:102B500070B52F4B2F4C98472F4B3048304A314996
:102B60004FF40005C3F88450C3F8A800C3F8A820A8
:102B700093F8D7202C4D02F0FB0283F8D72093F86E
:102B8000D72002F0FE0283F8D7208847274B9847CA
:102B9000274B984763692749274A284843F400731D
:102BA00063619047264B9847264B9847264B98479A
:102BB0002648274B984763692649274A43F48043B0
:102BC00042206361C1F8A40090472449244B024687
:102BD00024489847244B9847244B9847244B9847C0
:102BE000244B9847244B9847244B9847244B9847AD
:102BF0006369244943F48073636148220120A84734
:102C00002148224A224B0260BDE87040184700BFAD
:102C1000D59E0000000800400080004100000240F6
:102C2000800002C06D240000E19400001D2500001A
:102C30005925000000240040BD84000010B1002090
:102C40006526000061270000ED27000010E000E08D
:102C50004D870000001C0040A1BA00000038004071
:102C6000E98C000044B100203128000095280000C4
:102C7000F92800005D290000C1290000252A000074
:102C8000192B0000942402000CB100200020004009
:102C900069CC00002DE9F047344C354E354B3648B1
:102CA000DFF8DC80DFF8DC90344D01274FF4006260
:102CB0005221984721463A4630682770C0473A4625
:102CC00021463068C84723783068277063F07F0357
:102CD0002146022263704FF0030AC0473A4621465C
:102CE000306884F800A0C0473A4621463068C8479B
:102CF0002378306884F800A063F03F032146022265
:102D00006370C0474A2220215220A8472B2221214C
:102D10005220A8473A2222215220A84700222321EC
:102D20005220A847602224215220A847C0222521F2
:102D30005220A847CB2226215220A847B022272183
:102D40005220A847092228215220A847B922292128
:102D50005220A8470D222A215220A8472B460C2298
:102D60002B215220BDE8F047184700BF0CB20020CD
:102D700004B2002045890000C4B10020A5CE0000A7
:102D8000658900009589000038B50C4C0C4B054650
:102D900070212068984718B90A490B4B03209847BF
:102DA00029460A4B52209847002305461A462068B8
:102DB000074C1946A047284638BD00BF58B0002030
:102DC000A1730100B02402003141010089CD00004F
:102DD000616F01002DE9F843DFF8D090284B0646DB
:102DE0007021D9F800009847002844D04FF40062C1
:102DF0005221244C2448254B254D264F98474FF00F
:102E00000108FF2E286884F800802146424621D818
:102E1000B84742462146204B2868984723782868BF
:102E200084F8008023F00103214602226370B84732
:102E3000286814496670002502222570B847174C8F
:102E4000D9F800002B462A462946A047144B1E807D
:102E5000BDE8F883B8474246214628680E4B98479C
:102E60002378286884F8008043EA08032146022278
:102E70006370B847DCE70B490B4B03209847B5E775
:102E8000A17301000CB20020C4B1002045890000EC
:102E900004B200206589000095890000616F01007F
:102EA000401C0020C42402003141010058B0002021
:102EB000014B1888704700BF401C0020014BB3F93C
:102EC00002007047401C0020F8B5184E184B3068BF
:102ED0007021984720B34FF40062164B1648174FE5
:102EE000174D5221984711215220B847122104460C
:102EF00052202C70B847002328701A4619463068B3
:102F0000104EB0472B78240223449BB218B2B0F580
:102F1000005FA4BFA3F5804318B20B4B5880F8BDE7
:102F20000A490B4B032098470A48F8BD58B00020C7
:102F3000A173010045890000C4B1002089CD0000C3
:102F40000CB20020616F0100401C0020D824020058
:102F50003141010018FCFFFF2DE9F043002583B04B
:102F6000DFF86490154FDFF864802E462C4608E0A9
:102F70009D421CD001341D4600268C2B09DD632C9C
:102F800007DCC8471420B847B8F9023013F57A7F38
:102F9000EED100932246334609490A4C0220A0474D
:102FA0004FF4FA703B4603B0BDE8F04318470136D2
:102FB0000E2E04F10104E0DDEBE700BFFD4200004E
:102FC000F024020031410100C92E0000401C002005
:102FD00030B5184C184B83B09847B4F9021011F56E
:102FE0007A7F19D0B4F904308B4218D0E268A180FE
:102FF00001320023E260A3608B290BDC00910F4DAE
:103000000F490220A84700230120A360E360A380AA
:1030100003B030BD642AF1DC002003B030BDA368EA
:10302000E268A180013301320E2BA360E260E5DC8F
:10303000E2E700BF401C0020C92E00003141010022
:10304000F024020070B50F4D0F4B0646532128683F
:10305000984718B90D490E4B032098470D4B0E4C5D
:1030600098473046A0470020A0470020A0470B4BC0
:103070000B4C984700232868A4461A461946BDE819
:103080007040604770B00020A17301003825020035
:1030900031410100FD1A00001D1B00000D1B000046
:1030A000616F01002DE9F041164F174B06460D46A2
:1030B00038685321984718B91449154B032098478D
:1030C000144B154C9847C6F3064040F08000A047CB
:1030D000C6F30720A047F0B2A047E8B2A047C5F367
:1030E0000720A047C5F30740A047280EA0470B4B79
:1030F0000B4C984700233868A4461A461946BDE889
:10310000F041604770B00020A17301004825020023
:1031100031410100FD1A00001D1B00000D1B0000C5
:10312000616F01002DE9F041134E144B05460F4627
:1031300030685321984718B91149124B032098471A
:10314000114B124C9847C5F3064040F08000A04751
:10315000C5F30720A047E8B2A047F8B2A047380A55
:10316000A0470B4B0B4C984700233068A4461A46E7
:103170001946BDE8F041604770B00020A17301001E
:103180005425020031410100FD1A00001D1B000002
:103190000D1B0000616F01002DE9F041124E134B31
:1031A00005460F4630685321984718B91049114B0E
:1031B00003209847104B114C9847C5F3064040F048
:1031C0008000A047C5F30720A047E8B2A0473846D3
:1031D000A0470B4B0B4C984700233068A4461A4677
:1031E0001946BDE8F041604770B00020A1730100AE
:1031F0006025020031410100FD1A00001D1B000086
:103200000D1B0000616F010070B51A4E1A4B82B0A1
:10321000054653213068984718B91849184B0320C0
:103220009847184B184C9847C5F30540A047C5F37D
:103230000720A047E8B2A04704210DEB0100134B83
:10324000134C9847134B984700231A461946306889
:10325000A0479DF806309DF805109DF804209DF8C4
:1032600007001B0403EB0123134403EB006002B0CF
:1032700070BD00BF70B00020A17301006C2502007A
:1032800031410100FD1A00001D1B0000451B00001C
:10329000616F01000D1B000070B5164E164B82B019
:1032A000054653213068984718B91449144B032038
:1032B0009847144B144C9847C5F30540A047C5F3F5
:1032C0000720A047E8B2A04701A802210F4B104CED
:1032D0009847104B984700231A4619463068A04774
:1032E0009DF805309DF8040000EB032080B202B089
:1032F00070BD00BF70B00020A173010078250200EE
:1033000031410100FD1A00001D1B0000451B00009B
:10331000616F01000D1B000070B5134E134B82B09E
:10332000054653213068984718B91149114B0320BD
:103330009847114B114C9847C5F30540A047C5F37A
:103340000720A047E8B2A04701A801210C4B0D4C73
:1033500098470D4B9847002330681A461946A047F6
:103360009DF8040002B070BD70B00020A173010090
:103370008425020031410100FD1A00001D1B0000E0
:10338000451B0000616F01000D1B000010B5064CCD
:10339000064B2288014602F54210984723880433E1
:1033A000C3F30B03238010BD501C0020A530000088
:1033B000024B03481988034B184700BF501C0020DC
:1033C000FC2030002531000030B5154D154B286824
:1033D00083B053219847E8B1134B144C98473020E1
:1033E000A0472020A0470020A04701A80121104BA2
:1033F000104C9847104B9847002328681A461946E6
:10340000A0479DF80400A0F17C00B0FA80F04009CC
:1034100003B030BD09490A4B03209847DCE700BFE1
:1034200070B00020A1730100FD1A00001D1B0000F8
:10343000451B0000616F01000D1B0000902502007C
:103440003141010070B5484B484C494D98474420E4
:10345000A0470020A0474FF49670464B984740F293
:10346000E934A84720B9A847013CFBD1204670BDEC
:103470004FF44020404C414EA04741494148B0479D
:10348000414B4248984740F6FF73984255D0404D13
:103490004048414C0021A84700214048A8474FF42C
:1034A00068713F48A04758213E48A04700213E4848
:1034B000A04730213D48A04740F20D213C48A0479D
:1034C00020213C48A04700213B48A04703213B481E
:1034D000A04700213A48A84701213A48A8474FF49D
:1034E00048713948A0474FF4F0713848A04700218F
:1034F0003748A84701213748A8474FF400413648CC
:10350000A0474FF400412348A047FA213348A04781
:1035100000213348A84733494FF44010B04732499F
:103520003248B04700213248B04702213148A8470D
:1035300005211A48A847012070BD2F48144DA04707
:10354000012104462D48A84700211048A847002122
:103550002B48A84700212B48A84700212748A84707
:1035600021462548B04793E7D91A000045300000AE
:10357000C9330000D11A000009320000A530000054
:10358000008793030C20300099320000F8203000AF
:10359000993100009C20300025310000702030005F
:1035A0002C20300030203000382030003C2030000B
:1035B00040203000442030004C20300050203000AB
:1035C000642030006C20300034203000482030006F
:1035D000682030006020300098203000D02030007B
:1035E000D4203000FF000002070000260400300055
:1035F000080030005420300062913000202030005C
:10360000FC203000002130002DE9F047174C184E07
:10361000258881468A4605F542106FF0D10117468C
:103620009846B04725880435C5F30B0505F54210CB
:1036300049EA0A412580B04725880435C5F30B05C2
:1036400047EA084105F542102580B04723880899CC
:103650000433C3F30B0303F542102380B0472388E0
:103660000433C3F30B032380BDE8F087501C002014
:10367000A53000002DE9F04F81B0474C0A9D074668
:103680002846884691469A46A0471FFA80FBBBF120
:10369000000F02D101B0BDE8F08F4FEA9B04601C1F
:1036A00004213E4B98470646002C72D0601E80B223
:1036B00006EB80002A46311F937892F803E092F8D7
:1036C00000C01B0443EA0E6392F801E043EA0C03D6
:1036D00043EA0E2341F8043F814202F10402EBD198
:1036E000A3001BF0030B13D09B4456F824001FFAD1
:1036F0008BFB4FEA840E0021EA5C01339BB28A40C7
:103700005B4540EA020001F10801F5D146F80E00E0
:10371000DFF894B0224DBBF800006FF0F30100F524
:103720004210A847BBF800300433C3F30B0347EA49
:10373000084103F54210ABF80030A847BBF8003051
:103740000433C3F30B0303F5421049EA0A41ABF813
:103750000030A847BBF800000430C0F30B00ABF802
:1037600000000027BBB200F5421056F82310A8470E
:10377000BBF8000001370430BBB2C0F30B009C4221
:10378000ABF80000EED2074B304601B0BDE8F04F79
:1037900018472346A5E700BF41C3010085B40100D7
:1037A000A5300000B9B50100501C0020F8B5114C3F
:1037B000114D238807460E4603F542106FF0C001F5
:1037C000A84723880433C3F30B0303F5421039469B
:1037D0002380A84723880433C3F30B0303F5421067
:1037E00031462380A84723880433C3F30B03238087
:1037F000F8BD00BF501C0020A53000002DE9F041AD
:10380000164C174D238880460F4603F542106FF083
:10381000C4011646A84723880433C3F30B0303F5FA
:10382000421041462380A84723880433C3F30B0387
:1038300003F5421039462380A84723880433C3F395
:103840000B0303F5421031462380A8472388043335
:10385000C3F30B032380BDE8F08100BF501C0020A0
:10386000A53000002DE9F047174C184E25888246F8
:10387000884605F542106FF0BC011F469146B047DF
:1038800025880435C5F30B0505F542105146258002
:10389000B04725880435C5F30B0548EA094105F50D
:1038A00042102580B04722880432C2F30B02394609
:1038B00002F542102280B04723880433C3F30B0380
:1038C0002380BDE8F08700BF501C0020A530000019
:1038D00038B50B4C0B4D20886FF0B50100F5421048
:1038E000A84723880433C3F30B0303F542100021D8
:1038F0002380A84723880433C3F30B03238038BDF8
:10390000501C0020A530000070B50C4C0C4D2388D5
:1039100006466FF0EA0103F54210A84723880433F6
:10392000C3F30B0303F5421031462380A8472388D5
:103930000433C3F30B03238070BD00BF501C002071
:10394000A53000002DE9F04FDFF8B8A0214FDFF8D7
:10395000B88083B003E02048D047834536D01F4865
:10396000D04740F6FF7398428346F4D11C4CDFF8F1
:103970009C901C4E01E0444509D02046B847314692
:103980000546024601A80134C847002DF3D1164B65
:103990001648174C9847012105461648A0470021B4
:1039A0000E48A04700210C48A04700211248A0471C
:1039B00000211048A04729460C48104B9847FA2090
:1039C0000F4B98470448D0478345C8D103B0BDE8A2
:1039D000F08F00BF19330000FC203000F8203000C9
:1039E00000983000A42502000932000062913000E6
:1039F000993100002020300000213000A530000067
:103A0000D11A00009932000080983000F9BD010001
:103A100010B5024604460549054B03209847054B5F
:103A20004FF000629A61204610BD00BFDC25020005
:103A3000314101000080004170B50546054CC0F3DE
:103A40000740A047C5F30720A047E8B22346BDE8DA
:103A5000704018471D1001002DE9F8431C4D8146A8
:103A60008846A84702281FD01A4E1B4C4FF000670B
:103A70007761AD20A047194B4846984798F8000059
:103A8000A04798F80100A047B7610446A84702285C
:103A900016D0002C02DB2046BDE8F8832046104BF0
:103AA00098472046BDE8F8830E4A0F4B1068532113
:103AB00098470028D8D10D490D4B03209847D3E7EC
:103AC000084B0C4D186800231A461946A847E0E732
:103AD000D1800100008000411D100100393A000032
:103AE000113A000070B00020A1730100F02502001F
:103AF00031410100616F0100F8B5164DA847022859
:103B000014D0154E154B4FF000677761042098478D
:103B1000B7610446A847022814D0002C01DB2046D8
:103B2000F8BD20460E4B98472046F8BD0D4A0E4B77
:103B30001068532198470028E3D10C490C4B03200F
:103B40009847DEE7074B0B4D186800231A461946C5
:103B5000A847E2E7D1800100008000411D1001006C
:103B6000113A000070B00020A17301000426020089
:103B700031410100616F01002DE9F04100293BD086
:103B8000B0F5001F38D21E4E0C460546B04702283D
:103B90001ED01C4F1C4B4FF00068C7F81480032048
:103BA00098471A4B284698472046194B9847C7F81C
:103BB00018800446B047022816D0002C02DB2046AD
:103BC000BDE8F0812046134B98472046BDE8F081C0
:103BD000114A124B1068532198470028D9D1104937
:103BE000104B03209847D4E70B4B0F4D1868002368
:103BF0001A461946A847E0E74FF0FF34DFE700BF59
:103C0000D1800100008000411D100100393A000000
:103C100069100100113A000070B00020A17301008A
:103C20001426020031410100616F01002DE9F041CD
:103C3000002943D02C4B1446013A9A423ED8B0F5A5
:103C4000001F07463AD2DFF8CC800D46C047022855
:103C500021D0264A264B4FF000615161032098473E
:103C6000061E24DB3846234B9847061E29DB224FCD
:103C70002846B847013C064605F10105F8D1002861
:103C800024DB1A4B4FF000629A61C047022822D011
:103C90003046BDE8F081194A194B10685321984706
:103CA0000028D6D11749184B03209847D1E7174B66
:103CB00098470028D6D03046BDE8F0814FF0FF3657
:103CC000E6E7124B98470028E2D1D0E70F4B984720
:103CD0000028DDD1D5E7094B0D4C186800231A46A2
:103CE0001946A047D4E700BFFEFF1F000080004137
:103CF0001D100100393A00006910010070B0002069
:103D0000A17301002426020031410100113A000094
:103D1000616F0100D180010070B582B00023184CA2
:103D20008DF80730A04702281DD0164D164B4FF0D6
:103D300000666E6105209847144B0DF10700984707
:103D4000AE61A047022803D09DF8070002B070BD05
:103D50000F4B104C186800231A461946A0479DF8CF
:103D6000070002B070BD0A4A0B4B106853219847F8
:103D70000028DAD109490A4B03209847D5E700BF4C
:103D8000D1800100008000411D1001006910010078
:103D900070B00020616F0100A173010030260200A5
:103DA000314101002DE9F04100283CD01F4E04466E
:103DB000B04702281AD01E4F1E4D4FF00068C7F8BA
:103DC0001480AD20A8472078A8476078A847C7F896
:103DD00018800546B047022814D0002D1BDB164C76
:103DE000A047C307FCD42846BDE8F081134A144B12
:103DF0001068532198470028DDD11249124B032047
:103E00009847D8E70D4B114C186800231A461946FD
:103E1000A047002DE3DA28460D4B98470028DED056
:103E20002846BDE8F0814FF0FF35DCE7D180010086
:103E3000008000411D100100193D000070B00020FD
:103E4000A17301004026020031410100616F0100B1
:103E5000113A0000F8B5164DA847022814D0154EA7
:103E6000154B4FF00067776150209847B7610446C3
:103E7000A847022814D0002C01DB2046F8BD2046BC
:103E80000E4B98472046F8BD0D4A0E4B1068532143
:103E900098470028E3D10C490C4B03209847DEE7F4
:103EA000074B0B4D186800231A461946A847E2E74E
:103EB000D1800100008000411D100100113A000076
:103EC00070B00020A17301005026020031410100B2
:103ED000616F01002DE9F0411A4B1B4D8046984758
:103EE000A847022819D0194E194C4FF00067776186
:103EF0000120A04708F0BC00A047B7610446A847CE
:103F0000022816D0002C02DB2046BDE8F0812046B6
:103F1000104B98472046BDE8F0810F4A0F4B1068C0
:103F2000532198470028DED10D490E4B03209847B6
:103F3000D9E7094B0C4D186800231A461946A847C3
:103F4000E0E700BF553E0000D18001000080004145
:103F50001D100100113A000070B00020A173010093
:103F60006426020031410100616F0100F8B50020B4
:103F7000174B184D9847A847022814D0164E174BD8
:103F80004FF00067776106209847B7610446A8475D
:103F9000022814D0002C01DB2046F8BD2046104B2F
:103FA00098472046F8BD0F4A0F4B10685321984799
:103FB0000028E3D10D490E4B03209847DEE7094B5B
:103FC0000C4D186800231A461946A847E2E700BFBF
:103FD000D53E0000D1800100008000411D1001008D
:103FE000113A000070B00020A17301007426020095
:103FF00031410100616F0100224B98422DE9F047E9
:1040000003D900242046BDE8F0871F4B1F4E0D4604
:1040100004469847B047022819D01D4FDFF8949006
:104020004FF00068C7F814800220C847194B20469B
:1040300098472846C847C7F818800446B047022862
:1040400011D0002C17DB144BBDE8F0471847134A7A
:10405000134B1068532198470028DED11149124BA9
:1040600003209847D9E70D4B104D186800231A46D6
:104070001946A847E5E720460D4B98470028C1D1CF
:10408000E1E700BFFEFF1F006D3F0000D18001008F
:1040900000800041393A0000F93A000070B0002079
:1040A000A17301008426020031410100616F01000B
:1040B000113A00001D10010051B3174B70B5541E8A
:1040C0009C4222D8B0F5001F1FD20D460446134B68
:1040D0001646984720462946114B9847022E05F16F
:1040E00002040ADDF21E22F0010204320D4E1544D4
:1040F00020460234B047AC42FAD10B4A0B4B4FF08A
:1041000000619161BDE8704018474FF0FF3070BD0D
:104110004FF0FF30704700BFFEFF1F006D3F0000F3
:10412000593A0000A53D000000800041F93A000026
:104130002DE9F0410E4D0F4B0F4E104C98474FF0AC
:104140000067532128680E4B98470E4B776160201B
:1041500098470023B76128680B4D1A461946A847AF
:10416000A047C307FCD4094BBDE8F041184700BF86
:1041700070B000206D3F000000800041193D00003C
:10418000A17301001D100100616F0100F93A0000E8
:10419000B0F5001F70B530D2204B214E0546984730
:1041A000B04702281DD01F4A1F4B4FF000615161DC
:1041B00020209847041E1ADB1C4B284698470446CB
:1041C000B047022822D0174B4FF00062002C9A61B2
:1041D00016DB174DA847C307FCD4164B984720465B
:1041E00070BD154A154B106853219847DBE7144BF7
:1041F00098470028E0D0204670BD4FF0FF34EEE72E
:1042000020460F4B98470028E9D1E2E70A4B0D4DB5
:10421000186800231A461946A847D4E76D3F0000E6
:10422000D1800100008000411D100100393A0000DA
:10423000193D0000F93A000070B00020A1730100A0
:10424000113A0000616F0100400007EE900ADFEDB7
:104250000D6A0D480D4BB8EE677A10B5C6EE877A39
:10426000FCEEE77A17EE901A01399847041E01DB3D
:10427000204610BD22460649064B0320984720469B
:1042800010BD00BF001B374B60B10020098B000040
:104290009426020031410100024A13680133136081
:1042A000704700BFE4B10020704700BF014B0022FF
:1042B0001A607047E4B10020014B1868704700BFD6
:1042C000E4B1002008B502460B46064C064904201E
:1042D000A0474FF0800383F31188BFF36F8FBFF3C4
:1042E0004F8FFEE731410100D0260200024A1368D9
:1042F00001331360704700BF541C002010B5074BFA
:1043000004469847022804D0A0B2054BBDE81040EF
:1043100018472046034BBDE810401847D1800100E4
:104320005D870000C97C0100F0B5032283B0002145
:104330000120904C904DA0472860002800F0BC80E0
:1043400000231A4619468D4EB0472A688C4D00232B
:10435000194610461A46B047032200210120A04703
:104360000246286020B100231A461946B0472A6841
:10437000844D0023194610461A46B04703220021F7
:104380000120A0470246286020B100231A461946A2
:10439000B0472A687C4F7D4C002319461046032500
:1043A0001A46B04700238DE8A0004FF40072784908
:1043B0007848A0473B68002B00F08A80764E77490A
:1043C000774800238DE860004FF40072A0473368FF
:1043D000002B74D0734E7449744800238DE860003C
:1043E0004FF4A062A0473368002B7AD0704E714919
:1043F000714800238DE860004FF48072A047336855
:10440000002B00F089806D4E6D496E4800238DE8C9
:1044100060004FF48072A0473368002B73D06A4E5F
:104420006A496B4800238DE860004FF40072A04792
:104430003368002B79D0674E0196042300934FF424
:104440000072002364496548A0473368002B51D0AF
:10445000634E6449644800238DE860004FF4407265
:10446000A0473368002B7BD0604E61496148002330
:104470008DE860004FF48072A0473368002B66D04F
:104480005D4E5E495E4800238DE860004FF4807207
:10449000A0473368002B51D05A4B5B4A1A61191D53
:1044A00001225A4C5A48DA601A75A0475848594BAD
:1044B00003B0BDE8F04018470246304E46E74FF0E3
:1044C000800383F31188BFF36F8FBFF34F8FFEE735
:1044D0004FF0800383F31188BFF36F8FBFF34F8FCB
:1044E000FEE74FF0800383F31188BFF36F8FBFF3B4
:1044F0004F8FFEE74FF0800383F31188BFF36F8F78
:10450000BFF34F8FFEE74FF0800383F31188BFF3B3
:104510006F8FBFF34F8FFEE74FF0800383F3118857
:10452000BFF36F8FBFF34F8FFEE74FF0800383F32E
:104530001188BFF36F8FBFF34F8FFEE74FF08003FB
:1045400083F31188BFF36F8FBFF34F8FFEE74FF0F8
:10455000800383F31188BFF36F8FBFF34F8FFEE7A4
:104560004FF0800383F31188BFF36F8FBFF34F8F3A
:10457000FEE700BF096F010058B00020616F010025
:1045800070B0002078B0002064B0002045770100B2
:1045900024270200E96E000068B0002038270200DE
:1045A000B16501005CB000205027020065230100C6
:1045B0007CB000206427020045E2000080B00020AB
:1045C00070270200B595000084B000208427020007
:1045D000A520010060B00020982702003D180000CF
:1045E0006CB00020A4270200117A000074B00020F3
:1045F000B8270200358B010054B00020C427020008
:10460000C1DA0000541C002099420000618D0000B6
:1046100044B10020258D000070B5194D194B1A4E7C
:1046200004463D212868984721781848182200231D
:10463000B047174B1420984700231A46606019466C
:104640002868144DA847D4ED017A134B134DFCEEA6
:10465000E77AF8EE677A17EE900A98470022104B37
:10466000A84705A3D3E900230E4DA8470E4B984752
:10467000A06000EE100A70BD0000000000FEAF4018
:1046800078B00020A1730100D182000008B10020A1
:104690005DCF0000616F01002DAA0100D5AA0100C5
:1046A0000000594029AD0100C5B001000000000024
:1046B0002DE9F0432DED028B3B4F3C4BDFF8288179
:1046C0003B4D3C4E044683B03D21386898472178E5
:1046D000394818220023C047384B1420984700233C
:1046E0001A46194660613868354FB847D4ED057AE7
:1046F0009FED347AD4ED016A94ED028AE068324F7E
:1047000067EE877AB7EE007A67EEA66A77EE677A89
:10471000C6EEA78AA84780468946D4ED047AB1EE52
:10472000487AC7EE276A16EE900AA847274B9847A3
:1047300002460B4640464946B847B04707EE100AC6
:10474000C8EE877A224F17EE900AA847214B984768
:104750008046894618EE100AA84742464B46B8479D
:10476000B047A8471C4F0EA3D3E90023B847B04772
:1047700000EE100AE06984ED060A8DED010AA847F3
:104780000022164D164BA847164B98479DED010A7F
:1047900084F8200003B0BDEC028BBDE8F08300BFBD
:1047A000666666666612714078B00020A1730100EB
:1047B0002DAA0100C5B0010008B100205DCF0000A6
:1047C000616F010000008039D5AA0100519C0100F1
:1047D00029AD0100419D01006DA7010071A70100F5
:1047E0000000E03F85B00100D182000070B5134B9E
:1047F000134D144E0446984702280CBF3D2100215A
:104800002868114B98472178104818220023B04798
:104810000F4B14209847002360601A4628680D4DFE
:104820001946A84794ED017AD4ED097A94ED0A0A65
:10483000A7EE270A84ED020A70BD00BFD1800100F7
:1048400078B00020D1820000A173010008B10020DF
:104850005DCF0000616F010070B5364E364B82B0FF
:1048600004463E213068984700283CD0334B984797
:104870002178334B70209847002839DB314D324B7B
:1048800002209847314B29460322402098470028B0
:104890002F4B3FDB984700231A46194630682D4EB0
:1048A000B0472A786B789FED2C6ADFED2C6A03EB1A
:1048B000022307EE903AB8EEE77AFCEEC77A84ED71
:1048C000017ACDED017ABDF8043007EE903AF8EEAA
:1048D000677AAB78237777EEC67A87EEA60A84EDFF
:1048E000020A02B070BD1E491E4B03209847BDE767
:1048F000174B98471C4A13680133022B13DC1360D3
:1049000000233068134C1A461946A0479FED170A3A
:1049100002B070BD9847164B0A209847124A136898
:104920000133022BEBDD00206421124B82E80300EF
:104930009847E5E758B00020A1730100E567010042
:10494000D1CD00000CB200200100002009CD0000F4
:1049500029680100616F0100000000470000484421
:10496000D4270200314101006C1C0020000000002F
:10497000FD420000E1CE000070B5364C61680029B0
:1049800059DD01396160B4F89A31B4F89801324DBB
:1049900083422CBF00235A1C04EB8303D5F88860A4
:1049A0009E6034BF92B20122A4F89A2100284BD015
:1049B0002A4BDFED2B7A03EB8002B3EC017A9342B2
:1049C00077EE877AF9D107EE100AB8EE477A002918
:1049D000C7EE876AC4ED676AC5ED236A30DD013929
:1049E0006160B4F83633B4F83413D5F8B4008B42B0
:1049F0002CBF00235A1C04EB830334BF92B2012264
:104A0000C3F8A401A4F8362309B3164BDFED147ADA
:104A100003EB8102B3EC017A9A4277EE877AF9D1FF
:104A200007EE101AB8EE477AC7EE876AC4EDCE6A71
:104A3000C5ED2E6A70BD0C480C4B98476168A2E723
:104A40000B480A4B9847CCE7DFED057ABBE7DFED73
:104A5000047AE5E76C1C002014000020741C002080
:104A600000000000101E00209400002059480000A3
:104A7000C0000020F8B5544A544B41F2140541F2ED
:104A8000160400213220195358530A2450251E269B
:104A9000A3F89A11A3F83613A3F8D214A3F86E164C
:104AA000A3F80A18A3F8A619A3F8421BA3F8DE1C62
:104AB000A3F87A1EA2F8BA10A2F85612A2F8F213BE
:104AC00064274349A3F8400BA3F8DC0CA3F8780E45
:104AD000A3F86C76A3F89851A3F83453A2F8F053D6
:104AE000A3F8D044A3F80848A3F8A449A2F8B860F2
:104AF000A2F8546202F5187302F57C7243F8041BA5
:104B00009342FBD1334D34493448354C354EA84798
:104B10003149C4F800013448A8473449C4F82C018D
:104B20003348A8473149C4F8FC003248A847324905
:104B3000C4F828013148A847314B3249186032483F
:104B4000A847324BE065984731493248A847324B75
:104B5000C4F84C01984731493148A84707EE900AFC
:104B6000FDEEE77A00212F48C4ED4F7AA8472E4B7F
:104B70004FF07E5118602D48A8474FF07E51C4F881
:104B800030012B48A8474FF07E5120642948A847A0
:104B90000021C4F838012848A8474FF07E51A0648E
:104BA0002448A8472549C4F834012548A84741F6B8
:104BB000641160642348B04740F2FF11C4F8440117
:104BC0002148B0476065F8BD642D00206C1C0020B2
:104BD000000080BF09290100000040C1E427020055
:104BE00014000020B9280100F0270200CDCC4C3C75
:104BF000F827020000280200CDCCCC3D0828020096
:104C0000F0B100200000A04010280200ED2E0100AD
:104C10000000A841182802008D2E010000C05A454E
:104C200020280200282802007431002030280200C9
:104C300038280200402802004828020000004040B6
:104C4000502802005828020060280200B0F8922183
:104C5000B0F890319FED1E7A9A4228BF002210B41E
:104C600038BF541C00EB820234BFA4B20124022BD3
:104C70001160A0F8924180ED657A22DDD0ED017AD5
:104C8000BFEE006AF4EE467AF1EE10FA19D0591E22
:104C900000F10802012306E0F2EC017AF4EE467A14
:104CA000F1EE10FA0DD0A34203F1010307D052ED4B
:104CB000026A77EEE67A37EE277A80ED657A8B42E4
:104CC000EAD180ED667A5DF8044B17EE100A704762
:104CD000000000001C4BD3ED5F7AB3EE027AF4EED5
:104CE000C77AF1EE10FA23D4B3EE0F7AF4EEC77A56
:104CF000F1EE10FA08D49FED157AF4EEC77AF1EED2
:104D000010FA17D502207047114AD2ED007AF5EE5D
:104D1000C07AF1EE10FAD8BFD3ED6A7AB1EE047A18
:104D2000F4EEC77AF1EE10FA54BF0120002070476C
:104D3000002070479FED077AF4EEC77AF1EE10FA83
:104D40004CBF0320002070471400002000005C428C
:104D50007C3100200000A042054908B50122054B26
:104D600081F81C249847012808BF81F81D0408BD5C
:104D7000642D0020D54C00002DE9F043484C2DED6A
:104D8000048B94ED2E8AF5EE007AB4EEE78AF1EE0C
:104D900010FA83B003DD434B984701280FD0424BF4
:104DA000424C18EE100A98470B4641490246022031
:104DB000A44603B0BDEC048BBDE8F04360473D4E14
:104DC00094ED239AD6ED008A374D3B4FF5EEC08A1D
:104DD000F1EE10FAD8BFD4ED6A8A68EE897A17EE40
:104DE000900AA84779EE487A804617EE900A8946DD
:104DF000A8470022314BB847314F02460B46404688
:104E00004946B847804618EE100A8946A8472D4FF4
:104E100002460B4640464946B8472B4B984707EE9B
:104E2000900AB3EE057AF4EEC77AF1EE10FAC4F800
:104E3000C8011AD49FED258AF4EEC87AF1EE10FA73
:104E40000DDDA847194D02460B4602202049A84710
:104E500084ED728A03B0BDEC048BBDE8F083A847F3
:104E6000124C0B4602461B49A1E7A847804618EEA4
:104E7000900A8946A8474246CDE900014B460B4DB2
:104E800015490220A847D6ED007AF5EEC07AF1EE7A
:104E900010FAD8BFD4ED6A7AC4ED727ADAE700BFAF
:104EA00014000020D54C00002DAA01003141010062
:104EB000202902007C310020D5AA010000003540E5
:104EC0006DA7010029AD0100C5B001000000C84276
:104ED000B0280200F8280200682802000000000044
:104EE0002DE9F04F2DED028BC54CC64DC64E04F595
:104EF000CE7085B0B047B5F8BA30B5F8B810D4F870
:104F0000A401994294BF00235A1C05EB83038CBF74
:104F100092B2012243F8D80CA5F8BA20002900F07B
:104F20007783BA4BDFEDBA7A03EB8102B3EC017AF7
:104F3000934277EE877AF9D107EE101AB8EE477AE6
:104F4000C7EE876AFCEEE67AC5ED2F6ACDED037AEF
:104F50009DF80C30C4ED6A6A142B00F2E78115232A
:104F600084F8AC31D5F820345A1C0C2BC5F8202419
:104F700000F0E981A748B047B5F85632B5F85412A9
:104F8000D4F878018B422CBF00235A1C05EB830315
:104F900034BF92B20122C3F8C400A5F856220029FA
:104FA00000F039839C4BDFED9A7A03EB8102B3EC7E
:104FB000017A9A4277EE877AF9D107EE101AB8EEA5
:104FC000477A964EC7EE876AC5ED966AC4ED5F6A6A
:104FD000B047D5F82434834204D0012800F05F8222
:104FE000C5F8240495F82C34002B00F082818C4EF7
:104FF000D5F82834D5F8482423B902F59C4320334A
:10500000C5F828349A4200F2C281864BD6ED028A56
:1050100093ED008AB5EEC08AF1EE10FAD8BF94ED98
:105020006A8A78EE687AB2EE067AF4EEC77AF1EE22
:1050300010FA18DDF3EE047AB4EEE78AF1EE10FA16
:1050400011DDD4ED537A784E784F78EEE77AF0EEB2
:10505000E77A17EE900AB04767A3D3E90023B84771
:10506000002840F02182724D7248734E734FB04752
:10507000B5F8423BB5F8401BD4F8E801DFED647A9F
:105080008B422CBF00235A1C07EB830334BF92B220
:105090000122A5F8422B186041B13B4607EB810283
:1050A000B3EC017A9A4277EE877AF9D107EE101ABB
:1050B000B8EE477A6248C7EE876AC7ED656AC4ED05
:1050C0007B6AB047B5F8DE3CB5F8DC1C5D4FD4F820
:1050D0000C02DFED4F7A8B422CBF00235A1C07EBEA
:1050E000830334BF92B20122A5F8DE2C186041B1CF
:1050F0003B4607EB8102B3EC017A9A4277EE877A5E
:10510000F9D107EE101AB8EE477A4F48C7EE876A12
:10511000C7ED656AC4ED846AB047B5F87A3EB5F864
:10512000781E4A4FD4F83002DFED397A8B422CBF1B
:1051300000235A1C07EB830334BF92B20122A5F867
:105140007A2E186041B13B4607EB8102B3EC017A3D
:10515000934277EE877AF9D107EE101AB8EE477AC4
:105160003B48C7EE876AC7ED656AC4ED8D6AB047F4
:1051700041F2140241F21603A95AEB5A354ED4F803
:105180005472DFED237A8B422CBF00235A1C41F26C
:10519000160006EB830334BF92B201221F602A522D
:1051A00041B1334606EB8102B3EC017A9A4277EEC5
:1051B000877AF9D107EE101AB8EE477A2648274FBA
:1051C000C7EE876AC6ED656AC4ED966AB847B5F85A
:1051D0000A38B5F80818224ED4F8E000DFED0C7A52
:1051E0008B422CBF00235A1C06EB830334BF92B2C0
:1051F000012237E0AFF300809A9999999999D93FA4
:1052000014000020642D0020194600008C2C002082
:105210000000000084010020282E0020D54C000052
:10522000943100207C3100202DAA0100B9AF01008B
:105230006C1C0020E4010020B14600001C26002068
:1052400008020020B82700202C020020542900204A
:1052500050020020F02A0020EC000020ED47000062
:10526000E4220020A5F80A28186041B1334606EB75
:105270008102B3EC017A934277EE877AF9D107EE97
:10528000101AB8EE477AA848C7EE876AC6ED656A75
:10529000C4ED396AB847B5F8A639B5F8A419A348DA
:1052A000D4F80C61DFEDA27A8B422CBF00235A1C8C
:1052B00000EB830334BF92B20122A5F8A6291E6039
:1052C00041B1034600EB8102B3EC017A934277EEE1
:1052D000877AF9D107EE101AB8EE477AC7EE876AD7
:1052E000C0ED656AC4ED446A05B0BDEC028BBDE853
:1052F000F08F95F81C34002B00F0B9808D4ED4ED62
:10530000537AD6ED028A8C4B8C4F78EEE77AF0EE2A
:10531000E77A17EE900A98477DA3D3E90023B847B0
:1053200000287FF465AE16ED068A73E6642B88BF0D
:10533000642384F8AC31D5F820345A1C0C2BC5F802
:1053400020247FF417AE16EE901A7D4B7D487B4FDC
:105350009847D5EDFE7A7C4BFDEEE77A002217EEFA
:10536000900A0028B8BF4042C5F8202498476AA395
:10537000D3E90023B847002800F0C780D5F81434DB
:10538000632B3FF7F7AD0133C5F81434F2E5D4EDE4
:105390006A7AB0EE007AF4EEC77AF1EE10FA6CDDBC
:1053A000B3EE078AF4EEC87AF1EE10FA65D5674BD2
:1053B0009847B0F5FA6F60DDD4ED538AD6ED027AE6
:1053C0005D4FDFF8788177EEE87AF0EEE77A17EE56
:1053D000900AB8474EA3D3E90023C04700284CD019
:1053E000D4F8B800DFF87C81B8474DA3D3E9002397
:1053F000C047002841D0F3EE097AF4EEE78AF1EED7
:1054000010FA3ADDD5F814340A2B36DDD4F8A801A9
:10541000B8474F4F02460B4602204E49B847D4EDDD
:10542000537AD4F8A821C4F8C821F4EEC87AF1EE72
:1054300010FA0FDB00234848D4F84011C4F84C217F
:10544000C4F85831C4F85C31C4F86031C4F8CC01F8
:10545000C4F86411414BD6ED028A93ED008A002313
:10546000C5F8283485F81C3485F82C34D2E53B4B3C
:1054700093ED008AD3ED088ACCE5384F97ED008A8A
:10548000B5EEC08AF1EE10FA2CDDF3EE047AB4EE3C
:10549000E78AF1EE10FA2EDCD6ED028AC1E5002390
:1054A000C5F82834B0479BE595F81C34002B7FF4F1
:1054B000DAAD94F86C31002B3FF4D5AD012385F8BB
:1054C0001C3418EE900AB047804618EE100A894640
:1054D000B0471F4DCDE9000142464B46204902200E
:1054E000A847C0E594ED6A7AF3EE047AB4EEE77A61
:1054F000F1EE10FA06DD154B9847B0F5FA6F33DC84
:1055000097ED008AD6ED028A84E5C5F8140431E5EA
:105510009A9999999999D93F666666666666EE3F4B
:10552000333333333333D33F18010020802400203A
:1055300000000000943100202DAA0100B9AF010045
:105540004D4C0000C42F002009AA0100BD2E000010
:10555000314101005C290200000020427C31002022
:10556000142A0200F5AF0100D6ED028AD4ED537A79
:10557000DFF8CCA0DFF8CC8078EEE77AF0EEE77ABF
:1055800017EE900AD0472AA3D3E90023C04700288A
:105590003BD0D4F8B800DFF8B080D04726A3D3E9D9
:1055A0000023C04788B3D5F814340A2B2DDDD5F875
:1055B0002834D5F848241A49DFF890B00220D8479B
:1055C000B068D047D7ED007AF5EEC07AF1EE10FA68
:1055D000D8BFD4ED6A7A804617EE900A8946D04744
:1055E0004246CDE900014B460E490220D8470E4BFA
:1055F0009847002397ED008AD6ED028AC5F8283433
:1056000085F81C3485F82C3404E597ED008A01E513
:10561000DFED067A90E4DFED057ACEE4AFF30080AB
:1056200094290200DC290200794D000000000000EE
:105630009A9999999999D93F333333333333D33F77
:105640002DAA0100B9AF0100F5AF01003141010001
:105650002DE9F0476E4D6F4CDFF8F8812DED028B90
:1056600095ED238A18EE100AA04767A3D3E900231B
:1056700006460F46C04758B1D5ED2E8A18EE900A5F
:10568000A04761A3D3E90023C047002840F08D80E4
:10569000614F624E624D7E606249B1F8D234B1F81A
:1056A000D00483422CBF00235A1C01EB830334BF78
:1056B00092B20122C3F84063A1F8D224002800F07E
:1056C0009E80594BDFED597A03EB8002B3EC017AEF
:1056D0009A4277EE877AF9D107EE100AB8EE477A48
:1056E000B1F86E36B1F86C06514ADFF86CC1DFF8DC
:1056F0006CE1C7EE876A834228BF0023CEF80460BE
:10570000DFED4A7AC2ED006A38BF5A1C0CEB830306
:1057100034BF92B20122C7ED026AA1F86E261E6064
:1057200040B163460CEB8002B3EC017A9A4277EE0B
:10573000877AF9D107EE100AB8EE477A16EE900A8A
:1057400087EE878A3B4E3C4F8CED658A8EED028A50
:10575000A0470022394BA847B047394AC3B2A2FB41
:1057600003239B0803EB8303DBB2142B17D8152309
:1057700087F83C3418EE100AA0470022314BA847A6
:10578000B047C0B2142833D964288ABF642387F88D
:10579000580487F85834BDEC028BBDE8F087642BC1
:1057A00088BF642387F83C34E4E7D5ED727ADFF8EC
:1057B000B0A01B4D68EEA77A17EE900AA04778EECE
:1057C000687A804617EE900A8946A04700221E4B51
:1057D000D04702460B4640464946A84732463B461C
:1057E0001A4E0D4FB0471A4B98470646786053E75C
:1057F000152387F85834BDEC028BBDE8F087DFED48
:105800000B7A69E7AFF300809A9999999999B93F12
:10581000140000202DAA0100943100209A99AF4174
:1058200071A701006C1C0020AC1F002000000000CC
:105830004021002085B00100642D002000000440BC
:10584000CDCCCCCC0000E03F0000354029AD0100BC
:10585000C5B00100F5AF010048210020B0310020A3
:10586000D5AA010000000000454BD3ED447A454B1A
:10587000B1EE087AF4EEC77AF1EE10FA2DE9F047AE
:10588000414C25D917EE900A98472FA3D3E900235E
:1058900006460F463D4DA0472DA3D3E90023A84758
:1058A0002DA3D3E900238046894630463946A047D8
:1058B00032463B46A047364C02460B4640464946D8
:1058C000A047344B9847344B58609860BDE8F08748
:1058D00017EE900A984722A3D3E9002306460F4605
:1058E0002A4DDFF8ACA0A0471FA3D3E90023A847A7
:1058F0001FA3D3E900238046894630463946A04796
:1059000032463B46A04702460B4640464946D047F2
:1059100019A3D3E900238046894630463946A0477B
:1059200032463B46A04732463B46A04702460B461E
:1059300040464946A847174B9847174B5860986010
:10594000BDE8F087AFF30080F2D24D621058D93F26
:105950005C8FC2F5285C0B40DE718A8EE4F26F3FEB
:1059600066666666666602401904560E2DB2D53F1D
:105970005EBA490C022BDF3F94F6065F984CA53FB8
:10598000140000202DAA0100D5AA010071A7010072
:105990006DA70100C5B00100C83100200000000063
:1059A0002DE9F0472DED028B3F4C404B404F414ECF
:1059B000DFF820A1404D82B09847404B984704F251
:1059C0006443D3ED027A97ED238A38EE678A04F2B6
:1059D0007C4317EE900A83ED018AB0472CA3D3E9EC
:1059E000002380468946D04742464B46D047CDE902
:1059F0000001D7F81001B04702460B46DDE900016F
:105A0000A84725A3D3E90023CDE900014046494634
:105A1000D04702460B46DDE90001A847DFF8B88011
:105A20001FA3D3E90023C047254B9847254BD7ED4B
:105A3000397A93ED007A244928EE077AF1EE486A24
:105A4000E6EE877A04F2944204F5806306EE100ACB
:105A500091ED007A76EE277AB6EE006A67EE867AE6
:105A600028EE078AC2ED017AE6EE887AC3ED007A65
:105A700017EE900AB0470022144BA847144B9847E2
:105A800084F8080402B0BDEC028BBDE8F08700BFCB
:105A90005DA79196CADB613FBDE3141DC9E5AF3F29
:105AA000984C158C4AEAB43F642D002051560000F2
:105AB000140000202DAA010071A701006958000000
:105AC000C5B00100ECB10020E8B100200000E03FCB
:105AD00085B00100D5AA01006DA7010010B50A4BE1
