:020000040000FA
:20000000102001209D2100009921000099210000992100009921000099210000000000002F
:20002000000000000000000000000000992100009921000000000000992100006515000018
:200040009921000099210000992100009921000099210000992100009921000099210000D0
:200060009921000099210000992100009921000099210000992100009921000099210000B0
:20008000992100009921000099210000992100009921000099210000992100009921000090
:2000A000992100009921000099210000992100009921000099210000992100009921000070
:2000C000992100009921000099210000992100009921000099210000992100009921000050
:2000E0009921000099210000000000000000000000000000111400009921000099210000F3
:2001000099210000992100009921000099210000992100009921000099210000992100000F
:200120009921000099210000992100009921000099210000992100009921000099210000EF
:20014000992100009921000099210000992100009921000099210000000000000000000043
:2001600000000000000000000000000000000000000000000000000000000000000000007F
:20018000992100009921000099210000992100000000000099210000992100009921000049
:2001A00099210000992100009921000099210000992100009921000099210000992100006F
:2001C00099210000992100009921000099210000992100009921000099210000992100004F
:2001E000992100009921000099210000992100006D14000099210000992100009921000068
:20020000992100000000000000000000992100009921000099210000992100009921000082
:200220009921000099210000992100009921000099210000992100009921000099210000EE
:200240009921000099210000992100009921000099210000992100009921000099210000CE
:200260000000000010B5054C237833B9044B13B10448AFF300800123237010BDD0010020EB
:2002800000000000AC2700000C4B43B10C480D4910B5AFF300800C48036823B910BD0A48F5
:2002A000036833B97047094B002BF7D0BDE810401847064B002BF5D0184700BF0000000037
:2002C000AC270000D4010020AC27000000000000F0B4421C00F10901490101F18241032460
:2002E0000C70134B56019D196F6864F31E776F6040254D7102EB021291000E4D29440431D3
:20030000995100F10801490101F1824130220A7003EB40135E6964F31E765E6180220A715F
:2003200000EB001082002A4404321A61F0BC7047F00B0020F00C0020012805D0042801D08C
:2003400000207047012070470120704770B584B006460D4B0FCB04AC04E90F000024254604
:200360000BE004AB03EB840353F8103C012219687019064B984705440134032CF1DD0023DC
:20038000735504B070BD00BF74250000E922000008B5444B93F8582042F0010283F85820DA
:2003A00093F83C2002F0F00283F83C2093F83C2042F0070283F83C2093F8592042F0010269
:2003C00083F8592093F83C2002F00F0283F83C2093F83C2042F0700283F83C204022324B27
:2003E000C3F8A820A3F5A0531A6942F480621A619A6942F001029A612B4B5B6813F0040F57
:20040000FAD14FF08242137843F0010313704FF082439B7813F0010FF9D1244B1B6803F0F0
:200420001F031F2B37D04FF08242118D63F38A1111851E4B1B68C3F344131F2B2DD04FF0A2
:200440008242118D63F304011185184B1A68C2F38222072A23D04FF08243198D62F30E31A9
:2004600019851A786FF3C7121A701A7842F004021A700F4858621A896FF383021A811A895A
:2004800092B222F0010292B21A814FF480720021084B984708BD0523C5E71D23CFE70322E8
:2004A000D9E700BF00800041001C004084008000F00B0020532500002DE9F04707468946A0
:2004C00016464FF08242546A4FEA461A0AEB04081D46A3B169782B78994218D25C1AA14509
:2004E00028BFA14647B12B1D4A4619443846304B98476B784B446B704846BDE8F08706EB41
:2005000006139D002B4B1D442B4B9847E2E7AB78CBB92B1D4AF80430D8F804306FF30D0355
:20052000C8F80430D8F804306FF39B33C8F8043006F108035B0103F182431A7942F0400281
:200540001A710123AB7006F108035B0103F18243DB7913F0010F27D0D8F804305FFA83F884
:2005600085F80080AB78022B14D0C14528BFC146BFB185F801904A46291D38460C4B98474E
:2005800006F108035B0103F182430122DA710023AB70B1E75AF804104246281D044B98479F
:2005A000E3E700236B70EBE74FF00009A4E700BF3D250000F00C0020F924000010B500238C
:2005C000014CA04710BD00BFB90400002DE9F04105460C4690461F4607E03B464246214628
:2005E0002846044EB047241A0544002CF5D1BDE8F08100BFB9040000F8B50D4614464FF0A0
:200600008242566A06EB441603B373696FF3DF7373613061736965F30D03736173696FF30A
:200620009B33736121460834640104F182440223E3718023637101F108035B0103F1824353
:20064000DB7913F0020FF6D02846F8BD7369C3F302730333012202FA03F38B4207D8221F0A
:2006600018BF0122736962F3DF737361D1E704EB04129300044F3B441F1D0A4601463846B6
:20068000024B98473846C4E7F00C00203D25000010B50023014CA04710BD00BFF9050000E1
:2006A00008B5044B1B880022994228BF1946024B984708BDEC0100209106000000B583B0CB
:2006C000002211460DF10700024B984703B05DF804FB00BF9106000010B5044648B1084BB8
:2006E000984730B90834640104F182441023637110BD0834640104F182442023637110BDC2
:20070000390300002DE9F04194B04FF08246102386F80731B24B1A7993F805C09D79DF79D4
:2007200045EA072424B21FFA84FE197A587A41EA002109B21FFA81F8987ADB7A40EA03203C
:20074000A84B1880402386F8043142EA0C2340F20232934200F09D8145DCB3F5817F00F09B
:20076000BB811BDC822B00F061810CDC802B00F02E81812B51D114A8002320F8023D02216E
:20078000994B98472CE0B3F5807F00F0A18140F20112934241D1954B984721E040F2A122F0
:2007A000934200F0F88110DDB3F5407F00F06A8100F36C81B3F5307F2FD1B8F1070F00F0E6
:2007C000FC8000208A4B98470AE040F2A112934200F0E181B3F5E07F1FD10020844B98470E
:2007E00014B0BDE8F08140F6211293427FD018DD42F22102934200F0BB8170DD42F2212281
:20080000934200F0BD814FF6A162934200F0BB8142F2A112934200F0AE810020744B9847F3
:20082000DEE740F28162934213DCB3F5D06F61DA40F2A132934200F0AE81B3F5A06FECD18B
:200840006A4B984764F07F04E4B24FF082439C72C6E7B3F5086F00F0B580B3F5106FDCD1C0
:20086000604B83F82540614B98470120DFF8B881C0474FF08245402785F860715D4C636FF4
:200880006FF31E736367802685F864610420C047442285F8C02185F8C47185F8C461D4F8A4
:2008A000C410032363F31E71C4F8C410D4F8D41063F31E71C4F8D41085F8E02185F8E47144
:2008C00085F8E461D4F8E42063F31E72C4F8E420D4F8F42063F31E72C4F8F42080E740F6AD
:2008E0002122934203D040F62132934295D13F4B984775E7BEF5807F0ED0BEF5007F10D0E2
:20090000032F13D00F2F49D0212F4CD0222F4FD00020374B984763E712213748324B9847B6
:200920005EE799213548304B984759E7032D16D84822002101A8324B984703238DF8053013
:200940008DB904238DF8043009228DF806208DF8073014A810F84C1D234B984740E700201E
:20096000234B98473CE72748274B98471C4B9A79264B03EB82035C6A2046254B9847431C0F
:200980005B008DF804300023E25C002AE1D014A901EB430101F84A2C0133F5E739211D48DC
:2009A000114B98471CE709211B480F4B984717E721211A480C4B984712E7AA2118480A4BE2
:2009C00098470DE701211748074B984708E714A8002320F8023D0221034B984700E700BF77
:2009E000AC0B0020EC010020A1060000BD060000D9060000F00B00208425000000000020E6
:200A000053250000F00100204D03000074250000632500009C000020D8000020A82500005B
:200A2000E400002011020020D10200000023ADF84E3001F0500108F00F08B8F1070F1DD861
:200A400081B108F108084FEA481303F182439B79C3F34013ADF84E3002210DF14E00524BC2
:200A60009847BDE608F108084FEA481303F182439B79C3F30013ADF84E30EDE700204B4B14
:200A80009847ADE60020494B9847A9E6484B9847A6E608F00F03BEF1000F15D1A3B1072B90
:200AA00012D811F0800F08D108335B0103F1824310225A713E4B984792E608335B0103F12B
:200AC000824320225A71F5E70020384B984787E60020364B984783E608F00F03BEF1000FC8
:200AE00042D1002B40D0072B3ED811F0800F1ED103F10802520102F18242927912F0100FAD
:200B000012D003F10802520102F1824210211171D27912F0200F07D008335B0103F1824395
:200B20002022DA7101221A71214B984758E603F10802520102F18242927912F0200FF3D0EA
:200B400003F10802520102F1824220211171D27912F0400FE8D008335B0103F182434022C4
:200B6000DA7102221A71DFE70020104B984737E60F4B984734E608210E480B4B98472FE622
:200B80000B4B98472CE614A8002320F8023D0121054B984724E6002301930293082101A85F
:200BA000014B98471CE600BFA1060000D9060000BD0600009001002038B5214B98474FF0D8
:200BC00082439B8B13F0080F09D14FF0824393F8073113F0100F2CD01A4B984729E04FF0C5
:200BE00082420824948380239372112182F80011402182F8051182F80431134B58680325A3
:200C000065F31E705860586965F31E7058610F4818600F481861586864F39B3058605868DD
:200C20006FF30D00586082F804110022094B83F82520084B93F82500003018BF012038BDA8
:200C4000F924000005070000F00B0020B00B0020F40C0020EC01002008B5064B9847002239
:200C6000054B83F825204FF08242137843F00203137008BD91030000EC01002010B50C469E
:200C80000122024B9847204610BD00BF9106000010B50C460122024B9847204610BD00BF24
:200CA0009106000038B504460D46054B984708B9002038BD022229462046024B984738BDF4
:200CC000B90B0000BD05000038B505460C46064B984708B9002038BD0023022221462846E2
:200CE000024DA847204638BDB90B0000CD0500000023934210DA10B405E020240470013051
:200D00000133934205DA0C78002CF6D001310470F5E75DF8044B704770470000F8B50546E9
:200D20000C464FF4007200212046554B98475DB17E2D41D8681E3E2801D9A5F1400018BB65
:200D4000F023237001231DE04E4E254606F1300E37460FCF28606960AA60EB603E461035C6
:200D60007745F5D107CE28606960AA603388AB81552384F8FE31AA2384F8FF31F8BDFF2268
:200D8000E2540133092BFAD9002203E04FF6FF7363520132FF2A0EDC02EB0023191FB1F53D
:200DA000805FF6D2510041F20305AB42EED09BB201339BB2ECE7F8BD822D2CD87F2D00D0D0
:200DC000F8BD0B2230492046304B98472823E372002513E04FF40010E061AB1C63830B22D2
:200DE0002B4901EB05112046284B98476FF0660222744D236374227663760135022D09D86A
:200E00002034204B03EB0513D86C0028E2D0214B9847E1E7F8BDA5F18303012B23D9853D21
:200E20002902B1F5801FCBD21B4B236003F1144303F52C1303F602336360184BC4F8FC31FD
:200E400065614FF48053A361E1604FF480722261A36843F40053A360114BE36104F120006C
:200E6000104B9847ACE7074A02EB0313DD6C2846084B98470246294620460A4B9847F8BD62
:200E800053250000F42500001F260000F10C000034260000632500005546320A306FB10A6C
:200EA000604411553D25000070B50C683B4884420AD0002038B1886810F4005F18D0CD6990
:200EC000374CA54214D070BD4C6800F1144000F52C1000F60230844201D00020EAE7D1F8F4
:200EE000FC413048844201D00020E3E70120E1E71D4616460C4610F0010F03D10B69B3F5C2
:200F0000807F31D0002D3FD0A369002B3CD02A68934208D041F263018B4201D8002A31D0AB
:200F20004FF0FF332B60636941F263029342CAD803F0070101228A40D2B2DB08E918097A07
:200F40000A4205D12B440A431A726B6801336B606A682B689A42B6D3002EB4D1124B1B68F8
:200F60001E33124A136070BDC86810F0FF0FC9D1B0F5804FC6D3B0F5801FC3D220310C4BBE
:200F80009847BFE72B60CEE7002E9CD1064B1B6803F59673054A136095E700BF5546320A48
:200FA00060441155306FB10A082000200C20002081100000074B5B8A13F0010FFAD0054B44
:200FC00058614AF201529A80024B5B8A13F0010FFAD070470040004110B5044604E020460F
:200FE000034B984704F50054B4F5801FF7D310BDB50F000004E00A6802601A460431043053
:20100000531E002AF7D1704730B41C4B1C886FF305141C80194B5B8A13F0010FFAD04AF24E
:201020001554164B9C80154B5B8A13F0010FFAD016E04FF0FF3540F823500133032B06D854
:20104000A342F6D251F8235040F82350F5E70B4B58614AF204559D80A30018441944121B56
:2010600052B11446042A28BF0424044B5B8A13F0010FFAD00023E1E730BC704700400041B6
:201080002DE9F04F83B000AF444B1C8844F480421A801C8844F400421A804FEA5039C0F325
:2010A000042500233F2B07D851F8234050F82320944203D10133F5E7002300E001235BB177
:2010C00088460646364B13F809407CBB20F4FF5A2AF01F0A00230AE0EDB2324B03EB4919C1
:2010E000012309F805302BE001240133DBB21F2B0AD8002CF8D12B4A02EB4912D25C0AB1DE
:201100000124F2E70024F0E7C7F804D0ADF5005D82B0EB465CBB3046234B98470122204B79
:2011200003F80920002C36D1D7F804D04022414630461E4B9847194B5B8A13F0010FFAD0E8
:201140000C37BD46BDE8F08F0135EDB21F2DE2D8144B03EB49135B5D002BF5D04FF48072C4
:201160000AEB05210BEB0520114B9847ECE70025ECE70134E4B21F2CD6D80A4B03EB4913D0
:201180001B5D002BF5D040220BEB04210AEB0420064B9847EDE70024EDE700BF0040004115
:2011A000100F0020900F0020B50F0000091000003D25000070B50446034690F847204021EA
:2011C0000020134DA847E8B100232370267916F0800F19D104F14800B4F8443006F03F059C
:2011E0002A46611D18440B4B9847B4F84400284480B2A4F8440016F0C00F07D00023A4F897
:20120000443070BD002070BD002070BD002070BDB90400003D2500002DE9F04391B00D464A
:2012200091469846074615E03F2448EA040310AE06F8403D224639460DF101000C4B9847C6
:2012400001235FFA89F2402130460A4EB04727442D1B0AD03F2DE7DCB8F1000F01D02C46B9
:20126000E3E72C464FF04008DFE711B0BDE8F0833D250000F905000010B5002390F84720D5
:2012800004314830014CA04710BD00BF191200002DE9F84380468946174600260EE05D1CE6
:2012A00018780D4B9847014601342B46FF2CF6DD06F1240308EB430399800136BE4204DAF7
:2012C00009EB062300242146F0E779004046034B9847BDE8F88300BF1122000079120000C6
:2012E00070B50446354B9847002839D0A36CB4F84C20A4F848200022A4F84A20013B082B2D
:2013000058D8DFE803F01505272E293151453E002B4E30462B4B984705460246314604F103
:201320004C00294B984729462046284B984770BD0123E3644FF4807323654FF480536365B3
:201340004FF4A073A365224BE365142120461F4B984770BD1F4B9847002120461B4B984754
:2013600070BD1D4B9847F7E700212046174B9847206DB0F5804FF3D304F15401174B984701
:2013800070BD626D04F15801206D154B9847E3E7656D2A46216D04F14C00114B9847A90078
:2013A00020460A4B984770BD626D216D20460D4B984770BD0123A4F84A30CDE7B51100008B
:2013C000D4260000632500003D2500007912000060441155D52400002923000081100000BE
:2013E000F50F00009112000038B5074C062384F847302046054DA847072384F8CF3104F5A4
:20140000C470A84738BD00BF14020020E112000000B583B00D4B9B78DBB20193019B13F0B9
:20142000020F06D00A4B1B681BB1084A5068984709E0019B13F0010F05D0054B5B6813B1F4
:20144000024A5068984703B05DF804FB00000241901F002008B5C3689A7A12F0010F00D1B1
:2014600008BD01229A7203689847F9E708B5024B1868024B984708BD240500205514000021
:20148000314B198841F004021A80304A137843F0010313702D4B5B6813F0010FFAD140F650
:2014A00004122A4B1A62294B5B6813F0040FFAD1274B00221A77274A9A62254B93F82C3024
:2014C00013F0100FF9D10022214B83F82020204B93F82C3013F0040FF9D11D4A137F43F079
:2014E000020313771A4B93F82C3013F0020FF9D1174B5A6A5A62164B93F82C3013F0080FEF
:20150000F9D19822124B83F82020114B1B6913F4807FFAD040F606320C4B1A620B4B5B6825
:2015200013F0040FFAD101220B4B5A710B4B40F2E7325A60E0210A4A82F8231000229A600D
:2015400007221A60704700BF00400041001C00400010004080BB01040008004010E000E0ED
:2015600000ED00E008B5014B984708BD4123000070B582B044F204031D68A5F58043B3F56F
:201580007C2F01D902B070BDC8203D4B984744F268231A683B4B9A4232D03B4B1B7813F0D5
:2015A000010F40D00022394B1A60394C4FF480036360062284F85620A3614FF400036360B6
:2015C00084F85720A361236A03F48003009364202B4EB047236A03F480030093236A03F468
:2015E000000301936420B047236A03F400030193009B002B32D0019B002B2DD000232EE001
:20160000214B1B7813F0010F04D1204B1A68214B9A42C2D01F4A1D4B1A601F4B1B6832337F
:201620001E4A1360AEE7194B1A681D4B9A420FD0164B1A68174B9A4206D0194A134B1A60FF
:201640004FF4FA700E4B98470022104B1A60ACE700220E4B1A6095E7012300E00123002B57
:2016600090D14FF480520A4BC3F894204FF480431A6882F308880B4A9360284782E700BFC4
:20168000C52200007CB0EE87000C0040FCFF032000800041EF6926F0082000200C20002095
:2016A000EF6916F000ED00E008B5464B9B6803B1FEE70022444B1A70434B9B68002BFBD152
:2016C000424B1A696FF341021A61404BDB6813F0040FFAD03D4B1A69C82161F317421A6110
:2016E0001A696FF383021A611A6942F002021A61364BDB6813F0010FFAD0344BDB6813F06B
:20170000020FFAD1324B1B7813F0010F04D1304B1B7813F0040F07D064202E4B98472B4BA8
:20172000DB6813F0020FF7D1284B1A696FF341021A61264BDB6813F0040FFAD0234B1A69EF
:20174000012161F383021A611A6942F002021A61214B9847214B9847214B9847BFF35F8F5E
:2017600062B6204B98474FF480201F4B98470A221E4B1A7011E000221D4B1A604FF48060A4
:20178000194B98470122194B1A700DE0194B9847FCE700BF0133FF2BFBDD174B984730B1CB
:2017A000164B1B78002BE6D00122144B1A70134B1B78002BEAD1114B1B78002BEDD1012375
:2017C000E9E700BF00ED00E00020004000180040000C0040C52200004D24000071150000CB
:2017E00081140000590C00008D240000CD0100200C200020FD1D0000B90B000028050020D9
:201800000120704701207047054B00221A605A609A60DA601A82F0221A700A22DA717047D8
:201820002C05002070B506460D461446074B98470122074B1A73074B9E70220EDA70220CFE
:201840001A71220A5A719C719D8170BD09180000980100202C05002008B500221146042029
:20186000014B984708BD00BF2518000008B500224FF400510520014B984708BD25180000B7
:2018800008B5034B98470022024B1A7308BD00BF0918000098010020F8B507460C4615465D
:2018A00013460A4601210020054EB04708B90020F8BD2B4622461F213846B0470120F8BDF9
:2018C000B904000008B504220D210248024B984708BD00BF980100209106000008B5034BE5
:2018E0009A69034B5A60034B984708BD2C05002098010020C518000010B50C460422084B74
:201900009847844203D0074B9847074B9847074B9847074B9968091B9960034B984710BD52
:201920009106000059180000DD180000811800009801002010B5084B93F82740122C00D937
:20194000122480212046054B984700B910BD21460148034B9847F9E72C050020011800006E
:20196000F918000010B518220A490B480B4B98470B4B93F82740242C00D9242480212046BC
:20198000084B984700B910BD21460748074B9847F9E700BFDC250000B0010020F10C00003A
:2019A0002C05002001180000A8010020F918000070B5204900234B638B63CB630B644B644A
:2019C000064610B30B4691F82B503C330824194A92F8252002F03F021C2A1CD03F2A1AD01E
:2019E000AC4200D2254680212846134B984758B1D6B1023CA4B2230A43EA04240D4B9C8650
:201A000029460E480E4B984770BD0A4B93F8275038330424DBE71C221A700A225A7005220B
:201A2000DA700C34E4B2DBE7013C024B83F83440E6E700BF2C0500200118000060050020D0
:201A4000F918000008B580210820074B984700B908BD06484FF40033C364054B40F8483F46
:201A60000821044B9847F3E7011800002C05002000003E7FF918000000B585B00C4B93E841
:201A8000070004AB03E907000A4B9B680C2B02D90C22084B9A6080210C20074B984710B9F1
:201AA00005B05DF804FB0C2101A8044B9847F7E7302700009801002001180000F918000001
:201AC00008B5044B984710B9034B984708BD034B9847F9E705180000DD18000081180000A8
:201AE00008B5024B9847024B984708BD81180000DD18000008B5024B9847024B984708BDA4
:201B000081180000DD1800002DE9F04182B0314B93F825208DF8072093F826208DF806204A
:201B200093F827208DF8052093F828208DF8042093F82A208DF8032093F82B308DF8023093
:201B4000BDF802305B02064640B180211846224B9847002836D102B0BDE8F0810021F5E7C5
:201B60001C4F07F15005002305224FF400712846DFF88C80C04707F51473002229460198AA
:201B80002044164DA847164B9847164A9368A3F5007393600134BDF802309C4214D2124BB9
:201BA00098470028D7D0002EDAD0104D2946019820440F4B984704224FF4007128460D4BFD
:201BC0009847E2E70024E6E70B4B98470B4B9847C1E700BF2C05002001180000A90E00007A
:201BE0000D24000098010020B90B00007C0500201D0D00009106000081180000DD18000047
:201C0000CD05000008B5384B9847002205213748374B9847002865D0364BD969364A91601A
:201C200093F823305A2B59D8DFE803F03C58582E58585858585858585858585858583158E3
:201C400058585858585834425858455858585855583F58584D58515858585848585858580F
:201C6000585858585858585858585858585858585858585858585858585858585858585864
:201C800058585858585838001C4B984708BD1C4B984708BD00201B4B984708BD0120194B37
:201CA000984708BD184B984708BD184B984708BD174B984708BD174B984708BD164B984726
:201CC000164B984708BD0120154B984708BD0020134B984708BD134B984708BD124B98477A
:201CE0000E4B984708BD00BFE913000040050020991800002C0500209801002035190000BE
:201D000065190000B1190000C11A0000451A0000E11A0000F51A000081180000DD180000A9
:201D2000091B0000791A00006D18000030B585B01F4B1B78002B38D0042909D0022909D013
:201D400004784D006A1E0DF106031A44002008E00468F6E70488F4E7373313702409013AC0
:201D60000130A84207D204F00F03092BF4D843F030031370F2E730238DF8043078238DF87B
:201D800005304B1C04AA02EB43030A2203F80C2C033504AB1D440D2305F80C3C023149002E
:201DA00001A8044B984705B030BD024B9847FAE7940900207D0C000030B5EFF30883054CB4
:201DC0002360036883F308884568A847236883F3088830BDFC1F002000B583B00122014668
:201DE0006846044B984708216846034B984703B05DF804FBE92200007D0C0000F8B5002299
:201E0000994B1A607A22994B1A70994B9847994C40212046984B9847984B18600023235434
:201E200030B9944A964B1A600022964B1A6072E0954B9847F5E7954B1B78002B3ED18B4B93
:201E40001B78532B3FD0522B00F0A3804F2B00F0A780482B00F0AA80572B00F0AD806F2B7B
:201E600000F0B980682B00F0BC80772B00F0C280472B00F0C880542B00F0D3804E2B00F0D1
:201E8000D880562B00F0E180582B00F0E380592B00F020815A2B2BD1734B1B687C4A176826
:201EA00000242546BC4280F029815E1C29461878784B9847054601343346F3E702217648AC
:201EC000764B9847BBE76D4B1B686E4A126893423CD86C4A1368013B1360694A1368013B20
:201EE00013606F4B1B786A4A11688B424BD300BF7A225E4B1A700022654B1A60634B1B78EF
:201F0000002B40F006815E4A1368013313605D4A1368013313605B4B1A68584B1B689A4222
:201F2000BFF473AF564B1B681B78FF2BEFD0232B81D0A3F13002D2B2092A00F2EF80544A11
:201F40001168303B43EA01131360DCE74C4C21680131216001324B4D2A609A1A4C4B1B682F
:201F60009A4228BF1A464F4E32603F4B18684E4B984733682A681A442A6022681A4422600E
:201F8000474A1370A5E7C91A374B1868474B9847ADE73F4B1968344B1868454B9847A7E7B0
:201FA000314B1B683A4A12781A70A1E72E4B1B68374A12881A809BE72B4B1A683D4B9A4273
:201FC00005D0294B1B68324A12681A6090E70020394B9847F5E70121234B1868374B98477E
:201FE00086E7214B1B681B88294803600221334B98477DE71C4B1B681B68254803600421C8
:202000002E4B984774E7224B18682D4B98471F4B5B78002B3FF46CAF01212A481F4B984736
:2020200066E70122194B1A7002211B481B4B98475EE7164B1B781BB10022144B1A7057E729
:2020400002211548154B9847F6E731211E48134B98474DE70E4B18681C4B984703211C4814
:202060000E4B984744E700BFF81F0020AC1F0020051C0000B41F0020A50C0000A41F002074
:20208000A81F0020B01F00200D240000940900200020002011220000702700007D0C0000E9
:2020A000A01F0020042000203D250000C90C0000910C00000CED00E08D2400002D1D000055
:2020C000B91D0000742700003C270000D90F000078270000254B1A6842B9254B1A68254B56
:2020E0005A6003212448254B984701E79208214B59681F4B1868224B9847F2E701212148FE
:202100001E4CA0472846204B984703211F48A047EEE601211E48194B9847F4E6A3F14102F4
:20212000D2B2052A06D8114A1168373B43EA01131360E8E6A3F16102D2B2052A06D80B4A69
:202140001168573B43EA01131360DCE62C2B05D0104A13700022054B1A60D4E6034B196880
:20216000034A116000221A60CDE600BF00200020F81F0020940900207C2700007D0C000033
:202180000910000080270000D91D00008427000088270000AC1F0020FEE7000008B5144B43
:2021A000144A9A4209D0124B124A03E0116819600433043210498B42F8D3104B02E00022C1
:2021C0001A6004330E4A9342F9D30E4B0E4A22F07F029A60D3F8882042F47002C3F8882099
:2021E000BFF34F8FBFF36F8F084B9847FEE700BF00000020AC270000D0010020D0010020F4
:202200001020002000ED00E000000000A916000070B4144B5E88DEB9002412E041F2210573
:2022200085EA43039BB2013292B2072A05D813F4004FF3D15B009BB2F5E70A4A22F81430C7
:202240000134FF2C04DCA3B21B029BB23246ECE780EA1120034B33F9100080EA012080B252
:2022600070BC70479C090020BFF34F8F0549CA6802F4E062044B1343CB60BFF34F8F00BF4F
:20228000FDE700BF00ED00E00400FA0570B51344157802F10102802441600326013EFDD151
:2022A0002C4200D101600626013EFDD10160641004D0E4B20226013EFDD1EDE79A4200D24F
:2022C000E6E770BD074B1B782BB141F6D10300FB03F0012303E041F6AA23F8E70133834267
:2022E000FCD370479C0B0020F0B407461C25002007E0461C3C18092B12DD3733237030460C
:20230000043D002D0EDB21FA05F303F00F03002AEFD1002BEDD1002DEBD00028F0D0E8E7DC
:202320003033EBE7F0BC704708B5024A024B1A60024B9847EF6916F0FCFF03206922000002
:202340002F4A012313705368013353609268E2B1A2F57A718B4202D0934212D0704729492D
:202360004FF48050C1F898004FF40040C1F898004FF48040C1F898004FF40050C1F89800ED
:20238000EAE700221E4B9A60704713F0FF0320D11C4B4FF48052C3F898204FF40042C3F80B
:2023A00098204FF48042C3F898204FF40052C3F89820154B1B78A3F10A02D2B2F02A03D9D8
:2023C00011494A7852424A700F4A51780B44137070470D4A12789342C0D10A4B4FF4805237
:2023E000C3F894204FF40042C3F894204FF48042C3F894204FF40052C3F89420AEE700BFAE
:202400009C0B002000800041CC0100200D4B9A685B689A4214D203F5FA630A4A93600A4B77
:202420004FF48052C3F894204FF40042C3F894204FF48042C3F894204FF40052C3F89420AC
:20244000704700BF9C0B00200080004110B40E4B4FF48054C3F888404FF40040C3F8880001
:202460004FF48041C3F888104FF40052C3F88820C3F89840C3F89800C3F89810C3F8982051
:202480005DF8044B704700BF0080004110B50D4B1022C3F88820C3F8942001200A4B9847EB
:2024A000EFF3108333B100236A4610210748084CA04710BD72B66A4610210448044CA047DC
:2024C00062B610BD00800041C5220000948000418D22000008B50020034B9847034A044BC5
:2024E0001A60044B984700BF8D240000EF6926F0FCFF03206922000008B50C4AD368591EE8
:20250000D16063B94FF4FA62084BDA60084A136801331360074A12680AB1934200D208BDDC
:202520000022044B1A60044B984700BF9C0B0020082000200C200020D524000010B5431E49
:202540000A44914200D110BD11F8014B03F8014FF7E702440346934200D1704703F8011B3B
:20256000F9E7034613F8012B002AFBD1181A013870470000FC618000106080001460800022
:202580001860800012011002EF020140EB030224014201020301000000000000CC2500009D
:2025A000DC250000F00100200697FF0901A101150026FF00750895400901810295400901C9
:2025C000910295010901B102C0000000457175616C697A65204865616C746800466C6F7707
:2025E0004C6974652053414D44353120426F617264000000EB3C9055463220554632200009
:20260000020101000240007E3EF83F000100010000000000000000008000294200420053FF
:20262000414D443531000000000046415431362020200000494E464F5F5546325458540068
:20264000D4260000494E44455820202048544D006426000043555252454E54205546320025
:20266000000000003C21646F63747970652068746D6C3E0A3C68746D6C3E3C626F64793E91
:202680003C7363726970743E0A6C6F636174696F6E2E7265706C6163652822687474707341
:2026A0003A2F2F657175616C697A656865616C74682E6F72672F22293B0A3C2F736372695B
:2026C00070743E3C2F626F64793E3C2F68746D6C3E0A000055463220426F6F746C6F6164F8
:2026E000657220312E342053464857524F0D0A4D6F64656C3A20466C6F774C69746520535C
:20270000414D44353120426F6172640D0A426F6172642D49443A20466C6F774C6974652020
:202720002D2053414D4435314A3230410D0A00000000000800003E800200020076312E31ED
:20274000205B53414D4435314A32303A464C4F574C4954455D204F63742032372032303247
:20276000312031333A30363A31320A0D000000000A0D000006000000580A0D00590A0D0054
:202780005A000000230A0D003E000000F8B500BFF8BC08BC9E46704789020000F8B500BFF1
:2027A000F8BC08BC9E467047650200000902990005010080FA080B00020202010009040054
:2027C00000010202010005240010010424020605240600010524010301070583030800FF92
:2027E00009040100020A000000070581024000000705020240000009040200020806500031
:2028000007058402400000070505024000000904030002030000000921000100012221000F
:2028200007058603400001070506034000010904040002FF2A01000705870340000107054C
:202840000703400001000000050F3900021810050038B60834A909A0478BFDA0768815B6FD
:2028600065000101001C100500DF60DDD88945C74C9CD2659D9E648A9F00000306AA00029B
:20288000000000000904030002030000030000000A00000000000306AA0008000200040055
:2028A000A0001400030057494E555342000000000000000000008400040007002A0044008C
:2028C0006500760069006300650049006E00740065007200660061006300650047005500BF
:2028E000490044007300000050007B00390032004300450036003400360032002D003900E2
:202900004300370037002D0034003600460045002D0039003300330042002D003300310045
:2029200043004200390043003500420042003300420039007D0000000000000000C20100EF
:2029400000000800534253550000000000000000000000000080020220000000000000008E
:1C2960000000000000000000000000000000000000000000312E3030C8010000D3
:2040000068B301205567000051670000516700005167000051670000516700000000000010
:20402000000000000000000000000000F1B20100516700000000000081B30100E5B3010056
:204040005167000051670000516700005167000051670000516700005167000051670000A0
:2040600051670000516700005167000039EA00005167000051670000516700005167000015
:204080005167000005E700000DE700005167000051670000516700005167000051670000F0
:2040A000516700005167000051670000516700005167000051670000516700005167000040
:2040C000516700005167000051670000516700005167000051670000516700005167000020
:2040E0005167000051670000000000000000000000000000FDE800005167000051670000FB
:204100005167000051670000516700005167000051670000516700005167000051670000DF
:204120005167000051670000516700005167000051670000516700005167000051670000BF
:20414000516700005167000051F3000049F3000041F30000CDF2000000000000000000007C
:2041600000000000000000000000000000000000000000000000000000000000000000003F
:2041800099120100A1120100A9120100B112010000000000E1FA00005167000051670000F4
:2041A00051670000516700005167000051670000F1FA00005167000051670000516700000C
:2041C00051670000516700005167000051670000516700005167000051670000516700001F
:2041E00001FB000051670000516700003D01010051670000590101005167000069010100DE
:2042000079010100000000000000000051670000516700005167000051670000516700008B
:204220005167000051670000516700005167000051670000516700005167000051670000BE
:2042400051670000516700005167000051670000516700005167000051670000516700009E
:204260000000000010B5054C237833B9044B13B10448AFF300800123237010BD500F00201D
:204280000000000078D102000C4B43B10C480D4910B5AFF300800C48036823B910BD0A483D
:2042A000036833B97047094B002BF7D0BDE810401847064B002BF5D0184700BF00000000F7
:2042C00078D10200540F002078D102000000000010B51A4C236813B1636801336360A3687E
:2042E000227B0133A36052B1236901332361237D4BB1A3690133A361237F43B910BD237DB8
:204300002261002BF5D1A361237F002BF6D00C4B9847236A0B4AC01A9042EFDD636A032B07
:2043200002D90133636210BD07494FF00040C1F89400002201332277636210BD6C0F0020A4
:204340002DC50100C0D4010000800041204B1B7843B1204B93F8310093F82B30400200EBE8
:20436000C30070471B49F0B591F8292091F8286091F82A3091F82B5091F82C4091F82D0045
:2043800091F82EE091F82F7002EB460202EB830303EBC50303EB041303EB401303EB8E132B
:2043A00091F8300091F8316091F8325091F8334091F8342003EBC71303EB002000EB46201F
:2043C00000EB852000EBC42000EB0230F0BD00BF100000206C0F002010B5054B9847054BE6
:2043E00004469847002814BF2046002010BD00BF656D0100216D01002DE9F04F2DED028B29
:20440000784B794C794D87B09847794B08EE100A9847784B0646984794F829A0074618EEEF
:20442000100ABAF1000F3BD1A847804630468946DFF8FCB1A84700224FF08043D847DFF815
:20444000F4B102460B4640464946D847002840F0AA8094F828A0BAF1000F50D118EE100A19
:20446000A847804630468946A847634D00224FF08043A847614D02460B4640464946A84745
:20448000002840F0A980F3EE047AB4EEE78AF1EE10FA00F3928007B0BDEC028BBDE8F08F2A
:2044A000A847804630468946DFF884A1A8470022534BD047DFF844A102460B4640464946D6
:2044C000D0470028C5D000224E4B84F829209847142802D04C4B984708B90023A360A26B31
:2044E0004A49531E042B88BF0522494B88BFA2630220984794F828A0BAF1000FAED094F822
:204500003C30002BC7D018EE100AA847804630468946A847384E3A4B002282468B46B047A7
:204520003C4E02460B4640464946B0470028B2D0F3EE057AB4EEE78AF1EE10FAABD5364E42
:20454000B04707EE907A07EE100A77EEC77A9FED337AF0EEE77AF4EEC77AF1EE10FA9ADBB7
:204560000023284A84F8283084F83C309047172802D0254B984708B90023A360A36B013B82
:20458000022B84BF0323A363B047A36B0493A8471F4CCDE90201CDE900AB42464B462049ED
:2045A0000220A04777E701221E49194BC4F804A0032084F8292098474BE71B49144A6060CB
:2045C0000123032084F8283084F83C3007B0BDEC028BBDE8F04F1047012314490C4AC4F81D
:2045E00004A0EEE799C000006C0F00207DF5010039C0000065BC0000C1F2010045FB0100CC
:204600000000F83F656D01004D4300001C620200118C01001DFB010071BC00009A99993E92
:2046200098620200006202006C62020050620200BDF2010009FB01002DE9F04F2DED048BE3
:20464000A94BAA4C85B09847A94B08EE100A9847A84B08EE900A984707EE900A94F82C30A0
:2046600037EEC88A88EE279A5BB9A34B1B78002B55D0002384F82C3005B0BDEC048BBDE81A
:20468000F08F9D4D2B78002BF3D194F85120002A55D0D4ED117AF4EEE78AF1EE10FA4EDB22
:2046A000A66B84F85030721E012A84BF0226A66384F8513084F82C3018EE900A8F4B984790
:2046C00000960B4602468E4E8E490320B04794F8613003B3D4ED127AB4EEE79AF1EE10FAB2
:2046E00019DBA66B721E012A4FF0000388BF022684F8603084F8613084F82C3088BFA66308
:204700007E4B19EE100A9847009602460B467C4E7D490320B0472B78002BAAD1ACE7B0EE7D
:20472000007AF4EEC77AF1EE10FA14DCC4ED118A84ED129A05B0BDEC048BBDE8F08F94F8FD
:204740006130002B98D0D4ED127AB4EEE79AF1EE10FAE0DBC5E7DFF8D081C0476B4B08EE9A
:20476000100A984707EE900A694B38EE678A9847B4F93E30B0EEC88A05B2A3B15A1B052A4D
:2047800011DCEB1A0A2B0FDD94F84030002B00F0428101220023227384F84020E387236187
:2047A000D4F8449016E0E58723690A2B10D994F840306BB1B4F93E20AB1A0A2B40F331814B
:2047C000002020612B4653494D4E0220B047E587D4F84490494DDFF854A118EE900AA8477A
:2047E000064648460F46DFF84891A8473AA3D3E90023C84702460B4630463946D047002853
:2048000000F0FA8018EE100AC4ED118A84ED129AA847DFF8209132A3D3E90023C847002843
:2048200040F0F68094F84030002B7FF425AF606CDFF804B1DFF8FC80A8470022364BCDE971
:204840000201D8470B46024639463046C04794F85030002800F0A580002B00F0F380F1EEEB
:20486000047AF4EEE78A9FED2D8ADFED2D7AD4ED128A94F86030F1EE10FAD8BFB0EE678A29
:2048800078EEC87AB4EEE79AF1EE10FA56D5002B00F0238194F850304BB194F85130002B3A
:2048A00000F0FD8094F86030002B3FF4E5AE94F86130002B00F0E38094F85130002B3FF478
:2048C000DBAE0F4B174903209847012384F82C30D2E600BFAFF300809A9999999999B93F6F
:2048E000EC51B81E85EBB13F71BC00006C0F0020A5BB000065BC0000100000207DF5010059
:20490000118C0100F86502004466020099C00000F1730000246302000000F03F9A99193FEE
:20492000CDCC4C3E8865020039C0000045FB0100C1F2010009FB0100BDF2010063B319EEA5
:20494000100AA847804618EE900A8946A84791A3D3E90023D84702460B4640464946D04733
:20496000002897D0804B9847E36E02461BB1C31AB3F5FA6F0BD3E266A06CA8474246CDE94C
:2049800000014B46DFF8F48178490420C047002384F8603084F8613094F85030002B81D089
:2049A0007BE7002B3FF45BAF0022714BDDE90201D84702460B4630463946D04700283FF467
:2049C0004EAF694B9847E36D02461BB1C31AB3F57A7F0BD3E265606CDFF8A081A847324615
:2049E000CDE900013B4663490420C047002384F8503084F8513032E7C047D4ED137A07EE29
:204A0000100AB4EE677AF1EE10FA7FF4FBAE09E7C047E06406E72A465749584B0220984718
:204A2000B7E62B465649554D0220A847002318EE909AC4ED118A84ED129A237384F84030D8
:204A40002361C7E60122DFF8208184F8513084F85020C04700F59C5008306065C047A36DA5
:204A600023B1C31AB3F57A7FFFF4F9AEA06532463B464449DFF804810420C047EFE63A4EDB
:204A8000B047636E984250D894F85130002B3FF4F3AD94F86030002B3FF4EEAD11E7DFF85D
:204AA000C880C047636D98427FF6FCAEC047236F02461BB1C31AB3F57A7F0AD32267606C81
:204AC000A8473246CDE900013B462C4E2E490320B047012384F85130E4E60122DFF888803F
:204AE00084F8613084F86020C04700F59C5008306066C047A36E024623B1C31AB3F5FA6FA5
:204B0000FFF44AAFA26618EE100AA847804619EE100A8946A8474246CDE900014B46DFF846
:204B20005C801A490420C04736E7B047636F02461BB1C31AB3F57A7F0FD3626719EE100AC7
:204B4000A8470646A06C0F46A8473246CDE900013B460A4D0E490320A847012384F8613029
:204B600092E700BFAFF300802DC50100A06402000000E03FF8630200F8620200118C01006C
:204B800074630200B8630200F864020048640200386502009A9999999999A93F70B5444B41
:204BA000444D2DED028B984708EE100AA847C0B9414C94F82E30002B3DD0DFED407AB4EE8F
:204BC000E78AF1EE10FA5CDC94F8323093B9DFED3C7AB4EEE78AF1EE10FA43DCBDEC028B36
:204BE00070BDBDEC028B344B002283F8322083F82E2070BDDFED337AB4EEE78AF1EE10FA79
:204C0000ECD50022304B84F8322098471C2802D02E4B984708B90023A360A26B2C49BDEC09
:204C2000028B531E032B84BF0422A263294B0220BDE870401847244B98471228C4D0DFEDA8
:204C4000267AB4EEE78AF1EE10FABDD5A8470028BAD10122606021491E4B84F82E200320E1
:204C60009847B1E7A8470028B8D1BDEC028B0122606084F832201A49164B0320BDE87040FA
:204C80001847114B84F82E0098471B2802D00F4B984708B90023A360A26B1249531E032B94
:204CA00088BF04220B4B88BFA263022098478BE7C9E0000095DD00006C0F002000000E426C
:204CC00000002C4200002A42656D01004D43000020670200118C010000000C42AC6602000E
:204CE00000670200CC66020070B5444B444D2DED028B984708EE100AA847C0B9414C94F8BB
:204D00003330002B3DD0DFED407AB4EEE78AF1EE10FA5CDC94F8343093B9DFED3C7AB4EEDE
:204D2000E78AF1EE10FA43DCBDEC028B70BDBDEC028B344B002283F8342083F8332070BDF6
:204D4000DFED337AB4EEE78AF1EE10FAECD50022304B84F834209847202802D02E4B98475F
:204D600008B90023A360A26B2C49BDEC028B531E032B84BF0422A263294B0220BDE870409C
:204D80001847244B98471228C4D0DFED267AB4EEE78AF1EE10FABDD5A8470028BAD10122D9
:204DA000606021491E4B84F8332003209847B1E7A8470028B8D1BDEC028B0122606084F8C2
:204DC00034201A49164B0320BDE870401847114B84F8330098471F2802D00F4B984708B9E7
:204DE0000023A360A26B1249531E032B88BF04220B4B88BFA263022098478BE78DE0000097
:204E0000D1DD00006C0F002000000E420000A4420000A342656D01004D430000E067020082
:204E2000118C010000000C4254670200B86702007C67020070B5304B304C2DED028B984721
:204E400094F82F3005467BB350B92D4B984707EE900ABBEE048AF4EEC87AF1EE10FA3CDCA3
:204E6000284DA84711281CD8002384F82F30A8471D2802D0244B984708B90023A360A26B5B
:204E80002249BDEC028B531E032B84BF0422A2631F4B0320BDE8704018474DB3012384F883
:204EA0007830BDEC028B70BD164EB0471128F8D9B0471228F1D0002DF3D094F87830002B41
:204EC000EFD1BDEC028B0125636084F82F5011490F4A0320BDE8704010470F4B984707EE48
:204EE000900AF4EEC87AF1EE10FAB9DD054DBBE784F87850D5E700BF95DD00006C0F0020B5
:204F0000C9E00000656D01004D43000044680200118C01001C6802007DBC000010B50C4C5D
:204F200094F879305BB90B4B1B7803B110BD0A4B98470028FAD0012384F8793010BD074A31
:204F40004FF000410023C2F8941084F8793010BD6C0F002010000020216D01000080004143
:204F600010B50B4C636A032B07D8207730B9094B4FF00042C3F8942010BD10BD064B9847AD
:204F8000044B20624FF00042C3F8942010BD00BF6C0F0020008000412DC50100034B586A65
:204FA000032894BF00200120704700BF6C0F0020014B187F704700BF6C0F0020000000002D
:204FC000F0B55D4C5D4B83B0984794F83150002D29D05B4B5B4D984753A3D3E90023064648
:204FE0000F46A847D0B10022574B84F831209847192802D0554B984708B90023A360A36BF5
:2050000053495A1E032A84BF0423A36332460093504C3B460220A04703B0F0BD4E4B9847D6
:205020000028E0D1F8E74D4B06469847002845D194F82B50002D29D03046414B414D98471B
:205040003BA3D3E9002306460F46A84718B9424B9847002844D03C4D002384F82B30A84718
:20506000162802D0394B984708B90023A360A36B3B495A1E032A84BF0423A3633246009324
:20508000344C3B460220A04703B0F0BD354B98470028C1D02C4FB8471028BDD9B84712280D
:2050A000BAD0314A264B1570012284F82B2030469847284C0B4602462C490BE02A4A204B6A
:2050C0001570012284F8312030469847214C0B46274902460320A44603B0BDE8F040604754
:2050E000194DA8471228B7D0A847102802D9A847212891D9002384F82B30A847162802D0FD
:20510000124B984708B90023A360A36B1949013B032B84BF0423A3630E4B022003B0BDE84F
:20512000F0401847AFF300809A999999999934409A999999999935406C0F0020E9290100F9
:205140007DF5010031FB0100656D01004D430000B4680200118C0100BD290100592A010025
:20516000206902000D2A010010000020F8680200806802005869020070B5114E114CB04755
:20518000D4ED1F7A07EE100AB4EE677AF1EE10FA06D1257D15B1A269082A09D8284670BD42
:2051A00000230125A3612575B047E067284670BD00250549054B257502209847EEE700BF3D
:2051C000E9BD00006C0F0020A0690200118C01002DE9F041604C237D23B1A369072B01D867
:2051E000BDE8F08194F82A301BB35C4B5C4D98475C4B0646984780463046A84706464046E7
:205200000F46A847584D594B0022A847584D02460B4630463946A847002840F0828094F8E8
:205220002D30002B2AD1534B9847002857D0BDE8F081504B98470028F1D1484B484D98479E
:20524000484B0646984780463046A847064640460F46A847444D484B0022A847474D02463E
:205260000B4630463946A8470028D8D001224449444B84F82A2003209847D0E7374B384D64
:205280009847384B0646984780463046A847064640460F46A8473C4D344B0022A847374DA3
:2052A00002460B4630463946A8470028BFD00022364B84F82D2098471E2802D0344B9847F9
:2052C00008B90023A360A26B3249531E042B84BF0522A2632B4B0220BDE8F04118471F4B19
:2052E0001F4D98471F4B0646984780463046A847064640460F46A847234D1F4B0022A847A2
:205300001B4D02460B4630463946A84700288ED0012284F82D2020491A4B0320BDE8F0416F
:2053200018470022194B84F82A209847152802D0174B984708B90023A360A26B1749531ECE
:20534000042B88BF05220F4B88BFA26302209847002384F82C3062E76C0F00207DBE0000EF
:205360007DF50100E9BD0000BDF2010000001C4045FB0100795100000000244009FB010094
:20538000C4690200118C0100C1F20100656D01004D430000186A0200046A0200D8690200F2
:2053A000C30701D5142930D0820701D517292CD0430701D5152928D0020701D5162924D00D
:2053C000C30601D5182920D0820601D51E291CD0430618D4020601D51D2916D0830501D5CF
:2053E000192912D0420501D51C290ED0030501D51F290AD010F4805008D0A1F12000B0FA41
:2054000080F0400970471B29E4D10120704700BF0D4B002200211A60C3F8802083F8292058
:2054200083F8282083F82A2083F82D2083F82C2083F82E2083F8322083F82F2083F87820E2
:2054400059649964D96470476C0F00207B4B30B4A3FB01237A4C5B09421E84F8853084F860
:205460008400062A00F2CF80DFE812F022003C00570094007200B2000700724B42F20F7288
:2054800042F21070814288BF11461A6989B25186136913F0FF03FBD16B496C4A09691269BE
:2054A0000B675386136913F0FF0FFBD130BC7047644B1A6900235386136913F0FF03FBD12A
:2054C0006148624A00691269036742F20F73994228BF194689B25186136913F0FF0FFBD1E7
:2054E00030BC7047574B1A6900235386136913F0FF03FBD15448554A0069126942F21075C3
:2055000042F20F74A94288BF214601675386136913F0FF0FFBD130BC70474A4B42F20F72B4
:2055200042F21070814288BF11461A6989B25186136913F0FF03FBD14349444A096912696D
:205540000B675386136913F0FF0FFBD130BC70473C4A42F21073994212698DBF42F20F736F
:205560008BB2084618465386136913F0FF0FFBD1354B364A1B691269186742F20F73994201
:2055800028BF194689B25186136913F0FF0FFBD130BC70472B4B1A6900235386136913F043
:2055A000FF0FFBD142F21073994240D8264A42F20F738B42126928BF0B4611679BB2234A8F
:2055C00012695386136913F0FF0FFBD130BC70471C4B42F20F7242F21070814288BF11464A
:2055E0001A6989B25186136913F0FF03FBD11649164A096912690B675386136913F0FF0F45
:20560000FBD130BC70470F4B1A6900235386136913F0FF03FBD10C490C4A096912690B67EB
:205620005386136913F0FF0FFBD130BC7047064B1A6942F20F731367C1E700BF1F85EB514A
:205640006C0F002004B2002024B20020E4B00020F8B52F4C94F88630EBB1D4F8885094F8F9
:205660008C30302D18DD03EB830303EB83039B0007EE903AF8EEE77A264D94F88D00264A97
:20568000FCEEE77A002317EE901A6B7031259047013DC4F88850F8BD002D1FDB03EB8303C3
:2056A00003EB83031D4A1B4994F88D004E781A4F9B0007EE903A02EB8502F8EEE77A92EDCF
:2056C000007A67EE877AFCEEE77A17EE901AB847002EDDD00135C4F88850F8BD03EB830333
:2056E00003EB83039B0007EE903A9FED0D7A094994F88D00084AF8EEE77A012367EE877A4B
:205700004B70FCEEE77A002517EE901A9047E1E76C0F0020100000204D540000346102000D
:2057200000000000004B18475156000010B500EB8000074C074B00EB8000820092B22046AC
:2057400042F2107198472046034BBDE81040184704B20020A5CA000065CA000010B500EB89
:205760008000074C074B00EB8000820092B2204642F2107198472046034BBDE810401847D1
:2057800024B20020A5CA000065CA000010B500EB8000074C074B00EB8000820092B2204609
:2057A00042F2107198472046034BBDE810401847E4B00020A5CA000065CA0000374A431E19
:2057C00070B50C4682F8840082F88510062B5BD8DFE803F0451A0430410404000846304B82
:2057E000304D314C9847002242F210712F48A8472E48A047002242F210712D48A847234692
:205800002B48BDE870401847002242F21071254E2848254DB0472748A8472046264B98472A
:20582000002242F210712248B0472B462048BDE8704018471B4B1F48002242F21071984720
:205840001C48194B984720461B4B984720461B4BBDE8704018470846114B9847F3E70022F1
:2058600042F210710F4E13480F4DB0471148A847002242F210710D48B0470C48A847204654
:205880000E4BBDE870401847002242F21071054D0848054CA8470748A047A4E76C0F0020E6
:2058A0002D570000A5CA000065CA000024B20020E4B0002004B200205D5700008D570000AE
:2058C000F0B5154C002583B084F88600C4F8885048B903461A46D4F89000009303210F4CBC
:2058E000A04703B0F0BD0E4F84F88D100846012629460C4B84F88C207E7098470A4BD4F89A
:205900009040984731460246009520462B46034CA04703B0F0BD00BF6C0F002089D1010062
:2059200010000020BD5700002DC5010070B5A74C216882B019B1D4F89430002B4DD1A36BAC
:205940001BB1A2689342C0F0A880D4F880308B423FD0002939D000238805636000F1E9806D
:205960008A0700F1D780CB0700F1EC80CE0600F102814D0700F11081880600F1EC800A0705
:2059800000F11A814B0500F15A814E0600F16B81CD0400F16E81080500F17B810A0600F182
:2059A0007E81CB0540F18B81A36B8949013B032B88BF04234FF00502C4F8942088BFA36320
:2059C0000522844B02209847ACE0C4F89410C4F88010002948D002B070BD62689342AED259
:2059E0007D497C4D0220A84794F8852094F884107A4B84F8992084F898109847226884F8B3
:205A00009A00960500F1D180900700F1AD80D10700F10E81D30600F11B81560700F132819B
:205A2000900600F14581110700F15181530500F16681560600F16A81D00400F17781110503
:205A400000F17B81130600F18381D60540F17C811A20634B984763490220A8470023C4F8DF
:205A60009430A363216870E75F4B98470028B2D0A36B002BAFD15D4B9847584B002840F00E
:205A8000838098475A49534B0246022098471120534B02B0BDE87040184794F89A1000919E
:205AA000022054494B4E4D4DB047534B4FF00042C3F894200023A363A847102828D0A84738
:205AC000132825D0A847112822D094F89A50FDB10F2D00F010812068002800F0C08029464C
:205AE000464B9847002840F0BA80404B9847002800F0F48013203A4B984700221146104648
:205B00003F4B984794F8991094F898003D4B984721681AE705231A463B492E4DC4F89430CB
:205B20000220A8472168D4F880308B427FF44FAF4FE705231A463549264DC4F894300220C0
:205B4000A847EFE705231A463149224DC4F894300220A847E6E732231A462E491D4DC4F85F
:205B600094300220A847DDE717201D4B98472A490220A84772E702231A4618462749154D7C
:205B8000C4F89430A847CDE798472549114B02460220984713207BE732231A4621490D4DE2
:205BA000C4F894300220A847BCE719200C4B98471D490220A84751E708231A461B49054D52
:205BC000C4F894300220A847ACE700BF6C0F002084700200118C0100446A0200656D010030
:205BE000716D0100406D0200216D0100FDC0000060710200E06D020000800041A1530000F4
:205C0000C1580000BD5700005C6E0200246E02008C6E0200146F0200A06A0200BC6E02003E
:205C200010710200E86E02006C6A0200406F020014204B4B98474B490220A8470EE7142386
:205C40001A464949494DC4F894300220A84769E71820434B984746490220A847FEE6284644
:205C60003F4B984749E7434B984700283AD021688EE614231A4640493C4DC4F894300220A4
:205C8000A8474FE71520364B98473C490220A847E4E6384B984700283FD021687EE605233C
:205CA0001A463749314DC4F894300220A84739E71E202B4B984733490220A847CEE60B46B0
:205CC000D4F880203049294D0220A8472AE71620234B98472D490220A847BFE61120204BFC
:205CE00098470AE778231A462949204DC4F894300220A84716E70E20194B9847FDE61C20DC
:205D0000174B984723490220A847A7E61B20144B984721490220A847A0E6B4231A461F491F
:205D2000124DC4F894300220A847FBE620200C4B98471B490220A84790E61F20084B9847C0
:205D400018490220A84789E617490220A84785E61D20034B984715490220A8477EE600BF8A
:205D6000716D0100CC6A0200706F0200118C0100F86A02000D2A0100D86F0200346B020007
:205D8000487002005C6B0200C8700200806B0200A46F0200A86B0200F46B0200107002004C
:205DA0003C6C0200946C0200A06D0200E86C02002DE9F04F434BDFF860B1DFF86081424FBE
:205DC000424E434DDFF858A1DFF8589185B0984704AC404B44F8040D012200934FF47A7193
:205DE00000233D48D8473D4BC8F89C000122142100933B480023D847324BD8F89CB0C8F8EF
:205E00009000984700230246012158460093DFF818B1D847DFF814B14FF47A612046B84777
:205E2000B047A84702284FF01501F7D9D04718B199F80030002B39D02A4B984718B199F8AA
:205E40000030002B35D0D04718B199F80030002B32D0254B984718B199F80030002B2ED012
:205E6000224B984710B199F80030E3B1204B9847204B9847204B9847204BC8F800009847D8
:205E800008B9C8F824000F4B9847D8F8A0301BB1C31AB3F57A7F03D3194BC8F8A0009847C1
:205EA000D8471521BAE7174B9847DFE7164B9847C2E7164B9847C6E7154B9847C9E7154BC0
:205EC0009847CDE72DC5010055C7010079510000656D0100D1420000B471020025570000CC
:205EE000C8710200E9BC000029DF0000D5DE0000354E0000C14F00004D430000216D010055
:205F00001D4F0000E94C0000F9430000D1510000394600009D4B000035D101006C0F002079
:205F2000FDC000001000002089D101002D590000094B83F88E0000B9704770B4074D084CFA
:205F400083F88D10012683F88C2008466E702346002170BC184700BF6C0F00201000002010
:205F6000BD570000034A044B4FF00041C2F89410187070470080004110000020014B18609F
:205F8000704700BF6C0F0020014B83F8290070476C0F0020014B83F82A0070476C0F00206B
:205FA000014B83F82D0070476C0F0020014B83F82B0070476C0F0020014B83F830007047A9
:205FC0006C0F0020014B83F82F0070476C0F0020014B83F82E0070476C0F0020014B83F8D0
:205FE000320070476C0F0020014B83F8330070476C0F0020014B83F8340070476C0F002084
:20600000004B18476988000070B5064D064C4FF400166E613220A047AE6123466420BDE819
:20602000704018470080004169880000024B4FF400225A61704700BF00800041024B4FF46B
:2060400000229A61704700BF0080004130B587B006AB002503F8110D012403A9034A044877
:20606000039304950594904707B030BD7DCB00009CB10020F0B58BB00023082903930293C9
:2060800014D80AAD0A46552105F8211D02AE044607A9049601270648064E05940692089382
:2060A00007950997B04704A90148B0470BB0F0BD9CB100207DCB000010B5034B9847034B63
:2060C000BDE81040184700BF9170000061E50100F8B5094C07466FF0B9000E461546A04768
:2060E0003846A0473046A0472846A047034B9847034B98470120F8BDCD780000F1780000AB
:20610000B17E000008B56FF0B600074B9847074B9847074B9847074B07489847A0F10200D8
:20612000B0FA80F0400908BDCD780000F1780000B17E000059780000F025300008B5074B35
:206140009847074B9847074B9847074B07489847A0F10300B0FA80F0400908BD3D7E000007
:20616000F1780000B17E000059780000F0253000830709D10B469B0606D1930710B405D011
:2061800000205DF8044B704700207047014B5DF8044B1847D16000002DE9F84F6FF0E4008D
:2061A000DFF82091DFF820A1DFF820B1374D384E384FDFF81C81C8474FF47F20C847FF20F3
:2061C000C8474FF48050C8471420D047D847324B98474FF47F2419E02968B0476968201D53
:2061E000B047A96804F10800B047E96804F10C00B047296904F11000B047696904F11400F1
:206200001834B047444505F1180503D06B69BB422046E1D0214C1F4BD4F8AC269A4218D0AB
:20622000D4F8B0161E48B0476FF0B800C8471D48C8474FF47F20C8474FF48050C84714208E
:20624000D047D847144B98471420D0470120BDE8F88FD4F894161448B047D4F89816134894
:20626000B047D4F89C161248B047D4F8A0161148B047D4F8A4161048B047D4F8A8160F48D0
:20628000B047D4F8AC160E48B047C9E718100020E5750000CAF00F53B17E0000141000204B
:2062A000FCFF0F0000108000D0FF0F00D4FF0F00D8FF0F00DCFF0F00E0FF0F00E4FF0F00D4
:2062C000E8FF0F00CD78000001600000F178000090F60F0030B408B10138C0B20F4B104D25
:2062E000002204E00132462A03F1180313D01C68A042F7D15C69AC42F4D10A4B02EB4202D7
:2063000003EBC20201209568D46813698B600D604C6030BC7047002030BC70471810002043
:20632000CAF00F531410002070B4144DB5F8B44614B3D5F8C83683420E460ED005F5D76215
:20634000002302E01169814208D00133A34202F11402F7D1002070BC7047002303EB83039F
:2063600005EB830303F5D7650FCD34460FC42B682360012070BC70472046ECE714100020B3
:206380002DE9F047504B82B09847002862D04F4B98470446002855D04D4F4E4B38460222C3
:2063A00020F8042B00214FF4D26298474FF4805249494A4B4FF47F2098470446002877D069
:2063C000474EDFF85081DFF850913C1D4FF47F254FF0000A03E04D4504F1180443D0284638
:2063E000B0472060281DB047606005F10800B047A06005F10C00B047E06005F11000B047FF
:20640000206105F11400B0474045606105F1180529D12368002BDEDAB7F8B406216900EB5B
:20642000800207EB82020130C2F8C836636882F8C4A6C2F8C0A6A7F8B406C2F8BC16C2F80D
:20644000B836C8E72749284B04209847204602B0BDE8F08704462549234B042098472046F6
:2064600002B0BDE8F0872248B047C7F894062148B047C7F898062048B047C7F89C061F48B0
:20648000B047C7F8A0061E48B047C7F8A4061D48B047C7F8A8061C48B047C7F8AC061B48E2
:2064A000B0470124C7F8B006204602B0BDE8F0874FF48053009316490B4D03F500034FF479
:2064C0007F220420A847C1E7056100003D61000014100020D907020000108000D160000075
:2064E00049770000F4710200118C0100DC710200D0FF0F00D4FF0F00D8FF0F00DCFF0F00F8
:20650000E0FF0F00E4FF0F00E8FF0F00FCFF0F0014720200CAF00F5390F60F00F0B4094C69
:20652000094ED4F8AC7604F2946405460FCC0FC594E8070085E80700B81BB0FA80F0400901
:20654000F0BC704714100020CAF00F5370B405460FCD054C054E0FC495E80700334684E84D
:20656000070070BC184700BFA81600209961000010B50A4B0A48984700210A4B0A48984700
:206580000A4B044606489847844200D810BD21460348074BBDE81040184700BF49C500009F
:2065A0004CB1002079730100647202000DEA0000DDE900000146014B014818476DC60000CE
:2065C0004CB100202DE9F043114C124B89B006A9204698472046104B9DF81A409DF81950C0
:2065E0009DF818609DF81D709DF81C80BDF81E90984722460490CDF80C908DE8C0012B46F5
:206600000649074C0220A04709B0BDE8F08300BF4CB100206DC600000DEA00006C72020018
:20662000118C010030B51A491A4D1B4C83B0A847A047C0B218288CBF00238DF80600144995
:2066400088BF8DF806300020A847A047C0B23B288CBF00238DF805000D4988BF8DF805301E
:206660000020A847A047C0B23B288ABF00238DF804008DF8043001A9084B09489847094B20
:2066800007489847084B01460848984703B030BD64950200851F0200CDFF010075C50000BB
:2066A0004CB100200DEA00004D7201006472020030B51F491F4D204C83B0A847A047C0B28E
:2066C0000C288CBF01238DF80500194988BF8DF805300020A847A047C0B21F2894BF8DF8A3
:2066E00004000123124988BF8DF804300020A847A04780B2632898BF00F5FA6040F2D97340
:2067000098BF80B2984298BF40F2E573ADF8060001A998BFADF806300848094B9847094BD7
:2067200006489847084B01460848984703B030BD9C720200851F0200CDFF01004CB1002023
:20674000F5C500000DEA00004D72010064720200FEE700BF1B491C4A914208B50ED01B48B1
:2067600082420BD2D343034423F003030433134451F8040B42F8040B9A42F9D1144A154971
:206780008A420AD2D3430B4423F0030304331344002142F8041B9A42FBD10F4A0F4B22F05E
:2067A0007F029A60D3F8882042F47002C3F88820BFF34F8FBFF36F8F094B9847094B98473A
:2067C000FEE700BF78D1020000000020500F0020500F002068B300200040000000ED00E064
:2067E0005100020019200100F0B4674B6748684D684F694E4FF0404208245C6098629A6245
:2068000093F8431001F0FE0141F0010183F8431093F8311001F00F0141F0100183F83110DE
:206820004FF48071C3F88410C3F8A850C3F8A82093F8C81001F0FE0141F0010183F8C810C6
:2068400093F8B41001F0F00141F0010183F8B410102159609F629A6293F8441001F0FE01DF
:2068600041F0010183F8441093F8321001F0F00141F0010183F83210402159609E629A6261
:2068800093F8461001F0FE0141F0010183F8461093F8331001F0F00141F0010183F8331082
:2068A000803D802159609D629A6293F8471001F0FE0141F0010183F8471093F8331001F030
:2068C0000F0141F0100183F8331007F57C774FF4806159609F629A6293F84A1001F0FE010A
:2068E00041F0010183F84A1093F8351001F0F00106F5F86641F001014FF4006783F83510E8
:206900005F609E629A6293F84B1001F0FE0141F0010183F84B1093F8351001F00F017C3D53
:2069200041F01001042683F83510C3F88460C3F8A850C3F8A82093F8C21001F0FE0141F0D8
:20694000010183F8C21093F8B11001F0F00141F0010183F8B110C3F88440C3F8A800C3F8AE
:20696000A82093F8C32002F0FE0242F0010283F8C32093F8B12002F00F0242F0100283F83E
:20698000B120F0BC704700BF008000410800004000010040100000404000004010B5094AD2
:2069A0000948136A094943F0800342241362C0F820418847002206490648074BBDE8104038
:2069C000184700BF00080040001C0040E9670000001C004344B1002021C2000010B4184B27
:2069E000184A194804244FF040415C609A62996293F8422002F0FE0242F0010283F8422048
:206A000093F8312002F0F00242F00102202483F831205C609862996293F8452002F0FE02DE
:206A200042F0010283F8452093F8322002F00F0242F0100283F832205DF8044B704700BF36
:206A400000800041040000402000004070B5084A084D136A084C0949094843F4007342267F
:206A60001362C5F82861A047064BBDE87040184700080040001C0040A9C6000000240043F5
:206A80006CB10020DD690000F0B4234A234C244B244E2548254D26494427C2F890706269D4
:206AA000202742F480626261C3F88470C3F8A860C3F8A80093F8C52002F0FB0283F8C52020
:206AC00093F8C52002F0FE0242F0010283F8C52093F8B220402402F00F0283F8B220C3F8F3
:206AE0008440C3F8A850C3F8A80093F8C62002F0FB0283F8C62093F8C62002F0FE0242F066
:206B0000010283F8C62093F8B32002F0F00283F8B320F0BC084700BF001C00400008004023
:206B20000080004120000240000002C04000024011C80000164B93F8482002F0FB0283F857
:206B4000482093F8482002F0FE0242F0010283F8482093F8342002F0F00242F0020283F85C
:206B6000342093F8492002F0FB0283F8492093F8492002F0FE0242F0010283F8492093F870
:206B8000342002F00F0242F0200283F8342070470080004170B50A4B0A4A0B4C0B490C4836
:206BA00042264325C3F89C60C3F88C50536943F480535361A047074BBDE87040184700BF91
:206BC000001C00400008004049C900000030004044B20020356B000070B4284B284D294E56
:206BE00029482A494FF480324FF080445A619A609C629D6293F8502002F0FE0242F00102E5
:206C000083F8502093F8382002F0F0024FF4003542F0020283F838205D619D609C629E6288
:206C200093F8512002F0FE0242F0010283F8512093F8382002F00F0242F020024FF4802424
:206C400083F838205C609862996293F8522002F0FB0283F8522093F8522002F0FE0242F0B6
:206C6000010283F8522093F8392002F0F00242F0020283F8392070BC704700BF00800041EF
:206C8000010000C0020000C000000240040002C070B50A4B0A4A0B4C0B490C4842264325CC
:206CA000C3F8A060C3F88C50536943F400535361A047074BBDE87040184700BF001C004080
:206CC00000080040D9CA0000003400409CB10020D96B0000104B93F8572002F0FE0242F023
:206CE000010283F8572093F83B2002F00F0242F0300283F83B2093F8562002F0FE0242F057
:206D0000010283F8562093F83B2002F0F00242F0030283F83B20704700800041F0B50D4B33
:206D20000D4C0E4A0E490F4D0F4840274326C3F80C71C3F88C60236A83B0002643F00203CB
:206D4000236210230096A847084B03B0BDE8F040184700BF001C004000080040481C0020D5
:206D600000040043B9CF0000B4B10020D56C000070B51149114C8B69114A124843F400536F
:206D800044258B61C4F8E85092F84D3003F0FE0343F0010382F84D3092F8363003F00F038C
:206DA00043F0400382F8363080470749074B0246BDE870400648184700080040001C004026
:206DC00000800041F500010000A001411DCA000004B1002070B51149114CCB69114A124899
:206DE00043F020034425CB61C4F8F85092F8CD3003F0FE0343F0010382F8CD3092F8B6300B
:206E000003F00F0343F0400382F8B63080470749074B0246BDE8704006481847000800409C
:206E2000001C004000800041F5000100001400421DCA000004B2002070B51149114CCB691C
:206E4000114A124843F040034425CB61C4F8F85092F8CF3003F0FE0343F0010382F8CF3041
:206E600092F8B73003F00F0343F0400382F8B73080470749074B0246BDE870400648184712
:206E800000080040001C004000800041F5000100001800421DCA0000E4B0002070B5114923
:206EA000114C8B69114A124843F4006344258B61C4F8E45092F8DE3003F0FE0343F001032A
:206EC00082F8DE3092F8BF3003F0F00343F0060382F8BF3080470749074B0246BDE8704020
:206EE0000648184700080040001C004000800041D9FA0000006001411DCA0000C4B0002090
:206F000070B51149114C8B69114A124843F4805342258B61C4F8E45092F84C3003F0FE03A5
:206F200043F0010382F84C3092F8363003F0F00343F0060382F8363080470749074B024681
:206F4000BDE870400648184700080040001C004000800041D9FA0000008001411DCA00004E
:206F600024B1002070B51149114C0B6A114A124843F0100344250B62C4F8185192F8CE304D
:206F800003F0FE0343F0010382F8CE3092F8B73003F0F00343F0050382F8B7308047074944
:206FA000074B0246BDE870400648184700080040001C004000800041D9FA000000100043AA
:206FC0001DCA000024B2002010B4204B2049214C4FF080724FF080409A60986299625A61F5
:206FE00093F8582002F0FB0283F8582093F8582002F0FE0242F0010283F8582093F83C20A8
:2070000002F0F00242F007024FF0007183F83C20996098629C62596193F8592002F0FB022C
:2070200083F8592093F8592002F0FE0242F0010283F8592093F83C2002F00F0242F07002AF
:2070400083F83C205DF8044B704700BF00800041000100C0000200C010B5094A094B0A493C
:207060004520C2F8A8001A6942F480621A619A6942F001029A618847044BBDE8104018478E
:20708000001C00400008004065D30000C96F000070B52F4B2F4C98472F4B3048304A3149FD
:2070A0004FF40005C3F88450C3F8A800C3F8A82093F8D7202C4D02F0FB0283F8D72093F82C
:2070C000D72002F0FE0283F8D7208847274B9847274B984763692749274A284843F400731D
:2070E00063619047264B9847264B9847264B98472648274B984763692649274A43F48043A0
:2071000042206361C1F8A40090472449244B024624489847244B9847244B9847244B9847BC
:20712000244B9847244B9847244B9847244B98476369244943F48073636148220120A84776
:207140002148224A224B0260BDE87040184700BFC5E3000000080040008000410000024025
:20716000800002C09D69000005D700004D6A0000896A00000024004005C500004CB10020F6
:20718000956B0000916C00001D6D000010E000E095C70000001C0040F10001000038004076
:2071A00031CD000080B10020716D0000D56D0000396E00009D6E0000016F0000656F00006A
:2071C00059700000A072020048B1002000200040B91201002DE9F047344C354E354B36483F
:2071E000DFF8DC80DFF8DC90344D01274FF400625221984721463A4630682770C0473A46DC
:2072000021463068C84723783068277063F07F032146022263704FF0030AC0473A46214629
:20722000306884F800A0C0473A4621463068C8472378306884F800A063F03F032146022296
:207240006370C0474A2220215220A8472B2221215220A8473A2222215220A84700222321F0
:207260005220A847602224215220A847C02225215220A847CB2226215220A847B02227214D
:207280005220A847092228215220A847B92229215220A8470D222A215220A8472B460C22B8
:2072A0002B215220BDE8F047184700BF8CB2002084B200208DC9000044B20020F5140100EC
:2072C000ADC90000DDC9000038B50C4C0C4B054670212068984718B90A490B4B0320984737
:2072E00029460A4B52209847002305461A462068074C1946A047284638BD00BF94B0002004
:20730000D1BE0100BC720200118C0100D913010091BA01002DE9F843DFF8D090284B06468F
:207320007021D9F800009847002844D04FF400625221244C2448254B254D264F98474FF067
:207340000108FF2E286884F800802146424621D8B84742462146204B286898472378286890
:2073600084F8008023F00103214602226370B847286814496670002502222570B847174C9A
:20738000D9F800002B462A462946A047144B1E80BDE8F883B8474246214628680E4B984712
:2073A0002378286884F8008043EA0803214602226370B847DCE70B490B4B03209847B5E706
:2073C000D1BE01008CB2002044B200208DC9000084B20020ADC90000DDC9000091BA010095
:2073E000581C0020D0720200118C010094B00020014B1888704700BF581C0020014BB3F9C5
:2074000002007047581C0020F8B5184E184B30687021984720B34FF40062164B1648174F04
:20742000174D5221984711215220B8471221044652202C70B847002328701A461946306857
:20744000104EB0472B78240223449BB218B2B0F5005FA4BFA3F5804318B20B4B5880F8BD21
:207460000A490B4B032098470A48F8BD94B00020D1BE01008DC9000044B20020D91301000D
:207480008CB2002091BA0100581C0020E4720200118C010018FCFFFF2DE9F043002583B005
:2074A000DFF86490154FDFF864802E462C4608E09D421CD001341D4600268C2B09DD632C5F
:2074C00007DCC8471420B847B8F9023013F57A7FEED100932246334609490A4C0220A047BF
:2074E0004FF4FA703B4603B0BDE8F043184701360E2E04F10104E0DDEBE700BF69880000C8
:20750000FC720200118C010009740000581C002030B5184C184B83B09847B4F9021011F5C9
:207520007A7F19D0B4F904308B4218D0E268A18001320023E260A3608B290BDC00910F4D45
:207540000F490220A84700230120A360E360A38003B030BD642AF1DC002003B030BDA3684F
:20756000E268A180013301320E2BA360E260E5DCE2E700BF581C002009740000118C0100C3
:20758000FC72020070B50F4D0F4B064653212868984718B90D490E4B032098470D4B0E4C3D
:2075A00098473046A0470020A0470020A0470B4B0B4C984700232868A4461A461946BDE8F4
:2075C00070406047ACB00020D1BE010044730200118C01002D6000004D6000003D6000001A
:2075E00091BA01002DE9F041164F174B06460D4638685321984718B91449154B032098470F
:20760000144B154C9847C6F3064040F08000A047C6F30720A047F0B2A047E8B2A047C5F3AC
:207620000720A047C5F30740A047280EA0470B4B0B4C984700233868A4461A461946BDE89C
:20764000F0416047ACB00020D1BE010054730200118C01002D6000004D6000003D60000008
:2076600091BA01002DE9F041134E144B05460F4630685321984718B91149124B03209847A2
:20768000114B124C9847C5F3064040F08000A047C5F30720A047E8B2A047F8B2A047380AA2
:2076A000A0470B4B0B4C984700233068A4461A461946BDE8F0416047ACB00020D1BE01006A
:2076C00060730200118C01002D6000004D6000003D60000091BA01002DE9F041124E134B0F
:2076E00005460F4630685321984718B91049114B03209847104B114C9847C5F3064040F0B2
:207700008000A047C5F30720A047E8B2A0473846A0470B4B0B4C984700233068A4461A46C5
:207720001946BDE8F0416047ACB00020D1BE01006C730200118C01002D6000004D600000A8
:207740003D60000091BA010070B51A4E1A4B82B0054653213068984718B91849184B03202E
:207760009847184B184C9847C5F30540A047C5F30720A047E8B2A04704210DEB0100134BDD
:20778000134C9847134B984700231A4619463068A0479DF806309DF805109DF804209DF84A
:2077A00007001B0403EB0123134403EB006002B070BD00BFACB00020D1BE01007873020055
:2077C000118C01002D6000004D6000007560000091BA01003D60000070B5164E164B82B0F7
:2077E000054653213068984718B91449144B03209847144B144C9847C5F30540A047C5F38A
:207800000720A047E8B2A04701A802210F4B104C9847104B984700231A4619463068A047DD
:207820009DF805309DF8040000EB032080B202B070BD00BFACB00020D1BE01008473020002
:20784000118C01002D6000004D6000007560000091BA01003D60000070B5134E134B82B07C
:20786000054653213068984718B91149114B03209847114B114C9847C5F30540A047C5F315
:207880000720A047E8B2A04701A801210C4B0D4C98470D4B9847002330681A461946A04767
:2078A0009DF8040002B070BDACB00020D1BE010090730200118C01002D6000004D60000067
:2078C0007560000091BA01003D60000010B5064C064B2288014602F5421098472388043387
:2078E000C3F30B03238010BD681C0020E5750000024B03481988034B184700BF681C00200D
:20790000FC2030006576000030B5154D154B286883B053219847E8B1134B144C98473020FD
:20792000A0472020A0470020A04701A80121104B104C9847104B9847002328681A46194625
:20794000A0479DF80400A0F17C00B0FA80F0400903B030BD09490A4B03209847DCE700BF6C
:20796000ACB00020D1BE01002D6000004D6000007560000091BA01003D6000009C730200F2
:20798000118C010070B54F4B4F4C504D98474420A0470020A0474FF496704D4B984740F22F
:2079A000E934A84720B9A847013CFBD1204670BD4FF44020474C484EA04748494848B0478C
:2079C000484B4948984740F6FF73984262D0474D4748484C0021A84700214748A8474FF447
:2079E00068714648A04758214548A04700214548A04730214448A04740F20D214348A04721
:207A000020214348A04700214248A04703214248A04700214148A84701214148A8474FF416
:207A200048714048A0474FF4F0713F48A04700213E48A84701213E48A8474FF496613D4820
:207A4000A04702213C48A84701213C48A8470F213B48A8474FF400413A48A0474FF4004101
:207A60002348A047FA213848A04700213748A84737494FF44010B04736493748B047002183
:207A80003648B04702213648A84705211A48A847012070BD3348154DA04701210446324872
:207AA000A84700211048A84700213048A84700212F48A84700212C48A84721462948B0470D
:207AC00086E700BF0960000085750000097900000160000049770000E575000000879303FD
:207AE0000C203000D9770000F8203000D97600009C20300065760000702030002C20300040
:207B000030203000382030003C20300040203000442030004C2030005020300064203000BD
:207B20006C20300034203000482030006820300060203000182130000421300008213000EE
:207B40001421300098203000D0203000D4203000FF000002070000260400300008003000FA
:207B6000542030006291300020203000FC203000002130002DE9F047174C184E25888146A7
:207B80008A4605F542106FF0D10117469846B04725880435C5F30B0505F5421049EA0A41EE
:207BA0002580B04725880435C5F30B0547EA084105F542102580B047238808990433C3F3E0
:207BC0000B0303F542102380B04723880433C3F30B032380BDE8F087681C0020E575000050
:207BE0002DE9F04F81B0474C0A9D07462846884691469A46A0471FFA80FBBBF1000F02D17C
:207C000001B0BDE8F08F4FEA9B04601C04213E4B98470646002C72D0601E80B206EB8000D3
:207C20002A46311F937892F803E092F800C01B0443EA0E6392F801E043EA0C0343EA0E2300
:207C400041F8043F814202F10402EBD1A3001BF0030B13D09B4456F824001FFA8BFB4FEA68
:207C6000840E0021EA5C01339BB28A405B4540EA020001F10801F5D146F80E00DFF894B0CC
:207C8000224DBBF800006FF0F30100F54210A847BBF800300433C3F30B0347EA084103F5E9
:207CA0004210ABF80030A847BBF800300433C3F30B0303F5421049EA0A41ABF80030A84748
:207CC000BBF800000430C0F30B00ABF800000027BBB200F5421056F82310A847BBF800005E
:207CE00001370430BBB2C0F30B009C42ABF80000EED2074B304601B0BDE8F04F1847234687
:207D0000A5E700BF810E0200D5FF0100E575000009010200681C0020F8B5114C114D238895
:207D200007460E4603F542106FF0C001A84723880433C3F30B0303F5421039462380A84748
:207D400023880433C3F30B0303F5421031462380A84723880433C3F30B032380F8BD00BF6D
:207D6000681C0020E57500002DE9F041164C174D238880460F4603F542106FF0C401164668
:207D8000A84723880433C3F30B0303F5421041462380A84723880433C3F30B0303F54210FB
:207DA00039462380A84723880433C3F30B0303F5421031462380A84723880433C3F30B0313
:207DC0002380BDE8F08100BF681C0020E57500002DE9F047174C184E25888246884605F5DA
:207DE00042106FF0BC011F469146B04725880435C5F30B0505F5421051462580B047258808
:207E00000435C5F30B0548EA094105F542102580B04722880432C2F30B02394602F5421093
:207E20002280B04723880433C3F30B032380BDE8F08700BF681C0020E575000038B50B4C43
:207E40000B4D20886FF0B50100F54210A84723880433C3F30B0303F5421000212380A84734
:207E600023880433C3F30B03238038BD681C0020E575000070B50C4C0C4D238806466FF09A
:207E8000EA0103F54210A84723880433C3F30B0303F5421031462380A84723880433C3F32D
:207EA0000B03238070BD00BF681C0020E57500002DE9F04FDFF8B8A0214FDFF8B88083B0F1
:207EC00003E02048D047834536D01F48D04740F6FF7398428346F4D11C4CDFF89C901C4E0F
:207EE00001E0444509D02046B84731460546024601A80134C847002DF3D1164B1648174CD0
:207F00009847012105461648A04700210E48A04700210C48A04700211248A047002110483B
:207F2000A04729460C48104B9847FA200F4B98470448D0478345C8D103B0BDE8F08F00BFB0
:207F400059780000FC203000F820300000983000B07302004977000062913000D97600009D
:207F60002020300000213000E575000001600000D9770000809830004909020010B502468C
:207F800004460549054B03209847054B4FF000629A61204610BD00BFE8730200118C01001E
:207FA0000080004170B50546054CC0F30740A047C5F30720A047E8B22346BDE870401847E1
