:1000000090B20120E51B0000E11B0000E11B000095
:10001000E11B0000E11B0000E11B000000000000EC
:10002000000000000000000000000000B1550100C9
:10003000E11B00000000000041560100A556010030
:10004000E11B0000E11B0000E11B0000E11B0000C0
:10005000E11B0000E11B0000E11B0000E11B0000B0
:10006000E11B0000E11B0000E11B00009D9B000064
:10007000E11B0000E11B0000E11B0000E11B000090
:10008000E11B00006998000071980000E11B00006E
:10009000E11B0000E11B0000E11B0000E11B000070
:1000A000E11B0000E11B0000E11B0000E11B000060
:1000B000E11B0000E11B0000E11B0000E11B000050
:1000C000E11B0000E11B0000E11B0000E11B000040
:1000D000E11B0000E11B0000E11B0000E11B000030
:1000E000E11B0000E11B0000000000000000000018
:1000F00000000000619A0000E11B0000E11B00000D
:10010000E11B0000E11B0000E11B0000E11B0000FF
:10011000E11B0000E11B0000E11B0000E11B0000EF
:10012000E11B0000E11B0000E11B0000E11B0000DF
:10013000E11B0000E11B0000E11B0000E11B0000CF
:10014000E11B0000E11B0000E11B0000E11B0000BF
:10015000E11B0000E11B00000000000000000000A7
:10016000000000000000000000000000000000008F
:10017000000000000000000000000000000000007F
:100180009DC20000A5C20000ADC20000B5C20000C3
:1001900000000000E5AA0000E11B0000E11B0000D8
:1001A000E11B0000E11B0000E11B0000E11B00005F
:1001B000F5AA0000E11B0000E11B0000E11B0000AC
:1001C000E11B0000E11B0000E11B0000E11B00003F
:1001D000E11B0000E11B0000E11B0000E11B00002F
:1001E00005AB0000E11B0000E11B000041B1000075
:1001F000E11B00005DB10000E11B00006DB10000DB
:100200007DB100000000000000000000E11B0000C4
:10021000E11B0000E11B0000E11B0000E11B0000EE
:10022000E11B0000E11B0000E11B0000E11B0000DE
:10023000E11B0000E11B0000E11B0000E11B0000CE
:10024000E11B0000E11B0000E11B0000E11B0000BE
:10025000E11B0000E11B0000E11B0000E11B0000AE
:100260000000000010B5054C237833B9044B13B1DE
:100270000448AFF300800123237010BD500F00200D
:1002800000000000D06702000C4B43B10C480D4940
:1002900010B5AFF300800C48036823B910BD0A48BD
:1002A000036833B97047094B002BF7D0BDE8104005
:1002B0001847064B002BF5D0184700BF0000000080
:1002C000D0670200540F0020D06702000000000039
:1002D00010B5194C23787BB96368227B01336360C6
:1002E00092B1236901332361237D8BB1A36901336B
:1002F000A361237F83B910BDA368227B0133A36070
:1003000001236360002AECD1237D2261002BEDD113
:10031000A361237F002BEED0084B9847236A47F256
:100320003052C01A9042E6DD054A4FF000410023EA
:10033000C2F89410237710BD6C0F0020ED67010008
:10034000008000412DE9F04F2DED028B694B6A4C86
:100350006A4D85B098476A4B08EE100A9847694B7A
:100360000646984794F824A0074618EE100ABAF1FA
:10037000000F39D1A847804630468946DFF8B8B12A
:10038000A84700224FF08043D847DFF8B0B10246BB
:100390000B4640464946D847002840F08C8094F8E8
:1003A00025A0BAF1000F41D118EE100AA8478046E7
:1003B00030468946A847544D544B0022A847544D17
:1003C00002460B4640464946A847002840F08C802C
:1003D000F3EE047AB4EEE78AF1EE10FA75DC05B0BC
:1003E000BDEC028BBDE8F08FA847804630468946B9
:1003F000DFF844A1A8470022444BD047DFF810A102
:1004000002460B4640464946D0470028C7D04FF029
:1004100000084049404B84F824800220984794F813
:1004200025A0C4F80480BAF1000FBDD094F826309E
:10043000002BD4D018EE100AA847804630468946D3
:10044000A847314E00224FF0804382468B46B0478A
:10045000324E02460B4640464946B0470028BED0C1
:10046000F3EE057AB4EEE78AF1EE10FAB7D52C4E2A
:10047000B04707EE907A07EE100A77EEC77A9FED45
:10048000297AF0EEE77AF4EEC77AF1EE10FAA6DBFD
:10049000002784F8257084F82670B047A847CDE976
:1004A00000ABCDE9020142464B461F491A4D0220DE
:1004B000A847676093E701221C49174BC4F808A0BE
:1004C000032084F82420984769E71949124AA0605C
:1004D0000123032084F8253084F8263005B0BDECD4
:1004E000028BBDE8F04F1047012312490A4AC4F8B5
:1004F00008A0EEE7C97700006C0F00208D9701007F
:10050000697700008D730000D19401000000F83F6E
:10051000559D01005C040200093001002D9D010081
:10052000997300009A99993EC804020040040200A1
:100530009C04020080040200CD940100199D01007A
:100540002DE9F04F2DED048BAF4BB04C87B09847A1
:10055000AF4B08EE100A9847AE4B08EE900A98474A
:1005600007EE900A94F8273037EEC88A88EE279A6B
:1005700053B9A94B1B7823B3002384F8273007B065
:10058000BDEC048BBDE8F08FA34D2B78002BF3D18D
:1005900094F8392032B1D4ED0B7AF4EEE78AF1EE1B
:1005A00010FA46DA94F84130002BE8D0D4ED0C7AFA
:1005B000B4EEE79AF1EE10FA50DA2B78002BDBD18B
:1005C000DDE7B0EE007AF4EEC77AF1EE10FA08DC5F
:1005D000C4ED0B8A84ED0C9A07B0BDEC048BBDE82A
:1005E000F08F8E4FB8478E4B08EE100A984707EEF3
:1005F000900A8C4B38EE678A9847B4F92830B0EEF1
:10060000C88A05B2002B3BD05A1B052A38DCEB1AEE
:100610000A2B36DD94F82A30002B00F04C810122A1
:100620000023227384F82A2023852361D4F82C80A8
:100630003DE07D4A84F8383084F8393084F827303A
:1006400018EE900A9047794E0B46024678490320EF
:10065000B04794F84130002BAFD0A7E7002384F8CF
:10066000403084F8413084F827306F4A6F4E19EEDD
:10067000100A904702460B4603206E49B0479CE79C
:10068000258523690A2B10D994F82A306BB1B4F967
:100690002820AB1A0A2B40F31481002020612B463E
:1006A0006549624E0220B0472585D4F82C805E4D06
:1006B000624E18EE900AA847824640468B46DFF805
:1006C0009081A8474AA3D3E90023C04702460B46BE
:1006D00050465946B047002800F0DE8018EE100A58
:1006E000C4ED0B8A84ED0C9AA847DFF8688142A319
:1006F000D3E90023C047002840F0DA8094F82A307C
:10070000002B7FF43CAFE06A4D4FDFF84881A847EB
:1007100000224C4BCDE90201B8470B460246594630
:100720005046C04794F838308146002800F0948045
:10073000002B00F0D78019EE100AA847CDE902017E
:10074000206BA8472AA3D3E90023CDE90401B847C9
:100750000B460246DDE90201C04794F8403080466E
:1007600008B3002B00F0F58094F838304BB194F8C2
:100770003930002B00F0D98094F84030002B3FF442
:10078000FEAE94F84130002B00F0BF8094F8393071
:10079000002B3FF4F4AE254B2B490320984701234F
:1007A00084F82730EBE6DBB115A3D3E90023DDE9BC
:1007B0000401B847214E02460B46DDE90201B0476D
:1007C0000028D1D09DED047BDDE902238DED007B77
:1007D0001E49164E0420B04784F8408084F84180BA
:1007E00094F83830002BC7D0C1E700BFAFF30080CA
:1007F0009A9999999999B93FEC51B81E85EBB13FF7
:100800009A9999999999A93F997300006C0F0020C2
:100810000D7300008D730000100000206977000048
:10082000C9770000712800008D9701000930010090
:10083000180802004808020044050200559D010006
:10084000CD9401000000F03FA8070200C00602009E
:10085000D1940100199D0100002B3FF46CAF0022E0
:100860004C4B4D4EDDE90201B84702460B4650465F
:100870005946B04700283FF45EAF9DED027B5246DB
:100880008DED007B5B464549454E0420B04784F81A
:10089000389084F839904EE7B847D4ED0D7A07EEDA
:1008A000100AB4EE677AF1EE10FA7FF417AF25E77D
:1008B000B847606322E72A463A49394B02209847F5
:1008C000ADE62B463849364D0220A847002318EEE6
:1008D000908AC4ED0B8A84ED0C9A237384F82A3035
:1008E0002361E4E60121314A84F8393084F8381074
:1008F000904700F59C500830E06352465B462C4917
:10090000DFF89C900420C84715E7284B9847636C94
:10091000984230D894F83930002B3FF430AE94F838
:100920004030002B3FF42BAE35E7204B9847E36B6C
:1009300098427FF621AFE06A194EA8475B46CDE9A1
:10094000000152461B490320B047012384F8393087
:1009500012E70121154A84F8413084F8401090478D
:1009600000F59C5008306064DDE9022312490C4E0A
:100970000420B04734E7206BA847DDE90223CDE926
:100980000001074D0D490320A847012384F8413099
:10099000C0E700BF0000E03F559D010018060200BF
:1009A000093001001805020094050200ED670100FE
:1009B000D805020018070200680602005807020066
:1009C00038B50E4C94F8483073B90D4B1B7803B111
:1009D00038BD0C4DA8471228FAD9A84714289CBF47
:1009E000012384F84830F3E7074A4FF00041002321
:1009F000C2F8941084F8483038BD00BF6C0F002056
:100A000010000020BD1101000080004110B5064C0F
:100A1000207710B1054B98472062054B4FF00042FC
:100A2000C3F8942010BD00BF6C0F0020ED670100DB
:100A300000800041014B187F704700BF6C0F002001
:100A40002DE9F041294C237D23B1A369072B01D85F
:100A5000BDE8F08194F84930CBB9254B254D984736
:100A6000254B0646984780463046A84706464046EE
:100A70000F46A847214D224B0022A847214D024690
:100A80000B4630463946A84730BBBDE8F081184BCD
:100A9000184D9847184B0646984780463046A84759
:100AA000064640460F46A847144D174B0022A8475C
:100AB000164D02460B4630463946A8470028E4D07A
:100AC00000251349134B84F849500220984765606C
:100AD00084F82750BDE8F081012284F849200E49AE
:100AE0000C4B0320BDE8F041184700BF6C0F0020FD
:100AF000D57500008D97010041750000CD9401006F
:100B000000002440199D010000001C40559D01007B
:100B1000A8080200093001009408020010B5184B23
:100B2000184C984794F84A3007EE900AB3EE057ACD
:100B3000F4EEC77A1BB9F1EE10FA11D410BDF1EE44
:100B400010FA08DB002284F84A200F490F4B0220DC
:100B5000BDE8104018470E4B98470028F2D1EDE74A
:100B60000B4B98470028E9D10A4A0B491070012223
:100B700084F84A20054B0320BDE81040184700BF09
:100B800051D900006C0F0020E40802000930010078
:100B900025D9000010000020C408020070B5104DD7
:100BA000104CA847D4ED137A07EE100AB4EE677A1A
:100BB000F1EE10FA05D1237D13B1A369082B07D8F4
:100BC00070BD00220123A2612375A847E06470BDB7
:100BD000002222750449054B0220BDE870401847E9
:100BE000417500006C0F002004090200093001006B
:100BF000084B002200211A7083F8502083F824202B
:100C000083F8252083F8492083F82720D9621963C7
:100C1000596370476C0F002038B5814B814CA3FBA2
:100C200001235B09421E0D4684F8523084F85100BE
:100C3000062A00F2D780DFE812F024003F005900B6
:100C40009A007600B8000700774B42F2107142F22A
:100C50000F728D4288BF15461B69ADB25D861C6957
:100C600014F0FF04FBD12246704B714842F2107120
:100C70009847704B1A695486136913F0FF0FFBD124
:100C800038BD694B1B6900225A861A6912F0FF02AF
:100C9000FBD1664B664842F21071984742F20F73DF
:100CA000644A9D4228BF1D461269ADB2558613693C
:100CB00013F0FF0FFBD138BD5B4B1A69002353863D
:100CC000146914F0FF04FBD142F2107142F20F726A
:100CD0008D4298BF2A46554B55489847554B1A693F
:100CE0005486136913F0FF0FFBD138BD4E4B42F20F
:100CF000107142F20F728D4288BF15461B69ADB26A
:100D00005D861C6914F0FF04FBD12246474B48481E
:100D100042F210719847474B1A695486136913F0D1
:100D2000FF0FFBD138BD42F2107399429CBF8BB2CA
:100D30000A463D49096984BF42F20F731A464B8641
:100D40000B6913F0FF0FFBD1384B394842F2107199
:100D5000984742F20F73374A9D4228BF1D461269D9
:100D6000ADB25586136913F0FF0FFBD138BD2E4B82
:100D70001A6900235386136913F0FF0FFBD142F267
:100D800010718D4244D82A46284B2948984742F290
:100D90000F739D4228BF1D46ADB2264B1A6955867A
:100DA000136913F0FF0FFBD138BD1F4B42F21071D6
:100DB00042F20F728D4288BF15461B69ADB25D8647
:100DC0001C6914F0FF04FBD12246184B184842F26C
:100DD00010719847174B1A695486136913F0FF0F67
:100DE000FBD138BD104B1B6900225A861C6914F0D8
:100DF000FF04FBD122460D4B0D4842F2107198477B
:100E00000C4B1A695486136913F0FF0FFBD138BDE0
:100E100042F20F720648054B984742F20F75BCE745
:100E20001F85EB516C0F002028B100207981000054
:100E300048B100204CB0002038B51F4C94F8533016
:100E400023B3636D302B22DC002B2CDB1B4A1C4DA3
:100E500002EB830393ED007A94F8583094F859002C
:100E6000184A03EB830303EB83039B0007EE903ADE
:100E7000F8EEE77A67EE877AFCEEE77A17EE901ADB
:100E800090476B785BB9636D013B636538BD0C4D72
:100E9000002231236A706365B7EE007ADCE7636D88
:100EA0000133636538BD064D9FED077A01220023AB
:100EB0006A706365D0E700BF6C0F00207403020006
:100EC00010000020190C000000000000004B184723
:100ED000390E000010B500EB8000074C074B00EB0B
:100EE0008000820092B2204642F21071984720465C
:100EF000034BBDE81040184728B10020798100005D
:100F00003981000010B500EB8000074C074B00EB67
:100F10008000820092B2204642F21071984720462B
:100F2000034BBDE81040184748B10020798100000C
:100F30003981000010B500EB8000074C074B00EB37
:100F40008000820092B2204642F2107198472046FB
:100F5000034BBDE8104018474CB0002079810000D9
:100F600039810000374A431E70B50C4682F85100A3
:100F700082F85210062B5BD8DFE803F0451A0430E4
:100F8000410404000846304B304D314C9847002254
:100F900042F210712F48A8472E48A047002242F283
:100FA00010712D48A84723462B48BDE870401847CC
:100FB000002242F21071254E2848254DB04727489F
:100FC000A8472046264B9847002242F2107122483B
:100FD000B0472B462048BDE8704018471B4B1F48C0
:100FE000002242F2107198471C48194B984720463E
:100FF0001B4B984720461B4BBDE8704018470846DE
:10100000114B9847F3E7002242F210710F4E13483C
:101010000F4DB0471148A847002242F210710D4809
:10102000B0470C48A84720460E4BBDE87040184713
:10103000002242F21071054D0848054CA8470748A8
:10104000A047A4E76C0F0020D50E000079810000B6
:101050003981000048B100204CB0002028B10020A8
:10106000050F0000350F0000F0B5134C002583B0CC
:1010700084F85300656540B903461A46E06D009355
:1010800003210E4CA04703B0F0BD0D4F84F859105A
:101090000846012629460B4B84F858207E70984755
:1010A000094BE46D984731460246009520462B4691
:1010B000024CA04703B0F0BD6C0F00204974010042
:1010C00010000020650F0000ED670100F0B5874CAF
:1010D000257883B06DB9A36E002B37D194F85020DA
:1010E0002AB1002323669A4201D084F8503003B01D
:1010F000F0BD236E0BBB94F850209542F7D07C4E88
:101100000023082DA360636000F08380012D00F0B0
:101110009E80042D00F09F80052D00F0A180022DFF
:1011200000F0A280102D00F087802B46714902202C
:10113000B04794F850202378D5E7A268934240D373
:1011400094F85030AB42D2D02378CEE76268934215
:10115000C4D294F86610009102206749644E674F2C
:10116000B047674BA5664FF00042C3F89420B847DC
:101170000F281BD0B847122818D0B847102815D010
:1011800094F8660090B1122800F2AB800E2800F0AF
:10119000A8805C4B98470022114610465A4B98474E
:1011A00094F8651094F86400584B984794F85020D0
:1011B0002578AA429BD0002D93D0236E002BC3D15B
:1011C0009EE753494A4E0220B04794F8511094F8D4
:1011D00052204A4B84F8641084F86520984725789B
:1011E00084F86600082D4BD0012D50D0042D1CD062
:1011F000052D5AD0022D5FD0102D64D0122D69D04C
:10120000142D4BD02A4643490220B04700232366C1
:10121000CCE7052340491A46042523660220A5662B
:10122000B04794F8502023785DE71420354B984759
:101230003A490220B047E9E7012339491A4602201A
:101240002366A366B04794F8502023784BE7052324
:101250001A463449F3E71E231A4605253249DCE7CE
:101260002A4632492566D9E705231A4628463049D9
:1012700023660325A566B04794F85020237832E70B
:101280001520204B98472B490220B047BEE713207A
:101290001C4B984728490220B047B7E72846194B0E
:1012A000984726490220B047B0E71320154B9847CE
:1012B00023490220B047A9E71620124B9847284639
:1012C0002049B047A2E717200E4B98471E4902203D
:1012D000B0479BE717200B4B98471C490220B047AB
:1012E00094E71220074B984755E700BF6C0F00208A
:1012F00009300100A40C0200400B0200BD110100E6
:1013000000800041C911010069100000650F000054
:1013100028090200000B0200840B0200A40902004D
:10132000780C0200B40B0200E40B0200100C020067
:10133000480C02005009020078090200B80A0200B5
:10134000CC090200040A0200300A02006C0A020002
:101350002DE9F04F384FDFF81891384CDFF814B111
:10136000374E384DDFF810A185B0B8470DF11008A1
:10137000354B48F8040D012200934FF47A71002395
:101380003248C847324BE0660122142100933148AD
:101390000023C847D4F86C90E065B84700230246A4
:1013A000012148460093DFF8D490C847DFF8D09079
:1013B0004FF47A611EE094F8493094F8251094F8BF
:1013C00024209B0003EB410394F84A10134494F843
:1013D000272003EBC10303EB02132370B847236FED
:1013E0001BB1C31AB3F57A7F02D31B4B2067984712
:1013F000C84715214046D847184B9847B04708B111
:101400002B7893B1164B984708B12B7883B1B0472E
:1014100040B9D0472B78002BCDD094F84A30DB0070
:101420002370DBE70F4B9847F3E70F4B9847E9E74B
:101430000E4B9847EBE700BFED6701006C0F0020F3
:101440000578000010000020D1020000E80C020026
:10145000CD0E0000FC0C0200C10900009D0B000035
:10146000417400004105000045030000410A0000EE
:10147000F5730100156A01001D0B0000497401009D
:10148000CD100000094B83F85A0000B9704770B4C2
:10149000074D084C83F85910012683F85820084658
:1014A0006E702346002170BC184700BF6C0F0020EF
:1014B00010000020650F0000034A044B4FF000416C
:1014C000C2F894101870704700800041100000208E
:1014D000014B1878704700BF6C0F0020014B18704B
:1014E000704700BF6C0F0020004B1847BD3C000048
:1014F00070B5064D064C4FF400166E613220A047C1
:10150000AE6123466420BDE870401847008000416A
:10151000BD3C0000024B4FF400225A61704700BFEF
:1015200000800041024B4FF400229A61704700BFD7
:101530000080004130B587B006AB002503F8110DDF
:10154000012403A9034A0448039304950594904792
:1015500007B030BD5182000004B10020F0B58BB05F
:10156000002308290393029314D80AAD0A46552193
:1015700005F8211D02AE044607A904960127064876
:10158000064E05940692089307950997B04704A95B
:101590000148B0470BB0F0BD04B1002051820000FB
:1015A00010B5034B9847034BBDE81040184700BFE8
:1015B0001125000071870100F8B5094C07466FF04E
:1015C000B9000E461546A0473846A0473046A0470A
:1015D0002846A047034B9847034B98470120F8BD86
:1015E0004D2D0000712D00000533000008B56FF08F
:1015F000B600074B9847074B9847074B9847074B50
:1016000007489847A0F10200B0FA80F0400908BDF1
:101610004D2D0000712D000005330000D92C000075
:10162000F025300008B5074B9847074B9847074B04
:101630009847074B07489847A0F10300B0FA80F09D
:10164000400908BD91320000712D000005330000F3
:10165000D92C0000F0253000830709D10B469B06EA
:1016600006D1930710B405D000205DF8044B7047F5
:1016700000207047014B5DF8044B1847B915000076
:101680002DE9F84F6FF0E400DFF82091DFF820A19A
:10169000DFF820B1374D384E384FDFF81C81C8478E
:1016A0004FF47F20C847FF20C8474FF48050C847F9
:1016B0001420D047D847324B98474FF47F2419E085
:1016C0002968B0476968201DB047A96804F108007F
:1016D000B047E96804F10C00B047296904F1100033
:1016E000B047696904F114001834B047444505F166
:1016F000180503D06B69BB422046E1D0214C1F4B3B
:10170000D4F8AC269A4218D0D4F8B0161E48B04788
:101710006FF0B800C8471D48C8474FF47F20C8473E
:101720004FF48050C8471420D047D847144B9847EF
:101730001420D0470120BDE8F88FD4F8941614483F
:10174000B047D4F898161348B047D4F89C161248FE
:10175000B047D4F8A0161148B047D4F8A4161048E2
:10176000B047D4F8A8160F48B047D4F8AC160E48C6
:10177000B047C9E7E80F0020652A0000CAF00F5300
:1017800005330000E40F0020FCFF0F000010800074
:10179000D0FF0F00D4FF0F00D8FF0F00DCFF0F00B9
:1017A000E0FF0F00E4FF0F00E8FF0F004D2D0000E9
:1017B000E9140000712D000090F60F0030B408B15C
:1017C0000138C0B20F4B104D002204E00132462A0E
:1017D00003F1180313D01C68A042F7D15C69AC4236
:1017E000F4D10A4B02EB420203EBC20201209568DE
:1017F000D46813698B600D604C6030BC704700206A
:1018000030BC7047E80F0020CAF00F53E40F0020EF
:101810002DE9F047504B82B09847002862D04F4BDB
:1018200098470446002855D04D4F4E4B384602226B
:1018300020F8042B00214FF4D26298474FF48052D5
:1018400049494A4B4FF47F2098470446002877D0F7
:10185000474EDFF85081DFF850913C1D4FF47F2553
:101860004FF0000A03E04D4504F1180443D0284628
:10187000B0472060281DB047606005F10800B04700
:10188000A06005F10C00B047E06005F11000B04722
:10189000206105F11400B0474045606105F118056D
:1018A00029D12368002BDEDAB7F8B406216900EBF2
:1018B000800207EB82020130C2F8C836636882F802
:1018C000C4A6C2F8C0A6A7F8B406C2F8BC16C2F8EF
:1018D000B836C8E72749284B04209847204602B06D
:1018E000BDE8F08704462549234B0420984720464D
:1018F00002B0BDE8F0872248B047C7F894062148F7
:10190000B047C7F898062048B047C7F89C061F485C
:10191000B047C7F8A0061E48B047C7F8A4061D4840
:10192000B047C7F8A8061C48B047C7F8AC061B4824
:10193000B0470124C7F8B006204602B0BDE8F087E2
:101940004FF48053009316490B4D03F500034FF4F9
:101950007F220420A847C1E7ED15000025160000EE
:10196000E40F0020E9A9010000108000B915000073
:10197000C92B0000280D020009300100100D0200E3
:10198000D0FF0F00D4FF0F00D8FF0F00DCFF0F00C7
:10199000E0FF0F00E4FF0F00E8FF0F00FCFF0F0067
:1019A000480D0200CAF00F5390F60F00F0B4094C36
:1019B000094ED4F8AC7604F2946405460FCC0FC5FA
:1019C00094E8070085E80700B81BB0FA80F04009EA
:1019D000F0BC7047E40F0020CAF00F5370B4054606
:1019E0000FCD054C054E0FC495E80700334684E83B
:1019F000070070BC184700BF781600208116000051
:101A000010B50A4B0A48984700210A4B0A489847E4
:101A10000A4B044606489847844200D810BD214628
:101A20000348074BBDE81040184700BF1D7C00006D
:101A3000B4B00020AD170100980D0200719B0000AA
:101A4000419B00000146014B01481847417D0000C1
:101A5000B4B000202DE9F043114C124B89B006A917
:101A6000204698472046104B9DF81A409DF8195083
:101A70009DF818609DF81D709DF81C80BDF81E90A3
:101A8000984722460490CDF80C908DE8C0012B4673
:101A90000649074C0220A04709B0BDE8F08300BF0B
:101AA000B4B00020417D0000719B0000A00D020039
:101AB0000930010030B51A491A4D1B4C83B0A847B4
:101AC000A047C0B218288CBF00238DF80600144927
:101AD00088BF8DF806300020A847A047C0B23B2839
:101AE0008CBF00238DF805000D4988BF8DF80530A7
:101AF0000020A847A047C0B23B288ABF00238DF82A
:101B000004008DF8043001A9084B09489847094B97
:101B100007489847084B01460848984703B030BD2E
:101B2000A82F0200C5C10100DDA10100497C000011
:101B3000B4B00020719B000081160100980D0200D6
:101B400030B51F491F4D204C83B0A847A047C0B2F5
:101B50000C288CBF01238DF80500194988BF8DF82A
:101B600005300020A847A047C0B21F2894BF8DF8B9
:101B700004000123124988BF8DF804300020A847D3
:101B8000A04780B2632898BF00F5FA6040F2D9738D
:101B900098BF80B2984298BF40F2E573ADF8060056
:101BA00001A998BFADF806300848094B9847094B82
:101BB00006489847084B01460848984703B030BD8F
:101BC000D00D0200C5C10100DDA10100B4B00020AC
:101BD000C97C0000719B000081160100980D020075
:101BE000FEE700BF1B491C4A914208B50ED01B48B6
:101BF00082420BD2D343034423F003030433134440
:101C000051F8040B42F8040B9A42F9D1144A1549D1
:101C10008A420AD2D3430B4423F003030433134410
:101C2000002142F8041B9A42FBD10F4A0F4B22F0CD
:101C30007F029A60D3F8882042F47002C3F88820AB
:101C4000BFF34F8FBFF36F8F094B9847094B9847EE
:101C5000FEE700BFD067020000000020500F002008
:101C6000500F00208CB200200000000000ED00E0CA
:101C700061A201007DCF0000F0B4674B6748684D5A
:101C8000684F694E4FF0404208245C6098629A6247
:101C900093F8431001F0FE0141F0010183F8431075
:101CA00093F8311001F00F0141F0100183F8311069
:101CB0004FF48071C3F88410C3F8A850C3F8A8206B
:101CC00093F8C81001F0FE0141F0010183F8C8103B
:101CD00093F8B41001F0F00141F0010183F8B41061
:101CE000102159609F629A6293F8441001F0FE013E
:101CF00041F0010183F8441093F8321001F0F00133
:101D000041F0010183F83210402159609E629A62CD
:101D100093F8461001F0FE0141F0010183F84610EE
:101D200093F8331001F0F00141F0010183F8331012
:101D3000803D802159609D629A6293F8471001F0BE
:101D4000FE0141F0010183F8471093F8331001F0D0
:101D50000F0141F0100183F8331007F57C774FF441
:101D6000806159609F629A6293F84A1001F0FE0107
:101D700041F0010183F84A1093F8351001F0F001A9
:101D800006F5F86641F001014FF4006783F835105D
:101D90005F609E629A6293F84B1001F0FE0141F081
:101DA000010183F84B1093F8351001F00F017C3DD1
:101DB00041F01001042683F83510C3F88460C3F89D
:101DC000A850C3F8A82093F8C21001F0FE0141F01A
:101DD000010183F8C21093F8B11001F0F00141F055
:101DE000010183F8B110C3F88440C3F8A800C3F818
:101DF000A82093F8C32002F0FE0242F0010283F80B
:101E0000C32093F8B12002F00F0242F0100283F8D1
:101E1000B120F0BC704700BF0080004108000040C6
:101E200000010040100000404000004010B5094A89
:101E30000948136A094943F0800342241362C0F839
:101E400020418847002206490648074BBDE810405C
:101E5000184700BF00080040001C0040791C00002B
:101E6000001C0043ACB00020F578000010B4184B03
:101E7000184A194804244FF040415C609A62996204
:101E800093F8422002F0FE0242F0010283F8422061
:101E900093F8312002F0F00242F00102202483F88E
:101EA00031205C609862996293F8452002F0FE024E
:101EB00042F0010283F8452093F8322002F00F022D
:101EC00042F0100283F832205DF8044B704700BFE7
:101ED00000800041040000402000004070B5084A26
:101EE000084D136A084C0949094843F40073422617
:101EF0001362C5F82861A047064BBDE8704018473B
:101F000000080040001C00407D7D000000240043CC
:101F1000D4B000206D1E0000F0B4234A234C244BA3
:101F2000244E2548254D26494427C2F89070626901
:101F3000202742F480626261C3F88470C3F8A8600D
:101F4000C3F8A80093F8C52002F0FB0283F8C5206F
:101F500093F8C52002F0FE0242F0010283F8C5208A
:101F600093F8B220402402F00F0283F8B220C3F8A5
:101F70008440C3F8A850C3F8A80093F8C62002F024
:101F8000FB0283F8C62093F8C62002F0FE0242F05E
:101F9000010283F8C62093F8B32002F0F00283F820
:101FA000B320F0BC084700BF001C00400008004000
:101FB0000080004120000240000002C040000240BA
:101FC000E57E0000164B93F8482002F0FB0283F8F0
:101FD000482093F8482002F0FE0242F0010283F804
:101FE000482093F8342002F0F00242F0020283F815
:101FF000342093F8492002F0FB0283F8492093F83B
:10200000492002F0FE0242F0010283F8492093F8D1
:10201000342002F00F0242F0200283F8342070478F
:102020000080004170B50A4B0A4A0B4C0B490C4822
:1020300042264325C3F89C60C3F88C50536943F48F
:1020400080535361A047074BBDE87040184700BF5D
:10205000001C0040000800401D80000000300040CF
:1020600068B10020C51F000070B4284B284D294ED0
:1020700029482A494FF480324FF080445A619A60CF
:102080009C629D6293F8502002F0FE0242F0010231
:1020900083F8502093F8382002F0F0024FF4003516
:1020A00042F0020283F838205D619D609C629E626E
:1020B00093F8512002F0FE0242F0010283F8512011
:1020C00093F8382002F00F0242F020024FF48024EF
:1020D00083F838205C609862996293F8522002F08D
:1020E000FB0283F8522093F8522002F0FE0242F0E5
:1020F000010283F8522093F8392002F0F00242F0F6
:10210000020283F8392070BC704700BF0080004194
:10211000010000C0020000C000000240040002C034
:1021200070B50A4B0A4A0B4C0B490C484226432512
:10213000C3F8A060C3F88C50536943F40053536153
:10214000A047074BBDE87040184700BF001C004087
:1021500000080040AD8100000034004004B10020C0
:1021600069200000104B93F8572002F0FE0242F065
:10217000010283F8572093F83B2002F00F0242F04F
:10218000300283F83B2093F8562002F0FE0242F022
:10219000010283F8562093F83B2002F0F00242F04F
:1021A000030283F83B2070470080004170B50A4B62
:1021B0000A4A0B4C0B490C4842264325C3F80C61D4
:1021C000C3F88C50136A43F0020313620022A04745
:1021D000064BBDE870401847001C00400008004056
:1021E000F1850000000400431CB1002065210000BF
:1021F00070B51149114C8B69114A124843F40053D0
:1022000044258B61C4F8E85092F84D3003F0FE038A
:1022100043F0010382F84D3092F8363003F00F039B
:1022200043F0400382F8363080470749074B0246A7
:10223000BDE870400648184700080040001C0040F8
:1022400000800041F9B0000000A00141F1800000D1
:102250006CB0002070B51149114CCB69114A12487D
:1022600043F020034425CB61C4F8F85092F8CD30F8
:1022700003F0FE0343F0010382F8CD3092F8B6304C
:1022800003F00F0343F0400382F8B630804707495C
:10229000074B0246BDE8704006481847000800405A
:1022A000001C004000800041F9B000000014004212
:1022B000F180000028B1002070B51149114CCB69A4
:1022C000114A124843F040034425CB61C4F8F8504A
:1022D00092F8CF3003F0FE0343F0010382F8CF30D1
:1022E00092F8B73003F00F0343F0400382F8B730A1
:1022F00080470749074B0246BDE87040064818472B
:1023000000080040001C004000800041F9B00000BF
:1023100000180042F18000004CB0002070B5114957
:10232000114C8B69114A124843F4006344258B61B8
:10233000C4F8E45092F8DE3003F0FE0343F00103EA
:1023400082F8DE3092F8BF3003F0F00343F006036A
:1023500082F8BF3080470749074B0246BDE870400E
:102360000648184700080040001C0040008000415B
:10237000DDAA000000600141F18000002CB00020C7
:1023800070B51149114C8B69114A124843F48053BE
:1023900044258B61C4F8E45092F84C3003F0FE03FE
:1023A00043F0010382F84C3092F8363003F0F0032A
:1023B00043F0060382F8363080470749074B024650
:1023C000BDE870400648184700080040001C004067
:1023D00000800041DDAA000000800141F180000082
:1023E0008CB0002070B51149114C0B6A114A12488B
:1023F00043F0100344250B62C4F8185192F8CE3014
:1024000003F0FE0343F0010382F8CE3092F8B730B8
:1024100003F0F00343F0050382F8B7308047074923
:10242000074B0246BDE870400648184700080040C8
:10243000001C004000800041DDAA000000100043A5
:10244000F180000048B1002010B4204B2049214CFD
:102450004FF080724FF080409A60986299625A61A2
:1024600093F8582002F0FB0283F8582093F8582084
:1024700002F0FE0242F0010283F8582093F83C205B
:1024800002F0F00242F007024FF0007183F83C20A6
:10249000996098629C62596193F8592002F0FB029E
:1024A00083F8592093F8592002F0FE0242F001020D
:1024B00083F8592093F83C2002F00F0242F070029A
:1024C00083F83C205DF8044B704700BF008000415A
:1024D000000100C0000200C010B5094A094B0A49BA
:1024E0004520C2F8A8001A6942F480621A619A690C
:1024F00042F001029A618847044BBDE8104018473A
:10250000001C0040000800405D88000049240000D5
:1025100070B52F4B2F4C98472F4B3048304A3149DC
:102520004FF40005C3F88450C3F8A800C3F8A820EE
:1025300093F8D7202C4D02F0FB0283F8D72093F8B4
:10254000D72002F0FE0283F8D7208847274B984710
:10255000274B984763692749274A284843F4007363
:1025600063619047264B9847264B9847264B9847E0
:102570002648274B984763692649274A43F48043F6
:1025800042206361C1F8A40090472449244B0246CD
:1025900024489847244B9847244B9847244B984706
:1025A000244B9847244B9847244B9847244B9847F3
:1025B0006369244943F48073636148220120A8477A
:1025C0002148224A224B0260BDE87040184700BFF4
:1025D00029950000000800400080004100000240F2
:1025E000800002C02D1E0000FD8B0000DD1E0000DB
:1025F000191F000000240040D97B0000B4B0002067
:102600002520000021210000AD21000010E000E0A5
:10261000697E0000001C0040F5B00000003800405A
:1026200005840000E8B00020F121000055220000E0
:10263000B92200001D23000081230000E5230000D3
:10264000D9240000D40D0200B0B0002000200040CA
:10265000BDC200002DE9F047344C354E354B3648AD
:10266000DFF8DC80DFF8DC90344D01274FF40062A6
:102670005221984721463A4630682770C0473A466B
:1026800021463068C84723783068277063F07F039D
:102690002146022263704FF0030AC0473A462146A2
:1026A000306884F800A0C0473A4621463068C847E1
:1026B0002378306884F800A063F03F0321460222AB
:1026C0006370C0474A2220215220A8472B22212193
:1026D0005220A8473A2222215220A8470022232133
:1026E0005220A847602224215220A847C022252139
:1026F0005220A847CB2226215220A847B0222721CA
:102700005220A847092228215220A847B92229216E
:102710005220A8470D222A215220A8472B460C22DE
:102720002B215220BDE8F047184700BFB0B1002070
:10273000A8B100206180000068B10020F9C4000049
:1027400081800000B180000038B50C4C0C4B054670
:1027500070212068984718B90A490B4B0320984705
:1027600029460A4B52209847002305461A462068FE
:10277000074C1946A047284638BD00BFFCAF0020D3
:1027800091610100F00D020009300100DDC300007D
:10279000515D01002DE9F843DFF8D090284B064643
:1027A0007021D9F800009847002844D04FF4006207
:1027B0005221244C2448254B254D264F98474FF055
:1027C0000108FF2E286884F800802146424621D85F
:1027D000B84742462146204B286898472378286806
:1027E00084F8008023F00103214602226370B84779
:1027F000286814496670002502222570B847174CD6
:10280000D9F800002B462A462946A047144B1E80C3
:10281000BDE8F883B8474246214628680E4B9847E2
:102820002378286884F8008043EA080321460222BE
:102830006370B847DCE70B490B4B03209847B5E7BB
:1028400091610100B0B1002068B1002061800000FA
:10285000A8B1002081800000B1800000515D01001E
:10286000181C0020040E020009300100FCAF0020FB
:10287000014B1888704700BF181C0020014BB3F9AA
:1028800002007047181C0020F8B5184E184B30682D
:102890007021984720B34FF40062164B1648174F2B
:1028A000174D5221984711215220B8471221044652
:1028B00052202C70B847002328701A4619463068F9
:1028C000104EB0472B78240223449BB218B2B0F5C7
:1028D000005FA4BFA3F5804318B20B4B5880F8BD2E
:1028E0000A490B4B032098470A48F8BDFCAF00206B
:1028F000916101006180000068B10020DDC300002B
:10290000B0B10020515D0100181C0020180E02001B
:102910000930010018FCFFFF2DE9F043002583B0CA
:10292000DFF86490154FDFF864802E462C4608E0EF
:102930009D421CD001341D4600268C2B09DD632CE2
:1029400007DCC8471420B847B8F9023013F57A7F7E
:10295000EED100932246334609490A4C0220A04793
:102960004FF4FA703B4603B0BDE8F0431847013618
:102970000E2E04F10104E0DDEBE700BFBD3C0000DA
:10298000300E02000930010089280000181C0020C8
:1029900030B5184C184B83B09847B4F9021011F5B4
:1029A0007A7F19D0B4F904308B4218D0E268A18044
:1029B00001320023E260A3608B290BDC00910F4DF4
:1029C0000F490220A84700230120A360E360A380F1
:1029D00003B030BD642AF1DC002003B030BDA36831
:1029E000E268A180013301320E2BA360E260E5DCD6
:1029F000E2E700BF181C0020892800000930010010
:102A0000300E020070B50F4D0F4B0646532128685B
:102A1000984718B90D490E4B032098470D4B0E4CA3
:102A200098473046A0470020A0470020A0470B4B06
:102A30000B4C984700232868A4461A461946BDE85F
:102A40007040604714B0002091610100780E0200D0
:102A5000093001001515000035150000251500008E
:102A6000515D01002DE9F041164F174B06460D460A
:102A700038685321984718B91449154B03209847D3
:102A8000144B154C9847C6F3064040F08000A04711
:102A9000C6F30720A047F0B2A047E8B2A047C5F3AD
:102AA0000720A047C5F30740A047280EA0470B4BBF
:102AB0000B4C984700233868A4461A461946BDE8CF
:102AC000F041604714B0002091610100880E0200BF
:102AD000093001001515000035150000251500000E
:102AE000515D01002DE9F041134E144B05460F4690
:102AF00030685321984718B91149124B0320984761
:102B0000114B124C9847C5F3064040F08000A04797
:102B1000C5F30720A047E8B2A047F8B2A047380A9B
:102B2000A0470B4B0B4C984700233068A4461A462D
:102B30001946BDE8F041604714B0002091610100E2
:102B4000940E020009300100151500003515000033
:102B500025150000515D01002DE9F041124E134B87
:102B600005460F4630685321984718B91049114B54
:102B700003209847104B114C9847C5F3064040F08E
:102B80008000A047C5F30720A047E8B2A047384619
:102B9000A0470B4B0B4C984700233068A4461A46BD
:102BA0001946BDE8F041604714B000209161010072
:102BB000A00E0200093001001515000035150000B7
:102BC00025150000515D010070B51A4E1A4B82B0F8
:102BD000054653213068984718B91849184B032007
:102BE0009847184B184C9847C5F30540A047C5F3C4
:102BF0000720A047E8B2A04704210DEB0100134BCA
:102C0000134C9847134B984700231A4619463068CF
:102C1000A0479DF806309DF805109DF804209DF80A
:102C200007001B0403EB0123134403EB006002B015
:102C300070BD00BF14B0002091610100AC0E020015
:102C40000930010015150000351500005D15000064
:102C5000515D01002515000070B5164E164B82B06F
:102C6000054653213068984718B91449144B03207E
:102C70009847144B144C9847C5F30540A047C5F33B
:102C80000720A047E8B2A04701A802210F4B104C33
:102C90009847104B984700231A4619463068A047BA
:102CA0009DF805309DF8040000EB032080B202B0CF
:102CB00070BD00BF14B0002091610100B80E020089
:102CC0000930010015150000351500005D150000E4
:102CD000515D01002515000070B5134E134B82B0F5
:102CE000054653213068984718B91149114B032004
:102CF0009847114B114C9847C5F30540A047C5F3C1
:102D00000720A047E8B2A04701A801210C4B0D4CB9
:102D100098470D4B9847002330681A461946A0473C
:102D20009DF8040002B070BD14B000209161010054
:102D3000C40E020009300100151500003515000011
:102D40005D150000515D01002515000010B5064C11
:102D5000064B2288014602F5421098472388043327
:102D6000C3F30B03238010BD281C0020652A00003C
:102D7000024B03481988034B184700BF281C00204A
:102D8000FC203000E52A000030B5154D154B2868B1
:102D900083B053219847E8B1134B144C9847302027
:102DA000A0472020A0470020A04701A80121104BE8
:102DB000104C9847104B9847002328681A4619462C
:102DC000A0479DF80400A0F17C00B0FA80F0400913
:102DD00003B030BD09490A4B03209847DCE700BF28
:102DE00014B0002091610100151500003515000098
:102DF0005D150000515D010025150000D00E020098
:102E00000930010070B5484B484C494D9847442063
:102E1000A0470020A0474FF49670464B984740F2D9
:102E2000E934A84720B9A847013CFBD1204670BD32
:102E30004FF44020404C414EA04741494148B047E3
:102E4000414B4248984740F6FF73984255D0404D59
:102E50004048414C0021A84700214048A8474FF472
:102E600068713F48A04758213E48A04700213E488E
:102E7000A04730213D48A04740F20D213C48A047E3
:102E800020213C48A04700213B48A04703213B4864
:102E9000A04700213A48A84701213A48A8474FF4E3
:102EA00048713948A0474FF4F0713848A0470021D5
:102EB0003748A84701213748A8474FF40041364812
:102EC000A0474FF400412348A047FA213348A047C8
:102ED00000213348A84733494FF44010B0473249E6
:102EE0003248B04700213248B04702213148A84754
:102EF00005211A48A847012070BD2F48144DA0474E
:102F0000012104462D48A84700211048A847002168
:102F10002B48A84700212B48A84700212748A8474D
:102F200021462548B04793E7F1140000052A000028
:102F3000892D0000E9140000C92B0000652A00005B
:102F4000008793030C203000592C0000F82030003B
:102F5000592B00009C203000E52A00007020300032
:102F60002C20300030203000382030003C20300051
:102F700040203000442030004C20300050203000F1
:102F8000642030006C2030003420300048203000B5
:102F9000682030006020300098203000D0203000C1
:102FA000D4203000FF00000207000026040030009B
:102FB00008003000542030006291300020203000A2
:102FC000FC203000002130002DE9F047174C184E4E
:102FD000258881468A4605F542106FF0D1011746D3
:102FE0009846B04725880435C5F30B0505F5421012
:102FF00049EA0A412580B04725880435C5F30B0509
:1030000047EA084105F542102580B0472388089912
:103010000433C3F30B0303F542102380B047238826
:103020000433C3F30B032380BDE8F087281C002082
:10303000652A00002DE9F04F81B0474C0A9D0746F4
:103040002846884691469A46A0471FFA80FBBBF166
:10305000000F02D101B0BDE8F08F4FEA9B04601C65
:1030600004213E4B98470646002C72D0601E80B269
:1030700006EB80002A46311F937892F803E092F81D
:1030800000C01B0443EA0E6392F801E043EA0C031C
:1030900043EA0E2341F8043F814202F10402EBD1DE
:1030A000A3001BF0030B13D09B4456F824001FFA17
:1030B0008BFB4FEA840E0021EA5C01339BB28A400D
:1030C0005B4540EA020001F10801F5D146F80E0027
:1030D000DFF894B0224DBBF800006FF0F30100F56B
:1030E0004210A847BBF800300433C3F30B0347EA90
:1030F000084103F54210ABF80030A847BBF8003098
:103100000433C3F30B0303F5421049EA0A41ABF859
:103110000030A847BBF800000430C0F30B00ABF848
:1031200000000027BBB200F5421056F82310A84754
:10313000BBF8000001370430BBB2C0F30B009C4267
:10314000ABF80000EED2074B304601B0BDE8F04FBF
:1031500018472346A5E700BFC1B00100E5A1010063
:10316000652A000019A30100281C0020F8B5114CA5
:10317000114D238807460E4603F542106FF0C0013B
:10318000A84723880433C3F30B0303F542103946E1
:103190002380A84723880433C3F30B0303F54210AD
:1031A00031462380A84723880433C3F30B032380CD
:1031B000F8BD00BF281C0020652A00002DE9F04161
:1031C000164C174D238880460F4603F542106FF0CA
:1031D000C4011646A84723880433C3F30B0303F541
:1031E000421041462380A84723880433C3F30B03CE
:1031F00003F5421039462380A84723880433C3F3DC
:103200000B0303F5421031462380A847238804337B
:10321000C3F30B032380BDE8F08100BF281C00200E
:10322000652A00002DE9F047174C184E2588824684
:10323000884605F542106FF0BC011F469146B04725
:1032400025880435C5F30B0505F542105146258048
:10325000B04725880435C5F30B0548EA094105F553
:1032600042102580B04722880432C2F30B0239464F
:1032700002F542102280B04723880433C3F30B03C6
:103280002380BDE8F08700BF281C0020652A0000CD
:1032900038B50B4C0B4D20886FF0B50100F542108E
:1032A000A84723880433C3F30B0303F5421000211E
:1032B0002380A84723880433C3F30B03238038BD3E
:1032C000281C0020652A000070B50C4C0C4D23888A
:1032D00006466FF0EA0103F54210A847238804333D
:1032E000C3F30B0303F5421031462380A84723881C
:1032F0000433C3F30B03238070BD00BF281C0020E0
:10330000652A00002DE9F04FDFF8B8A0214FDFF863
:10331000B88083B003E02048D047834536D01F48AB
:10332000D04740F6FF7398428346F4D11C4CDFF837
:103330009C901C4E01E0444509D02046B8473146D8
:103340000546024601A80134C847002DF3D1164BAB
:103350001648174C9847012105461648A0470021FA
:103360000E48A04700210C48A04700211248A04762
:1033700000211048A04729460C48104B9847FA20D6
:103380000F4B98470448D0478345C8D103B0BDE8E8
:10339000F08F00BFD92C0000FC203000F820300056
:1033A00000983000E40E0200C92B0000629130004A
:1033B000592B00002020300000213000652A000039
:1033C000E9140000592C00008098300059AB01002E
:1033D00010B5024604460549054B03209847054BA6
:1033E0004FF000629A61204610BD00BF1C0F020022
:1033F000093001000080004170B50546054CC0F35E
:103400000740A047C5F30720A047E8B22346BDE820
:1034100070401847650201002DE9F8431C4D8146B4
:103420008846A84702281FD01A4E1B4C4FF0006751
:103430007761AD20A047194B4846984798F800009F
:10344000A04798F80100A047B7610446A8470228A2
:1034500016D0002C02DB2046BDE8F8832046104B36
:1034600098472046BDE8F8830E4A0F4B1068532159
:1034700098470028D8D10D490D4B03209847D3E732
:10348000084B0C4D186800231A461946A847E0E778
:10349000C16E01000080004165020100F9330000A7
:1034A000D133000014B0002091610100300F020000
:1034B00009300100515D0100F8B5164DA8470228FA
:1034C00014D0154E154B4FF00067776104209847D4
:1034D000B7610446A847022814D0002C01DB20461F
:1034E000F8BD20460E4B98472046F8BD0D4A0E4BBE
:1034F0001068532198470028E3D10C490C4B032056
:103500009847DEE7074B0B4D186800231A4619460B
:10351000A847E2E7C16E010000800041650201009A
:10352000D133000014B0002091610100440F02006B
:1035300009300100515D01002DE9F04100293BD027
:10354000B0F5001F38D21E4E0C460546B047022883
:103550001ED01C4F1C4B4FF00068C7F8148003208E
:1035600098471A4B284698472046194B9847C7F862
:1035700018800446B047022816D0002C02DB2046F3
:10358000BDE8F0812046134B98472046BDE8F08106
:10359000114A124B1068532198470028D9D110497D
:1035A000104B03209847D4E70B4B0F4D18680023AE
:1035B0001A461946A847E0E74FF0FF34DFE700BF9F
:1035C000C16E01000080004165020100F933000076
:1035D000B1020100D133000014B00020916101005C
:1035E000540F020009300100515D01002DE9F04146
:1035F000002943D02C4B1446013A9A423ED8B0F5EC
:10360000001F07463AD2DFF8CC800D46C04702289B
:1036100021D0264A264B4FF0006151610320984784
:10362000061E24DB3846234B9847061E29DB224F13
:103630002846B847013C064605F10105F8D10028A7
:1036400024DB1A4B4FF000629A61C047022822D057
:103650003046BDE8F081194A194B1068532198474C
:103660000028D6D11749184B03209847D1E7174BAC
:1036700098470028D6D03046BDE8F0814FF0FF369D
:10368000E6E7124B98470028E2D1D0E70F4B984766
:103690000028DDD1D5E7094B0D4C186800231A46E8
:1036A0001946A047D4E700BFFEFF1F00008000417D
:1036B00065020100F9330000B102010014B00020DE
:1036C00091610100640F020009300100D133000054
:1036D000515D0100C16E010070B582B00023184C2D
:1036E0008DF80730A04702281DD0164D164B4FF01D
:1036F00000666E6105209847144B0DF1070098474E
:10370000AE61A047022803D09DF8070002B070BD4B
:103710000F4B104C186800231A461946A0479DF815
:10372000070002B070BD0A4A0B4B1068532198473E
:103730000028DAD109490A4B03209847D5E700BF92
:10374000C16E01000080004165020100B10201006C
:1037500014B00020515D010091610100700F020062
:10376000093001002DE9F04100283CD01F4E0446ED
:10377000B04702281AD01E4F1E4D4FF00068C7F800
:103780001480AD20A8472078A8476078A847C7F8DC
:1037900018800546B047022814D0002D1BDB164CBC
:1037A000A047C307FCD42846BDE8F081134A144B58
:1037B0001068532198470028DDD11249124B03208D
:1037C0009847D8E70D4B114C186800231A46194644
:1037D000A047002DE3DA28460D4B98470028DED09D
:1037E0002846BDE8F0814FF0FF35DCE7C16E0100EF
:1037F0000080004165020100D936000014B00020AD
:1038000091610100800F020009300100515D01004B
:10381000D1330000F8B5164DA847022814D0154E34
:10382000154B4FF00067776150209847B761044609
:10383000A847022814D0002C01DB2046F8BD204602
:103840000E4B98472046F8BD0D4A0E4B1068532189
:1038500098470028E3D10C490C4B03209847DEE73A
:10386000074B0B4D186800231A461946A847E2E794
:10387000C16E01000080004165020100D1330000EB
:1038800014B0002091610100900F02000930010086
:10389000515D01002DE9F0411A4B1B4D80469847C0
:1038A000A847022819D0194E194C4FF000677761CC
:1038B0000120A04708F0BC00A047B7610446A84714
:1038C000022816D0002C02DB2046BDE8F0812046FD
:1038D000104B98472046BDE8F0810F4A0F4B106807
:1038E000532198470028DED10D490E4B03209847FD
:1038F000D9E7094B0C4D186800231A461946A8470A
:10390000E0E700BF15380000C16E010000800041F3
:1039100065020100D133000014B000209161010064
:10392000A40F020009300100515D0100F8B500202C
:10393000174B184D9847A847022814D0164E174B1E
:103940004FF00067776106209847B7610446A847A3
:10395000022814D0002C01DB2046F8BD2046104B75
:1039600098472046F8BD0F4A0F4B106853219847DF
:103970000028E3D10D490E4B03209847DEE7094BA1
:103980000C4D186800231A461946A847E2E700BF05
:1039900095380000C16E0100008000416502010001
:1039A000D133000014B0002091610100B40F020077
:1039B00009300100515D0100224B98422DE9F0478A
:1039C00003D900242046BDE8F0871F4B1F4E0D464B
:1039D00004469847B047022819D01D4FDFF894904D
:1039E0004FF00068C7F814800220C847194B2046E2
:1039F00098472846C847C7F818800446B0470228A9
:103A000011D0002C17DB144BBDE8F0471847134AC0
:103A1000134B1068532198470028DED11149124BEF
:103A200003209847D9E70D4B104D186800231A461C
:103A30001946A847E5E720460D4B98470028C1D115
:103A4000E1E700BFFEFF1F002D390000C16E01003D
:103A500000800041F9330000B934000014B00020A8
:103A600091610100C40F020009300100515D0100A5
:103A7000D13300006502010051B3174B70B5541EDD
:103A80009C4222D8B0F5001F1FD20D460446134BAE
:103A90001646984720462946114B9847022E05F1B5
:103AA00002040ADDF21E22F0010204320D4E15441A
:103AB00020460234B047AC42FAD10B4A0B4B4FF0D0
:103AC00000619161BDE8704018474FF0FF3070BD54
:103AD0004FF0FF30704700BFFEFF1F002D39000080
:103AE000193400006537000000800041B93400003F
:103AF0002DE9F0410E4D0F4B0F4E104C98474FF0F3
:103B00000067532128680E4B98470E4B7761602061
:103B100098470023B76128680B4D1A461946A847F5
:103B2000A047C307FCD4094BBDE8F041184700BFCC
:103B300014B000202D39000000800041D93600006B
:103B40009161010065020100515D0100B93400007E
:103B5000B0F5001F70B530D2204B214E0546984776
:103B6000B04702281DD01F4A1F4B4FF00061516122
:103B700020209847041E1ADB1C4B28469847044611
:103B8000B047022822D0174B4FF00062002C9A61F8
:103B900016DB174DA847C307FCD4164B98472046A1
:103BA00070BD154A154B106853219847DBE7144B3D
:103BB00098470028E0D0204670BD4FF0FF34EEE774
:103BC00020460F4B98470028E9D1E2E70A4B0D4DFC
:103BD000186800231A461946A847D4E72D39000073
:103BE000C16E01000080004165020100F933000050
:103BF000D9360000B934000014B0002091610100F2
:103C0000D1330000515D0100400007EE900ADFED66
:103C10000D6A0D480D4BB8EE677A10B5C6EE877A7F
:103C2000FCEEE77A17EE901A01399847041E01DB83
:103C3000204610BD22460649064B032098472046E1
:103C400010BD00BF001B374B04B1002025820000CF
:103C5000D40F020009300100024A136801331360D7
:103C6000704700BF88B10020704700BF014B0022A1
:103C70001A60704788B10020014B1868704700BF78
:103C800088B1002008B502460B46064C06490420C0
:103C9000A0474FF0800383F31188BFF36F8FBFF30A
:103CA0004F8FFEE70930010010100200024A13682E
:103CB00001331360704700BF2C1C002010B5074B68
:103CC00004469847022804D0A0B2054BBDE8104036
:103CD00018472046034BBDE810401847C16E01004D
:103CE000797E0000B96A0100F0B5032283B000219B
:103CF0000120904C904DA0472860002800F0BC8027
:103D000000231A4619468D4EB0472A688C4D002371
:103D1000194610461A46B047032200210120A04749
:103D20000246286020B100231A461946B0472A6887
:103D3000844D0023194610461A46B047032200213D
:103D40000120A0470246286020B100231A461946E8
:103D5000B0472A687C4F7D4C002319461046032546
:103D60001A46B04700238DE8A0004FF4007278494E
:103D70007848A0473B68002B00F08A80764E774950
:103D8000774800238DE860004FF40072A047336845
:103D9000002B74D0734E7449744800238DE8600082
:103DA0004FF4A062A0473368002B7AD0704E71495F
:103DB000714800238DE860004FF48072A04733689B
:103DC000002B00F089806D4E6D496E4800238DE810
:103DD00060004FF48072A0473368002B73D06A4EA6
:103DE0006A496B4800238DE860004FF40072A047D9
:103DF0003368002B79D0674E0196042300934FF46B
:103E00000072002364496548A0473368002B51D0F5
:103E1000634E6449644800238DE860004FF44072AB
:103E2000A0473368002B7BD0604E61496148002376
:103E30008DE860004FF48072A0473368002B66D095
:103E40005D4E5E495E4800238DE860004FF480724D
:103E5000A0473368002B51D05A4B5B4A1A61191D99
:103E600001225A4C5A48DA601A75A0475848594BF3
:103E700003B0BDE8F04018470246304E46E74FF029
:103E8000800383F31188BFF36F8FBFF34F8FFEE77B
:103E90004FF0800383F31188BFF36F8FBFF34F8F11
:103EA000FEE74FF0800383F31188BFF36F8FBFF3FA
:103EB0004F8FFEE74FF0800383F31188BFF36F8FBE
:103EC000BFF34F8FFEE74FF0800383F31188BFF3FA
:103ED0006F8FBFF34F8FFEE74FF0800383F311889E
:103EE000BFF36F8FBFF34F8FFEE74FF0800383F375
:103EF0001188BFF36F8FBFF34F8FFEE74FF0800342
:103F000083F31188BFF36F8FBFF34F8FFEE74FF03E
:103F1000800383F31188BFF36F8FBFF34F8FFEE7EA
:103F20004FF0800383F31188BFF36F8FBFF34F8F80
:103F3000FEE700BFF95C0100FCAF0020515D01000D
:103F400014B000201CB0002008B00020356501002E
:103F500064100200316700000CB0002078100200ED
:103F60009D53010000B000209010020031120100AA
:103F700020B00020A41002009DD8000024B0002032
:103F8000B0100200D58F000028B00020C41002003D
:103F9000490F010004B00020D810020051130000A6
:103FA00010B00020E41002002172000018B00020C0
:103FB000F810020025790100F8AF0020041102007A
:103FC00015D100002C1C0020593C00007D8400000D
:103FD000E8B000204184000070B5194D194B1A4E0D
:103FE00004463D2128689847217818481822002364
:103FF000B047174B1420984700231A4660601946B3
:104000002868144DA847D4ED017A134B134DFCEEEC
:10401000E77AF8EE677A17EE900A98470022104B7D
:10402000A84705A3D3E900230E4DA8470E4B984798
:10403000A06000EE100A70BD0000000000FEAF405E
:104040001CB0002091610100ED790000ACB00020AF
:10405000B1C50000515D01008D9701003598010048
:1040600000005940899A0100259E010000000000CF
:104070002DE9F0432DED028B3B4F3C4BDFF82881BF
:104080003B4D3C4E044683B03D213868984721782B
:10409000394818220023C047384B14209847002382
:1040A0001A46194660613868354FB847D4ED057A2D
:1040B0009FED347AD4ED016A94ED028AE068324FC4
:1040C00067EE877AB7EE007A67EEA66A77EE677AD0
:1040D000C6EEA78AA84780468946D4ED047AB1EE99
:1040E000487AC7EE276A16EE900AA847274B9847EA
:1040F00002460B4640464946B847B04707EE100A0D
:10410000C8EE877A224F17EE900AA847214B9847AE
:104110008046894618EE100AA84742464B46B847E3
:10412000B047A8471C4F0EA3D3E90023B847B047B8
:1041300000EE100AE06984ED060A8DED010AA84739
:104140000022164D164BA847164B98479DED010AC5
:1041500084F8200003B0BDEC028BBDE8F08300BF03
:1041600066666666661271401CB0002091610100AF
:104170008D970100259E0100ACB00020B1C5000064
:10418000515D01000000803935980100B1890100BE
:10419000899A0100A18A0100CD940100D194010007
:1041A0000000E03FE59D0100ED79000070B5134B84
:1041B000134D144E0446984702280CBF3D210021A0
:1041C0002868114B98472178104818220023B047DF
:1041D0000F4B14209847002360601A4628680D4D45
:1041E0001946A84794ED017AD4ED097A94ED0A0AAC
:1041F000A7EE270A84ED020A70BD00BFC16E010060
:104200001CB00020ED79000091610100ACB00020ED
:10421000B1C50000515D010070B5364E364B82B01D
:1042200004463E213068984700283CD0334B9847DD
:104230002178334B70209847002839DB314D324BC1
:1042400002209847314B29460322402098470028F6
:104250002F4B3FDB984700231A46194630682D4EF6
:10426000B0472A786B789FED2C6ADFED2C6A03EB60
:10427000022307EE903AB8EEE77AFCEEC77A84EDB7
:10428000017ACDED017ABDF8043007EE903AF8EEF0
:10429000677AAB78237777EEC67A87EEA60A84ED45
:1042A000020A02B070BD1E491E4B03209847BDE7AD
:1042B000174B98471C4A13680133022B13DC136019
:1042C00000233068134C1A461946A0479FED170A81
:1042D00002B070BD9847164B0A209847124A1368DF
:1042E0000133022BEBDD00206421124B82E8030036
:1042F0009847E5E7FCAF002091610100D55501002A
:1043000025C40000B0B10020010000205DC3000002
:1043100019560100515D01000000004700004844AB
:104320001411020009300100441C002000000000AC
:10433000BD3C000035C5000070B5364C61680029F1
:1043400059DD01396160B4F89A31B4F89801324D01
:1043500083422CBF00235A1C04EB8303D5F88860EA
:104360009E6034BF92B20122A4F89A2100284BD05B
:104370002A4BDFED2B7A03EB8002B3EC017A9342F8
:1043800077EE877AF9D107EE100AB8EE477A00295E
:10439000C7EE876AC4ED676AC5ED236A30DD01396F
:1043A0006160B4F83633B4F83413D5F8B4008B42F6
:1043B0002CBF00235A1C04EB830334BF92B20122AA
:1043C000C3F8A401A4F8362309B3164BDFED147A21
:1043D00003EB8102B3EC017A9A4277EE877AF9D146
:1043E00007EE101AB8EE477AC7EE876AC4EDCE6AB8
:1043F000C5ED2E6A70BD0C480C4B98476168A2E76A
:104400000B480A4B9847CCE7DFED057ABBE7DFEDB9
:10441000047AE5E7441C0020140000204C1C002016
:1044200000000000E81D0020940000201942000058
:10443000C0000020F8B5554A554B41F2140541F231
:104440001604002132205853195314250A24A3F8C6
:10445000400BA3F8DC0CA3F8780EA3F89A111E20E9
:10446000A3F83613A3F8D214A3F86E16A3F80A180B
:10447000A3F8A619A3F8421BA3F8DE1CA3F87A1E22
:10448000A2F8BA10A2F85612A2F8F2136427502626
:104490004049A3F86C76A3F89851A3F83453A3F8D5
:1044A000D044A3F80848A3F8A449A2F8F063A2F8FE
:1044B000B800A2F8540202F5187302F57C7243F8B2
:1044C000041B9342FBD1344D34493548354C364EAC
:1044D000A8473249C4F800013448A8473449C4F811
:1044E0002C013448A8473249C4F8FC003248A84798
:1044F0003249C4F828013248A847324B3249186083
:104500003248A847324BE065984732493248A847BD
:10451000324BC4F84C01984731493248A84707EE5E
:10452000900AFDEEE77A00212F48C4ED4F7AA847A4
:104530002E4B4FF07E5118602D48A8474FF07E510A
:10454000C4F830012B48A8474FF07E5120642A4818
:10455000A8470021C4F838012848A8474FF07E51E9
:10456000A0642548A8472649C4F834012548A8472F
:1045700041F6641160642448B04740F2FF11C4F86A
:1045800044012248B0476065F8BD00BF3C2D0020C3
:10459000441C0020000080BFD5170100000040C16E
:1045A00024110200140000208517010030110200C0
:1045B000CDCC4C3C38110200401102000E4F2F3D73
:1045C0004811020094B100200000A04050110200E8
:1045D000BD1D01000000A841581102005D1D010031
:1045E00000C05A4560110200681102004C310020E1
:1045F000701102007811020080110200881102007F
:10460000000040409011020098110200A011020029
:10461000B0F89221B0F890319FED1E7A9A4228BFEF
:10462000002210B438BF541C00EB820234BFA4B285
:104630000124022B1160A0F8924180ED657A22DD01
:10464000D0ED017ABFEE006AF4EE467AF1EE10FA90
:1046500019D0591E00F10802012306E0F2EC017A9C
:10466000F4EE467AF1EE10FA0DD0A34203F1010305
:1046700007D052ED026A77EEE67A37EE277A80EDC0
:10468000657A8B42EAD180ED667A5DF8044B17EECD
:10469000100A704700000000184BD3ED5F7AB3EEAC
:1046A000027AF4EEC77AF1EE10FA1BD4B3EE0F7A69
:1046B000F4EEC77AF1EE10FA08D49FED117AF4EE19
:1046C000C77AF1EE10FA0FD50220704793ED6A7A9F
:1046D000F1EE047AB4EEE77AF1EE10FA54BF01205D
:1046E00000207047002070479FED067AF4EEC77AED
:1046F000F1EE10FA4CBF0320002070471400002098
:1047000000005C420000A042054A08B50121054BAB
:1047100082F818149847012808BF82F8190408BDC8
:104720003C2D0020994600002DE9F043404C2DED32
:10473000048B94ED2E8AF5EE007AB4EEE78AF1EE62
:1047400010FA83B003DD3B4B984701280FD03A4B5A
:104750003A4C18EE100A98470B4639490246022097
:10476000A44603B0BDEC048BBDE8F0436047D4ED34
:10477000238A94ED6A9A304D324E69EE287A17EE0C
:10478000900AA84778EEC87A804617EE900A8946C4
:10479000A84700222C4BB0472C4E02460B46404601
:1047A0004946B047804618EE100A8946A847284E69
:1047B00002460B4640464946B047264B984707EE0F
:1047C000900AB3EE057AF4EEC77AF1EE10FAC4F867
:1047D000C8011AD49FED208AF4EEC87AF1EE10FADF
:1047E0000DDDA847154D02460B4602201B49A84780
:1047F00084ED728A03B0BDEC048BBDE8F083A8475A
:104800000E4C0B4602461649A9E7A847064619EE84
:10481000100A0F46A8473B46CDE900013246074D36
:1048200010490220A847D4F8A831C4F8C831E1E7FC
:1048300014000020994600008D9701000930010006
:10484000601202003598010000003540CD9401004F
:10485000899A0100259E01000000C842F011020063
:1048600038120200A81102002DE9F0472DED028B4D
:10487000C44CC54DC54E04F5CE7084B0B047B5F8F4
:10488000BA30B5F8B810D4F8A401994294BF002307
:104890005A1C05EB83038CBF92B2012243F8D80C5B
:1048A000A5F8BA20002900F01E83B94BDFEDB97AD4
:1048B00003EB8102B3EC017A9A4277EE877AF9D161
:1048C00007EE101AB8EE477AC7EE876AFCEEE67A72
:1048D000C5ED2F6ACDED037A9DF80C30C4ED6A6A00
:1048E000142B00F2C481152384F8AC31D5F81C34A4
:1048F0005A1C0C2BC5F81C2400F0C681A648B047F2
:10490000B5F85632B5F85412D4F878018B422CBF62
:1049100000235A1C05EB830334BF92B20122C3F873
:10492000C400A5F85622002900F0DA829B4BDFED87
:10493000997A03EB8102B3EC017A9A4277EE877A97
:10494000F9D107EE101AB8EE477A954AC7EE876A92
:10495000C5ED966AC4ED5F6A9047D5F8203483426E
:1049600004D0012800F06982C5F8200495F82834A5
:10497000002B00F05F818B4ED5F82434D5F8442409
:1049800023B902F59C432033C5F824349A4294EDB0
:104990006A8A00F29D81D6ED028A78EE687AB2EEDC
:1049A000067AF4EEC77AF1EE10FA07DDF3EE047A38
:1049B000B4EEE78AF1EE10FA00F3FD817A4D7B4800
:1049C0007B4E7C4FB047B5F8423BB5F8401BD4F85E
:1049D000E801DFED707A8B422CBF00235A1C07EBF5
:1049E000830334BF92B20122A5F8422B186041B173
:1049F0003B4607EB8102B3EC017A9A4277EE877A65
:104A0000F9D107EE101AB8EE477A6B48C7EE876AFD
:104A1000C7ED656AC4ED7B6AB047B5F8DE3CB5F812
:104A2000DC1C664FD4F80C02DFED5A7A8B422CBFA7
:104A300000235A1C07EB830334BF92B20122A5F86E
:104A4000DE2C186041B13B4607EB8102B3EC017AE2
:104A50009A4277EE877AF9D107EE101AB8EE477AC4
:104A60005748C7EE876AC7ED656AC4ED846AB047E8
:104A7000B5F87A3EB5F8781E524FD4F83002DFED23
:104A8000457A8B422CBF00235A1C07EB830334BFAB
:104A900092B20122A5F87A2E186041B13B4607EB8D
:104AA0008102B3EC017A9A4277EE877AF9D107EE68
:104AB000101AB8EE477A4448C7EE876AC7ED656AB0
:104AC000C4ED8D6AB04741F2140241F21603A95AAF
:104AD000EB5A3E4ED4F85472DFED2E7A8B422CBF47
:104AE00000235A1C41F2160006EB830334BF92B236
:104AF00001221F602A5241B1334606EB8102B3EC1A
:104B0000017A9A4277EE877AF9D107EE101AB8EE59
:104B1000477A2F482F4FC7EE876AC6ED656AC4ED06
:104B2000966AB847B5F80A38B5F808182A4ED4F886
:104B3000E000DFED187A8B422CBF00235A1C06EBF5
:104B4000830334BF92B20122A5F80A28186041B14C
:104B5000334606EB8102B3EC017A934277EE877A13
:104B6000F9D107EE101AB8EE477A1C48C7EE876AEB
:104B7000C6ED656AC4ED396AB847B5F8A639B5F827
:104B8000A4192DE0140000203C2D0020D93F000086
:104B9000642C00200000000084010020002E002072
:104BA0009946000068310020441C0020E4010020E8
:104BB00071400000F425002008020020902700200A
:104BC0002C0200202C29002050020020C82A00209E
:104BD000EC000020AD410000BC22002018010020A4
:104BE000C948D4F80C61DFEDC97A8B422CBF002391
:104BF0005A1C00EB830334BF92B20122A5F8A62908
:104C00001E6041B1034600EB8102B3EC017A93428E
:104C100077EE877AF9D107EE101AB8EE477AC7EE29
:104C2000876AC0ED656AC4ED446A04B0BDEC028BCE
:104C3000BDE8F08795F81834002B00F0B680B44E2C
:104C4000D4ED537AD6ED028AB24BB34F78EEE77AC1
:104C5000F0EEE77A17EE900A9847A5A3D3E9002370
:104C6000B84700287FF488AE94ED6A8A95E6642BF5
:104C700088BF642384F8AC31D5F81C345A1C0C2B43
:104C8000C5F81C247FF43AAE16EE901AA34BA44844
:104C9000A14F9847D5EDFE7AA24BFDEEE77A0022B0
:104CA00017EE900A0028B8BF4042C5F81C24984768
:104CB00091A3D3E90023B847002800F0C380D5F8BA
:104CC0001434632B3FF71AAE0133C5F8143415E6DC
:104CD000F0EE007AB4EEE78AF1EE10FA40F39D8030
:104CE000F3EE078AB4EEE88AF1EE10FA40F195800F
:104CF0008D4B9847B0F5FA6F40F38D8094ED538A51
:104D0000D6ED027A834FDFF8108277EEC87AF0EEA4
:104D1000E77A17EE900AB84775A3D3E90023C04796
:104D2000002878D0D4F8B800DFF81882B84774A308
:104D3000D3E90023C04700286DD0F3EE097AB4EE22
:104D4000E78AF1EE10FA66DDD5F814340A2B62DD3D
:104D5000D4F8A801B847754F02460B4602207449A3
:104D6000B847D4ED537A94ED6A8AF4EEE87AF1EE1E
:104D700010FA84ED728A10DB00234FF08441D4F8DE
:104D8000402184ED538AC4F85831C4F85C31C4F82A
:104D90006031C4F8CC11C4F864210023C5F8243470
:104DA00085F8183485F82834F5E5594B94ED6A8A6E
:104DB000D3ED028AF1E5D4ED537A564E564F78EE94
:104DC000E77AF0EEE77A17EE900AB04748A3D3E906
:104DD0000023B84700283FF4F1AD95F81834002BB4
:104DE0007FF4ECAD94F86C31002B3FF4E7AD012378
:104DF00085F8183418EE900AB047804618EE100A6D
:104E00008946B047494DCDE9000142464B464949E4
:104E10000220A847D2E594ED6A8AF3EE047AB4EE54
:104E2000E78AF1EE10FA7FF7B6AD3F4B9847B0F541
:104E3000FA6F0ADC94ED6A8AADE50023C5F82434E4
:104E4000904791E5C5F8140458E5D6ED028AD4EDF3
:104E5000537A304FDFF8C08078EEE77AF0EEE77AE9
:104E600017EE900AB84722A3D3E90023C0470028D1
:104E70003FF4FAAED4F8B800DFF8C880B84720A3F2
:104E8000D3E90023C04700283FF4EEAED5F8143430
:104E90000A2B7FF7E9AED5F82434D5F84424264907
:104EA000DFF888A00220D047B068B8478046D4F821
:104EB000A8018946B8474246CDE900014B461F4943
:104EC0000220D0471E4B9847002394ED6A8AD6ED06
:104ED000028AC5F8243485F8183485F828345CE54E
:104EE000DFED0A7A2DE5DFED097AE9E4AFF3008022
:104EF0009A9999999999D93F666666666666EE3F72
:104F0000333333333333D33F5824002000000000C1
:104F1000683100208D970100199D010011460000A5
:104F20009C2F0020699701007D28000009300100B6
:104F30009C12020054130200D41202001C1302003F
:104F400029470000559D01002DE9F0476E4D6F4C3B
:104F5000DFF8F8812DED028B95ED238A18EE100A0B
:104F6000A04767A3D3E9002306460F46C04758B1C0
:104F7000D5ED2E8A18EE900AA04761A3D3E900234D
:104F8000C047002840F08D80614F624E624D7E60C8
:104F90006249B1F8D234B1F8D00483422CBF002367
:104FA0005A1C01EB830334BF92B20122C3F8406361
:104FB000A1F8D224002800F09E80594BDFED597AE9
:104FC00003EB8002B3EC017A9A4277EE877AF9D14B
:104FD00007EE100AB8EE477AB1F86E36B1F86C06F3
:104FE000514ADFF86CC1DFF86CE1C7EE876A834293
:104FF00028BF0023CEF80460DFED4A7AC2ED006AD4
:1050000038BF5A1C0CEB830334BF92B20122C7EDA8
:10501000026AA1F86E261E6040B163460CEB800266
:10502000B3EC017A9A4277EE877AF9D107EE100A4B
:10503000B8EE477A16EE900A87EE878A3B4E3C4FD1
:105040008CED658A8EED028AA0470022394BA84775
:10505000B047394AC3B2A2FB03239B0803EB830387
:10506000DBB2142B17D8152387F8383418EE100A42
:10507000A0470022314BA847B047C0B2142833D90B
:1050800064288ABF642387F8540487F85434BDEC3D
:10509000028BBDE8F087642B88BF642387F838341F
:1050A000E4E7D5ED727ADFF8B0A01B4D68EEA77A81
:1050B00017EE900AA04778EE687A804617EE900ABD
:1050C0008946A04700221E4BD04702460B46404669
:1050D0004946A84732463B461A4E0D4FB0471A4B39
:1050E00098470646786053E7152387F85434BDEC9B
:1050F000028BBDE8F087DFED0B7A69E7AFF3008044
:105100009A9999999999B93F140000208D970100B7
:10511000683100209A99AF41D1940100441C0020CD
:10512000841F00200000000018210020E59D0100E0
:105130003C2D002000000440CDCCCCCC0000E03F52
:1051400000003540899A0100259E0100559D01000F
:10515000202100208431002035980100000000004B
:10516000454BD3ED447A454BB1EE087AF4EEC77A5D
:10517000F1EE10FA2DE9F047414C25D917EE900ACF
:1051800098472FA3D3E9002306460F463D4DA0477D
:105190002DA3D3E90023A8472DA3D3E900238046FC
:1051A000894630463946A04732463B46A047364CF2
:1051B00002460B4640464946A047344B9847344B7D
:1051C00058609860BDE8F08717EE900A984722A3D0
:1051D000D3E9002306460F462A4DDFF8ACA0A047CE
:1051E0001FA3D3E90023A8471FA3D3E900238046C8
:1051F000894630463946A04732463B46A0470246DC
:105200000B4640464946D04719A3D3E900238046C0
:10521000894630463946A04732463B46A04732468B
:105220003B46A04702460B4640464946A847174B17
:105230009847174B58609860BDE8F087AFF300803F
:10524000F2D24D621058D93F5C8FC2F5285C0B40FA
:10525000DE718A8EE4F26F3F6666666666660240BD
:105260001904560E2DB2D53F5EBA490C022BDF3F12
:1052700094F6065F984CA53F140000208D9701001E
:1052800035980100D1940100CD940100259E0100C4
:105290009C310020000000002DE9F0472DED028B2D
:1052A0003F4C404B404F414EDFF820A1404D82B073
:1052B0009847404B984704F58C63D3ED027A97EDFD
:1052C000238A38EE678A04F58F6317EE900A83ED20
:1052D000018AB0472CA3D3E9002380468946D047F2
:1052E00042464B46D047CDE90001D7F81001B04700
:1052F00002460B46DDE90001A84725A3D3E90023B8
:10530000CDE9000140464946D04702460B46DDE95B
:105310000001A847DFF8B8801FA3D3E90023C047E6
:10532000254B9847254BD7ED397A93ED007A2449E0
:1053300028EE077AF1EE486AE6EE877A04F5926283
:1053400004F5806306EE100A91ED007A76EE277A76
:10535000B6EE006A67EE867A28EE078AC2ED017A19
:10536000E6EE887AC3ED007A17EE900AB047002285
:10537000144BA847144B984784F8080402B0BDECBE
:10538000028BBDE8F08700BF5DA79196CADB613F45
:10539000BDE3141DC9E5AF3F984C158C4AEAB43FF4
:1053A0003C2D0020494F0000140000208D97010083
:1053B000D194010061510000259E010090B10020B0
:1053C0008CB100200000E03FE59D01003598010010
:1053D000CD94010010B50A4B017870209847002841
:1053E0000CDB0A20074B98474020074B4FF48051B5
:1053F00098470220054BBDE81040184710BD00BF7C
:1054000025C40000010000208DC40000BD3C000048
:1054100070B5084C084E4FF48065C4F89850A02031
:10542000C4F89450B047C4F898503346C820BDE83B
:105430007040184700800041BD3C000070B5074D2A
:10544000074B084C984705F18000A04705F1AC00D8
:10545000A0470A20044BBDE8704018471400002004
:1054600011540000D5530000BD3C000070B5144C31
:10547000144AD4F8A834144D0833C4F8A83490471B
:1054800012490420A847D4F8AC342BB110490420A9
:10549000A8470023C4F8AC340E4B98470E4B9847EE
:1054A0000E4B98470E4B98470A200E4B98470E4BD1
:1054B00098472B460D490420BDE87040184700BFAF
:1054C0003C2D002051C5000009300100B01302003E
:1054D000D8130200D967010035C500002DC30000B4
:1054E0003D5400000100002015690100F81302007E
:1054F000034A044B01460448C2F8FC10184700BF99
:1055000014000020C115010038110200034A044BA9
:1055100001460448C2F82811184700BF14000020B3
:10552000C115010040110200034A044B0146044822
:10553000C2F80011184700BF14000020C115010077
:1055400018140200034A044B01460448C2F82C1107
:10555000184700BF14000020C115010030110200DF
:10556000014BD3F8FC00704714000020014BD3F826
:105570002801704714000020014BD3F80001704748
:1055800014000020014BD3F82C01704714000020B8
:1055900010B582B002AC002124F8020D094B0A4874
:1055A00098472246012300210748084CA0471D3098
:1055B00001D002B010BD0649064B0320984702B047
:1055C00010BD00BFB57D0000D4B00020E97D000013
:1055D00020140200093001000F4A104B70B5106012
:1055E00098470F4D0F4B104C0022A84700220F4D3B
:1055F0000F4BA8470F4B984785B228460E4B98474C
:105600002A4620460D4B4FF4FA71984720460C4B22
:10561000BDE87040184700BFEC3100208D970100B5
:10562000899A0100000059408CB000203598010093
:1056300000407F40E59D0100915500007981000008
:1056400039810000014B1868704700BFEC31002021
:105650002DE9F04F8BB08846794B099105460846F5
:105660009847DFF81C92DFF81CA2764F764E774CF5
:105670004046C84702460B4602207549CDE906233D
:10568000D04740F2DC50B84772490220D04706F1BB
:10569000AC084FF0320B6368002B40F3C780013B2E
:1056A0006360B4F83633B4F83413D6F8B4008B42E0
:1056B0002CBF00235A1C04EB830334BF92B2012297
:1056C000C3F8A401A4F83623002900F0B680624B89
:1056D000DFED627A03EB8102B3EC017A9A4277EE56
:1056E000877AF9D107EE101AB8EE477ABBF1010BB1
:1056F000C7EE876AC4EDCE6ACDD1594969610022EF
:10570000AA615849DFF880810220D0476368002BE6
:1057100040F38880013B6360B4F83633B4F8341347
:10572000D6F8B4008B422CBF00235A1C04EB830331
:1057300034BF92B20122C3F8A401A4F83623002991
:1057400078D0454BDFED457A03EB8102B3EC017A6B
:10575000934277EE877AF9D107EE101AB8EE477ABE
:1057600095ED056AC7EE876A88FB0B234FEAEB725B
:10577000C2EBA30303EB8303D5ED067AC4EDCE6A37
:10578000B4EEE66AF1EE10FAF4EEE67AC8BFC5EDC3
:10579000056AF1EE10FA48BFC5ED066ABBEB430F90
:1057A0002ED00BF1010B0A20B847BBF1320FADD15F
:1057B0002C490220D047D4F83833DDED097A2B612B
:1057C000294BC5ED137A98682C88C8472246CDE945
:1057D000000126490220D0472869C8470646A86923
:1057E0000F46C847CDE902016869C8473246CDE98E
:1057F00000013B461E490220D0470BB0BDE8F08FA8
:10580000194B9868C847CDE904012869C8479DED40
:10581000067BCDE902018DED007B5A461549022039
:10582000D047BEE71448154B984775E74046134BE1
:10583000984736E7DFED097A8EE7DFED087A51E722
:10584000D9550000BD3C000014000020441C00207D
:105850004814020064140200E81D0020000000004B
:105860000000C8427414020068310020B414020021
:10587000D814020090140200C00000201942000059
:105880008D97010009300100676666662DE9F04FCB
:105890002DED028B8BB0B1F5004F0991064600F259
:1058A000758140F2FF10884228BF0846B84AB94BBC
:1058B000A2F8B4049847099AB749B84BDFF81C938B
:1058C000B74CDFF81CA30220984740F2DC50B54BE0
:1058D0009847B549B14B0220984709F1D80B04F617
:1058E000140864255846D047B4F80A38B4F80818A4
:1058F000AE4FD9F8DC008B422CBF00235A1C07EBBB
:10590000830334BF92B201221860A4F80A28002948
:1059100000F03981DFEDA67A3B4607EB8102B3EC5C
:10592000017A934277EE877AF9D107EE101AB8EE32
:10593000477A9E4B9F48C7EE876AC3ED656AD0479A
:10594000B4F8A639B4F8A419D9F808018B422CBFD1
:1059500000235A1C08EB830334BF92B20122186063
:10596000A4F8A629002900F00B81934BDFED907A73
:1059700008EB8102B3EC017A9A4277EE877AF9D18B
:1059800007EE101AB8EE477A013DC7EE876AC8EDF8
:10599000656AA7D10023894A736233633262F26277
:1059A00087497E4BDFF83CB20220984785487F4FFD
:1059B000D047B4F80A38B4F80818D9F8DC008B429C
:1059C0002CBF00235A1C07EB830334BF92B2012281
:1059D0001860A4F80A28002900F0CF80DFED747A5F
:1059E0003B4607EB8102B3EC017A9A4277EE877A65
:1059F000F9D107EE101AB8EE477A6C4B6D48C7EE36
:105A0000876AC3ED656AD047B4F8A639B4F8A4191B
:105A1000D9ED426A8B4235BF5A1C002392B2012253
:105A200008EB8303C3ED006AA4F8A629002900F05F
:105A3000A180614BDFED5E7A08EB8102B3EC017A65
:105A40009A4277EE877AF9D107EE101AB8EE477AC4
:105A500099ED378A96ED086A5B4BC7EE878A83FB20
:105A60000523EA17C2EBA30303EB8303D6ED097A00
:105A7000C8ED658AB4EEC68AF1EE10FAB4EEE78A94
:105A8000D6ED0B7A48BF86ED088AF1EE10FAF4EEF7
:105A9000E76AD6ED0C7AC8BF86ED098AF1EE10FAF6
:105AA000F4EEE76A48BFC6ED0B6AF1EE10FAC8BF24
:105AB000C6ED0C6AB5EB430F40D001350A20394BD7
:105AC0009847642D7FF472AF3D49344B02209847CC
:105AD000364B3E49D3F89421D8F89431F261099AB3
