:10000000886E0120151C0000111C0000111C00004E
:10001000111C0000111C0000111C00000000000059
:100020000000000000000000000000004145010049
:10003000111C000000000000D14501003546010000
:10004000111C0000111C0000111C0000111C0000FC
:10005000111C0000111C0000111C0000111C0000EC
:10006000111C0000111C0000111C0000459700002D
:10007000111C0000111C0000111C0000111C0000CC
:10008000111C00001194000019940000111C0000C4
:10009000111C0000111C0000111C0000111C0000AC
:1000A000111C0000111C0000111C0000111C00009C
:1000B000111C0000111C0000111C0000111C00008C
:1000C000111C0000111C0000111C0000111C00007C
:1000D000111C0000111C0000111C0000111C00006C
:1000E000111C0000111C00000000000000000000B6
:1000F0000000000009960000111C0000111C000007
:10010000111C0000111C0000111C0000111C00003B
:10011000111C0000111C0000111C0000111C00002B
:10012000111C0000111C0000111C0000111C00001B
:10013000111C0000111C0000111C0000111C00000B
:10014000111C0000111C0000111C0000111C0000FB
:10015000111C0000111C0000000000000000000045
:10016000000000000000000000000000000000008F
:10017000000000000000000000000000000000007F
:1001800045BE00004DBE000055BE00005DBE000033
:10019000000000008DA60000111C0000111C0000D2
:1001A000111C0000111C0000111C0000111C00009B
:1001B0009DA60000111C0000111C0000111C000075
:1001C000111C0000111C0000111C0000111C00007B
:1001D000111C0000111C0000111C0000111C00006B
:1001E000ADA60000111C0000111C0000E9AC0000CD
:1001F000111C000005AD0000111C000015AD000031
:1002000025AD00000000000000000000111C0000EF
:10021000111C0000111C0000111C0000111C00002A
:10022000111C0000111C0000111C0000111C00001A
:10023000111C0000111C0000111C0000111C00000A
:10024000111C0000111C0000111C0000111C0000FA
:10025000111C0000111C0000111C0000111C0000EA
:100260000000000010B5054C237833B9044B13B1DE
:100270000448AFF300800123237010BD500F00200D
:1002800000000000484E02000C4B43B10C480D49E1
:1002900010B5AFF300800C48036823B910BD0A48BD
:1002A000036833B97047094B002BF7D0BDE8104005
:1002B0001847064B002BF5D0184700BF0000000080
:1002C000484E0200540F0020484E0200000000007B
:1002D00010B5194C23787BB96368227B01336360C6
:1002E00092B1236901332361237D8BB1A36901336B
:1002F000A361237F83B910BDA368227B0133A36070
:1003000001236360002AECD1237D2261002BEDD113
:10031000A361237F002BEED0084B9847236A47F256
:100320003052C01A9042E6DD054A4FF000410023EA
:10033000C2F89410237710BD6C0F00207D57010088
:10034000008000412DE9F04F2DED028B694B6A4C86
:100350006A4D85B098476A4B08EE100A9847694B7A
:100360000646984794F824A0074618EE100ABAF1FA
:10037000000F39D1A847804630468946DFF8B8B12A
:10038000A84700224FF08043D847DFF8B0B10246BB
:100390000B4640464946D847002840F08C8094F8E8
:1003A00025A0BAF1000F41D118EE100AA8478046E7
:1003B00030468946A847544D544B0022A847544D17
:1003C00002460B4640464946A847002840F08C802C
:1003D000F3EE047AB4EEE78AF1EE10FA75DC05B0BC
:1003E000BDEC028BBDE8F08FA847804630468946B9
:1003F000DFF844A1A8470022444BD047DFF810A102
:1004000002460B4640464946D0470028C7D04FF029
:1004100000084049404B84F824800220984794F813
:1004200025A0C4F80480BAF1000FBDD094F826309E
:10043000002BD4D018EE100AA847804630468946D3
:10044000A847314E00224FF0804382468B46B0478A
:10045000324E02460B4640464946B0470028BED0C1
:10046000F3EE057AB4EEE78AF1EE10FAB7D52C4E2A
:10047000B04707EE907A07EE100A77EEC77A9FED45
:10048000297AF0EEE77AF4EEC77AF1EE10FAA6DBFD
:10049000002784F8257084F82670B047A847CDE976
:1004A00000ABCDE9020142464B461F491A4D0220DE
:1004B000A847676093E701221C49174BC4F808A0BE
:1004C000032084F82420984769E71949124AA0605C
:1004D0000123032084F8253084F8263005B0BDECD4
:1004E000028BBDE8F04F1047012312490A4AC4F8B5
:1004F00008A0EEE7417300006C0F00209583010017
:10050000E17200007D5F0000D98001000000F83F2B
:100510005D8901005CF00100C943010035890100DB
:10052000895F00009A99993EC8F0010040F00100EF
:100530009CF0010080F00100D580010021890100BC
:100540002DE9F04F2DED048BAF4BB04C87B09847A1
:10055000AF4B08EE100A9847AE4B08EE900A98474A
:1005600007EE900A94F8273037EEC88A88EE279A6B
:1005700053B9A94B1B7823B3002384F8273007B065
:10058000BDEC048BBDE8F08FA34D2B78002BF3D18D
:1005900094F8392032B1D4ED0B7AF4EEE78AF1EE1B
:1005A00010FA46DA94F84130002BE8D0D4ED0C7AFA
:1005B000B4EEE79AF1EE10FA50DA2B78002BDBD18B
:1005C000DDE7B0EE007AF4EEC77AF1EE10FA08DC5F
:1005D000C4ED0B8A84ED0C9A07B0BDEC048BBDE82A
:1005E000F08F8E4FB8478E4B08EE100A984707EEF3
:1005F000900A8C4B38EE678A9847B4F92830B0EEF1
:10060000C88A05B2002B3BD05A1B052A38DCEB1AEE
:100610000A2B36DD94F82A30002B00F04C810122A1
:100620000023227384F82A2023852361D4F82C80A8
:100630003DE07D4A84F8383084F8393084F827303A
:1006400018EE900A9047794E0B46024678490320EF
:10065000B04794F84130002BAFD0A7E7002384F8CF
:10066000403084F8413084F827306F4A6F4E19EEDD
:10067000100A904702460B4603206E49B0479CE79C
:10068000258523690A2B10D994F82A306BB1B4F967
:100690002820AB1A0A2B40F31481002020612B463E
:1006A0006549624E0220B0472585D4F82C805E4D06
:1006B000624E18EE900AA847824640468B46DFF805
:1006C0009081A8474AA3D3E90023C04702460B46BE
:1006D00050465946B047002800F0DE8018EE100A58
:1006E000C4ED0B8A84ED0C9AA847DFF8688142A319
:1006F000D3E90023C047002840F0DA8094F82A307C
:10070000002B7FF43CAFE06A4D4FDFF84881A847EB
:1007100000224C4BCDE90201B8470B460246594630
:100720005046C04794F838308146002800F0948045
:10073000002B00F0D78019EE100AA847CDE902017E
:10074000206BA8472AA3D3E90023CDE90401B847C9
:100750000B460246DDE90201C04794F8403080466E
:1007600008B3002B00F0F58094F838304BB194F8C2
:100770003930002B00F0D98094F84030002B3FF442
:10078000FEAE94F84130002B00F0BF8094F8393071
:10079000002B3FF4F4AE254B2B490320984701234F
:1007A00084F82730EBE6DBB115A3D3E90023DDE9BC
:1007B0000401B847214E02460B46DDE90201B0476D
:1007C0000028D1D09DED047BDDE902238DED007B77
:1007D0001E49164E0420B04784F8408084F84180BA
:1007E00094F83830002BC7D0C1E700BFAFF30080CA
:1007F0009A9999999999B93FEC51B81E85EBB13FF7
:100800009A9999999999A93F895F00006C0F0020E6
:10081000095F00007D5F000010000020E172000011
:1008200041730000A128000095830100C943010025
:1008300018F4010048F4010044F101005D89010051
:10084000D58001000000F03FA8F30100C0F20100D4
:10085000D980010021890100002B3FF46CAF0022F8
:100860004C4B4D4EDDE90201B84702460B4650465F
:100870005946B04700283FF45EAF9DED027B5246DB
:100880008DED007B5B464549454E0420B04784F81A
:10089000389084F839904EE7B847D4ED0D7A07EEDA
:1008A000100AB4EE677AF1EE10FA7FF417AF25E77D
:1008B000B847606322E72A463A49394B02209847F5
:1008C000ADE62B463849364D0220A847002318EEE6
:1008D000908AC4ED0B8A84ED0C9A237384F82A3035
:1008E0002361E4E60121314A84F8393084F8381074
:1008F000904700F59C500830E06352465B462C4917
:10090000DFF89C900420C84715E7284B9847636C94
:10091000984230D894F83930002B3FF430AE94F838
:100920004030002B3FF42BAE35E7204B9847E36B6C
:1009300098427FF621AFE06A194EA8475B46CDE9A1
:10094000000152461B490320B047012384F8393087
:1009500012E70121154A84F8413084F8401090478D
:1009600000F59C5008306064DDE9022312490C4E0A
:100970000420B04734E7206BA847DDE90223CDE926
:100980000001074D0D490320A847012384F8413099
:10099000C0E700BF0000E03F5D89010018F20100E0
:1009A000C943010018F1010094F101007D570100D5
:1009B000D8F1010018F3010068F2010058F30100BA
:1009C00038B50E4C94F8483073B90D4B1B7803B111
:1009D00038BD0C4DA8471228FAD9A84714289CBF47
:1009E000012384F84830F3E7074A4FF00041002321
:1009F000C2F8941084F8483038BD00BF6C0F002056
:100A000010000020C50201000080004110B5064C16
:100A1000207710B1054B98472062054B4FF00042FC
:100A2000C3F8942010BD00BF6C0F00207D5701005B
:100A300000800041014B187F704700BF6C0F002001
:100A40002DE9F041294C237D23B1A369072B01D85F
:100A5000BDE8F08194F84930CBB9254B254D984736
:100A6000254B0646984780463046A84706464046EE
:100A70000F46A847214D224B0022A847214D024690
:100A80000B4630463946A84730BBBDE8F081184BCD
:100A9000184D9847184B0646984780463046A84759
:100AA000064640460F46A847144D174B0022A8475C
:100AB000164D02460B4630463946A8470028E4D07A
:100AC00000251349134B84F849500220984765606C
:100AD00084F82750BDE8F081012284F849200E49AE
:100AE0000C4B0320BDE8F041184700BF6C0F0020FD
:100AF0008171000095830100E1700000D580010044
:100B0000000024402189010000001C405D89010093
:100B1000A8F40100C943010094F4010010B5184B7A
:100B2000184C984794F84A3007EE900AB3EE057ACD
:100B3000F4EEC77A1BB9F1EE10FA11D410BDF1EE44
:100B400010FA08DB002284F84A200F490F4B0220DC
:100B5000BDE8104018470E4B98470028F2D1EDE74A
:100B60000B4B98470028E9D10A4A0B491070012223
:100B700084F84A20054B0320BDE81040184700BF09
:100B8000F5D400006C0F0020E4F40100C94301001B
:100B9000C9D4000010000020C4F4010070B5104D4D
:100BA000104CA847D4ED137A07EE100AB4EE677A1A
:100BB000F1EE10FA05D1237D13B1A369082B07D8F4
:100BC00070BD00220123A2612375A847E06470BDB7
:100BD000002222750449054B0220BDE870401847E9
:100BE000E17000006C0F002004F50100C943010012
:100BF000084B002200211A7083F8502083F824202B
:100C000083F8252083F8492083F82720D9621963C7
:100C1000596370476C0F00207B4B30B4A3FB01235A
:100C20007A4C5B09421E84F8523084F85100062A3F
:100C300000F2CF80DFE812F022003C005700940061
:100C40007200B2000700724B42F20F7242F2107053
:100C5000814288BF11461A6989B25186136913F01F
:100C6000FF03FBD16B496C4A096912690B67538614
:100C7000136913F0FF0FFBD130BC7047644B1A6946
:100C800000235386136913F0FF03FBD16148624AC6
:100C900000691269036742F20F73994228BF19462F
:100CA00089B25186136913F0FF0FFBD130BC704736
:100CB000574B1A6900235386136913F0FF03FBD1C6
:100CC0005448554A0069126942F2107542F20F7495
:100CD000A94288BF214601675386136913F0FF0FAD
:100CE000FBD130BC70474A4B42F20F7242F2107097
:100CF000814288BF11461A6989B25186136913F07F
:100D0000FF03FBD14349444A096912690B675386C3
:100D1000136913F0FF0FFBD130BC70473C4A42F21D
:100D20001073994212698DBF42F20F738BB208465D
:100D300018465386136913F0FF0FFBD1354B364A23
:100D40001B691269186742F20F73994228BF19464E
:100D500089B25186136913F0FF0FFBD130BC704785
:100D60002B4B1A6900235386136913F0FF0FFBD135
:100D700042F21073994240D8264A42F20F738B42D6
:100D8000126928BF0B4611679BB2234A126953862A
:100D9000136913F0FF0FFBD130BC70471C4B42F2BC
:100DA0000F7242F21070814288BF11461A6989B2EF
:100DB0005186136913F0FF03FBD11649164A0969DE
:100DC00012690B675386136913F0FF0FFBD130BC18
:100DD00070470F4B1A6900235386136913F0FF0302
:100DE000FBD10C490C4A096912690B6753861369D8
:100DF00013F0FF0FFBD130BC7047064B1A6942F26B
:100E00000F731367C1E700BF1F85EB516C0F002004
:100E100024AD002044AD002048AC0020F8B52E4C95
:100E200094F85330DBB1656D94F85830302D17DDF0
:100E300003EB830303EB83039B0007EE903AF8EE8A
:100E4000E77A264D94F85900254AFCEEE77A00230C
:100E500017EE901A6B7031259047013D6565F8BD1E
:100E6000002D1EDB03EB830303EB83031D4A1B49A9
:100E700094F859004E781A4F9B0007EE903A02EB17
:100E80008502F8EEE77A92ED007A67EE877AFCEE5B
:100E9000E77A17EE901AB847002EDED00135656567
:100EA000F8BD03EB830303EB83039B0007EE903A4B
:100EB0009FED0D7A094994F85900094AF8EEE77A4E
:100EC000012367EE877A4B70FCEEE77A002517EE78
:100ED000901A9047E2E700BF6C0F0020100000203E
:100EE000190C000074EF010000000000004B1847CF
:100EF0001D0E000010B500EB8000074C074B00EB07
:100F00008000820092B2204642F21071984720463B
:100F1000034BBDE81040184724AD0020CD7C0000F5
:100F20008D7C000010B500EB8000074C074B00EBF8
:100F30008000820092B2204642F21071984720460B
:100F4000034BBDE81040184744AD0020CD7C0000A5
:100F50008D7C000010B500EB8000074C074B00EBC8
:100F60008000820092B2204642F2107198472046DB
:100F7000034BBDE81040184748AC0020CD7C000072
:100F80008D7C0000374A431E70B50C4682F8510034
:100F900082F85210062B5BD8DFE803F0451A0430C4
:100FA000410404000846304B304D314C9847002234
:100FB00042F210712F48A8472E48A047002242F263
:100FC00010712D48A84723462B48BDE870401847AC
:100FD000002242F21071254E2848254DB04727487F
:100FE000A8472046264B9847002242F2107122481B
:100FF000B0472B462048BDE8704018471B4B1F48A0
:10100000002242F2107198471C48194B984720461D
:101010001B4B984720461B4BBDE8704018470846BD
:10102000114B9847F3E7002242F210710F4E13481C
:101030000F4DB0471148A847002242F210710D48E9
:10104000B0470C48A84720460E4BBDE870401847F3
:10105000002242F21071054D0848054CA847074888
:10106000A047A4E76C0F0020F50E0000CD7C000027
:101070008D7C000044AD002048AC002024AD002051
:10108000250F0000550F0000F0B5134C002583B06C
:1010900084F85300656540B903461A46E06D009335
:1010A00003210E4CA04703B0F0BD0D4F84F859103A
:1010B0000846012629460B4B84F858207E70984735
:1010C000094BE46D984731460246009520462B4671
:1010D000024CA04703B0F0BD6C0F0020D9630100A3
:1010E00010000020850F00007D570100F0B5874CEF
:1010F000257883B06DB9A36E002B37D194F85020BA
:101100002AB1002323669A4201D084F8503003B0FC
:10111000F0BD236E0BBB94F850209542F7D07C4E67
:101120000023082DA360636000F08380012D00F090
:101130009E80042D00F09F80052D00F0A180022DDF
:1011400000F0A280102D00F087802B46714902200C
:10115000B04794F850202378D5E7A268934240D353
:1011600094F85030AB42D2D02378CEE762689342F5
:10117000C4D294F86610009102206749644E674F0C
:10118000B047674BA5664FF00042C3F89420B847BC
:101190000F281BD0B847122818D0B847102815D0F0
:1011A00094F8660090B1122800F2AB800E2800F08F
:1011B000A8805C4B98470022114610465A4B98472E
:1011C00094F8651094F86400584B984794F85020B0
:1011D0002578AA429BD0002D93D0236E002BC3D13B
:1011E0009EE753494A4E0220B04794F8511094F8B4
:1011F00052204A4B84F8641084F86520984725787B
:1012000084F86600082D4BD0012D50D0042D1CD041
:10121000052D5AD0022D5FD0102D64D0122D69D02B
:10122000142D4BD02A4643490220B04700232366A1
:10123000CCE7052340491A46042523660220A5660B
:10124000B04794F8502023785DE71420354B984739
:101250003A490220B047E9E7012339491A460220FA
:101260002366A366B04794F8502023784BE7052304
:101270001A463449F3E70A231A4605253249DCE7C2
:101280002A4632492566D9E705231A4628463049B9
:1012900023660325A566B04794F85020237832E7EB
:1012A0001520204B98472B490220B047BEE713205A
:1012B0001C4B984728490220B047B7E72846194BEE
:1012C000984726490220B047B0E71320154B9847AE
:1012D00023490220B047A9E71620124B9847284619
:1012E0002049B047A2E717200E4B98471E4902201D
:1012F000B0479BE717200B4B98471C490220B0478B
:1013000094E71220074B984755E700BF6C0F002069
:10131000C9430100A4F8010040F70100C502010023
:1013200000800041D102010089100000850F0000FB
:1013300028F5010000F7010084F70100A4F5010081
:1013400078F80100B4F70100E4F7010010F801009B
:1013500048F8010050F5010078F50100B8F60100E9
:10136000CCF5010004F6010030F601006CF6010036
:101370002DE9F04F3A4FDFF828913A4CDFF824B1CD
:10138000394E3A4DDFF820A185B0B8470DF110086D
:1013900002463749374B48F8040D02209847364B30
:1013A0000093012200234FF47A713448C847344B2C
:1013B000E06601221421009332480023C847D4F884
:1013C0006C90E065B847002302460121484600932F
:1013D000DFF8D890C847DFF8D8904FF47A611EE064
:1013E00094F8493094F8251094F824209B0003EBDE
:1013F000410394F84A10134494F8272003EBC103E7
:1014000003EB02132370B847236F1BB1C31AB3F564
:101410007A7F02D31C4B20679847C8471521404666
:10142000D8471A4B9847B04708B12B7893B1184B5F
:10143000984708B12B7883B1B04740B9D0472B7893
:10144000002BCDD094F84A30DB002370DBE7114B42
:101450009847F3E7104B9847E9E7104B9847EBE7BD
:101460007D5701006C0F00207D73000010000020EC
:10147000E8F80100C9430100D10200000CF90100A5
:10148000ED0E000020F90100C10900009D0B0000D5
:10149000316000004105000045030000410A0000E2
:1014A00085630100A55901001D0B0000D9630100EF
:1014B000ED100000094B83F85A0000B9704770B472
:1014C000074D084C83F85910012683F85820084628
:1014D0006E702346002170BC184700BF6C0F0020BF
:1014E00010000020850F0000034A044B4FF000411C
:1014F000C2F894101870704700800041100000205E
:10150000014B1878704700BF6C0F0020014B18701A
:10151000704700BF6C0F0020004B1847ED3C0000E7
:1015200070B5064D064C4FF400166E613220A04790
:10153000AE6123466420BDE870401847008000413A
:10154000ED3C0000024B4FF400225A61704700BF8F
:1015500000800041024B4FF400229A61704700BFA7
:101560000080004130B587B006AB002503F8110DAF
:10157000012403A9034A0448039304950594904762
:1015800007B030BDA57D000000AD0020F0B58BB0E8
:10159000002308290393029314D80AAD0A46552163
:1015A00005F8211D02AE044607A904960127064846
:1015B000064E05940692089307950997B04704A92B
:1015C0000148B0470BB0F0BD00AD0020A57D000084
:1015D00010B5034B9847034BBDE81040184700BFB8
:1015E0004125000075730100F8B5094C07466FF0FE
:1015F000B9000E461546A0473846A0473046A047DA
:101600002846A047034B9847034B98470120F8BD55
:101610007D2D0000A12D00003533000008B56FF0CE
:10162000B600074B9847074B9847074B9847074B1F
:1016300007489847A0F10200B0FA80F0400908BDC1
:101640007D2D0000A12D000035330000092D000084
:10165000F025300008B5074B9847074B9847074BD4
:101660009847074B07489847A0F10300B0FA80F06D
:10167000400908BDC1320000A12D00003533000033
:10168000092D0000F0253000830709D10B469B0689
:1016900006D1930710B405D000205DF8044B7047C5
:1016A00000207047014B5DF8044B1847E915000016
:1016B0002DE9F84F6FF0E400DFF82091DFF820A16A
:1016C000DFF820B1374D384E384FDFF81C81C8475E
:1016D0004FF47F20C847FF20C8474FF48050C847C9
:1016E0001420D047D847324B98474FF47F2419E055
:1016F0002968B0476968201DB047A96804F108004F
:10170000B047E96804F10C00B047296904F1100002
:10171000B047696904F114001834B047444505F135
:10172000180503D06B69BB422046E1D0214C1F4B0A
:10173000D4F8AC269A4218D0D4F8B0161E48B04758
:101740006FF0B800C8471D48C8474FF47F20C8470E
:101750004FF48050C8471420D047D847144B9847BF
:101760001420D0470120BDE8F88FD4F8941614480F
:10177000B047D4F898161348B047D4F89C161248CE
:10178000B047D4F8A0161148B047D4F8A4161048B2
:10179000B047D4F8A8160F48B047D4F8AC160E4896
:1017A000B047C9E7E80F0020952A0000CAF00F53A0
:1017B00035330000E40F0020FCFF0F000010800014
:1017C000D0FF0F00D4FF0F00D8FF0F00DCFF0F0089
:1017D000E0FF0F00E4FF0F00E8FF0F007D2D000089
:1017E00019150000A12D000090F60F0030B408B1CB
:1017F0000138C0B20F4B104D002204E00132462ADE
:1018000003F1180313D01C68A042F7D15C69AC4205
:10181000F4D10A4B02EB420203EBC20201209568AD
:10182000D46813698B600D604C6030BC7047002039
:1018300030BC7047E80F0020CAF00F53E40F0020BF
:101840002DE9F047504B82B09847002862D04F4BAB
:1018500098470446002855D04D4F4E4B384602223B
:1018600020F8042B00214FF4D26298474FF48052A5
:1018700049494A4B4FF47F2098470446002877D0C7
:10188000474EDFF85081DFF850913C1D4FF47F2523
:101890004FF0000A03E04D4504F1180443D02846F8
:1018A000B0472060281DB047606005F10800B047D0
:1018B000A06005F10C00B047E06005F11000B047F2
:1018C000206105F11400B0474045606105F118053D
:1018D00029D12368002BDEDAB7F8B406216900EBC2
:1018E000800207EB82020130C2F8C836636882F8D2
:1018F000C4A6C2F8C0A6A7F8B406C2F8BC16C2F8BF
:10190000B836C8E72749284B04209847204602B03C
:10191000BDE8F08704462549234B0420984720461C
:1019200002B0BDE8F0872248B047C7F894062148C6
:10193000B047C7F898062048B047C7F89C061F482C
:10194000B047C7F8A0061E48B047C7F8A4061D4810
:10195000B047C7F8A8061C48B047C7F8AC061B48F4
:10196000B0470124C7F8B006204602B0BDE8F087B2
:101970004FF48053009316490B4D03F500034FF4C9
:101980007F220420A847C1E71D160000551600005D
:10199000E40F0020F195010000108000E91500001F
:1019A000F92B00004CF90100C943010034F9010092
:1019B000D0FF0F00D4FF0F00D8FF0F00DCFF0F0097
:1019C000E0FF0F00E4FF0F00E8FF0F00FCFF0F0037
:1019D0006CF90100CAF00F5390F60F00F0B4094CF7
:1019E000094ED4F8AC7604F2946405460FCC0FC5CA
:1019F00094E8070085E80700B81BB0FA80F04009BA
:101A0000F0BC7047E40F0020CAF00F5370B40546D5
:101A10000FCD054C054E0FC495E80700334684E80A
:101A2000070070BC184700BF78160020B1160000F0
:101A300010B50A4B0A48984700210A4B0A489847B4
:101A40000A4B044606489847844200D810BD2146F8
:101A50000348074BBDE81040184700BF71770000EE
:101A6000B0AC0020C1080100BCF9010019970000CA
:101A7000E99600000146014B01481847957800009F
:101A8000B0AC00202DE9F043114C124B89B006A9EF
:101A9000204698472046104B9DF81A409DF8195053
:101AA0009DF818609DF81D709DF81C80BDF81E9073
:101AB000984722460490CDF80C908DE8C0012B4643
:101AC0000649074C0220A04709B0BDE8F08300BFDB
:101AD000B0AC00209578000019970000C4F901000F
:101AE000C943010030B51A491A4D1B4C83B0A847B1
:101AF000A047C0B218288CBF00238DF806001449F7
:101B000088BF8DF806300020A847A047C0B23B2808
:101B10008CBF00238DF805000D4988BF8DF8053076
:101B20000020A847A047C0B23B288ABF00238DF8F9
:101B300004008DF8043001A9084B09489847094B67
:101B400007489847084B01460848984703B030BDFE
:101B500088190200C5AD0100E58D01009D770000E8
:101B6000B0AC00201997000095070100BCF90100F6
:101B700030B51F491F4D204C83B0A847A047C0B2C5
:101B80000C288CBF01238DF80500194988BF8DF8FA
:101B900005300020A847A047C0B21F2894BF8DF889
:101BA00004000123124988BF8DF804300020A847A3
:101BB000A04780B2632898BF00F5FA6040F2D9735D
:101BC00098BF80B2984298BF40F2E573ADF8060026
:101BD00001A998BFADF806300848094B9847094B52
:101BE00006489847084B01460848984703B030BD5F
:101BF000F4F90100C5AD0100E58D0100B0AC002095
:101C00001D7800001997000095070100BCF901003C
:101C1000FEE700BF1B491C4A914208B50ED01B4885
:101C200082420BD2D343034423F00303043313440F
:101C300051F8040B42F8040B9A42F9D1144A1549A1
:101C40008A420AD2D3430B4423F0030304331344E0
:101C5000002142F8041B9A42FBD10F4A0F4B22F09D
:101C60007F029A60D3F8882042F47002C3F888207B
:101C7000BFF34F8FBFF36F8F094B9847094B9847BE
:101C8000FEE700BF484E020000000020500F002079
:101C9000500F002088AE00200000000000ED00E0A2
:101CA000698E01000DCB0000F0B4674B6748684DAA
:101CB000684F694E4FF0404208245C6098629A6217
:101CC00093F8431001F0FE0141F0010183F8431045
:101CD00093F8311001F00F0141F0100183F8311039
:101CE0004FF48071C3F88410C3F8A850C3F8A8203B
:101CF00093F8C81001F0FE0141F0010183F8C8100B
:101D000093F8B41001F0F00141F0010183F8B41030
:101D1000102159609F629A6293F8441001F0FE010D
:101D200041F0010183F8441093F8321001F0F00102
:101D300041F0010183F83210402159609E629A629D
:101D400093F8461001F0FE0141F0010183F84610BE
:101D500093F8331001F0F00141F0010183F83310E2
:101D6000803D802159609D629A6293F8471001F08E
:101D7000FE0141F0010183F8471093F8331001F0A0
:101D80000F0141F0100183F8331007F57C774FF411
:101D9000806159609F629A6293F84A1001F0FE01D7
:101DA00041F0010183F84A1093F8351001F0F00179
:101DB00006F5F86641F001014FF4006783F835102D
:101DC0005F609E629A6293F84B1001F0FE0141F051
:101DD000010183F84B1093F8351001F00F017C3DA1
:101DE00041F01001042683F83510C3F88460C3F86D
:101DF000A850C3F8A82093F8C21001F0FE0141F0EA
:101E0000010183F8C21093F8B11001F0F00141F024
:101E1000010183F8B110C3F88440C3F8A800C3F8E7
:101E2000A82093F8C32002F0FE0242F0010283F8DA
:101E3000C32093F8B12002F00F0242F0100283F8A1
:101E4000B120F0BC704700BF008000410800004096
:101E500000010040100000404000004010B5094A59
:101E60000948136A094943F0800342241362C0F809
:101E700020418847002206490648074BBDE810402C
:101E8000184700BF00080040001C0040A91C0000CB
:101E9000001C0043A8AC00204974000010B4184B8B
:101EA000184A194804244FF040415C609A629962D4
:101EB00093F8422002F0FE0242F0010283F8422031
:101EC00093F8312002F0F00242F00102202483F85E
:101ED00031205C609862996293F8452002F0FE021E
:101EE00042F0010283F8452093F8322002F00F02FD
:101EF00042F0100283F832205DF8044B704700BFB7
:101F000000800041040000402000004070B5084AF5
:101F1000084D136A084C0949094843F400734226E6
:101F20001362C5F82861A047064BBDE8704018470A
:101F300000080040001C0040D1780000002400434D
:101F4000D0AC00209D1E0000F0B4234A234C244B4B
:101F5000244E2548254D26494427C2F890706269D1
:101F6000202742F480626261C3F88470C3F8A860DD
:101F7000C3F8A80093F8C52002F0FB0283F8C5203F
:101F800093F8C52002F0FE0242F0010283F8C5205A
:101F900093F8B220402402F00F0283F8B220C3F875
:101FA0008440C3F8A850C3F8A80093F8C62002F0F4
:101FB000FB0283F8C62093F8C62002F0FE0242F02E
:101FC000010283F8C62093F8B32002F0F00283F8F0
:101FD000B320F0BC084700BF001C004000080040D0
:101FE0000080004120000240000002C0400002408A
:101FF000397A0000164B93F8482002F0FB0283F870
:10200000482093F8482002F0FE0242F0010283F8D3
:10201000482093F8342002F0F00242F0020283F8E4
:10202000342093F8492002F0FB0283F8492093F80A
:10203000492002F0FE0242F0010283F8492093F8A1
:10204000342002F00F0242F0200283F8342070475F
:102050000080004170B50A4B0A4A0B4C0B490C48F2
:1020600042264325C3F89C60C3F88C50536943F45F
:1020700080535361A047074BBDE87040184700BF2D
:10208000001C004000080040717B00000030004050
:1020900064AD0020F51F000070B4284B284D294E78
:1020A00029482A494FF480324FF080445A619A609F
:1020B0009C629D6293F8502002F0FE0242F0010201
:1020C00083F8502093F8382002F0F0024FF40035E6
:1020D00042F0020283F838205D619D609C629E623E
:1020E00093F8512002F0FE0242F0010283F85120E1
:1020F00093F8382002F00F0242F020024FF48024BF
:1021000083F838205C609862996293F8522002F05C
:10211000FB0283F8522093F8522002F0FE0242F0B4
:10212000010283F8522093F8392002F0F00242F0C5
:10213000020283F8392070BC704700BF0080004164
:10214000010000C0020000C000000240040002C004
:1021500070B50A4B0A4A0B4C0B490C4842264325E2
:10216000C3F8A060C3F88C50536943F40053536123
:10217000A047074BBDE87040184700BF001C004057
:1021800000080040017D00000034004000AD002048
:1021900099200000104B93F8572002F0FE0242F005
:1021A000010283F8572093F83B2002F00F0242F01F
:1021B000300283F83B2093F8562002F0FE0242F0F2
:1021C000010283F8562093F83B2002F0F00242F01F
:1021D000030283F83B2070470080004170B50A4B32
:1021E0000A4A0B4C0B490C4842264325C3F80C61A4
:1021F000C3F88C50136A43F0020313620022A04715
:10220000064BBDE870401847001C00400008004025
:10221000458100000004004318AD00209521000016
:1022200070B51149114C8B69114A124843F400539F
:1022300044258B61C4F8E85092F84D3003F0FE035A
:1022400043F0010382F84D3092F8363003F00F036B
:1022500043F0400382F8363080470749074B024677
:10226000BDE870400648184700080040001C0040C8
:1022700000800041A1AC000000A00141457C0000AD
:1022800068AC002070B51149114CCB69114A124855
:1022900043F020034425CB61C4F8F85092F8CD30C8
:1022A00003F0FE0343F0010382F8CD3092F8B6301C
:1022B00003F00F0343F0400382F8B630804707492C
:1022C000074B0246BDE8704006481847000800402A
:1022D000001C004000800041A1AC0000001400423E
:1022E000457C000024AD002070B51149114CCB692C
:1022F000114A124843F040034425CB61C4F8F8501A
:1023000092F8CF3003F0FE0343F0010382F8CF30A0
:1023100092F8B73003F00F0343F0400382F8B73070
:1023200080470749074B0246BDE8704006481847FA
:1023300000080040001C004000800041A1AC0000EB
:1023400000180042457C000048AC002070B51149DF
:10235000114C8B69114A124843F4006344258B6188
:10236000C4F8E45092F8DE3003F0FE0343F00103BA
:1023700082F8DE3092F8BF3003F0F00343F006033A
:1023800082F8BF3080470749074B0246BDE87040DE
:102390000648184700080040001C0040008000412B
:1023A00085A6000000600141457C000028AC0020AB
:1023B00070B51149114C8B69114A124843F480538E
:1023C00044258B61C4F8E45092F84C3003F0FE03CE
:1023D00043F0010382F84C3092F8363003F0F003FA
:1023E00043F0060382F8363080470749074B024620
:1023F000BDE870400648184700080040001C004037
:102400000080004185A6000000800141457C00005D
:1024100088AC002070B51149114C0B6A114A124862
:1024200043F0100344250B62C4F8185192F8CE30E3
:1024300003F0FE0343F0010382F8CE3092F8B73088
:1024400003F0F00343F0050382F8B73080470749F3
:10245000074B0246BDE87040064818470008004098
:10246000001C00400080004185A6000000100043D1
:10247000457C000044AD002010B4204B2049214C85
:102480004FF080724FF080409A60986299625A6172
:1024900093F8582002F0FB0283F8582093F8582054
:1024A00002F0FE0242F0010283F8582093F83C202B
:1024B00002F0F00242F007024FF0007183F83C2076
:1024C000996098629C62596193F8592002F0FB026E
:1024D00083F8592093F8592002F0FE0242F00102DD
:1024E00083F8592093F83C2002F00F0242F070026A
:1024F00083F83C205DF8044B704700BF008000412A
:10250000000100C0000200C010B5094A094B0A4989
:102510004520C2F8A8001A6942F480621A619A69DB
:1025200042F001029A618847044BBDE81040184709
:10253000001C004000080040B18300007924000026
:1025400070B52F4B2F4C98472F4B3048304A3149AC
:102550004FF40005C3F88450C3F8A800C3F8A820BE
:1025600093F8D7202C4D02F0FB0283F8D72093F884
:10257000D72002F0FE0283F8D7208847274B9847E0
:10258000274B984763692749274A284843F4007333
:1025900063619047264B9847264B9847264B9847B0
:1025A0002648274B984763692649274A43F48043C6
:1025B00042206361C1F8A40090472449244B02469D
:1025C00024489847244B9847244B9847244B9847D6
:1025D000244B9847244B9847244B9847244B9847C3
:1025E0006369244943F48073636148220120A8474A
:1025F0002148224A224B0260BDE87040184700BFC4
:10260000D19000000008004000800041000002401E
:10261000800002C05D1E0000518700000D1F0000F9
:10262000491F0000002400402D770000B0AC0020BE
:102630005520000051210000DD21000010E000E0E5
:10264000BD790000001C00409DAC00000038004037
:10265000597F0000E4AC0020212200008522000008
:10266000E92200004D230000B123000015240000E2
:1026700009250000F8F90100ACAC00200020004062
:1026800065BE00002DE9F047344C354E354B3648D9
:10269000DFF8DC80DFF8DC90344D01274FF4006276
:1026A0005221984721463A4630682770C0473A463B
:1026B00021463068C84723783068277063F07F036D
:1026C0002146022263704FF0030AC0473A46214672
:1026D000306884F800A0C0473A4621463068C847B1
:1026E0002378306884F800A063F03F03214602227B
:1026F0006370C0474A2220215220A8472B22212163
:102700005220A8473A2222215220A8470022232102
:102710005220A847602224215220A847C022252108
:102720005220A847CB2226215220A847B022272199
:102730005220A847092228215220A847B92229213E
:102740005220A8470D222A215220A8472B460C22AE
:102750002B215220BDE8F047184700BFACAD002048
:10276000A4AD0020B57B000064AD0020A1C0000036
:10277000D57B0000057C000038B50C4C0C4B0546A1
:1027800070212068984718B90A490B4B03209847D5
:1027900029460A4B52209847002305461A462068CE
:1027A000074C1946A047284638BD00BFFCAB0020A7
:1027B0002151010014FA0100C943010085BF000046
:1027C000E14C01002DE9F843DFF8D090284B064694
:1027D0007021D9F800009847002844D04FF40062D7
:1027E0005221244C2448254B254D264F98474FF025
:1027F0000108FF2E286884F800802146424621D82F
:10280000B84742462146204B2868984723782868D5
:1028100084F8008023F00103214602226370B84748
:10282000286814496670002502222570B847174CA5
:10283000D9F800002B462A462946A047144B1E8093
:10284000BDE8F883B8474246214628680E4B9847B2
:102850002378286884F8008043EA0803214602228E
:102860006370B847DCE70B490B4B03209847B5E78B
:1028700021510100ACAD002064AD0020B57B00000B
:10288000A4AD0020D57B0000057C0000E14C0100D8
:10289000181C002028FA0100C9430100FCAB0020ED
:1028A000014B1888704700BF181C0020014BB3F97A
:1028B00002007047181C0020F8B5184E184B3068FD
:1028C0007021984720B34FF40062164B1648174FFB
:1028D000174D5221984711215220B8471221044622
:1028E00052202C70B847002328701A4619463068C9
:1028F000104EB0472B78240223449BB218B2B0F597
:10290000005FA4BFA3F5804318B20B4B5880F8BDFD
:102910000A490B4B032098470A48F8BDFCAB00203E
:1029200021510100B57B000064AD002085BF00008F
:10293000ACAD0020E14C0100181C00203CFA010065
:10294000C943010018FCFFFF2DE9F043002583B0C7
:10295000DFF86490154FDFF864802E462C4608E0BF
:102960009D421CD001341D4600268C2B09DD632CB2
:1029700007DCC8471420B847B8F9023013F57A7F4E
:10298000EED100932246334609490A4C0220A04763
:102990004FF4FA703B4603B0BDE8F04318470136E8
:1029A0000E2E04F10104E0DDEBE700BFED3C00007A
:1029B00054FA0100C9430100B9280000181C002086
:1029C00030B5184C184B83B09847B4F9021011F584
:1029D0007A7F19D0B4F904308B4218D0E268A18014
:1029E00001320023E260A3608B290BDC00910F4DC4
:1029F0000F490220A84700230120A360E360A380C1
:102A000003B030BD642AF1DC002003B030BDA36800
:102A1000E268A180013301320E2BA360E260E5DCA5
:102A2000E2E700BF181C0020B9280000C9430100DC
:102A300054FA010070B50F4D0F4B0646532128681C
:102A4000984718B90D490E4B032098470D4B0E4C73
:102A500098473046A0470020A0470020A0470B4BD6
:102A60000B4C984700232868A4461A461946BDE82F
:102A70007040604714AC0020215101009CFA010015
:102A8000C9430100451500006515000055150000FB
:102A9000E14C01002DE9F041164F174B06460D465B
:102AA00038685321984718B91449154B03209847A3
:102AB000144B154C9847C6F3064040F08000A047E1
:102AC000C6F30720A047F0B2A047E8B2A047C5F37D
:102AD0000720A047C5F30740A047280EA0470B4B8F
:102AE0000B4C984700233868A4461A461946BDE89F
:102AF000F041604714AC002021510100ACFA010004
:102B0000C94301004515000065150000551500007A
:102B1000E14C01002DE9F041134E144B05460F46E0
:102B200030685321984718B91149124B0320984730
:102B3000114B124C9847C5F3064040F08000A04767
:102B4000C5F30720A047E8B2A047F8B2A047380A6B
:102B5000A0470B4B0B4C984700233068A4461A46FD
:102B60001946BDE8F041604714AC00202151010036
:102B7000B8FA0100C94301004515000065150000C1
:102B800055150000E14C01002DE9F041124E134BA8
:102B900005460F4630685321984718B91049114B24
:102BA00003209847104B114C9847C5F3064040F05E
:102BB0008000A047C5F30720A047E8B2A0473846E9
:102BC000A0470B4B0B4C984700233068A4461A468D
:102BD0001946BDE8F041604714AC002021510100C6
:102BE000C4FA0100C9430100451500006515000045
:102BF00055150000E14C010070B51A4E1A4B82B019
:102C0000054653213068984718B91849184B0320D6
:102C10009847184B184C9847C5F30540A047C5F393
:102C20000720A047E8B2A04704210DEB0100134B99
:102C3000134C9847134B984700231A46194630689F
:102C4000A0479DF806309DF805109DF804209DF8DA
:102C500007001B0403EB0123134403EB006002B0E5
:102C600070BD00BF14AC002021510100D0FA01005A
:102C7000C943010045150000651500008D150000D1
:102C8000E14C01005515000070B5164E164B82B090
:102C9000054653213068984718B91449144B03204E
:102CA0009847144B144C9847C5F30540A047C5F30B
:102CB0000720A047E8B2A04701A802210F4B104C03
:102CC0009847104B984700231A4619463068A0478A
:102CD0009DF805309DF8040000EB032080B202B09F
:102CE00070BD00BF14AC002021510100DCFA0100CE
:102CF000C943010045150000651500008D15000051
:102D0000E14C01005515000070B5134E134B82B015
:102D1000054653213068984718B91149114B0320D3
:102D20009847114B114C9847C5F30540A047C5F390
:102D30000720A047E8B2A04701A801210C4B0D4C89
:102D400098470D4B9847002330681A461946A0470C
:102D50009DF8040002B070BD14AC002021510100A8
:102D6000E8FA0100C943010045150000651500009F
:102D70008D150000E14C01005515000010B5064C02
:102D8000064B2288014602F54210984723880433F7
:102D9000C3F30B03238010BD281C0020952A0000DC
:102DA000024B03481988034B184700BF281C00201A
:102DB000FC203000152B000030B5154D154B286850
:102DC00083B053219847E8B1134B144C98473020F7
:102DD000A0472020A0470020A04701A80121104BB8
:102DE000104C9847104B9847002328681A461946FC
:102DF000A0479DF80400A0F17C00B0FA80F04009E3
:102E000003B030BD09490A4B03209847DCE700BFF7
:102E100014AC00202151010045150000651500008B
:102E20008D150000E14C010055150000F4FA010079
:102E3000C943010070B5484B484C494D9847442060
:102E4000A0470020A0474FF49670464B984740F2A9
:102E5000E934A84720B9A847013CFBD1204670BD02
:102E60004FF44020404C414EA04741494148B047B3
:102E7000414B4248984740F6FF73984255D0404D29
:102E80004048414C0021A84700214048A8474FF442
:102E900068713F48A04758213E48A04700213E485E
:102EA000A04730213D48A04740F20D213C48A047B3
:102EB00020213C48A04700213B48A04703213B4834
:102EC000A04700213A48A84701213A48A8474FF4B3
:102ED00048713948A0474FF4F0713848A0470021A5
:102EE0003748A84701213748A8474FF400413648E2
:102EF000A0474FF400412348A047FA213348A04798
:102F000000213348A84733494FF44010B0473249B5
:102F10003248B04700213248B04702213148A84723
:102F200005211A48A847012070BD2F48144DA0471D
:102F3000012104462D48A84700211048A847002138
:102F40002B48A84700212B48A84700212748A8471D
:102F500021462548B04793E721150000352A000097
:102F6000B92D000019150000F92B0000952A00006A
:102F7000008793030C203000892C0000F8203000DB
:102F8000892B00009C203000152B000070203000A1
:102F90002C20300030203000382030003C20300021
:102FA00040203000442030004C20300050203000C1
:102FB000642030006C203000342030004820300085
:102FC000682030006020300098203000D020300091
:102FD000D4203000FF00000207000026040030006B
:102FE0000800300054203000629130002020300072
:102FF000FC203000002130002DE9F047174C184E1E
:10300000258881468A4605F542106FF0D1011746A2
:103010009846B04725880435C5F30B0505F54210E1
:1030200049EA0A412580B04725880435C5F30B05D8
:1030300047EA084105F542102580B04723880899E2
:103040000433C3F30B0303F542102380B0472388F6
:103050000433C3F30B032380BDE8F087281C002052
:10306000952A00002DE9F04F81B0474C0A9D074694
:103070002846884691469A46A0471FFA80FBBBF136
:10308000000F02D101B0BDE8F08F4FEA9B04601C35
:1030900004213E4B98470646002C72D0601E80B239
:1030A00006EB80002A46311F937892F803E092F8ED
:1030B00000C01B0443EA0E6392F801E043EA0C03EC
:1030C00043EA0E2341F8043F814202F10402EBD1AE
:1030D000A3001BF0030B13D09B4456F824001FFAE7
:1030E0008BFB4FEA840E0021EA5C01339BB28A40DD
:1030F0005B4540EA020001F10801F5D146F80E00F7
:10310000DFF894B0224DBBF800006FF0F30100F53A
:103110004210A847BBF800300433C3F30B0347EA5F
:10312000084103F54210ABF80030A847BBF8003067
:103130000433C3F30B0303F5421049EA0A41ABF829
:103140000030A847BBF800000430C0F30B00ABF818
:1031500000000027BBB200F5421056F82310A84724
:10316000BBF8000001370430BBB2C0F30B009C4237
:10317000ABF80000EED2074B304601B0BDE8F04F8F
:1031800018472346A5E700BFC19C0100ED8D010053
:10319000952A0000218F0100281C0020F8B5114C51
:1031A000114D238807460E4603F542106FF0C0010B
:1031B000A84723880433C3F30B0303F542103946B1
:1031C0002380A84723880433C3F30B0303F542107D
:1031D00031462380A84723880433C3F30B0323809D
:1031E000F8BD00BF281C0020952A00002DE9F04101
:1031F000164C174D238880460F4603F542106FF09A
:10320000C4011646A84723880433C3F30B0303F510
:10321000421041462380A84723880433C3F30B039D
:1032200003F5421039462380A84723880433C3F3AB
:103230000B0303F5421031462380A847238804334B
:10324000C3F30B032380BDE8F08100BF281C0020DE
:10325000952A00002DE9F047174C184E2588824624
:10326000884605F542106FF0BC011F469146B047F5
:1032700025880435C5F30B0505F542105146258018
:10328000B04725880435C5F30B0548EA094105F523
:1032900042102580B04722880432C2F30B0239461F
:1032A00002F542102280B04723880433C3F30B0396
:1032B0002380BDE8F08700BF281C0020952A00006D
:1032C00038B50B4C0B4D20886FF0B50100F542105E
:1032D000A84723880433C3F30B0303F542100021EE
:1032E0002380A84723880433C3F30B03238038BD0E
:1032F000281C0020952A000070B50C4C0C4D23882A
:1033000006466FF0EA0103F54210A847238804330C
:10331000C3F30B0303F5421031462380A8472388EB
:103320000433C3F30B03238070BD00BF281C0020AF
:10333000952A00002DE9F04FDFF8B8A0214FDFF803
:10334000B88083B003E02048D047834536D01F487B
:10335000D04740F6FF7398428346F4D11C4CDFF807
:103360009C901C4E01E0444509D02046B8473146A8
:103370000546024601A80134C847002DF3D1164B7B
:103380001648174C9847012105461648A0470021CA
:103390000E48A04700210C48A04700211248A04732
:1033A00000211048A04729460C48104B9847FA20A6
:1033B0000F4B98470448D0478345C8D103B0BDE8B8
:1033C000F08F00BF092D0000FC203000F8203000F5
:1033D0000098300008FB0100F92B000062913000DA
:1033E000892B00002020300000213000952A0000A9
:1033F00019150000892C00008098300061970100A9
:1034000010B5024604460549054B03209847054B75
:103410004FF000629A61204610BD00BF40FB0100E2
:10342000C94301000080004170B50546054CC0F35A
:103430000740A047C5F30720A047E8B22346BDE8F0
:1034400070401847DDF500002DE9F8431C4D81461A
:103450008846A84702281FD01A4E1B4C4FF0006721
:103460007761AD20A047194B4846984798F800006F
:10347000A04798F80100A047B7610446A847022872
:1034800016D0002C02DB2046BDE8F8832046104B06
:1034900098472046BDE8F8830E4A0F4B1068532129
:1034A00098470028D8D10D490D4B03209847D3E702
:1034B000084B0C4D186800231A461946A847E0E748
:1034C000515E010000800041DDF50000293400005C
:1034D0000134000014AC00202151010054FB010014
:1034E000C9430100E14C0100F8B5164DA847022878
:1034F00014D0154E154B4FF00067776104209847A4
:10350000B7610446A847022814D0002C01DB2046EE
:10351000F8BD20460E4B98472046F8BD0D4A0E4B8D
:103520001068532198470028E3D10C490C4B032025
:103530009847DEE7074B0B4D186800231A461946DB
:10354000A847E2E7515E010000800041DDF5000080
:103550000134000014AC00202151010068FB01007F
:10356000C9430100E14C01002DE9F04100293BD0A5
:10357000B0F5001F38D21E4E0C460546B047022853
:103580001ED01C4F1C4B4FF00068C7F8148003205E
:1035900098471A4B284698472046194B9847C7F832
:1035A00018800446B047022816D0002C02DB2046C3
:1035B000BDE8F0812046134B98472046BDE8F081D6
:1035C000114A124B1068532198470028D9D110494D
:1035D000104B03209847D4E70B4B0F4D186800237E
:1035E0001A461946A847E0E74FF0FF34DFE700BF6F
:1035F000515E010000800041DDF50000293400002B
:1036000029F600000134000014AC00202151010013
:1036100078FB0100C9430100E14C01002DE9F041B4
:10362000002943D02C4B1446013A9A423ED8B0F5BB
:10363000001F07463AD2DFF8CC800D46C04702286B
:1036400021D0264A264B4FF0006151610320984754
:10365000061E24DB3846234B9847061E29DB224FE3
:103660002846B847013C064605F10105F8D1002877
:1036700024DB1A4B4FF000629A61C047022822D027
:103680003046BDE8F081194A194B1068532198471C
:103690000028D6D11749184B03209847D1E7174B7C
:1036A00098470028D6D03046BDE8F0814FF0FF366D
:1036B000E6E7124B98470028E2D1D0E70F4B984736
:1036C0000028DDD1D5E7094B0D4C186800231A46B8
:1036D0001946A047D4E700BFFEFF1F00008000414D
:1036E000DDF500002934000029F6000014AC0020AC
:1036F0002151010088FB0100C94301000134000091
:10370000E14C0100515E010070B582B00023184CFD
:103710008DF80730A04702281DD0164D164B4FF0EC
:1037200000666E6105209847144B0DF1070098471D
:10373000AE61A047022803D09DF8070002B070BD1B
:103740000F4B104C186800231A461946A0479DF8E5
:10375000070002B070BD0A4A0B4B1068532198470E
:103760000028DAD109490A4B03209847D5E700BF62
:10377000515E010000800041DDF5000029F60000E7
:1037800014AC0020E14C01002151010094FB010028
:10379000C94301002DE9F04100283CD01F4E0446EA
:1037A000B04702281AD01E4F1E4D4FF00068C7F8D0
:1037B0001480AD20A8472078A8476078A847C7F8AC
:1037C00018800546B047022814D0002D1BDB164C8C
:1037D000A047C307FCD42846BDE8F081134A144B28
:1037E0001068532198470028DDD11249124B03205D
:1037F0009847D8E70D4B114C186800231A46194614
:10380000A047002DE3DA28460D4B98470028DED06C
:103810002846BDE8F0814FF0FF35DCE7515E01003E
:1038200000800041DDF500000937000014AC0020E5
:1038300021510100A4FB0100C9430100E14C01003A
:1038400001340000F8B5164DA847022814D0154ED3
:10385000154B4FF00067776150209847B7610446D9
:10386000A847022814D0002C01DB2046F8BD2046D2
:103870000E4B98472046F8BD0D4A0E4B1068532159
:1038800098470028E3D10C490C4B03209847DEE70A
:10389000074B0B4D186800231A461946A847E2E764
:1038A000515E010000800041DDF5000001340000A0
:1038B00014AC002021510100B4FB0100C9430100F8
:1038C000E14C01002DE9F0411A4B1B4D8046984711
:1038D000A847022819D0194E194C4FF0006777619C
:1038E0000120A04708F0BC00A047B7610446A847E4
:1038F000022816D0002C02DB2046BDE8F0812046CD
:10390000104B98472046BDE8F0810F4A0F4B1068D6
:10391000532198470028DED10D490E4B03209847CC
:10392000D9E7094B0C4D186800231A461946A847D9
:10393000E0E700BF45380000515E01000080004113
:10394000DDF500000134000014AC0020215101001D
:10395000C8FB0100C9430100E14C0100F8B500209B
:10396000174B184D9847A847022814D0164E174BEE
:103970004FF00067776106209847B7610446A84773
:10398000022814D0002C01DB2046F8BD2046104B45
:1039900098472046F8BD0F4A0F4B106853219847AF
:1039A0000028E3D10D490E4B03209847DEE7094B71
:1039B0000C4D186800231A461946A847E2E700BFD5
:1039C000C5380000515E010000800041DDF50000B7
:1039D0000134000014AC002021510100D8FB01008B
:1039E000C9430100E14C0100224B98422DE9F04708
:1039F00003D900242046BDE8F0871F4B1F4E0D461B
:103A000004469847B047022819D01D4FDFF894901C
:103A10004FF00068C7F814800220C847194B2046B1
:103A200098472846C847C7F818800446B047022878
:103A300011D0002C17DB144BBDE8F0471847134A90
:103A4000134B1068532198470028DED11149124BBF
:103A500003209847D9E70D4B104D186800231A46EC
:103A60001946A847E5E720460D4B98470028C1D1E5
:103A7000E1E700BFFEFF1F005D390000515E01005D
:103A80000080004129340000E934000014AC00201B
:103A900021510100E8FB0100C9430100E14C010094
:103AA00001340000DDF5000051B3174B70B5541E12
:103AB0009C4222D8B0F5001F1FD20D460446134B7E
:103AC0001646984720462946114B9847022E05F185
:103AD00002040ADDF21E22F0010204320D4E1544EA
:103AE00020460234B047AC42FAD10B4A0B4B4FF0A0
:103AF00000619161BDE8704018474FF0FF3070BD24
:103B00004FF0FF30704700BFFEFF1F005D3900001F
:103B1000493400009537000000800041E93400007E
:103B20002DE9F0410E4D0F4B0F4E104C98474FF0C2
:103B30000067532128680E4B98470E4B7761602031
:103B400098470023B76128680B4D1A461946A847C5
:103B5000A047C307FCD4094BBDE8F041184700BF9C
:103B600014AC00205D3900000080004109370000DE
:103B700021510100DDF50000E14C0100E9340000B5
:103B8000B0F5001F70B530D2204B214E0546984746
:103B9000B04702281DD01F4A1F4B4FF000615161F2
:103BA00020209847041E1ADB1C4B284698470446E1
:103BB000B047022822D0174B4FF00062002C9A61C8
:103BC00016DB174DA847C307FCD4164B9847204671
:103BD00070BD154A154B106853219847DBE7144B0D
:103BE00098470028E0D0204670BD4FF0FF34EEE744
:103BF00020460F4B98470028E9D1E2E70A4B0D4DCC
:103C0000186800231A461946A847D4E75D39000012
:103C1000515E010000800041DDF500002934000004
:103C200009370000E934000014AC002021510100E4
:103C300001340000E14C0100400007EE900ADFED86
:103C40000D6A0D480D4BB8EE677A10B5C6EE877A4F
:103C5000FCEEE77A17EE901A01399847041E01DB53
:103C6000204610BD22460649064B032098472046B1
:103C700010BD00BF001B374B00AD0020797D000058
:103C8000F8FB0100C9430100024A136801331360C5
:103C9000704700BF84AD0020704700BF014B002279
:103CA0001A60704784AD0020014B1868704700BF50
:103CB00084AD002008B502460B46064C0649042098
:103CC000A0474FF0800383F31188BFF36F8FBFF3DA
:103CD0004F8FFEE7C943010034FC0100024A13681C
:103CE00001331360704700BF2C1C002010B5074B38
:103CF00004469847022804D0A0B2054BBDE8104006
:103D000018472046034BBDE810401847515E01009C
:103D1000CD790000495A0100F0B5032283B000219B
:103D20000120854C854DA0472860002800F0AF8019
:103D300000231A461946824EB0472A68814D002357
:103D4000194610461A46B047032200210120A04719
:103D50000246286020B100231A461946B0472A6857
:103D6000794D0023194610461A46B0470322002118
:103D70000120A0470246286020B100231A461946B8
:103D8000B0472A68714F724C00231946104603252C
:103D90001A46B04700238DE8A0004FF400726D4929
:103DA0006D48A0473B68002B7DD06C4E6C496D4838
:103DB00000238DE860004FF40072A0473368002BA9
:103DC00068D0694E69496A4800238DE860004FF465
:103DD000A062A0473368002B6ED0664E66496748E4
:103DE00000238DE860004FF48072A0473368002BF9
:103DF00000F08680624E6349634800238DE86000CE
:103E00004FF48072A0473368002B70D05F4E60493A
:103E1000604800238DE860004FF40072A0473368CB
:103E2000002B5BD05C4E0196042300934FF400728C
:103E300000235A495A48A0473368002B45D0594EB1
:103E400059495A4800238DE860004FF44072A0475A
:103E50003368002B66D0564E5649574800238DE8EC
:103E600060004FF48072A0473368002B51D0534B51
:103E7000534A1A61191D0122524C5348DA601A75CF
:103E8000A0475148514B03B0BDE8F04018470246E7
:103E90002B4E53E74FF0800383F31188BFF36F8FEE
:103EA000BFF34F8FFEE74FF0800383F31188BFF31A
:103EB0006F8FBFF34F8FFEE74FF0800383F31188BE
:103EC000BFF36F8FBFF34F8FFEE74FF0800383F395
:103ED0001188BFF36F8FBFF34F8FFEE74FF0800362
:103EE00083F31188BFF36F8FBFF34F8FFEE74FF05F
:103EF000800383F31188BFF36F8FBFF34F8FFEE70B
:103F00004FF0800383F31188BFF36F8FBFF34F8FA0
:103F1000FEE74FF0800383F31188BFF36F8FBFF389
:103F20004F8FFEE74FF0800383F31188BFF36F8F4D
:103F3000BFF34F8FFEE700BF894C0100FCAB0020B0
:103F4000E14C010014AC002018AC002008AC0020AB
:103F5000C554010088FC0100256800000CAC00205D
:103F60009CFC01004543010000AC0020B4FC0100B2
:103F7000390301001CAC0020C8FC01003DD4000046
:103F800020AC0020D4FC0100298B000024AC0020D0
:103F9000E8FC01008100010004AC0020FCFC0100F1
:103FA0007113000010AC002008FD0100217000001A
:103FB000F8AB00201CFD0100A5CC00002C1C00204B
:103FC000893C0000D17F0000E4AC0020957F000018
:103FD00070B5194D194B1A4E04463D212868984773
:103FE0002178184818220023B047174B142098470F
:103FF00000231A46606019462868144DA847D4ED7E
:10400000017A134B134DFCEEE77AF8EE677A17EE60
:10401000900A98470022104BA84705A3D3E9002334
:104020000E4DA8470E4B9847A06000EE100A70BDD9
:104030000000000000FEAF4018AC0020215101003C
:1040400041750000A8AC002059C10000E14C0100FE
:10405000958301003D8401000000594091860100D4
:104060002D8A0100000000002DE9F0432DED028BA8
:104070003B4F3C4BDFF828813B4D3C4E044683B020
:104080003D21386898472178394818220023C047D5
:10409000384B1420984700231A4619466061386847
:1040A000354FB847D4ED057A9FED347AD4ED016AE7
:1040B00094ED028AE068324F67EE877AB7EE007AB5
:1040C00067EEA66A77EE677AC6EEA78AA8478046AB
:1040D0008946D4ED047AB1EE487AC7EE276A16EE27
:1040E000900AA847274B984702460B464046494648
:1040F000B847B04707EE100AC8EE877A224F17EE8E
:10410000900AA847214B98478046894618EE100A26
:10411000A84742464B46B847B047A8471C4F0EA396
:10412000D3E90023B847B04700EE100AE06984EDF8
:10413000060A8DED010AA8470022164D164BA84726
:10414000164B98479DED010A84F8200003B0BDECA2
:10415000028BBDE8F08300BF66666666661271403A
:1041600018AC002021510100958301002D8A010027
:10417000A8AC002059C10000E14C010000008039CA
:104180003D840100B975010091860100A976010006
:10419000D5800100D98001000000E03FED890100D9
:1041A0004175000070B5134B134D144E04469847EB
:1041B00002280CBF3D2100212868114B9847217827
:1041C000104818220023B0470F4B142098470023B3
:1041D00060601A4628680D4D1946A84794ED017A8B
:1041E000D4ED097A94ED0A0AA7EE270A84ED020AB3
:1041F00070BD00BF515E010018AC00204175000089
:1042000021510100A8AC002059C10000E14C01007F
:1042100070B5364E364B82B004463E213068984722
:1042200000283CD0334B98472178334B7020984777
:10423000002839DB314D324B02209847314B29465B
:1042400003224020984700282F4B3FDB984700234C
:104250001A46194630682D4EB0472A786B789FED84
:104260002C6ADFED2C6A03EB022307EE903AB8EEDE
:10427000E77AFCEEC77A84ED017ACDED017ABDF8DC
:10428000043007EE903AF8EE677AAB78237777EE52
:10429000C67A87EEA60A84ED020A02B070BD1E49F6
:1042A0001E4B03209847BDE7174B98471C4A1368DD
:1042B0000133022B13DC136000233068134C1A46C1
:1042C0001946A0479FED170A02B070BD9847164BDC
:1042D0000A209847124A13680133022BEBDD0020B5
:1042E0006421124B82E803009847E5E7FCAB00200D
:1042F0002151010065450100CDBF0000ACAD00209B
:104300000100002005BF0000A9450100E14C0100AB
:1043100000000047000048442CFD0100C943010093
:10432000441C002000000000ED3C0000DDC0000047
:1043300070B5364C6168002959DD01396160B4F807
:104340009A31B4F89801324D83422CBF00235A1C95
:1043500004EB8303D5F888609E6034BF92B20122DB
:10436000A4F89A2100284BD02A4BDFED2B7A03EBDF
:104370008002B3EC017A934277EE877AF9D107EEA7
:10438000100AB8EE477A0029C7EE876AC4ED676A5B
:10439000C5ED236A30DD01396160B4F83233B4F819
:1043A0003013D5F8B4008B422CBF00235A1C04EB09
:1043B000830334BF92B20122C3F8A001A4F83223D0
:1043C00009B3164BDFED147A03EB8102B3EC017AEB
:1043D0009A4277EE877AF9D107EE101AB8EE477A4B
:1043E000C7EE876AC4EDCD6AC5ED2E6A70BD0C4874
:1043F0000C4B98476168A2E70B480A4B9847CCE7FB
:10440000DFED057ABBE7DFED047AE5E7441C002029
:10441000140000204C1C002000000000E41D0020BF
:104420009400002011420000C00000202DE9F84354
:104430004E4B4F4D4F495048504C514FDFF8A481DF
:1044400041F288166422A3F8C8241E229A5341F22E
:104450008A16A3F8F02F00229A53A3F89A21A3F802
:104460003223A3F8CA24A3F86226A3F8FA27A3F8F4
:104470009229A3F82A2BA3F8C22CA3F85A2EA3F84A
:10448000F22F0A263222A3F89029A3F8282BA3F8AA
:10449000C02CA3F8582EA3F89861A3F83063A3F8B2
:1044A0006066A3F8F867A8473249C4F800013548A8
:1044B000354EA8473946C4F82C013448A847394638
:1044C000C4F8FC003248A8473249C4F828013248F1
:1044D000A847324B324918603248A847324BE06552
:1044E000984732493248A847324BC4F84C019847A4
:1044F00031493248A84707EE900A4FF00009FDEE17
:10450000E77A49462E48C4ED4F7AA8472D4B4FF025
:104510007E51C3F8AC002C48A8474FF07E51C4F838
:1045200030012A48A8474FF07E5120644046A847F2
:104530004946C4F838012648A8474FF07E51A06488
:104540004046A8472349C4F834012348A84742F20B
:10455000341160642148B04740F2FF11C4F84401AF
:104560001F48B0476065BDE8F88300BF441C0020C9
:10457000E9080100000040C13CFD010014000020DA
:10458000CDCC4C3C48FD01009908010050FD0100D4
:1045900058FD01000E4F2F3D60FD010090AD002041
:1045A0000000A04068FD0100D10E01000000A841FC
:1045B00070FD0100710E01000000964578FD0100BC
:1045C00080FD01003C2D002088FD010090FD0100D0
:1045D000A0FD010000004040A8FD0100B0FD010069
:1045E000B8FD010098FD0100184BD3ED5F7AB3EEE2
:1045F000027AF4EEC77AF1EE10FA1BD4B3EE0F7A1A
:10460000F4EEC77AF1EE10FA08D49FED117AF4EEC9
:10461000C77AF1EE10FA0FD50220704793ED6A7A4F
:10462000F1EE047AB4EEE77AF1EE10FA54BF01200D
:1046300000207047002070479FED067AF4EEC77A9D
:10464000F1EE10FA4CBF0320002070471400002048
:1046500000005C420000A042054A08B50121054B5C
:1046600082F8B0109847012808BF82F8B10008BD51
:104670003C2D0020E94500002DE9F0475C4D5D4CE4
:10468000DFF8A4812DED028B95ED238A18EE100A38
:10469000A04755A3D3E9002306460F46C04750B1B3
:1046A000D5ED2E8A18EE900AA0474FA3D3E9002338
:1046B000C04700285AD1504EDFF870814F4D504FFF
:1046C000C6F8B88014204F4AC6F8BC80B2F8CA3485
:1046D000B2F8C814C6F8D0808B422CBF002303F177
:1046E000010E02EB830334BF1FFA8EFE4FF0010E62
:1046F000C3F83883A2F8CAE4002971D0424BDFED39
:10470000437A03EB8102B3EC017A9A4277EE877A1F
:10471000F9D107EE101AB8EE477A3D4BC7EE876A1B
:104720001428C6ED356AC3ED006A17D8152386F83C
:10473000C03016EE900AA0470022364BA847B84773
:10474000C0B2142845D964288ABF642386F8D800EB
:1047500086F8D830BDEC028BBDE8F08764288ABFAC
:10476000642386F8C00086F8C030E2E7D5ED727A9F
:10477000DFF8BCA0214D68EEA77A17EE900AA0479B
:1047800078EE687A804617EE900A8946A0470022A4
:10479000214BD04702460B4640464946A847DFF822
:1047A000948032463B46C0471C4B134E144F9847EB
:1047B000C6F8B8008046A047194B0022A847B84762
:1047C000184BC0B2A3FB0030800800EB8000C0B2E1
:1047D00079E7152386F8D830BDEC028BBDE8F08769
:1047E000DFED0A7A95E700BF9A9999999999B93FAF
:1047F00014000020958301003C2D0020D980010089
:10480000ED890100441C00207C1F002000000000F6
:10481000102100200000E03F000035402D8A0100FB
:1048200000000440CDCCCCCC5D8901009A99A74111
:104830003D84010091860100474BD3ED447A474BFC
:10484000B1EE087AF4EEC77AF1EE10FA2DE9F047EE
:10485000434C27D917EE900A984731A3D3E9002398
:1048600006460F463F4DA0472FA3D3E90023A84794
:104870002FA3D3E900238046894630463946A04716
:1048800032463B46A047384C02460B464046494616
:10489000A047364B9847364BC3F8E800C3F8EC0006
:1048A000BDE8F08717EE900A984723A3D3E90023C9
:1048B00006460F462B4DDFF8B0A0A04720A3D3E952
:1048C0000023A84720A3D3E9002380468946304629
:1048D0003946A04732463B46A04702460B46404673
:1048E0004946D0471AA3D3E900238046894630467B
:1048F0003946A04732463B46A04732463B46A04792
:1049000002460B4640464946A847184B9847184B65
:10491000C3F8E800C3F8EC00BDE8F087AFF300800F
:10492000F2D24D621058D93F5C8FC2F5285C0B4023
:10493000DE718A8EE4F26F3F6666666666660240E6
:104940001904560E2DB2D53F5EBA490C022BDF3F3B
:1049500094F6065F984CA53F140000209583010053
:104960003D840100D9800100D58001002D8A01001D
:104970003C2D0020000000002DE9F0472DED028BBA
:104980003B4C3C4F3C4B3D4EDFF810A13C4D82B0C0
:1049900098473C4B9847D4ED3B7A97ED238A38EE05
:1049A000678A17EE900A84ED408AB0472AA3D3E9BC
:1049B000002380468946D04742464B46D047CDE942
:1049C0000001D7F81001B04702460B46DDE90001AF
:1049D000A84723A3D3E90023CDE900014046494677
:1049E000D04702460B46DDE90001A847DFF8B0805A
:1049F0001DA3D3E90023C047234B9847234BD7ED92
:104A0000397A93ED007A224B28EE077AF1EE486A64
:104A1000E6EE877A06EE100A93ED007A76EE277AB4
:104A2000B6EE006A67EE867A28EE078AC4ED467A0B
:104A3000E6EE887A17EE900AC4ED277AB047002296
:104A4000144BA847144B984784F8A40002B0BDEC5F
:104A5000028BBDE8F08700BF5DA79196CADB613F7E
:104A6000BDE3141DC9E5AF3F984C158C4AEAB43F2D
:104A70003C2D0020140000207946000095830100A1
:104A8000D9800100394800002D8A01008CAD00203A
:104A900088AD00200000E03FED8901003D84010069
:104AA000D580010010B50A4B017870209847002886
:104AB0000CDB0A20074B98474020074B4FF48051EE
:104AC00098470220054BBDE81040184710BD00BFB5
:104AD000CDBF00000100002035C00000ED3C00000B
:104AE00070B5084C084E4FF48065C4F89850A0206B
:104AF000C4F89450B047C4F898503346C820BDE875
:104B00007040184700800041ED3C000070B5074D33
:104B1000074B084C984705F18000A04705F1AC0011
:104B2000A0470A20044BBDE870401847140000203D
:104B3000E14A0000A54A0000ED3C000070B5144CAD
:104B4000144AD4F82C31144D0833C4F82C31904752
:104B500012490420A847D4F830312BB11049042061
:104B6000A8470023C4F830310E4B98470E4B9847A6
:104B70000E4B98470E4B98470A200E4B98470E4B0A
:104B800098472B460D490420BDE87040184700BFE8
:104B90003C2D0020F9C00000C9430100C0FD010008
:104BA000E8FD010069570100DDC00000D5BE00002E
:104BB0000D4B000001000020A558010008FE010077
:104BC000034A044B01460448C2F8FC10184700BFD2
:104BD00014000020D506010050FD0100034A044BDB
:104BE00001460448C2F82811184700BF14000020ED
:104BF000D506010058FD0100034A044B0146044854
:104C0000C2F80011184700BF14000020D5060100AB
:104C100028FE0100034A044B01460448C2F82C1147
:104C2000184700BF14000020D506010048FD010010
:104C3000014BD3F8FC00704714000020014BD3F85F
:104C40002801704714000020014BD3F80001704781
:104C500014000020014BD3F82C01704714000020F1
:104C600010B582B002AC002124F8020D094B0A48AD
:104C700098472246012300210748084CA0471D30D1
:104C800001D002B010BD0649064B0320984702B080
:104C900010BD00BF09790000D0AC00203D790000B4
:104CA00030FE0100C94301000F4A104B70B5C2F835
:104CB000340198470E4D0F4B0F4C0022A84700229D
:104CC0000E4D0F4BA8470F4B984785B228460E4B09
:104CD00098472A4620460D4B4FF4FA7198472046D4
:104CE0000B4BBDE8704018473C2D00209583010018
:104CF000918601000000594088AC00203D840100ED
:104D000000407F40ED890100614C0000CD7C000037
:104D10008D7C0000014BD3F8340170473C2D0020FE
:104D20002DE9F04F8BB088467A4B0991054608462D
:104D30009847DFF82092DFF820A2774F774E784C23
:104D40004046C84702460B4602207649CDE9062375
:104D5000D04740F2DC50B84773490220D04706F1F3
:104D6000AC084FF0320B6368002B40F3C980013B65
:104D70006360B4F83233B4F83013D6F8B4008B4221
:104D80002CBF00235A1C04EB830334BF92B20122D0
:104D9000C3F8A001A4F83223002900F0B880634BC7
:104DA000DFED637A03EB8102B3EC017A9A4277EE8E
:104DB000877AF9D107EE101AB8EE477ABBF1010BEA
:104DC000C7EE876AC4EDCD6ACDD15A496961002228
:104DD000AA615949DFF884810220D0476368002B1B
:104DE00040F38A80013B6360B4F83233B4F8301387
:104DF000D6F8B4008B422CBF00235A1C04EB83036B
:104E000034BF92B20122C3F8A001A4F832230029D2
:104E10007AD0464BDFED467A03EB8102B3EC017AA0
:104E2000934277EE877AF9D107EE101AB8EE477AF7
:104E300095ED056AC7EE876A88FB0B234FEAEB7294
:104E4000C2EBA30303EB8303D5ED067AC4EDCD6A71
:104E5000B4EEE66AF1EE10FAF4EEE67AC8BFC5EDFC
:104E6000056AF1EE10FA48BFC5ED066ABBEB430FC9
:104E70002FD00BF1010B0A20B847BBF1320FADD197
:104E80002D490220D047D4F83433DDED097A2B6167
:104E90002A4BC5ED137AD3F8BC002C88C8472246AC
:104EA000CDE9000126490220D0472869C8470646B7
:104EB000A8690F46C847CDE902016869C84732466C
:104EC000CDE900013B461F490220D0470BB0BDE8A9
:104ED000F08F1A4BD3F8BC00C847CDE9040128690C
:104EE000C8479DED067BCDE902018DED007B5A465A
:104EF00015490220D047BCE71448154B984773E783
:104F00004046134B984734E7DFED097A8CE7DFED35
:104F1000087A4FE7A94C0000ED3C00001400002087
:104F2000441C002058FE010074FE0100E41D002016
:104F3000000000000000C84284FE01003C2D00205B
:104F4000C4FE0100E8FE0100A0FE0100C000002038
:104F50001142000095830100C9430100676666663F
:104F60002DE9F04F2DED028B8BB0B1F5004F09917B
:104F7000064600F2758140F2FF10884228BF0846BD
:104F8000B84AB94BA2F838019847099AB749B84BC3
:104F9000DFF81C93B74CDFF81CA30220984740F2BF
:104FA000DC50B54B9847B549B14B0220984709F101
:104FB000D80B04F5CD6864255846D047B4F862365E
:104FC000B4F86016AE4FD9F8DC008B422CBF00233A
:104FD0005A1C07EB830334BF92B201221860A4F875
:104FE0006226002900F03981DFEDA67A3B4607EB07
:104FF0008102B3EC017A934277EE877AF9D107EE1A
:10500000101AB8EE477A9E4B9F48C7EE876AC3EDE9
:10501000656AD047B4F8FA37B4F8F817D9F8080138
:105020008B422CBF00235A1C08EB830334BF92B27F
:1050300001221860A4F8FA27002900F00B81934B95
:10504000DFED907A08EB8102B3EC017A9A4277EEB9
:10505000877AF9D107EE101AB8EE477A013DC7EE0C
:10506000876AC8ED656AA7D10023894A73623363F2
:105070003262F26287497E4BDFF83CB202209847E9
:1050800085487F4FD047B4F86236B4F86016D9F837
:10509000DC008B422CBF00235A1C07EB830334BF78
:1050A00092B201221860A4F86226002900F0CF8095
:1050B000DFED747A3B4607EB8102B3EC017A9A424A
:1050C00077EE877AF9D107EE101AB8EE477A6C4B73
:1050D0006D48C7EE876AC3ED656AD047B4F8FA3702
:1050E000B4F8F817D9ED426A8B4235BF5A1C002339
:1050F00092B2012208EB8303C3ED006AA4F8FA27F9
:10510000002900F0A180614BDFED5E7A08EB81029F
:10511000B3EC017A9A4277EE877AF9D107EE101A4A
:10512000B8EE477A99ED378A96ED086A5B4BC7EE81
:10513000878A83FB0523EA17C2EBA30303EB8303F0
:10514000D6ED097AC8ED658AB4EEC68AF1EE10FA9A
:10515000B4EEE78AD6ED0B7A48BF86ED088AF1EE09
:1051600010FAF4EEE76AD6ED0C7AC8BF86ED098A2C
:10517000F1EE10FAF4EEE76A48BFC6ED0B6AF1EE05
:1051800010FAC8BFC6ED0C6AB5EB430F40D001352D
:105190000A20394B9847642D7FF472AF3D49344B58
:1051A00002209847364B3E49D3F89421D8F89431E1
:1051B000F261099A3280B36202202D4B9847F06960
:1051C000D8470446706A0D46D847CDE90201306AD7
:1051D000D84722462B46CDE90001254C3149022013
:1051E000A047B06AD8470446306B0D46D847CDE992
:1051F0000201F06AD8472246CDE900012B462A4930
:105200001B4C0220A0470BB0BDEC028BBDE8F08F19
:1052100016EE900AD847CDE9060118EE100AD847D5
:10522000CDE9040118EE900AD847CDE90201144BEC
:105230000F4FD3F89401D847099BCDE900012A46C6
:105240001A490220B847A2E7DFED0E7A66E7DFEDE4
:105250000D7A38E7DFED0B7AFCE6DFED0A7ACEE671
:1052600000208DE63C2D0020C527000010FF010026
:10527000C9430100441C0020ED3C000074FE010005
:10528000142100200000000018010020AC220020A2
:105290000060EA4628FF0100EC00002067666666B1
:1052A00080FF010094FF0100BCFF010054FF0100DA
:1052B00014000020A54100009583010070B504464C
:1052C00092B0006C174D2688A847CDE91001606C9C
:1052D000A847CDE90E01A06CA847CDE90C01A06B51
:1052E000A847CDE90A01606BA847CDE90801A06A8B
:1052F000A847CDE90601E069A847CDE90401206986
:10530000A847CDE902016068A8473246CDE900010F
:10531000054B064902209847054B052012B0BDE811
:105320007040184795830100C9430100E4FF010064
:10533000ED3C000070B5044686B0C06C0B4D26886D
:10534000A847CDE90401A06AA847CDE90201E069B8
:10535000A8473246CDE90001054B0649022098478F
:10536000054B052006B0BDE8704018479583010045
:10537000C943010028000200ED3C000000000000CD
:105380002DE9F04F2DED028B59495A4B5A4E5B4C8B
:1053900083B0022098475A49564B022098475949F2
:1053A000544B022098475849524B02209847C82333
:1053B0001846564AA6F8383190474FF4FA50544BE5
:1053C0009847544B54490022A3F8CA2406F59E700E
:1053D000524B9847D6F84CB106F59E7A472507EE12
:1053E000905AF8EEE77A4D4B4D4F17EE901A504613
:1053F0009847D6F84C01A047804658468946A047B2
:1054000039A3D3E90023B847464F02460B4640462E
:105410004946B847002851D101355A2DDFD13F4BBD
:105420003D49414898474623D6F84CA101934FF097
:105430004B0B019D02E001355D453ADC07EE905AC9
:10544000B8EEE78A354B3848354F18EE101A9847B2
:10545000D6F84C01A047804650468946A04722A373
:10546000D3E90023B8472F4F02460B464046494632
:10547000B8470028DFD000202C4B01959847019AAF
:105480002B491C4B02209847DFED2A7A2A4A2B48E9
:105490002B4B28EE278ABDEEC88AF8EEC87A82ED3B
:1054A0004F8A17EE901A03B0BDEC028BBDE8F04FA7
:1054B0001847DDED017AB8EEE78AE0E7AA1E174645
:1054C00000201A4B0192984707EE907AB8EEE78ACF
:1054D00005F1030B18EE101A1348104B9847BB4503
:1054E000D6F84CA1A5DACAE79A9999999999C93F32
:1054F00044000200C94301003C2D002095830100B7
:105500007C000200B0000200D8000200C5270000A5
:10551000ED3C0000441C002000008C42214D0000A6
:10552000D98001005D890100782E0020A94C00007F
:10553000F00002000000C8421400002078FD0100C5
:10554000D50601002DE9F0410D4DD5F830412CB1C3
:105550000C490D4B0320BDE8F041184720460B4B8A
:10556000A5F838410A4F98470A4B01261868C5F834
:10557000306123463146BC460322BDE8F041604716
:105580003C2D002010010200C9430100C527000086
:10559000BD61010010AC0020014BD3F83001704711
:1055A0003C2D002010B53C4C94F86C3103B910BD73
:1055B0003A4B9847B0F57A7F3EDB94ED237AFAEECA
:1055C000047AB4EEE77AF1EE10FA35D4344B93ED69
:1055D0003A7AB4EEE77AF1EE10FA2DD4D4ED537A9C
:1055E000D4ED736A93ED2F7A37EEA66AB4EEC67ADD
:1055F000F1EE10FA25DDD4ED747AD4ED756A9FEDE5
:10560000296A77EEE67AF4EEC67AF1EE10FA3AD429
:10561000BDEEE76AC4ED747AF8EEC66A77EE666AA4
:1056200084ED547AC4ED556A84ED596A17EE900AF8
:105630001D4BBDE81040184700201B4BBDE8104033
:10564000184777EEE67AB4EEE77AF1EE10FAD4ED89
:10565000747A13D5D4ED756A9FED146A77EEA67A45
:10566000F4EEC67AF1EE10FAD2DDF0EE466AF0EE14
:10567000467A84ED746A9FED0E6ACFE7BDEEE76A65
:10568000F8EEC66ACAE7F0EE466A84ED746AF0EE98
:10569000467A9FED086AC1E714000020AD2800009B
:1056A0003C2D002000000000A94C00000000C84272
:1056B00064000000000000002DE9F84FDFF858B149
:1056C000DFF858A14C4C4D4E0546DBF88C00D04716
:1056D0003DA3D3E90023A04702460B463CA1D1E9F4
:1056E0000001B047464B984707EE900AF5EEC07AA6
:1056F000F1EE10FA62D4D047424B434F98478046B0
:10570000DBF88C008946D047002282468B463F4B0F
:1057100040464946B04730A3D3E90023A04730A311
:10572000D3E900238046894650465946A047524651
:105730005B46A04702460B4640464946B8472AA367
:10574000D3E900238046894650465946A047024681
:105750000B4640464946B84725A3D3E90023B04746
:10576000274B9847D5ED077AB2EE047A77EE877A21
:1057700007EE100AB4EEE77AF1EE10FA10DC244BD3
:10578000D3F89021D3F88C319A423ABFEA6A6B6B16
:10579000204AAA6128BF40F2FF136B61BDE8F88F71
:1057A0001B4AE86AD2F89031696BA86103F59C53F3
:1057B0000833C2F88C316961BDE8F88F0020002100
:1057C0009AE700BFAFF30080000000000044E6400D
:1057D00000000000A42E1F414C67319DC574A6BF78
:1057E0005DA79196CADB613FBDE3141DC9E5AF3FDC
:1057F000984C158C4AEAB43F3D840100D5800100E5
:105800002D8A0100A1770100D98001000048834062
:105810003C2D00200080FF431400002095830100F0
:1058200070B5154CD4ED277ABFEE007AF4EEC77A46
:10583000F1EE10FA03D4114D95F87C3003B970BD28
:105840000F4B17EE901A05F140009847B5F87430E9
:10585000B3F5004F0AD9002318460A4AA4F8383194
:1058600090470948094BBDE87040184740F2FF12C5
:10587000934228BF1346EFE73C2D00201400002080
:105880007D730100C527000054000020B9560000B8
:1058900070B50F4C94F8B1306BB9D4F898010D4B3A
:1058A00098470D4A0D490E4BA2FB000292090320B6
:1058B000BDE8704018470B4B0B4E18680125294670
:1058C00084F89451B44600230322BDE87040604739
:1058D0003C2D0020B5660100D34D6210440102004A
:1058E000C943010010AC0020BD6101002DE9F04F5B
:1058F0002DED028B044683B05249DFF890B10220AF
:10590000D84700235049514AA1F8383118469047EA
:105910003CB14F4C4F4D01E01420A847A047002850
:10592000FAD04D4B4D4D4E4E9FED4E8A98474E4905
:1059300002460220D84705F1D80764243846B0470C
:10594000B8EE488AD5ED377A38EE278A013CBCEEAE
:10595000C88AF3D118EE102A444B454FD5F8000100
:10596000DFF82C81DFF82CA1A3FB02235B0907EEF3
:10597000903AF8EEE77A08EE104AC5ED3B7AB84760
:1059800002460B4602203B49D84795ED3B7AD5EDC0
:105990003F7A394867EEC77A642417EE901AC5ED4E
:1059A000407AC047D5F80001B84702460B460220AE
:1059B0003249D8475046B047B8EE488AD5ED427ACA
:1059C00038EE278A013CBCEEC88AF3D118EE102AC3
:1059D000264BD5F82C01A3FB02235B0907EE903A76
:1059E000F8EEE77AC5ED467AB84702460B46022044
:1059F0002349D84795ED467AD5ED4A7A214867EE96
:105A0000C77A17EE901AC5ED4B7AC047D5F82C012E
:105A1000B84702460B4602201849D847D5F8EC0093
:105A2000B8478046D5F818018946B8474246CDE9BF
:105A300000014B4614490220D84703B0BDEC028B4D
:105A4000BDE8F08F380302003C2D0020C527000080
:105A5000C1290000ED3C0000AD280000140000202A
:105A6000A541000000000000600302001F85EB510B
:105A7000958301007C03020028FE0100A0030200C0
:105A8000C003020048FD0100E4030200C943010015
:105A9000D5060100180100202DE9F04FA949AA4DB3
:105AA000AA4EDFF80883AA4FA3B00220A847A9494D
:105AB0000220A847A8490220A847A84B01209847E0
:105AC000C824A7490220A8472046A6F83841C04765
:105AD0004FF4FA50A34B9847A34B2146002206F5FA
