:1000000008B30120D1250000CD250000CD2500003A
:10001000CD250000CD250000CD250000000000000A
:10002000000000000000000000000000916A0100D4
:10003000CD25000000000000216B0100856B010050
:10004000CD250000CD250000CD250000CD250000E8
:10005000CD250000CD250000CD250000CD250000D8
:10006000CD250000CD250000CD25000021A50000F4
:10007000CD250000CD250000CD250000CD250000B8
:10008000CD250000EDA10000F5A10000CD25000068
:10009000CD250000CD250000CD250000CD25000098
:1000A000CD250000CD250000CD250000CD25000088
:1000B000CD250000CD250000CD250000CD25000078
:1000C000CD250000CD250000CD250000CD25000068
:1000D000CD250000CD250000CD250000CD25000058
:1000E000CD250000CD25000000000000000000002C
:1000F00000000000E5A30000CD250000CD25000094
:10010000CD250000CD250000CD250000CD25000027
:10011000CD250000CD250000CD250000CD25000017
:10012000CD250000CD250000CD250000CD25000007
:10013000CD250000CD250000CD250000CD250000F7
:10014000CD250000CD250000CD250000CD250000E7
:10015000CD250000CD2500000000000000000000BB
:10016000000000000000000000000000000000008F
:10017000000000000000000000000000000000007F
:1001800021CC000029CC000031CC000039CC00008B
:100190000000000069B40000CD250000CD2500005E
:1001A000CD250000CD250000CD250000CD25000087
:1001B00079B40000CD250000CD250000CD2500003C
:1001C000CD250000CD250000CD250000CD25000067
:1001D000CD250000CD250000CD250000CD25000057
:1001E00089B40000CD250000CD250000C5BA00006F
:1001F000CD250000E1BA0000CD250000F1BA0000D5
:1002000001BB00000000000000000000CD25000040
:10021000CD250000CD250000CD250000CD25000016
:10022000CD250000CD250000CD250000CD25000006
:10023000CD250000CD250000CD250000CD250000F6
:10024000CD250000CD250000CD250000CD250000E6
:10025000CD250000CD250000CD250000CD250000D6
:100260000000000010B5054C237833B9044B13B1DE
:100270000448AFF300800123237010BD500F00200D
:1002800000000000108802000C4B43B10C480D49DF
:1002900010B5AFF300800C48036823B910BD0A48BD
:1002A000036833B97047094B002BF7D0BDE8104005
:1002B0001847064B002BF5D0184700BF0000000080
:1002C00010880200540F0020108802000000000077
:1002D00010B5194C236813B1636801336360A368D8
:1002E000227B0133A36052B1236901332361237D53
:1002F0004BB1A3690133A361237F43B910BD237DB3
:100300002261002BF5D1A361237F002BF6D00B4B8C
:100310009847236A0A4AC01A9042EFDD636A032BAA
:10032000ECD8084901334FF0004000226362C1F865
:100330009400227710BD00BF6C0F0020CD7C01001F
:10034000C0D4010000800041204B1B7843B1204BFA
:1003500093F8310093F82B30400200EBC300704754
:100360001B49F0B591F8292091F8286091F82A30BE
:1003700091F82B5091F82C4091F82D0091F82EE037
:1003800091F82F7002EB460202EB830303EBC503E7
:1003900003EB041303EB401303EB8E1391F83000CF
:1003A00091F8316091F8325091F8334091F834204F
:1003B00003EBC71303EB002000EB462000EB852086
:1003C00000EBC42000EB0230F0BD00BF10000020A5
:1003D0006C0F002008B5044B9847A0F114030B2BB9
:1003E00028BF002008BD00BF6D2501002DE9F04F9A
:1003F0002DED028B784B794C794D87B09847794B2E
:1004000008EE100A9847784B0646984794F829A0BA
:10041000074618EE100ABAF1000F3BD1A8478046F4
:1004200030468946DFF8FCB1A84700224FF08043F0
:10043000D847DFF8F4B102460B4640464946D84754
:10044000002840F0AA8094F828A0BAF1000F50D1FB
:1004500018EE100AA847804630468946A847634DE3
:1004600000224FF08043A847614D02460B464046AC
:100470004946A847002840F0A980F3EE047AB4EE7C
:10048000E78AF1EE10FA00F3928007B0BDEC028B20
:10049000BDE8F08FA847804630468946DFF884A142
:1004A000A8470022534BD047DFF844A102460B4631
:1004B00040464946D0470028C5D000224E4B84F81C
:1004C00029209847142802D04C4B984708B900239C
:1004D000A360A26B4A49531E042B88BF0522494BD7
:1004E00088BFA2630220984794F828A0BAF1000FB1
:1004F000AED094F83C30002BC7D018EE100AA847B5
:10050000804630468946A847384E3A4B00228246FC
:100510008B46B0473C4E02460B4640464946B047E4
:100520000028B2D0F3EE057AB4EEE78AF1EE10FAC5
:10053000ABD5364EB04707EE907A07EE100A77EE4D
:10054000C77A9FED337AF0EEE77AF4EEC77AF1EEF0
:1005500010FA9ADB0023284A84F8283084F83C30CB
:100560009047172802D0254B984708B90023A3606D
:10057000A36B013B022B84BF0323A363B047A36B90
:100580000493A8471F4CCDE90201CDE900AB4246D8
:100590004B4620490220A04777E701221E49194B0C
:1005A000C4F804A0032084F8292098474BE71B498E
:1005B000144A60600123032084F8283084F83C301A
:1005C00007B0BDEC028BBDE8F04F10470123144982
:1005D0000C4AC4F804A0EEE7917E00006C0F0020E6
:1005E0001DAD0100317E00005D7A000061AA0100AE
:1005F000E5B201000000F83F6D250100490300004D
:10060000DC190200D1430100BDB20100697A00008B
:100610009A99993E581A0200C01902002C1A020039
:10062000101A02005DAA0100A9B20100000000003A
:100630002DE9F04F2DED048BA94BAA4C85B09847BE
:10064000A94B08EE100A9847A84B08EE900A984765
:1006500007EE900A94F82C3037EEC88A88EE279A75
:100660005BB9A34B1B78002B55D0002384F82C30AA
:1006700005B0BDEC048BBDE8F08F9D4D2B78002BB1
:10068000F3D194F85120002A55D0D4ED117AF4EE2C
:10069000E78AF1EE10FA4EDBA66B84F85030721E3A
:1006A000012A84BF0226A66384F8513084F82C30D6
:1006B00018EE900A8F4B984700960B4602468E4ED6
:1006C0008E490320B04794F8613003B3D4ED127A19
:1006D000B4EEE79AF1EE10FA19DBA66B721E012A4E
:1006E0004FF0000388BF022684F8603084F8613040
:1006F00084F82C3088BFA6637E4B19EE100A984709
:10070000009602460B467C4E7D490320B0472B786D
:10071000002BAAD1ACE7B0EE007AF4EEC77AF1EE86
:1007200010FA14DCC4ED118A84ED129A05B0BDEC08
:10073000048BBDE8F08F94F86130002B98D0D4ED95
:10074000127AB4EEE79AF1EE10FAE0DBC5E7DFF8D3
:10075000D081C0476B4B08EE100A984707EE900A0D
:10076000694B38EE678A9847B4F93E30B0EEC88AD4
:1007700005B2A3B15A1B052A11DCEB1A0A2B0FDDB7
:1007800094F84030002B00F04281012200232273B4
:1007900084F84020E3872361D4F8449016E0E5878D
:1007A00023690A2B10D994F840306BB1B4F93E207C
:1007B000AB1A0A2B40F33181002020612B465349AC
:1007C0004D4E0220B047E587D4F84490494DDFF8FC
:1007D00054A118EE900AA847064648460F46DFF88F
:1007E0004891A8473AA3D3E90023C84702460B46DD
:1007F00030463946D047002800F0FA8018EE100A3B
:10080000C4ED118A84ED129AA847DFF8209132A333
:10081000D3E90023C847002840F0F68094F8403020
:10082000002B7FF425AF606CDFF804B1DFF8FC80AB
:10083000A8470022364BCDE90201D8470B460246B5
:1008400039463046C04794F85030002800F0A58063
:10085000002B00F0F380F1EE047AF4EEE78A9FEDCE
:100860002D8ADFED2D7AD4ED128A94F86030F1EE06
:1008700010FAD8BFB0EE678A78EEC87AB4EEE79A7D
:10088000F1EE10FA56D5002B00F0238194F8503089
:100890004BB194F85130002B00F0FD8094F860309B
:1008A000002B3FF4E5AE94F86130002B00F0E380BC
:1008B00094F85130002B3FF4DBAE0F4B1749032067
:1008C0009847012384F82C30D2E600BFAFF30080B4
:1008D0009A9999999999B93FEC51B81E85EBB13F16
:1008E000697A00006C0F00209D7900005D7A00009D
:1008F000100000201DAD0100D1430100B81D020011
:10090000041E0200917E00005D320000E41A020025
:100910000000F03F9A99193FCDCC4C3E481D020093
:10092000317E0000E5B2010061AA0100A9B2010018
:100930005DAA010063B319EE100AA847804618EEBD
:10094000900A8946A84791A3D3E90023D8470246D5
:100950000B4640464946D047002897D0804B9847E1
:10096000E36E02461BB1C31AB3F5FA6F0BD3E2660E
:10097000A06CA8474246CDE900014B46DFF8F48160
:1009800078490420C047002384F8603084F861303F
:1009900094F85030002B81D07BE7002B3FF45BAF05
:1009A0000022714BDDE90201D84702460B46304672
:1009B0003946D04700283FF44EAF694B9847E36D66
:1009C00002461BB1C31AB3F57A7F0BD3E265606CA4
:1009D000DFF8A081A8473246CDE900013B466349D4
:1009E0000420C047002384F8503084F8513032E7A7
:1009F000C047D4ED137A07EE100AB4EE677AF1EE31
:100A000010FA7FF4FBAE09E7C047E06406E72A4628
:100A10005749584B02209847B7E62B465649554D43
:100A20000220A847002318EE909AC4ED118A84EDA5
:100A3000129A237384F840302361C7E60122DFF85D
:100A4000208184F8513084F85020C04700F59C5034
:100A500008306065C047A36D23B1C31AB3F57A7F30
:100A6000FFF4F9AEA06532463B464449DFF8048105
:100A70000420C047EFE63A4EB047636E984250D824
:100A800094F85130002B3FF4F3AD94F86030002B14
:100A90003FF4EEAD11E7DFF8C880C047636D9842C0
:100AA0007FF6FCAEC047236F02461BB1C31AB3F5F5
:100AB0007A7F0AD32267606CA8473246CDE90001ED
:100AC0003B462C4E2E490320B047012384F8513079
:100AD000E4E60122DFF8888084F8613084F8602041
:100AE000C04700F59C5008306066C047A36E0246C0
:100AF00023B1C31AB3F5FA6FFFF44AAFA26618EE3A
:100B0000100AA847804619EE100A8946A8474246AF
:100B1000CDE900014B46DFF85C801A490420C0474C
:100B200036E7B047636F02461BB1C31AB3F57A7F4D
:100B30000FD3626719EE100AA8470646A06C0F464D
:100B4000A8473246CDE900013B460A4D0E49032035
:100B5000A847012384F8613092E700BFAFF300801B
:100B6000CD7C0100601C02000000E03FB81B0200C9
:100B7000B81A0200D1430100341B0200781B0200A6
:100B8000B81C0200081C0200F81C02009A999999EE
:100B90009999A93F70B5444B444D2DED028B984770
:100BA00008EE100AA847C0B9414C94F82E30002B2B
:100BB0003DD0DFED407AB4EEE78AF1EE10FA5CDC6E
:100BC00094F8323093B9DFED3C7AB4EEE78AF1EE77
:100BD00010FA43DCBDEC028B70BDBDEC028B344BD4
:100BE000002283F8322083F82E2070BDDFED337AA7
:100BF000B4EEE78AF1EE10FAECD50022304B84F81F
:100C0000322098471C2802D02E4B984708B9002361
:100C1000A360A26B2C49BDEC028B531E032B84BF37
:100C20000422A263294B0220BDE870401847244BE0
:100C300098471228C4D0DFED267AB4EEE78AF1EEA9
:100C400010FABDD5A8470028BAD101226060214919
:100C50001E4B84F82E2003209847B1E7A8470028B0
:100C6000B8D1BDEC028B0122606084F832201A49B1
:100C7000164B0320BDE870401847114B84F82E0036
:100C800098471B2802D00F4B984708B90023A36050
:100C9000A26B1249531E032B88BF04220B4B88BF43
:100CA000A263022098478BE7B19B0000599800008F
:100CB0006C0F002000000E4200002C4200002A426F
:100CC0006D25010049030000E01E0200D143010030
:100CD00000000C426C1E0200C01E02008C1E0200AE
:100CE00070B5444B444D2DED028B984708EE100A29
:100CF000A847C0B9414C94F83330002B3DD0DFED0C
:100D0000407AB4EEE78AF1EE10FA5CDC94F8343005
:100D100093B9DFED3C7AB4EEE78AF1EE10FA43DCEA
:100D2000BDEC028B70BDBDEC028B344B002283F80E
:100D3000342083F8332070BDDFED337AB4EEE78AD8
:100D4000F1EE10FAECD50022304B84F834209847AD
:100D5000202802D02E4B984708B90023A360A26B2D
:100D60002C49BDEC028B531E032B84BF0422A263CB
:100D7000294B0220BDE870401847244B98471228A1
:100D8000C4D0DFED267AB4EEE78AF1EE10FABDD5D5
:100D9000A8470028BAD10122606021491E4B84F87F
:100DA000332003209847B1E7A8470028B8D1BDEC0D
:100DB000028B0122606084F834201A49164B03200C
:100DC000BDE870401847114B84F8330098471F283E
:100DD00002D00F4B984708B90023A360A26B1249B9
:100DE000531E032B88BF04220B4B88BFA263022033
:100DF00098478BE7759B0000B99800006C0F0020A6
:100E000000000E420000A4420000A3426D25010034
:100E100049030000A01F0200D143010000000C4262
:100E2000141F0200781F02003C1F020070B5304BF7
:100E3000304C2DED028B984794F82F3005467BB34C
:100E400050B92D4B984707EE900ABBEE048AF4EE9A
:100E5000C87AF1EE10FA3CDC284DA84711281CD8BE
:100E6000002384F82F30A8471D2802D0244B984730
:100E700008B90023A360A26B2249BDEC028B531E6C
:100E8000032B84BF0422A2631F4B0320BDE87040E4
:100E900018474DB3012384F87830BDEC028B70BD48
:100EA000164EB0471128F8D9B0471228F1D0002DBE
:100EB000F3D094F87830002BEFD1BDEC028B0125F4
:100EC000636084F82F5011490F4A0320BDE8704039
:100ED00010470F4B984707EE900AF4EEC87AF1EEF0
:100EE00010FAB9DD054DBBE784F87850D5E700BFAF
:100EF000599800006C0F0020B19B00006D25010087
:100F00004903000004200200D1430100DC1F02005D
:100F1000757A000038B50E4C94F8793073B90D4BE2
:100F20001B7803B138BD0C4DA8471328FAD9A84740
:100F30001E289CBF012384F87930F3E7074A4FF05D
:100F400000410023C2F8941084F8793038BD00BF06
:100F50006C0F0020100000206D2501000080004172
:100F600010B5064C207710B1054B98472062054B11
:100F70004FF00042C3F8942010BD00BF6C0F00205A
:100F8000CD7C010000800041014B187F704700BFFD
:100F90006C0F002000000000F0B5514C514B83B0A5
:100FA000984794F83150002D29D04F4B4F4D98471A
:100FB00047A3D3E9002306460F46A847D0B1002235
:100FC0004B4B84F831209847192802D0494B984759
:100FD00008B90023A360A36B47495A1E032A84BFA4
:100FE0000423A36332460093444C3B460220A047AF
:100FF00003B0F0BD424B98470028E0D1F8E7414BE1
:1010000006469847002842D194F82B50002D29D04D
:101010003046354B354D98472FA3D3E9002306467C
:101020000F46A84718B9364B9847002841D00022F0
:101030002F4B84F82B209847162802D02D4B984729
:1010400008B90023A360A36B2F495A1E032A84BF4B
:101050000423A36332460093284C3B460220A0475A
:1010600003B0F0BD294B98470028C1D0204B9847CA
:101070001028BDD9264A1C4B1570012284F82B205C
:10108000304698471D4C0B46024622490BE0204A49
:10109000154B1570012284F8312030469847174CC3
:1010A0000B461D4902460320A44603B0BDE8F040AC
:1010B00060470F4CA047102802D9A047212897D994
:1010C00016490E4B022003B0BDE8F040184700BFA0
:1010D0009A999999999934409A99999999993540F9
:1010E0006C0F002071E300001DAD0100D1B20100C2
:1010F0006D2501004903000074200200D143010066
:1011000045E30000E1E30000E020020095E3000079
:1011100010000020B8200200402002001821020028
:1011200070B5114E114CB047D4ED1F7A07EE100A7E
:10113000B4EE677AF1EE10FA06D1257D15B1A269F9
:10114000082A09D8284670BD00230125A36125750A
:10115000B047E067284670BD00250549054B257559
:1011600002209847EEE700BFE17B00006C0F0020F3
:1011700060210200D14301002DE9F041604C237D44
:1011800023B1A369072B01D8BDE8F08194F82A3078
:101190001BB35C4B5C4D98475C4B064698478046BA
:1011A0003046A847064640460F46A847584D594B7B
:1011B0000022A847584D02460B4630463946A847FC
:1011C000002840F0828094F82D30002B2AD1534B18
:1011D0009847002857D0BDE8F081504B9847002829
:1011E000F1D1484B484D9847484B064698478046B2
:1011F0003046A847064640460F46A847444D484B50
:101200000022A847474D02460B4630463946A847BC
:101210000028D8D001224449444B84F82A200320D6
:101220009847D0E7374B384D9847384B0646984794
:1012300080463046A847064640460F46A8473C4DE4
:10124000344B0022A847374D02460B4630463946FC
:10125000A8470028BFD00022364B84F82D2098479D
:101260001E2802D0344B984708B90023A360A26B14
:101270003249531E042B84BF0522A2632B4B02204C
:10128000BDE8F04118471F4B1F4D98471F4B0646BE
:10129000984780463046A847064640460F46A8472E
:1012A000234D1F4B0022A8471B4D02460B463046DC
:1012B0003946A84700288ED0012284F82D202049E5
:1012C0001A4B0320BDE8F04118470022194B84F85F
:1012D0002A209847152802D0174B984708B90023B1
:1012E000A360A26B1749531E042B88BF05220F4B26
:1012F00088BFA26302209847002384F82C3062E75D
:101300006C0F0020757C00001DAD0100E17B00002A
:101310005DAA010000001C40E5B20100211100009F
:1013200000002440A9B2010084210200D143010041
:1013300061AA01006D25010049030000D8210200C7
:10134000C4210200982102000D4B002200211A60E6
:10135000C3F8802083F8292083F8282083F82A20E6
:1013600083F82D2083F82C2083F82E2083F8322058
:1013700083F82F2083F8782059649964D9647047E2
:101380006C0F00207B4B30B4A3FB01237A4C5B092C
:10139000421E84F8853084F88400062A00F2CF804B
:1013A000DFE812F022003C00570094007200B20007
:1013B0000700724B42F20F7242F21070814288BFF6
:1013C00011461A6989B25186136913F0FF03FBD1E4
:1013D0006B496C4A096912690B675386136913F0EC
:1013E000FF0FFBD130BC7047644B1A690023538652
:1013F000136913F0FF03FBD16148624A0069126967
:10140000036742F20F73994228BF194689B2518689
:10141000136913F0FF0FFBD130BC7047574B1A69AB
:1014200000235386136913F0FF03FBD15448554A38
:101430000069126942F2107542F20F74A94288BF26
:10144000214601675386136913F0FF0FFBD130BCAF
:1014500070474A4B42F20F7242F21070814288BFCD
:1014600011461A6989B25186136913F0FF03FBD143
:101470004349444A096912690B675386136913F09B
:10148000FF0FFBD130BC70473C4A42F210739942C7
:1014900012698DBF42F20F738BB20846184653860D
:1014A000136913F0FF0FFBD1354B364A1B691269E4
:1014B000186742F20F73994228BF194689B25186C4
:1014C000136913F0FF0FFBD130BC70472B4B1A6927
:1014D00000235386136913F0FF0FFBD142F2107300
:1014E000994240D8264A42F20F738B42126928BFB4
:1014F0000B4611679BB2234A12695386136913F096
:10150000FF0FFBD130BC70471C4B42F20F7242F20E
:101510001070814288BF11461A6989B251861369D9
:1015200013F0FF03FBD11649164A096912690B67CC
:101530005386136913F0FF0FFBD130BC70470F4B7C
:101540001A6900235386136913F0FF03FBD10C497A
:101550000C4A096912690B675386136913F0FF0F70
:10156000FBD130BC7047064B1A6942F20F73136708
:10157000C1E700BF1F85EB516C0F0020A0B1002018
:10158000C0B10020C4B00020F8B52F4C94F88630CC
:10159000EBB1D4F8885094F88C30302D18DD03EB83
:1015A000830303EB83039B0007EE903AF8EEE77AA0
:1015B000264D94F88D00264AFCEEE77A002317EEBC
:1015C000901A6B7031259047013DC4F88850F8BDE2
:1015D000002D1FDB03EB830303EB83031D4A1B4931
:1015E00094F88D004E781A4F9B0007EE903A02EB6C
:1015F0008502F8EEE77A92ED007A67EE877AFCEEE4
:10160000E77A17EE901AB847002EDDD00135C4F8FE
:101610008850F8BD03EB830303EB83039B0007EEC5
:10162000903A9FED0D7A094994F88D00084AF8EE3A
:10163000E77A012367EE877A4B70FCEEE77A0025A4
:1016400017EE901A9047E1E76C0F00201000002081
:1016500085130000F418020000000000004B18473A
:101660008915000010B500EB8000074C074B00EB1C
:101670008000820092B2204642F2107198472046C4
:10168000034BBDE810401847A0B10020818800003E
:101690004188000010B500EB8000074C074B00EBC1
:1016A0008000820092B2204642F210719847204694
:1016B000034BBDE810401847C0B1002081880000EE
:1016C0004188000010B500EB8000074C074B00EB91
:1016D0008000820092B2204642F210719847204664
:1016E000034BBDE810401847C4B0002081880000BB
:1016F00041880000374A431E70B50C4682F88400CA
:1017000082F88510062B5BD8DFE803F0451A043019
:10171000410404000846304B304D314C98470022BC
:1017200042F210712F48A8472E48A047002242F2EB
:1017300010712D48A84723462B48BDE87040184734
:10174000002242F21071254E2848254DB047274807
:10175000A8472046264B9847002242F210712248A3
:10176000B0472B462048BDE8704018471B4B1F4828
:10177000002242F2107198471C48194B98472046A6
:101780001B4B984720461B4BBDE870401847084646
:10179000114B9847F3E7002242F210710F4E1348A5
:1017A0000F4DB0471148A847002242F210710D4872
:1017B000B0470C48A84720460E4BBDE8704018477C
:1017C000002242F21071054D0848054CA847074811
:1017D000A047A4E76C0F0020651600008188000078
:1017E00041880000C0B10020C4B00020A0B100209A
:1017F00095160000C5160000F0B5154C002583B005
:1018000084F88600C4F8885048B903461A46D4F8CC
:101810009000009303210F4CA04703B0F0BD0E4F82
:1018200084F88D100846012629460C4B84F88C203C
:101830007E7098470A4BD4F890409847314602464C
:10184000009520462B46034CA04703B0F0BD00BFD7
:101850006C0F00202989010010000020F5160000FF
:10186000CD7C010070B5A64C236882B01BB1D4F8C2
:101870009430002B4FD1A36B1BB1A2689342C0F0F0
:101880008E80D4F8802023689A4242D0002B3AD030
:10189000980500F1C380990700F1C480DA0700F1D0
:1018A000B180DE0600F1CD805D0700F1D68098069C
:1018B00000F1D780190700F1C0805A0500F1DC80E3
:1018C0005E0600F1E480DD0400F1EE80180500F111
:1018D000F680190600F1F980DA0540F14B81A36B1F
:1018E0008849013B032B88BF04234FF00502C4F84D
:1018F000942088BFA3630522834B02209847D4F825
:101900008020236801E0C4F89430934218BFC4F8E3
:10191000803002B070BD62689342ACD27B497A4D90
:101920000220A84794F8852094F88410784B84F816
:10193000992084F898109847226884F89A009605B0
:1019400000F19380900771D4D10700F19980D306FC
:1019500000F1A380560700F1AB80900600F1C8802B
:10196000110700F11181530500F11981560600F1AC
:101970002181D00400F12D81110500F13181130680
:1019800000F13981D60540F132811A20614B984728
:1019900061490220A8470023C4F894306BE794F80B
:1019A0009A10009102205D49574E594DB0475C4B4B
:1019B0004FF00042C3F894200023A363A8471028E7
:1019C0003FF45FAFA84713283FF45BAFA847112847
:1019D0003FF457AF94F89A0000283FF452AF132811
:1019E00077D80F2808BF0E204A4B9847002211468F
:1019F00010464C4B984794F8991094F898004A4B2D
:101A000098473EE7052349491A463F4DC4F89430AC
:101A10000220A847D4F88020236876E705231A46D9
:101A20004349F2E705231A464249EEE71720394BAE
:101A3000984741490220A847ADE708231A463F4985
:101A4000E3E702231A4618463D492F4DC4F8943067
:101A5000A847D4F88020236857E732231A4639492B
:101A6000D3E732231A463849CFE71920294B984744
:101A700036490220A8478EE714231A463449C4E7A2
:101A80001420244B984733490220A84783E7324B60
:101A9000984700287FD0236815E718201D4B9847EA
:101AA0002E490220A84776E714231A462C49ACE7B2
:101AB0001520184B98472B490220A8476BE7264B67
:101AC0009847002872D0236803E705231A46264961
:101AD0009BE7264DA847002873D194F89A00132855
:101AE0007FF67FAFA84700286FD094F89A0078E778
:101AF0001E20084B98471E490220A8474BE700BF0D
:101B00006C0F002044280200D1430100042202008F
:101B10006D2501007925010000250200A0250200A5
:101B200000800041F9170000F51600004C26020065
:101B3000E42502001C2602006022020000270200A9
:101B40007C260200A8260200D42602002C220200D5
:101B5000302702008C22020095E30000B822020028
:101B600098270200F422020008280200F57E0000F7
:101B70001C230200D4F880202249234D0220A847CC
:101B8000D4F880202368C0E61620204B98472049CF
:101B90000220A847FFE678231A461E4935E71C2095
:101BA0001A4B98471C490220A847F4E6B4231A466A
:101BB0001A492AE71B20154B984719490220A847C4
:101BC000E9E61320114B984710E711200F4B984777
:101BD0000CE720200D4B984712490220A847DAE66F
:101BE0001F200A4B984710490220A847D3E60F4907
:101BF0000220A847CFE61D20044B98470C4902203D
:101C0000A847C8E688280200D143010079250100D1
:101C1000402302006427020068230200D02702004C
:101C2000B4230200FC2302005424020060250200B9
:101C3000A82402002DE9F04F424BDFF858B1DFF83D
:101C40005881414F414E424DDFF850A1DFF850918D
:101C500085B0984704AC3F4B44F8040D0122009333
:101C60004FF47A7100233C48D8473C4BC8F89C009D
:101C70000122142100933A480023D847314BD8F869
:101C80009CB0C8F8900098470023024601215846AE
:101C90000093DFF810B1D847DFF80CB14FF47A6148
:101CA0002046B847B047A84702284FF01501F7D99A
:101CB000D04718B199F80030002B37D0294B9847FE
:101CC00018B199F80030002B33D0D04718B199F8EB
:101CD0000030002B30D0244B984718B199F80030D1
:101CE000002B2CD0214B984710B199F80030D3B17C
:101CF0001F4B98471F4B98471F4B9847C8F8000049
:101D000008B9C8F824000F4B9847D8F8A0301BB189
:101D1000C31AB3F57A7F03D3184BC8F8A0009847CD
:101D2000D8471521BCE7164B9847E1E7154B984774
:101D3000C4E7154B9847C8E7144B9847CBE7144BBB
:101D40009847CFE7CD7C0100F57E0100211100000E
:101D50006D250100D1020000D02802005D160000B0
:101D6000E4280200E17A0000119A0000BD99000009
:101D70002D0E0000990F000049030000150F000010
:101D8000E10C0000ED0300007911000031060000B5
:101D9000950B0000D58801006C0F0020F57E000037
:101DA000100000202989010065180000094B83F804
:101DB0008E0000B9704770B4074D084C83F88D1041
:101DC000012683F88C2008466E702346002170BCE3
:101DD000184700BF6C0F002010000020F51600000F
:101DE000034A044B4FF00041C2F89410187070473A
:101DF0000080004110000020014B1860704700BFB8
:101E00006C0F0020014B83F8290070476C0F0020F5
:101E1000014B83F82A0070476C0F0020014B83F8B8
:101E20002D0070476C0F0020014B83F82B0070478A
:101E30006C0F0020014B83F8300070476C0F0020BE
:101E4000014B83F82F0070476C0F0020014B83F883
:101E50002E0070476C0F0020014B83F83200704752
:101E60006C0F0020014B83F8330070476C0F00208B
:101E7000014B83F8340070476C0F0020004B18476B
:101E8000A946000070B5064D064C4FF400166E6171
:101E90003220A047AE6123466420BDE87040184759
:101EA00000800041A9460000024B4FF400225A6115
:101EB000704700BF00800041024B4FF400229A613E
:101EC000704700BF0080004130B587B006AB0025E9
:101ED00003F8110D012403A9034A04480393049550
:101EE0000594904707B030BD598900007CB10020AF
:101EF000F0B58BB0002308290393029314D80AADE0
:101F00000A46552105F8211D02AE044607A904968C
:101F100001270648064E05940692089307950997EF
:101F2000B04704A90148B0470BB0F0BD7CB1002018
:101F30005989000010B5034B9847034BBDE810408A
:101F4000184700BFFD2E0000019D0100F8B5094CA7
:101F500007466FF0B9000E461546A0473846A04721
:101F60003046A0472846A047034B9847034B984765
:101F70000120F8BD393700005D370000F13C00005A
:101F800008B56FF0B600074B9847074B9847074BCB
:101F90009847074B07489847A0F10200B0FA80F035
:101FA000400908BD393700005D370000F13C0000F2
:101FB000C5360000F025300008B5074B9847074BA1
:101FC0009847074B9847074B07489847A0F10300ED
:101FD000B0FA80F0400908BD7D3C00005D3700008C
:101FE000F13C0000C5360000F0253000830709D120
:101FF0000B469B0606D1930710B405D000205DF870
:10200000044B704700207047014B5DF8044B1847A4
:102010004D1F00002DE9F84F6FF0E400DFF820912C
:10202000DFF820A1DFF820B1374D384E384FDFF808
:102030001C81C8474FF47F20C847FF20C8474FF492
:102040008050C8471420D047D847324B98474FF4A8
:102050007F2419E02968B0476968201DB047A96846
:1020600004F10800B047E96804F10C00B0472969A1
:1020700004F11000B047696904F114001834B04746
:10208000444505F1180503D06B69BB422046E1D0F9
:10209000214C1F4BD4F8AC269A4218D0D4F8B01675
:1020A0001E48B0476FF0B800C8471D48C8474FF4F6
:1020B0007F20C8474FF48050C8471420D047D847E6
:1020C000144B98471420D0470120BDE8F88FD4F86E
:1020D00094161448B047D4F898161348B047D4F86B
:1020E0009C161248B047D4F8A0161148B047D4F84F
:1020F000A4161048B047D4F8A8160F48B047D4F833
:10210000AC160E48B047C9E7181000205134000043
:10211000CAF00F53F13C000014100020FCFF0F0028
:1021200000108000D0FF0F00D4FF0F00D8FF0F0079
:10213000DCFF0F00E0FF0F00E4FF0F00E8FF0F00DF
:10214000393700007D1E00005D37000090F60F005B
:1021500030B408B10138C0B20F4B104D002204E07A
:102160000132462A03F1180313D01C68A042F7D1AC
:102170005C69AC42F4D10A4B02EB420203EBC202AF
:1021800001209568D46813698B600D604C6030BC89
:102190007047002030BC704718100020CAF00F5361
:1021A0001410002070B4144DB5F8B44614B3D5F82B
:1021B000C83683420E460ED005F5D762002302E0F2
:1021C0001169814208D00133A34202F11402F7D110
:1021D000002070BC7047002303EB830305EB8303EF
:1021E00003F5D7650FCD34460FC42B68236001205B
:1021F00070BC70472046ECE7141000202DE9F04732
:10220000504B82B09847002862D04F4B9847044605
:10221000002855D04D4F4E4B3846022220F8042B53
:1022200000214FF4D26298474FF4805249494A4BFB
:102230004FF47F2098470446002877D0474EDFF8B8
:102240005081DFF850913C1D4FF47F254FF0000A7C
:1022500003E04D4504F1180443D02846B047206000
:10226000281DB047606005F10800B047A06005F187
:102270000C00B047E06005F11000B047206105F1A7
:102280001400B0474045606105F1180529D1236865
:10229000002BDEDAB7F8B406216900EB800207EB09
:1022A00082020130C2F8C836636882F8C4A6C2F858
:1022B000C0A6A7F8B406C2F8BC16C2F8B836C8E77C
:1022C0002749284B04209847204602B0BDE8F087F4
:1022D00004462549234B04209847204602B0BDE818
:1022E000F0872248B047C7F894062148B047C7F89E
:1022F00098062048B047C7F89C061F48B047C7F863
:10230000A0061E48B047C7F8A4061D48B047C7F846
:10231000A8061C48B047C7F8AC061B48B0470124C4
:10232000C7F8B006204602B0BDE8F0874FF48053EE
:10233000009316490B4D03F500034FF47F22042050
:10234000A847C1E7811F0000B91F0000141000203A
:1023500079BF0100001080004D1F0000B53500005E
:1023600010290200D1430100F8280200D0FF0F001D
:10237000D4FF0F00D8FF0F00DCFF0F00E0FF0F00BD
:10238000E4FF0F00E8FF0F00FCFF0F003029020000
:10239000CAF00F5390F60F00F0B4094C094ED4F870
:1023A000AC7604F2946405460FCC0FC594E80700A0
:1023B00085E80700B81BB0FA80F04009F0BC704710
:1023C00014100020CAF00F5370B405460FCD054C11
:1023D000054E0FC495E80700334684E8070070BC3B
:1023E000184700BFA81600201520000010B50A4BA2
:1023F0000A48984700210A4B0A4898470A4B044666
:1024000006489847844200D810BD21460348074B30
:10241000BDE81040184700BF258300002CB1002004
:10242000812B010080290200F5A40000C5A4000052
:102430000146014B01481847498400002CB1002097
:102440002DE9F043114C124B89B006A9204698475C
:102450002046104B9DF81A409DF819509DF81860C1
:102460009DF81D709DF81C80BDF81E90984722466F
:102470000490CDF80C908DE8C0012B460649074C1E
:102480000220A04709B0BDE8F08300BF2CB10020B6
:1024900049840000F5A4000088290200D14301000E
:1024A00030B51A491A4D1B4C83B0A847A047C0B29B
:1024B00018288CBF00238DF80600144988BF8DF8BA
:1024C00006300020A847A047C0B23B288CBF00239D
:1024D0008DF805000D4988BF8DF805300020A8470C
:1024E000A047C0B23B288ABF00238DF804008DF8B6
:1024F000043001A9084B09489847094B07489847F9
:10250000084B01460848984703B030BD284C0200EC
:1025100045D701006DB70100518300002CB10020A8
:10252000F5A40000552A01008029020030B51F499A
:102530001F4D204C83B0A847A047C0B20C288CBFC9
:1025400001238DF80500194988BF8DF8053000205A
:10255000A847A047C0B21F2894BF8DF804000123EC
:10256000124988BF8DF804300020A847A04780B2E8
:10257000632898BF00F5FA6040F2D97398BF80B223
:10258000984298BF40F2E573ADF8060001A998BFE4
:10259000ADF806300848094B9847094B064898475C
:1025A000084B01460848984703B030BDB8290200DF
:1025B00045D701006DB701002CB10020D183000088
:1025C000F5A40000552A010080290200FEE700BFA3
:1025D0001B491C4A914208B50ED01B4882420BD2BF
:1025E000D343034423F003030433134451F8040B8F
:1025F00042F8040B9A42F9D1144A15498A420AD288
:10260000D3430B4423F0030304331344002142F863
:10261000041B9A42FBD10F4A0F4B22F07F029A60B3
:10262000D3F8882042F47002C3F88820BFF34F8F9C
:10263000BFF36F8F094B9847094B9847FEE700BFE0
:102640001088020000000020500F0020500F0020D2
:1026500004B300200000000000ED00E0F1B701002D
:102660009DD90000F0B4674B6748684D684F694ECC
:102670004FF0404208245C6098629A6293F84310DD
:1026800001F0FE0141F0010183F8431093F831108D
:1026900001F00F0141F0100183F831104FF4807107
:1026A000C3F88410C3F8A850C3F8A82093F8C81042
:1026B00001F0FE0141F0010183F8C81093F8B41055
:1026C00001F0F00141F0010183F8B41010215960CC
:1026D0009F629A6293F8441001F0FE0141F00101FB
:1026E00083F8441093F8321001F0F00141F0010139
:1026F00083F83210402159609E629A6293F8461026
:1027000001F0FE0141F0010183F8461093F8331007
:1027100001F0F00141F0010183F83310803D802188
:1027200059609D629A6293F8471001F0FE0141F0F2
:10273000010183F8471093F8331001F00F0141F0C5
:10274000100183F8331007F57C774FF480615960EE
:102750009F629A6293F84A1001F0FE0141F0010174
:1027600083F84A1093F8351001F0F00106F5F86689
:1027700041F001014FF4006783F835105F609E62FD
:102780009A6293F84B1001F0FE0141F0010183F8C9
:102790004B1093F8351001F00F017C3D41F0100112
:1027A000042683F83510C3F88460C3F8A850C3F832
:1027B000A82093F8C21001F0FE0141F0010183F856
:1027C000C21093F8B11001F0F00141F0010183F85B
:1027D000B110C3F88440C3F8A800C3F8A82093F848
:1027E000C32002F0FE0242F0010283F8C32093F8F6
:1027F000B12002F00F0242F0100283F8B120F0BCC9
:10280000704700BF00800041080000400001004008
:10281000100000404000004010B5094A0948136A02
:10282000094943F0800342241362C0F820418847DD
:10283000002206490648074BBDE81040184700BF74
:1028400000080040001C004065260000001C0043FA
:1028500024B10020FD7F000010B4184B184A19481D
:1028600004244FF040415C609A62996293F84220E0
:1028700002F0FE0242F0010283F8422093F8312078
:1028800002F0F00242F00102202483F831205C6063
:102890009862996293F8452002F0FE0242F001022C
:1028A00083F8452093F8322002F00F0242F0100224
:1028B00083F832205DF8044B704700BF0080004170
:1028C000040000402000004070B5084A084D136A1B
:1028D000084C0949094843F4007342261362C5F8BD
:1028E0002861A047064BBDE870401847000800402B
:1028F000001C004085840000002400434CB10020EF
:1029000059280000F0B4234A234C244B244E254878
:10291000254D26494427C2F890706269202742F469
:1029200080626261C3F88470C3F8A860C3F8A8002D
:1029300093F8C52002F0FB0283F8C52093F8C52068
:1029400002F0FE0242F0010283F8C52093F8B220A3
:10295000402402F00F0283F8B220C3F88440C3F889
:10296000A850C3F8A80093F8C62002F0FB0283F831
:10297000C62093F8C62002F0FE0242F0010283F85E
:10298000C62093F8B32002F0F00283F8B320F0BC25
:10299000084700BF001C00400008004000800041C4
:1029A00020000240000002C040000240ED8500000F
:1029B000164B93F8482002F0FB0283F8482093F866
:1029C000482002F0FE0242F0010283F8482093F80A
:1029D000342002F0F00242F0020283F8342093F82F
:1029E000492002F0FB0283F8492093F8492002F0C5
:1029F000FE0242F0010283F8492093F8342002F0ED
:102A00000F0242F0200283F834207047008000411A
:102A100070B50A4B0A4A0B4C0B490C484226432519
:102A2000C3F89C60C3F88C50536943F480535361DE
:102A3000A047074BBDE87040184700BF001C00408E
:102A4000000800402587000000300040E0B1002071
:102A5000B129000070B4284B284D294E29482A4935
:102A60004FF480324FF080445A619A609C629D62BC
:102A700093F8502002F0FE0242F0010283F8502049
:102A800093F8382002F0F0024FF4003542F00202D1
:102A900083F838205D619D609C629E6293F85120AE
:102AA00002F0FE0242F0010283F8512093F8382030
:102AB00002F00F0242F020024FF4802483F8382005
:102AC0005C609862996293F8522002F0FB0283F8EE
:102AD000522093F8522002F0FE0242F0010283F8E5
:102AE000522093F8392002F0F00242F0020283F8FB
:102AF000392070BC704700BF00800041010000C059
:102B0000020000C000000240040002C070B50A4B81
:102B10000A4A0B4C0B490C4842264325C3F8A060D7
:102B2000C3F88C50536943F400535361A047074BDB
:102B3000BDE87040184700BF001C0040000800407E
:102B4000B5880000003400407CB10020552A000008
:102B5000104B93F8572002F0FE0242F0010283F876
:102B6000572093F83B2002F00F0242F0300283F826
:102B70003B2093F8562002F0FE0242F0010283F857
:102B8000562093F83B2002F0F00242F0030283F853
:102B90003B2070470080004170B50A4B0A4A0B4C3D
:102BA0000B490C4842264325C3F80C61C3F88C50EE
:102BB000136A43F0020313620022A047064BBDE8EC
:102BC00070401847001C004000080040F98C0000CD
:102BD0000004004394B10020512B000070B511494E
:102BE000114C8B69114A124843F4005344258B6100
:102BF000C4F8E85092F84D3003F0FE0343F00103AF
:102C000082F84D3092F8363003F00F0343F0400362
:102C100082F8363080470749074B0246BDE87040CE
:102C20000648184700080040001C00400080004192
:102C30007DBA000000A00141F9870000E4B0002047
:102C400070B51149114CCB69114A124843F0200369
:102C50004425CB61C4F8F85092F8CD3003F0FE0360
:102C600043F0010382F8CD3092F8B63003F00F0341
:102C700043F0400382F8B63080470749074B0246CD
:102C8000BDE870400648184700080040001C00409E
:102C9000008000417DBA000000140042F987000066
:102CA000A0B1002070B51149114CCB69114A1248EE
:102CB00043F040034425CB61C4F8F85092F8CF307C
:102CC00003F0FE0343F0010382F8CF3092F8B730EF
:102CD00003F00F0343F0400382F8B7308047074901
:102CE000074B0246BDE87040064818470008004000
:102CF000001C0040008000417DBA00000018004226
:102D0000F9870000C4B0002070B51149114C8B69DF
:102D1000114A124843F4006344258B61C4F8E4501F
:102D200092F8DE3003F0FE0343F0010382F8DE3058
:102D300092F8BF3003F0F00343F0060382F8BF308F
:102D400080470749074B0246BDE8704006481847D0
:102D500000080040001C00400080004161B40000F9
:102D600000600141F9870000A4B0002070B511494E
:102D7000114C8B69114A124843F4805342258B61F0
:102D8000C4F8E45092F84C3003F0FE0343F0010322
:102D900082F84C3092F8363003F0F00343F006032B
:102DA00082F8363080470749074B0246BDE870403D
:102DB0000648184700080040001C00400080004101
:102DC00061B4000000800141F987000004B10020D7
:102DD00070B51149114C0B6A114A124843F01003A7
:102DE00044250B62C4F8185192F8CE3003F0FE036C
:102DF00043F0010382F8CE3092F8B73003F0F003CD
:102E000043F0050382F8B73080470749074B024675
:102E1000BDE870400648184700080040001C00400C
:102E20000080004161B4000000100043F9870000F9
:102E3000C0B1002010B4204B2049214C4FF08072CB
:102E40004FF080409A60986299625A6193F85820D6
:102E500002F0FB0283F8582093F8582002F0FE029B
:102E600042F0010283F8582093F83C2002F0F0026F
:102E700042F007024FF0007183F83C20996098629D
:102E80009C62596193F8592002F0FB0283F85920A3
:102E900093F8592002F0FE0242F0010283F8592013
:102EA00093F83C2002F00F0242F0700283F83C20BD
:102EB0005DF8044B704700BF00800041000100C076
:102EC000000200C010B5094A094B0A494520C2F862
:102ED000A8001A6942F480621A619A6942F00102FC
:102EE0009A618847044BBDE810401847001C004019
:102EF00000080040658F0000352E000070B52F4B94
:102F00002F4C98472F4B3048304A31494FF4000539
:102F1000C3F88450C3F8A800C3F8A82093F8D720BA
:102F20002C4D02F0FB0283F8D72093F8D72002F053
:102F3000FE0283F8D7208847274B9847274B9847AE
:102F400063692749274A284843F40073636190471F
:102F5000264B9847264B9847264B98472648274BA1
:102F6000984763692649274A43F4804342206361B6
:102F7000C1F8A40090472449244B024624489847AE
:102F8000244B9847244B9847244B9847244B984709
:102F9000244B9847244B9847244B9847636924490E
:102FA00043F48073636148220120A8472148224AE4
:102FB000224B0260BDE87040184700BFAD9E000084
:102FC000000800400080004100000240800002C074
:102FD0001928000005930000C928000005290000F9
:102FE00000240040E18200002CB10020112A0000E2
:102FF0000D2B0000992B000010E000E0718500000F
:10300000001C004079BA0000003800400D8B000021
:1030100060B10020DD2B0000412C0000A52C000039
:10302000092D00006D2D0000D12D0000C52E0000DF
:10303000BC29020028B100200020004041CC000043
:103040002DE9F047344C354E354B3648DFF8DC80FF
:10305000DFF8DC90344D01274FF40062522198478D
:1030600021463A4630682770C0473A4621463068C4
:10307000C84723783068277063F07F032146022217
:1030800063704FF0030AC0473A462146306884F81F
:1030900000A0C0473A4621463068C84723783068C8
:1030A00084F800A063F03F03214602226370C0470A
:1030B0004A2220215220A8472B2221215220A84712
:1030C0003A2222215220A847002223215220A84739
:1030D000602224215220A847C02225215220A8473F
:1030E000CB2226215220A847B02227215220A847D0
:1030F000092228215220A847B92229215220A84775
:103100000D222A215220A8472B460C222B21522087
:10311000BDE8F047184700BF28B2002020B20020C9
:1031200069870000E0B100207DCE000089870000A3
:10313000B987000038B50C4C0C4B0546702120684F
:10314000984718B90A490B4B0320984729460A4B60
:1031500052209847002305461A462068074C194616
:10316000A047284638BD00BF74B00020717601002A
:10317000D8290200D143010061CD00003172010065
:103180002DE9F843DFF8D090284B06467021D9F896
:1031900000009847002844D04FF400625221244C8C
:1031A0002448254B254D264F98474FF00108FF2E08
:1031B000286884F800802146424621D8B847424614
:1031C0002146204B286898472378286884F8008097
:1031D00023F00103214602226370B847286814498E
:1031E0006670002502222570B847174CD9F80000F8
:1031F0002B462A462946A047144B1E80BDE8F8837B
:10320000B8474246214628680E4B984723782868DD
:1032100084F8008043EA0803214602226370B8471D
:10322000DCE70B490B4B03209847B5E771760100AB
:1032300028B20020E0B100206987000020B2002001
:1032400089870000B987000031720100481C002006
:10325000EC290200D143010074B00020014B188812
:10326000704700BF481C0020014BB3F902007047B3
:10327000481C0020F8B5184E184B3068702198474C
:1032800020B34FF40062164B1648174F174D5221CA
:10329000984711215220B8471221044652202C7021
:1032A000B847002328701A4619463068104EB047B8
:1032B0002B78240223449BB218B2B0F5005FA4BF60
:1032C000A3F5804318B20B4B5880F8BD0A490B4B4D
:1032D000032098470A48F8BD74B0002071760100B9
:1032E00069870000E0B1002061CD000028B2002015
:1032F00031720100481C0020002A0200D143010065
:1033000018FCFFFF2DE9F043002583B0DFF864903F
:10331000154FDFF864802E462C4608E09D421CD0F5
:1033200001341D4600268C2B09DD632C07DCC847C1
:103330001420B847B8F9023013F57A7FEED1009324
:103340002246334609490A4C0220A0474FF4FA703E
:103350003B4603B0BDE8F043184701360E2E04F19A
:103360000104E0DDEBE700BFA9460000182A0200D7
:10337000D143010075320000481C002030B5184CC4
:10338000184B83B09847B4F9021011F57A7F19D021
:10339000B4F904308B4218D0E268A18001320023D6
:1033A000E260A3608B290BDC00910F4D0F490220D6
:1033B000A84700230120A360E360A38003B030BDD1
:1033C000642AF1DC002003B030BDA368E268A1806C
:1033D000013301320E2BA360E260E5DCE2E700BFBF
:1033E000481C002075320000D1430100182A020059
:1033F00070B50F4D0F4B064653212868984718B9F2
:103400000D490E4B032098470D4B0E4C9847304604
:10341000A0470020A0470020A0470B4B0B4C98472B
:1034200000232868A4461A461946BDE87040604744
:103430008CB0002071760100602A0200D1430100A7
:10344000A91E0000C91E0000B91E00003172010053
:103450002DE9F041164F174B06460D4638685321AB
:10346000984718B91449154B03209847144B154C2D
:103470009847C6F3064040F08000A047C6F30720F7
:10348000A047F0B2A047E8B2A047C5F30720A04785
:10349000C5F30740A047280EA0470B4B0B4C98479D
:1034A00000233868A4461A461946BDE8F041604733
:1034B0008CB0002071760100702A0200D143010017
:1034C000A91E0000C91E0000B91E000031720100D3
:1034D0002DE9F041134E144B05460F463068532139
:1034E000984718B91149124B03209847114B124CB9
:1034F0009847C5F3064040F08000A047C5F3072079
:10350000A047E8B2A047F8B2A047380AA0470B4B43
:103510000B4C984700233068A4461A461946BDE86C
:10352000F04160478CB00020717601007C2A0200D7
:10353000D1430100A91E0000C91E0000B91E0000F1
:10354000317201002DE9F041124E134B05460F4632
:1035500030685321984718B91049114B03209847F8
:10356000104B114C9847C5F3064040F08000A0472F
:10357000C5F30720A047E8B2A0473846A0470B4B49
:103580000B4C984700233068A4461A461946BDE8FC
:10359000F04160478CB0002071760100882A02005B
:1035A000D1430100A91E0000C91E0000B91E000081
:1035B0003172010070B51A4E1A4B82B00546532184
:1035C0003068984718B91849184B03209847184B8A
:1035D000184C9847C5F30540A047C5F30720A047FE
:1035E000E8B2A04704210DEB0100134B134C9847A0
:1035F000134B984700231A4619463068A0479DF898
:1036000006309DF805109DF804209DF807001B0466
:1036100003EB0123134403EB006002B070BD00BF55
:103620008CB0002071760100942A0200D143010081
:10363000A91E0000C91E0000F11E00003172010029
:10364000B91E000070B5164E164B82B005465321C8
:103650003068984718B91449144B03209847144B05
:10366000144C9847C5F30540A047C5F30720A04771
:10367000E8B2A04701A802210F4B104C9847104B0D
:10368000984700231A4619463068A0479DF8053030
:103690009DF8040000EB032080B202B070BD00BFB3
:1036A0008CB0002071760100A02A0200D1430100F5
:1036B000A91E0000C91E0000F11E000031720100A9
:1036C000B91E000070B5134E134B82B0054653214E
:1036D0003068984718B91149114B03209847114B8E
:1036E000114C9847C5F30540A047C5F30720A047F4
:1036F000E8B2A04701A801210C4B0D4C98470D4B97
:103700009847002330681A461946A0479DF80400E0
:1037100002B070BD8CB0002071760100AC2A0200AE
:10372000D1430100A91E0000C91E0000F11E0000C7
:1037300031720100B91E000010B5064C064B2288FC
:10374000014602F54210984723880433C3F30B0364
:10375000238010BD581C002051340000024B034848
:103760001988034B184700BF581C0020FC2030006C
:10377000D134000030B5154D154B286883B0532166
:103780009847E8B1134B144C98473020A0472020AD
:10379000A0470020A04701A80121104B104C9847DA
:1037A000104B9847002328681A461946A0479DF8F1
:1037B0000400A0F17C00B0FA80F0400903B030BDF5
:1037C00009490A4B03209847DCE700BF8CB0002072
:1037D00071760100A91E0000C91E0000F11E000044
:1037E00031720100B91E0000B82A0200D143010065
:1037F00070B5484B484C494D98474420A04700209D
:10380000A0474FF49670464B984740F2E934A847DA
:1038100020B9A847013CFBD1204670BD4FF44020A1
:10382000404C414EA04741494148B047414B424876
:10383000984740F6FF73984255D0404D4048414C60
:103840000021A84700214048A8474FF468713F482D
:10385000A04758213E48A04700213E48A0473021BC
:103860003D48A04740F20D213C48A04720213C485C
:10387000A04700213B48A04703213B48A047002127
:103880003A48A84701213A48A8474FF448713948B7
:10389000A0474FF4F0713848A04700213748A847A7
:1038A00001213748A8474FF400413648A0474FF45C
:1038B00000412348A047FA213348A047002133485C
:1038C000A84733494FF44010B04732493248B04717
:1038D00000213248B04702213148A84705211A4843
:1038E000A847012070BD2F48144DA0470121044670
:1038F0002D48A84700211048A84700212B48A84779
:1039000000212B48A84700212748A84721462548E1
:10391000B04793E7851E0000F133000075370000C3
:103920007D1E0000B5350000513400000087930370
:103930000C20300045360000F820300045350000EE
:103940009C203000D1340000702030002C2030004A
:1039500030203000382030003C2030004020300043
:10396000442030004C2030005020300064203000D3
:103970006C203000342030004820300068203000B7
:103980006020300098203000D0203000D42030005B
:10399000FF0000020700002604003000080030008D
:1039A000542030006291300020203000FC20300094
:1039B000002130002DE9F047174C184E258881462C
:1039C0008A4605F542106FF0D10117469846B04778
:1039D00025880435C5F30B0505F5421049EA0A416F
:1039E0002580B04725880435C5F30B0547EA084113
:1039F00005F542102580B047238808990433C3F3A6
:103A00000B0303F542102380B04723880433C3F32C
:103A10000B032380BDE8F087581C002051340000C0
:103A20002DE9F04F81B0474C0A9D0746284688464D
:103A300091469A46A0471FFA80FBBBF1000F02D1C6
:103A400001B0BDE8F08F4FEA9B04601C04213E4B9F
:103A500098470646002C72D0601E80B206EB8000AC
:103A60002A46311F937892F803E092F800C01B04B5
:103A700043EA0E6392F801E043EA0C0343EA0E23A3
:103A800041F8043F814202F10402EBD1A3001BF094
:103A9000030B13D09B4456F824001FFA8BFB4FEA0C
:103AA000840E0021EA5C01339BB28A405B4540EA08
:103AB000020001F10801F5D146F80E00DFF894B0DC
:103AC000224DBBF800006FF0F30100F54210A8474B
:103AD000BBF800300433C3F30B0347EA084103F596
:103AE0004210ABF80030A847BBF800300433C3F3F2
:103AF0000B0303F5421049EA0A41ABF80030A8472E
:103B0000BBF800000430C0F30B00ABF80000002746
:103B1000BBB200F5421056F82310A847BBF80000CE
:103B200001370430BBB2C0F30B009C42ABF800007D
:103B3000EED2074B304601B0BDE8F04F18472346A0
:103B4000A5E700BF41C6010075B701005134000070
:103B5000A9B80100581C0020F8B5114C114D23885C
:103B600007460E4603F542106FF0C001A8472388B0
:103B70000433C3F30B0303F5421039462380A847EF
:103B800023880433C3F30B0303F54210314623802B
:103B9000A84723880433C3F30B032380F8BD00BF79
:103BA000581C0020513400002DE9F041164C174DEF
:103BB000238880460F4603F542106FF0C401164675
:103BC000A84723880433C3F30B0303F5421041468F
:103BD0002380A84723880433C3F30B0303F5421063
:103BE00039462380A84723880433C3F30B0303F526
:103BF000421031462380A84723880433C3F30B03C4
:103C00002380BDE8F08100BF581C00205134000023
:103C10002DE9F047174C184E25888246884605F551
:103C200042106FF0BC011F469146B047258804350D
:103C3000C5F30B0505F5421051462580B047258890
:103C40000435C5F30B0548EA094105F54210258006
:103C5000B04722880432C2F30B02394602F5421003
:103C60002280B04723880433C3F30B032380BDE8CD
:103C7000F08700BF581C00205134000038B50B4CB1
:103C80000B4D20886FF0B50100F54210A84723883E
:103C90000433C3F30B0303F5421000212380A8472C
:103CA00023880433C3F30B03238038BD581C002042
:103CB0005134000070B50C4C0C4D238806466FF053
:103CC000EA0103F54210A84723880433C3F30B032A
:103CD00003F5421031462380A84723880433C3F3F9
:103CE0000B03238070BD00BF581C0020513400001E
:103CF0002DE9F04FDFF8B8A0214FDFF8B88083B08E
:103D000003E02048D047834536D01F48D04740F6CF
:103D1000FF7398428346F4D11C4CDFF89C901C4EF4
:103D200001E0444509D02046B847314605460246E1
:103D300001A80134C847002DF3D1164B1648174C83
:103D40009847012105461648A04700210E48A04784
:103D500000210C48A04700211248A047002110482C
:103D6000A04729460C48104B9847FA200F4B98471C
:103D70000448D0478345C8D103B0BDE8F08F00BFE9
:103D8000C5360000FC203000F820300000983000DC
:103D9000CC2A0200B53500006291300045350000A4
:103DA0002020300000213000513400007D1E000032
:103DB0004536000080983000E9C0010010B5024689
:103DC00004460549054B03209847054B4FF0006218
:103DD0009A61204610BD00BF042B0200D1430100B0
:103DE0000080004170B50546054CC0F30740A04770
:103DF000C5F30720A047E8B22346BDE87040184746
:103E0000811101002DE9F8431C4D81468846A847E1
:103E100002281FD01A4E1B4C4FF000677761AD206F
:103E2000A047194B4846984798F80000A04798F8D3
:103E30000100A047B7610446A847022816D0002C0D
:103E400002DB2046BDE8F8832046104B9847204609
:103E5000BDE8F8830E4A0F4B10685321984700289D
:103E6000D8D10D490D4B03209847D3E7084B0C4D93
:103E7000186800231A461946A847E0E7A183010005
:103E80000080004181110100E53D0000BD3D0000C2
:103E90008CB0002071760100182B0200D143010084
:103EA00031720100F8B5164DA847022814D0154EFE
:103EB000154B4FF00067776104209847B7610446BF
:103EC000A847022814D0002C01DB2046F8BD20466C
:103ED0000E4B98472046F8BD0D4A0E4B10685321F3
:103EE00098470028E3D10C490C4B03209847DEE7A4
:103EF000074B0B4D186800231A461946A847E2E7FE
:103F0000A18301000080004181110100BD3D00003E
:103F10008CB00020717601002C2B0200D1430100EF
:103F2000317201002DE9F04100293BD0B0F5001FAE
:103F300038D21E4E0C460546B04702281ED01C4FF4
:103F40001C4B4FF00068C7F81480032098471A4BA9
:103F5000284698472046194B9847C7F818800446CA
:103F6000B047022816D0002C02DB2046BDE8F081C5
:103F70002046134B98472046BDE8F081114A124B6A
:103F80001068532198470028D9D11049104B0320BD
:103F90009847D4E70B4B0F4D186800231A46194673
:103FA000A847E0E74FF0FF34DFE700BFA18301003F
:103FB0000080004181110100E53D0000CD110100AC
:103FC000BD3D00008CB00020717601003C2B02004A
:103FD000D1430100317201002DE9F041002943D0A5
:103FE0002C4B1446013A9A423ED8B0F5001F0746C2
:103FF0003AD2DFF8CC800D46C047022821D0264AAD
:10400000264B4FF00061516103209847061E24DBC8
:104010003846234B9847061E29DB224F2846B847CF
:10402000013C064605F10105F8D1002824DB1A4BB6
:104030004FF000629A61C047022822D03046BDE8A6
:10404000F081194A194B1068532198470028D6D19E
:104050001749184B03209847D1E7174B984700287A
:10406000D6D03046BDE8F0814FF0FF36E6E7124B80
:1040700098470028E2D1D0E70F4B98470028DDD1C0
:10408000D5E7094B0D4C186800231A461946A0477E
:10409000D4E700BFFEFF1F00008000418111010036
:1040A000E53D0000CD1101008CB0002071760100CB
:1040B0004C2B0200D1430100BD3D000031720100D4
:1040C000A183010070B582B00023184C8DF8073031
:1040D000A04702281DD0164D164B4FF000666E61AA
:1040E00005209847144B0DF107009847AE61A04793
:1040F000022803D09DF8070002B070BD0F4B104C92
:10410000186800231A461946A0479DF8070002B018
:1041100070BD0A4A0B4B1068532198470028DAD12A
:1041200009490A4B03209847D5E700BFA183010046
:104130000080004181110100CD1101008CB00020F0
:104140003172010071760100582B0200D143010049
:104150002DE9F04100283CD01F4E0446B04702280C
:104160001AD01E4F1E4D4FF00068C7F81480AD20C6
:10417000A8472078A8476078A847C7F81880054660
:10418000B047022814D0002D1BDB164CA047C307F4
:10419000FCD42846BDE8F081134A144B1068532123
:1041A00098470028DDD11249124B03209847D8E7E1
:1041B0000D4B114C186800231A461946A047002DD4
:1041C000E3DA28460D4B98470028DED02846BDE8A4
:1041D000F0814FF0FF35DCE7A18301000080004152
:1041E00081110100C54000008CB0002071760100F3
:1041F000682B0200D143010031720100BD3D000077
:10420000F8B5164DA847022814D0154E154B4FF09F
:104210000067776150209847B7610446A847022895
:1042200014D0002C01DB2046F8BD20460E4B9847E9
:104230002046F8BD0D4A0E4B1068532198470028C0
:10424000E3D10C490C4B03209847DEE7074B0B4D9D
:10425000186800231A461946A847E2E7A18301001F
:104260000080004181110100BD3D00008CB00020A4
:1042700071760100782B0200D143010031720100F8
:104280002DE9F0411A4B1B4D80469847A84702285C
:1042900019D0194E194C4FF0006777610120A047E3
:1042A00008F0BC00A047B7610446A847022816D012
:1042B000002C02DB2046BDE8F0812046104B9847D9
:1042C0002046BDE8F0810F4A0F4B106853219847F4
:1042D0000028DED10D490E4B03209847D9E7094B42
:1042E0000C4D186800231A461946A847E0E700BF9E
:1042F00001420000A1830100008000418111010002
:10430000BD3D00008CB00020717601008C2B0200B6
:10431000D143010031720100F8B50020174B184D50
:104320009847A847022814D0164E174B4FF0006745
:10433000776106209847B7610446A847022814D041
:10434000002C01DB2046F8BD2046104B9847204644
:10435000F8BD0F4A0F4B1068532198470028E3D14E
:104360000D490E4B03209847DEE7094B0C4D1868AA
:1043700000231A461946A847E2E700BF8142000021
:10438000A18301000080004181110100BD3D0000BA
:104390008CB00020717601009C2B0200D1430100FB
:1043A00031720100224B98422DE9F04703D90024D5
:1043B0002046BDE8F0871F4B1F4E0D460446984728
:1043C000B047022819D01D4FDFF894904FF00068D5
:1043D000C7F814800220C847194B20469847284642
:1043E000C847C7F818800446B047022811D0002CEF
:1043F00017DB144BBDE8F0471847134A134B1068FE
:10440000532198470028DED11149124B03209847C9
:10441000D9E70D4B104D186800231A461946A847D6
:10442000E5E720460D4B98470028C1D1E1E700BFE2
:10443000FEFF1F0019430000A1830100008000411E
:10444000E53D0000A53E00008CB000207176010023
:10445000AC2B0200D143010031720100BD3D0000D0
:104460008111010051B3174B70B5541E9C4222D8E4
:10447000B0F5001F1FD20D460446134B1646984751
:1044800020462946114B9847022E05F102040ADD09
:10449000F21E22F0010204320D4E15442046023471
:1044A000B047AC42FAD10B4A0B4B4FF0006191611F
:1044B000BDE8704018474FF0FF3070BD4FF0FF303F
:1044C000704700BFFEFF1F0019430000053E0000BB
:1044D0005141000000800041A53E00002DE9F0415F
:1044E0000E4D0F4B0F4E104C98474FF00067532165
:1044F00028680E4B98470E4B776160209847002341
:10450000B76128680B4D1A461946A847A047C3074C
:10451000FCD4094BBDE8F041184700BF8CB0002027
:104520001943000000800041C54000007176010081
:104530008111010031720100A53E0000B0F5001F9D
:1045400070B530D2204B214E05469847B04702281F
:104550001DD01F4A1F4B4FF000615161202098472A
:10456000041E1ADB1C4B284698470446B047022815
:1045700022D0174B4FF00062002C9A6116DB174DCA
:10458000A847C307FCD4164B9847204670BD154A70
:10459000154B106853219847DBE7144B98470028C8
:1045A000E0D0204670BD4FF0FF34EEE720460F4BC1
:1045B00098470028E9D1E2E70A4B0D4D186800231F
:1045C0001A461946A847D4E719430000A183010001
:1045D0000080004181110100E53D0000C540000060
:1045E000A53E00008CB0002071760100BD3D0000AA
:1045F00031720100400007EE900ADFED0D6A0D48B0
:104600000D4BB8EE677A10B5C6EE877AFCEEE77A06
:1046100017EE901A01399847041E01DB204610BDA1
:1046200022460649064B03209847204610BD00BF8E
:10463000001B374B7CB100202D890000BC2B0200F1
:10464000D1430100024A136801331360704700BF71
:1046500000B20020704700BF014B00221A60704773
:1046600000B20020014B1868704700BF00B2002064
:1046700008B502460B46064C06490420A0474FF0F9
:10468000800383F31188BFF36F8FBFF34F8FFEE773
:10469000D1430100F82B0200024A13680133136072
:1046A000704700BF5C1C002010B5074B04469847BC
:1046B000022804D0A0B2054BBDE8104018472046A0
:1046C000034BBDE810401847A1830100818500001D
:1046D000997F0100F0B5032283B000210120904CA6
:1046E000904DA0472860002800F0BC8000231A46A7
:1046F00019468D4EB0472A688C4D00231946104646
:104700001A46B047032200210120A0470246286034
:1047100020B100231A461946B0472A68844D002369
:10472000194610461A46B047032200210120A0472F
:104730000246286020B100231A461946B0472A686D
:104740007C4F7D4C00231946104603251A46B0477E
:1047500000238DE8A0004FF4007278497848A04704
:104760003B68002B00F08A80764E7749774800231B
:104770008DE860004FF40072A0473368002B74D0BE
:10478000734E7449744800238DE860004FF4A062B2
:10479000A0473368002B7AD0704E714971480023CE
:1047A0008DE860004FF48072A0473368002B00F062
:1047B00089806D4E6D496E4800238DE860004FF48E
:1047C0008072A0473368002B73D06A4E6A496B48E9
:1047D00000238DE860004FF40072A0473368002B7F
:1047E00079D0674E0196042300934FF400720023A2
:1047F00064496548A0473368002B51D0634E644933
:10480000644800238DE860004FF44072A04733688D
:10481000002B7BD0604E6149614800238DE8600029
:104820004FF48072A0473368002B66D05D4E5E491E
:104830005E4800238DE860004FF48072A047336823
:10484000002B51D05A4B5B4A1A61191D01225A4C58
:104850005A48DA601A75A0475848594B03B0BDE86A
:10486000F04018470246304E46E74FF0800383F38E
:104870001188BFF36F8FBFF34F8FFEE74FF08003B8
:1048800083F31188BFF36F8FBFF34F8FFEE74FF0B5
:10489000800383F31188BFF36F8FBFF34F8FFEE761
:1048A0004FF0800383F31188BFF36F8FBFF34F8FF7
:1048B000FEE74FF0800383F31188BFF36F8FBFF3E0
:1048C0004F8FFEE74FF0800383F31188BFF36F8FA4
:1048D000BFF34F8FFEE74FF0800383F31188BFF3E0
:1048E0006F8FBFF34F8FFEE74FF0800383F3118884
:1048F000BFF36F8FBFF34F8FFEE74FF0800383F35B
:104900001188BFF36F8FBFF34F8FFEE74FF0800327
:1049100083F31188BFF36F8FBFF34F8FFEE700BFA4
:10492000D971010074B00020317201008CB00020F8
:1049300094B0002080B00020157A01004C2C0200B9
:10494000B96D000084B00020602C0200896801006D
:1049500078B00020782C0200E125010098B00020FA
:104960008C2C0200BDE200009CB00020982C0200BC
:10497000D9930000A0B00020AC2C0200212301003C
:104980007CB00020C02C0200351C000088B0002044
:10499000CC2C0200B178000090B00020E02C020086
:1049A000058E010070B00020EC2C020035DB000009
:1049B0005C1C002045460000858B000060B1002093
:1049C000498B00000000000070B5194D194B1A4EBC
:1049D00004463D212868984721781848182200236A
:1049E000B047174B1420984700231A4660601946B9
:1049F0002868144DA847D4ED017A134B134DFCEEF3
:104A0000E77AF8EE677A17EE900A98470022104B83
:104A1000A84705A3D3E900230E4DA8470E4B98479E
:104A2000A06000EE100A70BD0000000000FEAF4064
:104A300094B0002071760100F580000024B10020C0
:104A400035CF0000317201001DAD0100C5AD010080
:104A50000000594019B00100B5B3010070B5134B07
:104A6000134D144E0446984702280CBF3D210021E7
:104A70002868114B98472178104818220023B04726
:104A80000F4B14209847002360601A4628680D4D8C
:104A90001946A84794ED017AD4ED097A94ED0A0AF3
:104AA000A7EE270A84ED020A70BD00BFA1830100B2
:104AB00094B00020F58000007176010024B1002040
:104AC00035CF00003172010070B5364E364B82B0E2
:104AD00004463E213068984700283CD0334B984725
:104AE0002178334B70209847002839DB314D324B09
:104AF00002209847314B294603224020984700283E
:104B00002F4B3FDB984700231A46194630682D4E3D
:104B1000B0472A786B789FED2C6ADFED2C6A03EBA7
:104B2000022307EE903AB8EEE77AFCEEC77A84EDFE
:104B3000017ACDED017ABDF8043007EE903AF8EE37
:104B4000677AAB78237777EEC67A87EEA60A84ED8C
:104B5000020A02B070BD1E491E4B03209847BDE7F4
:104B6000174B98471C4A13680133022B13DC136060
:104B700000233068134C1A461946A0479FED170AC8
:104B800002B070BD9847164B0A209847124A136826
:104B90000133022BEBDD00206421124B82E803007D
:104BA0009847E5E774B0002071760100B56A01000E
:104BB000A9CD000028B2002001000020E1CC0000B7
:104BC000F96A01003172010000000047000048440A
:104BD000FC2C0200D1430100741C002000000000E6
:104BE000A9460000B9CE000070B5364C61680029B6
:104BF00059DD01396160B4F89A31B4F89801324D49
:104C000083422CBF00235A1C04EB8303D5F8886031
:104C10009E6034BF92B20122A4F89A2100284BD0A2
:104C20002A4BDFED2B7A03EB8002B3EC017A93423F
:104C300077EE877AF9D107EE100AB8EE477A0029A5
:104C4000C7EE876AC4ED676AC5ED236A30DD0139B6
:104C50006160B4F83633B4F83413D5F8B4008B423D
:104C60002CBF00235A1C04EB830334BF92B20122F1
:104C7000C3F8A401A4F8362309B3164BDFED147A68
:104C800003EB8102B3EC017A9A4277EE877AF9D18D
:104C900007EE101AB8EE477AC7EE876AC4EDCE6AFF
:104CA000C5ED2E6A70BD0C480C4B98476168A2E7B1
:104CB0000B480A4B9847CCE7DFED057ABBE7DFED01
:104CC000047AE5E7741C0020140000207C1C0020FE
:104CD00000000000181E002094000020C94A0000B7
:104CE000C0000020000000002DE9F843384F394B88
:104CF000DFF81C81384D394E04462DED028B3D21E5
:104D0000386898472178364818220023C047354B29
:104D10001420984700231A46194660613868324FBC
:104D2000B847D4ED057A9FED317AD4ED016A94ED60
:104D3000028AE0682E4F67EE877AB7EE007A67EE58
:104D4000A66A77EE677AC6EEA78AA84780468946A4
:104D5000D4ED047AB1EE487AC7EE276A16EE900ACF
:104D6000A847244B984702460B4640464946B84759
:104D7000B04707EE100AC8EE877A1F4F17EE900A69
:104D8000A8471E4B98478046894618EE100AA84748
:104D900042464B46B847B047A847194F0AA3D3E944
:104DA0000023B847B0470646A661E069A84700223D
:104DB000144B154DA847154B984784F82000BDECBF
:104DC000028B3046BDE8F8836666666666127140FF
:104DD00094B00020717601001DAD0100B5B3010053
:104DE00024B1002035CF000031720100000080396D
:104DF000C5AD0100419F010019B0010031A00100C3
:104E00005DAA01000000E03F61AA010075B3010046
:104E1000F5800000F8B541F214004F4B4F4E41F2BF
:104E2000160100221E255A521D520A2150203224FA
:104E3000A3F89A21A3F83623A3F8D224A3F86E2668
:104E4000A3F80A28A3F8A629A3F8422BA3F8DE2C7E
:104E5000A3F87A2E6427A6F8BA20414AA3F8D01402
:104E6000A3F80818A3F8A419A3F8785EA3F86C7641
:104E7000A3F89801A3F83403A3F8404BA3F8DC4C43
:104E8000A6F8B800A6F1D80306F1B80143F8042B40
:104E90008B42FBD1334D34493448354C354FA8470C
:104EA0003149C4F800013448A8473449C4F82C01FA
:104EB0003348A8473149C4F8FC003248A847324972
:104EC000C4F828013148A847314B324918603248AC
:104ED000A847324BE065984731493248A847324BE2
:104EE000C4F84C01984731493148A84707EE900A69
:104EF000FDEEE77A00212F48C4ED4F7AA8474FF026
:104F00007E51C6F8D8002C48A8474FF07E51C4F80F
:104F100030012A48A8474FF07E5120642848A8470E
:104F20000021C4F838012748A8474FF07E51A064FB
:104F30002348A8472449C4F834012448A84741F627
:104F4000641160642248B84740F2FF11C4F844017C
:104F50002048B8476065F8BD741C00206C2D002007
:104F6000000080BFA92B0100000040C10C2D0200F1
:104F700014000020592B0100182D0200CDCC4C3C10
:104F8000202D0200282D0200CDCCCC3D302D02007A
:104F90000CB200200000A040382D02008D3101002D
:104FA0000000A841402D02002D31010000C05A45EB
:104FB000482D0200502D0200582D0200602D0200E5
:104FC000682D0200702D020000004040782D020084
:104FD000802D0200882D0200B0F89231DFED137AA7
:104FE00010B4B0F89041A3422CBF00235A1C00EB30
:104FF000830334BF92B201221960A0F8922144B118
:10500000034600EB8402B3EC017A9A4277EE877A8A
:10501000F9D107EE104AB8EE477A5DF8044BC7EEB7
:10502000876AC0ED656A16EE900A704700000000BE
:10503000B0F89221B0F890319FED1E7A9A4228BFC5
:10504000002210B438BF541C00EB820234BFA4B25B
:105050000124022B1160A0F8924180ED657A22DDD7
:10506000D0ED017ABFEE006AF4EE467AF1EE10FA66
:1050700019D0591E00F10802012306E0F2EC017A72
:10508000F4EE467AF1EE10FA0DD0A34203F10103DB
:1050900007D052ED026A77EEE67A37EE277A80ED96
:1050A000657A8B42EAD180ED667A5DF8044B17EEA3
:1050B000100A7047000000001C4BD3ED5F7AB3EE7E
:1050C000027AF4EEC77AF1EE10FA23D4B3EE0F7A37
:1050D000F4EEC77AF1EE10FA08D49FED157AF4EEEB
:1050E000C77AF1EE10FA17D502207047114AD2EDB7
:1050F000387AF5EEC07AF1EE10FAD8BFD3ED6A7ABD
:10510000B1EE047AF4EEC77AF1EE10FA54BF012042
:1051100000207047002070479FED077AF4EEC77AB1
:10512000F1EE10FA4CBF032000207047140000205D
:1051300000005C426C2D00200000A042054908B52B
:105140000122054B81F8E4209847012808BF81F827
:10515000E50008BD6C2D0020B950000000000000E3
:105160002DE9F0432DED028BA94CAA4DAA4F04F571
:10517000CE7085B0B847B5F87A3EB5F8781EA74826
:10518000D4F8A461DFEDA67A994294BF00235A1C9B
:1051900000EB83038CBF92B20122A5F87A2E1E6029
:1051A00041B1034600EB8102B3EC017A9A4277EEFB
:1051B000877AF9D107EE101AB8EE477AC7EE876AF8
:1051C000FCEEE67AC0ED656ACDED037A9DF80C3011
:1051D000C4ED6A6A142B00F21581152384F8AC31F2
:1051E000904ED6F8E8305A1C0C2BC6F8E82000F098
:1051F0006B818D48B84741F2140241F21603A95A57
:10520000EB5A8A48D4F878E1DFED857A8B422CBFDF
:1052100000235A1C41F2160700EB830334BF92B2FD
:105220000122C3F800E0EA5341B1034600EB8102DA
:10523000B3EC017A9A4277EE877AF9D107EE101A29
:10524000B8EE477A7A4FC7EE876AC0ED656AC4ED5B
:105250005F6AB847D6F8EC30834204D0012800F0EA
:105260002E81C6F8EC0096ED388AD6ED3F8AB5EE71
:10527000C08AF1EE10FAD8BF94ED6A8A38EE687AE7
:10528000F2EE067AB4EEE77AF1EE10FA07DDF3EE0D
:10529000047AB4EEE78AF1EE10FA00F3DF80654895
:1052A000654F664EB847B5F8423BB5F8401BD4F899
:1052B000E001DFED5B7A8B422CBF00235A1C06EB2A
:1052C000830334BF92B20122A5F8422B186041B18A
:1052D000334606EB8102B3EC017A9A4277EE877A85
:1052E000F9D107EE101AB8EE477A5548C7EE876A2B
:1052F000C6ED656AC4ED796AB847B5F8DE3CB5F825
:10530000DC1C504ED4F80402DFED457A8B422CBFF2
:1053100000235A1C06EB830334BF92B20122A5F886
:10532000DE2C186041B1334606EB8102B3EC017A02
:10533000934277EE877AF9D107EE101AB8EE477AE2
:105340004148424FC7EE876AC6ED656AC4ED826A7E
:10535000B847B5F80A38B5F808183D4ED4F8E0005B
:10536000DFED2F7A8B422CBF00235A1C06EB830300
:1053700034BF92B20122A5F80A28186041B1334621
:1053800006EB8102B3EC017A9A4277EE877AF9D183
:1053900007EE101AB8EE477A2E48C7EE876AC6EDB8
:1053A000656AC4ED396AB847B5F8A639B5F8A419E5
:1053B0002948D4F80C61DFED1A7A8B422CBF002308
:1053C0005A1C00EB830334BF92B20122A5F8A62930
:1053D0001E6041B1034600EB8102B3EC017A9342B7
:1053E00077EE877AF9D107EE101AB8EE477AC7EE52
:1053F000876AC0ED656AC4ED446A05B0BDEC028BF6
:10540000BDE8F083642B88BF642384F8AC31E7E601
:1054100014000020741C0020C94900005C290020F1
:10542000000000006C2D002084010020F82A0020DC
:10543000B9500000DC010020E94C000024260020C7
:1054400000020020C0270020EC0000205D4A000080
:10545000EC2200201801002088240020D4ED537A8B
:10546000314FDFF8D88078EEE77AF0EEE77A17EE82
:10547000900AB84728A3D3E90023C04700283FF487
:105480000EAF96F8E430002B7FF409AF94F86C313E
:10549000002B3FF404AF012386F8E43018EE900AA5
:1054A000B847804618EE100A8946B8471F4ECDE926
:1054B000000142464B461E490220B047EFE600235A
:1054C000C6F8F030B847CCE616EE901A194BDFF864
:1054D0006C80A6F1D8009847D6ED307A164BFDEED9
:1054E000E77A002217EE900A0028B8BF4042C6F8BB
:1054F000E82098470AA3D3E90023C04740B1D6F873
:10550000DC30632B3FF775AE0133C6F8DC3070E654
:10551000C6F8DC006DE600BF9A9999999999D93F30
:10552000666666666666EE3F1DAD0100D14301000A
:10553000902D020031500000F9AC0100A9B2010029
:105540002DE9F0476E4D6F4CDFF8F4812DED028BA5
:1055500095ED238A18EE100AA04767A3D3E900232C
:1055600006460F46C04758B1D5ED2E8A18EE900A70
:10557000A04761A3D3E90023C047002840F08B80F7
:10558000614E624F624DC6F8F8706249B1F8D2348C
:10559000B1F8D00483422CBF00235A1C01EB8303D3
:1055A00034BF92B20122C3F84073A1F8D22400287C
:1055B00000F09C80584BDFED597A03EB8002B3EC8E
:1055C000017A9A4277EE877AF9D107EE100AB8EE9F
:1055D000477AB1F86E36B1F86C06514ADFF864E1EB
:1055E000C6F81071C7EE876A834228BF0023DFED3B
:1055F0004B7AC2ED006A38BF5A1C0EEB830334BFEE
:1056000092B20122C6ED3F6AA1F86E261F6040B13A
:1056100073460EEB8002B3EC017A9A4277EE877AFA
:10562000F9D107EE100AB8EE477A16EE900A87EE27
:10563000878A3C4F8EED658A86ED458AA047002219
:10564000394BA847B847394AC3B2A2FB03239B088A
:1056500003EB8303DBB2142B17D8152386F8003134
:1056600018EE100AA0470022314BA847B847C0B235
:10567000142834D964288ABF642386F8180186F870
:105680001831BDEC028BBDE8F087642B88BF642322
:1056900086F80031E4E7D5ED847ADFF8ACA01C4D44
:1056A00068EEA77A17EE900AA04778EE687A8046EF
:1056B00017EE900A8946A04700221E4BD0470246AB
:1056C0000B4640464946A84732463B461A4F0E4EC7
:1056D000B8471A4B98470746C6F8F80055E7152310
:1056E00086F81831BDEC028BBDE8F087DFED0B7A50
:1056F0006BE700BFAFF300809A9999999999B93FE8
:10570000140000201DAD01006C2D00209A99AF41BE
:1057100061AA0100741C0020B41F002000000000DA
:105720004821002075B3010000000440CDCCCCCC52
:105730000000E03F0000354019B00100B5B30100A2
:10574000E5B2010050210020C5AD010000000000BD
:10575000474BD3ED447A474BB1EE087AF4EEC77A63
:10576000F1EE10FA2DE9F047434C27D917EE900AD5
:10577000984731A3D3E9002306460F463F4DA04783
:105780002FA3D3E90023A8472FA3D3E90023804602
:10579000894630463946A04732463B46A047384CFA
:1057A00002460B4640464946A047364B9847364B83
:1057B000C3F82801C3F82C01BDE8F08717EE900A62
:1057C000984723A3D3E9002306460F462B4DDFF865
:1057D000B0A0A04720A3D3E90023A84720A3D3E982
:1057E00000238046894630463946A04732463B462C
:1057F000A04702460B4640464946D0471AA3D3E984
:1058000000238046894630463946A04732463B460B
:10581000A04732463B46A04702460B464046494613
:10582000A847184B9847184BC3F82801C3F82C0118
:10583000BDE8F087AFF30080F2D24D621058D93F37
:105840005C8FC2F5285C0B40DE718A8EE4F26F3FFC
:1058500066666666666602401904560E2DB2D53F2E
:105860005EBA490C022BDF3F94F6065F984CA53FC9
:10587000140000201DAD0100C5AD010061AA0100AA
:105880005DAA0100B5B301006C2D002000000000EE
:105890002DE9F0472DED028B3B4C3C4F3C4B3D4EF0
:1058A000DFF810A13C4D82B098473C4B9847D4EDAF
:1058B0004B7A97ED238A38EE678A17EE900A84EDCB
:1058C000508AB0472AA3D3E9002380468946D047AF
:1058D00042464B46D047CDE90001D7F81001B0470A
:1058E00002460B46DDE90001A84723A3D3E90023C4
:1058F000CDE9000140464946D04702460B46DDE966
:105900000001A847DFF8B0801DA3D3E90023C047FA
:10591000234B9847234BD7ED397A93ED007A224BEE
:1059200028EE077AF1EE486AE6EE877A06EE100A6C
:1059300093ED007A76EE277AB6EE006A67EE867A05
:1059400028EE078AC4ED567AE6EE887A17EE900ABA
:10595000C4ED327AB0470022144BA847144B984745
:1059600084F8D00002B0BDEC028BBDE8F08700BF28
:105970005DA79196CADB613FBDE3141DC9E5AF3F4A
:10598000984C158C4AEAB43F6C2D0020140000207E
:10599000415500001DAD010061AA010051570000F2
:1059A000B5B3010008B2002004B200200000E03FBF
:1059B00075B30100C5AD01005DAA010010B50A4B29
:1059C00001787020984700280CDB0A20074B984785
:1059D0004020074B4FF4805198470220054BBDE80B
:1059E0001040184710BD00BFA9CD000001000020E5
:1059F00011CE0000A946000070B5084C084E4FF4C7
:105A00008065C4F89850A020C4F89450B047C4F8FA
:105A100098503346C820BDE87040184700800041C8
:105A2000A946000070B5074D074B084C984705F193
:105A30008000A04705F1AC00A0470A20044BBDE858
:105A40007040184714000020F9590000BD590000AB
:105A5000A946000070B5144C144AD4F86C31144DAA
:105A60000833C4F86C31904712490420A847D4F891
:105A700070312BB110490420A8470023C4F87031BD
:105A80000E4B98470E4B98470E4B98470E4B984736
:105A90000A200E4B98470E4B98472B460D49042081
:105AA000BDE87040184700BF6C2D0020D5CE000027
:105AB000D1430100E02E0200082F0200B97C010052
:105AC000B9CE0000B1CC0000255A00000100002032
:105AD000F57D0100282F0200034A044B01460448CB
