:10000000F8710120411700003D1700003D17000066
:100010003D1700003D1700003D17000000000000E4
:10002000000000000000000000000000114201007C
:100030003D17000000000000A1420100054301003F
:100040003D1700003D1700003D1700003D17000060
:100050003D1700003D1700003D1700003D17000050
:100060003D1700003D1700003D1700008596000079
:100070003D1700003D1700003D1700003D17000030
:100080003D17000051930000599300003D170000F8
:100090003D1700003D1700003D1700003D17000010
:1000A0003D1700003D1700003D1700003D17000000
:1000B0003D1700003D1700003D1700003D170000F0
:1000C0003D1700003D1700003D1700003D170000E0
:1000D0003D1700003D1700003D1700003D170000D0
:1000E0003D1700003D170000000000000000000068
:1000F00000000000499500003D1700003D1700007A
:100100003D1700003D1700003D1700003D1700009F
:100110003D1700003D1700003D1700003D1700008F
:100120003D1700003D1700003D1700003D1700007F
:100130003D1700003D1700003D1700003D1700006F
:100140003D1700003D1700003D1700003D1700005F
:100150003D1700003D1700000000000000000000F7
:10016000000000000000000000000000000000008F
:10017000000000000000000000000000000000007F
:1001800085BD00008DBD000095BD00009DBD000037
:1001900000000000CDA500003D1700003D17000045
:1001A0003D1700003D1700003D1700003D170000FF
:1001B000DDA500003D1700003D1700003D170000C1
:1001C0003D1700003D1700003D1700003D170000DF
:1001D0003D1700003D1700003D1700003D170000CF
:1001E000EDA500003D1700003D17000029AC000000
:1001F0003D17000045AC00003D17000055AC000065
:1002000065AC000000000000000000003D17000089
:100210003D1700003D1700003D1700003D1700008E
:100220003D1700003D1700003D1700003D1700007E
:100230003D1700003D1700003D1700003D1700006E
:100240003D1700003D1700003D1700003D1700005E
:100250003D1700003D1700003D1700003D1700004E
:100260000000000010B5054C237833B9044B13B1DE
:100270000448AFF300800123237010BD500F00200D
:1002800000000000F04302000C4B43B10C480D4944
:1002900010B5AFF300800C48036823B910BD0A48BD
:1002A000036833B97047094B002BF7D0BDE8104005
:1002B0001847064B002BF5D0184700BF0000000080
:1002C000F0430200540F0020F04302000000000041
:1002D00010B5154C237853B96368227B01336360F2
:1002E0006AB1236901332361237D63B910BDA3681B
:1002F000227B0133A36001236360002AF1D1237DB7
:100300002261002BF2D0094B9847A36947F2305283
:10031000C01A9042EADD064A4FF000410023C2F8BD
:100320009410237510BD00BF6C0F00204D540100C8
:10033000008000412DE9F04F2DED028B664B674C9C
:10034000674D85B09847674B08EE100A9847664B93
:100350000646984794F81CA0074618EE100ABAF112
:10036000000F39D1A847804630468946DFF8ACB146
:10037000A84700224FF08043D847DFF8A4B10246D7
:100380000B4640464946D847002840F0898094F8FB
:100390001DA0BAF1000F41D118EE100AA8478046FF
:1003A00030468946A847514D514B0022A847514D30
:1003B00002460B4640464946A847002840F0868042
:1003C000F3EE047AB4EEE78AF1EE10FA71DC05B0D0
:1003D000BDEC028BBDE8F08FA847804630468946C9
:1003E000DFF838A1A8470022414BD047DFF804A12D
:1003F00002460B4640464946D0470028C7D04FF03A
:1004000000083D493D4B84F81C800220984794F831
:100410001DA0C4F80480BAF1000FBDD0A37F002B4B
:10042000D5D018EE100AA847804630468946A8471E
:100430002E4E00224FF0804382468B46B047304E0E
:1004400002460B4640464946B0470028BFD0F3EE6F
:10045000057AB4EEE78AF1EE10FAB8D5294EB04726
:1004600007EE907A07EE100A77EEC77A9FED267AAC
:10047000F0EEE77AF4EEC77AF1EE10FAA7DB002788
:100480006777A777B047A847CDE900ABCDE9020170
:1004900042464B461D49194D0220A847676096E722
:1004A00001221B49154BC4F808A003202277984766
:1004B0006DE71849114AA060012303206377A377F1
:1004C00005B0BDEC028BBDE8F04F10470123124987
:1004D0000A4AC4F808A0F0E7B17200006C0F0020CF
:1004E0006580010051720000756E0000A97D010059
:1004F0000000F83F2D8601001CED0100111E0100D7
:1005000005860100816E00009A99993E88ED0100F0
:1005100000ED01005CED010040ED0100A57D010052
:10052000F185010038B50C4CE37F6BB90B4B1B78A0
:1005300003B138BD0A4DA8471228FAD9A847142894
:100540009CBF0123E377F4E7064A4FF00041002304
:10055000C2F89410E37738BD6C0F00201000002023
:10056000C10101000080004110B5064C207510B19A
:10057000054B9847A061054B4FF00042C3F894200B
:1005800010BD00BF6C0F00204D54010000800041E1
:10059000014B187D704700BF6C0F00202DE9F04122
:1005A000294C237B23B12369072B01D8BDE8F081B7
:1005B00094F82030CBB9254B254D9847254B06465E
:1005C000984780463046A847064640460F46A8470B
:1005D000214D224B0022A847214D02460B463046B2
:1005E0003946A84730BBBDE8F081184B184D9847F5
:1005F000184B0646984780463046A8470646404670
:100600000F46A847144D174B0022A847164D024627
:100610000B4630463946A8470028E4D00025134948
:10062000134B84F8205002209847656084F82150CD
:10063000BDE8F081012284F820200E490C4B0320F4
:10064000BDE8F041184700BF6C0F0020BD700000EE
:100650006580010029700000A57D01000000244094
:10066000F185010000001C402D860100ECED010029
:10067000111E0100D8ED010010B5184B184C984719
:1006800094F8223007EE900AB3EE057AF4EEC77ABA
:100690001BB9F1EE10FA11D410BDF1EE10FA08DB1F
:1006A000002284F822200F490F4B0220BDE81040A1
:1006B00018470E4B98470028F2D1EDE70B4B9847AF
:1006C0000028E9D10A4A0B491070012284F822203F
:1006D000054B0320BDE81040184700BFE9D30000D8
:1006E0006C0F002028EE0100111E0100BDD3000098
:1006F0001000002008EE010070B5104D104CA84706
:10070000D4ED097A07EE100AB4EE677AF1EE10FA2A
:1007100005D1237B13B12369082B07D870BD0022B4
:10072000012322612373A847606270BD00222273F7
:100730000449054B0220BDE87040184729700000AD
:100740006C0F002048EE0100111E0100044B002236
:100750001A7083F828201A775A7783F82020704778
:100760006C0F00207B4B30B4A3FB01237A4C5B0958
:10077000421E84F82A3084F82900062A00F2CF802D
:10078000DFE812F022003C00570094007200B20033
:100790000700724B42F20F7242F21070814288BF22
:1007A00011461A6989B25186136913F0FF03FBD110
:1007B0006B496C4A096912690B675386136913F018
:1007C000FF0FFBD130BC7047644B1A69002353867E
:1007D000136913F0FF03FBD16148624A0069126993
:1007E000036742F20F73994228BF194689B25186B6
:1007F000136913F0FF0FFBD130BC7047574B1A69D8
:1008000000235386136913F0FF03FBD15448554A64
:100810000069126942F2107542F20F74A94288BF52
:10082000214601675386136913F0FF0FFBD130BCDB
:1008300070474A4B42F20F7242F21070814288BFF9
:1008400011461A6989B25186136913F0FF03FBD16F
:100850004349444A096912690B675386136913F0C7
:10086000FF0FFBD130BC70473C4A42F210739942F3
:1008700012698DBF42F20F738BB208461846538639
:10088000136913F0FF0FFBD1354B364A1B69126910
:10089000186742F20F73994228BF194689B25186F0
:1008A000136913F0FF0FFBD130BC70472B4B1A6953
:1008B00000235386136913F0FF0FFBD142F210732C
:1008C000994240D8264A42F20F738B42126928BFE0
:1008D0000B4611679BB2234A12695386136913F0C2
:1008E000FF0FFBD130BC70471C4B42F20F7242F23B
:1008F0001070814288BF11461A6989B25186136906
:1009000013F0FF03FBD11649164A096912690B67F8
:100910005386136913F0FF0FFBD130BC70470F4BA8
:100920001A6900235386136913F0FF03FBD10C49A6
:100930000C4A096912690B675386136913F0FF0F9C
:10094000FBD130BC7047064B1A6942F20F73136734
:10095000C1E700BF1F85EB516C0F002094B0002051
:10096000B4B00020B8AF0020F8B52E4C94F82B306E
:10097000DBB1E56A94F83030302D17DD03EB8303EB
:1009800003EB83039B0007EE903AF8EEE77A264DDF
:1009900094F83100254AFCEEE77A002317EE901A0E
:1009A0006B7031259047013DE562F8BD002D1EDBDF
:1009B00003EB830303EB83031D4A1B4994F83100C7
:1009C0004E781A4F9B0007EE903A02EB8502F8EE44
:1009D000E77A92ED007A67EE877AFCEEE77A17EE17
:1009E000901AB847002EDED00135E562F8BD03EB62
:1009F000830303EB83039B0007EE903A9FED0D7A90
:100A0000094994F83100094AF8EEE77A012367EEC4
:100A1000877A4B70FCEEE77A002517EE901A904724
:100A2000E2E700BF6C0F0020100000206507000007
:100A300034EC010000000000004B18476909000079
:100A400010B500EB8000074C074B00EB80008200E4
:100A500092B2204642F2107198472046034BBDE8FF
:100A60001040184794B00020617C0000217C0000F9
:100A700010B500EB8000074C074B00EB80008200B4
:100A800092B2204642F2107198472046034BBDE8CF
:100A900010401847B4B00020617C0000217C0000A9
:100AA00010B500EB8000074C074B00EB8000820084
:100AB00092B2204642F2107198472046034BBDE89F
:100AC00010401847B8AF0020617C0000217C000076
:100AD000374A431E70B50C4682F8290082F82A1066
:100AE000062B5BD8DFE803F0451A0430410404000C
:100AF0000846304B304D314C9847002242F210717D
:100B00002F48A8472E48A047002242F210712D48D6
:100B1000A84723462B48BDE870401847002242F200
:100B20001071254E2848254DB0472748A847204634
:100B3000264B9847002242F210712248B0472B46BC
:100B40002048BDE8704018471B4B1F48002242F266
:100B5000107198471C48194B984720461B4B9847E3
:100B600020461B4BBDE8704018470846114B98477C
:100B7000F3E7002242F210710F4E13480F4DB047B9
:100B80001148A847002242F210710D48B0470C48A6
:100B9000A84720460E4BBDE870401847002242F29D
:100BA0001071054D0848054CA8470748A047A4E721
:100BB0006C0F0020410A0000617C0000217C0000D5
:100BC000B4B00020B8AF002094B00020710A00003B
:100BD000A10A0000F0B5134C002583B084F82B0067
:100BE000E56240B903461A46606B009303210E4C40
:100BF000A04703B0F0BD0D4F84F831100846012620
:100C000029460B4B84F830207E709847094B646B63
:100C1000984731460246009520462B46024CA04795
:100C200003B0F0BD6C0F0020A9600100100000208F
:100C3000D10A00004D540100F0B5874C257883B0EF
:100C40006DB9236C002B37D194F828202AB10023EA
:100C5000A3639A4201D084F8283003B0F0BDA36B9F
:100C60000BBB94F828209542F7D07C4E0023082D2A
:100C7000A360636000F08380012D00F09E80042D4E
:100C800000F09F80052D00F0A180022D00F0A280D1
:100C9000102D00F087802B4671490220B04794F850
:100CA00028202378D5E7A268934240D394F82830CF
:100CB000AB42D2D02378CEE762689342C4D294F894
:100CC0003E10009102206749644E674FB047674B62
:100CD00025644FF00042C3F89420B8470F281BD07A
:100CE000B847122818D0B847102815D094F83E00FD
:100CF00090B1122800F2AB800E2800F0A8805C4B67
:100D000098470022114610465A4B984794F83D10D8
:100D100094F83C00584B984794F828202578AA422C
:100D20009BD0002D93D0A36B002BC3D19EE75349DA
:100D30004A4E0220B04794F8291094F82A204A4BD2
:100D400084F83C1084F83D209847257884F83E00CC
:100D5000082D4BD0012D50D0042D1CD0052D5AD07C
:100D6000022D5FD0102D64D0122D69D0142D4BD0E0
:100D70002A4643490220B0470023A363CCE705235A
:100D800040491A460425A36302202564B04794F81D
:100D9000282023785DE71420354B98473A490220F4
:100DA000B047E9E7012339491A460220A3632364C7
:100DB000B04794F8282023784BE705231A46344996
:100DC000F3E71E231A4605253249DCE72A46324955
:100DD000A563D9E705231A4628463049A3630325AE
:100DE0002564B04794F82820237832E71520204B5B
:100DF00098472B490220B047BEE713201C4B984769
:100E000028490220B047B7E72846194B984726499A
:100E10000220B047B0E71320154B98472349022022
:100E2000B047A9E71620124B984728462049B047FB
:100E3000A2E717200E4B98471E490220B0479BE7B8
:100E400017200B4B98471C490220B04794E712200B
:100E5000074B984755E700BF6C0F0020111E01009B
:100E6000E8F1010084F00100C101010000800041AF
:100E7000CD010100D50B0000D10A00006CEE01008D
:100E800044F00100C8F00100E8EE0100BCF10100EF
:100E9000F8F0010028F1010054F101008CF101008B
:100EA00094EE0100BCEE0100FCEF010010EF010028
:100EB00048EF010074EF0100B0EF01002DE9F04FA1
:100EC000354FDFF80891354CDFF804B1344E354D1D
:100ED000DFF800A185B0B8470DF11008324B48F893
:100EE000040D012200934FF47A7100232F48C84764
:100EF0002F4B60640122142100932E480023C84721
:100F0000D4F844906063B847002302460121484664
:100F10000093DFF8C490C847DFF8C0904FF47A61BF
:100F20001CE094F82030617F227F9B0003EB41039B
:100F300094F82210134494F8212003EBC10303EB2F
:100F400002132370B847A36C1BB1C31AB3F57A7FA1
:100F500002D3194BA0649847C84715214046D8478B
:100F6000164B9847B04708B12B7873B1144B98478C
:100F700008B12B7863B1B047D0472B78002BD0D085
:100F800094F82230DB002370DCE70E4B9847EDE746
:100F90000D4B9847EFE700BF4D5401006C0F002048
:100FA000ED72000010000020D10200002CF20100C0
:100FB000390A000040F2010025050000F906000092
:100FC000296F0000350300009D05000055600100F9
:100FD0007556010079060000A9600100390C000077
:100FE000094B83F8320000B9704770B4074D084CC4
:100FF00083F83110012683F8302008466E702346AE
:10100000002170BC184700BF6C0F002010000020AA
:10101000D10A0000034A044B4FF00041C2F894107B
:10102000187070470080004110000020014B1878B4
:10103000704700BF6C0F0020014B1870704700BF55
:101040006C0F0020004B18470D38000070B5064D9E
:10105000064C4FF400166E613220A047AE61234665
:101060006420BDE870401847008000410D38000042
:10107000024B4FF400225A61704700BF00800041CC
:10108000024B4FF400229A61704700BF008000417C
:1010900030B587B006AB002503F8110D012403A974
:1010A000034A0448039304950594904707B030BD64
:1010B000397D000070B00020F0B58BB00023082906
:1010C0000393029314D80AAD0A46552105F8211D51
:1010D00002AE044607A9049601270648064E059469
:1010E0000692089307950997B04704A90148B047AD
:1010F0000BB0F0BD70B00020397D000010B5034B7F
:101100009847034BBDE81040184700BF6D20000012
:1011100045700100F8B5094C07466FF0B9000E465E
:101120001546A0473846A0473046A0472846A04766
:10113000034B9847034B98470120F8BD9D280000BA
:10114000C1280000552E000008B56FF0B600074B0F
:101150009847074B9847074B9847074B07489847CE
:10116000A0F10200B0FA80F0400908BD9D280000FF
:10117000C1280000552E000029280000F02530006D
:1011800008B5074B9847074B9847074B9847074BBD
:1011900007489847A0F10300B0FA80F0400908BD65
:1011A000E12D0000C1280000552E00002928000074
:1011B000F0253000830709D10B469B0606D1930723
:1011C00010B405D000205DF8044B70470020704734
:1011D000014B5DF8044B1847151100002DE9F84F3D
:1011E0006FF0E400DFF82091DFF820A1DFF820B1F4
:1011F000374D384E384FDFF81C81C8474FF47F20F9
:10120000C847FF20C8474FF48050C8471420D04734
:10121000D847324B98474FF47F2419E02968B047EC
:101220006968201DB047A96804F10800B047E96863
:1012300004F10C00B047296904F11000B047696956
:1012400004F114001834B047444505F1180503D0E3
:101250006B69BB422046E1D0214C1F4BD4F8AC2631
:101260009A4218D0D4F8B0161E48B0476FF0B800B4
:10127000C8471D48C8474FF47F20C8474FF48050E7
:10128000C8471420D047D847144B98471420D0475C
:101290000120BDE8F88FD4F894161448B047D4F86C
:1012A00098161348B047D4F89C161248B047D4F8A3
:1012B000A0161148B047D4F8A4161048B047D4F887
:1012C000A8160F48B047D4F8AC160E48B047C9E787
:1012D000C00F0020B5250000CAF00F53552E0000A6
:1012E000BC0F0020FCFF0F0000108000D0FF0F009B
:1012F000D4FF0F00D8FF0F00DCFF0F00E0FF0F004E
:10130000E4FF0F00E8FF0F009D28000045100000DB
:10131000C128000090F60F0030B408B10138C0B207
:101320000F4B104D002204E00132462A03F118034E
:1013300013D01C68A042F7D15C69AC42F4D10A4BCF
:1013400002EB420203EBC20201209568D4681369E4
:101350008B600D604C6030BC7047002030BC704723
:10136000C00F0020CAF00F53BC0F00202DE9F0473A
:10137000504B82B09847002862D04F4B98470446A4
:10138000002855D04D4F4E4B3846022220F8042BF2
:1013900000214FF4D26298474FF4805249494A4B9A
:1013A0004FF47F2098470446002877D0474EDFF857
:1013B0005081DFF850913C1D4FF47F254FF0000A1B
:1013C00003E04D4504F1180443D02846B04720609F
:1013D000281DB047606005F10800B047A06005F126
:1013E0000C00B047E06005F11000B047206105F146
:1013F0001400B0474045606105F1180529D1236804
:10140000002BDEDAB7F8B406216900EB800207EBA7
:1014100082020130C2F8C836636882F8C4A6C2F8F6
:10142000C0A6A7F8B406C2F8BC16C2F8B836C8E71A
:101430002749284B04209847204602B0BDE8F08792
:1014400004462549234B04209847204602B0BDE8B6
:10145000F0872248B047C7F894062148B047C7F83C
:1014600098062048B047C7F89C061F48B047C7F801
:10147000A0061E48B047C7F8A4061D48B047C7F8E5
:10148000A8061C48B047C7F8AC061B48B047012463
:10149000C7F8B006204602B0BDE8F0874FF480538D
:1014A000009316490B4D03F500034FF47F220420EF
:1014B000A847C1E74911000081110000BC0F0020BE
:1014C000C1920100001080001511000019270000D2
:1014D0006CF20100111E010054F20100D0FF0F0058
:1014E000D4FF0F00D8FF0F00DCFF0F00E0FF0F005C
:1014F000E4FF0F00E8FF0F00FCFF0F008CF201007B
:10150000CAF00F5390F60F00F0B4094C094ED4F80E
:10151000AC7604F2946405460FCC0FC594E807003E
:1015200085E80700B81BB0FA80F04009F0BC7047AE
:10153000BC0F0020CAF00F5370B405460FCD054C08
:10154000054E0FC495E80700334684E8070070BCD9
:10155000184700BF50160020DD11000010B50A4BDF
:101560000A48984700210A4B0A4898470A4B044604
:1015700006489847844200D810BD21460348074BCF
:10158000BDE81040184700BF0577000020B00020DC
:10159000B1070100DCF20100599600002996000015
:1015A0000146014B014818472978000020B000206F
:1015B0002DE9F043114C124B89B006A920469847FB
:1015C0002046104B9DF81A409DF819509DF8186060
:1015D0009DF81D709DF81C80BDF81E90984722460E
:1015E0000490CDF80C908DE8C0012B460649074CBD
:1015F0000220A04709B0BDE8F08300BF20B0002062
:101600002978000059960000E4F20100111E010043
:1016100030B51A491A4D1B4C83B0A847A047C0B239
:1016200018288CBF00238DF80600144988BF8DF858
:1016300006300020A847A047C0B23B288CBF00233B
:101640008DF805000D4988BF8DF805300020A847AA
:10165000A047C0B23B288ABF00238DF804008DF854
:10166000043001A9084B09489847094B0748984797
:10167000084B01460848984703B030BD08120200E5
:1016800085AA0100B58A01003177000020B0002052
:101690005996000085060100DCF2010030B51F49B3
:1016A0001F4D204C83B0A847A047C0B20C288CBF68
:1016B00001238DF80500194988BF8DF805300020F9
:1016C000A847A047C0B21F2894BF8DF8040001238B
:1016D000124988BF8DF804300020A847A04780B287
:1016E000632898BF00F5FA6040F2D97398BF80B2C2
:1016F000984298BF40F2E573ADF8060001A998BF83
:10170000ADF806300848094B9847094B06489847FA
:10171000084B01460848984703B030BD14F3010058
:1017200085AA0100B58A010020B00020B177000031
:101730005996000085060100DCF20100FEE700BFBB
:101740001B491C4A914208B50ED01B4882420BD25D
:10175000D343034423F003030433134451F8040B2D
:1017600042F8040B9A42F9D1144A15498A420AD226
:10177000D3430B4423F0030304331344002142F802
:10178000041B9A42FBD10F4A0F4B22F07F029A6052
:10179000D3F8882042F47002C3F88820BFF34F8F3B
:1017A000BFF36F8F094B9847094B9847FEE700BF7F
:1017B000F043020000000020500F0020500F0020D6
:1017C000F8B100200000000000ED00E0398B0100BE
:1017D00015CA0000F0B4674B6748684D684F694E02
:1017E0004FF0404208245C6098629A6293F843107C
:1017F00001F0FE0141F0010183F8431093F831102C
:1018000001F00F0141F0100183F831104FF48071A5
:10181000C3F88410C3F8A850C3F8A82093F8C810E0
:1018200001F0FE0141F0010183F8C81093F8B410F3
:1018300001F0F00141F0010183F8B410102159606A
:101840009F629A6293F8441001F0FE0141F0010199
:1018500083F8441093F8321001F0F00141F00101D7
:1018600083F83210402159609E629A6293F84610C4
:1018700001F0FE0141F0010183F8461093F83310A6
:1018800001F0F00141F0010183F83310803D802127
:1018900059609D629A6293F8471001F0FE0141F091
:1018A000010183F8471093F8331001F00F0141F064
:1018B000100183F8331007F57C774FF4806159608D
:1018C0009F629A6293F84A1001F0FE0141F0010113
:1018D00083F84A1093F8351001F0F00106F5F86628
:1018E00041F001014FF4006783F835105F609E629C
:1018F0009A6293F84B1001F0FE0141F0010183F868
:101900004B1093F8351001F00F017C3D41F01001B0
:10191000042683F83510C3F88460C3F8A850C3F8D0
:10192000A82093F8C21001F0FE0141F0010183F8F4
:10193000C21093F8B11001F0F00141F0010183F8F9
:10194000B110C3F88440C3F8A800C3F8A82093F8E6
:10195000C32002F0FE0242F0010283F8C32093F894
:10196000B12002F00F0242F0100283F8B120F0BC67
:10197000704700BF008000410800004000010040A7
:10198000100000404000004010B5094A0948136AA1
:10199000094943F0800342241362C0F8204188477C
:1019A000002206490648074BBDE81040184700BF13
:1019B00000080040001C0040D5170000001C004338
:1019C00018B00020DD73000010B4184B184A1948F5
:1019D00004244FF040415C609A62996293F842207F
:1019E00002F0FE0242F0010283F8422093F8312017
:1019F00002F0F00242F00102202483F831205C6002
:101A00009862996293F8452002F0FE0242F00102CA
:101A100083F8452093F8322002F00F0242F01002C2
:101A200083F832205DF8044B704700BF008000410E
:101A3000040000402000004070B5084A084D136AB9
:101A4000084C0949094843F4007342261362C5F85B
:101A50002861A047064BBDE87040184700080040C9
:101A6000001C0040657800000024004340B00020C6
:101A7000C9190000F0B4234A234C244B244E2548B6
:101A8000254D26494427C2F890706269202742F408
:101A900080626261C3F88470C3F8A860C3F8A800CC
:101AA00093F8C52002F0FB0283F8C52093F8C52007
:101AB00002F0FE0242F0010283F8C52093F8B22042
:101AC000402402F00F0283F8B220C3F88440C3F828
:101AD000A850C3F8A80093F8C62002F0FB0283F8D0
:101AE000C62093F8C62002F0FE0242F0010283F8FD
:101AF000C62093F8B32002F0F00283F8B320F0BCC4
:101B0000084700BF001C0040000800400080004162
:101B100020000240000002C040000240CD790000D9
:101B2000164B93F8482002F0FB0283F8482093F804
:101B3000482002F0FE0242F0010283F8482093F8A8
:101B4000342002F0F00242F0020283F8342093F8CD
:101B5000492002F0FB0283F8492093F8492002F063
:101B6000FE0242F0010283F8492093F8342002F08B
:101B70000F0242F0200283F83420704700800041B9
:101B800070B50A4B0A4A0B4C0B490C4842264325B8
:101B9000C3F89C60C3F88C50536943F4805353617D
:101BA000A047074BBDE87040184700BF001C00402D
:101BB00000080040057B000000300040D4B0002049
:101BC000211B000070B4284B284D294E29482A4972
:101BD0004FF480324FF080445A619A609C629D625B
:101BE00093F8502002F0FE0242F0010283F85020E8
:101BF00093F8382002F0F0024FF4003542F0020270
:101C000083F838205D619D609C629E6293F851204C
:101C100002F0FE0242F0010283F8512093F83820CE
:101C200002F00F0242F020024FF4802483F83820A3
:101C30005C609862996293F8522002F0FB0283F88C
:101C4000522093F8522002F0FE0242F0010283F883
:101C5000522093F8392002F0F00242F0020283F899
:101C6000392070BC704700BF00800041010000C0F7
:101C7000020000C000000240040002C070B50A4B20
:101C80000A4A0B4C0B490C4842264325C3F8A06076
:101C9000C3F88C50536943F400535361A047074B7A
:101CA000BDE87040184700BF001C0040000800401D
:101CB000957C00000034004070B00020C51B00007F
:101CC000104B93F8572002F0FE0242F0010283F815
:101CD000572093F83B2002F00F0242F0300283F8C5
:101CE0003B2093F8562002F0FE0242F0010283F8F6
:101CF000562093F83B2002F0F00242F0030283F8F2
:101D00003B2070470080004170B50A4B0A4A0B4CDB
:101D10000B490C4842264325C3F80C61C3F88C508C
:101D2000136A43F0020313620022A047064BBDE88A
:101D300070401847001C004000080040D980000097
:101D40000004004388B00020C11C000070B5114998
:101D5000114C8B69114A124843F4005344258B619E
:101D6000C4F8E85092F84D3003F0FE0343F001034D
:101D700082F84D3092F8363003F00F0343F0400301
:101D800082F8363080470749074B0246BDE870406D
:101D90000648184700080040001C00400080004131
:101DA000E1AB000000A00141D97B0000D8AF0020CA
:101DB00070B51149114CCB69114A124843F0200308
:101DC0004425CB61C4F8F85092F8CD3003F0FE03FF
:101DD00043F0010382F8CD3092F8B63003F00F03E0
:101DE00043F0400382F8B63080470749074B02466C
:101DF000BDE870400648184700080040001C00403D
:101E000000800041E1AB000000140042D97B0000DB
:101E100094B0002070B51149114CCB69114A124899
:101E200043F040034425CB61C4F8F85092F8CF301A
:101E300003F0FE0343F0010382F8CF3092F8B7308D
:101E400003F00F0343F0400382F8B730804707499F
:101E5000074B0246BDE8704006481847000800409E
:101E6000001C004000800041E1AB0000001800426F
:101E7000D97B0000B8AF002070B51149114C8B69B7
:101E8000114A124843F4006344258B61C4F8E450BE
:101E900092F8DE3003F0FE0343F0010382F8DE30F7
:101EA00092F8BF3003F0F00343F0060382F8BF302E
:101EB00080470749074B0246BDE87040064818476F
:101EC00000080040001C004000800041C5A5000043
:101ED00000600141D97B000098AF002070B5114926
:101EE000114C8B69114A124843F4805344258B618D
:101EF000C4F8E45092F84C3003F0FE0343F00103C1
:101F000082F84C3092F8363003F0F00343F00603C9
:101F100082F8363080470749074B0246BDE87040DB
:101F20000648184700080040001C0040008000419F
:101F3000C5A5000000800141D97B0000F8AF00205A
:101F400070B51149114C0B6A114A124843F0100345
:101F500044250B62C4F8185192F8CE3003F0FE030A
:101F600043F0010382F8CE3092F8B73003F0F0036B
:101F700043F0050382F8B73080470749074B024614
:101F8000BDE870400648184700080040001C0040AB
:101F900000800041C5A5000000100043D97B00006F
:101FA000B4B0002010B4204B2049214C4FF0807277
:101FB0004FF080409A60986299625A6193F8582075
:101FC00002F0FB0283F8582093F8582002F0FE023A
:101FD00042F0010283F8582093F83C2002F0F0020E
:101FE00042F007024FF0007183F83C20996098623C
:101FF0009C62596193F8592002F0FB0283F8592042
:1020000093F8592002F0FE0242F0010283F85920B1
:1020100093F83C2002F00F0242F0700283F83C205B
:102020005DF8044B704700BF00800041000100C014
:10203000000200C010B5094A094B0A494520C2F800
:10204000A8001A6942F480621A619A6942F001029A
:102050009A618847044BBDE810401847001C0040B7
:102060000008004045830000A51F000070B52F4BFD
:102070002F4C98472F4B3048304A31494FF40005D8
:10208000C3F88450C3F8A800C3F8A82093F8D72059
:102090002C4D02F0FB0283F8D72093F8D72002F0F2
:1020A000FE0283F8D7208847274B9847274B98474D
:1020B00063692749274A284843F4007363619047BE
:1020C000264B9847264B9847264B98472648274B40
:1020D000984763692649274A43F480434220636155
:1020E000C1F8A40090472449244B0246244898474D
:1020F000244B9847244B9847244B9847244B9847A8
:10210000244B9847244B9847244B984763692449AC
:1021100043F48073636148220120A8472148224A82
:10212000224B0260BDE87040184700BF11900000CC
:10213000000800400080004100000240800002C012
:1021400089190000E5860000391A0000751A0000A0
:1021500000240040C176000020B00020811B000058
:102160007D1C0000091D000010E000E05179000016
:10217000001C0040DDAB000000380040ED7E000098
:1021800054B000204D1D0000B11D0000151E0000C0
:10219000791E0000DD1E0000411F000035200000F8
:1021A00018F301001CB0002000200040A5BD000075
:1021B0002DE9F047344C354E354B3648DFF8DC809E
:1021C000DFF8DC90344D01274FF40062522198472C
:1021D00021463A4630682770C0473A462146306863
:1021E000C84723783068277063F07F0321460222B6
:1021F00063704FF0030AC0473A462146306884F8BE
:1022000000A0C0473A4621463068C8472378306866
:1022100084F800A063F03F03214602226370C047A8
:102220004A2220215220A8472B2221215220A847B0
:102230003A2222215220A847002223215220A847D7
:10224000602224215220A847C02225215220A847DD
:10225000CB2226215220A847B02227215220A8476E
:10226000092228215220A847B92229215220A84713
:102270000D222A215220A8472B460C222B21522026
:10228000BDE8F047184700BF1CB1002014B1002082
:10229000497B0000D4B00020E1BF0000697B000052
:1022A000997B000038B50C4C0C4B0546702120681A
:1022B000984718B90A490B4B0320984729460A4BFF
:1022C00052209847002305461A462068074C1946B5
:1022D000A047284638BD00BF6CAF0020F14D01007B
:1022E00034F30100111E0100C5BE0000B149010018
:1022F0002DE9F843DFF8D090284B06467021D9F835
:1023000000009847002844D04FF400625221244C2A
:102310002448254B254D264F98474FF00108FF2EA6
:10232000286884F800802146424621D8B8474246B2
:102330002146204B286898472378286884F8008035
:1023400023F00103214602226370B847286814492C
:102350006670002502222570B847174CD9F8000096
:102360002B462A462946A047144B1E80BDE8F88319
:10237000B8474246214628680E4B9847237828687C
:1023800084F8008043EA0803214602226370B847BC
:10239000DCE70B490B4B03209847B5E7F14D0100F3
:1023A0001CB10020D4B00020497B000014B10020F3
:1023B000697B0000997B0000B1490100F01B0020FF
:1023C00048F30100111E01006CAF0020014BB3F96E
:1023D00002007047F01B0020F8B5184E184B30680B
:1023E0007021984720B34FF40062164B1648174FE0
:1023F000174D5221984711215220B8471221044607
:1024000052202C70B847002328701A4619463068AD
:10241000104EB0472B78240223449BB218B2B0F57B
:10242000005FA4BFA3F5804318B20B4B5880F8BDE2
:102430000A490B4B032098470A48F8BD6CAF0020AF
:10244000F14D0100497B0000D4B00020C5BE000062
:102450001CB10020B1490100F01B00205CF3010019
:10246000111E010018FCFFFF2DE9F043002583B089
:10247000DFF86490154FDFF864802E462C4608E0A4
:102480009D421CD001341D4600268C2B09DD632C97
:1024900007DCC8471420B847B8F9023013F57A7F33
:1024A000EED100932246334609490A4C0220A04748
:1024B0004FF4FA703B4603B0BDE8F04318470136CD
:1024C0000E2E04F10104E0DDEBE700BF0D38000043
:1024D00074F30100111E0100D9230000F01B00203D
:1024E00030B5184C184B83B09847B4F9021011F569
:1024F0007A7F19D0B4F904308B4218D0E268A180F9
:1025000001320023E260A3608B290BDC00910F4DA8
:102510000F490220A84700230120A360E360A380A5
:1025200003B030BD642AF1DC002003B030BDA368E5
:10253000E268A180013301320E2BA360E260E5DC8A
:10254000E2E700BFF01B0020D9230000111E0100AC
:1025500074F3010070B50F4D0F4B064653212868E8
:10256000984718B90D490E4B032098470D4B0E4C58
:1025700098473046A0470020A0470020A0470B4BBB
:102580000B4C984700232868A4461A461946BDE814
:102590007040604784AF0020F14D0100BCF30100A2
:1025A000111E010071100000911000008110000048
:1025B000B14901002DE9F041164F174B06460D4673
:1025C00038685321984718B91449154B0320984788
:1025D000144B154C9847C6F3064040F08000A047C6
:1025E000C6F30720A047F0B2A047E8B2A047C5F362
:1025F0000720A047C5F30740A047280EA0470B4B74
:102600000B4C984700233868A4461A461946BDE883
:10261000F041604784AF0020F14D0100CCF3010090
:10262000111E0100711000009110000081100000C7
:10263000B14901002DE9F041134E144B05460F46F8
:1026400030685321984718B91149124B0320984715
:10265000114B124C9847C5F3064040F08000A0474C
:10266000C5F30720A047E8B2A047F8B2A047380A50
:10267000A0470B4B0B4C984700233068A4461A46E2
:102680001946BDE8F041604784AF0020F14D0100DC
:10269000D8F30100111E010071100000911000001C
:1026A00081100000B14901002DE9F041124E134B99
:1026B00005460F4630685321984718B91049114B09
:1026C00003209847104B114C9847C5F3064040F043
:1026D0008000A047C5F30720A047E8B2A0473846CE
:1026E000A0470B4B0B4C984700233068A4461A4672
:1026F0001946BDE8F041604784AF0020F14D01006C
:10270000E4F30100111E010071100000911000009F
:1027100081100000B149010070B51A4E1A4B82B009
:10272000054653213068984718B91849184B0320BB
:102730009847184B184C9847C5F30540A047C5F378
:102740000720A047E8B2A04704210DEB0100134B7E
:10275000134C9847134B984700231A461946306884
:10276000A0479DF806309DF805109DF804209DF8BF
:1027700007001B0403EB0123134403EB006002B0CA
:1027800070BD00BF84AF0020F14D0100F0F30100E7
:10279000111E01007110000091100000B91000001E
:1027A000B14901008110000070B5164E164B82B081
:1027B000054653213068984718B91449144B032033
:1027C0009847144B144C9847C5F30540A047C5F3F0
:1027D0000720A047E8B2A04701A802210F4B104CE8
:1027E0009847104B984700231A4619463068A0476F
:1027F0009DF805309DF8040000EB032080B202B084
:1028000070BD00BF84AF0020F14D0100FCF301005A
:10281000111E01007110000091100000B91000009D
:10282000B14901008110000070B5134E134B82B006
:10283000054653213068984718B91149114B0320B8
:102840009847114B114C9847C5F30540A047C5F375
:102850000720A047E8B2A04701A801210C4B0D4C6E
:1028600098470D4B9847002330681A461946A047F1
:102870009DF8040002B070BD84AF0020F14D01004E
:1028800008F40100111E01007110000091100000F9
:10289000B9100000B14901008110000010B5064CCC
:1028A000064B2288014602F54210984723880433DC
:1028B000C3F30B03238010BD001C0020B5250000CE
:1028C000024B03481988034B184700BF001C002027
:1028D000FC2030003526000030B5154D154B28681A
:1028E00083B053219847E8B1134B144C98473020DC
:1028F000A0472020A0470020A04701A80121104B9D
:10290000104C9847104B9847002328681A461946E0
:10291000A0479DF80400A0F17C00B0FA80F04009C7
:1029200003B030BD09490A4B03209847DCE700BFDC
:1029300084AF0020F14D01007110000091100000E3
:10294000B9100000B14901008110000014F4010029
:10295000111E010070B5484B484C494D9847442022
:10296000A0470020A0474FF49670464B984740F28E
:10297000E934A84720B9A847013CFBD1204670BDE7
:102980004FF44020404C414EA04741494148B04798
:10299000414B4248984740F6FF73984255D0404D0E
:1029A0004048414C0021A84700214048A8474FF427
:1029B00068713F48A04758213E48A04700213E4843
:1029C000A04730213D48A04740F20D213C48A04798
:1029D00020213C48A04700213B48A04703213B4819
:1029E000A04700213A48A84701213A48A8474FF498
:1029F00048713948A0474FF4F0713848A04700218A
:102A00003748A84701213748A8474FF400413648C6
:102A1000A0474FF400412348A047FA213348A0477C
:102A200000213348A84733494FF44010B04732499A
:102A30003248B04700213248B04702213148A84708
:102A400005211A48A847012070BD2F48144DA04702
:102A5000012104462D48A84700211048A84700211D
:102A60002B48A84700212B48A84700212748A84702
:102A700021462548B04793E74D100000552500003A
:102A8000D92800004510000019270000B5250000D6
:102A9000008793030C203000A9270000F8203000A5
:102AA000A92600009C203000352600007020300050
:102AB0002C20300030203000382030003C20300006
:102AC00040203000442030004C20300050203000A6
:102AD000642030006C20300034203000482030006A
:102AE000682030006020300098203000D020300076
:102AF000D4203000FF000002070000260400300050
:102B00000800300054203000629130002020300056
:102B1000FC203000002130002DE9F047174C184E02
:102B2000258881468A4605F542106FF0D101174687
:102B30009846B04725880435C5F30B0505F54210C6
:102B400049EA0A412580B04725880435C5F30B05BD
:102B500047EA084105F542102580B04723880899C7
:102B60000433C3F30B0303F542102380B0472388DB
:102B70000433C3F30B032380BDE8F087001C00205F
:102B8000B52500002DE9F04F81B0474C0A9D07465E
:102B90002846884691469A46A0471FFA80FBBBF11B
:102BA000000F02D101B0BDE8F08F4FEA9B04601C1A
:102BB00004213E4B98470646002C72D0601E80B21E
:102BC00006EB80002A46311F937892F803E092F8D2
:102BD00000C01B0443EA0E6392F801E043EA0C03D1
:102BE00043EA0E2341F8043F814202F10402EBD193
:102BF000A3001BF0030B13D09B4456F824001FFACC
:102C00008BFB4FEA840E0021EA5C01339BB28A40C1
:102C10005B4540EA020001F10801F5D146F80E00DB
:102C2000DFF894B0224DBBF800006FF0F30100F51F
:102C30004210A847BBF800300433C3F30B0347EA44
:102C4000084103F54210ABF80030A847BBF800304C
:102C50000433C3F30B0303F5421049EA0A41ABF80E
:102C60000030A847BBF800000430C0F30B00ABF8FD
:102C700000000027BBB200F5421056F82310A84709
:102C8000BBF8000001370430BBB2C0F30B009C421C
:102C9000ABF80000EED2074B304601B0BDE8F04F74
:102CA00018472346A5E700BF81990100BD8A0100AE
:102CB000B5250000F18B0100001C0020F8B5114C77
:102CC000114D238807460E4603F542106FF0C001F0
:102CD000A84723880433C3F30B0303F54210394696
:102CE0002380A84723880433C3F30B0303F5421062
:102CF00031462380A84723880433C3F30B03238082
:102D0000F8BD00BF001C0020B52500002DE9F041F2
:102D1000164C174D238880460F4603F542106FF07E
:102D2000C4011646A84723880433C3F30B0303F5F5
:102D3000421041462380A84723880433C3F30B0382
:102D400003F5421039462380A84723880433C3F390
:102D50000B0303F5421031462380A8472388043330
:102D6000C3F30B032380BDE8F08100BF001C0020EB
:102D7000B52500002DE9F047174C184E25888246EE
:102D8000884605F542106FF0BC011F469146B047DA
:102D900025880435C5F30B0505F5421051462580FD
:102DA000B04725880435C5F30B0548EA094105F508
:102DB00042102580B04722880432C2F30B02394604
:102DC00002F542102280B04723880433C3F30B037B
:102DD0002380BDE8F08700BF001C0020B52500005F
:102DE00038B50B4C0B4D20886FF0B50100F5421043
:102DF000A84723880433C3F30B0303F542100021D3
:102E00002380A84723880433C3F30B03238038BDF2
:102E1000001C0020B525000070B50C4C0C4D23881B
:102E200006466FF0EA0103F54210A84723880433F1
:102E3000C3F30B0303F5421031462380A8472388D0
:102E40000433C3F30B03238070BD00BF001C0020BC
:102E5000B52500002DE9F04FDFF8B8A0214FDFF8CD
:102E6000B88083B003E02048D047834536D01F4860
:102E7000D04740F6FF7398428346F4D11C4CDFF8EC
:102E80009C901C4E01E0444509D02046B84731468D
:102E90000546024601A80134C847002DF3D1164B60
:102EA0001648174C9847012105461648A0470021AF
:102EB0000E48A04700210C48A04700211248A04717
:102EC00000211048A04729460C48104B9847FA208B
:102ED0000F4B98470448D0478345C8D103B0BDE89D
:102EE000F08F00BF29280000FC203000F8203000BF
:102EF0000098300028F4010019270000629130008A
:102F0000A92600002020300000213000B525000057
:102F100045100000A927000080983000319401007E
:102F200010B5024604460549054B03209847054B5A
:102F30004FF000629A61204610BD00BF60F40100AE
:102F4000111E01000080004170B50546054CC0F31C
:102F50000740A047C5F30720A047E8B22346BDE8D5
:102F600070401847D1F400002DE9F8431C4D81460C
:102F70008846A84702281FD01A4E1B4C4FF0006706
:102F80007761AD20A047194B4846984798F8000054
:102F9000A04798F80100A047B7610446A847022857
:102FA00016D0002C02DB2046BDE8F8832046104BEB
:102FB00098472046BDE8F8830E4A0F4B106853210E
:102FC00098470028D8D10D490D4B03209847D3E7E7
:102FD000084B0C4D186800231A461946A847E0E72D
:102FE000215B010000800041D1F40000492F000066
:102FF000212F000084AF0020F14D010074F4010086
:10300000111E0100B1490100F8B5164DA84702286C
:1030100014D0154E154B4FF0006777610420984788
:10302000B7610446A847022814D0002C01DB2046D3
:10303000F8BD20460E4B98472046F8BD0D4A0E4B72
:103040001068532198470028E3D10C490C4B03200A
:103050009847DEE7074B0B4D186800231A461946C0
:10306000A847E2E7215B010000800041D1F40000A5
:10307000212F000084AF0020F14D010088F40100F1
:10308000111E0100B14901002DE9F04100293BD09A
:10309000B0F5001F38D21E4E0C460546B047022838
:1030A0001ED01C4F1C4B4FF00068C7F81480032043
:1030B00098471A4B284698472046194B9847C7F817
:1030C00018800446B047022816D0002C02DB2046A8
:1030D000BDE8F0812046134B98472046BDE8F081BB
:1030E000114A124B1068532198470028D9D1104932
:1030F000104B03209847D4E70B4B0F4D1868002363
:103100001A461946A847E0E74FF0FF34DFE700BF53
:10311000215B010000800041D1F40000492F000034
:103120001DF50000212F000084AF0020F14D0100AB
:1031300098F40100111E0100B14901002DE9F04190
:10314000002943D02C4B1446013A9A423ED8B0F5A0
:10315000001F07463AD2DFF8CC800D46C047022850
:1031600021D0264A264B4FF0006151610320984739
:10317000061E24DB3846234B9847061E29DB224FC8
:103180002846B847013C064605F10105F8D100285C
:1031900024DB1A4B4FF000629A61C047022822D00C
:1031A0003046BDE8F081194A194B10685321984701
:1031B0000028D6D11749184B03209847D1E7174B61
:1031C00098470028D6D03046BDE8F0814FF0FF3652
:1031D000E6E7124B98470028E2D1D0E70F4B98471B
:1031E0000028DDD1D5E7094B0D4C186800231A469D
:1031F0001946A047D4E700BFFEFF1F000080004132
:10320000D1F40000492F00001DF5000084AF00201C
:10321000F14D0100A8F40100111E0100212F000052
:10322000B1490100215B010070B582B00023184C48
:103230008DF80730A04702281DD0164D164B4FF0D1
:1032400000666E6105209847144B0DF10700984702
:10325000AE61A047022803D09DF8070002B070BD00
:103260000F4B104C186800231A461946A0479DF8CA
:10327000070002B070BD0A4A0B4B106853219847F3
:103280000028DAD109490A4B03209847D5E700BF47
:10329000215B010000800041D1F400001DF5000019
:1032A00084AF0020B1490100F14D0100B4F40100E8
:1032B000111E01002DE9F04100283CD01F4E0446AC
:1032C000B04702281AD01E4F1E4D4FF00068C7F8B5
:1032D0001480AD20A8472078A8476078A847C7F891
:1032E00018800546B047022814D0002D1BDB164C71
:1032F000A047C307FCD42846BDE8F081134A144B0D
:103300001068532198470028DDD11249124B032041
:103310009847D8E70D4B114C186800231A461946F8
:10332000A047002DE3DA28460D4B98470028DED051
:103330002846BDE8F0814FF0FF35DCE7215B010056
:1033400000800041D1F400002932000084AF002049
:10335000F14D0100C4F40100111E0100B14901004A
:10336000212F0000F8B5164DA847022814D0154E9D
:10337000154B4FF00067776150209847B7610446BE
:10338000A847022814D0002C01DB2046F8BD2046B7
:103390000E4B98472046F8BD0D4A0E4B106853213E
:1033A00098470028E3D10C490C4B03209847DEE7EF
:1033B000074B0B4D186800231A461946A847E2E749
:1033C000215B010000800041D1F40000212F0000AA
:1033D00084AF0020F14D0100D4F40100111E010062
:1033E000B14901002DE9F0411A4B1B4D8046984729
:1033F000A847022819D0194E194C4FF00067776181
:103400000120A04708F0BC00A047B7610446A847C8
:10341000022816D0002C02DB2046BDE8F0812046B1
:10342000104B98472046BDE8F0810F4A0F4B1068BB
:10343000532198470028DED10D490E4B03209847B1
:10344000D9E7094B0C4D186800231A461946A847BE
:10345000E0E700BF65330000215B01000080004110
:10346000D1F40000212F000084AF0020F14D0100B5
:10347000E8F40100111E0100B1490100F8B5002077
:10348000174B184D9847A847022814D0164E174BD3
:103490004FF00067776106209847B7610446A84758
:1034A000022814D0002C01DB2046F8BD2046104B2A
:1034B00098472046F8BD0F4A0F4B10685321984794
:1034C0000028E3D10D490E4B03209847DEE7094B56
:1034D0000C4D186800231A461946A847E2E700BFBA
:1034E000E5330000215B010000800041D1F40000C1
:1034F000212F000084AF0020F14D0100F8F40100FD
:10350000111E0100B1490100224B98422DE9F047FC
:1035100003D900242046BDE8F0871F4B1F4E0D46FF
:1035200004469847B047022819D01D4FDFF8949001
:103530004FF00068C7F814800220C847194B204696
:1035400098472846C847C7F818800446B04702285D
:1035500011D0002C17DB144BBDE8F0471847134A75
:10356000134B1068532198470028DED11149124BA4
:1035700003209847D9E70D4B104D186800231A46D1
:103580001946A847E5E720460D4B98470028C1D1CA
:10359000E1E700BFFEFF1F007D340000215B01005A
:1035A00000800041492F00000930000084AF002056
:1035B000F14D010008F50100111E0100B1490100A3
:1035C000212F0000D1F4000051B3174B70B5541EE9
:1035D0009C4222D8B0F5001F1FD20D460446134B63
:1035E0001646984720462946114B9847022E05F16A
:1035F00002040ADDF21E22F0010204320D4E1544CF
:1036000020460234B047AC42FAD10B4A0B4B4FF084
:1036100000619161BDE8704018474FF0FF3070BD08
:103620004FF0FF30704700BFFEFF1F007D340000E9
:10363000692F0000B5320000008000410930000011
:103640002DE9F0410E4D0F4B0F4E104C98474FF0A7
:103650000067532128680E4B98470E4B7761602016
:1036600098470023B76128680B4D1A461946A847AA
:10367000A047C307FCD4094BBDE8F041184700BF81
:1036800084AF00207D34000000800041293200001A
:10369000F14D0100D1F40000B149010009300000F2
:1036A000B0F5001F70B530D2204B214E054698472B
:1036B000B04702281DD01F4A1F4B4FF000615161D7
:1036C00020209847041E1ADB1C4B284698470446C6
:1036D000B047022822D0174B4FF00062002C9A61AD
:1036E00016DB174DA847C307FCD4164B9847204656
:1036F00070BD154A154B106853219847DBE7144BF2
:1037000098470028E0D0204670BD4FF0FF34EEE728
:1037100020460F4B98470028E9D1E2E70A4B0D4DB0
:10372000186800231A461946A847D4E77D340000DC
:10373000215B010000800041D1F40000492F00000E
:10374000293200000930000084AF0020F14D010053
:10375000212F0000B1490100400007EE900ADFED83
:103760000D6A0D480D4BB8EE677A10B5C6EE877A34
:10377000FCEEE77A17EE901A01399847041E01DB38
:10378000204610BD22460649064B03209847204696
:1037900010BD00BF001B374B70B000200D7D000036
:1037A00018F50100111E0100024A1368013313606D
:1037B000704700BFF4B00020704700BF014B0022EB
:1037C0001A607047F4B00020014B1868704700BFC2
:1037D000F4B0002008B502460B46064C064904200A
:1037E000A0474FF0800383F31188BFF36F8FBFF3BF
:1037F0004F8FFEE7111E010054F50100024A1368C5
:1038000001331360704700BF041C002010B5074B44
:1038100004469847022804D0A0B2054BBDE81040EA
:1038200018472046034BBDE810401847215B0100B4
:103830006179000019570100F0B5032283B000211F
:103840000120854C854DA0472860002800F0AF80FE
:1038500000231A461946824EB0472A68814D00233C
:10386000194610461A46B047032200210120A047FE
:103870000246286020B100231A461946B0472A683C
:10388000794D0023194610461A46B04703220021FD
:103890000120A0470246286020B100231A4619469D
:1038A000B0472A68714F724C002319461046032511
:1038B0001A46B04700238DE8A0004FF400726D490E
:1038C0006D48A0473B68002B7DD06C4E6C496D481D
:1038D00000238DE860004FF40072A0473368002B8E
:1038E00068D0694E69496A4800238DE860004FF44A
:1038F000A062A0473368002B6ED0664E66496748C9
:1039000000238DE860004FF48072A0473368002BDD
:1039100000F08680624E6349634800238DE86000B2
:103920004FF48072A0473368002B70D05F4E60491F
:10393000604800238DE860004FF40072A0473368B0
:10394000002B5BD05C4E0196042300934FF4007271
:1039500000235A495A48A0473368002B45D0594E96
:1039600059495A4800238DE860004FF44072A0473F
:103970003368002B66D0564E5649574800238DE8D1
:1039800060004FF48072A0473368002B51D0534B36
:10399000534A1A61191D0122524C5348DA601A75B4
:1039A000A0475148514B03B0BDE8F04018470246CC
:1039B0002B4E53E74FF0800383F31188BFF36F8FD3
:1039C000BFF34F8FFEE74FF0800383F31188BFF3FF
:1039D0006F8FBFF34F8FFEE74FF0800383F31188A3
:1039E000BFF36F8FBFF34F8FFEE74FF0800383F37A
:1039F0001188BFF36F8FBFF34F8FFEE74FF0800347
:103A000083F31188BFF36F8FBFF34F8FFEE74FF043
:103A1000800383F31188BFF36F8FBFF34F8FFEE7EF
:103A20004FF0800383F31188BFF36F8FBFF34F8F85
:103A3000FEE74FF0800383F31188BFF36F8FBFF36E
:103A40004F8FFEE74FF0800383F31188BFF36F8F32
:103A5000BFF34F8FFEE700BF594901006CAF002054
:103A6000B149010084AF002088AF002078AF00206A
:103A700095510100A8F50100196200007CAF0020FB
:103A8000BCF501003D40010070AF0020D4F50100FD
:103A9000350201008CAF0020E8F5010035D30000AD
:103AA00090AF0020F4F50100BD8A000094AF002023
:103AB00008F601004DFF000074AF00201CF6010065
:103AC000BD0E000080AF002028F60100096D000047
:103AD00068AF00203CF60100ADCB0000041C0020C4
:103AE000A9370000657F000054B00020297F000046
:103AF00070B5194D194B1A4E04463D212868984758
:103B00002178184818220023B047174B14209847F3
:103B100000231A46606019462868144DA847D4ED62
:103B2000017A134B134DFCEEE77AF8EE677A17EE45
:103B3000900A98470022104BA84705A3D3E9002319
:103B40000E4DA8470E4B9847A06000EE100A70BDBE
:103B50000000000000FEAF4088AF0020F14D0100E2
:103B6000D574000018B0002099C00000B1490100D0
:103B7000658001000D810100000059406183010052
:103B8000FD860100000000002DE9F0432DED028BC1
:103B90003B4F3C4BDFF828813B4D3C4E044683B005
:103BA0003D21386898472178394818220023C047BA
:103BB000384B1420984700231A461946606138682C
:103BC000354FB847D4ED057A9FED347AD4ED016ACC
:103BD00094ED028AE068324F67EE877AB7EE007A9A
:103BE00067EEA66A77EE677AC6EEA78AA847804690
:103BF0008946D4ED047AB1EE487AC7EE276A16EE0C
:103C0000900AA847274B984702460B46404649462C
:103C1000B847B04707EE100AC8EE877A224F17EE72
:103C2000900AA847214B98478046894618EE100A0B
:103C3000A84742464B46B847B047A8471C4F0EA37B
:103C4000D3E90023B847B04700EE100AE06984EDDD
:103C5000060A8DED010AA8470022164D164BA8470B
:103C6000164B98479DED010A84F8200003B0BDEC87
:103C7000028BBDE8F08300BF66666666661271401F
:103C800088AF0020F14D010065800100FD86010034
:103C900018B0002099C00000B1490100000080392F
:103CA0000D810100897201006183010079730100B7
:103CB000A57D0100A97D01000000E03FBD86010057
:103CC000D574000070B5134B134D144E044698473D
:103CD00002280CBF3D2100212868114B984721780C
:103CE000104818220023B0470F4B14209847002398
:103CF00060601A4628680D4D1946A84794ED017A70
:103D0000D4ED097A94ED0A0AA7EE270A84ED020A97
:103D100070BD00BF215B010088AF0020D57400009A
:103D2000F14D010018B0002099C00000B149010018
:103D300070B5364E364B82B004463E213068984707
:103D400000283CD0334B98472178334B702098475C
:103D5000002839DB314D324B02209847314B294640
:103D600003224020984700282F4B3FDB9847002331
:103D70001A46194630682D4EB0472A786B789FED69
:103D80002C6ADFED2C6A03EB022307EE903AB8EEC3
:103D9000E77AFCEEC77A84ED017ACDED017ABDF8C1
:103DA000043007EE903AF8EE677AAB78237777EE37
:103DB000C67A87EEA60A84ED020A02B070BD1E49DB
:103DC0001E4B03209847BDE7174B98471C4A1368C2
:103DD0000133022B13DC136000233068134C1A46A6
:103DE0001946A0479FED170A02B070BD9847164BC1
:103DF0000A209847124A13680133022BEBDD00209A
:103E00006421124B82E803009847E5E76CAF00207D
:103E1000F14D0100354201000DBF00001CB1002032
:103E20000100002045BE000079420100B1490100B7
:103E300000000047000048444CF60100111E01003C
:103E40001C1C0020000000000D3800001DC00000F8
:103E500070B5364C6168002959DD01396160B4F8EC
:103E60009A31B4F89801324D83422CBF00235A1C7A
:103E700004EB8303D5F888609E6034BF92B20122C0
:103E8000A4F89A2100284BD02A4BDFED2B7A03EBC4
:103E90008002B3EC017A934277EE877AF9D107EE8C
:103EA000100AB8EE477A0029C7EE876AC4ED676A40
:103EB000C5ED236A30DD01396160B4F83633B4F8FA
:103EC0003413D5F8B4008B422CBF00235A1C04EBEA
:103ED000830334BF92B20122C3F8A401A4F83623AD
:103EE00009B3164BDFED147A03EB8102B3EC017AD0
:103EF0009A4277EE877AF9D107EE101AB8EE477A30
:103F0000C7EE876AC4EDCE6AC5ED2E6A70BD0C4857
:103F10000C4B98476168A2E70B480A4B9847CCE7DF
:103F2000DFED057ABBE7DFED047AE5E71C1C002036
:103F300014000020241C002000000000C01D0020F0
:103F400094000020313D0000C0000020F8B5544A24
:103F5000544B41F2140541F216000021322419524B
:103F60005C530A201E25A3F89A11A3F83613A3F870
:103F7000D214A3F86E16A3F80A18A3F8A619A3F88A
:103F8000421BA3F8DE1CA3F87A1EA2F8BA10A2F80E
:103F90005612A2F8F213642750264349A3F8404B67
:103FA000A3F8DC4CA3F8784EA3F86C76A3F898013C
:103FB000A3F83403A3F8D004A3F80808A3F8A409CD
:103FC000A2F8F063A2F8B850A2F8545202F51873A0
:103FD00002F57C7243F8041B9342FBD1334D344904
:103FE0003448354C354EA8473149C4F800013448AF
:103FF000A8473449C4F82C013348A8473149C4F8CC
:10400000FC003248A8473249C4F828013148A84783
:10401000314B324918603248A847324BE065984727
:1040200031493248A847324BC4F84C0198473149CE
:104030003148A84707EE900AFDEEE77A00212F48A5
:10404000C4ED4F7AA8472E4B4FF07E5118602D4893
:10405000A8474FF07E51C4F830012B48A8474FF0D5
:104060007E5120642948A8470021C4F83801284817
:10407000A8474FF07E51A0642448A8472549C4F8BA
:1040800034012548A84741F6641160642348B047CD
:1040900040F2FF11C4F844012148B0476065F8BD03
:1040A000142D00201C1C0020000080BFD907010037
:1040B000000040C15CF601001400002089070100E7
:1040C00068F60100CDCC4C3C70F6010078F601009A
:1040D0000E4F2F3D80F6010000B100200000A040EF
:1040E00088F60100C10D01000000A84190F6010012
:1040F000610D010000C05A4598F60100A0F60100CC
:1041000024310020A8F60100B0F60100B8F6010045
:10411000C0F6010000004040C8F60100D0F60100E2
:10412000D8F60100B0F89221B0F890319FED1E7AD8
:104130009A4228BF002210B438BF541C00EB820200
:1041400034BFA4B20124022B1160A0F8924180ED8B
:10415000657A22DDD0ED017ABFEE006AF4EE467A90
:10416000F1EE10FA19D0591E00F10802012306E001
:10417000F2EC017AF4EE467AF1EE10FA0DD0A34299
:1041800003F1010307D052ED026A77EEE67A37EECB
:10419000277A80ED657A8B42EAD180ED667A5DF808
:1041A000044B17EE100A704700000000184BD3EDC7
:1041B0005F7AB3EE027AF4EEC77AF1EE10FA1BD40E
:1041C000B3EE0F7AF4EEC77AF1EE10FA08D49FED51
:1041D000117AF4EEC77AF1EE10FA0FD5022070478B
:1041E00093ED6A7AF1EE047AB4EEE77AF1EE10FA22
:1041F00054BF012000207047002070479FED067AD1
:10420000F4EEC77AF1EE10FA4CBF0320002070479D
:104210001400002000005C420000A042054A08B5DE
:104220000121054B82F818149847012808BF82F82D
:10423000190408BD142D0020AD4100002DE9F04304
:10424000404C2DED048B94ED2E8AF5EE007AB4EE01
:10425000E78AF1EE10FA83B003DD3B4B9847012863
:104260000FD03A4B3A4C18EE100A98470B46394992
:1042700002460220A44603B0BDEC048BBDE8F04327
:104280006047D4ED238A94ED6A9A304D324E69EE40
:10429000287A17EE900AA84778EEC87A804617EE7B
:1042A000900A8946A84700222C4BB0472C4E024664
:1042B0000B4640464946B047804618EE100A8946EC
:1042C000A847284E02460B4640464946B047264B73
:1042D000984707EE900AB3EE057AF4EEC77AF1EE4E
:1042E00010FAC4F8C8011AD49FED208AF4EEC87AF7
:1042F000F1EE10FA0DDDA847154D02460B460220DF
:104300001B49A84784ED728A03B0BDEC048BBDE85D
:10431000F083A8470E4C0B4602461649A9E7A8476A
:10432000064619EE100A0F46A8473B46CDE90001A4
:104330003246074D10490220A847D4F8A831C4F8E6
:10434000C831E1E714000020AD41000065800100A4
:10435000111E010098F701000D8101000000354099
:10436000A57D010061830100FD8601000000C842B7
:1043700028F7010070F70100E0F6010000000000DE
:104380002DE9F0472DED028BC44CC54DC54E04F50B
:10439000CE7084B0B047B5F8BA30B5F8B810D4F8DC
:1043A000A401994294BF00235A1C05EB83038CBFE0
:1043B00092B2012243F8D80CA5F8BA20002900F0E7
:1043C0001E83B94BDFEDB97A03EB8102B3EC017ABE
:1043D0009A4277EE877AF9D107EE101AB8EE477A4B
:1043E000C7EE876AFCEEE67AC5ED2F6ACDED037A5B
:1043F0009DF80C30C4ED6A6A142B00F2C4811523B9
:1044000084F8AC31D5F81C345A1C0C2BC5F81C248C
:1044100000F0C681A648B047B5F85632B5F8541238
:10442000D4F878018B422CBF00235A1C05EB830380
:1044300034BF92B20122C3F8C400A5F85622002965
:1044400000F0DA829B4BDFED997A03EB8102B3EC4B
:10445000017A9A4277EE877AF9D107EE101AB8EE10
:10446000477A954AC7EE876AC5ED966AC4ED5F6ADA
:104470009047D5F82034834204D0012800F06982A7
:10448000C5F8200495F82834002B00F05F818B4E8E
:10449000D5F82434D5F8442423B902F59C432033BD
:1044A000C5F824349A4294ED6A8A00F29D81D6EDD3
:1044B000028A78EE687AB2EE067AF4EEC77AF1EE06
:1044C00010FA07DDF3EE047AB4EEE78AF1EE10FAA3
:1044D00000F3FD817A4D7B487B4E7C4FB047B5F8A9
:1044E000423BB5F8401BD4F8E801DFED707A8B420F
:1044F0002CBF00235A1C07EB830334BF92B2012266
:10450000A5F8422B186041B13B4607EB8102B3ECA2
:10451000017A9A4277EE877AF9D107EE101AB8EE4F
:10452000477A6B48C7EE876AC7ED656AC4ED7B6A58
:10453000B047B5F8DE3CB5F8DC1C664FD4F80C0289
:10454000DFED5A7A8B422CBF00235A1C07EB830302
:1045500034BF92B20122A5F8DE2C186041B13B466F
:1045600007EB8102B3EC017A9A4277EE877AF9D1B0
:1045700007EE101AB8EE477A5748C7EE876AC7EDBC
:10458000656AC4ED846AB047B5F87A3EB5F8781E1E
:10459000524FD4F83002DFED457A8B422CBF002316
:1045A0005A1C07EB830334BF92B20122A5F87A2E7E
:1045B000186041B13B4607EB8102B3EC017A9A42A5
:1045C00077EE877AF9D107EE101AB8EE477A4448A9
:1045D000C7EE876AC7ED656AC4ED8D6AB04741F2E0
:1045E000140241F21603A95AEB5A3E4ED4F8547203
:1045F000DFED2E7A8B422CBF00235A1C41F21600AD
:1046000006EB830334BF92B201221F602A5241B1EC
:10461000334606EB8102B3EC017A9A4277EE877A51
:10462000F9D107EE101AB8EE477A2F482F4FC7EE90
:10463000876AC6ED656AC4ED966AB847B5F80A3868
:10464000B5F808182A4ED4F8E000DFED187A8B424E
:104650002CBF00235A1C06EB830334BF92B2012205
:10466000A5F80A28186041B1334606EB8102B3EC85
:10467000017A934277EE877AF9D107EE101AB8EEF5
:10468000477A1C48C7EE876AC6ED656AC4ED396A89
:10469000B847B5F8A639B5F8A4192DE014000020E4
:1046A000142D0020F13A00003C2C002000000000F6
:1046B00084010020D82D0020AD41000040310020B1
:1046C0001C1C0020E4010020893B0000CC250020B8
:1046D00008020020682700202C0200200429002066
:1046E00050020020A02A0020EC000020C53C000061
:1046F0009422002018010020C948D4F80C61DFED95
:10470000C97A8B422CBF00235A1C00EB830334BFB1
:1047100092B20122A5F8A6291E6041B1034600EB22
:104720008102B3EC017A934277EE877AF9D107EEF2
:10473000101AB8EE477AC7EE876AC0ED656AC4ED15
:10474000446A04B0BDEC028BBDE8F08795F81834DC
:10475000002B00F0B680B44ED4ED537AD6ED028A29
:10476000B24BB34F78EEE77AF0EEE77A17EE900AA5
:104770009847A5A3D3E90023B84700287FF488AE63
:1047800094ED6A8A95E6642B88BF642384F8AC3183
:10479000D5F81C345A1C0C2BC5F81C247FF43AAEF7
:1047A00016EE901AA34BA448A14F9847D5EDFE7A78
:1047B000A24BFDEEE77A002217EE900A0028B8BF60
:1047C0004042C5F81C24984791A3D3E90023B84779
:1047D000002800F0C380D5F81434632B3FF71AAEDD
:1047E0000133C5F8143415E6F0EE007AB4EEE78A2A
:1047F000F1EE10FA40F39D80F3EE078AB4EEE88AFA
:10480000F1EE10FA40F195808D4B9847B0F5FA6FB4
:1048100040F38D8094ED538AD6ED027A834FDFF812
:10482000108277EEC87AF0EEE77A17EE900AB84772
:1048300075A3D3E90023C047002878D0D4F8B80086
:10484000DFF81882B84774A3D3E90023C0470028D3
:104850006DD0F3EE097AB4EEE78AF1EE10FA66DD78
:10486000D5F814340A2B62DDD4F8A801B847754F87
:1048700002460B4602207449B847D4ED537A94EDB2
:104880006A8AF4EEE87AF1EE10FA84ED728A10DBAF
:1048900000234FF08441D4F8402184ED538AC4F8BA
:1048A0005831C4F85C31C4F86031C4F8CC11C4F894
:1048B00064210023C5F8243485F8183485F8283499
:1048C000F5E5594B94ED6A8AD3ED028AF1E5D4ED12
:1048D000537A564E564F78EEE77AF0EEE77A17EEB7
:1048E000900AB04748A3D3E90023B84700283FF413
:1048F000F1AD95F81834002B7FF4ECAD94F86C31E1
:10490000002B3FF4E7AD012385F8183418EE900A28
:10491000B047804618EE100A8946B047494DCDE9A8
:10492000000142464B4649490220A847D2E594ED92
:104930006A8AF3EE047AB4EEE78AF1EE10FA7FF7B2
:10494000B6AD3F4B9847B0F5FA6F0ADC94ED6A8A32
:10495000ADE50023C5F82434904791E5C5F814046B
:1049600058E5D6ED028AD4ED537A304FDFF8C08097
:1049700078EEE77AF0EEE77A17EE900AB84722A3CE
:10498000D3E90023C04700283FF4FAAED4F8B800BA
:10499000DFF8C880B84720A3D3E90023C047002828
:1049A0003FF4EEAED5F814340A2B7FF7E9AED5F814
:1049B0002434D5F844242649DFF888A00220D047C3
:1049C000B068B8478046D4F8A8018946B84742463F
:1049D000CDE900014B461F490220D0471E4B9847A6
:1049E000002394ED6A8AD6ED028AC5F8243485F84E
:1049F000183485F828345CE5DFED0A7A2DE5DFED23
:104A0000097AE9E4AFF300809A9999999999D93F85
:104A1000666666666666EE3F333333333333D33FC1
:104A2000302400200000000040310020658001009B
:104A3000F185010025410000742F00204180010014
:104A4000CD230000111E0100D4F701008CF80100F5
:104A50000CF8010054F801003D4200002D860100D1
:104A60002DE9F0476E4D6F4CDFF8F8812DED028B8C
:104A700095ED238A18EE100AA04767A3D3E9002317
:104A800006460F46C04758B1D5ED2E8A18EE900A5B
:104A9000A04761A3D3E90023C047002840F08D80E0
:104AA000614F624E624D7E606249B1F8D234B1F816
:104AB000D00483422CBF00235A1C01EB830334BF74
:104AC00092B20122C3F84063A1F8D224002800F07A
:104AD0009E80594BDFED597A03EB8002B3EC017AEB
:104AE0009A4277EE877AF9D107EE100AB8EE477A44
:104AF000B1F86E36B1F86C06514ADFF86CC1DFF8D8
:104B00006CE1C7EE876A834228BF0023CEF80460B9
:104B1000DFED4A7AC2ED006A38BF5A1C0CEB830302
:104B200034BF92B20122C7ED026AA1F86E261E6060
:104B300040B163460CEB8002B3EC017A9A4277EE07
:104B4000877AF9D107EE100AB8EE477A16EE900A86
:104B500087EE878A3B4E3C4F8CED658A8EED028A4C
:104B6000A0470022394BA847B047394AC3B2A2FB3D
:104B700003239B0803EB8303DBB2142B17D8152305
:104B800087F8383418EE100AA0470022314BA847A6
:104B9000B047C0B2142833D964288ABF642387F889
:104BA000540487F85434BDEC028BBDE8F087642BC5
:104BB00088BF642387F83834E4E7D5ED727ADFF8EC
:104BC000B0A01B4D68EEA77A17EE900AA04778EECA
:104BD000687A804617EE900A8946A04700221E4B4D
:104BE000D04702460B4640464946A84732463B4618
:104BF0001A4E0D4FB0471A4B98470646786053E758
:104C0000152387F85434BDEC028BBDE8F087DFED47
:104C10000B7A69E7AFF300809A9999999999B93F0E
:104C20001400002065800100403100209A99AF41B6
:104C3000A97D01001C1C00205C1F0020000000005A
:104C4000F0200020BD860100142D0020000004404B
:104C5000CDCCCCCC0000E03F0000354061830100AA
:104C6000FD8601002D860100F82000205C31002027
:104C70000D81010000000000454BD3ED447A454B07
:104C8000B1EE087AF4EEC77AF1EE10FA2DE9F047AA
:104C9000414C25D917EE900A98472FA3D3E900235A
:104CA00006460F463D4DA0472DA3D3E90023A84754
:104CB0002DA3D3E900238046894630463946A047D4
:104CC00032463B46A047364C02460B4640464946D4
:104CD000A047344B9847344B58609860BDE8F08744
:104CE00017EE900A984722A3D3E9002306460F4601
:104CF0002A4DDFF8ACA0A0471FA3D3E90023A847A3
:104D00001FA3D3E900238046894630463946A04791
:104D100032463B46A04702460B4640464946D047EE
:104D200019A3D3E900238046894630463946A04777
:104D300032463B46A04732463B46A04702460B461A
:104D400040464946A847174B9847174B586098600C
:104D5000BDE8F087AFF30080F2D24D621058D93F22
:104D60005C8FC2F5285C0B40DE718A8EE4F26F3FE7
:104D700066666666666602401904560E2DB2D53F19
:104D80005EBA490C022BDF3F94F6065F984CA53FB4
:104D900014000020658001000D810100A97D010043
:104DA000A57D0100FD860100743100200000000097
:104DB0002DE9F0472DED028B3F4C404B404F414ECB
:104DC000DFF820A1404D82B09847404B984704F54A
:104DD0008C63D3ED027A97ED238A38EE678A04F567
:104DE0008F6317EE900A83ED018AB0472CA3D3E9B5
:104DF000002380468946D04742464B46D047CDE9FE
:104E00000001D7F81001B04702460B46DDE900016A
:104E1000A84725A3D3E90023CDE900014046494630
:104E2000D04702460B46DDE90001A847DFF8B8800D
:104E30001FA3D3E90023C047254B9847254BD7ED47
:104E4000397A93ED007A244928EE077AF1EE486A20
:104E5000E6EE877A04F5926204F5806306EE100AA6
:104E600091ED007A76EE277AB6EE006A67EE867AE2
:104E700028EE078AC2ED017AE6EE887AC3ED007A61
:104E800017EE900AB0470022144BA847144B9847DE
:104E900084F8080402B0BDEC028BBDE8F08700BFC7
:104EA0005DA79196CADB613FBDE3141DC9E5AF3F25
:104EB000984C158C4AEAB43F142D0020614A00003A
:104EC0001400002065800100A97D0100794C0000DC
:104ED000FD860100FCB00020F8B000200000E03F9B
:104EE000BD8601000D810100A57D010010B50A4BB2
:104EF00001787020984700280CDB0A20074B984760
:104F00004020074B4FF4805198470220054BBDE8E5
:104F10001040184710BD00BF0DBF00000100002069
:104F200075BF00000D38000070B5084C084E4FF4F6
:104F30008065C4F89850A020C4F89450B047C4F8D5
:104F400098503346C820BDE87040184700800041A3
:104F50000D38000070B5074D074B084C984705F118
:104F60008000A04705F1AC00A0470A20044BBDE833
:104F70007040184714000020294F0000ED4E00003B
:104F80000D38000070B5144C144AD4F8A834144DF0
:104F90000833C4F8A834904712490420A847D4F82D
:104FA000AC342BB110490420A8470023C4F8AC341A
:104FB0000E4B98470E4B98470E4B98470E4B984711
:104FC0000A200E4B98470E4B98472B460D4904205C
:104FD000BDE87040184700BF142D002039C0000004
:104FE000111E0100E8F8010010F901003954010018
:104FF0001DC0000015BE0000554F0000010000203C
:105000007555010030F90100034A044B014604487C
:10501000C2F8FC10184700BF14000020C5050100AD
:1050200070F60100034A044B01460448C2F82811F7
:10503000184700BF14000020C505010078F60100E4
:10504000034A044B01460448C2F80011184700BF48
:1050500014000020C505010050F90100034A044B6B
:1050600001460448C2F82C11184700BF1400002064
:10507000C505010068F60100014BD3F8FC0070473C
:1050800014000020014BD3F82801704714000020C1
:10509000014BD3F80001704714000020014BD3F8F6
:1050A0002C0170471400002010B582B002AC002122
:1050B00024F8020D094B0A48984722460123002193
:1050C0000748084CA0471D3001D002B010BD06496A
:1050D000064B0320984702B010BD00BF9D7800002A
:1050E00040B00020D178000058F90100111E0100E5
:1050F0000F4A104B70B5106098470F4D0F4B104C76
:105100000022A84700220F4D0F4BA8470F4B98478E
:1051100085B228460E4B98472A4620460D4B4FF441
:10512000FA71984720460C4BBDE87040184700BF05
:10513000C4310020658001006183010000005940F6
:10514000F8AF00200D81010000407F40BD860100C6
:10515000A9500000617C0000217C0000014B186810
:10516000704700BFC43100202DE9F04F8BB0884656
:10517000794B0991054608469847DFF81C92DFF8FD
:105180001CA2764F764E774C4046C84702460B46E7
:1051900002207549CDE90623D04740F2DC50B847DC
:1051A00072490220D04706F1AC084FF0320B636819
:1051B000002B40F3C780013B6360B4F83633B4F88A
:1051C0003413D6F8B4008B422CBF00235A1C04EBD6
:1051D000830334BF92B20122C3F8A401A4F836239A
:1051E000002900F0B680624BDFED627A03EB8102AA
:1051F000B3EC017A9A4277EE877AF9D107EE101A6A
:10520000B8EE477ABBF1010BC7EE876AC4EDCE6AF0
:10521000CDD1594969610022AA615849DFF88081DE
:105220000220D0476368002B40F38880013B636015
:10523000B4F83633B4F83413D6F8B4008B422CBF2C
:1052400000235A1C04EB830334BF92B20122C3F83B
:10525000A401A4F83623002978D0454BDFED457A28
:1052600003EB8102B3EC017A934277EE877AF9D1AE
:1052700007EE101AB8EE477A95ED056AC7EE876A11
:1052800088FB0B234FEAEB72C2EBA30303EB830310
:10529000D5ED067AC4EDCE6AB4EEE66AF1EE10FA08
:1052A000F4EEE67AC8BFC5ED056AF1EE10FA48BF24
:1052B000C5ED066ABBEB430F2ED00BF1010B0A20A4
:1052C000B847BBF1320FADD12C490220D047D4F8FA
:1052D0003833DDED097A2B61294BC5ED137A9868D7
:1052E0002C88C8472246CDE9000126490220D04734
:1052F0002869C8470646A8690F46C847CDE9020194
:105300006869C8473246CDE900013B461E49022084
:10531000D0470BB0BDE8F08F194B9868C847CDE96E
:1053200004012869C8479DED067BCDE902018DED9A
:10533000007B5A4615490220D047BEE71448154B5A
:10534000984775E74046134B984736E7DFED097AF3
:105350008EE7DFED087A51E7F15000000D380000CC
:10536000140000201C1C002080F901009CF90100A1
:10537000C01D0020000000000000C842ACF9010080
:1053800040310020ECF9010010FA0100C8F90100D9
:10539000C0000020313D000065800100111E0100A9
:1053A000676666662DE9F04F2DED028B8BB0B1F587
:1053B000004F0991064600F2758140F2FF108842C5
:1053C00028BF0846B84AB94BA2F8B4049847099ACE
:1053D000B749B84BDFF81C93B74CDFF81CA3022089
:1053E000984740F2DC50B54B9847B549B14B022085
:1053F000984709F1D80B04F6140864255846D0479D
:10540000B4F80A38B4F80818AE4FD9F8DC008B426B
:105410002CBF00235A1C07EB830334BF92B2012236
:105420001860A4F80A28002900F03981DFEDA67A77
:105430003B4607EB8102B3EC017A934277EE877A21
:10544000F9D107EE101AB8EE477A9E4B9F48C7EE87
:10545000876AC3ED656AD047B4F8A639B4F8A419D1
:10546000D9F808018B422CBF00235A1C08EB830398
:1054700034BF92B201221860A4F8A629002900F0D6
:105480000B81934BDFED907A08EB8102B3EC017A4C
:105490009A4277EE877AF9D107EE101AB8EE477A7A
:1054A000013DC7EE876AC8ED656AA7D10023894A26
:1054B000736233633262F26287497E4BDFF83CB23B
:1054C0000220984785487F4FD047B4F80A38B4F88F
:1054D0000818D9F8DC008B422CBF00235A1C07EBBC
:1054E000830334BF92B201221860A4F80A2800296D
:1054F00000F0CF80DFED747A3B4607EB8102B3EC1E
:10550000017A9A4277EE877AF9D107EE101AB8EE4F
:10551000477A6C4B6D48C7EE876AC3ED656AD04722
:10552000B4F8A639B4F8A419D9ED426A8B4235BF54
:105530005A1C002392B2012208EB8303C3ED006AD8
:10554000A4F8A629002900F0A180614BDFED5E7A66
:1055500008EB8102B3EC017A9A4277EE877AF9D1AF
:1055600007EE101AB8EE477A99ED378A96ED086A79
:105570005B4BC7EE878A83FB0523EA17C2EBA303C5
:1055800003EB8303D6ED097AC8ED658AB4EEC68ACB
:10559000F1EE10FAB4EEE78AD6ED0B7A48BF86ED4D
:1055A000088AF1EE10FAF4EEE76AD6ED0C7AC8BF7D
:1055B00086ED098AF1EE10FAF4EEE76A48BFC6ED0F
:1055C0000B6AF1EE10FAC8BFC6ED0C6AB5EB430FDB
:1055D00040D001350A20394B9847642D7FF472AFD3
:1055E0003D49344B02209847364B3E49D3F894212D
:1055F000D8F89431F261099A3280B36202202D4BBF
:105600009847F069D8470446706A0D46D847CDE9F7
:105610000201306AD84722462B46CDE90001254CCD
:1056200031490220A047B06AD8470446306B0D4686
:10563000D847CDE90201F06AD8472246CDE90001FA
:105640002B462A491B4C0220A0470BB0BDEC028B15
:10565000BDE8F08F16EE900AD847CDE9060118EEA6
:10566000100AD847CDE9040118EE900AD847CDE9D1
:105670000201144B0F4FD3F89401D847099BCDE991
:1056800000012A461A490220B847A2E7DFED0E7A48
:1056900066E7DFED0D7A38E7DFED0B7AFCE6DFED4C
:1056A0000A7ACEE600208DE6142D0020F1220000BB
:1056B00038FA0100111E01001C1C00200D380000EA
:1056C0009CF9010094220020000000001801002035
:1056D000302400200060EA4650FA0100EC0000206F
:1056E00067666666A8FA0100BCFA0100E4FA0100E8
:1056F0007CFA010014000020C53C00006580010018
:105700002DE9F04F2DED048B8BB0B1F5004F0991D1
:10571000044600F2638140F2FF10884228BF084629
:10572000B14AB24BA2F8B404DFF808B3B04FDFF8C7
:105730000883DFF808939847099AAE490220D847B2
:1057400040F2DC50B847AC490220D8471E25C0477C
:10575000C8470120B847013DF9D1A84AA2600023FB
:1057600062612262E262E360A36163622363A4492F
:10577000A44EDFF8CCA20220D84704E001350A206D
:10578000B8471E2D71D0C047C84796ED238AD4ED87
:10579000027AD6ED2E8A96ED399A94ED0B7AF4EED4
:1057A000C87AD4ED037AF1EE10FAF4EEC87AD4EDAB
:1057B000057AC8BF84ED028AF1EE10FAF4EEE87AB9
:1057C000D4ED067A48BF84ED038AF1EE10FAF4EEC8
:1057D000E87AD4ED087AC8BFC4ED058AF1EE10FA74
:1057E000F4EEC97AD4ED097A48BFC4ED068AF1EE29
:1057F00010FAF4EEC97AD6ED447AC8BF84ED089A5F
:10580000F1EE10FAB4EEE77A94ED0C7A48BF84ED2D
:10581000099AF1EE10FAF4EEC77AC8BFC4ED0B7A1C
:10582000F1EE10FAC8BFC4ED0C7AEB07A6D417EE60
:10583000900AD047CDE9060119EE100AD047CDE90C
:10584000040118EE900AD047CDE9020118EE100AC3
:10585000D0472A46CDE90001099B6B490220D84771
:1058600001350A20B8471E2D8DD1684F6449684D17
:105870000220D84796ED396AD6ED446AD6ED235A10
:10588000D7ED017AD6F8B820BDF82430C4ED015A1E
:1058900075EEE77A36EE267AF6EE004A27EE247A9F
:1058A00027EEA75AC4ED0D7AC7EE057A2261238050
:1058B000584B84ED076AC4ED0A6AC4ED127A84ED90
:1058C0000E7A9847B868D04745A3D3E90023064627
:1058D0000F46A84732463B46A8474F4B984794EDA2
:1058E000076AD4ED016A94ED0D7A2288A06207EE72
:1058F000900A27EE077A36EE676A66EEA66AC4ED6E
:105900000F7AC6EE265A45490220C7EE876AC4EDD3
:10591000115AC4ED106AD8476068D0470646E0685F
:105920000F46D047CDE90201A068D04732463B463A
:10593000CDE900013A490220D8472069D047064600
:10594000A0690F46D047CDE902016069D0473246D1
:105950003B46CDE9000133490220D847E069D047F2
:105960000646606A0F46D047CDE90201206AD0475B
:1059700032463B46CDE900012B490220D847A06AB8
:10598000D0470646206B0F46D047CDE90201E06ABA
:10599000D04732463B46CDE9000124490220D84792
:1059A000606BD0470646206C0F46D047CDE9060114
:1059B000606CD047CDE90401A06CD047CDE902016D
:1059C000A06BD0473246CDE900013B461849022082
:1059D000D8470BB0BDEC048BBDE8F08F00209FE6EC
:1059E0005DA79196CADB613F142D0020F1220000D3
:1059F0000D38000038FA01009CF901000000C8428F
:105A00000CFB0100140000207CFA0100743100201E
:105A10000D810100794C0000FD860100A8FA01000B
:105A200034FB010010FA0100BCFA0100E4FA0100A5
:105A30005CFB0100111E010081430000513E00008B
:105A40006580010070B5044692B0006C174D268841
:105A5000A847CDE91001606CA847CDE90E01A06C04
:105A6000A847CDE90C01A06BA847CDE90A01606BFE
:105A7000A847CDE90801A06AA847CDE90601E06979
:105A8000A847CDE904012069A847CDE90201606873
:105A9000A8473246CDE90001054B06490220984748
:105AA000054B052012B0BDE8704018476580010025
:105AB000111E0100C0FB01000D38000070B5044646
:105AC00086B0C06C0B4D2688A847CDE90401A06ABA
:105AD000A847CDE90201E069A8473246CDE90001B7
