:1000000050670120C9110000C5110000C511000092
:10001000C5110000C5110000C5110000000000005E
:1000200000000000000000000000000091F9000046
:10003000C51100000000000021FA000085FA000050
:10004000C5110000C5110000C5110000C511000058
:10005000C5110000C5110000C5110000C511000048
:10006000C5110000C5110000C5110000617B000032
:10007000C5110000C5110000C5110000C511000028
:10008000C51100002D78000035780000C511000072
:10009000C5110000C5110000C5110000C511000008
:1000A000C5110000C5110000C5110000C5110000F8
:1000B000C5110000C5110000C5110000C5110000E8
:1000C000C5110000C5110000C5110000C5110000D8
:1000D000C5110000C5110000C5110000C5110000C8
:1000E000C5110000C5110000000000000000000064
:1000F00000000000257A0000C5110000C5110000B5
:10010000C5110000C5110000C5110000C511000097
:10011000C5110000C5110000C5110000C511000087
:10012000C5110000C5110000C5110000C511000077
:10013000C5110000C5110000C5110000C511000067
:10014000C5110000C5110000C5110000C511000057
:10015000C5110000C51100000000000000000000F3
:10016000000000000000000000000000000000008F
:10017000000000000000000000000000000000007F
:10018000FDA1000005A200000DA2000015A20000C4
:1001900000000000A98A0000C5110000C511000080
:1001A000C5110000C5110000C5110000C5110000F7
:1001B000B98A0000C5110000C5110000C51100007A
:1001C000C5110000C5110000C5110000C5110000D7
:1001D000C5110000C5110000C5110000C5110000C7
:1001E000C98A0000C5110000C5110000C51100003A
:1001F000A1900000BD900000C5110000CD9000004E
:10020000DD9000000000000000000000C5110000AB
:10021000C5110000C5110000C5110000C511000086
:10022000C5110000C5110000C5110000C511000076
:10023000C5110000C5110000C5110000C511000066
:10024000C5110000C5110000C5110000C511000056
:10025000C5110000C5110000C5110000C511000046
:100260000000000010B5054C237833B9044B13B1DE
:100270000448AFF300800123237010BD400F00201D
:100280000000000040EF01000C4B43B10C480D4949
:1002900010B5AFF300800C48036823B910BD0A48BD
:1002A000036833B97047094B002BF7D0BDE8104005
:1002B0001847064B002BF5D0184700BF0000000080
:1002C00040EF0100440F002040EF0100000000005B
:1002D0002DE9F04F2DED048BA94BDFF8ECB2A94CC2
:1002E00089B09847A84B08EE100A9847A74B08EE2C
:1002F000900A984709EE100AD847A54B82469847BE
:1003000023780490F7EE007A002B40F0B080B4EE32
:10031000E78AF1EE10FA15DD9E4D18EE100AA84797
:10032000804618EE900A8946A8479B4D9B4B0022B9
:10033000A8479B4D02460B4640464946A847002821
:1003400040F08D81237A002B40F0A480914D954E92
:10035000DFF868B218EE100AA847804618EE900A37
:100360008946A84700228D4BB04702460B464046BF
:100370004946D847002840F03581F3EE047AB4EEC0
:10038000E78AF1EE10FA00F37181F0EE007AB4EE34
:10039000E79AF1EE10FA40F338810498DFF81CB2C6
:1003A000A847CDE90601E068A8476FA3D3E9002379
:1003B00080468946B04702460B46DDE90601D8472C
:1003C000002840F056810022774B754F4046494641
:1003D000B0470B460246DDE90601B847237E0746D3
:1003E000002840F0F380002B40F0908119EE100AB5
:1003F000A84707468846CDE904786069A8475CA30A
:10040000D3E90023B04702460B4638464146D84759
:1004100018B1637E002B00F08D815046A8478046BE
:1004200020698946A8470022604BB04702460B4628
:1004300040464946D84718B1A37E002B00F0718191
:10044000237E1BB1E369052B00F07D81637E1BB128
:10045000236A052B00F08481A37E1BB1636A052B00
:1004600000F0478109B0BDEC048BBDE8F08F78EE59
:10047000E77AB4EEE78AF1EE10FA7FF763AF002572
:100480004B4B4C49257002209847237A6560002B1E
:100490003FF45CAF637AF3B13E4D424E464F18EEE7
:1004A000100AA847804618EE900A8946A8470022FD
:1004B0004FF08043CDE90601B04702460B46404667
:1004C0004946B84738B1F3EE057AB4EEE78AF1EE63
:1004D00010FA00F1EA80257E0DB32E4D0498A8474E
:1004E0000646E0680F46A8472E4D304B0022A8472D
:1004F000324D02460B4630463946A8470028B1D057
:1005000032462B4E2E4900253B4625760320257288
:10051000B44609B0BDEC048BBDE8F04F6047667E81
:10052000002E7DD1A37E002B9CD01A4D5046A847AB
:10053000804620698946A8470FA3D3E90023164DBA
:10054000A847174D02460B4640464946A847002893
:1005500088D0174D1B49A67642464B46032026728B
:10056000AC46D6E7AFF300809A9999999999B93F2B
:100570009A9999999999D93F9A9999999999C93F2D
:100580000D5A00005C0F0020AD590000915700008B
:10059000C9560000CD3201000D3001000000F83FC7
:1005A00059380100113001000000F03F0000E03F29
:1005B00015F80000D09E01006D380100953801004B
:1005C00038A10100A0A101009D570000002B7FF47D
:1005D0000DAF01202076DDE906236B496B4F042027
:1005E000B84703E76A490123684A2372032063720C
:1005F0009047237A002B7FF46EAFF0EE007AB4EED2
:10060000E79AF1EE10FA3FF7C8AEDDED047A84ED1B
:10061000059AC4ED037A09B0BDEC048BBDE8F08FF8
:100620005C4E19EE100AB047804660698946B047B3
:1006300053A3D3E90023584EB047584E02460B4609
:1006400040464946B04700283FF40CAF4F4E54494E
:10065000657642464B4603202572B44659E701228F
:1006600050494A4B2270032098476BE601234E49BC
:10067000BAE7DDED047AC4F810A0C4ED037A84ED86
:10068000059A19EE100AA847CDE902015046A8477D
:100690003E4FCDE90001DDE9062344490220B84779
:1006A000E068A847804689468DE6D84707EE900A5D
:1006B00079EE677A9FED3E7AF0EEE77AF4EEC77A4C
:1006C000F1EE10FA95DB4FF0000323726372D84706
:1006D000A8479DED067BCDE902014B468DED007BE1
:1006E00042463449DFF8A4900220C84700236360E3
:1006F0007FE72069A8474B46CDE900014246234DDC
:100700002D490320A84701232372ABE6CDE90089D8
:10071000DDE906232949DFF874800420C0472776E5
:1007200064E60120A07642464B462549174E042038
:10073000B04785E601206076DDE904232149134FA7
:100740000420B84769E6E068A847DDE90623CDE95B
:1007500000010E4D1C490320A8470123237281E6A6
:100760006069A847DDE90423CDE90001074D174979
:100770000320A8470123237274E600BFAFF3008073
:100780009A9999999999C93FC89F010015F8000055
:10079000F49E0100CD3201000D30010059380100F6
:1007A00068A10100B49E0100109F01008C9F010010
:1007B0009A99993E3C9F010000A10100F09F010021
:1007C00060A0010030A0010090A00100C8A00100BD
:1007D00070B5204C94F828302DED028B9BB91E4B40
:1007E00098471E4B08EE100A984707EE100AF1EEE4
:1007F0000C7A77EE677AB4EEE78AF1EE10FA1ED43F
:10080000BDEC028B70BD144B9847144B08EE100AD8
:10081000984707EE100AF0EE087A77EE677AB4EEA2
:10082000E78AF1EE10FAEBDD00250D490D4B84F857
:10083000285002209847BDEC028B656070BDBDEC6E
:10084000028B012284F828200749064B0320BDE8CB
:10085000704018475C0F0020C15800006D58000020
:10086000ECA1010015F80000D8A10100144B10B54F
:100870009847144B07EE900A93F82920B3EE047AB8
:10088000F4EEC77A1AB9F1EE10FA0CD410BDF1EEFD
:1008900010FAFBDB002083F829000B490B4A0220E9
:1008A000BDE8104010470A48084C0270012283F846
:1008B0002920084923460320BDE81040184700BFFF
:1008C00011B000005C0F002028A2010015F8000004
:1008D0001000002008A2010010B500EB8000074CBA
:1008E000074B00EB8000820092B2204642F210716A
:1008F00098472046034BBDE810401847D8A5002074
:10090000996300005963000010B500EB8000074CAC
:10091000074B00EB8000820092B2204642F2107139
:1009200098472046034BBDE810401847F8A5002023
:10093000996300005963000010B500EB8000074C7C
:10094000074B00EB8000820092B2204642F2107109
:1009500098472046034BBDE8104018471CA50020CF
:100960009963000059630000374A431E70B50C4676
:1009700082F82A0082F82B10042B5AD8DFE803F003
:100980000E23394F03000846304B98472046304B22
:10099000984720462F4BBDE870401847002242F28E
:1009A00010712D4E2D482E4DB0472C48A8470022DF
:1009B00042F210712B48B0472A48A8472046254BE1
:1009C000BDE870401847002242F21071224E2348C1
:1009D000234DB0472148A84720461D4B9847002289
:1009E00042F210712048B0472B461F48BDE87040C6
:1009F00018470846154B184D194C9847002242F2EB
:100A000010711848A8471748A047002242F21071F9
:100A10001548A84723461448BDE8704018470022EF
:100A200042F210710C4B0D4898470D4B0B489847FC
:100A3000ACE7002242F21071074D0848084CA84765
:100A40000648A047DAE700BF5C0F0020D908000085
:100A5000090900003909000099630000D8A50020A9
:100A600059630000F8A500201CA5002038B5264CCD
:100A700094F82C203ABB63680133217E636001B394
:100A8000E1690131E161617EC9B1216A013121620F
:100A9000A17E91B1616A0131616212B11B4A157880
:100AA000B5B1E26B9A4207D2194A4FF000410023D8
:100AB000C2F8941084F8383038BD6162EDE72162E5
:100AC000E6E7E161DFE7236B013323630123D4E72A
:100AD000216B626B9142E4D994F838305BB10D4BD5
:100AE0002946284698470A4B84F838504FF0004270
:100AF000C3F8942038BD074B3221012098470123C9
:100B000084F8383038BD00BF5C0F00201000002092
:100B1000008000416909000070B55B4C94F82C50CE
:100B200015BBE36B002B4ED0626893424BD2574902
:100B3000574E0220B04794F8401094F84100554BAE
:100B40009847554AE5634FF00041544BC2F8941062
:100B50001320984794F8422094F82C50AA423CD095
:100B6000A5B3636B9BB108E0636B5BB1226B9342EF
:100B700034D394F84230AB422FD094F82C3084F820
:100B8000423070BD94F84220954226D0404E94F8F1
:100B90002A0094F82B1084F841000023082D2363C9
:100BA000636084F8401042D0012D4DD0042D50D008
:100BB000022D2FD02B463A490220B04794F842200C
:100BC00094F82C3004E094F8422012B300236363BD
:100BD0009A4202D084F8423070BD70BD31492C4E2B
:100BE0000220B04794F82C50082D3ED0012D43D060
:100BF000042D07D0022D31D02B490220B04700230D
:100C00006363A7E71C20254B984728490220B0477B
:100C1000F5E770BD05231A46284625496363032579
:100C2000E563B04794F8422094F82C30D0E70523D0
:100C300020491A46042502206363E563B04794F80F
:100C4000422094F82C30C3E705231A4603251A499D
:100C5000F1E705231A4603251849ECE71A200F4B44
:100C6000984728461649B047C9E71D200B4B9847BF
:100C700014490220B047C2E71B20084B984712498D
:100C80000220B047BBE700BF5C0F002050A301006B
:100C900015F80000690900000080004161BC0000F7
:100CA00044A4010048A2010018A30100C4A201004D
:100CB00014A4010088A30100B8A30100E8A3010067
:100CC000ECA2010070A2010098A201002DE9F04FF2
:100CD0002C4E2D4CDFF8E0B0DFF8E0A0DFF8E0901C
:100CE000DFF8E080294F85B0B04704AD02462849BF
:100CF000284B45F8040D02209847274B009301220A
:100D000000234FF47A712548A0470446B0470023DA
:100D10000246012120460093214C224EA047224C3E
:100D20004FF47A6110E094F82830227A21789B0001
:100D300003EB420394F829200B4403EBC20384F82D
:100D40002C30B0474FF47A712846D847D04790B935
:100D5000C84748B9C0473B78002BE4D094F8293005
:100D6000DB0084F82C30ECE7104B98471328F1D0C7
:100D70000F4B9847EEE70D4B98471328E8D00D4BE3
:100D80009847E5E7850A01002D14010010000020B6
:100D900088A4010015F800006D0A0000ACA4010051
:100DA00081140100190B00005C0F002055BC0000ED
:100DB000D1070000D1020000AD0C0100495A00002B
:100DC000455800006D080000034A044B4FF00041F5
:100DD000C2F8941018707047008000411000002085
:100DE000014B93F82C0070475C0F0020014B83F8F7
:100DF0002C0070475C0F0020004B1847D92E0000D4
:100E000070B5064D064C4FF400166E613220A047B7
:100E1000AE6123466420BDE8704018470080004161
:100E2000D92E0000024B4FF400225A61704700BFD8
:100E300000800041024B4FF400229A61704700BFCE
:100E40000080004130B587B006AB002503F8110DD6
:100E5000012403A9034A0448039304950594904789
:100E600007B030BD71640000B4A50020F0B58BB0B0
:100E7000002308290393029314D80AAD0A4655218A
:100E800005F8211D02AE044607A90496012706486D
:100E9000064E05940692089307950997B04704A952
:100EA0000148B0470BB0F0BDB4A50020716400004C
:100EB00010B5034B9847034BBDE81040184700BFDF
:100EC000251B0000AD2201002DE9F84F6FF0E40072
:100ED000DFF82C91DFF82CA1DFF82CB1394D3A4E18
:100EE0003A4FDFF82881C8474FF47F20C847FF20DA
:100EF000C8474FF48050C8471420D047D847344BD8
:100F000098474FF47F2419E02968B0476968201D8D
:100F1000B047A96804F10800B047E96804F10C0083
:100F2000B047296904F11000B047696904F1140061
:100F30001834B047444505F1180503D06B69BB422E
:100F40002046E1D0234C214B41F20C0562599A42D4
:100F500019D0214B214853F8E81CB0476FF0B80076
:100F6000C8471F48C8474FF47F20C8474FF48050F8
:100F7000C8471420D047D847154B98471420D0476E
:100F80000120BDE8F88FD4F8F41F1648B047D4F814
:100F9000F81F1548B047D4F8FC1F1448B04704F5B3
:100FA000805313481968B04741F204031148E158CF
:100FB000B04741F208031048E158B04761590F4863
:100FC000B047C6E7A40F0020891F0000CAF00F53E6
:100FD000DD250000A00F002098200020FCFF0F005E
:100FE00000108000D0FF0F00D4FF0F00D8FF0F00CB
:100FF000DCFF0F00E0FF0F00E4FF0F00E8FF0F0031
:1010000009220000F90D00002D220000F0FF0F0062
:1010100070B405460FCD054C054E0FC495E807008A
:10102000334684E8070070BC184700BF941F0020B7
:10103000C90E000010B50A4B0A48984700210A4B18
:101040000A4898470A4B044606489847844200D805
:1010500010BD21460348074BBDE81040184700BFAC
:10106000555E000080A50020C9C10000C0A4010099
:10107000357B0000057B00000146014B0148184705
:10108000795F000080A5002030B51A491A4D1B4C2D
:1010900083B0A847A047C0B218288CBF00238DF8A2
:1010A0000600144988BF8DF806300020A847A047E5
:1010B000C0B23B288CBF00238DF805000D4988BFC6
:1010C0008DF805300020A847A047C0B23B288ABF52
:1010D00000238DF804008DF8043001A9084B09485D
:1010E0009847094B07489847084B014608489847D6
:1010F00003B030BD94BD0100055D01001D3D010040
:10110000815E000080A50020357B0000C5C0000086
:10111000C0A4010030B51F491F4D204C83B0A84723
:10112000A047C0B20C288CBF01238DF805001949D7
:1011300088BF8DF805300020A847A047C0B21F28FF
:1011400094BF8DF804000123124988BF8DF8043044
:101150000020A847A04780B2632898BF00F5FA6036
:1011600040F2D97398BF80B2984298BF40F2E573BD
:10117000ADF8060001A998BFADF806300848094B44
:101180009847094B06489847084B01460848984736
:1011900003B030BDC8A40100055D01001D3D010084
:1011A00080A50020015F0000357B0000C5C0000065
:1011B000C0A401000148024B184700BF80A50020D1
:1011C000357B0000FEE700BF1B491C4A914208B571
:1011D0000ED01B4882420BD2D343034423F00303B7
:1011E0000433134451F8040B42F8040B9A42F9D12A
:1011F000144A15498A420AD2D3430B4423F003030D
:1012000004331344002142F8041B9A42FBD10F4AD5
:101210000F4B22F07F029A60D3F8882042F47002CC
:10122000C3F88820BFF34F8FBFF36F8F094B9847E8
:10123000094B9847FEE700BF40EF01000000002087
:10124000400F0020400F00204CA7002000000000AD
:1012500000ED00E0A13D01000DA80000F0B4734BCB
:101260007348744E744D754F4FF0404208245C60D3
:1012700098629A6293F8431001F0FE0141F0010177
:1012800083F8431093F8311001F00F0141F0100181
:1012900083F831104FF48071C3F88410C3F8A8604C
:1012A000C3F8A82093F8C81001F0FE0141F0010135
:1012B00083F8C81093F8B41001F0F00141F0010177
:1012C00083F8B410102159609D629A6293F844101B
:1012D00001F0FE0141F0010183F8441093F832104F
:1012E00001F0F00141F0010183F832104021596012
:1012F0009F629A6293F8461001F0FE0141F00101ED
:1013000083F8461093F8331001F0F00141F0010129
:1013100083F83310803E802159609E629A6293F870
:10132000471001F0FE0141F0010183F8471093F8E6
:10133000331001F00F0141F0100183F8331005F56F
:101340007C754FF4806159609D629A6293F84A10EF
:1013500001F0FE0141F0010183F84A1093F83510C5
:1013600001F0F00141F0010183F8351007F5F8674D
:101370004FF4006159609F629A6293F84B1001F03C
:10138000FE0141F0010183F84B1093F8351001F094
:101390000F017E3E41F01001022783F83510C3F89B
:1013A0008470C3F8A860C3F8A82093F8C11001F0B6
:1013B000FE0141F0010183F8C11093F8B01001F073
:1013C0000F01A5F57F7541F01001042683F8B010D8
:1013D000C3F88460C3F8A850C3F8A82093F8C210DB
:1013E00001F0FE0141F0010183F8C21093F8B11041
:1013F00001F0F00141F0010183F8B110C3F884401D
:10140000C3F8A800C3F8A82093F8C32002F0FE0296
:1014100042F0010283F8C32093F8B12002F00F02DA
:1014200042F0100283F8B120F0BC70470080004108
:101430000800004000010040100000404000004053
:1014400010B5094A0948136A094943F08003422448
:101450001362C0F820418847002206490648074B1E
:10146000BDE81040184700BF00080040001C0040C5
:101470005D120000001C00437CA500202D5B0000D5
:1014800010B4184B184A194804244FF040415C60CE
:101490009A62996293F8422002F0FE0242F0010241
:1014A00083F8422093F8312002F0F00242F001026A
:1014B000202483F831205C609862996293F845207B
:1014C00002F0FE0242F0010283F8452093F8322038
:1014D00002F00F0242F0100283F832205DF8044B54
:1014E000704700BF00800041040000402000004021
:1014F00070B5084A084D136A084C0949094843F475
:10150000007342261362C5F82861A047064BBDE868
:101510007040184700080040001C0040B55F000004
:1015200000240043A0A5002081140000F0B4234A49
:10153000234C244B244E2548254D26494427C2F8E8
:1015400090706269202742F480626261C3F88470FF
:10155000C3F8A860C3F8A80093F8C52002F0FB0206
:1015600083F8C52093F8C52002F0FE0242F0010284
:1015700083F8C52093F8B220402402F00F0283F8CC
:10158000B220C3F88440C3F8A850C3F8A80093F869
:10159000C62002F0FB0283F8C62093F8C62002F0B2
:1015A000FE0242F0010283F8C62093F8B32002F055
:1015B000F00283F8B320F0BC084700BF001C0040D5
:1015C000000800400080004120000240000002C0EE
:1015D000400002401D610000164B93F8482002F0C5
:1015E000FB0283F8482093F8482002F0FE0242F004
:1015F000010283F8482093F8342002F0F00242F010
:10160000020283F8342093F8492002F0FB0283F8A9
:10161000492093F8492002F0FE0242F0010283F8CB
:10162000492093F8342002F00F0242F0200283F8A0
:10163000342070470080004170B50A4B0A4A0B4CB9
:101640000B490C4842264325C3F89C60C3F88C50D4
:10165000536943F480535361A047074BBDE8704082
:10166000184700BF001C0040000800403D62000019
:101670000030004018A60020D915000070B4284B97
:10168000284D294E29482A494FF480324FF0804492
:101690005A619A609C629D6293F8502002F0FE02AB
:1016A00042F0010283F8502093F8382002F0F00253
:1016B0004FF4003542F0020283F838205D619D60EE
:1016C0009C629E6293F8512002F0FE0242F00102F9
:1016D00083F8512093F8382002F00F0242F02002E4
:1016E0004FF4802483F838205C609862996293F804
:1016F000522002F0FB0283F8522093F8522002F0AD
:10170000FE0242F0010283F8522093F8392002F0E1
:10171000F00242F0020283F8392070BC704700BF2B
:1017200000800041010000C0020000C00000024033
:10173000040002C070B50A4B0A4A0B4C0B490C4816
:1017400042264325C3F8A060C3F88C50536943F484
:1017500000535361A047074BBDE87040184700BFD6
:10176000001C004000080040CD6300000034004031
:10177000B4A500207D160000104B93F8572002F00E
:10178000FE0242F0010283F8572093F83B2002F05A
:101790000F0242F0300283F83B2093F8562002F00B
:1017A000FE0242F0010283F8562093F83B2002F03B
:1017B000F00242F0030283F83B20704700800041B2
:1017C00070B50A4B0A4A0B4C0B490C48422643257C
:1017D000C3F80C61C3F88C50136A43F00203136220
:1017E0000022A047064BBDE870401847001C00408F
:1017F000000800402D67000000040043CCA5002035
:101800007917000070B51149114C8B69114A1248C3
:1018100043F4005344258B61C4F8E85092F84D30EE
:1018200003F0FE0343F0010382F84D3092F83630A6
:1018300003F00F0343F0400382F836308047074936
:10184000074B0246BDE870400648184700080040B4
:10185000001C0040008000419990000000A0014160
:10186000116300003CA5002070B51149114CCB69F3
:10187000114A124843F020034425CB61C4F8F850C4
:1018800092F8CD3003F0FE0343F0010382F8CD302F
:1018900092F8B63003F00F0343F0400382F8B630FD
:1018A00080470749074B0246BDE870400648184785
:1018B00000080040001C004000800041999000009A
:1018C0000014004211630000D8A5002070B5114932
:1018D000114CCB69114A124843F040034425CB61B7
:1018E000C4F8F85092F8CF3003F0FE0343F0010340
:1018F00082F8CF3092F8B73003F00F0343F0400383
:1019000082F8B73080470749074B0246BDE8704070
:101910000648184700080040001C004000800041B5
:101920009990000000180042116300001CA50020DF
:1019300070B51149114C8B69114A124843F4006388
:1019400044258B61C4F8E45092F8DE3003F0FE03C6
:1019500043F0010382F8DE3092F8BF3003F0F00369
:1019600043F0060382F8BF3080470749074B024621
:10197000BDE870400648184700080040001C0040C1
:1019800000800041A18A0000006001411163000055
:10199000FCA4002070B51149114C8B69114A124802
:1019A00043F4805344258B61C4F8E45092F84C30E2
:1019B00003F0FE0343F0010382F84C3092F8363016
:1019C00003F0F00343F0060382F8363080470749FE
:1019D000074B0246BDE87040064818470008004023
:1019E000001C004000800041A18A000000800141ED
:1019F000116300005CA5002070B51149114C0B6A01
:101A0000114A124843F0100344250B62C4F81851E0
:101A100092F8CE3003F0FE0343F0010382F8CE309B
:101A200092F8B73003F0F00343F0050382F8B730C3
:101A300080470749074B0246BDE8704006481847F3
:101A400000080040001C004000800041A18A000006
:101A50000010004311630000F8A5002010B4204BD3
:101A60002049214C4FF080724FF080409A6098627C
:101A700099625A6193F8582002F0FB0283F85820CB
:101A800093F8582002F0FE0242F0010283F8582039
:101A900093F83C2002F0F00242F007024FF0007190
:101AA00083F83C20996098629C62596193F85920B0
:101AB00002F0FB0283F8592093F8592002F0FE024D
:101AC00042F0010283F8592093F83C2002F00F0203
:101AD00042F0700283F83C205DF8044B704700BF71
:101AE00000800041000100C0000200C010B5094A9A
:101AF000094B0A494520C2F8A8001A6942F48062DD
:101B00001A619A6942F001029A618847044BBDE864
:101B100010401847001C0040000800409969000070
:101B20005D1A000010B51C4B1C4C98471C4B984785
:101B30001C4B98471C4B984763691C491C4A1D481D
:101B400043F40073636190471B4B98471B4B9847C6
:101B50001B4B98471B481C4B984763691B491C4A01
:101B600043F4004340206361C1F8A4009047194941
:101B7000194B024619489847194B9847194B9847F3
:101B8000194B9847194B9847194B9847194B984749
:101B9000194BBDE810401847F174000000080040E0
:101BA00041140000F11400002D1500000024004035
:101BB000115E000080A500203916000035170000D6
:101BC000C117000010E000E0A1600000001C004010
:101BD00095900000003C00402566000038A60020DB
:101BE0000518000069180000CD1800003119000028
:101BF00095190000F9190000ED1A00002DE9F047D1
:101C0000344C354E354B3648DFF8DC80DFF8DC905D
:101C1000344D01274FF400625221984721463A463D
:101C200030682770C0473A4621463068C847237855
:101C30003068277063F07F032146022263704FF003
:101C4000030AC0473A462146306884F800A0C047DE
:101C50003A4621463068C8472378306884F800A0A7
:101C600063F03F03214602226370C0474A222021CD
:101C70005220A8472B2221215220A8473A22222174
:101C80005220A847002223215220A8476022242165
:101C90005220A847C02225215220A847CB22262126
:101CA0005220A847B02227215220A84709222821E4
:101CB0005220A847B92229215220A8470D222A21C3
:101CC0005220A8472B460C222B215220BDE8F0477A
:101CD000184700BF70A6002068A60020816200009F
:101CE00018A60020D5A30000A1620000D162000068
:101CF00038B50A4C0A4B054640F2FD11206898475A
:101D00002946084B52209847002305461A4620686A
:101D1000054C1946A047284638BD00BFD4A4002072
:101D200061050100D1A20000210101002DE9F04769
:101D3000DFF8B080234B244C244D254E81464FF4D0
:101D4000FC71D8F8000098474FF4006252212148F6
:101D5000214B98470127B9F1FF0F286827702146CA
:101D60003A4620D8B0473A4621461C4B2868984747
:101D700023782868277023F001032146022263702C
:101D8000B047286884F8019000252570144C0E494E
:101D90000222B0472B462A462946D8F80000A4461E
:101DA000BDE8F0476047B0473A46214628680B4BEC
:101DB00098472378286827703B43214602226370A6
:101DC000B047DEE76105010070A6002068A600208C
:101DD000A162000018A6002081620000D16200000C
:101DE00021010100D4A40020F8B5144E144B306832
:101DF000144F154D40F2FD1198474FF40062134BFC
:101E000013485221984711215220B8471221044605
:101E100052202C70B847002328701A4619463068A3
:101E20000C4EB0472B78240223449BB218B2B0F575
:101E3000005FA4BFA3F5804318B2F8BDD4A400206E
:101E400061050100D1A2000070A60020816200009F
:101E500018A60020210101002DE9F043002783B0DE
:101E6000DFF86480154EB946012509E02A464FF097
:101E700000098C2C05F10105274610DD652D1BD0CE
:101E8000C0471420B047C04704461420B047A742BB
:101E9000ECD109F10109B9F10E0F2A46E9DD0094F0
:101EA0004B460749074C0220A0474FF4FA703346CF
:101EB00003B0BDE8F04318476422F0E7D92E0000D4
:101EC000CCA4010015F80000E91D000030B5164D46
:101ED000164C83B0A847A847B4F90030834218D005
:101EE000A268208001320023A26063608B280BDC93
:101EF00000900F490F4D0220A84700230120636086
:101F0000A360238003B030BD642AF1DC002003B05D
:101F100030BD6368A2682080013301320E2B6360FC
:101F2000A260E5DCE2E700BFE91D0000042D00200F
:101F3000CCA4010015F8000070B50D4D0D4B0E4CF2
:101F400028210646286898470C4B98473046A047FA
:101F50000020A0470020A047094B0A4C98470023C7
:101F60002868A4461A461946BDE87040604700BF7D
:101F7000ECA4002061050100450E0000250E0000C4
:101F8000350E0000210101002DE9F041144F154BE1
:101F9000154C0D460646282138689847134B98473C
:101FA000C6F3064040F08000A047C6F30720A047D4
:101FB000F0B2A047E8B2A047C5F30720A047C5F399
:101FC0000740A047280EA047094B0A4C984700231A
:101FD0003868A4461A461946BDE8F041604700BF7C
:101FE000ECA4002061050100450E0000250E000054
:101FF000350E0000210101002DE9F041114E124B78
:10200000124C05460F46306828219847104B9847D8
:10201000C5F3064040F08000A047C5F30720A04765
:10202000E8B2A047F8B2A047380AA047094B0A4CCB
:10203000984700233068A4461A461946BDE8F04187
:10204000604700BFECA4002061050100450E0000C0
:10205000250E0000350E0000210101002DE9F041A0
:10206000104E114B114C05460F46306828219847F9
:102070000F4B9847C5F3064040F08000A047C5F3DA
:102080000720A047E8B2A0473846A047094B0A4CB2
:10209000984700233068A4461A461946BDE8F04127
:1020A000604700BFECA4002061050100450E000060
:1020B000250E0000350E00002101010070B5174EFD
:1020C000174B184C82B02821054630689847164BAC
:1020D0009847C5F30540A047C5F30720A047E8B2DD
:1020E000A04704210DEB0100104B114C9847114BF8
:1020F000984700231A4619463068A0479DF80630D5
:102100009DF805109DF804209DF807001B0403EBC3
:102110000123134403EB006002B070BDECA4002067
:1021200061050100450E0000250E00006D0E000047
:1021300021010100350E000070B5134E134B144CF5
:1021400082B02821054630689847124B9847C5F35E
:102150000540A047C5F30720A047E8B2A04701A863
:1021600002210D4B0D4C98470D4B984700231A4602
:1021700019463068A0479DF805309DF8040000EB33
:10218000032080B202B070BDECA400206105010004
:10219000450E0000250E00006D0E0000210101001B
:1021A000350E000070B5114E114B124C82B0282133
:1021B000054630689847104B9847C5F30540A0473F
:1021C000C5F30720A047E8B2A04701A801210B4BA7
:1021D0000B4C98470B4B9847002330681A4619461A
:1021E000A0479DF8040002B070BD00BFECA4002021
:1021F00061050100450E0000250E00006D0E000077
:1022000021010100350E000010B5064C064B228856
:10221000014602F54210984723880433C3F30B03A9
:10222000238010BD102D0020891F0000024B0348A1
:102230001988034B184700BF102D0020FC203000E8
:10224000F91F000030B5124D124B2868124C83B0B4
:1022500028219847114B98473020A0472020A047BD
:102260000020A04701A801210D4B0E4C98470E4BB2
:102270009847002328681A461946A0479DF804008D
:10228000A0F17C00B0FA80F0400903B030BD00BF7F
:10229000ECA4002061050100450E0000250E0000A1
:1022A0006D0E000021010100350E000070B5464B97
:1022B000464D474C98474420A8470020A8474FF474
:1022C0009670444B9847A0470028FCD04FF440201C
:1022D000414C424EA04742494248B047424B4348D6
:1022E000984740F6FF73984256D0414D4148424CC2
:1022F0000021A84700214148A8474FF46871404891
:10230000A04758213F48A04700213F48A04730211F
:102310003E48A04740F20D213D48A04720213D48BE
:10232000A04700213C48A04703213C48A04700218A
:102330003B48A84701213B48A8474FF448713A4819
:10234000A0474FF4F0713948A04700213848A8470A
:1023500001213848A8474FF400413748A0474FF4BF
:1023600000412448A047FA213448A04700213448BE
:10237000A84734494FF44010B04733493348B04779
:1023800000213348B04702213248A8472B46052197
:102390001A48BDE8704018472F48154DA047012145
:1023A00004462E48A84700211048A84700212C4881
:1023B000A84700212B48A84700212848A8472146C4
:1023C0002548B04792E700BF010E0000391F00000A
:1023D00045220000F90D0000BD200000891F00000B
:1023E000008793030C20300039210000F8203000D2
:1023F0005D2000009C203000F91F0000702030009C
:102400002C20300030203000382030003C203000BC
:1024100040203000442030004C203000502030005C
:10242000642030006C203000342030004820300020
:10243000682030006020300098203000D02030002C
:10244000D4203000FF000002070000260400300006
:10245000080030005420300062913000202030000D
:10246000FC203000002130002DE9F04F81B0474CB6
:102470000A9D07462846884691469A46A0471FFA75
:1024800080FBBBF1000F02D101B0BDE8F08F4FEA35
:102490009B04601C04213E4B98470646002C72D0DA
:1024A000601E80B206EB80002A46311F937892F8B6
:1024B00003E092F800C01B0443EA0E6392F801E0C7
:1024C00043EA0C0343EA0E2341F8043F814202F140
:1024D0000402EBD1A3001BF0030B13D09B4456F86E
:1024E00024001FFA8BFB4FEA840E0021EA5C0133C3
:1024F0009BB28A405B4540EA020001F10801F5D138
:1025000046F80E00DFF894B0224DBBF800006FF0E3
:10251000F30100F54210A847BBF800300433C3F3C1
:102520000B0347EA084103F54210ABF80030A84717
:10253000BBF800300433C3F30B0303F5421049EA40
:102540000A41ABF80030A847BBF800000430C0F3E4
:102550000B00ABF800000027BBB200F5421056F8A4
:102560002310A847BBF8000001370430BBB2C0F30A
:102570000B009C42ABF80000EED2074B304601B096
:10258000BDE8F04F18472346A5E700BF014C010006
:10259000253D0100891F0000593E0100102D00203B
:1025A00070B50C4C0C4D238806466FF0EA0103F51C
:1025B0004210A84723880433C3F30B0303F54210EA
:1025C00031462380A84723880433C3F30B032380B9
:1025D00070BD00BF102D0020891F00002DE9F04FB5
:1025E000DFF8B8A0214FDFF8B88083B003E02048BF
:1025F000D047834536D01F48D04740F6FF739842F6
:102600008346F4D11C4CDFF89C901C4E01E04445FD
:1026100009D02046B84731460546024601A8013494
:10262000C847002DF3D1164B1648174C9847012187
:1026300005461648A04700210E48A04700210C4837
:10264000A04700211248A04700211048A047294672
:102650000C48104B9847FA200F4B98470448D04736
:102660008345C8D103B0BDE8F08F00BFA5210000AD
:10267000FC203000F82030000098300014A5010044
:10268000BD200000629130005D200000202030005D
:1026900000213000891F0000F90D000039210000E1
:1026A000809830009946010010B50246044605495D
:1026B000054B03209847054B4FF000629A61204676
:1026C00010BD00BF38A5010015F8000000800041D2
:1026D000054B10B4054C18680023A4461A46194649
:1026E0005DF8044B604700BFECA40020210101000D
:1026F00070B50546054CC0F30740A047C5F3072059
:10270000A047E8B22346BDE87040184791B10000E9
:1027100038B5124CA047022811D0114A114B4FF086
:102720000061516104209847051E0EDB0C4B4FF0F1
:1027300000629A61A04702280DD0284638BD0A4A97
:102740000A4B106828219847E7E7094B984700286B
:10275000ECD0284638BD074B9847EEE7ED0F010057
:102760000080004191B10000ECA40020610501004F
:10277000A9260000D1260000F8B500292FD0B0F519
:10278000001F2CD21E4F0E460546B84702281AD00D
:102790001C4A1D4B4FF00061516103209847041EF5
:1027A00017DB2846194B9847041E23DB184B30468D
:1027B0009847144B4FF000629A610446B8470228CC
:1027C00010D02046F8BD134A134B106828219847B3
:1027D000DEE7124B98470028E3D02046F8BD4FF0C3
:1027E000FF34EEE70B4B0E4D186800231A461946CE
:1027F000A847E6E7094B98470028E2D1D6E700BF93
:10280000ED0F01000080004191B10000F1260000B1
:10281000DDB10000ECA4002061050100A926000044
:1028200021010100B0F5001F2DE9F04103D3002480
:102830002046BDE8F081DFF89C800E460546C04783
:10284000022823D01C4B1D4F4FF000625A61AD206F
:10285000B847041E20DB2846194B9847041E25DB89
:102860003078B847041E1CDB7078B847124B4FF025
:1028700000629A610446C0470228D9D1114B124D1B
:10288000186800231A461946A847D1E70D4A0F4B8E
:10289000106828219847D5E70D4B98470028C7D1E5
:1028A000D9E70B4B98470028C2D1DDE7084B984782
:1028B0000028BDD1D4E700BF0080004191B10000E5
:1028C000F1260000ECA400202101010061050100B7
:1028D000A9260000ED0F01002DE9F04100293DD0AF
:1028E000294B1446013A9A4238D8B0F5001F0746E2
:1028F00034D2DFF8B8800D46C047022821D0234AE1
:10290000234B4FF00061516103209847061E1EDBE8
:102910003846204B9847061E23DB1F4F2846B847F2
:10292000013C064605F10105F8D100281EDB174BD6
:102930004FF000629A61C04702281CD03046BDE8C3
:10294000F081164A164B106828219847D7E7154B97
:1029500098470028DCD03046BDE8F0814FF0FF36C4
:10296000ECE7104B98470028E8D1D6E70D4B984785
:102970000028E3D1DBE7094B0B4C186800231A460B
:102980001946A047DAE700BFFEFF1F0000800041A4
:1029900091B10000F1260000DDB10000ECA40020A0
:1029A00061050100A926000021010100ED0F0100D1
:1029B00070B582B00023124C8DF80730A047022872
:1029C00018D0104D104B4FF000666E6105209847EF
:1029D0000E4B0DF107009847AE61A047022803D0C7
:1029E0009DF8070002B070BD094B98479DF807009D
:1029F00002B070BD074A084B106828219847E0E7ED
:102A0000ED0F01000080004191B10000DDB1000038
:102A1000D1260000ECA4002061050100F8B50028D3
:102A20003BD01F4F0646B84702281DD01D4B1E4DF8
:102A30004FF000625A61AD20A847041E1ADB3078BF
:102A4000A847041E1CDB7078184EA847154B4FF0A2
:102A5000006204469A61B04710F00105FBD1B84707
:102A6000022812D02046F8BD114A124B10682821C6
:102A70009847DBE7104B98470028E0D02046F8BD88
:102A80000D4B98470028EDD1DDE7094B0B4E186838
:102A90002A462B462946B047E4E74FF0FF34E1E7EA
:102AA000ED0F01000080004191B10000B12900004C
:102AB000ECA4002061050100A9260000210101000D
:102AC00038B5124CA047022811D0114A114B4FF0D3
:102AD0000061516150209847051E0EDB0C4B4FF0F2
:102AE00000629A61A04702280DD0284638BD0A4AE4
:102AF0000A4B106828219847E7E7094B98470028B8
:102B0000ECD0284638BD074B9847EEE7ED0F0100A3
:102B10000080004191B10000ECA40020610501009B
:102B2000A9260000D1260000F8B51B4E0746B04785
:102B3000022818D0194B1A4D98471A4B4FF00062D3
:102B40005A610120A847041E13DB07F0BC00A84708
:102B5000041E14DB134B4FF000629A61B047022849
:102B600012D02046F8BD104A104B10682821984713
:102B7000E0E70F4B98470028E7D02046F8BD0C4B04
:102B800098470028EDD1E5E7074B0A4D1868002368
:102B90001A461946A847E4E7ED0F0100C12A0000D4
:102BA00091B1000000800041ECA40020610501000B
:102BB000A92600002101010038B51A4DA8470228B6
:102BC00016D00020184B9847041E17DB174A184BE5
:102BD0004FF00061516106209847041E14DB134B2F
:102BE0004FF000629A61A847022812D0204638BDF3
:102BF000104A114B106828219847E2E70F4B98477D
:102C00000028E3D0204638BD0C4B98470028EDD172
:102C1000E5E7084B0A4D186800231A461946A847ED
:102C2000E4E700BFED0F0100292B00000080004108
:102C300091B10000ECA4002061050100A92600006C
:102C400021010100214B98422DE9F04103D90024D4
:102C50002046BDE8F0811E4B1E4F0D4604469847A6
:102C6000B84702281AD01C4B1C4E4FF000625A6124
:102C70000220B04720461A4B9847041E14DB284612
:102C8000B047041E1DDB144B4FF000629A61B84739
:102C900002280ED0134BBDE8F0411847124A134BDF
:102CA000106828219847DEE7114B98470028CFD1BC
:102CB000E5E70D4B0F4C186800231A461946A0474C
:102CC000E8E70B4B98470028C2D1DCE7FEFF1F0066
:102CD000B92B0000ED0F01000080004191B1000010
:102CE000F126000011270000ECA40020610501007E
:102CF000A92600002101010051B3174B70B5541EE5
:102D00009C4222D8B0F5001F1FD20D460446134B3B
:102D10001646984720462946114B9847022E05F142
:102D200002040ADDF21E22F0010204320D4E1544A7
:102D300020460234B047AC42FAD10B4A0B4B4FF05D
:102D400000619161BDE8704018474FF0FF3070BDE1
:102D50004FF0FF30704700BFFEFF1F00B92B00008F
:102D6000252800001D2A00000080004111270000D6
:102D70002DE9F0410E4D0F4B0F4E104C98474FF080
:102D80000067282128680E4B98470E4B776160201A
:102D900098470023B76128680B4D1A461946A84783
:102DA000A047C307FCD4094BBDE8F041184700BF5A
:102DB000ECA40020B92B000000800041B1290000E4
:102DC0006105010091B100002101010011270000FF
:102DD000B0F5001F38B522D2154B04469847154A66
:102DE000154B4FF00061516120209847051E10DB04
:102DF0002046124B9847051E14DB0E4B104C4FF02B
:102E000000629A61A047C307FCD40E4B984728463E
:102E100038BD0D4B98470028EAD0284638BD4FF002
:102E2000FF35F4E7084B98470028F0D1E5E700BFED
:102E3000B92B00000080004191B10000F126000094
:102E4000B129000011270000A9260000400007EE6C
:102E5000900ADFED0D6A0D480D4BB8EE677A10B59C
:102E6000C6EE877AFCEEE77A17EE901A013998479A
:102E7000041E01DB204610BD22460649064B0320F6
:102E80009847204610BD00BF001B374BB4A500205B
:102E9000456400004CA5010015F80000704700BF14
:102EA00008B502460B46064C06490420A0474FF0E1
:102EB000800383F31188BFF36F8FBFF34F8FFEE75B
:102EC00015F8000088A50100024A13680133136059
:102ED000704700BF142D002010B5074B04469847DB
:102EE000022804D0A0B2054BBDE810401847204688
:102EF000034BBDE810401847ED0F0100B160000022
:102F0000510D010070B5032282B0002101205D4CFB
:102F10005D4EA0473060002800F0878000231A46ED
:102F200019465A4DA8473268594E00231946104693
:102F30001A46A847032200210120A047024630601C
:102F400020B100231A461946A8473268514E524C08
:102F50000023194610461A46A84703238DE8480067
:102F60004FF4007200234D494D48A0473368002BB1
:102F700065D04C4D0195032300934FF4007200235C
:102F800049494A48A0472B68002B5DD0484D019520
:102F9000032300934FF4A062002346494648A0470C
:102FA0002B68002B55D0454D0195032300934FF41A
:102FB0008072002342494348A0472B68002B4DD024
:102FC000414D0195032300934FF4807200233F4944
:102FD0003F48A0472B68002B45D03E4D0195032369
:102FE00000934FF4807200233B493C48A0472B6874
:102FF000002B3DD03A4D01950426002300964FF456
:10300000807238493848A0472B68002B35D0374D9F
:103010000195032300934FF480720023344935480F
:10302000A0472B6823B102B070BD0246174D7BE765
:103030003149324B042002B0BDE870401847304996
:103040002E4B0420984794E72E492C4B0420984798
:103050009CE72D49294B04209847A4E72B49274B8F
:1030600004209847ACE72A49244B04209847B4E74A
:103070002849224B04209847BCE7304626491F4B7D
:103080009847C4E7C9000100D4A400202101010031
:10309000ECA40020E0A4002031080100B0A501004C
:1030A000D13D0000E4A40020F0A5010091F700004C
:1030B000D8A4002030A60100C9BC0000F0A4002064
:1030C00070A60100A9AF0000F4A40020A4A601008E
:1030D000A56F0000F8A40020E4A6010091BB000049
:1030E000DCA4002028A70100CD0C0000E8A40020EB
:1030F0005CA701001956000070A7010015F8000038
:10310000C4A5010008A6010044A601007CA6010098
:10311000B8A60100F8A6010034A70100014B012266
:103120001A707047182D00202DE9F8432DED028B01
:1031300004460178DFF8AC802348244D244F254E07
:1031400018220023C047244BDFF89C803220984788
:1031500007EE900ABCEEE77A6060F8EE477A17EE69
:10316000900AA84700221D4BB84713A3D3E90023B8
:10317000C047B047D4ED038AA06008EE100A78EE8D
:10318000687A17EE900AA8470DA3D3E90023B84741
:10319000804618EE900A8946A847114D02460B4614
:1031A00040464946A847B047B0EE480ABDEC028BFE
:1031B000E060BDE8F88300BF0000000000FEAF4003
:1031C0009A9999999999C93F7CA50020CD3201001F
:1031D00075330100653901002DA40000000059403D
:1031E00011300100255C0000C935010038B51822F6
:1031F00004460178094D0A480023A847094B3220AC
:10320000984794ED097A94ED0A0A606007EE900AF7
:10321000A7EE870A84ED020A38BD00BF255C0000D6
:103220007CA500202DA400002DE9F0432DED028B9C
:10323000044683B018220178334F3448344D354E5C
:103240000023B847344B354F322098479FED347AEE
:10325000D4ED016A94ED028A606107EE900A67EE90
:10326000877AB7EE007A67EEA66A77EE677AE0684B
:10327000C6EEA78AA84780468946D4ED047AB1EE07
:10328000487AC7EE276A16EE900AA847254B98475A
:1032900002460B4640464946B847B04707EE100A7B
:1032A000C8EE877A204F17EE900AA8471F4B984721
:1032B0008046894618EE100AA84742464B46B84752
:1032C000B047A8471A4F0EA3D3E90023B847B04729
:1032D00000EE100AE06984ED060A8DED010AA847A8
:1032E0000022144D144BA847144B98479DED010A3A
:1032F00084F8200003B0BDEC028BBDE8F08300BF72
:103300006666666666127140255C00007CA500203A
:10331000CD320100653901002DA400007533010094
:1033200000008039F1240100C9350100E1250100C8
:103330000D300100113001000000E03F253901008F
:103340002DE9F843404C414D41494248424EDFF897
:103350005881DFF858910523A4F89431A4F82C3350
:10336000A4F8C4340023A4F8563EA4F89631A4F877
:103370002E33A4F8C634A4F85E36A4F8F637A4F8C1
:103380008E39A4F8263BA4F8BE3C0623A4F85C368C
:10339000A4F8F4373223A4F8543EA4F88C39A4F8E6
:1033A000243BA4F8BC3CA8472949C6F800012B4897
:1033B000A8474146C6F82C012948A8474146C6F807
:1033C000FC002848A8472849C6F828012748A847EC
:1033D000274B284918602848A8472849F0652848FD
:1033E000A8472849C6F84C012748A84707EE900A85
:1033F0000027FDEEE77A39462448C6ED4F7AA84704
:1034000004F65C644FF07E5160612148A847214971
:10341000C6F830012048A8474FF07E513064484636
:10342000A8473946C6F838011C48A8474FF07E51D6
:10343000B0644846A8471A49C6F834011948A84755
:103440007064BDE8F88300BF182D0020F1C10000B2
:10345000000040C19CA7010014000020A8A70100A3
:10346000B0A70100B8A701000E4F2F3DC0A7010073
:1034700054A6002000004040C8A701000000A84159
:10348000D0A7010000E0C445D8A70100E0A70100D3
:10349000E8A7010000002041F0A7010000A80100FA
:1034A0000000A04008A80100CDCC4C3CF8A70100CA
:1034B0002DE970431D4D1E4CD5ED5F7A1D4E2DED4F
:1034C000028BD5ED238A95ED2E8A68EEA77A17EE4A
:1034D000900AA04778EEC87A804617EE900A89468F
:1034E000A0470022144BB047144E02460B464046FC
:1034F0004946B047804618EE100A8946A047104E4C
:1035000002460B4640464946B0470E4B9847C5F821
:103510009C01A047BDEC028B0B4C02460B46A44617
:103520000A490220BDE87043604700BF1400002034
:10353000CD32010075330100000035400D3001002F
:10354000C93501006539010015F8000010A8010017
:10355000F8B5A04CA04EA14D04F5B870B04704F5E5
:10356000D070B0472B784BB1DFED9D7A94ED5F7A48
:10357000B4EEE77AF1EE10FA00F3058199489A4E1D
:103580009A4FB047B5F88E39B5F88C19D4F8E401E4
:10359000DFED977A8B422CBF00235A1C07EB830385
:1035A00034BF92B20122A5F88E29186041B13B4682
:1035B00007EB8102B3EC017A9A4277EE877AF9D170
:1035C00007EE101AB8EE477A8A48C7EE876AC7ED49
:1035D000656AC4ED7A6AB047B5F8263BB5F8241B96
:1035E000854FD4F80802DFED827A8B422CBF00238E
:1035F0005A1C07EB830334BF92B20122A5F8262B95
:10360000186041B13B4607EB8102B3EC017A9A4264
:1036100077EE877AF9D107EE101AB8EE477A774835
:10362000C7EE876AC7ED656AC4ED836AB047B5F82F
:10363000BE3CB5F8BC1C724FD4F82C02DFED6C7A9E
:103640008B422CBF00235A1C07EB830334BF92B27A
:103650000122A5F8BE2C186041B13B4607EB810260
:10366000B3EC017A9A4277EE877AF9D107EE101A15
:10367000B8EE477A6348C7EE876AC7ED656AC4ED5E
:103680008C6AB047B5F8563EB5F8541E5E4ED4F875
:103690005002DFED577A8B422CBF00235A1C06EBF9
:1036A000830334BF92B20122A5F8562E186041B1AF
:1036B000334606EB8102B3EC017A934277EE877AC8
:1036C000F9D107EE101AB8EE477A5048504FC7EEBE
:1036D000876AC6ED656AC4ED956AB847B5F85E3687
:1036E000B5F85C164B4ED4F8E000DFED417A8B4222
:1036F0002CBF00235A1C06EB830334BF92B2012275
:10370000A5F85E26186041B1334606EB8102B3ECA2
:10371000017A9A4277EE877AF9D107EE101AB8EE5D
:10372000477A3D48C7EE876AC6ED656AC4ED396AD7
:10373000B847B5F8F637B5F8F4173848D4F80C613F
:10374000DFED2B7A8B422CBF00235A1C00EB830346
:1037500034BF92B20122A5F8F6271E6041B103469C
:1037600000EB8102B3EC017A934277EE877AF9D1CC
:1037700007EE101AB8EE477AC7EE876AC0ED656AA1
:10378000C4ED446AF8BD264B9847B0F5FA6F7FF751
:10379000F5AE05F6746394ED537AD3ED027A77EEC5
:1037A000C77AB0EE007AF0EEE77AF4EEC77AF1EE7F
:1037B00010FA7FF5E3AE1B4BD4F87C011A4E984704
:1037C00002460B4602201949B047194B984700237F
:1037D0002B70D3E61400002029310000182D0020A2
:1037E00000007042E0010020293200001435002062
:1037F0000000000004020020AC3600202802002057
:10380000443800204C020020DC390020EC0000206D
:10381000ED310000E4310020180100207C3300204D
:10382000E91D0000CD32010015F8000038A80100A4
:10383000B1340000000000002DE9F047364D374C50
:10384000374E2DED028B95ED238A18EE100AA04716
:103850002FA3D3E9002380468946B047002849D0EA
:10386000D5ED2E8A18EE900AA04729A3D3E90023AC
:10387000B04700283ED0D5ED677A2A4DDFF8CCA0BE
:1038800068EEA77A17EE900AA04778EE687A0646A7
:1038900017EE900A0F46A0470022234BA847024686
:1038A0000B4630463946D047204E214D42464B46C6
:1038B000B047204B984705F6746358609860A0475E
:1038C00000221D4BD0471D4B98471D4AC3B2A2FB97
:1038D00003239B0803EB8303DBB2142B85F8803EA4
:1038E0000ED9642B84BF642385F8803EBDEC028B27
:1038F000BDE8F087134B144A5A60A3F674659A60CA
:10390000152385F8803EBDEC028BBDE8F08700BF33
:103910009A9999999999B93F14000020CD320100E4
:10392000953801007533010000003540C9350100AC
:10393000182D0020653901000000044025390100E0
:10394000CDCCCCCC8C3B00209A99A7411130010002
:10395000454BD3ED447A454BB1EE087AF4EEC77A85
:10396000F1EE10FA2DE9F047414C25D917EE900AF7
:1039700098472FA3D3E9002306460F463D4DA047A5
:103980002DA3D3E90023A8472DA3D3E90023804624
:10399000894630463946A04732463B46A047364C1A
:1039A00002460B4640464946A047344B9847344BA5
:1039B00058609860BDE8F08717EE900A984722A3F8
:1039C000D3E9002306460F462A4DDFF8ACA0A047F6
:1039D0001FA3D3E90023A8471FA3D3E900238046F0
:1039E000894630463946A04732463B46A047024604
:1039F0000B4640464946D04719A3D3E900238046E9
:103A0000894630463946A04732463B46A0473246B3
:103A10003B46A04702460B4640464946A847174B3F
:103A20009847174B58609860BDE8F087AFF3008067
:103A3000F2D24D621058D93F5C8FC2F5285C0B4022
:103A4000DE718A8EE4F26F3F6666666666660240E5
:103A50001904560E2DB2D53F5EBA490C022BDF3F3A
:103A600094F6065F984CA53F14000020CD3201006B
:103A700075330100113001000D300100653901007E
:103A8000A43B0020000000002DE9F047364B374CE6
:103A9000374F384EDFF8F8A0374D2DED028B9847A1
:103AA000364B984704F68C63D7ED238A93ED028A50
:103AB00068EEA87A38EEC88A04F6A46317EE900A76
:103AC00083ED018AB04722A3D3E90023D047804683
:103AD00018EE900A8946B0471FA3D3E90023D047C8
:103AE00002460B4640464946A8471DA3D3E900239A
:103AF000A847234B984797ED397A224B07EE900A57
:103B000037EE677A28EE488AD3ED007AF0EE476AFE
:103B1000E8EE276A04F65C6304F6BC6282ED017A83
:103B2000F0EE667AD3ED056A77EEE67AC3ED017AB8
:103B300017EE900AB0470022134BA847134B984743
:103B4000BDEC028B84F8680EBDE8F087AFF300800F
:103B500020D26F5F07CE893FE7C6F484251E803FE1
:103B6000295C8FC2F528D43F39380000182D002079
:103B700014000020CD320100113001005139000045
:103B80006539010054A600200000E03F25390100FE
:103B90007533010010B50B4B0178702098470A204F
:103BA000094B98474FF480514020084B984702201A
:103BB000074B984703220749074B4020BDE81040B8
:103BC000184700BF19A300000100002075A30000E2
:103BD000D92E000070A600205DA2000070B5234D14
:103BE000234B244E044682B04FF400712868984756
:103BF0002178214B702098470220B04703221F49AB
:103C00001F4B40209847002828DB00231A461946FE
:103C100028681C4DA847194A9FED1B6A11785378F4
:103C2000DFED1A6A03EB012307EE903AB8EEE77A6C
:103C3000FCEEC77A84ED017ACDED017ABDF804304F
:103C400007EE903AF8EE677A9378237777EEC67AA4
:103C500087EEA60A84ED020A02B070BD4FF4C87068
:103C6000B04720460A4B9847CFE700BFD4A40020B6
:103C7000610501000100002019A3000070A60020CA
:103C80005DA200002101010000000047000048443F
:103C9000953B000070B5304D304C314E05F1800041
:103CA000B047B4F89631B4F89411D5F888008B4237
:103CB0002CBF00235A1C04EB830334BF92B20122B1
:103CC0005860A4F89621002940D0264BDFED267AD3
:103CD00003EB8102B3EC017A9A4277EE877AF9D14D
:103CE00007EE101AB8EE477A2048C7EE876AC4ED8F
:103CF000666AC5ED236AB047B4F82E33B4F82C13C6
:103D0000D5F8B4008B422CBF00235A1C04EB83036C
:103D100034BF92B20122C3F89C01A4F82E23C1B192
:103D2000134BDFED117A03EB8102B3EC017A93427E
:103D300077EE877AF9D107EE101AB8EE477AC7EE18
:103D4000876AC4EDCC6AC5ED2E6A70BDDFED067AD8
:103D5000C6E7DFED057AEEE714000020182D0020FD
:103D6000DD3B00001C2D002000000000C0000020F2
:103D7000B42E002070B5084C084E4FF48065C4F88E
:103D800098503220C4F89450B047C4F89850334645
:103D90007D20BDE87040184700800041D92E00000A
:103DA00070B5074D074B084C984705F18000A047B8
:103DB00005F1AC00A0470A20044BBDE8704018474D
:103DC00014000020753D0000953B0000D92E000036
:103DD0002DE9F04F2B4BDFF8F8A02B4DDFF8F490D6
:103DE000DFF8F480294F2A4EDFF8F0B085B098470D
:103DF00004AC024644F8040D26490220D047264B65
:103E0000009301224EF6602100232448A8471D4B51
:103E10000546984700230246009328460121204D7D
:103E2000A84701E01F4B984714212046C847C047C8
:103E3000B847B0470828F5D91B490420D047DBF81C
:103E4000D43EC3B9194B1A4D18681A4B4FF4007180
:103E50009847194B9847194B9847194B9847194B56
:103E600098471248002319461A460068A847164981
:103E70000420D047D6E715490420D0470023CBF8CB
:103E8000D43EDFE7850A01002D140100953C0000B7
:103E900021A400006CA801001D3100009CA80100B5
:103EA00081140100893A0000B0A80100D4A40020C8
:103EB000210101006105010011A40000753D000011
:103EC0002DA20000A13D0000F8A80100D8A8010023
:103ED00015F80000AD0C010051350000182D002030
:103EE000034A044B01460448C2F8FC10184700BFBF
:103EF0001400002065C00000B0A70100034A044B75
:103F000001460448C2F82811184700BF14000020D9
:103F100065C00000B8A70100034A044B01460448ED
:103F2000C2F80011184700BF1400002065C000004F
:103F300018A90100034A044B01460448C2F82C1199
:103F4000184700BF1400002065C00000A8A70100AA
:103F5000014BD3F8FC00704714000020014BD3F84C
:103F60002801704714000020014BD3F8000170476E
:103F700014000020014BD3F82C01704714000020DE
:103F80000D4A0E4B70B5106098470D4D0D4B0E4C01
:103F90000022A84700220D4D0D4BA8470D4B984716
:103FA0000D4B82B24FF4FA712046984720460B4BD6
:103FB000BDE87040184700BFF03B0020CD32010043
:103FC000C9350100000059405CA50020753301008F
:103FD00000407F40253901009963000059630000CB
:103FE000014B1868704700BFF03B00202DE9F04FEF
:103FF0008BB00C46784B09910546084698472046F9
:10400000764B774CDFF81082764E774F9847024612
:104010000B4602207549CDE90623A04740F2DC504B
:10402000C04773496E4B734C0220984706F1AC09A8
:104030004FF0320B4846B847B4F82E33B4F82C137F
:10404000D6F8B4008B422CBF00235A1C04EB830328
:1040500034BF92B20122C3F89C01A4F82E23002998
:1040600000F0B780644BDFED657A03EB8102B3ECBF
:10407000017A934277EE877AF9D107EE101AB8EEFB
:10408000477ABBF1010BC7EE876AC4EDCC6AD1D188
:104090005B4969610022AA615A49514BDFF87CA152
:1040A000DFF87C91022098475046B847B4F82E3389
:1040B000B4F82C13D6F8B4008B422CBF00235A1C42
:1040C00004EB830334BF92B20122C3F89C01A4F82D
:1040D0002E2300297AD0484BDFED487A03EB81028A
:1040E000B3EC017A934277EE877AF9D107EE101A92
:1040F000B8EE477A95ED056AC7EE876A89FB0B2310
:104100004FEAEB72C2EBA30303EB8303D5ED067A10
:10411000C4EDCC6AB4EEE66AF1EE10FAF4EEE67A9B
:10412000C8BFC5ED056AF1EE10FA48BFC5ED066AD5
:10413000BBEB430F35D00BF1010B0A20C047BBF19D
:10414000320FB1D12F49264B02209847D4F8303393
:10415000DDED097A2B612C4BC5ED107A98681F4B69
:104160002C8898472246CDE900011D4B27491C4C5D
:10417000022098472869194B9847184B0646A869AA
:104180000F469847CDE90201144B686998473246BB
:10419000CDE900013B461E490220A0470BB0BDE817
:1041A000F08F194B98680D4B9847CDE904010B4BE4
:1041B000286998479DED067BCDE902018DED007BD6
:1041C0005A461449064B02209847B4E7DFED0B7AB4
:1041D0008CE7DFED0A7A50E7813F0000CD32010025
:1041E00015F8000014000020DD3B000020A90100AC
:1041F0003CA90100182D0020B42E00200000000072
:104200000000C8424CA901008C3B00208CA9010091
:10421000B0A9010068A90100D92E0000C00000204B
:10422000676666662DE9F04F2DED028B8BB0B1F518
:10423000004F0991064600F2748140F2FF10884257
:1042400028BF0846B84CB94BA4F8DC0E9847099A29
:10425000B749B84BDFF81893DFF818A30220984746
:1042600040F2DC50B44B9847B449B24B0220984717
:1042700004F2646809F1D80B64255846D047B4F8B5
:104280005E36B4F85C16AE4FD9F8DC008B422CBF1A
:1042900000235A1C07EB830334BF92B2012218603B
:1042A000A4F85E26002900F03981DFEDA67A3B46AE
:1042B00007EB8102B3EC017A934277EE877AF9D16A
:1042C00007EE101AB8EE477A9D4B9F48C7EE876AF3
:1042D000C3ED656AD047B4F8F637B4F8F417D9F8E7
:1042E00008018B422CBF00235A1C08EB830334BF08
:1042F00092B201221860A4F8F627002900F00B8181
:10430000924BDFED907A08EB8102B3EC017A9A428E
:1043100077EE877AF9D107EE101AB8EE477A013DA9
:10432000C7EE876AC8ED656AA7D10023884A736221
:1043300033633262F26287497E4BDFF83CB202207F
:10434000984785487E4FD047B4F85E36B4F85C167F
:10435000D9F8DC008B422CBF00235A1C07EB8303E7
:1043600034BF92B201221860A4F85E26002900F042
:10437000CF80DFED747A3B4607EB8102B3EC017A24
:104380009A4277EE877AF9D107EE101AB8EE477A9B
:104390006B4B6D48C7EE876AC3ED656AD047B4F8CA
:1043A000F637B4F8F417D9ED426A8B4235BF5A1C80
:1043B000002392B2012208EB8303C3ED006AA4F844
:1043C000F627002900F0A180604BDFED5E7A08EB54
:1043D0008102B3EC017A9A4277EE877AF9D107EE3F
:1043E000101AB8EE477A99ED378A96ED086A5B4B5A
:1043F000C7EE878A83FB0523EA17C2EBA30303EB0F
:104400008303D6ED097AC8ED658AB4EEC68AF1EE6B
:1044100010FAB4EEE78AD6ED0B7A48BF86ED088A2B
:10442000F1EE10FAF4EEE76AD6ED0C7AC8BF86ED2D
:10443000098AF1EE10FAF4EEE76A48BFC6ED0B6A9E
:10444000F1EE10FAC8BFC6ED0C6AB5EB430F40D0D1
:1044500001350A20384B9847642D7FF472AF3D49EF
:10446000344B02209847364B3D49D3F89421D8F875
:104470009431F261099A3280B36202202D4B984741
:10448000F069D8470446706A0D46D847CDE9020165
:10449000306AD84722462B46CDE90001254C3149E8
:1044A0000220A047B06AD8470446306B0D46D84773
:1044B000CDE90201F06AD8472246CDE900012B463A
:1044C00029491C4C0220A0470BB0BDEC028BBDE873
:1044D000F08F16EE900AD847CDE9060118EE100AC3
:1044E000D847CDE9040118EE900AD847CDE902017A
:1044F000134B104FD3F89401D847099BCDE9000125
:104500002A461A490220B847A2E7DFED0E7A66E78D
:10451000DFED0C7A38E7DFED0B7AFCE6DFED097AA8
:10452000CEE600208EE600BF182D00202D1D0000D5
:10453000D8A9010015F80000D92E00003CA90100FF
:10454000E431002000000000180100207C3300202E
:104550000060EA46F0A90100EC000020676666668C
:1045600048AA01005CAA010084AA01001CAA01005B
:1045700014000020ED310000CD3201002DE9F04F94
:104580002DED048B8BB0B1F5004F0991044600F27C
:10459000308140F2FF10884228BF0846964A974B68
:1045A000A2F8DC0EDFF890B2954FDFF89092DFF8BA
:1045B00090829847099A93490220D84740F2DC50EC
:1045C000B84791490220D8471E25C847C047012057
:1045D000B847013DF9D18D4AA26000236261226291
:1045E000E262E360A361636223638949894EDFF875
:1045F00054A20220D84704E001350A20B8471E2DF6
:1046000071D0C847C04796ED238AD4ED027AD6ED23
:104610002E8A96ED399A94ED0B7AF4EEC87AD4EDA1
:10462000037AF1EE10FAF4EEC87AD4ED057AC8BF39
:1046300084ED028AF1EE10FAF4EEE87AD4ED067A0F
:1046400048BF84ED038AF1EE10FAF4EEE87AD4ED77
:10465000087AC8BFC4ED058AF1EE10FAF4EEC97A03
:10466000D4ED097A48BFC4ED068AF1EE10FAF4EEF3
:10467000C97AD6ED447AC8BF84ED089AF1EE10FAF3
:10468000B4EEE77A94ED0C7A48BF84ED099AF1EE26
:1046900010FAF4EEC77AC8BFC4ED0B7AF1EE10FA47
:1046A000C8BFC4ED0C7AEB07A6D417EE900AD0472A
:1046B000CDE9060119EE100AD047CDE9040118EE44
:1046C000900AD047CDE9020118EE100AD0472A46D9
:1046D000CDE90001099B50490220D84701350A2045
:1046E000B8471E2D8DD14A490220D8474B4B96ED35
:1046F000396AD6ED446AD6ED235AD3ED017A099A88
:10470000D6F8B83084ED076A75EEE77A36EE267A89
:10471000B6EE005A27EE057A67EEA74AC4ED0D7A89
:1047200087EE245A228023613D490220C4ED015ABC
:10473000C4ED0A6A84ED0F5A84ED0E7AD84760689A
:10474000D0470646E0680F46D047CDE90201A06891
:10475000D04732463B46CDE9000132490220D847D6
:104760002069D0470646A0690F46D047CDE902012F
:104770006069D04732463B46CDE900012A49022014
:10478000D847E069D0470646606A0F46D047CDE972
:104790000201206AD04732463B46CDE90001234959
:1047A0000220D847A06AD0470646206B0F46D04764
:1047B000CDE90201E06AD04732463B46CDE900012F
:1047C0001B490220D847606BD0470646E06B0F4676
:1047D000D047CDE90201A06BD0473246CDE90001B8
:1047E0003B4614490220D8470BB0BDEC048BBDE812
:1047F000F08F0020D2E600BF182D00202D1D0000F4
:10480000D92E0000D8A901003CA901000000C8422F
:10481000ACAA0100140000201CAA0100A43B002047
:1048200048AA0100D4AA0100B0A901005CAA0100B5
:1048300084AA0100FCAA010015F80000513500000F
:10484000953C0000CD32010070B504468EB0C06BBF
:10485000134D2688A847CDE90C01A06BA847CDE9E8
:104860000A01606BA847CDE90801A06AA847CDE915
:104870000601E069A847CDE904012069A847CDE910
:1048800002016068A8473246CDE90001054B0649A0
:1048900002209847054B05200EB0BDE87040184730
:1048A000CD32010015F800003CAB0100D92E00000C
:1048B00070B5044686B0006C0B4D2688A847CDE93C
:1048C0000401A06AA847CDE90201E069A847324681
:1048D000CDE90001054B064902209847054B05200C
:1048E00006B0BDE870401847CD32010015F8000051
:1048F00074AB0100D92E00002DE9F04F2DED028B95
:1049000059495A4B5A4D5B4C83B0022098475A493B
:10491000564B022098475949544B02209847584912
:10492000524B02209847C8231846564AA5F8DC3E49
:1049300090474FF4FA50544B984705F56E660023A4
:10494000A5F8C63430465149514B9847D6F810B0B7
:10495000B246472507EE905AF8EEE77A4C4B4D4F9A
:1049600017EE901A504698473069A047804658463F
:104970008946A0473AA3D3E90023B847464F0246E9
:104980000B4640464946B847002850D101355A2DBC
:10499000E0D13F4B3D49414898474623D6F810A007
:1049A00001934FF04B0B019D02E001355D4539DC71
:1049B00007EE905AB8EEE78A354B3848354F18EE77
:1049C000101A98473069A047804650468946A0474C
:1049D00023A3D3E90023B8472F4F02460B46404696
:1049E0004946B8470028E0D000202D4B0195984754
:1049F000019A2C491D4B02209847DFED2B7A2B4A58
:104A00002B482C4B28EE278ABDEEC88AF8EEC87AD0
:104A100082ED4F8A17EE901A03B0BDEC028BBDE811
:104A2000F04F1847DDED017AB8EEE78AE0E7AA1EFD
:104A3000174600201A4B0192984707EE907AB8EE7D
:104A4000E78A05F1030B18EE101A1448104B98472B
:104A5000BB45D6F810A0A6DACAE700BFAFF30080C6
:104A60009A9999999999C93F90AB010015F800005E
:104A7000182D0020CD320100C8AB0100FCAB0100B5
:104A800024AC01002D1D0000D92E000000008C4236
:104A9000ED3F00001130010095380100F83B002087
:104AA000813F00003CAC01000000C842140000201F
:104AB000D8A7010065C000002DE9F0410023144C87
:104AC000144AA4F8DC3E1846904704F65C68124B82
:104AD000124F134E134D98470023C8F81430642426
:104AE000B847B047A847013CFAD1D8F804000E4BAC
:104AF000C8F8140098470D4C0B4602460C4902209A
:104B0000A047D8F814100B480B4BBDE8F0411847EC
:104B1000182D00202D1D0000591E000051350000E9
:104B2000953C0000893A0000CD32010015F80000E4
:104B30005CAC0100E0A7010065C000002DE9F04178
:104B40000D4DD5F8D44E2CB10C490D4B0320BDE8CA
:104B5000F041184720460B4BA5F8DC4E0A4F98470A
:104B60000A4B01261868C5F8D46E23463146BC4668
:104B70000322BDE8F0416047182D00208CAC0100F5
:104B800015F800002D1D000065120100E8A40020AA
:104B9000014BD3F8D40E7047182D002010B5114CDE
:104BA00094F86C3103B910BD0F4B9847B0F57A7F7C
:104BB00013DB0E4A0E4B916804F598709847D4EDBC
:104BC000597A9FED0C7A0C4BF8EEE77ABDE810406D
:104BD000C7EE876A16EE900A18470020064BBDE81C
:104BE0001040184714000020E91D00008C3B0020F5
:104BF000B52201000000C842813F00000000000013
:104C00002DE9F84FDFF82CB1DFF82CA1424C434DD1
:104C1000434E2DED028B08EE100ADBF88C0008EEF7
:104C2000901AD04730A3D3E90023A04702460B4691
:104C30002FA1D1E90001A847B04707EE900AF5EE91
:104C4000C07AF1EE10FA4AD4D047364B364F984727
:104C50008046DBF88C008946D047002282468B468E
:104C6000324B40464946A84723A3D3E90023A04737
:104C700023A3D3E900238046894650465946A047DE
:104C800052465B46A04702460B4640464946B84757
:104C90001DA3D3E900238046894650465946A047C4
:104CA00002460B4640464946B84719A3D3E90023BC
:104CB000A847B047F2EE047A38EE278A07EE100ACA
:104CC000DFED1B7AB4EEC87AF1EE10FAD4BF17EE1E
:104CD000900A18EE900ABDEC028BBDE8F88F002018
:104CE0000021B2E7AFF30080000000000044E6407E
:104CF00000000000A42E1F414C67319DC574A6BF63
:104D00005DA79196CADB613FBDE3141DC9E5AF3FC6
:104D1000984C158C4AEAB43F753301000D30010000
:104D200065390100D9260100113001000048834097
:104D30000080FF4314000020CD3201001B4BD3ED57
:104D4000017ABFEE007AF4EEC77AF1EE10FA2CD4B5
:104D500010B5174C94F87C3003B910BD17EE901ABB
:104D600004F14000134B9847B4F87400B0F5004FBD
:104D700015D90020104A114BA2F8DC0E9847D4ED4B
:104D80001D7AE06D0E4BF8EEE77A17EE901A984711
:104D900007EE900AFDEEE77AC4ED157A10BD40F2F9
:104DA000FF13984228BF1846E4E77047743B002081
:104DB00014000020B5220100182D00202D1D000038
:104DC000014C000070B50A4D0A490B4C0126022027
:104DD000A047C5F8986040F63400084B9847C5F8DE
:104DE0009460234606490220BDE87040184700BF82
:104DF00000800041E4AC010015F80000D92E00004D
:104E000020AD01002DE9F04F2DED028B044683B05B
:104E10005249DFF890B10220D84700235049514A47
:104E2000A1F8DC3E184690473CB14F4C4F4D01E095
:104E30001420A847A0470028FAD04D4B4D4D4E4EA8
:104E40009FED4E8A98474E4902460220D84705F109
:104E5000D80764243846B047B8EE488AD5ED377A8B
:104E600038EE278A013CBCEEC88AF3D118EE102A2E
:104E7000444B454FD5F80001DFF82C81DFF82CA119
:104E8000A3FB02235B0907EE903AF8EEE77A08EEFF
:104E9000104AC5ED3B7AB84702460B4602203B4913
:104EA000D84795ED3B7AD5ED3F7A394867EEC77A1A
:104EB000642417EE901AC5ED407AC047D5F800017A
:104EC000B84702460B4602203249D8475046B04701
:104ED000B8EE488AD5ED427A38EE278A013CBCEE1E
:104EE000C88AF3D118EE102A264BD5F82C01A3FB63
:104EF00002235B0907EE903AF8EEE77AC5ED467AB1
:104F0000B84702460B4602202349D84795ED467A1A
:104F1000D5ED4A7A214867EEC77A17EE901AC5EDAB
:104F20004B7AC047D5F82C01B84702460B46022001
:104F30001849D847D5F8EC00B8478046D5F818018D
:104F40008946B8474246CDE900014B461449022044
:104F5000D84703B0BDEC028BBDE8F08FECAE01008A
:104F6000182D00202D1D0000CD1E0000D92E0000A0
:104F7000E91D000014000020ED31000000000000D9
:104F800014AF01001F85EB51CD32010030AF01009D
:104F900018A9010054AF010074AF0100A8A70100D7
:104FA00098AF010015F8000065C00000180100204E
:104FB0002DE9F04FAD49AE4DAE4EDFF80C83AE4F4C
:104FC000AE4CA3B00220A847AD490220A847AD4986
:104FD0000220A847AC4B012098474FF0C809AB49C5
:104FE0000220A8474846A6F8DC9EC0474FF4FA5076
:104FF000A74B98470023494606F56E60A6F85E3633
:10500000A6F8F637B847A3490220A847A0470028CA
:10501000FCD0DFF8B8B2DFF8B8A2DFF8B892D84712
:10502000D047502201460EA8C8470EA90220A84723
:105030009DF83830782B00F05B81712B00F058819F
:10504000954B0EA89847954B9847954BC8211864E7
:105050001846B847924B4FF4967103F14400B84795
:1050600090490220A847A0470028FCD0D847D04745
:10507000502201460EA8C8470EA90220A8479DF855
:105080003830782B00F03481712B00F03181824B65
:105090000EA89847814B9847834B4FF4967118643C
:1050A0001846B847804B4FF4C87103F14400B84725
:1050B0007C490220A847A0470028FCD0D847D04709
:1050C000502201460EA8C8470EA90220A8479DF805
:1050D0003830782B00F00C81712B00F009816E4B79
:1050E0000EA898476D4B9847704B4FF4C8711864E1
:1050F0001846B8476D4B4FF4E17103F14400B847CF
:1051000068490220A847A0470028FCD0D847D047CC
:10511000502201460EA8C8470EA90220A8479DF8B4
:105120003830782B00F0E480712B00F0E1805A4B8E
:10513000DFF8A491DFF8A4B10EA89847574B984721
:105140004FF4E171C9F840004846B84759F8A44CFB
:105150000694A9F1CC0300241B6C59F8602C59F873
:10516000481C59F81C0CD9F828C0D9F840E059F867
:10517000047C019405AC0A9307920B91089000946B
:1051800004AB0AAA06A90420CDF824C0CDF834E067
:105190000C97D847002840F0BA80DDED047AF5EE90
:1051A000C07AF1EE10FA07DDB7EE007AF4EEC77AB6
:1051B000F1EE10FA00F1DC803D493E4F0220A84795
:1051C0000498B84702460B46CDE902230598B84734
:1051D000DDE90223CDE9000137490320A847304B20
:1051E000D9F81C70D3F81CA0D3F860C0D3F8A4E0A1
:1051F00000940020019004AB0AAA06A90420CDF86F
:1052000018A0CDF81CC0CDF820E00997D847002899
:1052100079D1DDED047AF5EEC07AF1EE10FA06DD13
:10522000B7EE007AF4EEC77AF1EE10FA73D42349A0
:10523000204C0220A8470498A047824605988B4638
:10524000A0475246CDE900015B461B490320A84711
:1052500000231846A6F8DC3EC0471949194C022025
:10526000A8470F48A0471048A04739E0CCAF01003D
:1052700015F80000182D002025420000ADC70000E1
:10528000F4AF010038B00100054E000024AC01006D
:10529000D92E000084B00100153D010065390100E0
:1052A000F83B0020D4B001003C3C0020803C0020B2
:1052B00088B10100CD32010040B1010088B2010087
:1052C00018B30100B14800002D1D0000ADC9000059
:1052D00041F30000814D0100C43C0020B9230100CE
:1052E0003C48A0473C48A0473C490220A84707E06B
:1052F00003203B49A84700231846A6F8DC3EC047D8
:1053000023B0BDE8F08F37490220A847A0E736490F
:105310000220A84763E7DDED057AF5EEC07AF1EEED
:1053200010FA84D59FED317AF4EEC77AF1EE10FAD7
:105330007FF77DAF2E492F4C2F4F0220A8470498AE
:10534000A047824605988B46A0475246CDE900010A
:105350005B462A492A4C0320A84705992948C7F8E3
:105360000011A04704992848C7F8FC10A0476FE730
:10537000DDED057AF5EEC07AF1EE10FA7FF51CAF9F
:105380009FED1A7AF4EEC77AF1EE10FA7FF714AFB8
:105390001E49184FDFF860A00220A8470498B847BC
:1053A00002460B46CDE902230598B847DDE9022302
:1053B000CDE900011649124F0320A8470599154869
:1053C000CAF82C11B84704991348CAF82811B847ED
:1053D00005E700BF803C0020C43C002098BA0100D3
:1053E000B4B00100D0B20100CCB10100000048C24D
:1053F00004B20100CD3201001400002040B20100CF
:1054000065C0000018A90100B0A7010008B10100A3
:1054100040B10100A8A70100B8A7010070B5644C15
:10542000D4F8D43E112B0AD8DFE803F00C27370D4F
:10543000535C626C76797D8185890D171A3B002358
:10544000C4F8D43E70BD5B4B98470028FAD0D4F81E
:10545000D43E0133C4F8D43E70BD574B9847F6E7AD
:10546000564B9847D4F8D43E06220133C4F8D43EB4
:10547000A4F85C26A4F8F42770BD514B51490220D2
:10548000984700231846504AA4F8DC3E9047D4F8C9
:10549000D43E0133C4F8D43E70BD0323C4F8D43ED7
:1054A00070BD4A49464E4A4D0220B0474948A84778
:1054B0004948A8474948A8474948A8474948A847EC
:1054C0004948A84749490220B0470023C4F8D43EC0
:1054D00070BD1E230020464AA4F85C36A4F8F437B9
:1054E0009047B4E7364B434902209847C823C9E7A1
:1054F000414B40F6B8309847D4F8D43E0133C4F855
:10550000D43E70BD3348C8213C4B9847D4F8D43EB4
:105510000133C4F8D43E70BDFA212F48F4E74FF4AC
:1055200096712E48F0E74FF4AF712D48ECE74FF439
:10553000C8712C48E8E74FF4E1712B48E4E70023F9
:105540001846214AA4F8DC3E9047224B2C4AD3ED62
:10555000206AD3ED0F7A93ED315AD3ED425A93ED91
:10556000536A12ED227A274D2748284B77EEA67A08
:10557000F1EE086A77EE857A77EEA57A77EE867A8D
:1055800077EE877A87EEA67A17EE101A85ED007A05
:10559000984728681E4B0A4D98470B4602461D49FE
:1055A0000220A847D4F8D43E0133C4F8D43E70BDDD
:1055B000182D0020CD1E0000B94A000055C0000083
:1055C00015F8000038B301002D1D0000A8B301003C
:1055D00049480000F83B00203C3C0020803C002073
:1055E000C43C0020083D00204C3D002098BA01003A
:1055F000054E000024AC0100D92E00007D450000BE
:10560000103E002054A60020C0A7010065C0000085
:10561000CD32010088B301002DE9F04F174BDFF8C0
:105620007080174EDFF86CB0164D174FDFF868A08A
:10563000DFF8689083B0984702AC024644F8080D42
:1056400012490220C0470A212046B0474FF0FF33DD
:10565000194601AA0020D84751460220C047D5F874
:10566000D43E3BB10A212046B047B847D5F8D43ED6
:10567000002BF7D149460220C047E4E7850A010024
:10568000AD0C0100182D00201D540000DCB30100FA
:1056900015F80000D111010004B4010038B4010074
:1056A000044B0022C3F85821C3F85C21C3F86021E1
:1056B000704700BF14000020024B00229A66DA6691
:1056C0001A67704714000020014BD3F88C00704714
:1056D00014000020014BD3F8B800704714000020DC
:1056E000014BD3F87C01704714000020134BD3ED1D
:1056F0006B7AB1EE047AF4EEC77AF1EE10FA11D4B7
:10570000B3EE0E7AF4EEC77AF1EE10FA08D49FEDFC
:105710000C7AF4EEC77AF1EE10FA05D50220704744
:1057200001207047002070479FED067AF4EEC77A9B
:10573000F1EE10FA4CBF0320002070471400002047
:1057400000005C420000A042014BD3F8AC0170475E
:1057500014000020B0F5004F09D840F2FF13984222
:10576000064A28BF1846064BA2F8DC0E1847034A23
:10577000034B0020A2F8DC0E184700BF182D0020B4
:105780002D1D0000014BB3F8DC0E7047182D0020D2
:10579000014BD3F8E400704714000020014BD3F80C
:1057A0001001704714000020014BD3F8E801704746
:1057B00014000020014BD3F80C02704714000020A5
:1057C000014BD3F83002704714000020014BD3F88E
:1057D0005402704714000020014BD3F88400704736
:1057E00014000020014BD3F8B000704714000020D3
:1057F000014BD3F8DC00704714000020014BD3F8B4
:105800000801704714000020014BD3F8E0017047F5
:1058100014000020014BD3F804027047140000204C
:10582000014BD3F82802704714000020014BD3F835
:105830004C02704714000020014B83F86C01704744
:1058400014000020014B93F86C01704714000020F5
:10585000034A044B01460448C2F84C11184700BFE4
:105860001400002065C00000D0A70100014BD3F850
:105870004C01704714000020014BD3F850017047D1
:1058800014000020014BD3F864017047140000207D
:10589000014BD3F85401704714000020014BD3F89A
:1058A0005C01704714000020044BD3F8440107EE5C
:1058B000900AF8EEE77A17EE900A7047140000207D
:1058C000014B9868704700BF8C3B00200D4BD3ED17
:1058D000027AB3EE047AF4EEC77AF1EE10FA0BD442
:1058E0009FED097AF4EE477AF1EE10FAC8BFF0EEB8
:1058F000477A17EE900A7047F0EE477A17EE900A53
:10590000704700BF8C3B00200000C842034A044B94
:1059100001460448C2F83011184700BF14000020A7
:1059200065C00000E8A70100034A044B0146044893
:10593000C2F83411184700BF1400002065C00000F1
:1059400068B40100034A044B01460448C2F8381108
:10595000184700BF1400002065C00000F8A7010030
:1059600007EE100ADFED077A074A084B084867EE92
:10597000277AFDEEE77AB8EEE77AC2ED4F7A17EEB6
:10598000101A18470000C8421400002065C000002B
:10599000D8A70100024A034B01460348D1651847C6
:1059A0001400002065C00000C8A70100014BD86D9D
:1059B000704700BF14000020014B186E704700BFF5
:1059C00014000020014B83F87C0070471400002075
:1059D000014B586F704700BF14000020014B586EF8
:1059E000704700BF14000020014BD86E704700BF05
:1059F00014000020044B586D07EE900AF8EEE77A89
:105A000017EE900A704700BF14000020014B586841
:105A1000704700BF743B0020044B93F8680E07EEFC
:105A2000900AF8EE677A17EE900A7047182D00205A
:105A3000014B5868704700BFD43B0020014B5868A9
:105A4000704700BFBC3B0020014B93F87C007047BF
:105A500014000020024A034B014603481164184712
:105A60001400002065C00000F0A70100024A034BAB
:105A700001460348516418471400002065C0000027
:105A800008A80100024A034B0146034891641847E5
:105A90001400002065C0000000A80100014B83F83D
:105AA0003C00704714000020014B5868704700BF4D
:105AB000A43B0020014B1868704700BF54A600208B
:105AC000024A034B014603481160184754A60020C0
:105AD00065C00000C0A70100014B1869704700BFF6
